:100000000C9476010C949E010C949E010C949E011C
:100010000C949E010C949E010C949E010C949E01E4
:100020000C949E010C949E010C94BC230C942B24E4
:100030000C949E010C949E010C949E010C949E01C4
:100040000C949E010C949E010C949E010C949E01B4
:100050000C949E010C949E010C949E010C947223AE
:100060000C949E010C9483260C945D260C949E01A6
:100070000C949E010C949E010C949E010C949E0184
:100080000C949E010C949E010C949E010C949E0174
:100090000C9453220C949E010C949E010C949E018E
:1000A0000C949E010C949E010C949E0141542B4390
:1000B00053510D0A001F1C1F1E1F1E1F1F1E1F1E37
:1000C0001F080B00020202000009040000010202E6
:1000D000000005240010010524010101042402068A
:1000E00005240600010705810310004009040100F2
:1000F000020A000000070502024000000705830213
:100100004000000403090412010002EF0201404F05
:100110001B0692000101020301537061726B467568
:100120006E00537061726B46756E2050726F204D79
:100130006963726F0041542B435245473D310D0AAC
:100140000041542B43545A523D310D0A0041542B67
:1001500043545A553D310D0A0041545A300D004167
:10016000542B4950523D31393230300D0A00415440
:100170002B4346554E3D310D0A0041542B43465505
:100180004E3D300D0A0045004500450000000000CE
:10019000240027002A002D00300000000000250068
:1001A00028002B002E003100000000002300260054
:1001B00029002C002F000404040404030405020297
:1001C00002020403020202020606060606060404F0
:1001D0000202020404040802011040804010204082
:1001E000804080080204018040201002011080102D
:1001F000204040200000000200090F00000304011D
:10020000000C0000000000000000000000000000E2
:10021000000041542B434C49503D310D0A004154DC
:100220002B4347534E0D0A004154480D0A003B0D25
:100230000A004154440041542B434855500D0A00D4
:1002400041542657300D0041542B434C49503D3109
:100250000D0A0041542B4347455245503D300D0A8D
:1002600000415445300D0A0061742B71757263634F
:1002700066673D22757263706F7274222C227561FD
:10028000727431220D0A0041542B434E4D493D31C9
:100290002C322C302C302C300D0A0041542B434C86
:1002A00049503D310D0A0041542B434D47463D31E5
:1002B0000D0A0041542B435245473D310D0A003B86
:1002C0002657300D0A0041542B434E4D503D00221D
:1002D0000D0041542B434D47533D220041542B43C5
:1002E000434C4B3F0D0A0000B526BE3011241FBE03
:1002F000CFEFDAE0DEBFCDBF26E0A8E0B3E001C07B
:100300001D92AB37B207E1F713E0A0E0B1E0E2ECF9
:10031000FDE602C005900D92A830B107D9F711E0B3
:10032000C5E7D1E004C02197FE010E94DF31C43748
:10033000D107C9F70E946C270C94D4360C940000A6
:1003400080911C0490911D04891B990B0895FC0158
:1003500080910604882311F13FB7F89482E08093DE
:10036000E9002091F200822F90E01816190614F48B
:1003700081E090E0882339F0289844E64093050412
:100380004091F1004083222339F02091F2002111A5
:1003900003C02BE62093E8003FBF08958FEF9FEF47
:1003A00008952FB7F89483E08093E9009091E800D6
:1003B000892F807295FF04C09091F20080E4891B20
:1003C0002FBF08952091E003260F3327331F2132DA
:1003D0003105ECF420916404FC0190E080E02430CD
:1003E00069F082E00895A091E0032191AC014254AC
:1003F0005C4FA40FB52FB11D2C930196861798F36F
:100400008091E003680F6093E00380E0089581E04D
:100410000895089508950895E0911D0480911C04A5
:10042000E81730F4F0E0E25EFB4F808190E0089541
:100430008FEF9FEF089590911D0480911C042FEF82
:100440003FEF981748F4E92FF0E0E25EFB4F208180
:1004500030E09F5F90931D04C9010895CF92DF9211
:10046000EF92FF920F931F93CF93DF937C01CB0109
:100470008A0120916A04222389F0EB016B01C40EEA
:10048000D51ECC15DD0569F06991D701ED91FC9180
:100490000190F081E02DC7010995F3CF642F0E94F0
:1004A000E201C801DF91CF911F910F91FF90EF9072
:1004B000DF90CF900895CF93DF931F92CDB7DEB733
:1004C000698320916A042223F9F020918D0420325F
:1004D00058F021E030E0FC013383228390E080E09B
:1004E0000F90DF91CF91089580916B04E82FF0E099
:1004F000E459FB4F998190838F5F80936B048093C5
:100500008D0481E090E0ECCF61E0CE0101960E9485
:10051000E201F7CF682F8EE894E00C945B028091A3
:10052000B50381110DC082E08093B10384E0809314
:10053000B2031092B4031092B30381E08093B50329
:1005400081EB93E0089581508F3008F047C0E82F89
:10055000F0E0E355FD4F0C94DF31CA02CE02BC023D
:10056000C202C602EE02EE02EE02D102D702DB02A6
:10057000DF02E502EE02E902809180008F7780932E
:1005800080000895809180008F7DF9CF8091800058
:10059000877FF5CF84B58F7784BD089584B58F7D2F
:1005A000FBCF809190008F77809390000895809189
:1005B00090008F7DF9CF80919000877FF5CF80915B
:1005C000C0008F778093C00008958091C0008F7D18
:1005D000F9CF8091C200877F8093C2000895CF93A6
:1005E000DF93282F30E0F901EC50FE4F8491F901A0
:1005F000EB52FE4FD491F901EA54FE4FC491CC2343
:10060000A1F081110E94A302EC2FF0E0EE0FFF1F7A
:10061000E855FE4FA591B491EC91ED2381E090E077
:1006200009F480E0DF91CF91089580E090E0FACF67
:100630001F93CF93DF93282F30E0F901EC50FE4F4A
:100640008491F901EB52FE4FD491F901EA54FE4F27
:10065000C491CC23A9F0162F81110E94A302EC2F84
:10066000F0E0EE0FFF1FE656FE4FA591B4918FB755
:10067000F894EC91111108C0D095DE23DC938FBF64
:10068000DF91CF911F910895DE2BF8CF1092640473
:1006900081E08093630410923E0461E082E00E9456
:1006A000180361E083E00E941803E9EBF0E0808129
:1006B0008E7F808380818D7F808388E48093B800E3
:1006C00085E48093BC000895CF93DF9391E09093ED
:1006D000BD038823B9F0C091B800D091BA008091D1
:1006E000BC008A7B8093BC0060E082E00E9418031B
:1006F00060E083E00E9418030E944603D093BA0092
:10070000C093B800DF91CF910895CF93DF9390E02D
:10071000FC01EB52FE4F24918A549E4FFC018491C0
:100720008823C9F090E0880F991FFC01E457FE4F21
:10073000A591B491FC01E656FE4FC591D49161118B
:100740000DC09FB7F8948C91209582238C9388815B
:10075000282328839FBFDF91CF910895623051F401
:100760009FB7F8943C91822F809583238C93E881E6
:100770002E2BEFCF8FB7F894EC912E2B2C938FBFAD
:10078000EACF3FB7F8948091AD039091AE03A0916A
:10079000AF03B091B00326B5A89B05C02F3F19F059
:1007A0000196A11DB11D3FBFBA2FA92F982F8827F1
:1007B000BC01CD01620F711D811D911D42E0660FCC
:1007C000771F881F991F4A95D1F708958F929F929E
:1007D000AF92BF92CF92DF92EF92FF920F931F934F
:1007E000CF93DF93D0918D04D13208F0D7C0182F6A
:1007F000C0918C040E94C1036B017C018091640450
:1008000081116BC082E080936404109363048FEFC6
:100810008093620410926104D0936004ACE6B4E06B
:10082000E0E4F4E080E0D81391C010923F0480919E
:100830003F04CC0FC82BC0933F0480913E0481300D
:1008400009F088C010923E040E94C1036B017C0134
:1008500080913F048093BB0080916604909167046F
:10086000A0916804B0916904892B8A2B8B2BA1F08D
:100870000E94C103009166041091670420916804EE
:10088000309169046C197D098E099F0906171707B5
:100890002807390708F442C08091BC0083FDD8CFF7
:1008A00085EC8093BC000E94C1036B017C018091A8
:1008B0006404823009F450C0809162048F3F09F4CF
:1008C0006FC080916204803209F46CC08091620430
:1008D000803309F469C084E026C080916604909159
:1008E0006704A0916804B0916904892B8A2B8B2B33
:1008F00009F484CF0E94C10380906604909067043D
:10090000A0906804B09069046C197D098E099F0954
:1009100086169706A806B90608F070CF8091650480
:100920000E94640385E010926B0410928D04109273
:100930006A04DF91CF911F910F91FF90EF90DF90AC
:10094000CF90BF90AF909F908F9008959D9191937D
:100950008F5F69CF85EEA5CF809166049091670483
:10096000A0916804B0916904892B8A2B8B2B09F420
:100970009ECF0E94C10300916604109167042091EC
:100980006804309169046C197D098E099F09061766
:1009900017072807390708F08ACFC0CF81E0C3CFF7
:1009A00080E0C1CF82E0BFCF83E0BDCF8F929F9226
:1009B000AF92BF92CF92DF92EF92FF926B017C01D8
:1009C0000E94C1034B015C01C114D104E104F10494
:1009D000B9F00E94C103681979098A099B09683E28
:1009E00073408105910580F321E0C21AD108E10826
:1009F000F10888EE880E83E0981EA11CB11CE4CF9C
:100A0000FF90EF90DF90CF90BF90AF909F908F902E
:100A100008951F93CF93DF93EC01162F81E080930D
:100A20006A0480E580938C0410926B0410928D040C
:100A30008D2F90E00E948A02CE0199270E948A029F
:100A4000612F8EE894E00E945B0281E00E94E60341
:100A500064E170E080E090E0DF91CF911F910C9411
:100A6000D6042FB7F8946091A9037091AA038091DE
:100A7000AB039091AC032FBF08950F931F93CF93B7
:100A8000DF93EC01092E000CAA0BBB0B8093B80579
:100A90009093B905A093BA05B093BB050E943105A8
:100AA000AB01BC018091BF059091C005A091C1052B
:100AB000B091C2058A019B01081B190B2A0B3B0B45
:100AC0008091B8059091B905A091BA05B091BB0588
:100AD000081719072A073B0758F18091B6058111BD
:100AE00024C081E08093B605C43F81E0D8075CF064
:100AF000CE01845F9140092E000CAA0BBB0B481B52
:100B0000590B6A0B7B0B4093BF055093C005609354
:100B1000C1057093C2056091B6058091B405DF915F
:100B2000CF911F910F910C9418031092B605EBCF43
:100B3000DF91CF911F910F91089508954091160371
:100B40005091170320911403309115034217530756
:100B5000B4F49091E8009570E1F39091E80092FD73
:100B600019C08093F10080911603909117030196AC
:100B70008F739927892B19F48EEF8093E800809169
:100B80001603909117030196909317038093160311
:100B900081E0089580E00895EF92FF920F931F93F4
:100BA000CF93DF93F82E192FE62E042F81E0860FC6
:100BB000880F0E949E0583E00E949E05CF2DD12FB5
:100BC000EC0EFD2EF11CCE15DF05B9F007FF13C0AA
:100BD000FE0184910E949E05182F80E00E949E05D0
:100BE000812321968111EFCFDF91CF911F910F913A
:100BF000FF90EF9008958881EDCF81E0F5CFDF92EF
:100C0000EF92FF920F931F93CF93DF93D82E8A0119
:100C1000EB017B01E40EF51ECE15DF0559F0D7FE82
:100C200012C0FE0184910E949E0521968111F4CF8D
:100C30000FEF1FEFC801DF91CF911F910F91FF9030
:100C4000EF90DF9008958881EECF0F931F93CF939D
:100C5000DF931F92CDB7DEB782E0898342E450E094
:100C600061EC70E080E80E94FF050E948F02DC01C9
:100C700012960D911C910115110589F0D801ED9185
:100C8000FC910280F381E02DBE016F5F7F4FC801B0
:100C9000099597FD04C0F80100851185ECCF898185
:100CA0000F90DF91CF911F910F910895615030F017
:100CB0002091F100FC0120830196F8CF289884E66A
:100CC0008093050408950F931F93CF93DF93EC0156
:100CD0000E943105688779878A879B87E881F98137
:100CE0000284F385E02DCE01099597FF15C00E947F
:100CF0003105088519852A853B85601B710B820BA0
:100D0000930B0C811D812E813F8160177107820733
:100D1000930720F38FEF9FEFDF91CF911F910F91FA
:100D20000895DB0114964D915C9115976D917C911E
:100D3000DC01ED91FC910280F381E02D0994EF92AA
:100D4000FF920F931F93CF93DF938C017B01D0E031
:100D5000C0E0F701EC0FFD1F6491662361F0D8013C
:100D6000ED91FC910190F081E02DC8010995892B4E
:100D700011F02196EECFCE01DF91CF911F910F910F
:100D8000FF90EF90089566E372E08AE994E00C9496
:100D90009F06AF92BF92CF92DF92EF92FF920F9396
:100DA0001F93CF93DF936C017B018B01040F151F01
:100DB000EB015E01AE18BF08C017D10759F0699169
:100DC000D601ED91FC910190F081E02DC6010995CD
:100DD000892B79F7C501DF91CF911F910F91FF907A
:100DE000EF90DF90CF90BF90AF90089590E080E0BB
:100DF0000895FC01538D448D252F30E0842F90E021
:100E0000821B930B541710F0CF9608950197089505
:100E1000FC01918D828D981761F0A28DAE0FBF2FCE
:100E2000B11D5D968C91928D9F5F9F73928F90E024
:100E300008958FEF9FEF0895FC01918D828D981793
:100E400031F0828DE80FF11D858D90E008958FEFD0
:100E50009FEF0895FC01918D228D892F90E0805C99
:100E60009F4F821B91098F73992708958AE994E017
:100E70000E942A0721E0892B09F420E0822F08959F
:100E800080E090E0892B29F00E94360781110C94B4
:100E900000000895FC01A48DA80FB92FB11DA35A1D
:100EA000BF4F2C91848D90E001968F739927848F8A
:100EB000A689B7892C93A089B1898C9182748C936F
:100EC000938D848D981306C00288F389E02D80816C
:100ED0008F7D80830895EF92FF920F931F93CF939E
:100EE000DF93EC0181E0888F9B8D8C8D981319C066
:100EF000E889F989808185FF14C09FB7F894EE894D
:100F0000FF896083E889F9898081827480839FBF2B
:100F100081E090E0DF91CF911F910F91FF90EF90D2
:100F20000895F62E0B8D10E00F5F1F4F0F731127E2
:100F3000E02E8C8D8E110CC00FB607FCFACFE8891D
:100F4000F989808185FFF5CFCE010E944A07F1CF54
:100F5000EB8DEC0FFD2FF11DE35AFF4FF0829FB791
:100F6000F8940B8FEA89FB8980818062CFCFCF9381
:100F7000DF93EC01888D8823B9F0AA89BB89E889C1
:100F8000F9898C9185FD03C0808186FD0DC00FB667
:100F900007FCF7CF8C9185FFF2CF808185FFEDCFE5
:100FA000CE010E944A07E9CFDF91CF9108958F9239
:100FB0009F92AF92BF92CF92DF92EF92FF920F93E8
:100FC0001F93CF93DF936C017B018A0180910B010A
:100FD000882309F45CC080910604882309F457C073
:100FE00080911A0380FF05C08091E00082608093A9
:100FF000E000E801B12C8AEFA82E93E0892E2AE3C5
:10100000922E209711F4BB20D9F10E94D1018111B9
:101010000AC0AA94AA20D9F161E070E080E090E0D3
:101020000E94D604EECF8C171D0611F00CF08C2F09
:101030009FB7F8948092E9002091E80025FD02C056
:101040009FBFDFCF282F30E0C21BD30BF7018150A9
:1010500020F041914093F100FACFE20EF31EBB2045
:1010600021F09092E800B12CEBCF8091E80085FD53
:10107000E7CF9092E800BB24B394209709F3F3CF15
:101080005D9884E680931903101611063CF081E008
:1010900090E0F6019383828310E000E0C801DF91C5
:1010A000CF911F910F91FF90EF90DF90CF90BF9065
:1010B000AF909F908F900895CF93DF931F92CDB7FD
:1010C000DEB76983DC01ED91FC910280F381E02DB4
:1010D00041E050E0BE016F5F7F4F09950F90DF91B7
:1010E000CF91089583E08093E9008091F2008823F6
:1010F00019F08AE38093E80008950E94D10190E0FE
:101100000895CF93DF931F92CDB7DEB7FC0184859E
:10111000958597FD08C02FEF3FEF358724870F9007
:10112000DF91CF910895CE0101960E94A70101970A
:1011300019F4898190E0F3CF8FEF9FEFF0CF0F93F9
:101140001F93CF93DF931F92CDB7DEB78C01FC01C5
:101150008485958597FF0BC0CE0101960E94A7015B
:10116000019771F4898190E0F80195878487F801EF
:10117000848595850F90DF91CF911F910F910895F0
:101180008FEF9FEFF1CFFC018485958597FD0BC014
:101190009FB7F89482E08093E9008091F2009FBFAE
:1011A00090E0019608959FB7F89482E08093E9005B
:1011B0008091F2009FBF90E0089560E0FC01808183
:1011C0000C94180361E0FC0180810C941803EF92E9
:1011D000FF920F931F93CF93DF93EC01CB01072E68
:1011E000000CAA0BBB0B8C839D83AE83BF835987F6
:1011F00048878B81882339F18B01F12CE12C61E048
:1012000088810E9418036885798590E080E00E94BB
:10121000D60460E088810E9418036885798590E093
:1012200080E00E94D6048FEFE81AF80A0E151F0519
:1012300031F760E08881DF91CF911F910F91FF908E
:10124000EF900C941803DF91CF911F910F91FF90B5
:10125000EF90089548EC50E064E070E084EB95E096
:101260000C94E7088F929F92AF92BF92CF92DF9239
:10127000EF92FF92CF93DF93EC016A017B0180E84C
:10128000C81A83E4D80A8DE6E80A88E3F80A8CE3F2
:10129000882E912CA12CB12CC701B601A501940177
:1012A0000E94BD316D83CA01B901A50194010E945C
:1012B000BD316C83C701B60120E13EE040E050E063
:1012C0000E94BD31CA01B90128E130E040E050E0A0
:1012D0000E94BD316B83C701B60120E831E541E0D2
:1012E00050E00E94BD31188263E97EEF4881542F9F
:1012F000537081E009F080E090E0FC01E359FE4F7B
:101300002E173F0740F0FB01E81BF90B2E0F3F1F84
:101310004F5F4883EBCF81E089838981682F6150DB
:10132000770BFB01EB54FF4FE491511103C0823066
:1013300009F4EF5FF0E02E173F0720F02E1B3F0B64
:101340008F5FEACF2F5F2A83DF91CF91FF90EF90DD
:10135000DF90CF90BF90AF909F908F900895CF93E4
:10136000DF93EC010E94310528EE33E040E050E0CD
:101370000E94BD318091100390911103A09112033E
:10138000B0911303BA01A901480F591F6A1F7B1FAF
:10139000CE010E943209CE01DF91CF910895DC0188
:1013A00050E0E5EBF0E081E0861730F49491490FCE
:1013B000511D8F5F3196F8CF633038F0CD018370C7
:1013C0009927892B11F44F5F5F4F9D012D5F3F4F90
:1013D00036952795369527956DE671E0A69FC00155
:1013E000A79F900DB69F900D11240197820F931F18
:1013F000840F951F0895EF92FF920F931F93CF9341
:10140000DF93EC0188814A81698190E00E94CF09D5
:101410009C01A8E1B0E00E949A312B817B018C01F4
:10142000E20EF11C011D111DA8019701ACE3B0E013
:101430000E9458312C817B018C01E20EF11C011DB0
:10144000111DA80197010E9458312D81620F711D55
:10145000811D911D60587C4B8249974CDF91CF9143
:101460001F910F91FF90EF900895CF92DF92EF922E
:10147000FF920E94FB096B017C010E94310528EE5E
:1014800033E040E050E00E94BD31C21AD30AE40AC2
:10149000F50AC0921003D0921103E0921203F09269
:1014A0001303FF90EF90DF90CF900895FC018081AF
:1014B0004281618190E00E94CF09069667E070E06A
:1014C0000E94A9310895CF92DF92EF92FF920F937D
:1014D0001F93CF93DF93EC0181E080936A0480E552
:1014E00080938C0410926B0410928D048D2F90E0E9
:1014F0000E948A02CE0199270E948A0281E00E94FE
:10150000E6030E94C1036B017C0180916404811198
:1015100063C081E080936404809363049FEF9093A1
:101520006204109261041092600480933F048091E1
:101530003F04806A80933F0480913E04813009F02B
:1015400084C010923E040E94C1036B017C01809113
:101550003F048093BB008091660490916704A09142
:101560006804B0916904892B8A2B8B2BA1F00E940F
:10157000C1030091660410916704209168043091C2
:1015800069046C197D098E099F090617170728073A
:10159000390708F442C08091BC0083FDD8CF85ECA8
:1015A0008093BC000E94C1036B017C0180916404A4
:1015B000813009F44CC08091610481116AC080912E
:1015C0006104E0E4F4E0AEE1B4E090E0981751F19A
:1015D00021912D939F5FFACF8091660490916704CB
:1015E000A0916804B0916904892B8A2B8B2B09F494
:1015F0008CCF0E94C1030091660410916704209172
:101600006804309169046C197D098E099F090617D9
:1016100017072807390708F078CF809165040E94E2
:10162000640380E010921D0480931C04882399F1C8
:101630008EE894E00E941B02DF91CF911F910F91E1
:10164000FF90EF90DF90CF90089585EEA9CF809125
:10165000660490916704A0916804B0916904892B95
:101660008A2B8B2B09F4A2CF0E94C1030091660440
:101670001091670420916804309169046C197D0908
:101680008E099F09061717072807390708F08ECF1C
:10169000C4CF81E096CF8FEFCFCFEF92FF920F9321
:1016A0001F93CF93DF93E090C305F090C40581347E
:1016B00029F1C6E0D0E0853411F0C1E0D0E087E048
:1016C0008C9F80018D9F100D1124EC16FD06D4F027
:1016D000C8010797801791076CF40E94630A811173
:1016E00009C0C80106978017910724F40E94630A75
:1016F000882351F02196095F1F4FE7CF85E0E82E40
:10170000F12CDBCFD0E0C0E0CE01DF91CF911F9173
:101710000F91FF90EF900895DF92EF92FF920F9359
:101720001F93CF93DF938C017B01D0E0C0E087E073
:10173000D82E2091C3053091C405D29EC001D39EFE
:10174000900D11248C179D078CF0CE010E94630A26
:10175000882351F0F801CD31D1050CF0F7018081DB
:1017600091810196918380832796E3CFDF91CF917A
:101770001F910F91FF90EF90DF900895CF92DF922D
:10178000EF92FF920F931F93CF93DF937B0100970C
:1017900041F18C0182E0C82ED12C82E090E00E94C1
:1017A000FD31EC011882A601B8010E94DF331A82D4
:1017B000CE010E94C630682FC7010E9409052097FC
:1017C00019F0CE010E9499320E5F1F4F82E0C80EC1
:1017D000D11C8FEFE81AF80A8EE0C816D104E9F69A
:1017E0000CC0D0E0C0E060E0C7018C0F9D1F0E94DC
:1017F00009052196C630D105B1F7DF91CF911F9130
:101800000F91FF90EF90DF90CF900895CF93DF93EB
:10181000EC0188819981009711F00E949932198218
:1018200018821D821C821B821A82DF91CF9108953B
:10183000FC0180819181009711F00C9499320895F8
:10184000FB0101900020E9F73197AF01461B570BD0
:10185000DC01ED91FC910280F381E02D0994CF939E
:10186000DF93BC0187E395E00E949F06EC016BE5E6
:1018700071E087E395E00E94200C8C0F9D1FDF91A3
:10188000CF9108958F929F92AF92BF92EF92FF9265
:101890000F931F93CF93DF93CDB7DEB7A1970FB60A
:1018A000F894DEBF0FBECDBF7C01FA01CB0119A2B7
:1018B000223008F42AE08E010F5D1F4F822E912CFA
:1018C000B12CA12CBF01A50194010E94BD31F901E9
:1018D000CA016A300CF5605DD8016E938D01232B2F
:1018E000242B252B79F790E080E0109721F0BD01A3
:1018F000C7010E94200CA1960FB6F894DEBF0FBE60
:10190000CDBFDF91CF911F910F91FF90EF90BF90CE
:10191000AF909F908F900895695CDECFCF92DF9259
:10192000EF92FF920F931F93CF93DF936B01770F8B
:10193000EE08FF08F7FE1FC0EC01E881F981019075
:10194000F081E02D6DE209958C0144275527BA01FD
:101950004C195D096E097F092AE0CE010E94420CF4
:10196000800F911FDF91CF911F910F91FF90EF900A
:10197000DF90CF9008952AE0B701A601DF91CF91C3
:101980001F910F91FF90EF90DF90CF900C94420C3D
:10199000CF93DF93BC0187E395E00E948E0CEC01AE
:1019A0006BE571E087E395E00E94200C8C0F9D1F92
:1019B000DF91CF9108950F931F93CF93DF93EC01A5
:1019C0000E9491068C016BE571E0CE010E94200C13
:1019D000800F911FDF91CF911F910F9108953F923A
:1019E0004F925F926F927F928F929F92AF92BF922F
:1019F000CF92DF92EF92FF920F931F93CF93DF93DB
:101A0000EC013B01FC0101900020E9F73197E81B54
:101A1000F90BD12CC12C329768F042E050E06EE512
:101A200071E00E94163431E020E0892B09F030E0AB
:101A3000C32ED22EB12CA12CEE24E394F12C2E0136
:101A40004C0C5D1C8091C3059091C40505968E15C4
:101A50009F050CF461C010E000E0302E82E090E0C1
:101A60000E94FD31EC01F801EE0FFF1FE40DF51DA2
:101A700080819181998388831A82CE010E94C63029
:101A80004C010115110539F481E0C816D10419F48F
:101A9000E0E58E1A9108C8018A0D9B1D0E94630A19
:101AA0008815190479F5209719F0CE010E94993212
:101AB00033940F5F1F4F0730110579F6F7E0AF0E33
:101AC000B11C85E0831520F527E02E9DC0012F9DD8
:101AD000900D112401970E94630AF3018083C701CE
:101AE000DF91CF911F910F91FF90EF90DF90CF90FA
:101AF000BF90AF909F908F907F906F905F904F902E
:101B00003F9008952097D1F2CE010E949932D6CF0E
:101B1000FFEFEF1AFF0A96CFF12CE12CE0CFCF9226
:101B2000DF92EF92FF920F931F93CF93DF931F9259
:101B3000CDB7DEB74983FC0101900020E9F731976A
:101B4000E81BF90BDC01EB30F10568F4F12CE12C1A
:101B5000C7010F90DF91CF911F910F91FF90EF90F0
:101B6000DF90CF9008952D91022E000C330B20535F
:101B700031092A30310550F79D01281B390B2E17EA
:101B80003F0788F3F62E8C01BE016F5F7F4F0E94E6
:101B9000EF0C892BD9F68F2D0E944D0B7C01181666
:101BA0001906A4F6019727E0289F6001299FD00C11
:101BB0001124B601C8010E94BE0B6981C6010696B8
:101BC0000E940905C5CFCF92DF92EF92FF920F934B
:101BD0001F93CF93DF931F92CDB7DEB71982BE015B
:101BE0006F5F7F4F0E94EF0C7C01019727E0289FD9
:101BF0006001299FD00C112410E000E060E0C801D2
:101C00008C0D9D1D0E9409050F5F1F4F07301105A8
:101C1000A9F7C7010F90DF91CF911F910F91FF900E
:101C2000EF90DF90CF90089560E171E08091130410
:101C3000909114040E94EF0C009731F480915C03A2
:101C4000813051F482E008959C0121503109253002
:101C5000310520F00697B4F780E0089581E00895FB
:101C600046E050E06DE573E080911104909112041C
:101C70000E94163421E0892B09F020E0822F08957C
:101C800085ED8093BC008091660490916704A091DB
:101C90006804B09169040796A11DB11D23E0B695B3
:101CA000A795979587952A95D1F72091BC0024FD9B
:101CB00003C0109264040895409166045091670433
:101CC0006091680470916904452B462B472B69F39A
:101CD0000097A105B10541F025E32A95F1F7000031
:101CE0000197A109B109E1CF809165040C946403C7
:101CF0000F931F93CF93DF938C01EB010E9442312E
:101D00008883C80101960E9442318983CE01DF9108
:101D1000CF911F910F910895CF93DF93EB010E9414
:101D200042318883CE01DF91CF910895CF93DF9325
:101D3000EB010E9442318883CE01DF91CF9108955B
:101D40000F931F93CF93DF930DE513E0D0E0C0E036
:101D5000CE010E944231F80181938F012196C73054
:101D6000D105B1F78AE090E00E94423180931804D7
:101D70008BE090E00E944231809319048CE090E067
:101D80000E94423180931A048DE090E00E9442311B
:101D900080931B046CE573E086E490E00E948C0E57
:101DA0006AE573E088E290E00E94960E68E473E0D2
:101DB0008BE290E00E94960E69E573E082E390E08A
:101DC0000E94960E68E573E084E390E00E948C0E1A
:101DD00063E573E086E390E00E94780E6BE573E0C4
:101DE0008CE390E00E94960E66E573E08EE390E04F
:101DF0000E94780E61E573E08AE490E00E94780E1C
:101E000065E273E08CE490E00E94960E64EA73E071
:101E10008EE490E00E94780E6EE073E08AE590E038
:101E20000E94780E6CE073E084E690E00E94780EE9
:101E30006AE073E08EE690E00E94780E69E073E05D
:101E400088EC90E00E94960ED0E0C0E0BE016C5C91
:101E50007C4F8CED90E00E94780EBE016A5D7C4F55
:101E60008EED90E00E94780E2296CE30D10571F76B
:101E7000DF91CF911F910F910895FF920F931F93C0
:101E8000CF93DF93EC01F62E08811981C8010E94DF
:101E90004231F81621F06F2DC8010E944A31CE015F
:101EA000DF91CF911F910F91FF900895EF92FF92D4
:101EB0000F931F93CF93DF9300D0CDB7DEB788E1A8
:101EC000E82E84E0F82E0AE010E01A830983F70177
:101ED00061917F01CE0101960E943D0F0F5F1F4F60
:101EE0000E30110591F788E194E00F900F90DF918B
:101EF000CF911F910F91FF90EF900895CF92DF92B5
:101F0000EF92FF920F931F93CF93DF9300D0CDB743
:101F1000DEB76C017C0110E000E01A830983F70151
:101F200061917F01CE0101960E943D0F0F5F1F4F0F
:101F30000730110591F7C6010F900F90DF91CF91F7
:101F40001F910F91FF90EF90DF90CF900895EF9247
:101F5000FF920F931F93CF93DF9300D0CDB7DEB7DF
:101F60008C017B019A838983FB016081CE010196FC
:101F70000E943D0F0F5F1F4F1A830983F701618194
:101F8000CE0101960E943D0FC7010F900F90DF9187
:101F9000CF911F910F91FF90EF9008959F92AF9274
:101FA000BF92CF92DF92EF92FF920F931F93CF9346
:101FB000DF9300D0CDB7DEB76C01B62E7A011A825E
:101FC0001982BE016F5F7F4F80E590E00E94780E1E
:101FD00089819A818C5E9A4F2DE0289F8001299FEC
:101FE000100D1124B801C6010E94BE0BF701A0809C
:101FF0009180C380D4806281C80107960E94090540
:10200000692DC80108960E9409056A2DC801099624
:102010000E9409056C2DC8010A960E9409056D2DC4
:10202000C8010B960E9409056B2DC8010C960E94F1
:10203000090589819A810196843FF1E09F07B9F0F3
:102040009A838983BE016F5F7F4F80E590E00E9495
:10205000A70F0F900F90DF91CF911F910F91FF90DD
:10206000EF90DF90CF90BF90AF909F9008951A822D
:102070001982E8CFFF920F931F93CF93DF93CDB7D1
:10208000DEB72C970FB6F894DEBF0FBECDBF8C0124
:10209000F62ECE0107960E94AF098F81898388852D
:1020A0008A8389858B838A858C838B858D838C85B8
:1020B0008E83AE014F5F5F4F6F2DC8010E94CE0F20
:1020C000BE016F5F7F4F80E590E00E94780E8981AE
:1020D0009A810E94C80C2C960FB6F894DEBF0FBEF2
:1020E000CDBFDF91CF911F910F91FF9008950F9376
:1020F0001F93CF93DF9300D0CDB7DEB78B019A83C8
:102100008983FB016081CE0101960E943D0FC801C9
:102110000F900F90DF91CF911F910F9108950F9322
:102120001F93CF93DF9300D0CDB7DEB78B019A8397
:102130008983FB016081CE0101960E943D0FC80199
:102140000F900F90DF91CF911F910F9108950F93F2
:102150001F93CF93DF93CDB7DEB72B970FB6F894CD
:10216000DEBF0FBECDBF84EB95E00E94E20810E019
:1021700000E08091C3059091C40523E0880F991F6A
:102180002A95E1F7081719073CF460E0C8010E949E
:1021900009050F5F1F4FEDCF04E012E460E0C801B6
:1021A0000E9409050F5F1F4F0C3C8BE51807B1F724
:1021B00010E000E01A83098360E0CE0101960E94DE
:1021C0003D0F0F5F1F4F011582E0180799F787E059
:1021D000E1E6F1E0DE01119601900D928A95E1F7BA
:1021E000CE0101960E947E0F82E0809318048093B6
:1021F000190480931A0480931B040E94560F1986B9
:102200001886BE01685F7F4F86E490E00E94A70FAA
:1022100011E01887BE01685F7F4F88E290E00E945E
:1022200077101A87BE01665F7F4F8BE290E00E94B5
:1022300077101B87BE01655F7F4F8CE390E00E94A3
:1022400077101092250365E273E08CE490E00E9421
:10225000771088E190E09093A5038093A40364EA4B
:1022600073E08EE490E00E94A70F02E310E0109369
:102270000F0300930E036EE073E08AE590E00E9486
:10228000A70F10930D0300930C036CE073E084E63A
:1022900090E00E94A70F10930B0300930A036AE0DB
:1022A00073E08EE690E00E94A70F0E942A0961E089
:1022B0008EE290E00E944A318EE090E090935203CB
:1022C0008093510361E573E08AE490E00E94A70FD8
:1022D00088E19EE00FB6F894A895809360000FBE49
:1022E0009093600060ED77E080E090E00E94D6047B
:1022F0002B960FB6F894DEBF0FBECDBFDF91CF9106
:102300001F910F9108950F931F93CF93DF938C012B
:10231000EB01FC01808191810097E1F06881798176
:1023200061157105A9F0428153812C813D814217CD
:10233000530770F00E940F348C819D81F8019583C2
:1023400084831D821C82DF91CF911F910F9108958C
:102350000E94993288819981F801918380838A81D2
:102360009B81938382838C819D8195838483198251
:1023700018821B821A82E5CF0F931F93CF93DF93AE
:10238000EC0188819981009759F02A813B812617B9
:10239000370730F081E0DF91CF911F910F910895C1
:1023A0008B016F5F7F4F0E942233009759F0998312
:1023B00088831B830A832C813D81232B59F7FC01E1
:1023C0001082E8CF80E0E7CFEF92FF920F931F9348
:1023D000CF93DF936115710541F480E0DF91CF91D8
:1023E0001F910F91FF90EF90089541155105B1F0A5
:1023F0007B01EC010C811D81040F151FB8010E94A7
:10240000BC11882351F3288139818C819D81B701CA
:10241000820F931F0E940F341D830C8381E0DECF57
:10242000CF93DF9300D0CDB7DEB769831A8241E046
:1024300050E0BE016F5F7F4F0E94E4110F900F903C
:10244000DF91CF910895FB0101900020E9F73197CA
:10245000AF01461B570B0C94E411FB0144815581DD
:10246000608171810C94E411EF92FF920F931F939E
:10247000CF93DF93EC017B018A01BA010E94BC116A
:1024800081110BC0CE010E94060CCE01DF91CF91CD
:102490001F910F91FF90EF9008951D830C83B7015A
:1024A000888199810E940F34F0CFFB0101900020B8
:1024B000E9F73197AF01461B570B0C9434120F9379
:1024C0001F93CF93DF93CDB7DEB729970FB6F8945C
:1024D000DEBF0FBECDBF8C01862FF80111821082A6
:1024E00013821282158214824AE0BE016F5F7F4F11
:1024F00090E00E941831BE016F5F7F4FC8010E94BB
:10250000551229960FB6F894DEBF0FBECDBFDF91EE
:10251000CF911F910F910895CF93DF93EC01FB01B1
:102520008617970749F0608171816115710541F047
:10253000448155810E943412CE01DF91CF910895DC
:102540000E94060CF9CFFC011182108213821282C4
:10255000158214820C948C12FC0111821082138259
:102560001282158214826115710551F0FB010190F0
:102570000020E9F73197AF01461B570B0C9434123A
:1025800008950F931F93CF93DF93EC018B016DE5BB
:1025900071E00E94AC12C8010E94630697FD05C05D
:1025A000682FCE010E941012F6CFCE01DF91CF919D
:1025B0001F910F910895CF93DF9300D000D000D0EA
:1025C000CDB7DEB76AE974E0CE0101960E94C11270
:1025D000CE0101960E94180C64E670E080E090E065
:1025E0000E94D6046CED72E08AE994E00E949F0696
:1025F00026960FB6F894DEBF0FBECDBFDF91CF9108
:102600000895EF92FF920F931F93CF93DF9300D023
:1026100000D000D0CDB7DEB77C018B016AE974E051
:10262000CE0101960E94C112CE0101960E94180CA3
:1026300064E670E080E090E00E94D60462ED72E013
:102640008AE994E00E949F06B7018AE994E00E941B
:1026500091066FEC72E08AE994E00E949F0668ECB4
:1026600070E080E090E00E94D604B8018AE994E02E
:102670000E94DB0C68EE73E080E090E00E94D604DC
:102680006AE18AE994E00E946B0764EF71E080E000
:1026900090E00E94D6046AE974E0CE0101960E949F
:1026A000C112CE0101960E94180C6AE974E0CE01B5
:1026B00001960E94C112CE0101960E94180C269626
:1026C0000FB6F894DEBF0FBECDBFDF91CF911F9143
:1026D0000F91FF90EF9008950F931F93CF93DF9387
:1026E00000D000D000D0CDB7DEB78C0166EC72E030
:1026F0008AE994E00E949F06B8018AE994E00E946A
:102700008E0C6FEB72E08AE994E00E949F0668EEFF
:1027100073E080E090E00E94D60467E375E0CE01AC
:1027200001960E94C112CE0101960E94180C2696B5
:102730000FB6F894DEBF0FBECDBFDF91CF911F91D2
:102740000F910895CF93DF9300D000D000D0CDB784
:10275000DEB78091C8059091C9050E946C136AE9A3
:1027600074E0CE0101960E94C112CE0101960E9432
:10277000180C63EB72E08AE994E00E949F0664EF14
:1027800071E080E090E00E94D6046AE974E0CE0136
:1027900001960E94C112CE0101960E94180C67EAB0
:1027A00072E08AE994E00E949F0664EF71E080E0A5
:1027B00090E00E94D6046AE974E0CE0101960E947E
:1027C000C112CE0101960E94180C6BE972E08AE9F1
:1027D00094E00E949F0664EF71E080E090E00E9428
:1027E000D6046AE974E0CE0101960E94C112CE01BE
:1027F00001960E94180C67E872E08AE994E00E9452
:102800009F0664EF71E080E090E00E94D6046AE9E0
:1028100074E0CE0101960E94C112CE0101960E9481
:10282000180C68E672E08AE994E00E949F0664EF63
:1028300071E080E090E00E94D6046AE974E0CE0185
:1028400001960E94C112CE0101960E94180C61E609
:1028500072E08AE994E00E949F0664EF71E080E0F4
:1028600090E00E94D6046AE974E0CE0101960E94CD
:10287000C112CE0101960E94180C63E572E08AE94C
:1028800094E00E949F0664EF71E080E090E00E9477
:10289000D6046AE974E0CE0101960E94C112CE010D
:1028A00001960E94180C67E472E08AE994E00E94A5
:1028B0009F0664E670E080E090E00E94D6046AE93A
:1028C00074E0CE0101960E94C112CE0101960E94D1
:1028D000180C60E472E08AE994E00E949F06269654
:1028E0000FB6F894DEBF0FBECDBFDF91CF91089534
:1028F0000F931F93CF93DF9300D000D000D0CDB7BC
:10290000DEB78C016AE974E0CE0101960E94C11223
:10291000CE0101960E94180C64E670E080E090E021
:102920000E94D60462E372E08AE994E00E949F0666
:10293000B8018AE994E00E9491066EE272E08AE9A9
:1029400094E00E949F0668E873E180E090E00E94B6
:10295000D60468E272E08AE994E00E949F0668EE7D
:1029600073E080E090E00E94D6046AE974E0CE0152
:1029700001960E94C112CE0101960E94180C269663
:102980000FB6F894DEBF0FBECDBFDF91CF911F9180
:102990000F910895EF92FF920F931F93CF93DF93C0
:1029A00000D000D000D0CDB7DEB78C016AE974E06A
:1029B000CE0101960E94C112CE0101960E94180C10
:1029C00064E670E080E090E00E94D6046EE172E080
:1029D0008AE994E00E949F0668EE73E080E090E050
:1029E0000E94D604FF24F39487E2E82E8AE994E05B
:1029F0000E942A072091D2051816190664F52111A4
:102A00002AC08AE994E00E9408079091170499234C
:102A1000E9F090911604292F30E02B533A4F2258B9
:102A20003F4FF9018A3051F080839F5F983218F050
:102A3000E0921604DBCF90931604D8CF1082109248
:102A4000170410921604F092D205D0CF883371F695
:102A5000F0921704CBCF64ED71E0222321F01092A5
:102A6000D20563E476E0C8010E94AC12C801269644
:102A70000FB6F894DEBF0FBECDBFDF91CF911F918F
:102A80000F91FF90EF9008954F925F926F927F9217
:102A90008F929F92AF92BF92CF92DF92EF92FF926E
:102AA0000F931F93CF93DF9300D000D000D0CDB70A
:102AB000DEB71092140410921304109212041092B4
:102AC00011041092100410920F0410920E04109230
:102AD0000D0410920C0410920B0410920A04109230
:102AE00009041092080410920704DC01ED91FC9196
:102AF0009081909315048091C505282F2D7F213555
:102B000049F4943531F19135C1F09334A1F083E06B
:102B1000582E15C08C3469F4943509F477C091357A
:102B200061F0993451F0933491F700E098E0592E18
:102B300013C0943551F700E00DC032E0532E892FB9
:102B40008D7F893421F09B7F913509F061C000E0D1
:102B500003C007E023E0522E67EE71E0CF010E9430
:102B6000E430412C10E03801B4E06B0E711C7801A8
:102B700025E0E20EF11C6801A6E0CA0ED11C580146
:102B8000B7E0AB0EB11C480128E0820E911C075F34
:102B90001F4F009709F452C04394451004C090930E
:102BA000140480931304242D30E02615370521F4F6
:102BB00090931204809311042E153F0521F49093F5
:102BC000100480930F042C153D0521F490930E04FE
:102BD00080930D042A153B0521F490930C048093F7
:102BE0000B042815390521F490930A0480930904F5
:102BF0002017310721F4909308048093070468E6B6
:102C000071E090E080E00E94E430C3CF08E0A2CF02
:102C100062E172E08AE994E00E949F0664EF71E04D
:102C200080E090E00E94D6046AE974E0CE0101964B
:102C30000E94C112CE0101960E94180C26960FB672
:102C4000F894DEBF0FBECDBFDF91CF911F910F91E2
:102C5000FF90EF90DF90CF90BF90AF909F908F90BC
:102C60007F906F905F904F900895BF92CF92DF92C8
:102C7000EF92FF920F931F93CF93DF93CDB7DEB701
:102C8000C259D1090FB6F894DEBF0FBECDBF1A826C
:102C90001982FE0133968EE7DF011D928A95E9F7CE
:102CA000CE0183579F4F0E94AF09CF56DF4FB880A8
:102CB000C159D040C057DF4FC880C059D040C3571A
:102CC000DF4FD880CD58D040C257DF4FE880CE5874
:102CD000D040C157DF4FF880CF58D040CE01835746
:102CE0009F4F0E94560AE82FF0E0EE0FFF1FEA5DAB
:102CF000FC4F10810181CE0183579F4F0E94560ADD
:102D00001F92BF921F92CF921F92DF921F92EF925B
:102D10001F92FF920F931F93E82FF0E0EE0FFF1F1B
:102D2000EC5CFC4F81818F9380818F93809148036D
:102D30001F928F9380915A031F928F938091540317
:102D40008F93809153038F93809158031F928F9399
:102D5000809159031F928F938091A5038F93809147
:102D6000A4038F93809125031F928F938091570323
:102D70008F93809156038F93809152038F9380910C
:102D800051038F93E8E1F4E081811F928F9380815A
:102D90001F928F9381E791E09F938F938E010F5F36
:102DA0001F4F1F930F930E9433340FB6F894DEBF6A
:102DB0000FBECDBFB801CE0189579F4F0E94AC1204
:102DC0006091130470911404CE018F579F4F0E949D
:102DD000AC12BE0169577F4FCE018F579F4F0E94A3
:102DE0000113CE018F579F4F0E94180CCE018957B7
:102DF0009F4F0E94180CCE56DF4F0FB6F894DEBFDF
:102E00000FBECDBFDF91CF911F910F91FF90EF903B
:102E1000DF90CF90BF900895CF92DF92FF920F93F3
:102E20001F93CF93DF93CDB7DEB762970FB6F894B9
:102E3000DEBF0FBECDBF8C01F62E6A016DE571E0DD
:102E4000CE010D960E94AC1289E06F2D8F1540F5D2
:102E5000CE0101960E945F12BE016F5F7F4FCE01CF
:102E60000D960E948311BE01635F7F4FC8010E94CF
:102E7000A312CE0101960E94180CCE010D960E945D
:102E8000180CC80162960FB6F894DEBF0FBECDBF16
:102E9000DF91CF911F910F91FF90DF90CF90089518
:102EA000CE010196E5E0CE16D104D9F40E945F125E
:102EB000BE016F5F7F4FCE010D960E948311CE0140
:102EC00001960E94180CF80111821082138212825E
:102ED00015821482BE01635F7F4FC8010E94831177
:102EE000CCCF0E945F1265E073E0CE0107960E948E
:102EF000AC124D815E8169817A81CE0107960E9474
:102F0000E411811104C0CE0107960E94060CBE0197
:102F1000695F7F4FCE010D960E948C12CE010796FD
:102F20000E94180CCCCFBF92CF92DF92EF92FF920B
:102F30000F931F93CF93DF93CDB7DEB72C970FB6C8
:102F4000F894DEBF0FBECDBF8C016B016DE571E063
:102F5000CE0107960E94AC1287E08C9D70018D9D7A
:102F6000F00C1124C70101970E94630A809310019D
:102F7000670187E0C81AD108B12CF12CE12CC701F8
:102F80008C0D9D1D0E94630A811101C0B39493E0D2
:102F90009B15D0F465E073E0C8010E94AC12CE012D
:102FA00007960E94180CC8012C960FB6F894DEBF45
:102FB0000FBECDBFDF91CF911F910F91FF90EF908A
:102FC000DF90CF90BF900895A701682FCE010196A2
:102FD0000E940C17BE016F5F7F4FCE0107960E94C3
:102FE0002D12CE0101960E94180CEFEFEE1AFE0A88
:102FF000F6E0EF16F10419F6F8011182108213823F
:10300000128215821482BE01695F7F4FC8010E943F
:103010008311C5CFAF92BF92DF92EF92FF920F93D1
:103020001F93CF93DF93CDB7DEB7C054D1090FB64E
:10303000F894DEBF0FBECDBF5C01198280914703BB
:103040008E010F5D1F4F882309F44AC066ED71E0C1
:10305000CE0101960E940F34609113047091140404
:10306000CE0101960E94FB33CE01C5960E94AF09A6
:1030700088AD1F928F938DA91F928F938EA91F9257
:103080008F938FA91F928F938BED91E09F938F93D6
:103090001F930F930E943334B801CE0101960E9412
:1030A000FB3319A289AD0FB6F894DEBF0FBECDBFBA
:1030B0008A3008F08DC01F928F9389EE91E09F9324
:1030C0008F931F930F930E9433340F900F900F90A4
:1030D0000F900F900F90B801CE0101960E94FB3324
:1030E000EE24E394F12CD12CB701C8010E94931770
:1030F0008DA19EA1892B49F065E073E089A19AA179
:103100000E940634892B09F446C080914703DD20D4
:1031100009F46FC0882309F460C086E995E00E9435
:10312000DD0860E476E080E090E00E94D60486E965
:1031300095E00E94E20860E476E080E090E00E9482
:10314000D60486E995E00E94DD0860E476E080E040
:1031500090E00E94D60486E995E00E94E208BE0154
:103160006F5F7F4FCE01CB960E94AC12B801CE01AB
:10317000C5960E94A312BE01655C7F4FCE01C59625
:103180000E940113CE01C5960E94180CCE01CB9669
:103190000E94180CD394C8010E94180C3FEFE31A48
:1031A000F30A84E0E816F10409F09ECF81E0C05CE8
:1031B000DF4F0FB6F894DEBF0FBECDBFDF91CF91CA
:1031C0001F910F91FF90EF90DF90BF90AF90089507
:1031D0001F928F9388EE92E072CF68E873E180E0EF
:1031E00090E00E94D604B501CE01CB960E94A312B6
:1031F000BDCF8823C1F3B3CFEF92FF920F931F93FC
:10320000CF93DF93CDB7DEB72C970FB6F894DEBF20
:103210000FBECDBF8C017B0168E872E00E94E833ED
:10322000892B09F063C00E94C3068091100182308F
:10323000B0F480914903811112C02091180488EEE6
:1032400093E0289FA001299F500D1124411551059D
:10325000E9F161E070E085EA95E00E94E7080E94EC
:10326000C30662E0C7010E943A1080915603909114
:1032700057030197E9F46DEE71E0CE0107960E94C5
:10328000AC126091130470911404CE0101960E9457
:10329000AC12BE01695F7F4FCE0101960E940113FF
:1032A000CE0101960E94180CCE0107960E94180CC0
:1032B00081E02C960FB6F894DEBF0FBECDBFDF9134
:1032C000CF911F910F91FF90EF9008958091A505E8
:1032D0000E94EF02892B29F485EA95E00E94E2081A
:1032E000BECF85EA95E00E94DD08B9CF60EF71E0BE
:1032F000C8010E94E833892B71F5809110018D7F00
:10330000B1F480915803811112C02091190488EE04
:1033100093E0289FA001299F500D112441155105CC
:1033200051F061E070E086E995E00E94E7080E94B4
:10333000C30663E097CF809196050E94EF02892B28
:1033400029F486E995E00E94E208F1CF86E995E04C
:103350000E94DD08ECCF64EF71E0C8010E94E83301
:10336000892B99F468E572E080E090E00E94D60431
:103370000E94C30680911001882319F0833009F060
:1033800097CF81E08093470394CF80E092CF68EF9E
:1033900071E080910F04909110040E94E833892B12
:1033A00029F581E40E944D0B019759F40E942A09E6
:1033B00040E061E480911304909114040E948F0D09
:1033C000089580910803882349F081E40E944D0B01
:1033D000181619061CF410920803E8CF42E350E0D7
:1033E00068E070E084EB95E00E94E70880E00895D3
:1033F000EF92FF920F931F93CF93DF93CDB7DEB77A
:10340000EA970FB6F894DEBF0FBECDBF8C017B01EB
:10341000161617060CF06FC060910F04709110041F
:1034200046E050E0CE0101960E942434FF92EF92D4
:103430008EEF91E09F938F937E0185E3E80EF11C60
:10344000FF92EF920E943334B701CE0101960E94A1
:10345000FB3360910D0470910E04CE0101960E9421
:10346000FB336CE571E0CE0101960E94FB33B8019D
:10347000CE0101960E94FB330F900F900F900F909A
:103480000F900F908091560390915703BE016F5F8C
:103490007F4F02972CF5CE018F960E94AC12B80197
:1034A000CE0189960E94AC12BE01615D7F4FCE01B4
:1034B00089960E940113CE0189960E94180CCE01B4
:1034C0008F960E94180CEA960FB6F894DEBF0FBED6
:1034D000CDBFDF91CF911F910F91FF90EF90089595
:1034E000CE0189960E94AC12CE0189960E940A18DC
:1034F000CE018996E6CF60E171E00E94EF0C1816CC
:1035000019060CF764E072E0CE0189960E94AC12B5
:10351000B801CE0101960E94AC12BE01675D7F4FDB
:10352000CE0101960E940113CE0101960E94180C53
:10353000DFCF2F923F924F925F926F927F928F9246
:103540009F92AF92BF92CF92DF92EF92FF920F9332
:103550001F93CF93DF93CDB7DEB7C856D1090FB60F
:10356000F894DEBF0FBECDBF6BE072E080910F0418
:10357000909110040E94E833892B19F50E942A09C2
:103580006DEE71E0CE01895B9F4F0E94AC1260919D
:10359000130470911404CE0101960E94AC12BE0176
:1035A000695B7F4FCE0101960E940113CE01019607
:1035B0000E94180CCE01895B9F4F0E94180C0E943C
:1035C000A71062E172E080910F04909110040E94B4
:1035D000E833892B81F5E0910D04F0910E0486E02B
:1035E000ADE5B3E001900D928A95E1F71092640386
:1035F0008DE593E00E947E0F6DEE71E0CE01895B58
:103600009F4F0E94AC126091130470911404CE017C
:1036100001960E94AC12BE01695B7F4FCE010196FC
:103620000E940113CE0101960E94180CCE01895B05
:103630009F4F0E94180C68EF71E080910F049091E9
:1036400010040E94E833892B51F40E94C719682F97
:1036500070E080911304909114040E94F8196AE1BB
:1036600072E080910F04909110040E94E833892B3E
:1036700031F581E08093080384EB95E00E94E20835
:103680006DEE71E0CE01895B9F4F0E94AC1260919C
:10369000130470911404CE0101960E94AC12BE0175
:1036A000695B7F4FCE0101960E940113CE01019606
:1036B0000E94180CCE01895B9F4F0E94180C64E297
:1036C00072E080910F04909110040E94E833892BDE
:1036D00009F04AC06DE571E0CE018A5A9F4F0E9401
:1036E000AC1201E010E0B801CE0101960E949317E0
:1036F000BE016F5F7F4FCE018A5A9F4F0E942D12ED
:10370000CE0101960E94180C6AE0CE018A5A9F4FA2
:103710000E9410120F5F1F4F0630110521F7BE01E6
:103720006A5A7F4FCE01895B9F4F0E94A31260911E
:10373000130470911404CE0101960E94AC12BE01D4
:10374000695B7F4FCE0101960E940113CE01019665
:103750000E94180CCE01895B9F4F0E94180CCE016D
:103760008A5A9F4F0E94180C6EE272E080910F04FB
:10377000909110040E94E833892B09F06BC080916E
:103780000D0490910E040E94C6306C0180910B04D0
:1037900090910C040E94C6307C018601CE14DF0497
:1037A0000CF058C06DE571E0CE0101960E94AC129C
:1037B00058012AE0A20EB11C0A151B05D1F0B80170
:1037C000CE01895B9F4F0E949317BE01695B7F4FBB
:1037D000CE0101960E942D12CE01895B9F4F0E945F
:1037E000180C6AE0CE0101960E9410120F5F1F4F65
:1037F000E3CFBE016F5F7F4FCE018A5A9F4F0E9479
:10380000A3126091130470911404CE01895B9F4F41
:103810000E94AC12BE016A5A7F4FCE01895B9F4F56
:103820000E940113CE01895B9F4F0E94180CCE01AC
:103830008A5A9F4F0E94180C60EA7FE080E090E077
:103840000E94D6048AE0E81AF108CE0101960E948F
:10385000180CA4CF64E372E080910F0490911004DF
:103860000E94E833892B09F026C16DE571E0CE0195
:103870008A5A9F4F0E94AC126CE870E0CE018A5ABF
:103880009F4F0E94BC11BE01635A7F4F80E590E0BC
:103890000E94780E6F96EEACFFAC6F97570197E3DE
:1038A000A91AB10882E390E0B7FE03C05701A81A35
:1038B000B90A0597C9F71A141B040CF0F7C0E5E024
:1038C000EE1AF1086DE571E0CE018A5A9F4F0E9411
:1038D00055126F968EAD9FAD6F976C01F1E0CF1AC8
:1038E000D1088D5E9A4F2DE0289F4001299F900CB2
:1038F0001124CA14DB040CF4D9C06DE571E0CE01CB
:10390000895B9F4F0E94AC1210E000E0C801880D57
:10391000991D0E94630A682F06301105E9F00530F1
:10392000110509F06BC045E050E0CE0101960E9400
:103930000C17BE016F5F7F4FCE01895B9F4F0E94C6
:103940002D12CE0101960E94180C62E072E0CE01A9
:10395000895B9F4F0E9423120F5F1F4F0D3011058F
:10396000A9F6BE01695B7F4FCE018A5A9F4F0E9424
:103970002D12CE01895B9F4F0E94180C6AE0CE0188
:103980008A5A9F4F0E941012EC14FD0481F5BE016B
:103990006A5A7F4FCE01895B9F4F0E94A3126091AC
:1039A000130470911404CE0101960E94AC12BE0162
:1039B000695B7F4FCE0101960E940113CE010196F3
:1039C0000E94180CCE01895B9F4F0E94180C60EA80
:1039D0007FE080E090E00E94D6046DE571E0CE01CA
:1039E0008A5A9F4F0E94551225E0E21AF10881E0A1
:1039F000C81AD1089DE0891A91087BCF09301105BA
:103A0000A9F449E050E0CE0101960E940C17BE01D6
:103A10006F5F7F4FCE01895B9F4F0E942D12CE01B9
:103A200001960E94180C6CE372E091CF4BE050E0DD
:103A30000B30110541F3A8010C30110531F590E070
:103A40008230910519F46EE372E081CF83309105E5
:103A500019F46CEA72E07BCF8132910519F461E4CC
:103A600072E075CF8C32910519F464E472E06FCF87
:103A70008430910519F467E472E069CF4CE050E0BE
:103A8000069719F46AE472E062CFCE0101960E94B3
:103A90000C17BE016F5F7F4FCE01895B9F4F0E9465
:103AA0002D12CE0101960E94180C56CFCE018A5AD3
:103AB0009F4F0E94180C6DE472E080910F0490916A
:103AC00010040E94E833892B09F094C0198287E022
:103AD000E7E1F1E0DE01AA5ABF4F01900D928A950D
:103AE000E1F7FE01EA5AFF4F7F0154E3A52E53E0B0
:103AF000B52E66E2C62E63E0D62E1F01F7E02F0E2C
:103B0000311C72E5872E72E0972E8E01095B1F4FE4
:103B1000E5E56E2EE2E07E2EF9E54F2EF2E05F2E17
:103B2000F70181917F01282F082E000C330B3F9362
:103B30008F939F928F921F930F930E943334B801FB
:103B4000CE0101960E94FB33F8011082F5018081BD
:103B50009181F2E0AF0EB11C9F938F937F926F9291
:103B60001F930F930E943334B801CE0101960E9437
:103B7000FB33F8011082F60180819181F2E0CF0ED3
:103B8000D11C9F938F935F924F921F930F930E942C
:103B90003334B801CE0101960E94FB330FB6F8947E
:103BA000DEBF0FBECDBFE214F30409F0B9CFBE01F2
:103BB0006F5F7F4FCE018D599F4F0E94AC12609175
:103BC000130470911404CE01835A9F4F0E94AC12CB
:103BD000BE016D597F4FCE01835A9F4F0E94011342
:103BE000CE01835A9F4F0E94180CCE018D599F4FD2
:103BF0000E94180C6EE572E080910F049091100401
:103C00000E94E833892B09F059C080910B049091F0
:103C10000C040E94C6306C018091090490910A0442
:103C20000E94C6307C0180910D0490910E040E9488
:103C3000C6308730910509F0E8C304E313E036E2AB
:103C4000A32E33E0B32E42E4842E43E0942EF801F9
:103C5000D182C082F501F182E082B8018CED90E062
:103C60000E94A70FB5018EED90E00E94A70F0E5F96
:103C70001F4FF2E0AF0EB11C8016910641F76DEEBA
:103C800071E0CE01895B9F4F0E94AC1260911304DA
:103C900070911404CE0101960E94AC12BE01695BC2
:103CA0007F4FCE0101960E940113CE0101960E9422
:103CB000180CCE01895B9F4F0E94180C64E672E0DD
:103CC00080910F04909110040E94E833892B01F534
:103CD00080910B0490910C0400910D0410910E043E
:103CE00040E0009719F00E94C630482F65E4C801F3
:103CF0000E948F0D8C01181619060CF0A2C30E94A9
:103D00002A09B80180911304909114040E94F819B3
:103D100068E672E080910F04909110040E94E833ED
:103D2000892B09F04CC040E065E480910D0490912E
:103D30000E040E948F0D31E020E0181619060CF0D9
:103D400030E0032F122F80910B0490910C049A8382
:103D500089838091090490910A049C838B838091CC
:103D60000704909108049E838D83CE0101967C0107
:103D70005E0197E0A90EB11CF701C190D1907F01BF
:103D8000C114D10481F068EE73E080E090E00E94FD
:103D9000D60440E065E4C6010E948F0D181619068E
:103DA00014F40F5F1F4FAE14BF0431F70E942A09AD
:103DB000B80180911304909114040E94F8196DE6E3
:103DC00072E080910F04909110040E94E833892BD7
:103DD000A1F480910D0490910E040E94E30D8C01DA
:103DE000181619060CF036C30E942A09B8018091F2
:103DF0001304909114040E94F81961E772E0809115
:103E00000F04909110040E94E833892B99F460E12B
:103E100071E080910D0490910E040E94EF0C181631
:103E200019060CF020C3BC01809113049091140476
:103E30000E94F81965E772E080910F0490911004D8
:103E40000E94E833892B59F580910D0490910E045E
:103E50000E94C630809318040E94560F60910D0492
:103E600070910E04CE01895B9F4F0E94AC1260914D
:103E7000130470911404CE0101960E94AC12BE018D
:103E8000695B7F4FCE0101960E940113CE0101961E
:103E90000E94180CCE01895B9F4F0E94180C6CE7A2
:103EA00072E080910F04909110040E94E833892BF6
:103EB00059F580910D0490910E040E94C6308093B4
:103EC00019040E94560F60910D0470910E04CE01EA
:103ED000895B9F4F0E94AC1260911304709114048F
:103EE000CE0101960E94AC12BE01695B7F4FCE01EC
:103EF00001960E940113CE0101960E94180CCE017A
:103F0000895B9F4F0E94180C63E872E080910F0458
:103F1000909110040E94E833892B09F03FC081E0A2
:103F20008093590381E090E09A838983BE016F5F9B
:103F30007F4F82E390E00E94A70F80910D04909143
:103F40000E040E94C630909354038093530363E59C
:103F500073E086E390E00E94A70F0E942A096BE8B5
:103F600072E0CE01895B9F4F0E94AC1260911304F6
:103F700070911404CE0101960E94AC12BE01695BDF
:103F80007F4FCE0101960E940113CE0101960E943F
:103F9000180CCE01895B9F4F0E94180C6EE872E0EE
:103FA00080910F04909110040E94E833892B71F5E1
:103FB00086E995E00E94DD08109259031A82198261
:103FC000BE016F5F7F4F82E390E00E94A70F67E919
:103FD00072E0CE01895B9F4F0E94AC126091130486
:103FE00070911404CE0101960E94AC12BE01695B6F
:103FF0007F4FCE0101960E940113CE0101960E94CF
:10400000180CCE01895B9F4F0E94180C6BE972E07F
:1040100080910F04909110040E94E833892B59F489
:1040200080914903882339F086E995E00E94DD08F4
:1040300081E08093420361EA72E080910F049091E5
:1040400010040E94E833892B79F580910D0490913A
:104050000E040E94C630909357038093560366E582
:1040600073E08EE390E00E94A70F6DEE71E0CE0149
:10407000895B9F4F0E94AC126091130470911404ED
:10408000CE0101960E94AC12BE01695B7F4FCE014A
:1040900001960E940113CE0101960E94180CCE01D8
:1040A000895B9F4F0E94180C67EA72E080910F04B1
:1040B000909110040E94E833892B79F580910D04CA
:1040C00090910E040E94C630809358030E942A09E2
:1040D00068E573E084E390E00E948F106DEE71E07C
:1040E000CE01895B9F4F0E94AC12609113047091C6
:1040F0001404CE0101960E94AC12BE01695B7F4F91
:10410000CE0101960E940113CE0101960E94180C67
:10411000CE01895B9F4F0E94180C6FEA72E080917C
:104120000F04909110040E94E833892B41F580918F
:104130000D0490910E040E94C63021E0892B09F4F1
:1041400020E020935A030E942A096AE573E088E27E
:1041500090E00E94771080910B0490910C040E94D3
:10416000C63021E0892B09F420E02093480368E45D
:1041700073E08BE290E00E9477100E94351665EBA9
:1041800072E080910F04909110040E94E833892B13
:1041900091F460E171E080911304909114040E9405
:1041A000EF0C9093A7038093A6036CEA70E08AE972
:1041B00094E00E949F066CEB72E080910F04909156
:1041C00010040E94E833892B31F580910D04909101
:1041D0000E040E94C630909352038093510361E510
:1041E00073E08AE490E00E94A70F809151039091C0
:1041F00052030E946C1388E19EE00FB6F894A895D4
:10420000809360000FBE9093600060ED77E080E0E7
:1042100090E00E94D60461EC72E080910F049091CE
:1042200010040E94E833892B89F580910D04909148
:104230000E040E94C63021E0892B09F420E020936F
:10424000250365E273E08CE490E00E9477106DEE48
:1042500071E0CE01895B9F4F0E94AC126091130404
:1042600070911404CE0101960E94AC12BE01695BEC
:104270007F4FCE0101960E940113CE0101960E944C
:10428000180CCE01895B9F4F0E94180C65EC72E000
:1042900080910F04909110040E94E833892B81F4DF
:1042A00080910D0490910E040E94C6309093A50356
:1042B0008093A40364EA73E08EE490E00E94A70F69
:1042C00069EC72E080910F04909110040E94E83331
:1042D000892B21F40E9435160E942A0960ED72E0B4
:1042E00080910F04909110040E94E833892B91F47F
:1042F00040ED57E061E070E085EA95E00E94E70854
:1043000040ED57E061E070E086E995E00E94E70843
:104310000E94351665ED72E080910F0490911004B3
:104320000E94E833892B09F056C0A5961FAE1EAE39
:10433000A5976F961FAE1EAE6F97BE01635A7F4F53
:10434000CE018D599F4F0E948C0B198283E08F9371
:1043500088EE8F936F968FAD6F978F936E968FAD1C
:104360006E978F93A5968FADA5978F93A4968FADDB
:10437000A4978F938CED92E09F938F938E010F5FA4
:104380001F4F1F930F930E943334B801CE018A5AF6
:104390009F4F0E94AC126091130470911404CE01DF
:1043A000895B9F4F0E94AC12BE016A5A7F4FCE01BB
:1043B000895B9F4F0E940113CE01895B9F4F0E9432
:1043C000180CCE018A5A9F4F0E94180C0FB6F89411
:1043D000DEBF0FBECDBFC859DF4F0FB6F894DEBFAA
:1043E0000FBECDBFDF91CF911F910F91FF90EF9046
:1043F000DF90CF90BF90AF909F908F907F906F9005
:104400005F904F903F902F9008958730910508F06E
:1044100036CC880F991FBC016C5C7C4FFB01D182AC
:10442000C0828C010A5D1C4FF801F182E0828CEDA4
:1044300090E00E94A70FB8018EED90E00E94A70FB8
:104440001ECC42E350E068E070E084EB95E00E940F
:10445000E70857CC42E350E068E070E084EB95E079
:104460000E94E708C3CC65E073E0CE01895B9F4FF3
:104470000E94AC126091130470911404CE01019655
:104480000E94AC12BE01695B7F4FCE0101960E9473
:104490000113CE0101960E94180CCE01895B9F4F3B
:1044A0000E94180CC7CC1F920F920FB60F921124C6
:1044B0002F933F934F935F936F937F938F939F932C
:1044C000AF93BF93EF93FF938091B900887F8036BD
:1044D00009F44AC0F0F5883209F4A7C018F5803114
:1044E00009F49BC0B8F4882309F4F9C0883009F4B2
:1044F00094C0FF91EF91BF91AF919F918F917F9168
:104500006F915F914F913F912F910F900FBE0F9040
:104510001F901895883109F488C0803251F7809334
:10452000620414C0803409F49DC040F48033B9F3B0
:104530008833F9F68093620485ECB0C0803509F4C5
:1045400085C0883509F496C0883499F60E94400EDB
:10455000D0CF883909F48CC038F5883729F050F469
:10456000883611F0803729F683E080936404109236
:10457000040457C0883809F47BC0803919F08038AA
:1045800009F0B7CF80910404803208F071C0E09147
:10459000040481E08E0F809304048091BB00F0E05E
:1045A000EC51FC4F80833DC0803B39F0E0F4803A11
:1045B00009F479C0883A09F09CCF84E080936404C0
:1045C0001092E1031092E003E091DE03F091DF032B
:1045D00009958091E00381110FC081E08093E00391
:1045E0001092BE0309C0803C09F4A6CF883C09F4B0
:1045F000A3CF883B09F07DCFE091E10381E08E0FEE
:104600008093E103F0E0E254FC4F80818093BB0093
:104610009091E1038091E00329C080913F04809351
:10462000BB0085EC8093BC0064CF909161048091C5
:104630006004981758F5E091610481E08E0F809333
:104640006104F0E0E05CFB4F8081E9CFE091610420
:1046500081E08E0F809361048091BB00F0E0E05C0C
:10466000FB4F808390916104809160049817C8F299
:1046700085E8D8CFE091610481E08E0F80936104DA
:104680008091BB00F0E0E05CFB4F8083809163048D
:1046900081115CCF81E080933E0484EA8093BC006A
:1046A0001092640426CF85EC8093BC0010926404C1
:1046B00080910404803230F4E0910404F0E0EC5185
:1046C000FC4F10826091040470E0E091E203F091ED
:1046D000E30384EE93E00995109204040ACF10924C
:1046E000620434CF1F920F920FB60F9211242F93B2
:1046F0003F938F939F93AF93BF938091A903909122
:10470000AA03A091AB03B091AC033091A80323E0BE
:10471000230F2D3758F50196A11DB11D2093A80335
:104720008093A9039093AA03A093AB03B093AC0327
:104730008091AD039091AE03A091AF03B091B0030F
:104740000196A11DB11D8093AD039093AE03A0937C
:10475000AF03B093B003BF91AF919F918F913F9101
:104760002F910F900FBE0F901F90189526E8230FE2
:104770000296A11DB11DD2CF1F920F920FB60F92BC
:1047800011248F939F938091E1009091E100937F9A
:104790009093E10083FF0FC01092E90091E09093A5
:1047A000EB001092EC0092E39093ED00109206045F
:1047B00098E09093F00082FF22C093E09093E9008C
:1047C0009091F200992319F09AE39093E800909168
:1047D0001903992341F09091190391509093190373
:1047E000911101C05D9A90910504992341F0909137
:1047F0000504915090930504911101C0289A84FFFB
:1048000018C08091E2008E7E81608093E2008091EA
:10481000E1008F7E8093E10080911A038E7E80619B
:1048200080931A039F918F910F900FBE0F901F904E
:10483000189580FFF7CF8091E2008E7E8061809393
:10484000E2008091E1008E7E8093E10080911A0366
:104850008E7E8160E5CF1F920F920FB60F921124CA
:10486000CF92DF92EF92FF920F931F932F933F937C
:104870004F935F936F937F938F939F93AF93BF9368
:10488000EF93FF93CF93DF93CDB7DEB76C97DEBF87
:10489000CDBF1092E9008091E80083FF25C068E059
:1048A000CE0145960E94560682EF8093E8008D89DE
:1048B00087FF39C09091E80090FFFCCF982F907649
:1048C00009F034C19E894F89588D2F89F88C911138
:1048D00031C0803861F580911B038093F100109204
:1048E000F1008EEF8093E8006C960FB6F894DEBF6F
:1048F0000FBECDBFDF91CF91FF91EF91BF91AF91EF
:104900009F918F917F916F915F914F913F912F91E7
:104910001F910F91FF90EF90DF90CF900F900FBEFF
:104920000F901F9018959EEF9093E800C7CF1092BC
:10493000F100D5CF913059F48111D3CF41305105D9
:1049400081F680911B038D7F80931B03CACF933028
:1049500049F48111C6CF4130510519F680911B03EE
:104960008260F2CF953041F48091E80080FFFCCF67
:1049700020682093E300B5CF963009F0A9C00B8DD5
:104980001C8D22E01092E90010921703109216037A
:10499000F2122EC010921503109214030E942506E5
:1049A0001F8299E09983FA8291E09E8390EA98872A
:1049B0009AEF99872091160330911703275F3F4F95
:1049C0003C832B838D831092E90010921703109281
:1049D0001603109315030093140349E050E0BE0141
:1049E0006F5F7F4F80E00E94FF050E94250679CF10
:1049F00010931503009314030E948F02DC0112969A
:104A00000D911C910115110509F451C1D801ED91C9
:104A1000FC910480F581E02DBE016B5E7F4FC801E3
:104A20000995009709F03EC1F80100851185EACF8C
:104A3000F3E0FF120EC08F89882309F440C0823052
:104A400061F440E862E182E291E00E94CC058111CC
:104A500048CF81E28093EB0047CF813029F440E8D2
:104A600068E089E191E0F1CF833099F70E948F02ED
:104A7000DC011296ED90FC908E010F5F1F4F6801D4
:104A8000E114F10479F0D701ED91FC910680F781F2
:104A9000E02DB801C7010995080F111DF701E08449
:104AA000F184EECFD8011C92F60101900020E9F7C5
:104AB0003197BF016C197D0940E0C601C6CF63E0A4
:104AC00071E0FB01449150E080E80E94FF0509CFAE
:104AD000973009F4BECF983021F481E08093F10043
:104AE00000CF993009F0FDCE837009F0B2CFEFE12D
:104AF000F1E081E031E096E32191222371F080938F
:104B0000E9003093EB00DF0111972C912093EC002A
:104B10009093ED008F5F873079F78EE78093EA00FE
:104B20001092EA008F8980930604DBCE8B8D9C8DDA
:104B30001092E90010921703109216039093150338
:104B400080931403898D811192C08E899D89913A39
:104B500049F4813209F07DCF47E050E064E071E034
:104B600080E0B3CF913209F074CF833269F48F893A
:104B7000988DB0E0A0E08093000190930101A09394
:104B80000201B0930301ADCE803269F48091E80058
:104B900082FFFCCF67E084E091E00E9456068BEF35
:104BA0008093E8009ECE823209F09BCE8F8980935D
:104BB0000B01EEEFFFE7859194918B3F9C4D51F1F6
:104BC000E0E0F8E08091040190910501A0910601D8
:104BD000B0910701803B9440A105B105F1F48091AB
:104BE0000B0180FD1AC0EE3F8AE0F80789F587E7E0
:104BF00097E791838083809160008093180388E118
:104C00009BE00FB6F894A895809360000FBE909338
:104C1000600067CEEEEFFAE0D5CF808191818737D3
:104C2000974709F05ECEA8958091600088618093D7
:104C300060008091180380936000EE3F2AE0F20745
:104C400089F08091FE0A9091FF0A9183808349CE7A
:104C5000808191818737980751F29093FF0A809362
:104C6000FE0AC5CF1092FF0A1092FE0A3ACE0E94A9
:104C70008F02DC0112960D911C910115110509F4AA
:104C8000E8CED801ED91FC910190F081E02DBE01BC
:104C90006B5E7F4FC8010995811123CEF801008515
:104CA0001185EBCF181619060CF41BCED2CEF1E00D
:104CB000FF12BECE67E071E004CF1F920F920FB6D5
:104CC0000F9211242F933F934F935F936F937F9392
:104CD0008F939F93AF93BF93EF93FF938AE994E0F1
:104CE0000E944A07FF91EF91BF91AF919F918F91E1
:104CF0007F916F915F914F913F912F910F900FBED8
:104D00000F901F9018951F920F920FB60F921124BB
:104D10002F938F939F93EF93FF93E091AA04F091C9
:104D2000AB048081E091B004F091B10482FD1BC01E
:104D300090818091B3048F5F8F732091B4048217A8
:104D400041F0E091B304F0E0E656FB4F958F80937D
:104D5000B304FF91EF919F918F912F910F900FBE10
:104D60000F901F9018958081F4CFCF93DF93EEE8DA
:104D7000F4E01382128288EE93E0A0E0B0E0848336
:104D80009583A683B78329E231E031832083EAE962
:104D9000F4E01382128284839583A683B7832BE386
:104DA00031E0318320832DEC30E0358724872CECF3
:104DB00030E03787268728EC30E0318B208B29ECD8
:104DC00030E0338B228B2AEC30E0358B248B2EECB9
:104DD00030E0378B268B118E128E138E148EE7E304
:104DE000F5E01382128284839583A683B7838DE4D2
:104DF00091E0918380838FEF9FEF958784876DE5A6
:104E000071E08FE696E00E94AC12C5ECD5E082E03E
:104E100090E09C838B836DE571E08AEC95E00E94C5
:104E2000AC121B861C861D861F861E868DE4809311
:104E30006B068CE480936C0683E580936D0691E2AB
:104E400090936E06888388EE93E09093C4058093D8
:104E5000C305E4EBF5E012821286138614861586EC
:104E6000168684E090E091838083C1E0C38361E093
:104E70000E948503E5EAF5E0128212861386148605
:104E80001586168689E090E091838083C38361E074
:104E90000E948503E6E9F5E01282128613861486E5
:104EA000158616868AE090E091838083C38361E053
:104EB0000E948503E7E8F5E01282128613861486C5
:104EC0001586168688E090E091838083138260E0E7
:104ED000DF91CF910C948503CF93DF93CDB7DEB7ED
:104EE000C354D1090FB6F894DEBF0FBECDBF78947E
:104EF00084B5826084BD84B5816084BD85B58260DF
:104F000085BD85B5816085BD80916E00816080938F
:104F10006E001092810080918100826080938100F8
:104F20008091810081608093810080918000816008
:104F300080938000809191008260809391008091A5
:104F400091008160809391008091900081608093B6
:104F500090008091C10084608093C1008091C10065
:104F600082608093C1008091C10081608093C10004
:104F70008091C30081608093C3008091C0008260F3
:104F80008093C0008091C20081608093C2008091B4
:104F90007A00846080937A0080917A0082608093A6
:104FA0007A0080917A00816080937A0080917A0003
:104FB000806880937A001092060410921B0310926E
:104FC0001A038091D70081608093D70080EA809394
:104FD000D80089B5806189BD89B5826089BD09B471
:104FE00000FEFDCF61E070E080E090E00E94D6041A
:104FF0008091D8008F7C80618093D8008091E00000
:10500000807F8093E0008091E1008E7E8093E100BC
:105010008DE08093E200559A209A87EF84BF0FB607
:10502000F894A89580916000886180936000109248
:1050300060000FBE60E08EE00E94850361E084E1C5
:105040000E94850362E085E10E94850348EC50E000
:1050500065E070E084EB95E00E94E7088EE290E066
:105060000E944231811100C261E084E10E94180374
:1050700064EF71E080E090E00E94D60460E084E19B
:105080000E94180384EB95E00E94E2088FEF9FEFE7
:10509000909344058093430568EE73E080E090E0D0
:1050A0000E94D6040E94A00E009151031091520359
:1050B000E091AA04F091AB0442E0E42EE082E0919A
:1050C000A604F091A7041082E091A804F091A9042D
:1050D00080E180831092B204E091AE04F091AF04BD
:1050E00056E0F52EF082E091AC04F091AD048081A1
:1050F00080618083E091AC04F091AD048081886090
:105100008083E091AC04F091AD048081806880835D
:10511000E091AC04F091AD0480818F7D808380911B
:10512000C5058C3409F045C068EE73E080E090E07E
:105130000E94D6046FE571E08AE994E00E949F0620
:1051400068EE73E080E090E00E94D604E091AA044B
:10515000F091AB04E082E091A604F091A7041082E4
:10516000E091A804F091A90487E680831092B2042C
:10517000E091AE04F091AF04F082E091AC04F091C4
:10518000AD04808180618083E091AC04F091AD0436
:10519000808188608083E091AC04F091AD048081CF
:1051A00080688083E091AC04F091AD0480818F7DB4
:1051B000808360E177E280E090E00E94D60469E5B8
:1051C00071E08AE994E00E949F066AE974E09E011A
:1051D0002F5F3F4F4901C9010E94C112C4010E94C3
:1051E000180C68EE73E080E090E00E94D604109303
:1051F000C9050093C805C8010E946C136DE471E0F5
:105200008AE994E00E949F0668EE73E080E090E0F7
:105210000E94D6046AE974E0C4010E94C112C4016C
:105220000E94180C61E471E08AE994E00E949F06F4
:1052300068EE73E080E090E00E94D6046AE974E0D2
:10524000C4010E94C112C4010E94180C65E371E000
:105250008AE994E00E949F0668EE73E080E090E0A7
:105260000E94D6046AE974E0C4010E94C112C4011C
:105270000E94180C0E94A2136AE974E0C4010E9403
:10528000C112C4010E94180C68EE73E080E090E047
:105290000E94D60410921D0410921C0410926B04FC
:1052A00010928D040E94460389E092E09093DF0300
:1052B0008093DE038AE092E09093E3038093E2031D
:1052C00060E177E280E090E00E94D60481E090E027
:1052D0000E9442318F3F11F40E94A710A091A403B5
:1052E000B091A5031A161B0674F420E437E74BE1CE
:1052F00050E00E94EC3160930C0170930D0180939B
:105300000E0190930F0164E170E08FE696E00E9439
:10531000BC11C4010E94CA14B4018FE696E00E9439
:105320008311C4010E94180C60ED77E080E090E0EA
:105330000E94D6046CE173E08EE193E00E948C0B36
:1053400080915103909152030E94C80C65E073E074
:10535000C4010E94AC12C4010E947814C4010E94CE
:10536000180C48EC50E065E070E084EB95E00E949A
:10537000E70885E1898381E08A838B831C821D8213
:105380001E82C4010E94350A68EB7BE080E090E059
:105390000E94D6040E94DB123E013AE1630E711CAA
:1053A000442443948AE994E00E942A0718161906B7
:1053B0000CF0D9C08091D1058111D5C08AE994E063
:1053C0000E940807582E80912103882309F47AC08F
:1053D0000E9431055B016C012AAD3BAD4CAD5DAD6A
:1053E0006EAD7FAD21968FAD219722969FAD22970E
:1053F00028513C4F4F4F5F4F6F4F7F4F8F4F9F4F05
:10540000190123964FAF2397B52FA62FF72FE82F1B
:1054100024969FAF24979501A60160E070E080E09C
:1054200090E051012396CFAC2397DB2EEA2EFF2E7E
:105430000E2F24961FAD24970E94F43119F010F01E
:1054400031E2532E80912003E82FF0E090916E0618
:10545000EB53FA4F951589F0508A8F5F8E3650F0D6
:105460004DE6409320039ECF60E08EE290E00E94E4
:105470004A3108CE8093200395CF108A10922103E1
:105480001092200385ED95E09093D4058093D30589
:105490004092D10542E350E061E070E084EB95E09A
:1054A0000E94E7088091D105811136C08AE994E015
:1054B0000E942A071816190694F58AE994E00E94BA
:1054C0000807F4CF80916B06581669F080916C063E
:1054D000581621F080916D06581264CF2DE0E22E0F
:1054E000E0926E0603C091E290936E060E94310531
:1054F0007B018C0120E030E0A9016AAFFBAE8CAFEC
:105500001DAF2EAF3FAF21964FAF219722965FAFD1
:1055100022974092210346CF1092D105C7CFA09188
:10552000D305B091D405BDABACABFD01019000201B
:10553000E9F73197EA1BFB0B3497A8F011968C9191
:105540008E3489F0CE01C4960E94441580911504D2
:105550008B3409F444C10CF092C0833409F4DBC0ED
:10556000893409F4D8C080914E038823E1F00E9469
:10557000310500914A0310914B0320914C03309167
:105580004D03601B710B820B930B68397A438105C5
:10559000910508F44DC069E573E082E390E00E9454
:1055A000960E10924E0380915903882309F4E1C1AD
:1055B000C3010E94AF09C3010E94560AE82FF0E020
:1055C000EE0FFF1FEC5CFC4F00811181C3010E94B4
:1055D000560AE82FF0E0EE0FFF1FEA5DFC4FE08077
:1055E000F180101611061CF01E141F048CF4C40167
:1055F0000E94AF098C8198012E193F0990E037FF76
:10560000AFC18017910724F08E159F050CF4B1C12E
:1056100088EE93E00E943D058091490381113CC2D0
:10562000809148038111AAC1809147038111B3C1C0
:105630001BE387E395E00E94C3082091A00318169E
:1056400019060CF0ACC22111ACC287E395E00E94B0
:10565000810890915003992309F49BC290914F03C4
:10566000E92FF0E0EC59FC4F8E3309F48AC28083B5
:105670009F5F9C3308F482C210934F03DACF8135C9
:1056800089F1843509F06FCF0E94140E813019F131
:1056900070F0823009F067CF6091130470911404A8
:1056A00080911104909112040E94FC185CCF0E941A
:1056B000300E882309F457CF0E94C719682F70E075
:1056C0006115710509F44FCF809113049091140472
:1056D0000E94F81948CF0E94300E8823E9F20E94F8
:1056E000991A41CF6091130470911404C4010E946F
:1056F000AC126091A6037091A703C3010E94931797
:10570000B401C3010E940113C3010E94180CC4011B
:105710000E94180C28CF0E94140E813021F1823093
:10572000E9F11092C7051092C6058AE994E00E943B
:105730002A07892B09F041C08091C6059091C705C1
:10574000803E9E42D4F56DE070E080E090E00E94E3
:10575000D6048091C6059091C70501969093C70520
:105760008093C605E2CF90914903992319F0809365
:105770004203D7CF80915803823048F460911304DC
:105780007091140488E892E00E94FC18CACF6091DE
:1057900013047091140484EF91E0F6CF80915803C4
:1057A0008230A8F780911001823040F36091130499
:1057B0007091140480EF91E0E7CF8AE994E00E94B1
:1057C0002A07892B31F06AE974E0C4010E94C112F2
:1057D0009ECF6DE571E0C4010E94AC1298CF80911C
:1057E0001304909114040E94C6308C01449744978E
:1057F00008F0A5C080910B0490910C040E94C63063
:10580000182F80910D0490910E040E94C630F82E3E
:1058100080910F04909110040E94C630E82E809170
:105820001104909112040E94C63009838A83EB828E
:10583000FC821D831E82C4010E94350A8091C50529
:10584000813591F4C3010E94AF09C3010E94FB0995
:10585000AB01BC014054584361097109C4010E9465
:105860003209C4010E94350A66E090E080E00E949F
:105870003A1080912503882389F080912303909129
:1058800024032091A4033091A503820F931F883134
:1058900091058CF590932403809323038091A403B6
:1058A0009091A503181619060CF05DCE0E943105E3
:1058B00061327F4B8240910508F455CE6AE771E072
:1058C0008AE994E00E949F0660E47FE180E090E036
:1058D0000E94D6046EE671E08AE994E00E949F0679
:1058E0006AE974E0C4010E94C112C4010E94180C4C
:1058F0000E94A21368CF109224031092230361E048
:1059000070E0CE018E960E94931761EC72E0C401A4
:105910000E94AC12BE01625D7F4FC3010E94A312C0
:10592000B401C3010E940113C3010E94180CC401F9
:105930000E94180CCE018E960E94180CAFCF68E81A
:1059400073E180E090E00E94D604809122038F5F93
:1059500080932203823008F006CE0E94DB1203CE31
:10596000E81AF90A1E141F0424F0801791070CF49A
:105970004FCE80E49FE10E943D055ACE809187057D
:105980000E94EF0221E0892B09F420E080915A0364
:10599000821709F449CE0E94C30668EE73E080E0E6
:1059A00090E00E94D6040E94C306409249030E94E0
:1059B00031056093430370934403809345039093B0
:1059C000460380915803882321F086E995E00E94E0
:1059D000E20819826BEE72E0C4010E94FB33CE0133
:1059E000C4960E94AF098FA91F928F938CA91F9212
:1059F0008F938DA91F928F938EA91F928F934BED3A
:105A000051E05F934F937F926F920E943334B301C2
:105A1000C4010E94FB331A8E88AD0FB6F894DEBF26
:105A20000FBECDBF8A3080F51F928F9389EE91E033
:105A30009F938F937F926F920E9433340F900F90B9
:105A40000F900F900F900F90B301C4010E94FB3391
:105A50001A8EB401CE018E960E94AC12CE018E96A3
:105A60000E940A18CE018E960E94180C809147035E
:105A7000882379F0809113049091140464E00E94CB
:105A80003A1010924703D4CD1F928F9388EE92E084
:105A9000CFCF90E080E0F2CF84E690E00E943D0519
:105AA000C0904303D0904403E0904503F090460338
:105AB000A0915303B091540328EE33E00E94E531E6
:105AC00060938B0570938C0580938D0590938E0564
:105AD000672B682B692B09F44CC00E9431059B0190
