:100000000C9470010C9498010C9498010C94980134
:100010000C9498010C9498010C9498010C949801FC
:100020000C9498010C9498010C94CF1C0C943E1DD8
:100030000C9498010C9498010C9498010C949801DC
:100040000C9498010C9498010C9498010C949801CC
:100050000C9498010C9498010C9498010C94851CB4
:100060000C9498010C94961F0C94701F0C9498019A
:100070000C9498010C9498010C9498010C9498019C
:100080000C9498010C9498010C9498010C9498018C
:100090000C94661B0C9498010C9498010C94980194
:1000A0000C9498010C9498010C9498011F1C1F1E2D
:1000B0001F1E1F1F1E1F1E1F080B00020202000032
:1000C00009040000010202000005240010010524BB
:1000D000010101042402060524060001070581032D
:1000E00010004009040100020A0000000705020296
:1000F00040000007058302400000040309041201C8
:100100000002EF0201404F1B0692000101020301B1
:10011000537061726B46756E00537061726B4675F9
:100120006E2050726F204D6963726F0041542B43F3
:100130005245473D310D0A0041542B43545A523D1C
:10014000310D0A0041542B43545A553D310D0A00DC
:1001500041545A300D0041542B4950523D313932EF
:1001600030300D0A0041542B4353510D0A004154C5
:100170002B4346554E3D310D0A0041542B43465505
:100180004E3D300D0A0045004500450000000000CE
:10019000240027002A002D00300000000000250068
:1001A00028002B002E003100000000002300260054
:1001B00029002C002F000404040404030405020297
:1001C00002020403020202020606060606060404F0
:1001D0000202020404040802011040804010204082
:1001E000804080080204018040201002011080102D
:1001F000204040200000000200090F00000304011D
:10020000000C0000000000000000000000000000E2
:10021000000041542B4347534E0D0A004154480DF2
:100220000A003B0D0A004154440041542B434855F9
:10023000500D0A0041542657300D0041542B434CB9
:1002400049503D310D0A0041542B4347455245501A
:100250003D300D0A00415445300D0A0061742B7188
:100260007572636366673D22757263706F72742284
:100270002C227561727431220D0A0041542B434EB9
:100280004D493D312C322C302C302C300D0A0041A0
:10029000542B434C49503D310D0A0041542B434DE2
:1002A00047463D310D0A0041542B435245473D31ED
:1002B0000D0A003B2657300D0A0041542B434E4D8A
:1002C000503D00220D0041542B434D47533D220029
:1002D00041542B43434C4B3F0D0A0000C81FF82EDE
:1002E00011241FBECFEFDAE0DEBFCDBF26E0A0EEC7
:1002F000B2E001C01D92A23CB207E1F712E0A0E01B
:10030000B1E0E0EAFCE602C005900D92A03EB10724
:10031000D9F711E0CFE6D1E004C02197FE010E9499
:100320004C31CE36D107C9F70E947F200C9443365A
:100330000C9400008091250490912604891B990B50
:100340000895FC0180911E04882311F13FB7F894B1
:1003500082E08093E9002091F200822F90E018164D
:10036000190614F481E090E0882339F0289844E6D7
:1003700040931D044091F1004083222339F02091E5
:10038000F200211103C02BE62093E8003FBF08953F
:100390008FEF9FEF08952FB7F89483E08093E900E3
:1003A0009091E800892F807295FF04C09091F2002F
:1003B00080E4891B2FBF08952091E903260F33277E
:1003C000331F21323105ECF420916D04FC0190E0E3
:1003D00080E0243069F082E00895A091E903219142
:1003E000AC0149535C4FA40FB52FB11D2C9301965E
:1003F000861798F38091E903680F6093E90380E022
:10040000089581E00895089508950895E0912604DF
:1004100080912504E81730F4F0E0E95DFB4F80811E
:1004200090E008958FEF9FEF0895909126048091BA
:1004300025042FEF3FEF981748F4E92FF0E0E95D2E
:10044000FB4F208130E09F5F90932604C9010895FF
:10045000CF92DF92EF92FF920F931F93CF93DF9390
:100460007C01CB018A0120917304222389F0EB01E6
:100470006B01C40ED51ECC15DD0569F06991D7015D
:10048000ED91FC910190F081E02DC7010995F3CF2A
:10049000642F0E94DC01C801DF91CF911F910F9161
:1004A000FF90EF90DF90CF900895CF93DF931F924E
:1004B000CDB7DEB76983209173042223F9F0209130
:1004C0009604203258F021E030E0FC01338322838F
:1004D00090E080E00F90DF91CF91089580917404B7
:1004E000E82FF0E0EB58FB4F998190838F5F80936A
:1004F00074048093960481E090E0ECCF61E0CE013B
:1005000001960E94DC01F7CF682F87E994E00C94F4
:1005100055028091BE0381110DC082E08093BA0321
:1005200084E08093BB031092BD031092BC0381E072
:100530008093BE038AEB93E0089581508F3008F0DA
:1005400047C0E82FF0E0E955FD4F0C944C31C40250
:10055000C802B602BC02C002E802E802E802CB020E
:10056000D102D502D902DF02E802E30280918000C5
:100570008F77809380000895809180008F7DF9CFE0
:1005800080918000877FF5CF84B58F7784BD0895F3
:1005900084B58F7DFBCF809190008F778093900002
:1005A0000895809190008F7DF9CF80919000877F92
:1005B000F5CF8091C0008F778093C000089580911F
:1005C000C0008F7DF9CF8091C200877F8093C200E9
:1005D0000895CF93DF93282F30E0F901EC50FE4FC0
:1005E0008491F901EB52FE4FD491F901EA54FE4F88
:1005F000C491CC23A1F081110E949D02EC2FF0E068
:10060000EE0FFF1FE855FE4FA591B491EC91ED233D
:1006100081E090E009F480E0DF91CF91089580E0DF
:1006200090E0FACF1F93CF93DF93282F30E0F901AA
:10063000EC50FE4F8491F901EB52FE4FD491F90139
:10064000EA54FE4FC491CC23A9F0162F81110E94C9
:100650009D02EC2FF0E0EE0FFF1FE656FE4FA59136
:10066000B4918FB7F894EC91111108C0D095DE23A6
:10067000DC938FBFDF91CF911F910895DE2BF8CFD0
:1006800010926D0481E080936C041092470461E045
:1006900082E00E94120361E083E00E941203E9EB12
:1006A000F0E080818E7F808380818D7F808388E4ED
:1006B0008093B80085E48093BC000895CF93DF93C6
:1006C00091E09093C6038823B9F0C091B800D0910F
:1006D000BA008091BC008A7B8093BC0060E082E01D
:1006E0000E94120360E083E00E9412030E94400314
:1006F000D093BA00C093B800DF91CF910895CF9303
:10070000DF9390E0FC01EB52FE4F24918A549E4F00
:10071000FC0184918823C9F090E0880F991FFC01A7
:10072000E457FE4FA591B491FC01E656FE4FC591EA
:10073000D49161110DC09FB7F8948C9120958223BC
:100740008C938881282328839FBFDF91CF910895C0
:10075000623051F49FB7F8943C91822F80958323A7
:100760008C93E8812E2BEFCF8FB7F894EC912E2B42
:100770002C938FBFEACF3FB7F8948091B603909146
:10078000B703A091B803B091B90326B5A89B05C0E3
:100790002F3F19F00196A11DB11D3FBFBA2FA92F00
:1007A000982F8827BC01CD01620F711D811D911DFD
:1007B00042E0660F771F881F991F4A95D1F7089569
:1007C0008F929F92AF92BF92CF92DF92EF92FF9261
:1007D0000F931F93CF93DF93D0919604D13208F0FB
:1007E000D7C0182FC09195040E94BB036B017C01F8
:1007F00080916D0481116BC082E080936D04109331
:100800006C048FEF80936B0410926A04D093690498
:10081000A5E7B4E0E9E4F4E080E0D81391C01092D9
:10082000480480914804CC0FC82BC09348048091A1
:100830004704813009F088C0109247040E94BB032E
:100840006B017C01809148048093BB0080916F0410
:1008500090917004A0917104B0917204892B8A2B3D
:100860008B2BA1F00E94BB0300916F0410917004C8
:1008700020917104309172046C197D098E099F09D1
:10088000061717072807390708F442C08091BC00F3
:1008900083FDD8CF85EC8093BC000E94BB036B0125
:1008A0007C0180916D04823009F450C080916B040A
:1008B0008F3F09F46FC080916B04803209F46CC0E3
:1008C00080916B04803309F469C084E026C0809174
:1008D0006F0490917004A0917104B0917204892BFF
:1008E0008A2B8B2B09F484CF0E94BB0380906F046A
:1008F00090907004A0907104B09072046C197D09FE
:100900008E099F0986169706A806B90608F070CFCB
:1009100080916E040E945E0385E010927404109230
:10092000960410927304DF91CF911F910F91FF9065
:10093000EF90DF90CF90BF90AF909F908F900895F1
:100940009D9191938F5F69CF85EEA5CF80916F04C4
:1009500090917004A0917104B0917204892B8A2B3C
:100960008B2B09F49ECF0E94BB0300916F04109162
:10097000700420917104309172046C197D098E0904
:100980009F09061717072807390708F08ACFC0CF35
:1009900081E0C3CF80E0C1CF82E0BFCF83E0BDCF95
:1009A0008F929F92AF92BF92CF92DF92EF92FF927F
:1009B0006B017C010E94BB034B015C01C114D1049B
:1009C000E104F104B9F00E94BB03681979098A09AE
:1009D0009B09683E73408105910580F321E0C21AAE
:1009E000D108E108F10888EE880E83E0981EA11C6A
:1009F000B11CE4CFFF90EF90DF90CF90BF90AF900D
:100A00009F908F9008951F93CF93DF93EC01162F43
:100A100081E08093730480E58093950410927404C0
:100A2000109296048D2F90E00E948402CE019927A7
:100A30000E948402612F87E994E00E94550281E0C0
:100A40000E94E00364E170E080E090E0DF91CF91EC
:100A50001F910C94D0042FB7F8946091B203709159
:100A6000B3038091B4039091B5032FBF08950F9302
:100A70001F93CF93DF93EC01092E000CAA0BBB0B45
:100A80008093C1059093C205A093C305B093C4059C
:100A90000E942B05AB01BC018091C8059091C9054E
:100AA000A091CA05B091CB058A019B01081B190BC7
:100AB0002A0B3B0B8091C1059091C205A091C30503
:100AC000B091C405081719072A073B0758F1809110
:100AD000BF05811124C081E08093BF05C43F81E040
:100AE000D8075CF0CE01845F9140092E000CAA0B60
:100AF000BB0B481B590B6A0B7B0B4093C8055093EB
:100B0000C9056093CA057093CB056091BF058091BC
:100B1000BD05DF91CF911F910F910C94120310929C
:100B2000BF05EBCFDF91CF911F910F9108950895ED
:100B30004091ED025091EE022091EB023091EC02D7
:100B400042175307B4F49091E8009570E1F3909147
:100B5000E80092FD19C08093F1008091ED02909120
:100B6000EE0201968F739927892B19F48EEF8093EB
:100B7000E8008091ED029091EE0201969093EE02D2
:100B80008093ED0281E0089580E00895EF92FF9256
:100B90000F931F93CF93DF93F82E192FE62E042F78
:100BA00081E0860F880F0E94980583E00E949805D7
:100BB000CF2DD12FEC0EFD2EF11CCE15DF05B9F097
:100BC00007FF13C0FE0184910E949805182F80E052
:100BD0000E949805812321968111EFCFDF91CF915B
:100BE0001F910F91FF90EF9008958881EDCF81E0E4
:100BF000F5CFDF92EF92FF920F931F93CF93DF9386
:100C0000D82E8A01EB017B01E40EF51ECE15DF051F
:100C100059F0D7FE12C0FE0184910E9498052196DA
:100C20008111F4CF0FEF1FEFC801DF91CF911F911A
:100C30000F91FF90EF90DF9008958881EECF0F9392
:100C40001F93CF93DF931F92CDB7DEB782E08983E6
:100C500042E450E068EB70E080E80E94F9050E94F1
:100C60008902DC0112960D911C910115110589F084
:100C7000D801ED91FC910280F381E02DBE016F5F00
:100C80007F4FC801099597FD04C0F80100851185C3
:100C9000ECCF89810F90DF91CF911F910F91089533
:100CA000615030F02091F100FC0120830196F8CFD3
:100CB000289884E680931D0408950F931F93CF9383
:100CC000DF93EC010E942B05688779878A879B87D1
:100CD000E881F9810284F385E02DCE01099597FF23
:100CE00015C00E942B05088519852A853B85601B48
:100CF000710B820B930B0C811D812E813F8160173C
:100D000071078207930720F38FEF9FEFDF91CF9159
:100D10001F910F910895DB0114964D915C911597E9
:100D20006D917C91DC01ED91FC910280F381E02DCD
:100D30000994EF92FF920F931F93CF93DF938C014F
:100D40007B01D0E0C0E0F701EC0FFD1F649166234A
:100D500061F0D801ED91FC910190F081E02DC80186
:100D60000995892B11F02196EECFCE01DF91CF911D
:100D70001F910F91FF90EF9008956AE272E083EA6D
:100D800094E00C949906AF92BF92CF92DF92EF92CB
:100D9000FF920F931F93CF93DF936C017B018B0125
:100DA000040F151FEB015E01AE18BF08C017D10775
:100DB00059F06991D601ED91FC910190F081E02DFF
:100DC000C6010995892B79F7C501DF91CF911F9154
:100DD0000F91FF90EF90DF90CF90BF90AF9008956C
:100DE00090E080E00895FC01538D448D252F30E084
:100DF000842F90E0821B930B541710F0CF96089528
:100E000001970895FC01918D828D981761F0A28D54
:100E1000AE0FBF2FB11D5D968C91928D9F5F9F731A
:100E2000928F90E008958FEF9FEF0895FC01918DD0
:100E3000828D981731F0828DE80FF11D858D90E03D
:100E400008958FEF9FEF0895FC01918D228D892FDA
:100E500090E0805C9F4F821B91098F7399270895C2
:100E600083EA94E00E94240721E0892B09F420E022
:100E7000822F089580E090E0892B29F00E943007AE
:100E800081110C9400000895FC01A48DA80FB92FC6
:100E9000B11DA35ABF4F2C91848D90E001968F73A2
:100EA0009927848FA689B7892C93A089B1898C91C1
:100EB00082748C93938D848D981306C00288F38975
:100EC000E02D80818F7D80830895EF92FF920F93B4
:100ED0001F93CF93DF93EC0181E0888F9B8D8C8DE6
:100EE000981319C0E889F989808185FF14C09FB7DC
:100EF000F894EE89FF896083E889F989808182749A
:100F000080839FBF81E090E0DF91CF911F910F918F
:100F1000FF90EF900895F62E0B8D10E00F5F1F4F9E
:100F20000F731127E02E8C8D8E110CC00FB607FCAD
:100F3000FACFE889F989808185FFF5CFCE010E943B
:100F40004407F1CFEB8DEC0FFD2FF11DE35AFF4F5E
:100F5000F0829FB7F8940B8FEA89FB8980818062C9
:100F6000CFCFCF93DF93EC01888D8823B9F0AA8986
:100F7000BB89E889F9898C9185FD03C0808186FD54
:100F80000DC00FB607FCF7CF8C9185FFF2CF8081A3
:100F900085FFEDCFCE010E944407E9CFDF91CF91CD
:100FA00008958F929F92AF92BF92CF92DF92EF926D
:100FB000FF920F931F93CF93DF936C017B018A0104
:100FC00080910B01882309F45CC080911E04882362
:100FD00009F457C08091F10280FF05C08091E000C4
:100FE00082608093E000E801B12C8AEFA82E93E0A4
:100FF000892E2AE3922E209711F4BB20D9F10E946A
:10100000CB0181110AC0AA94AA20D9F161E070E055
:1010100080E090E00E94D004EECF8C171D0611F006
:101020000CF08C2F9FB7F8948092E9002091E80093
:1010300025FD02C09FBFDFCF282F30E0C21BD30B9E
:10104000F701815020F041914093F100FACFE20E78
:10105000F31EBB2021F09092E800B12CEBCF8091E1
:10106000E80085FDE7CF9092E800BB24B394209779
:1010700009F3F3CF5D9884E68093F0021016110611
:101080003CF081E090E0F6019383828310E000E081
:10109000C801DF91CF911F910F91FF90EF90DF90EA
:1010A000CF90BF90AF909F908F900895CF93DF9394
:1010B0001F92CDB7DEB76983DC01ED91FC91028010
:1010C000F381E02D41E050E0BE016F5F7F4F099555
:1010D0000F90DF91CF91089583E08093E900809194
:1010E000F200882319F08AE38093E80008950E94B3
:1010F000CB0190E00895CF93DF931F92CDB7DEB779
:10110000FC018485958597FD08C02FEF3FEF35875B
:1011100024870F90DF91CF910895CE0101960E9410
:10112000A101019719F4898190E0F3CF8FEF9FEF30
:10113000F0CF0F931F93CF93DF931F92CDB7DEB7FE
:101140008C01FC018485958597FF0BC0CE0101962B
:101150000E94A101019771F4898190E0F8019587BF
:101160008487F801848595850F90DF91CF911F9139
:101170000F9108958FEF9FEFF1CFFC018485958546
:1011800097FD0BC09FB7F89482E08093E9008091AF
:10119000F2009FBF90E0019608959FB7F89482E017
:1011A0008093E9008091F2009FBF90E0089560E095
:1011B000FC0180810C94120361E0FC0180810C949D
:1011C0001203EF92FF920F931F93CF93DF93EC01E3
:1011D000CB01072E000CAA0BBB0B8C839D83AE8327
:1011E000BF83598748878B81882339F18B01F12C84
:1011F000E12C61E088810E9412036885798590E086
:1012000080E00E94D00460E088810E94120368851B
:10121000798590E080E00E94D0048FEFE81AF80A08
:101220000E151F0531F760E08881DF91CF911F9186
:101230000F91FF90EF900C941203DF91CF911F91CB
:101240000F91FF90EF90089548EC50E064E070E05B
:101250008DEB95E00C94E1088F929F92AF92BF9234
:10126000CF92DF92EF92FF92CF93DF93EC016A016E
:101270007B0180E8C81A83E4D80A8DE6E80A88E38F
:10128000F80A8CE3882E912CA12CB12CC701B60151
:10129000A50194010E94C5306D83CA01B901A50161
:1012A00094010E94C5306C83C701B60120E13EE085
:1012B00040E050E00E94C530CA01B90128E130E0A9
:1012C00040E050E00E94C5306B83C701B60120E8C2
:1012D00031E541E050E00E94C530188263E97EEFBD
:1012E0004881542F537081E009F080E090E0FC01C8
:1012F000E359FE4F2E173F0740F0FB01E81BF90BA7
:101300002E0F3F1F4F5F4883EBCF81E08983898198
:10131000682F6150770BFB01E455FF4FE4915111A9
:1013200003C0823009F4EF5FF0E02E173F0720F092
:101330002E1B3F0B8F5FEACF2F5F2A83DF91CF9168
:10134000FF90EF90DF90CF90BF90AF909F908F90E5
:101350000895CF93DF93EC010E942B0528EE33E034
:1013600040E050E00E94C5308091E7029091E80291
:10137000A091E902B091EA02BA01A901480F591FF0
:101380006A1F7B1FCE010E942C09CE01DF91CF91F5
:101390000895DC0150E0ECEAF0E081E0861730F4DB
:1013A0009491490F511D8F5F3196F8CF633038F01B
:1013B000CD0183709927892B11F44F5F5F4F9D01F9
:1013C0002D5F3F4F36952795369527956DE671E051
:1013D000A69FC001A79F900DB69F900D1124019765
:1013E000820F931F840F951F0895EF92FF920F9322
:1013F0001F93CF93DF93EC0188814A81698190E04C
:101400000E94C9099C01A8E1B0E00E9429312B810A
:101410007B018C01E20EF11C011D111DA801970139
:10142000ACE3B0E00E94E7302C817B018C01E20E3E
:10143000F11C011D111DA80197010E94E7302D81AB
:10144000620F711D811D911D60587C4B8249974C24
:10145000DF91CF911F910F91FF90EF900895CF9260
:10146000DF92EF92FF920E94F5096B017C010E94CE
:101470002B0528EE33E040E050E00E94C530C21A50
:10148000D30AE40AF50AC092E702D092E802E09299
:10149000E902F092EA02FF90EF90DF90CF9008957A
:1014A000FC0180814281618190E00E94C909069619
:1014B00067E070E00E9438310895CF92DF92EF929A
:1014C000FF920F931F93CF93DF93EC0181E0809302
:1014D000730480E58093950410927404109296042E
:1014E0008D2F90E00E948402CE0199270E948402F1
:1014F00081E00E94E0030E94BB036B017C018091AC
:101500006D04811163C081E080936D0480936C044D
:101510009FEF90936B0410926A0410926904809379
:10152000480480914804806A80934804809147046D
:10153000813009F084C0109247040E94BB036B0104
:101540007C01809148048093BB0080916F0490914E
:101550007004A0917104B0917204892B8A2B8B2B9B
:10156000A1F00E94BB0300916F04109170042091C0
:101570007104309172046C197D098E099F09061758
:1015800017072807390708F442C08091BC0083FD83
:10159000D8CF85EC8093BC000E94BB036B017C011B
:1015A00080916D04813009F44CC080916A048111EE
:1015B0006AC080916A04E9E4F4E0A7E2B4E090E054
:1015C000981751F121912D939F5FFACF80916F046D
:1015D00090917004A0917104B0917204892B8A2BB0
:1015E0008B2B09F48CCF0E94BB0300916F041091E8
:1015F000700420917104309172046C197D098E0978
:101600009F09061717072807390708F078CF809138
:101610006E040E945E0380E01092260480932504ED
:10162000882399F187E994E00E941502DF91CF9118
:101630001F910F91FF90EF90DF90CF90089585EE6E
:10164000A9CF80916F0490917004A0917104B09122
:101650007204892B8A2B8B2B09F4A2CF0E94BB0327
:1016600000916F0410917004209171043091720404
:101670006C197D098E099F09061717072807390776
:1016800008F08ECFC4CF81E096CF8FEFCFCFEF920F
:10169000FF920F931F93CF93DF93E090CC05F090D0
:1016A000CD05813429F1C6E0D0E0853411F0C1E0E8
:1016B000D0E087E08C9F80018D9F100D1124EC16E7
:1016C000FD06D4F0C8010797801791076CF40E94BB
:1016D0005D0A811109C0C80106978017910724F49B
:1016E0000E945D0A882351F02196095F1F4FE7CFC2
:1016F00085E0E82EF12CDBCFD0E0C0E0CE01DF9119
:10170000CF911F910F91FF90EF900895DF92EF928C
:10171000FF920F931F93CF93DF938C017B01D0E057
:10172000C0E087E0D82E2091CC053091CD05D29E27
:10173000C001D39E900D11248C179D078CF0CE0113
:101740000E945D0A882351F0F801CD31D1050CF0DB
:10175000F701808191810196918380832796E3CF61
:10176000DF91CF911F910F91FF90EF90DF9008953F
:10177000CF92DF92EF92FF920F931F93CF93DF935D
:101780007B01009741F18C0182E0C82ED12C82E0D0
:1017900090E00E946131EC011882A601B8010E941C
:1017A00043331A82CE010E941730682FC7010E946E
:1017B0000305209719F0CE010E94FD310E5F1F4FE7
:1017C00082E0C80ED11C8FEFE81AF80A8EE0C81626
:1017D000D104E9F60CC0D0E0C0E060E0C7018C0F96
:1017E0009D1F0E9403052196C630D105B1F7DF91F8
:1017F000CF911F910F91FF90EF90DF90CF900895C0
:10180000CF93DF93EC0188819981009711F00E94BA
:10181000FD31198218821D821C821B821A82DF917F
:10182000CF910895FC0180819181009711F00C9473
:10183000FD310895FB0101900020E9F73197AF01D8
:10184000461B570BDC01ED91FC910280F381E02DEA
:101850000994CF93DF93BC0180E495E00E94990640
:10186000EC0164E571E080E495E00E941A0C8C0FB5
:101870009D1FDF91CF9108958F929F92AF92BF925B
:10188000EF92FF920F931F93CF93DF93CDB7DEB705
:10189000A1970FB6F894DEBF0FBECDBF7C01FA0151
:1018A000CB0119A2223008F42AE08E010F5D1F4FF0
:1018B000822E912CB12CA12CBF01A50194010E9474
:1018C000C530F901CA016A300CF5605DD8016E932C
:1018D0008D01232B242B252B79F790E080E01097A6
:1018E00021F0BD01C7010E941A0CA1960FB6F89411
:1018F000DEBF0FBECDBFDF91CF911F910F91FF9043
:10190000EF90BF90AF909F908F900895695CDECF6D
:10191000CF92DF92EF92FF920F931F93CF93DF93BB
:101920006B01770FEE08FF08F7FE1FC0EC01E8819E
:10193000F9810190F081E02D6DE209958C01442739
:101940005527BA014C195D096E097F092AE0CE01BD
:101950000E943C0C800F911FDF91CF911F910F913E
:10196000FF90EF90DF90CF9008952AE0B701A60195
:10197000DF91CF911F910F91FF90EF90DF90CF906B
:101980000C943C0CCF93DF93BC0180E495E00E9463
:10199000880CEC0164E571E080E495E00E941A0C8B
:1019A0008C0F9D1FDF91CF9108950F931F93CF93BD
:1019B000DF93EC010E948B068C0164E571E0CE019F
:1019C0000E941A0C800F911FDF91CF911F910F91F0
:1019D00008953F924F925F926F927F928F929F9263
:1019E000AF92BF92CF92DF92EF92FF920F931F932D
:1019F000CF93DF93EC013B01FC0101900020E9F75C
:101A00003197E81BF90BD12CC12C329768F042E0DA
:101A100050E067E571E00E94853331E020E0892BDA
:101A200009F030E0C32ED22EB12CA12CEE24E39489
:101A3000F12C2E014C0C5D1C8091CC059091CD05B4
:101A400005968E159F050CF461C010E000E0302E65
:101A500082E090E00E946131EC01F801EE0FFF1F7F
:101A6000E40DF51D80819181998388831A82CE01CE
:101A70000E9417304C010115110539F481E0C81698
:101A8000D10419F4E0E58E1A9108C8018A0D9B1D56
:101A90000E945D0A8815190479F5209719F0CE0186
:101AA0000E94FD3133940F5F1F4F0730110579F607
:101AB000F7E0AF0EB11C85E0831520F527E02E9DE1
:101AC000C0012F9D900D112401970E945D0AF30122
:101AD0008083C701DF91CF911F910F91FF90EF900D
:101AE000DF90CF90BF90AF909F908F907F906F903E
:101AF0005F904F903F9008952097D1F2CE010E94C1
:101B0000FD31D6CFFFEFEF1AFF0A96CFF12CE12C73
:101B1000E0CFCF92DF92EF92FF920F931F93CF937C
:101B2000DF931F92CDB7DEB74983FC0101900020FF
:101B3000E9F73197E81BF90BDC01EB30F10568F4AC
:101B4000F12CE12CC7010F90DF91CF911F910F91E4
:101B5000FF90EF90DF90CF9008952D91022E000C12
:101B6000330B205331092A30310550F79D01281BD2
:101B7000390B2E173F0788F3F62E8C01BE016F5FDD
:101B80007F4F0E94E90C892BD9F68F2D0E94470BBD
:101B90007C0118161906A4F6019727E0289F60011A
:101BA000299FD00C1124B601C8010E94B80B69818D
:101BB000C60106960E940305C5CFCF92DF92EF9231
:101BC000FF920F931F93CF93DF931F92CDB7DEB792
:101BD0001982BE016F5F7F4F0E94E90C7C01019763
:101BE00027E0289F6001299FD00C112410E000E01D
:101BF00060E0C8018C0D9D1D0E9403050F5F1F4F03
:101C000007301105A9F7C7010F90DF91CF911F9100
:101C10000F91FF90EF90DF90CF90089560E171E019
:101C200080911A0490911B040E94E90C009731F4F2
:101C300080913803813051F482E008959C01215055
:101C400031092530310520F00697B4F780E008957A
:101C500081E0089546E050E069E373E08091180464
:101C6000909119040E94853321E0892B09F020E02E
:101C7000822F08954F925F926F927F928F929F92E0
:101C8000AF92BF92CF92DF92EF92FF920F931F938A
:101C9000CF93DF93CDB7DEB7C850D1400FB6F894DD
:101CA000DEBF0FBECDBF10921B0410921A0410921B
:101CB000190410921804109217041092160410922E
:101CC000150410921404109213041092120410922E
:101CD00011041092100410920F0410920E0465E586
:101CE00071E0FC01808191810E943E307C0165E5BC
:101CF00071E090E080E00E943E308C01E114F1043C
:101D000009F452C142E050E06AE571E0C7010E9467
:101D10008533892B51F043E050E06DE571E0C70158
:101D20000E948533892B09F002C1F70180818093DD
:101D30001C0462E270E0C7010E946A330097E9F078
:101D4000019690931B0480931A0462E270E00E9453
:101D50006A33009711F0FC01108280911C048934D1
:101D600061F4E0911A04F0911B0480818B3229F414
:101D70003196F0931B04E0931A0442E050E064E6CD
:101D800071E0C7010E948533892B09F04EC08BE4B6
:101D900080931C0462E270E0C7010E946A330097DE
:101DA00009F443C067E671E001960E943E304C01A1
:101DB00067E671E090E080E00E943E305C0169E6F9
:101DC00071E090E080E00E943E306C0165E671E0D9
:101DD00090E080E00E943E307C0165E671E090E09A
:101DE00080E00E943E308114910421F090921B0407
:101DF00080921A04A114B10421F0B0921904A092A7
:101E00001804C114D10421F0D0921704C092160412
:101E1000E114F10421F0F0921504E092140400970B
:101E200021F090931304809312049E012F5F3F4F83
:101E3000690180E091E0F9019C011192215030404C
:101E4000E1F70115110509F4B1C0F801808188237B
:101E500009F48FC09181903309F08BC0803309F071
:101E600088C001900020E9F731977F01E01AF10A5C
:101E700083E0A82EB12C912C812C3601680C791CA2
:101E8000AE14BF0408F072C0CB5FDE4F1882C5509D
:101E9000D140F8018081CF5FDE4F8883C150D140AF
:101EA0008181CE5FDE4F8883C250D1404280CD5FBA
:101EB000DE4F4882C350D1405380CC5FDE4F588202
:101EC000C450D1406BE671E0CE018F5F9E4F0E94FF
:101ED0007533892B31F160E771E0CE018F5F9E4F42
:101EE0000E947533892BE9F0C85FDE4F1882C85015
:101EF000D140CA5FDE4F4882C650D140C95FDE4F35
:101F00005882C750D14040E150E070E060E0CE011F
:101F10008A5F9E4F0E94002FFFEF8F1A9F0AF301E6
:101F20006083F4E0AF0EB11C0C5F1F4FA6CF42E000
:101F300050E061E671E0C7010E948533892B09F00A
:101F40001CCF81E580931C046701F2E0CF0ED11C09
:101F50006CE270E0C6010E946A33009711F0FC0148
:101F60001082D0921B04C0921A0407CFF301108292
:101F7000860180911C048535C9F065E771E0C801D0
:101F80000E943E3010E0009789F01F5F1330D1F1BE
:101F900028F5113069F1123081F165E771E090E0C8
:101FA00080E00E943E30EFCF892B19F7C85FDE4FEB
:101FB0000FB6F894DEBF0FBECDBFDF91CF911F915A
:101FC0000F91FF90EF90DF90CF90BF90AF909F90D8
:101FD0008F907F906F905F904F9008951530E1F053
:101FE000B0F01630D1F690930F0480930E04D5CF45
:101FF0009093190480931804D0CF90931704809382
:102000001604CBCF9093150480931404C6CF9093FD
:10201000130480931204C1CF909311048093100491
:10202000BCCF85ED8093BC0080916F0490917004CB
:10203000A0917104B09172040796A11DB11D23E017
:10204000B695A795979587952A95D1F72091BC00CD
:1020500024FD03C010926D04089540916F045091C7
:1020600070046091710470917204452B462B472BCC
:1020700069F30097A105B10541F025E32A95F1F731
:1020800000000197A109B109E1CF80916E040C9481
:102090005E030F931F93CF93DF938C01EB01FC0141
:1020A000808191810097E1F06881798161157105E6
:1020B000A9F0428153812C813D814217530770F072
:1020C0000E947E338C819D81F801958384831D82DB
:1020D0001C82DF91CF911F910F9108950E94FD31D5
:1020E00088819981F801918380838A819B81938380
:1020F00082838C819D8195838483198218821B82BF
:102100001A82E5CF67E771E0809116049091170479
:102110000E944C33892B29F581E40E94470B0197DB
:1021200059F40E94240940E061E480911A049091DE
:102130001B040E94890D08958091FD02882349F0B7
:1021400081E40E94470B181619061CF41092FD0238
:10215000E8CF42E350E068E070E08DEB95E00E944C
:10216000E10880E008950F931F93CF93DF938C01D4
:10217000EB010E949F308883C80101960E949F3026
:102180008983CE01DF91CF911F910F910895CF9355
:10219000DF93EB010E949F308883CE01DF91CF91C6
:1021A0000895CF93DF93EB010E949F308883CE0187
:1021B000DF91CF9108950F931F93CF93DF9309E39E
:1021C00013E0D0E0C0E0CE010E949F30F80181937F
:1021D0008F012196C730D105B1F78AE090E00E94C7
:1021E0009F30809321048BE090E00E949F30809389
:1021F00022048CE090E00E949F30809323048DE0C5
:1022000090E00E949F308093240468E373E086E4AA
:1022100090E00E94C71066E373E088E290E00E94BD
:10222000D11064E273E08BE290E00E94D11065E38C
:1022300073E082E390E00E94D11064E373E084E3F2
:1022400090E00E94C7106FE273E086E390E00E9486
:10225000B31067E373E08CE390E00E94D11062E377
:1022600073E08EE390E00E94B3106DE273E08AE4C5
:1022700090E00E94B31061E073E08CE490E00E9473
:10228000D1106DEA73E08EE490E00E94B31065EE29
:1022900072E08AE590E00E94B31063EE72E084E69B
:1022A00090E00E94B31061EE72E08EE690E00E9432
:1022B000B31060EE72E088EC90E00E94D110D0E0A4
:1022C000C0E0BE01605F7C4F8CED90E00E94B310D7
:1022D000BE016E5F7C4F8EED90E00E94B31022969F
:1022E000CE30D10571F7DF91CF911F910F910895F5
:1022F000FF920F931F93CF93DF93EC01F62E08818B
:102300001981C8010E949F30F81621F06F2DC80175
:102310000E94A730CE01DF91CF911F910F91FF90C6
:102320000895EF92FF920F931F93CF93DF9300D006
:10233000CDB7DEB781E2E82E84E0F82E0AE010E0A7
:102340001A830983F70161917F01CE0101960E94F2
:1023500078110F5F1F4F0E30110591F781E294E065
:102360000F900F90DF91CF911F910F91FF90EF9001
:102370000895CF92DF92EF92FF920F931F93CF9326
:10238000DF9300D0CDB7DEB76C017C0110E000E038
:102390001A830983F70161917F01CE0101960E94A2
:1023A00078110F5F1F4F0730110591F7C6010F908D
:1023B0000F90DF91CF911F910F91FF90EF90DF90E1
:1023C000CF900895EF92FF920F931F93CF93DF93D7
:1023D00000D0CDB7DEB78C017B019A838983FB01E6
:1023E0006081CE0101960E9478110F5F1F4F1A8302
:1023F0000983F7016181CE0101960E947811C7011E
:102400000F900F90DF91CF911F910F91FF90EF9060
:1024100008959F92AF92BF92CF92DF92EF92FF9278
:102420000F931F93CF93DF9300D0CDB7DEB76C012E
:10243000B62E7A011A821982BE016F5F7F4F80E546
:1024400090E00E94B31089819A818C5E9A4F2DE0B2
:10245000289F8001299F100D1124B801C6010E94F8
:10246000B80BF701A0809180C380D4806281C8013D
:1024700007960E940305692DC80108960E9403056E
:102480006A2DC80109960E9403056C2DC8010A96A1
:102490000E9403056D2DC8010B960E9403056B2D4C
:1024A000C8010C960E94030589819A810196843F98
:1024B000F1E09F07B9F09A838983BE016F5F7F4F78
:1024C00080E590E00E94E2110F900F90DF91CF9194
:1024D0001F910F91FF90EF90DF90CF90BF90AF9042
:1024E0009F9008951A821982E8CFFF920F931F934D
:1024F000CF93DF93CDB7DEB72C970FB6F894DEBF3E
:102500000FBECDBF8C01F62ECE0107960E94A90901
:102510008F81898388858A8389858B838A858C834B
:102520008B858D838C858E83AE014F5F5F4F6F2DC2
:10253000C8010E940912BE016F5F7F4F80E590E0E5
:102540000E94B31089819A810E94C20C2C960FB60A
:10255000F894DEBF0FBECDBFDF91CF911F910F91D9
:10256000FF9008950F931F93CF93DF9300D0CDB7C3
:10257000DEB78B019A838983FB016081CE010196CE
:102580000E947811C8010F900F90DF91CF911F9199
:102590000F9108950F931F93CF93DF9300D0CDB782
:1025A000DEB78B019A838983FB016081CE0101969E
:1025B0000E947811C8010F900F90DF91CF911F9169
:1025C0000F9108950F931F93CF93DF93CDB7DEB78D
:1025D0002B970FB6F894DEBF0FBECDBF8DEB95E005
:1025E0000E94DC0810E000E08091CC059091CD05C0
:1025F00023E0880F991F2A95E1F7081719073CF483
:1026000060E0C8010E9403050F5F1F4FEDCF04E09B
:1026100012E460E0C8010E9403050F5F1F4F0C3CED
:102620008BE51807B1F710E000E01A83098360E03A
:10263000CE0101960E9478110F5F1F4F011582E0B5
:10264000180799F787E0EDE7F1E0DE0111960190B8
:102650000D928A95E1F7CE0101960E94B91182E0B0
:102660008093210480932204809323048093240484
:102670000E94911119861886BE01685F7F4F86E41B
:1026800090E00E94E21111E01887BE01685F7F4F61
:1026900088E290E00E94B2121A87BE01665F7F4F07
:1026A0008BE290E00E94B2121B87BE01655F7F4FF4
:1026B0008CE390E00E94B2121092010361E073E09B
:1026C0008CE490E00E94B21288E190E09093AE0317
:1026D0008093AD036DEA73E08EE490E00E94E21116
:1026E00002E310E01093E6020093E50265EE72E06B
:1026F0008AE590E00E94E2111093E4020093E30265
:1027000063EE72E084E690E00E94E2111093E20230
:102710000093E10261EE72E08EE690E00E94E21129
:102720000E94240961E08EE290E00E94A7308EE0D2
:1027300090E090932E0380932D036DE273E08AE482
:1027400090E00E94E21188E19EE00FB6F894A8950F
:10275000809360000FBE9093600060ED77E080E0B2
:1027600090E00E94D0042B960FB6F894DEBF0FBE07
:10277000CDBFDF91CF911F910F9108950F931F93BC
:10278000CF93DF93EC0188819981009759F02A81DA
:102790003B812617370730F081E0DF91CF911F9101
:1027A0000F9108958B016F5F7F4F0E9486320097D3
:1027B00059F0998388831B830A832C813D81232BC5
:1027C00059F7FC011082E8CF80E0E7CFEF92FF924B
:1027D0000F931F93CF93DF936115710541F480E050
:1027E000DF91CF911F910F91FF90EF9008954115C8
:1027F0005105B1F07B01EC010C811D81040F151F07
:10280000B8010E94BE13882351F3288139818C813D
:102810009D81B701820F931F0E947E331D830C831D
:1028200081E0DECFCF93DF9300D0CDB7DEB76983F1
:102830001A8241E050E0BE016F5F7F4F0E94E613B5
:102840000F900F90DF91CF910895FB010190002030
:10285000E9F73197AF01461B570B0C94E613FB01C8
:1028600044815581608171810C94E613EF92FF924F
:102870000F931F93CF93DF93EC017B018A01BA0181
:102880000E94BE1381110BC0CE010E94000CCE012C
:10289000DF91CF911F910F91FF90EF9008951D83CD
:1028A0000C83B701888199810E947E33F0CFFB01B0
:1028B00001900020E9F73197AF01461B570B0C94AC
:1028C00036140F931F93CF93DF93CDB7DEB72997BD
:1028D0000FB6F894DEBF0FBECDBF8C01862FF80176
:1028E0001182108213821282158214824AE0BE0184
:1028F0006F5F7F4F90E00E947230BE016F5F7F4F2D
:10290000C8010E94571429960FB6F894DEBF0FBE77
:10291000CDBFDF91CF911F910F910895CF93DF939A
:10292000EC01FB018617970749F060817181611501
:10293000710541F0448155810E943614CE01DF912A
:10294000CF9108950E94000CF9CFFC0111821082F2
:1029500013821282158214820C948E14FC0111824F
:10296000108213821282158214826115710551F052
:10297000FB0101900020E9F73197AF01461B570B8F
:102980000C94361408950F931F93CF93DF93EC01AB
:102990008B0166E571E00E94AE14C8010E945D06DD
:1029A00097FD05C0682FCE010E941214F6CFCE010C
:1029B000DF91CF911F910F910895CF93DF9300D0B6
:1029C00000D000D0CDB7DEB763EA74E0CE01019647
:1029D0000E94C314CE0101960E94120C64E670E0BE
:1029E00080E090E00E94D00460ED72E083EA94E021
:1029F0000E94990626960FB6F894DEBF0FBECDBF93
:102A0000DF91CF910895EF92FF920F931F93CF9391
:102A1000DF9300D000D000D0CDB7DEB77C018B01B2
:102A200063EA74E0CE0101960E94C314CE010196C0
:102A30000E94120C64E670E080E090E00E94D004F6
:102A400066EC72E083EA94E00E949906B70183EA9B
:102A500094E00E948B0663EC72E083EA94E00E94AB
:102A6000990668EC70E080E090E00E94D004B80124
:102A700083EA94E00E94D50C68EE73E080E090E079
:102A80000E94D0046AE183EA94E00E94650764EF43
:102A900071E080E090E00E94D00463EA74E0CE012F
:102AA00001960E94C314CE0101960E94120C63EAA3
:102AB00074E0CE0101960E94C314CE0101960E94DB
:102AC000120C26960FB6F894DEBF0FBECDBFDF9175
:102AD000CF911F910F91FF90EF9008950F931F9347
:102AE000CF93DF9300D000D000D0CDB7DEB78C01FC
:102AF0006AEB72E083EA94E00E949906B80183EAE7
:102B000094E00E94880C63EB72E083EA94E00E94F8
:102B1000990668EE73E080E090E00E94D00460E4E3
:102B200075E0CE0101960E94C314CE0101960E9469
:102B3000120C26960FB6F894DEBF0FBECDBFDF9104
:102B4000CF911F910F910895CF93DF9300D000D0C4
:102B500000D0CDB7DEB78091D1059091D2050E940B
:102B60006E1563EA74E0CE0101960E94C314CE0193
:102B700001960E94120C67EA72E083EA94E00E94D8
:102B8000990664EF71E080E090E00E94D00463EA6F
:102B900074E0CE0101960E94C314CE0101960E94FA
:102BA000120C6BE972E083EA94E00E94990664EFEC
:102BB00071E080E090E00E94D00463EA74E0CE010E
:102BC00001960E94C314CE0101960E94120C6FE878
:102BD00072E083EA94E00E94990664EF71E080E07D
:102BE00090E00E94D00463EA74E0CE0101960E9456
:102BF000C314CE0101960E94120C6BE772E083EAC7
:102C000094E00E94990664EF71E080E090E00E94F9
:102C1000D00463EA74E0CE0101960E94C314CE0191
:102C200001960E94120C6CE572E083EA94E00E9427
:102C3000990664EF71E080E090E00E94D00463EABE
:102C400074E0CE0101960E94C314CE0101960E9449
:102C5000120C65E572E083EA94E00E94990664EF45
:102C600071E080E090E00E94D00463EA74E0CE015D
:102C700001960E94C314CE0101960E94120C67E4D3
:102C800072E083EA94E00E94990664EF71E080E0CC
:102C900090E00E94D00463EA74E0CE0101960E94A5
:102CA000C314CE0101960E94120C6BE372E083EA1A
:102CB00094E00E94990664E670E080E090E00E9453
:102CC000D00463EA74E0CE0101960E94C314CE01E1
:102CD00001960E94120C64E372E083EA94E00E9481
:102CE000990626960FB6F894DEBF0FBECDBFDF91D2
:102CF000CF9108950F931F93CF93DF9300D000D00F
:102D000000D0CDB7DEB78C0163EA74E0CE01019646
:102D10000E94C314CE0101960E94120C64E670E07A
:102D200080E090E00E94D00466E272E083EA94E0E2
:102D30000E949906B80183EA94E00E948B0662E241
:102D400072E083EA94E00E94990668E873E180E00B
:102D500090E00E94D0046CE172E083EA94E00E946B
:102D6000990668EE73E080E090E00E94D00463EA88
:102D700074E0CE0101960E94C314CE0101960E9418
:102D8000120C26960FB6F894DEBF0FBECDBFDF91B2
:102D9000CF911F910F910895EF92FF920F931F9380
:102DA000CF93DF9300D000D000D0CDB7DEB78C0139
:102DB00063EA74E0CE0101960E94C314CE0101962D
:102DC0000E94120C64E670E080E090E00E94D00463
:102DD00062E172E083EA94E00E94990668EE73E093
:102DE00080E090E00E94D004FF24F39487E2E82E74
:102DF00083EA94E00E9424072091DB051816190647
:102E000064F521112AC083EA94E00E9402079091A0
:102E100020049923E9F090911F04292F30E02253D8
:102E20003A4F26543F4FF9018A3051F080839F5F1B
:102E3000983218F0E0921F04DBCF90931F04D8CF94
:102E400010821092200410921F04F092DB05D0CF64
:102E5000883371F6F0922004CBCF62EF71E0222329
:102E600021F01092DB0568E876E0C8010E94AE14FC
:102E7000C80126960FB6F894DEBF0FBECDBFDF9116
:102E8000CF911F910F91FF90EF900895EF92FF92D5
:102E90000F931F93CF93DF93CDB7DEB72C970FB669
:102EA000F894DEBF0FBECDBF8C017B016EE772E0F0
:102EB0000E944C33892B09F063C00E94BD068091AB
:102EC00010018230B0F480912503811112C020914D
:102ED000210488EE93E0289FA001299F500D112422
:102EE00041155105E9F161E070E08EEA95E00E943C
:102EF000E1080E94BD0662E0C7010E947512809140
:102F00003203909133030197E9F464E871E0CE0154
:102F100007960E94AE1460911A0470911B04CE01B2
:102F200001960E94AE14BE01695F7F4FCE010196EB
:102F30000E940315CE0101960E94120CCE01079645
:102F40000E94120C81E02C960FB6F894DEBF0FBEE3
:102F5000CDBFDF91CF911F910F91FF90EF9008951A
:102F60008091AE050E94E902892B29F48EEA95E052
:102F70000E94DC08BECF8EEA95E00E94D708B9CF48
:102F800067E871E0C8010E944C33892B71F580918C
:102F900010018D7FB1F480913403811112C0209112
:102FA000220488EE93E0289FA001299F500D112450
:102FB0004115510551F061E070E08FE995E00E9404
:102FC000E1080E94BD0663E097CF80919F050E94B3
:102FD000E902892B29F48FE995E00E94DC08F1CF02
:102FE0008FE995E00E94D708ECCF6BE871E0C8014B
:102FF0000E944C33892B99F468E572E080E090E000
:103000000E94D0040E94BD0680911001882319F00F
:10301000833009F097CF81E08093230394CF80E041
:1030200092CFBF92CF92DF92EF92FF920F931F93B6
:10303000CF93DF93CDB7DEB7C259D1090FB6F8945D
:10304000DEBF0FBECDBF1A821982FE0133968EE716
:10305000DF011D928A95E9F7CE0183579F4F0E94A9
:10306000A909CF56DF4FB880C159D040C057DF4FB4
:10307000C880C059D040C357DF4FD880CD58D0400A
:10308000C257DF4FE880CE58D040C157DF4FF8809D
:10309000CF58D040CE0183579F4F0E94500AE82F4F
:1030A000F0E0EE0FFF1FEE5FFC4F10810181CE01BB
:1030B00083579F4F0E94500A1F92BF921F92CF9238
:1030C0001F92DF921F92EF921F92FF920F931F9316
:1030D000E82FF0E0EE0FFF1FE05FFC4F81818F9340
:1030E00080818F93809124031F928F938091360368
:1030F0001F928F93809130038F9380912F038F9332
:10310000809134031F928F93809135031F928F9388
:103110008091AE038F938091AD038F9380910103D3
:103120001F928F93809133038F93809132038F93FB
:1031300080912E038F9380912D038F93E1E2F4E031
:1031400081811F928F9380811F928F938FE891E0EE
:103150009F938F938E010F5F1F4F1F930F930E94BA
:10316000A2330FB6F894DEBF0FBECDBFB801CE01BB
:1031700089579F4F0E94AE1460911A0470911B04EE
:10318000CE018F579F4F0E94AE14BE0169577F4FEB
:10319000CE018F579F4F0E940315CE018F579F4F2F
:1031A0000E94120CCE0189579F4F0E94120CCE56DE
:1031B000DF4F0FB6F894DEBF0FBECDBFDF91CF91CA
:1031C0001F910F91FF90EF90DF90CF90BF900895E7
:1031D000CF92DF92FF920F931F93CF93DF93CDB7E0
:1031E000DEB762970FB6F894DEBF0FBECDBF8C017D
:1031F000F62E6A0166E571E0CE010D960E94AE14CE
:1032000089E06F2D8F1540F5CE0101960E94611463
:10321000BE016F5F7F4FCE010D960E944910BE0127
:10322000635F7F4FC8010E94A514CE0101960E94E2
:10323000120CCE010D960E94120CC80162960FB6B8
:10324000F894DEBF0FBECDBFDF91CF911F910F91DC
:10325000FF90DF90CF900895CE010196E5E0CE1665
:10326000D104D9F40E946114BE016F5F7F4FCE017B
:103270000D960E944910CE0101960E94120CF80191
:10328000118210821382128215821482BE01635F42
:103290007F4FC8010E944910CCCF0E9461146EED8F
:1032A00072E0CE0107960E94AE144D815E81698165
:1032B0007A81CE0107960E94E613811104C0CE01E7
:1032C00007960E94000CBE01695F7F4FCE010D96EC
:1032D0000E948E14CE0107960E94120CCCCFBF9292
:1032E000CF92DF92EF92FF920F931F93CF93DF93D2
:1032F000CDB7DEB72C970FB6F894DEBF0FBECDBFAB
:103300008C016B0166E571E0CE0107960E94AE1458
:1033100087E08C9D70018D9DF00C1124C7010197F1
:103320000E945D0A80931001670187E0C81AD108E6
:10333000B12CF12CE12CC7018C0D9D1D0E945D0A62
:10334000811101C0B39493E09B15D0F46EED72E04F
:10335000C8010E94AE14CE0107960E94120CC8014B
:103360002C960FB6F894DEBF0FBECDBFDF91CF9184
:103370001F910F91FF90EF90DF90CF90BF90089535
:10338000A701682FCE0101960E94E818BE016F5F69
:103390007F4FCE0107960E942F14CE0101960E9406
:1033A000120CEFEFEE1AFE0AF6E0EF16F10419F632
:1033B000F801118210821382128215821482BE01DA
:1033C000695F7F4FC8010E944910C5CFAF92BF927D
:1033D000DF92EF92FF920F931F93CF93DF93CDB7BE
:1033E000DEB7C054D1090FB6F894DEBF0FBECDBF13
:1033F0005C011982809123038E010F5D1F4F88238A
:1034000009F44AC064EF71E0CE0101960E947E3358
:1034100060911A0470911B04CE0101960E945F33E3
:10342000CE01C5960E94A90988AD1F928F938DA9E0
:103430001F928F938EA91F928F938FA91F928F93A4
:1034400089EF91E09F938F931F930F930E94A23374
:10345000B801CE0101960E945F3319A289AD0FB663
:10346000F894DEBF0FBECDBF8A3008F08DC01F922A
:103470008F9387E092E09F938F931F930F930E9407
:10348000A2330F900F900F900F900F900F90B801F4
:10349000CE0101960E945F33EE24E394F12CD12CEF
:1034A000B701C8010E946F198DA19EA1892B49F017
:1034B0006EED72E089A19AA10E947533892B09F4FF
:1034C00046C080912303DD2009F46FC0882309F4EE
:1034D00060C08FE995E00E94D70860E476E080E064
:1034E00090E00E94D0048FE995E00E94DC0860E43F
:1034F00076E080E090E00E94D0048FE995E00E94A1
:10350000D70860E476E080E090E00E94D0048FE984
:1035100095E00E94DC08BE016F5F7F4FCE01CB9625
:103520000E94AE14B801CE01C5960E94A514BE013A
:10353000655C7F4FCE01C5960E940315CE01C596EE
:103540000E94120CCE01CB960E94120CD394C8019B
:103550000E94120C3FEFE31AF30A84E0E816F1042C
:1035600009F09ECF81E0C05CDF4F0FB6F894DEBF5C
:103570000FBECDBFDF91CF911F910F91FF90EF90C4
:10358000DF90BF90AF9008951F928F9388E092E0F4
:1035900072CF68E873E180E090E00E94D004B5014A
:1035A000CE01CB960E94A514BDCF8823C1F3B3CF23
:1035B000EF92FF920F931F93CF93DF93CDB7DEB7B8
:1035C0006F970FB6F894DEBF0FBECDBF8C017B01A5
:1035D000161617060CF05CC0609116047091170463
:1035E00046E050E0CE0101960E949333FF92EF92A5
:1035F0008BE092E09F938F937E018AE1E80EF11CAD
:10360000FF92EF920E94A233B701CE0101960E9471
:103610005F330F900F900F900F900F900F9080914D
:10362000320390913303BE016F5F7F4F02972CF5F9
:10363000CE0144960E94AE14B801CE010E960E94AF
:10364000AE14BE016C5E7F4FCE010E960E94031534
:10365000CE010E960E94120CCE0144960E94120CCE
:103660006F960FB6F894DEBF0FBECDBFDF91CF913E
:103670001F910F91FF90EF900895CE010E960E943A
:10368000AE14CE010E960E94E619CE010E96E6CF3C
:1036900060E171E00E94E90C181619060CF76FE062
:1036A00072E0CE010E960E94AE14B801CE010196D2
:1036B0000E94AE14BE01625F7F4FCE0101960E9450
:1036C0000315CE0101960E94120CDFCF1F920F92BC
:1036D0000FB60F9211242F933F934F935F936F93E5
:1036E0007F938F939F93AF93BF93EF93FF938091BB
:1036F000B900887F803609F44AC0F0F5883209F4B1
:10370000A7C018F5803109F49BC0B8F4882309F4E8
:10371000F9C0883009F494C0FF91EF91BF91AF9147
:103720009F918F917F916F915F914F913F912F91D9
:103730000F900FBE0F901F901895883109F488C024
:10374000803251F780936B0414C0803409F49DC01B
:1037500040F48033B9F38833F9F680936B0485EC39
:10376000B0C0803509F485C0883509F496C0883426
:1037700099F60E941110D0CF883909F48CC038F521
:10378000883729F050F4883611F0803729F683E025
:1037900080936D0410920D0457C0883809F47BC0E3
:1037A000803919F0803809F0B7CF80910D0480324C
:1037B00008F071C0E0910D0481E08E0F80930D043C
:1037C0008091BB00F0E0E351FC4F80833DC0803B23
:1037D00039F0E0F4803A09F479C0883A09F09CCFD6
:1037E00084E080936D041092EA031092E903E09163
:1037F000E703F091E80309958091E90381110FC077
:1038000081E08093E9031092C70309C0803C09F46A
:10381000A6CF883C09F4A3CF883B09F07DCFE09187
:10382000EA0381E08E0F8093EA03F0E0E953FC4F56
:1038300080818093BB009091EA038091E90329C0C5
:10384000809148048093BB0085EC8093BC0064CFDA
:1038500090916A0480916904981758F5E0916A0480
:1038600081E08E0F80936A04F0E0E75BFB4F80817C
:10387000E9CFE0916A0481E08E0F80936A04809121
:10388000BB00F0E0E75BFB4F808390916A0480917E
:1038900069049817C8F285E8D8CFE0916A0481E0FE
:1038A0008E0F80936A048091BB00F0E0E75BFB4FD2
:1038B000808380916C0481115CCF81E08093470408
:1038C00084EA8093BC0010926D0426CF85EC80932F
:1038D000BC0010926D0480910D04803230F4E091B0
:1038E0000D04F0E0E351FC4F108260910D0470E094
:1038F000E091EB03F091EC038DEE93E009951092CB
:103900000D040ACF10926B0434CF1F920F920FB6A2
:103910000F9211242F933F938F939F93AF93BF9355
:103920008091B2039091B303A091B403B091B50319
:103930003091B10323E0230F2D3758F50196A11DD7
:10394000B11D2093B1038093B2039093B303A0936E
:10395000B403B093B5038091B6039091B703A091DF
:10396000B803B091B9030196A11DB11D8093B603B0
:103970009093B703A093B803B093B903BF91AF91ED
:103980009F918F913F912F910F900FBE0F901F909D
:10399000189526E8230F0296A11DB11DD2CF1F92C4
:1039A0000F920FB60F9211248F939F938091E10095
:1039B0009091E100937F9093E10083FF0FC01092FC
:1039C000E90091E09093EB001092EC0092E3909369
:1039D000ED0010921E0498E09093F00082FF22C048
:1039E00093E09093E9009091F200992319F09AE303
:1039F0009093E8009091F002992341F09091F002A9
:103A000091509093F002911101C05D9A90911D0424
:103A1000992341F090911D04915090931D049111B0
:103A200001C0289A84FF18C08091E2008E7E8160D8
:103A30008093E2008091E1008F7E8093E10080918D
:103A4000F1028E7E80618093F1029F918F910F90A1
:103A50000FBE0F901F90189580FFF7CF8091E20066
:103A60008E7E80618093E2008091E1008E7E809363
:103A7000E1008091F1028E7E8160E5CF1F920F926E
:103A80000FB60F921124CF92DF92EF92FF920F9315
:103A90001F932F933F934F935F936F937F938F93D6
:103AA0009F93AF93BF93EF93FF93CF93DF93CDB7E4
:103AB000DEB76C97DEBFCDBF1092E9008091E800C1
:103AC00083FF25C068E0CE0145960E94500682EF34
:103AD0008093E8008D8987FF39C09091E80090FFBE
:103AE000FCCF982F907609F034C19E894F89588D6C
:103AF0002F89F88C911131C0803861F58091F202E4
:103B00008093F1001092F1008EEF8093E8006C96A4
:103B10000FB6F894DEBF0FBECDBFDF91CF91FF91FE
:103B2000EF91BF91AF919F918F917F916F915F9135
:103B30004F913F912F911F910F91FF90EF90DF9048
:103B4000CF900F900FBE0F901F9018959EEF9093FF
:103B5000E800C7CF1092F100D5CF913059F4811110
:103B6000D3CF4130510581F68091F2028D7F809351
:103B7000F202CACF933049F48111C6CF41305105CA
:103B800019F68091F2028260F2CF953041F4809173
:103B9000E80080FFFCCF20682093E300B5CF96308B
:103BA00009F0A9C00B8D1C8D22E01092E900109243
:103BB000EE021092ED02F2122EC01092EC02109260
:103BC000EB020E941F061F8299E09983FA8291E01E
:103BD0009E8390EA98879AEF99872091ED02309121
:103BE000EE02275F3F4F3C832B838D831092E900C9
:103BF0001092EE021092ED021093EC020093EB0291
:103C000049E050E0BE016F5F7F4F80E00E94F90500
:103C10000E941F0679CF1093EC020093EB020E94E2
:103C20008902DC0112960D911C910115110509F410
:103C300051C1D801ED91FC910480F581E02DBE01C8
:103C40006B5E7F4FC8010995009709F03EC1F801EE
:103C500000851185EACFF3E0FF120EC08F8988231B
:103C600009F440C0823061F440E862E189E191E00A
:103C70000E94C605811148CF81E28093EB0047CFB7
:103C8000813029F440E868E080E191E0F1CF8330B1
:103C900099F70E948902DC011296ED90FC908E014A
:103CA0000F5F1F4F6801E114F10479F0D701ED9126
:103CB000FC910680F781E02DB801C7010995080F36
:103CC000111DF701E084F184EECFD8011C92F601BA
:103CD00001900020E9F73197BF016C197D0940E0A0
:103CE000C601C6CF6AEF70E0FB01449150E080E866
:103CF0000E94F90509CF973009F4BECF983021F41E
:103D000081E08093F10000CF993009F0FDCE8370FF
:103D100009F0B2CFE8E1F1E081E031E096E32191F2
:103D2000222371F08093E9003093EB00DF011197BB
:103D30002C912093EC009093ED008F5F873079F702
:103D40008EE78093EA001092EA008F8980931E0428
:103D5000DBCE8B8D9C8D1092E9001092EE021092BA
:103D6000ED029093EC028093EB02898D811192C059
:103D70008E899D89913A49F4813209F07DCF47E0DF
:103D800050E064E071E080E0B3CF913209F074CF8D
:103D9000833269F48F89988DB0E0A0E080930001B0
:103DA00090930101A0930201B0930301ADCE803244
:103DB00069F48091E80082FFFCCF67E084E091E045
:103DC0000E9450068BEF8093E8009ECE823209F06D
:103DD0009BCE8F8980930B01EEEFFFE78591949145
:103DE0008B3F9C4D51F1E0E0F8E08091040190910F
:103DF0000501A0910601B0910701803B9440A10507
:103E0000B105F1F480910B0180FD1AC0EE3F8AE00C
:103E1000F80789F587E797E79183808380916000B1
:103E20008093EF0288E19BE00FB6F894A895809309
:103E300060000FBE9093600067CEEEEFFAE0D5CF42
:103E4000808191818737974709F05ECEA895809150
:103E500060008861809360008091EF028093600031
:103E6000EE3F2AE0F20789F08091FE0A9091FF0A66
:103E70009183808349CE808191818737980751F261
:103E80009093FF0A8093FE0AC5CF1092FF0A10920A
:103E9000FE0A3ACE0E948902DC0112960D911C9115
:103EA0000115110509F4E8CED801ED91FC910190BE
:103EB000F081E02DBE016B5E7F4FC8010995811135
:103EC00023CEF80100851185EBCF181619060CF4E6
:103ED0001BCED2CEF1E0FF12BECE6EEF70E004CF6B
:103EE0001F920F920FB60F9211242F933F934F936F
:103EF0005F936F937F938F939F93AF93BF93EF9352
:103F0000FF9383EA94E00E944407FF91EF91BF91F1
:103F1000AF919F918F917F916F915F914F913F9161
:103F20002F910F900FBE0F901F9018951F920F9218
:103F30000FB60F9211242F938F939F93EF93FF93BC
:103F4000E091B304F091B4048081E091B904F09160
:103F5000BA0482FD1BC090818091BC048F5F8F7377
:103F60002091BD04821741F0E091BC04F0E0ED55D2
:103F7000FB4F958F8093BC04FF91EF919F918F91A0
:103F80002F910F900FBE0F901F9018958081F4CF46
:103F9000CF93DF93E7E9F4E01382128288EE93E097
:103FA000A0E0B0E084839583A683B78322E231E06A
:103FB00031832083E3EAF4E01382128284839583C1
:103FC000A683B78324E331E0318320832DEC30E0F6
:103FD000358724872CEC30E03787268728EC30E0C3
:103FE000318B208B29EC30E0338B228B2AEC30E0B4
:103FF000358B248B2EEC30E0378B268B118E128E76
:10400000138E148EE0E4F5E013821282848395838C
:10401000A683B78386E491E0918380838FEF9FEF3F
:104020009587848766E571E084EB96E00E94AE1484
:10403000CEECD5E082E090E09C838B8366E571E076
:1040400083ED95E00E94AE141B861C861D861F869C
:104050001E868DE48093B0068CE48093B10683E5E0
:104060008093B20691E29093B306888388EE93E042
:104070009093CD058093CC05EDEBF5E0128212868E
:10408000138614861586168684E090E091838083DB
:10409000C1E0C38361E00E947F03EEEAF5E0128293
:1040A0001286138614861586168689E090E0918321
:1040B0008083C38361E00E947F03EFE9F5E0128211
:1040C000128613861486158616868AE090E0918300
:1040D0008083C38361E00E947F03E0E9F5E0128200
:1040E0001286138614861586168688E090E09183E2
:1040F0008083138260E0DF91CF910C947F03CF9394
:10410000DF93CDB7DEB7ED970FB6F894DEBF0FBEE5
:10411000CDBF789484B5826084BD84B5816084BD50
:1041200085B5826085BD85B5816085BD80916E0055
:10413000816080936E001092810080918100826086
:1041400080938100809181008160809381008091C3
:1041500080008160809380008091910082608093D4
:1041600091008091910081608093910080919000F6
:104170008160809390008091C10084608093C10031
:104180008091C10082608093C1008091C1008160F4
:104190008093C1008091C30081608093C3008091AF
:1041A000C00082608093C0008091C20081608093D3
:1041B000C20080917A00846080937A0080917A00B6
:1041C000826080937A0080917A00816080937A0087
:1041D00080917A00806880937A0010921E04109279
:1041E000F2021092F1028091D70081608093D70093
:1041F00080EA8093D80089B5806189BD89B58260E5
:1042000089BD09B400FEFDCF61E070E080E090E080
:104210000E94D0048091D8008F7C80618093D80068
:104220008091E000807F8093E0008091E1008E7EAD
:104230008093E1008DE08093E200559A209A87EF09
:1042400084BF0FB6F894A895809160008861809330
:104250006000109260000FBE60E08EE00E947F035D
:1042600061E084E10E947F0362E085E10E947F03B8
:1042700048EC50E065E070E08DEB95E00E94E108CD
:104280008EE290E00E949F308111C9C161E084E11B
:104290000E94120364EF71E080E090E00E94D0047D
:1042A00060E084E10E9412038DEB95E00E94DC083F
:1042B0008FEF9FEF90934D0580934C0568EE73E070
:1042C00080E090E00E94D0040E94DB10E0902D037B
:1042D000F0902E03E091B304F091B40402E0008367
:1042E000E091AF04F091B0041082E091B104F0913C
:1042F000B20480E180831092BB04E091B704F09196
:10430000B80416E01083E091B504F091B604808102
:1043100080618083E091B504F091B604808188606B
:104320008083E091B504F091B60480818068808339
:10433000E091B504F091B60480818F7D80838091F7
:10434000CE058C3409F045C068EE73E080E090E063
:104350000E94D00466E571E083EA94E00E94990629
:1043600068EE73E080E090E00E94D004E091B30436
:10437000F091B4040083E091AF04F091B004108296
:10438000E091B104F091B20487E680831092BB04FF
:10439000E091B704F091B8041083E091B504F09176
:1043A000B604808180618083E091B504F091B60409
:1043B000808188608083E091B504F091B6048081AB
:1043C00080688083E091B504F091B60480818F7D90
:1043D000808360E177E280E090E00E94D00460E5B5
:1043E00071E083EA94E00E94990663EA74E08E012A
:1043F0000F5F1F4FC8010E94C314C8010E94120C16
:1044000068EE73E080E090E00E94D004F092D20564
:10441000E092D105C7010E946E1564E471E083EA61
:1044200094E00E94990668EE73E080E090E00E94BC
:10443000D00463EA74E0C8010E94C314C8010E945A
:10444000120C68E371E083EA94E00E94990668EE3A
:1044500073E080E090E00E94D00463EA74E0C80159
:104460000E94C314C8010E94120C6CE271E083EA3E
:1044700094E00E94990668EE73E080E090E00E946C
:10448000D00463EA74E0C8010E94C314C8010E940A
:10449000120C0E94A41563EA74E0C8010E94C314C0
:1044A000C8010E94120C68EE73E080E090E00E9468
:1044B000D0041092260410922504109274041092D5
:1044C00096040E94400383E092E09093E803809377
:1044D000E70384E092E09093EC038093EB0360E1C8
:1044E00077E280E090E00E94D00481E090E00E94BA
:1044F0009F308F3F11F40E94E212A091AD03B09162
:10450000AE031A161B0674F420E437E74BE150E0C3
:104510000E94593160930C0170930D0180930E013C
:1045200090930F0164E170E084EB96E00E94BE136B
:10453000C8010E94CC16B80184EB96E00E94491095
:10454000C8010E94120C60ED77E080E090E00E94CC
:10455000D00463EF72E085EF92E00E94860B8091B9
:104560002D0390912E030E94C20C6EED72E0C801E3
:104570000E94AE14C8010E947A16C8010E94120C53
:1045800048EC50E065E070E08DEB95E00E94E108BA
:1045900085E1898381E08A838B831C821D821E8250
:1045A000C8010E942F0A68EB7BE080E090E00E9447
:1045B000D0040E94DD147E012AE1E20EF11CCE013E
:1045C00007969DAF8CAF7EED272E75E0372EDD244C
:1045D000D39469EAC62E83EA94E00E942407B0903F
:1045E000FC02181619060CF58091DA0581111DC020
:1045F00083EA94E00E940207B11058C09091B0067F
:10460000891709F47AC09091B106891721F0909129
:10461000B2068913E0CFEDE0E093B30671C060E02D
:104620008EE290E00E94A7303FCEBB2009F49BC0F1
:104630000E942B058090F7029090F802A090F9025A
:10464000B090FA02681979098A099B09683E73409B
:104650008105910508F487C0E091FB02F0E0E25388
:10466000FA4F108A1092FC021092FB023092DD0584
:104670002092DC0581E08093DA0542E350E061E0BE
:1046800070E08DEB95E00E94E1088091DA058111E0
:104690001092DA0583EA94E00E942407181619069E
:1046A000F4F583EA94E00E940207F4CF9091B306F8
:1046B000891791F2E091FB0291E09E0F9093FB022B
:1046C000F0E0E253FA4F808B9A3A10F0C092FB026E
:1046D0000E942B058090F7029090F802A090F902BA
:1046E000B090FA02681979098A099B09603D774000
:1046F0008105910508F46FCFAFCF91E29093B30697
:104700000E942B056093F7027093F8028093F902E0
:104710009093FA02D092FC021092FB025CCFA0911F
:10472000DC05B091DD05BBAFAAAFFD010190002013
:10473000E9F73197EA1BFB0B3497A8F011968C919F
:104740008E3489F0CE01CA960E943A0E80911C04E4
:104750008B3409F45CC60CF095C0833409F4F3C5BE
:10476000893409F4F0C580912A038823E1F00E947E
:104770002B058090260390902703A0902803B090EB
:104780002903681979098A099B0968397A438105DF
:10479000910508F44DC065E373E082E390E00E9468
:1047A000D11010922A0380913503882309F4F9C6A9
:1047B000C7010E94A909C7010E94500AE82FF0E032
:1047C000EE0FFF1FE05FFC4FA080B180C7010E9489
:1047D000500AE82FF0E0EE0FFF1FEE5FFC4FC080A5
:1047E000D1801A141B041CF01C141D048CF4C80185
:1047F0000E94A9098C8195012C193D0990E037FF91
:10480000C7C68A159B0524F08C159D050CF4C9C6F6
:1048100088EE93E00E94370580912503811155C7EA
:10482000809124038111C2C6809123038111CBC6DC
:10483000DD24D3942BE3C22E80E495E00E94BD08D2
:104840002091A903181619060CF0C1C72111C2C77F
:1048500080E495E00E947B0890912C03992309F451
:10486000B0C790912B03E92FF0E0E05CFC4F8E3352
:1048700009F49FC780839F5F9C3308F497C7C09259
:104880002B03DACF813509F445C5843509F06BCFA8
:104890000E940E0E813019F170F0823009F063CF62
:1048A00060911A0470911B0480911804909119046E
:1048B0000E94461758CF0E942A0E882309F453CF2E
:1048C0000E948210682F70E06115710509F44BCFCA
:1048D00080911A0490911B040E94D81A44CF0E9420
:1048E0002A0E8823E9F266E172E080911604909125
:1048F00017040E944C33892BD1F40E94240964E8E8
:1049000071E0C8010E94AE1460911A0470911B04FA
:10491000C7010E94AE14B801C7010E940315C70168
:104920000E94120CC8010E94120C0E94E2126DE15A
:1049300072E080911604909117040E944C33892BE9
:1049400039F5E0911404F091150486E0A9E3B3E091
:1049500001900D928A95E1F71092400389E393E06C
:104960000E94B91164E871E0C8010E94AE14609120
:104970001A0470911B04C7010E94AE14B801C7014C
:104980000E940315C7010E94120CC8010E94120C5C
:1049900067E771E080911604909117040E944C33F0
:1049A000892B51F40E948210682F70E080911A04C4
:1049B00090911B040E94D81A65E272E0809116045F
:1049C000909117040E944C33892BE9F481E0809385
:1049D000FD028DEB95E00E94DC0864E871E0C801FF
:1049E0000E94AE1460911A0470911B04C7010E94CA
:1049F000AE14B801C7010E940315C7010E94120C32
:104A0000C8010E94120C6FE272E08091160490912E
:104A100017040E944C33892BE1F566E571E0CE0165
:104A20008E960E94AE14CC24C394D12CB601C8013A
:104A30000E946F19B801CE018E960E942F14C801F2
:104A40000E94120C6AE0CE018E960E9412142FEF83
:104A5000C21AD20A36E0C316D10441F7BE01625D24
:104A60007F4FC8010E94A51460911A0470911B0425
:104A7000C7010E94AE14B801C7010E940315C70107
:104A80000E94120CC8010E94120CCE018E960E9448
:104A9000120C69E372E080911604909117040E9451
:104AA0004C33892B09F05AC080911404909115045D
:104AB0000E9417304C0180911204909113040E94BF
:104AC00017305C0164018A149B040CF047C066E552
:104AD00071E0CE018E960E94AE1436018AE0680E17
:104AE000711CC614D704A9F0B601C8010E946F1941
:104AF000B801CE018E960E942F14C8010E94120C9C
:104B00006AE0CE018E960E9412149FEFC91AD90A4C
:104B1000E8CFBE01625D7F4FC8010E94A51460917D
:104B20001A0470911B04C7010E94AE14B801C7019A
:104B30000E940315C7010E94120CC8010E94120CAA
:104B400060EA7FE080E090E00E94D004EAE0AE1AE4
:104B5000B108CE018E960E94120CB5CF6FE372E0C1
:104B600080911604909117040E944C33892B09F010
:104B700011C166E571E0CE018E960E94AE146CE81C
:104B800070E0CE018E960E94BE13BE016C5C7F4F1A
:104B900080E590E00E94B3104CA85DA84201F7E3C5
:104BA0008F1A910882E390E097FE03C04201881AB1
:104BB000990A0597C9F7181419040CF0E7C025E005
:104BC000421A510866E571E0CE018E960E94571494
:104BD0008CA99DA95C0131E0A31AB1088D5E9A4FA2
:104BE000EDE0E89F3001E99F700C1124A814B9048E
:104BF0000CF4CCC066E571E0C7010E94AE14D12C64
:104C0000C12CC601860D971D0E945D0A682FF6E033
:104C1000CF16D104D1F025E0C216D10409F05EC050
:104C200045E050E0CE0101960E94E818BE016F5F9A
:104C30007F4FC7010E942F14CE0101960E94120CD3
:104C400067E472E0C7010E942514EFEFCE1ADE0A76
:104C5000FDE0CF16D104A9F6B701CE018E960E94D1
:104C60002F14C7010E94120C6AE0CE018E960E949A
:104C70001214A414B50459F5BE01625D7F4FCE0134
:104C800001960E94A51460911A0470911B04C7013B
:104C90000E94AE14BE016F5F7F4FC7010E940315D3
:104CA000C7010E94120CCE0101960E94120C60EA0C
:104CB0007FE080E090E00E94D00466E571E0CE01E4
:104CC0008E960E945714250125E0421A510831E0C2
:104CD000A31AB1088DE0681A710888CF39E0C316AD
:104CE000D10499F449E050E0CE0101960E94E81801
:104CF000BE016F5F7F4FC7010E942F14CE01019646
:104D00000E94120C69E472E09DCF4BE050E08BE012
:104D1000C816D10449F3A6019CE0C916D10439F59F
:104D2000862F90E08230910519F46BE472E08ACF0F
:104D30008330910519F462EA72E084CF81329105E3
:104D400019F46EE472E07ECF8C32910519F461E5BE
:104D500072E078CF8430910519F464E572E072CF87
:104D60004CE050E0069719F467E572E06BCFCE0196
:104D700001960E94E818BE016F5F7F4FC7010E9435
:104D80002F14CE0101960E94120C5FCFCE018E9699
:104D90000E94120C6AE572E080911604909117044B
:104DA0000E944C33892B01F58091120490911304D9
:104DB000C0901404D090150440E0009719F00E94B0
:104DC0001730482F65E4C6010E94890D6C01181642
:104DD00019060CF076C20E942409B60180911A04CB
:104DE00090911B040E94D81A6EE572E0809116041F
:104DF000909117040E944C33892B09F049C040E080
:104E000065E480911404909115040E94890D31E0AD
:104E100020E0181619060CF030E0C32ED22E809137
:104E20001204909113049A838983809110049091C5
:104E300011049C838B8380910E0490910F049E83B8
:104E40008D835801F501819091905F018114910447
:104E500089F068EE73E080E090E00E94D00440E0CA
:104E600065E4C4010E94890D181619061CF4FFEFB1
:104E7000CF1ADF0A2CAD3DAD2A153B0519F70E946C
:104E80002409B60180911A0490911B040E94D81A3B
:104E900063E672E080911604909117040E944C33EF
:104EA000892BA1F480911404909115040E94DD0DCA
:104EB0006C01181619060CF00DC20E942409B601E7
:104EC00080911A0490911B040E94D81A67E672E040
:104ED00080911604909117040E944C33892B99F409
:104EE00060E171E080911404909115040E94E90C36
:104EF000181619060CF0F7C1BC0180911A049091A4
:104F00001B040E94D81A6BE672E0809116049091FF
:104F100017040E944C33892B11F580911404909151
:104F200015040E941730809321040E949111609112
:104F3000140470911504C8010E94AE1460911A0403
:104F400070911B04C7010E94AE14B801C7010E94F2
:104F50000315C7010E94120CC8010E94120C62E7DF
:104F600072E080911604909117040E944C33892BB3
:104F700031F580911404909115040E9417308093AC
:104F800022040E9491116091140470911504CE01C5
:104F900001960E94AE1460911A0470911B04C7011F
:104FA0000E94AE14BE016F5F7F4FC7010E940315C0
:104FB000C7010E94120CCE0101960E94120C69E7F3
:104FC00072E080911604909117040E944C33892B53
:104FD000D1F581E08093350381E090E09A83898365
:104FE000BE016F5F7F4F82E390E00E94E2118091EB
:104FF0001404909115040E9417309093300380930D
:105000002F036FE273E086E390E00E94E2110E94BA
:10501000240961E872E0CE0101960E94AE1460910D
:105020001A0470911B04C7010E94AE14BE016F5F89
:105030007F4FC7010E940315C7010E94120CCE01C9
:1050400001960E94120C64E872E08091160490911F
:1050500017040E944C33892B49F58FE995E00E9493
:10506000D708109235031A821982BE016F5F7F4FF5
:1050700082E390E00E94E2116DE872E0CE010196B9
:105080000E94AE1460911A0470911B04C7010E9423
:10509000AE14BE016F5F7F4FC7010E940315C701A9
:1050A0000E94120CCE0101960E94120C61E972E07E
:1050B00080911604909117040E944C33892B59F467
:1050C00080912503882339F08FE995E00E94D70865
:1050D00081E080931E0367E972E08091160490914D
:1050E00017040E944C33892B51F580911404909140
:1050F00015040E941730909333038093320362E3C8
:1051000073E08EE390E00E94E21164E871E0CE016A
:1051100001960E94AE1460911A0470911B04C7019D
:105120000E94AE14BE016F5F7F4FC7010E9403153E
:10513000C7010E94120CCE0101960E94120C6DE96B
:1051400072E080911604909117040E944C33892BD1
:1051500051F580911404909115040E9417308093AA
:1051600034030E94240964E373E084E390E00E9426
:10517000CA1264E871E0CE0101960E94AE146091FB
:105180001A0470911B04C7010E94AE14BE016F5F28
:105190007F4FC7010E940315C7010E94120CCE0168
:1051A00001960E94120C65EA72E0809116049091BB
:1051B00017040E944C33892B41F58091140490917F
:1051C00015040E94173021E0892B09F420E0209378
:1051D00036030E94240966E373E088E290E00E94AF
:1051E000B21280911204909113040E94173021E0B2
:1051F000892B09F420E02093240364E273E08BE21E
:1052000090E00E94B2120E9411186BEA72E0809145
:105210001604909117040E944C33892B91F460E19D
:1052200071E080911A0490911B040E94E90C909304
:10523000B0038093AF0365E671E083EA94E00E94D7
:10524000990662EB72E080911604909117040E9417
:105250004C33892B31F580911404909115040E94F0
:10526000173090932E0380932D036DE273E08AE450
:1052700090E00E94E21180912D0390912E030E94F4
:105280006E1588E19EE00FB6F894A89580936000B3
:105290000FBE9093600060ED77E080E090E00E94A8
:1052A000D00467EB72E080911604909117040E947D
:1052B0004C33892B09F057CA0E9411180E94240907
:1052C00052CA42E350E068E070E08DEB95E00E9446
:1052D000E10883CD42E350E068E070E08DEB95E0BB
:1052E0000E94E108ECCD6EED72E0C8010E94AE14A0
:1052F00060911A0470911B04C7010E94AE14B8019A
:10530000C7010E940315C7010E94120CC8010E9428
:10531000120CF9CD60911A0470911B04C8010E940F
:10532000AE146091AF037091B003C7010E946F1972
:10533000B801C7010E940315C7010E94120CC801E1
:105340000E94120C10CA0E940E0E813021F1823090
:10535000E9F11092D0051092CF0583EA94E00E9403
:105360002407892B09F041C08091CF059091D00589
:10537000803E9E42D4F56DE070E080E090E00E94B7
:10538000D0048091CF059091D00501969093D005DF
:105390008093CF05E2CF90912503992319F0809354
:1053A0001E03D7CF80913403823048F460911A04F1
:1053B00070911B048EE792E00E944617CACF60915D
:1053C0001A0470911B048BE891E0F6CF80913403AE
:1053D0008230A8F780911001823040F360911A0466
:1053E00070911B0487E891E0E7CF83EA94E00E9484
:1053F0002407892B31F063EA74E0C8010E94C314CA
:105400009ECF66E571E0C8010E94AE1498CF8091EE
:105410001A0490911B040E9417306C014497449722
:1054200008F0A5C080911204909113040E941730D7
:10543000D82E80911404909115040E941730B82E34
:1054400080911604909117040E941730A82E809125
:105450001804909119040E941730C9828A83AB8284
:10546000BC82DD821E82C8010E942F0A8091CE0577
:10547000813591F4C7010E94A909C7010E94F5096D
:10548000AB01BC014054584361097109C8010E9435
:105490002C09C8010E942F0A66E090E080E00E947B
:1054A000751280910103882389F08091FF02909109
:1054B00000032091AD033091AE03820F931F88311A
:1054C00091058CF5909300038093FF028091AD03CA
:1054D0009091AE03181619060CF045C90E942B05D1
:1054E00061327F4B8240910508F43DC96AE771E063
:1054F00083EA94E00E94990660E47FE180E090E016
:105500000E94D0046EE671E083EA94E00E9499065E
:1055100063EA74E0C8010E94C314C8010E94120C1F
:105520000E94A41568CF109200031092FF0261E060
:1055300070E0CE018E960E946F196EEB72E0C8018A
:105540000E94AE14BE01625D7F4FC7010E94A51488
:10555000B801C7010E940315C7010E94120CC801BF
:105560000E94120CCE018E960E94120CAFCF68E8FA
:1055700073E180E090E00E94D0048091FE028F5F92
:105580008093FE02823008F0EEC80E94DD14EBC862
:10559000C81AD90A1C141D0424F08A159B050CF4A2
:1055A00037C980E49FE10E94370542C98091900588
:1055B0000E94E90221E0892B09F420E08091360362
:1055C000821709F431C90E94BD0668EE73E080E0DD
:1055D00090E00E94D0040E94BD0681E080932503E4
:1055E0000E942B0560931F03709320038093210377
:1055F0009093220380913403882321F08FE995E072
:105600000E94DC08198262EC72E0C8010E945F33DC
:10561000CE01C4960E94A9098FA91F928F938CA9CD
:105620001F928F938DA91F928F938EA91F928F9394
:1056300089EF91E09F938F93FF92EF920E94A233A4
:10564000B701C8010E945F331A8E88AD0FB6F89477
:10565000DEBF0FBECDBF8A3080F51F928F9387E0EB
:1056600092E09F938F93FF92EF920E94A2330F904C
:105670000F900F900F900F900F90B701C8010E94EC
:105680005F331A8EB801CE018E960E94AE14CE0101
:105690008E960E94E619CE018E960E94120C809181
:1056A0002303882379F080911A0490911B0464E00D
:1056B0000E94751210922303BBC81F928F9388E03B
:1056C00092E0CFCF90E080E0F2CF84E690E00E94BD
:1056D000370580901F0390902003A0902103B09085
:1056E0002203A0912F03B091300328EE33E00E94F3
:1056F000523160939405709395058093960590932D
:105700009705672B682B692B09F44BC00E942B056A
:105710002B013C01481859086A087B0880909405C1
:1057200090909505A0909605B0909705481459045F
:105730006A047B04B0F160939B0570939C05809391
:105740009D0590939E0510921E0310922503809153
:1057500034038823B1F08FE995E00E94D7080E94B6
:10576000BD0668EE73E080E090E00E94D0040E94E5
:10577000BD0663EA74E0C8010E94C314C8010E9418
:10578000120C1092350381E080932A030E942B05AE
:105790006093260370932703809328039093290333
:1057A00047C880911E038111CECF42C890932B032E
:1057B00043C8108210922C0310922B03D092A9039D
:1057C0003BC88C3309F038C8D0922C0335C822234B
:1057D00009F465C060E473E08CE793E00E947E33D7
:1057E00069EC72E08CE793E00E943E3069EC72E075
:1057F00090E080E00E943E3069EC72E090E080E052
:105800000E943E3069EC72E090E080E00E943E3001
:105810005C0169EC72E090E080E00E943E3069EC4F
:1058200072E090E080E00E943E3069EC72E090E02F
:1058300080E00E943E3069EC72E090E080E00E94DF
:105840003E306C0169EC72E090E080E00E943E30F6
:1058500069EC72E090E080E00E943E3069EC72E01A
:1058600090E080E00E943E3069EC72E090E080E0E1
:105870000E943E309C01F5019081943409F4FFC0F0
:105880000CF087C0913409F4E6C00CF076C0933276
:1058900009F48DC1953209F4FEC11092A90385E186
:1058A0000E94E9029C0191E02115310509F490E084
:1058B0009093AC038091AB039817D1F0232B91F414
:1058C000D090AA03D394D092AA0340ED57E061E0B0
:1058D00070E08DEB95E00E94E108F5E0DF1202C078
:1058E0000E94E21262E370E080E090E00E94D00447
:1058F0008091AC038093AB030E942B054B015C01AC
:1059000080910C0190910D01A0910E01B0910F01B9
:1059100088169906AA06BB0601F54CE251E064E040
:1059200070E08DEB95E00E94E108A091AD03B0918D
:10593000AE0320E437E74BE150E00E945931860E78
:10594000971EA81EB91E80920C0190920D01A09284
:105950000E01B0920F010E94DD1480E090E0892BCF
:1059600011F40C94E7220E943007882311F40C9460
:10597000E3220E9400000C94E322923409F47CC0DC
:10598000933409F08ACF40E061E4C6010E94890D9A
:1059900084CF903509F4FCC074F4953409F473C0D5
:1059A000963409F07ACF60E171E0C6010E94E90CFB
:1059B0000E94C20C72CF943509F4C2C09A3509F422
:1059C00000C2933509F069CF8DEB95E00E94DC08A9
:1059D000CC24C394D12CB601C8010E946F198D81CB
:1059E0009E81892B41F06EED72E089819A810E943F
:1059F0007533892BD1F0B80180E495E00E948B06C5
:105A00006DE280E495E00E9456084091100150E05C
:105A100070E060E02AE080E495E00E943C0C64E5E0
:105A200071E080E495E00E941A0CF5E0CF16D104F5
:105A300021F488E891E00E94290CC8010E94120C10
:105A40002FEFC21AD20A39EEC31633E0D30619F685
:105A500086E891E06EC0C9010E941730482F65E4C6
:105A6000C6010E94890D44E150E061E070E08DEBD9
:105A700095E00E94E10811CF0E94E2120ECFC6010C
:105A80000E94DD0D0ACF8DEB95E00E94DC081FA679
:105A90001EA6BE01625D7F4F80E590E00E94B310BC
:105AA00094EFA92EBB24B3948EA59FA5892B21F436
:105AB00024EF31E03FA72EA78EA59FA59C01215082
:105AC00031093FA72EA78D5E9A4F3DE0389F4001D8
:105AD000399F900C112466E571E0C7010E94AE1455
