:100000000C9467010C948F010C948F010C948F0158
:100010000C948F010C948F010C948F010C948F0120
:100020000C948F010C948F010C9478140C94EA14A6
:100030000C948F010C948F010C948F010C948F0100
:100040000C948F010C948F010C948F010C948F01F0
:100050000C948F010C948F010C948F010C94A822A6
:100060000C948F010C94AB170C9485170C948F0192
:100070000C948F010C948F010C948F010C948F01C0
:100080000C948F010C948F010C948F010C948F01B0
:100090000C94F61A0C948F010C948F010C948F0120
:1000A0000C948F010C948F010C948F01B118B4182B
:1000B000A318A718AD18D518D518D518B818BC1896
:1000C000C018C618CA18D518D018415426570D00A4
:1000D00041542B43545A523D310D0A0041542B4395
:1000E000545A553D310D0A0041542B4950523D316F
:1000F000393230300D0A004154480D0A0041544451
:10010000303B0D0A0041542B4346554E3D310D0AFC
:100110000041542B4346554E3D300D0A00450045E5
:1001200000450041542B434855500D0A0041542BC3
:100130004353510D0A00220D0041542B434D4753A8
:100140003D220041542B43434C4B3F0D0A00080B0A
:100150000002020201000904000001020200000581
:1001600024001001052401010104240206052406CF
:1001700000010705810310004009040100020A0084
:10018000000007050202400000070583024000004E
:100190000403090412010002EF0201404F1B069202
:1001A000000101020301537061726B46756E0053CA
:1001B0007061726B46756E2050726F204D6963726C
:1001C0006F0000000000240027002A002D003000EE
:1001D00000000000250028002B002E003100000048
:1001E00000002300260029002C002F000404040432
:1001F00004030405020202020403020202020606CC
:1002000006060606040402020204040408020110A1
:10021000408040102040804080080204018040203F
:100220001002011080102040402000000002000950
:100230000F0000030401000C00000000000000009B
:10024000000000000000000041542B4347534E0DB6
:100250000A0041542B4347455245503D300D0A009A
:10026000415445300D0A0061742B717572636366E9
:10027000673D22757263706F7274222C22756172F1
:100280007431220D0A0041542B434E4D493D312C0F
:10029000322C302C302C300D0A0041542B434C4969
:1002A000503D310D0A0041542B434D47463D310D21
:1002B0000A0041542B435245473D310D0A001F1C93
:1002C0001F1E1F1E1F1F1E1F1E1FB12B672C112458
:1002D0001FBECFEFDAE0DEBFCDBF26E0A6ECB2E076
:1002E00001C01D92AB30B207E1F712E0A0E0B1E02F
:1002F000E4E2F5E602C005900D92A63CB107D9F7FD
:1003000011E0C6E6D1E004C02197FE010E94742DE1
:10031000C536D107C9F70E94F2220C9485320C949D
:10032000000064E871E080919E0590919F050E9415
:10033000872F892B21F581E40E94170E019761F028
:1003400080912D03882399F081E40E94170E1816DE
:1003500019066CF410922D030E94350D40E061E403
:100360008091A2059091A3050E94ED0E089542E3AD
:1003700050E068E070E080EC94E00E94851F80E02F
:10038000089546E050E063ED72E08091A005909101
:10039000A1050E94B52F21E0892B09F020E0822FD2
:1003A000089564E071E08091A2059091A3050E94F8
:1003B000680E009761F09C0121503109253031050C
:1003C00020F0069724F082E0089581E0089580E00F
:1003D0000895FF920F931F93CF93DF93EC01F62EB6
:1003E00008811981C8010E94EB2CF81621F06F2DAD
:1003F000C8010E94F32CCE01DF91CF911F910F9184
:10040000FF900895EF92FF920F931F93CF93DF9386
:10041000CDB7DEB72C970FB6F894DEBF0FBECDBFB9
:100420008C017B0164EF71E00E94872F892BA1F57D
:100430001091D00264EF71E080E090E00E94CC1C4B
:1004400063E271E086EA93E00E943617809104012E
:10045000823000F588EE93E0189FA001199F500D9F
:1004600011244115510539F061E070E081EB94E011
:100470000E94851F0FC08091B1040E94381C892BF7
:1004800029F481EB94E00E94801F04C081EB94E08A
:100490000E947B1F62E02BC068E571E0C8010E94EA
:1004A000872F892B09F048C08091CD02823008F057
:1004B00043C08091A2040E94381C892BE9F5109159
:1004C000D10264EF71E080E090E00E94CC1C63E216
:1004D00071E086EA93E00E943617809104018D7FD7
:1004E00029F48091CD02882309F441C063E0C7015B
:1004F0000E9445221091CC021123B9F16AE871E003
:10050000CE0107960E9463146091A2057091A30525
:10051000CE0101960E946314BE01695F7F4FCE0138
:1005200001960E944B10CE0101960E945514CE01F7
:1005300007960E94551441C064E571E0C8010E940D
:10054000872F892BC9F564EF71E080E090E00E946D
:10055000CC1C63E271E086EA93E00E94361780913A
:100560000401882329F1833019F111E026C088EEB7
:1005700093E0189FA001199F500D112441155105BA
:1005800039F061E070E082EA94E00E94851FAECF0E
:100590008091A2040E94381C892B29F482EA94E0FD
:1005A0000E94801FA3CF82EA94E00E947B1F9ECF0F
:1005B00081E08093C902D9CF10E0812F2C960FB62D
:1005C000F894DEBF0FBECDBFDF91CF911F910F9189
:1005D000FF90EF900895EF92FF920F931F93CF93A8
:1005E000DF93CDB7DEB76F970FB6F894DEBF0FBEBF
:1005F000CDBF8C017B01161617060CF03FC0609131
:100600009E0570919F0546E050E0CE0101960E9444
:10061000C32FFF92EF928CE392E09F938F937E0122
:100620008EE0E80EF11CFF92EF920E94D22FB701EC
:10063000CE0101960E949A2FBE016F5F7F4FCE01BF
:100640004A960E946314B801CE0144960E94631436
:10065000BE01665E7F4FCE0144960E944B10CE01D4
:1006600044960E945514CE014A960E9455140F904C
:100670000F900F900F900F900F9021C064E071E0E9
:100680000E94680E18161906D4F46DE871E0CE01C8
:100690000E960E946314B801CE0101960E94631465
:1006A000BE01625F7F4FCE0101960E944B10CE01CA
:1006B00001960E945514CE010E960E9455146F9615
:1006C0000FB6F894DEBF0FBECDBFDF91CF911F9163
:1006D0000F91FF90EF9008954F925F926F927F92EB
:1006E0008F929F92AF92BF92CF92DF92EF92FF9242
:1006F0000F931F93CF93DF93CDB7DEB7C756D109C2
:100700000FB6F894DEBF0FBECDBF64E971E08091F3
:100710009E0590919F050E94872F892B19F50E94B5
:10072000350D6AE871E0CE01895B9F4F0E9463142A
:100730006091A2057091A305CE0101960E946314F9
:10074000BE01695B7F4FCE0101960E944B10CE0126
:1007500001960E945514CE01895B9F4F0E9455144B
:100760000E9486216BE971E080919E0590919F0522
:100770000E94872F892B81F5E0919C05F0919D05C2
:1007800086E0A3EDB2E001900D928A95E1F7109218
:10079000DA0283ED92E00E94510F6AE871E0CE0127
:1007A000895B9F4F0E9463146091A2057091A3051D
:1007B000CE0101960E946314BE01695B7F4FCE019A
:1007C00001960E944B10CE0101960E945514CE0155
:1007D000895B9F4F0E94551464E871E080919E05EB
:1007E00090919F050E94872F892B51F40E949101BF
:1007F000682F70E08091A2059091A3050E94EB0202
:1008000063EA71E080919E0590919F050E94872F79
:10081000892B31F581E080932D0380EC94E00E94D8
:10082000801F6AE871E0CE01895B9F4F0E946314CC
:100830006091A2057091A305CE0101960E946314F8
:10084000BE01695B7F4FCE0101960E944B10CE0125
:1008500001960E945514CE01895B9F4F0E9455144A
:100860006DEA71E080919E0590919F050E94872F0F
:10087000892B09F04BC065EB72E0CE0101960E9416
:10088000631401E010E0B801CE01895B9F4F0E9424
:100890002F11BE01695B7F4FCE0101960E947A0F36
:1008A000CE01895B9F4F0E9455146AE0CE010196EC
:1008B0000E94220D0F5F1F4F0630110521F7BE0168
:1008C0006F5F7F4FCE018A5A9F4F0E945A146091EA
:1008D000A2057091A305CE01895B9F4F0E9463140E
:1008E000BE016A5A7F4FCE01895B9F4F0E944B1019
:1008F000CE01895B9F4F0E945514CE018A5A9F4FAB
:100900000E945514CE0101960E94551467EB71E0C8
:1009100080919E0590919F050E94872F892B09F059
:1009200069C080919C0590919D050E946F2C5C018F
:1009300080919A0590919B050E946F2C6C01850116
:10094000AC14BD040CF056C065EB72E0CE0101960C
:100950000E9463147801480129E0820E911C8E14D4
:100960009F04DCF0B701CE01895B9F4F0E942F11DD
:10097000BE01695B7F4FCE0101960E947A0FCE01C6
:10098000895B9F4F0E9455146AE0CE0101960E9438
:10099000220D3FEFE31AF30AE2CFBE016F5F7F4FF4
:1009A000CE018A5A9F4F0E945A146091A2057091FD
:1009B000A305CE01895B9F4F0E946314BE016A5A52
:1009C0007F4FCE01895B9F4F0E944B10CE01895B08
:1009D0009F4F0E945514CE018A5A9F4F0E94551472
:1009E000065F1F4F4AE0C41AD108CE0101960E944B
:1009F0005514A6CF6DEB71E080919E0590919F05F7
:100A00000E94872F892B09F025C165EB72E0CE018A
:100A1000895B9F4F0E9463146CE870E0CE01895B94
:100A20009F4F0E94B613BE01645A7F4F80E590E04D
:100A30000E94F01F6E960EAD1FAD6E97780189E192
:100A4000E81AF108F7FE16C0780194E1E91AF108F6
:100A5000F7FE10C07801EFE0EE1AF108F7FE0AC0C9
:100A60007801FAE0EF1AF108F7FE04C0780125E0FA
:100A7000E21AF1081E141F040CF0E7C0055011091A
:100A800040E050E065EB72E0CE01895B9F4F0E9431
:100A90001D146E968EAD9FAD6E975C0131E0A31A6A
:100AA000B1082DE0289F2001299F500C1124612CB2
:100AB000712C49E0441A4EEB540AAE14BF040CF4F6
:100AC000C4C065EB72E0CE018A5A9F4F0E94631446
:100AD0004201860C971CC12CD12CC601880D991D92
:100AE0000E94AF0D682F86E0C816D10409F45DC0DE
:100AF00095E0C916D10419F445E050E006C0E9E0DC
:100B0000CE16D104D1F449E050E0CE0101960E9406
:100B1000A810BE016F5F7F4FCE018A5A9F4F0E947F
:100B20007A0FCE0101960E94551465EC71E0CE015A
:100B30008A5A9F4F0E94CB1938C0FBE0CF16D104D0
:100B400019F44BE050E0E1CF2CE0C216D104E1F4FF
:100B5000862F90E08230910519F467EC71E0E7CFC1
:100B60008330910519F462E172E0E1CF84309105A0
:100B700019F46AEC71E0DBCF069719F46DEC71E0C3
:100B8000D6CF4CE050E001C0A601CE0101960E94F4
:100B9000A810BE016F5F7F4FCE018A5A9F4F0E94FF
:100BA0007A0FCE0101960E9455143FEFC31AD30A63
:100BB0004DE0C416D10409F090CFBE016A5A7F4FB0
:100BC000CE01895B9F4F0E947A0FCE018A5A9F4FB8
:100BD0000E9455146AE0CE01895B9F4F0E94220D4E
:100BE0000A151B0559F5BE01695B7F4FCE018A5A74
:100BF0009F4F0E945A146091A2057091A305CE01E7
:100C000001960E946314BE016A5A7F4FCE0101967D
:100C10000E944B10CE0101960E945514CE018A5AB3
:100C20009F4F0E94551440E050E065EB72E0CE010A
:100C3000895B9F4F0E941D140550110981E0A81A7D
:100C4000B1089DE0691A710838CFCE01895B9F4FCA
:100C50000E94551460ED71E080919E0590919F0572
:100C60000E94872F892B49F580919A0590919B05C9
:100C700000919C0510919D05009711F440E003C080
:100C80000E946F2C482F65E4C8010E94ED0E8C0174
:100C9000181619061CF40E94350D08C042E350E0F6
:100CA00068E070E080EC94E00E94851FB8018091BC
:100CB000A2059091A3050E94EB0264ED71E0809182
:100CC0009E0590919F050E94872F892B09F064C093
:100CD00040E065E480919C0590919D050E94ED0E99
:100CE00031E020E0181619060CF030E0032F122F27
:100CF00080919A0590919B05892B99F068EE73E09D
:100D000080E090E00E94CC1C40E065E480919A0570
:100D100090919B050E94ED0E1816190614F40F5FB2
:100D20001F4F8091980590919905892B99F068EE55
:100D300073E080E090E00E94CC1C40E065E480918C
:100D40009805909199050E94ED0E1816190614F455
:100D50000F5F1F4F8091960590919705892B99F011
:100D600068EE73E080E090E00E94CC1C40E065E417
:100D700080919605909197050E94ED0E1816190620
:100D800014F40F5F1F4F0E94350DB8018091A2052A
:100D90009091A3050E94EB0269ED71E080919E05A0
:100DA00090919F050E94872F892BE1F480919C05EB
:100DB00090919D050E949A198C01181619061CF431
:100DC0000E94350D08C042E350E068E070E080EC1E
:100DD00094E00E94851FB8018091A2059091A3051F
:100DE0000E94EB026DED71E080919E0590919F0550
:100DF0000E94872F892B79F443E063E580919C055D
:100E000090919D050E94ED0EBC018091A2059091EC
:100E1000A3050E94EB0261EE71E080919E05909126
:100E20009F050E94872F892B79F580919C059091D1
:100E30009D050E946F2C8093D00260ED72E08AE0E5
:100E400090E00E94C91F60919C0570919D05CE01A4
:100E5000895B9F4F0E9463146091A2057091A30566
:100E6000CE0101960E946314BE01695B7F4FCE01E3
:100E700001960E944B10CE0101960E945514CE019E
:100E8000895B9F4F0E94551468EE71E080919E052A
:100E900090919F050E94872F892B79F580919C0561
:100EA00090919D050E946F2C8093D10260ED72E0BD
:100EB0008AE090E00E94C91F60919C0570919D0599
:100EC000CE01895B9F4F0E9463146091A2057091CF
:100ED000A305CE0101960E946314BE01695B7F4F9A
:100EE000CE0101960E944B10CE0101960E9455142E
:100EF000CE01895B9F4F0E9455146FEE71E0809187
:100F00009E0590919F050E94872F892B09F03FC075
:100F100081E08093CE0281E090E09A838983BE01D4
:100F20006F5F7F4F82E390E00E94C91F80919C0514
:100F300090919D050E946F2C9093CB028093CA02E2
:100F40006AEC72E086E390E00E94C91F0E94350DB2
:100F500067EF71E0CE01895B9F4F0E94631460913F
:100F6000A2057091A305CE0101960E946314BE01F3
:100F7000695B7F4FCE0101960E944B10CE01019616
:100F80000E945514CE01895B9F4F0E9455146AEF51
:100F900071E080919E0590919F050E94872F892B7B
:100FA00071F582EA94E00E947B1F1092CE021A82B1
:100FB0001982BE016F5F7F4F82E390E00E94C91FDC
:100FC00063E072E0CE01895B9F4F0E9463146091E1
:100FD000A2057091A305CE0101960E946314BE0183
:100FE000695B7F4FCE0101960E944B10CE010196A6
:100FF0000E945514CE01895B9F4F0E94551467E0F3
:1010000072E080919E0590919F050E94872F892B09
:1010100089F580919C0590919D050E946F2C21E09F
:10102000892B09F420E02093CC026CEC72E08EE373
:1010300090E00E94FE206AE871E0CE01895B9F4F3C
:101040000E9463146091A2057091A305CE010196E0
:101050000E946314BE01695B7F4FCE0101960E941E
:101060004B10CE0101960E945514CE01895B9F4F13
:101070000E9455146DE072E080919E0590919F054D
:101080000E94872F892B79F580919C0590919D0571
:101090000E946F2C8093CD020E94350D6DEC72E0A2
:1010A00084E390E00E94FE206AE871E0CE01895B53
:1010B0009F4F0E9463146091A2057091A305CE0119
:1010C00001960E946314BE01695B7F4FCE010196B9
:1010D0000E944B10CE0101960E945514CE01895BEF
:1010E0009F4F0E94551465E172E080919E0590919A
:1010F0009F050E94872F892BA9F580919C059091CF
:101100009D050E946F2C21E0892B09F420E020939B
:10111000CF020E94350D6FEC72E088E290E00E94F1
:10112000FE2060919C0570919D05CE01895B9F4FCB
:101130000E9463146091A2057091A305CE010196EF
:101140000E946314BE01695B7F4FCE0101960E942D
:101150004B10CE0101960E945514CE01895B9F4F22
:101160000E9455146BE172E080919E0590919F055D
:101170000E94872F892B91F464E071E08091A20591
:101180009091A3050E94680E9093DD028093DC028B
:101190006DE271E086EA93E00E94361762E272E047
:1011A00080919E0590919F050E94872F892BA1F524
:1011B00061E08EE290E00E94F32C6AE871E0CE01DB
:1011C000895B9F4F0E9463146091A2057091A305F3
:1011D000CE0101960E946314BE01695B7F4FCE0170
:1011E00001960E944B10CE0101960E945514CE012B
:1011F000895B9F4F0E9455149EE088E10FB6F894DA
:10120000A895809360000FBE9093600060ED77E03A
:1012100080E090E00E94CC1C67E272E080919E0525
:1012200090919F050E94872F892B79F464E071E0EB
:1012300080919C0590919D050E94680EBC01809153
:10124000A2059091A3050E94EB026BE272E08091EF
:101250009E0590919F050E94872F892B11F40E9473
:1012600027106CE571E080919E0590919F050E948A
:10127000872F892B89F580919C0590919D050E946F
:101280006F2C21E0892B09F420E02093C80268EC40
:1012900072E08CE490E00E94FE206AE871E0CE01EA
:1012A000895B9F4F0E9463146091A2057091A30512
:1012B000CE0101960E946314BE01695B7F4FCE018F
:1012C00001960E944B10CE0101960E945514CE014A
:1012D000895B9F4F0E9455146FE272E080919E05DA
:1012E00090919F050E94872F892B81F480919C0506
:1012F00090919D050E946F2C9093DB028093DA02FF
:101300006AED72E08EE490E00E94C91F63E372E030
:1013100080919E0590919F050E94872F892B09F04F
:1013200031C119828091D0021F928F938AE392E09B
:101330009F938F938E01095B1F4F1F930F930E9402
:10134000D22FB801CE0101960E949A2FF801108287
:101350008091D1021F928F9380E492E09F938F93AC
:101360001F930F930E94D22FB801CE0101960E94C5
:101370009A2FF80110828091CC021F928F9387E4FC
:1013800092E09F938F931F930F930E94D22FB801E7
:10139000CE0101960E949A2FF80110828091C80216
:1013A0001F928F938FE4E82E82E0F82EFF92EF9247
:1013B0001F930F930E94D22FB801CE0101960E9475
:1013C0009A2FF80110828091DB028F938091DA02CC
:1013D0008F93FF92EF921F930F930E94D22FB80129
:1013E000CE0101960E949A2FF80110828091CE02C0
:1013F0001F928F9383E592E09F938F931F930F9398
:101400000E94D22F0FB6F894DEBF0FBECDBFB80139
:10141000CE0101960E949A2FF80110828091CD0290
:101420001F928F938DE592E09F938F931F930F935D
:101430000E94D22FB801CE0101960E949A2FF80186
:1014400010828091CB028F938091CA028F9382E6A3
:1014500092E09F938F931F930F930E94D22FB80116
:10146000CE0101960E949A2FF80110828091F90511
:101470001F928F9387E692E09F938F931F930F9312
:101480000E94D22FB801CE0101960E949A2FF80136
:101490001082CE018A5A9F4F0E94DE206A968FAD3D
:1014A0006A971F928F9367968FAD67971F928F935E
:1014B00068968FAD68971F928F9369968FAD6997E5
:1014C0001F928F938FE692E09F938F931F930F93BA
:1014D0000E94D22FB801CE0101960E949A2FF801E6
:1014E00010826B968FAD6B970FB6F894DEBF0FBE70
:1014F000CDBF8A3028F41F928F938DE792E004C00D
:101500001F928F9380E592E09F938F931F930F9389
:101510000E94D22F0F900F900F900F900F900F906E
:10152000B801CE0101960E949A2FF801108261E85D
:1015300072E0CE0101960E949A2FBE016F5F7F4F2D
:10154000CE018E599F4F0E9463146091A205709145
:10155000A305CE01845A9F4F0E946314BE016E59A9
:101560007F4FCE01845A9F4F0E944B10CE01845A68
:101570009F4F0E945514CE018E599F4F0E945514C3
:101580000E94350D6AE872E080919E0590919F055A
:101590000E94872F892B89F580919C0590919D054C
:1015A0000E946F2C21E0892B09F420E02093F9059B
:1015B00069EF75E088EC90E00E94FE206AE871E037
:1015C000CE01895B9F4F0E9463146091A2057091C8
:1015D000A305CE0101960E946314BE01695B7F4F93
:1015E000CE0101960E944B10CE0101960E94551427
:1015F000CE01895B9F4F0E9455146EE872E0809186
:101600009E0590919F050E94872F892BC9F4809198
:101610009C0590919D050E946F2C2091FC053091B6
:10162000FD05280F391F253F314054F49093FB05E9
:101630008093FA056AEF75E08EE690E00E94C91F7C
:1016400064E972E080919E0590919F050E94872F2A
:10165000892B09F050C0198260919C0570919D05FD
:1016600044E150E0CE0101960E94C32F9E012F5FFE
:101670003F4F790102ED10E0F70161917F0129965A
:101680001FAF0EAF2997CE01895B9F4F0E94E901E2
:101690000F5F1F4F063E110579F780919A059091D3
:1016A0009B050E946F2C682F8DEC90E00E94F32C1C
:1016B000BE016F5F7F4FCE018A5A9F4F0E94631415
:1016C0006091A2057091A305CE01895B9F4F0E9496
:1016D0006314BE016A5A7F4FCE01895B9F4F0E94FF
:1016E0004B10CE01895B9F4F0E945514CE018A5A40
:1016F0009F4F0E94551467E972E080919E0590917A
:101700009F050E94872F892B11F581E08093F805B2
:101710006AE871E0CE01895B9F4F0E94631460917B
:10172000A2057091A305CE0101960E946314BE012B
:10173000695B7F4FCE0101960E944B10CE0101964E
:101740000E945514CE01895B9F4F0E9455146DE98C
:1017500072E080919E0590919F050E94872F892BB2
:1017600009F052C0A4961FAE1EAEA4976E961FAE8F
:101770001EAE6E97BE01645A7F4FCE018E599F4FA9
:101780000E94671919826E968FAD6E978F936D9632
:101790008FAD6D978F93A4968FADA4978F93A396DB
:1017A0008FADA3978F9384EA92E09F938F938E01DE
:1017B0000F5F1F4F1F930F930E94D22FB801CE01CE
:1017C0008A5A9F4F0E9463146091A2057091A305ED
:1017D000CE01895B9F4F0E946314BE016A5A7F4FFE
:1017E000CE01895B9F4F0E944B10CE01895B9F4FBA
:1017F0000E945514CE018A5A9F4F0E9455140FB66D
:10180000F894DEBF0FBECDBF6EEA72E080919E05F8
:1018100090919F050E94872F892B71F5CE0101962B
:101820000E94371EBE016F5F7F4F8BE795E00E94DD
:101830007C13CE0101960E9455146BE775E0CE0132
:10184000895B9F4F0E945A146091A2057091A30575
:10185000CE0101960E946314BE01695B7F4FCE01E9
:1018600001960E944B10CE0101960E945514CE01A4
:10187000895B9F4F0E945514C959DF4F0FB6F894EA
:10188000DEBF0FBECDBFDF91CF911F910F91FF90B3
:10189000EF90DF90CF90BF90AF909F908F907F9010
:1018A0006F905F904F900895282F309199033132B7
:1018B00008F04AC0809176038111FCCF9091810598
:1018C00042E040937603209375032FEF2093740337
:1018D0001092730330937203E9E7F3E0A2E5B3E0FB
:1018E00020E0321721F041914D932F5FFACF1092F3
:1018F000510320915103990F922B90935103909192
:101900005003913061F410925003909151039093E1
:10191000BB009091BC0093FDF8CF95EC01C095EE13
:101920009093BC00909176039230E1F39091740310
:101930009F3F79F080917403803241F0809174036D
:10194000803331F084E005C081E003C082E001C053
:1019500083E0109278031092990310927703089510
:10196000682F8AE993E00C946A180F931F930E94E2
:10197000061D6093AE037093AF038093B003909302
:10198000B10386EA93E00E94771297FF1FC00E947E
:10199000061D0091AE031091AF032091B00330916A
:1019A000B103DC01CB01801B910BA20BB30B0091A7
:1019B000AA031091AB032091AC033091AD038017C3
:1019C0009107A207B307E8F28FEF9FEF1F910F91E6
:1019D0000895EF92FF920F931F93CF93DF93CDB7AC
:1019E000DEB729970FB6F894DEBF0FBECDBF8C01CE
:1019F000862FF801118210821382128215821482BE
:101A00004AE09E012F5F3F4F7901B90190E00E94AB
:101A1000C12CF70101900020E9F73197AF014E1971
:101A20005F09B701C8010E941D1429960FB6F894EA
:101A3000DEBF0FBECDBFDF91CF911F910F91FF9001
:101A4000EF900895CF93DF9300D0CDB7DEB76983D1
:101A50001A8241E050E0BE016F5F7F4F0E94DD13AC
:101A60000F900F90DF91CF91089548EC50E064E023
:101A700070E080EC94E00C94851F1F93CF93DF936C
:101A8000EC01162F81E08093770380E58093810538
:101A900010927803109299038D2F90E00E94B00C61
:101AA000CE0199270E94B00C612F8AE993E00E9431
:101AB0006A1881E00E94540C64E170E080E090E0DC
:101AC000DF91CF911F910C94CC1CCF92DF92EF92BB
:101AD000FF920F931F93CF93DF938B01009729F011
:101AE0007C0182E0C82ED12C1CC0C0E0D0E060E0B8
:101AF000CE01800F911F0E943D0D2196C630D10569
:101B0000B1F724C0CE010E942A2E82E0E80EF11C1B
:101B100082E0C80ED11C0F5F1F4F8EE0C816D104A3
:101B2000A9F082E090E00E94922DEC011882A601BB
:101B3000B7010E947E2F1A82CE010E946F2C682F5F
:101B4000C8010E943D0D2097E9F6DFCFDF91CF91CC
:101B50001F910F91FF90EF90DF90CF900895CF935A
:101B6000DF93EC0181E08093770380E5809381052A
:101B700010927803109299038D2F90E00E94B00C80
:101B8000CE0199270E94B00C81E00E94540C8091F4
:101B900076038111FCCF81E08093760380937503F7
:101BA0009FEF9093740310927303109272038093CB
:101BB000510380915103806A8093510380915003B7
:101BC000813061F410925003809151038093BB00E7
:101BD0008091BC0083FDF8CF85EC01C085EE809339
:101BE000BC00809176038130E1F380917303811111
:101BF00003C09091730301C091E0A2E5B3E0E0E37C
:101C0000F3E080E0891721F02D9121938F5FFACFC7
:101C100010922F0380932E03882329F08AE993E002
:101C20000E94211801C08FEFDF91CF910895CF92CC
:101C3000DF92EF92FF920F931F93CF93DF93E09089
:101C4000CF04F090D004853441F0833549F08134DD
:101C500069F485E0E82EF12C09C0C6E0D0E008C0A8
:101C6000E701219685E0E80EF11C02C0C1E0D0E05A
:101C7000CE01019727E0289F8001299F100D112494
:101C8000EC16FD06D4F0680187E0C80ED11C0C15D7
:101C90001D051CF021968601F3CFC8010E94AF0DEF
:101CA0008111F8CFC80101968C159D059CF70E9403
:101CB000AF0D8111EFCFCE0102C080E090E0DF9147
:101CC000CF911F910F91FF90EF90DF90CF900895EB
:101CD0002F923F924F925F926F927F928F929F923C
:101CE000AF92BF92CF92DF92EF92FF920F931F932A
:101CF000CF93DF93482E392E3B01C12CD12CC1E06C
:101D0000D0E08091CF049091D00405968C179D0768
:101D10000CF44EC0E42CF32C560100E010E0502EE1
:101D200082E090E00E94922D4C010F5F1F4FA801AE
:101D3000440F551FB701C4010E947E2FF401128287
:101D4000C5010E94AF0D282EC4010E946F2C222DC8
:101D500030E02817390789F48114910419F0C4017F
:101D60000E942A2E502EF2E0EF0EF11C8FEFA81ADF
:101D7000B80A0730110599F606C08114910419F0CC
:101D8000C4010E942A2EE7E0CE0ED11CF5E0F51525
:101D900068F427E02C9FC0012D9F900D112401971E
:101DA0000E94AF0DF3018083CE0104C02196A9CF1C
:101DB00080E090E0DF91CF911F910F91FF90EF9025
:101DC000DF90CF90BF90AF909F908F907F906F905B
:101DD0005F904F903F902F900895CF92DF92EF92B7
:101DE000FF920F931F93CF93DF931F92CDB7DEB770
:101DF0004983FC0101900020E9F73197E81BF90BBA
:101E0000EB30F10518F480E090E030C0DC01E80F21
:101E1000F91F2D91022E000C330B205331092A306B
:101E2000310588F7AE17BF07A1F7F62E8C01BE016A
:101E30006F5F7F4F0E94680E892B29F78F2D0E94BC
:101E4000170E7C0118161906F4F6019727E0289F53
:101E50006001299FD00C1124B601C8010E94650DB4
:101E60006981C60106960E943D0DC7010F90DF9162
:101E7000CF911F910F91FF90EF90DF90CF90089539
:101E8000FC0124813581232B49F062E871E08081D7
:101E900091810E94A52F21E0892B09F020E0822F5B
:101EA0000895CF92DF92EF92FF920F931F93CF93FB
:101EB000DF9300D0CDB7DEB76C017C0100E010E00D
:101EC000F70161917F011A830983CE0101960E9477
:101ED000E9010F5F1F4F0730110591F7C6010F9001
:101EE0000F90DF91CF911F910F91FF90EF90DF90B6
:101EF000CF900895FB0144815581608171810C94DC
:101F0000DD13CF93DF93BC0183E494E00E94361786
:101F1000EC0183E494E00E946F178C0F9D1FDF910A
:101F2000CF9108958F929F92AF92BF920F931F937C
:101F3000CF93DF93CDB7DEB7A1970FB6F894DEBF8E
:101F40000FBECDBF19A2423008F44AE08E010F5DEA
:101F50001F4F842E912CA12CB12CA50194010E941D
:101F6000522DE62FB901CA0101501109EA3014F4CB
:101F7000E05D01C0E95CD801EC93232B242B252BD9
:101F800061F7B80183E494E00E945A17A1960FB656
:101F9000F894DEBF0FBECDBFDF91CF911F910F919F
:101FA000BF90AF909F908F900895CF92DF92EF9265
:101FB000FF92CF93DF936C01990FEE08FF08F7FEB5
:101FC00019C06DE283E494E00E94671EEC0166276D
:101FD0007727CB016C197D098E099F094AE00E9481
:101FE000920F8C0F9D1FDF91CF91FF90EF90DF90AC
:101FF000CF9008954AE0C701B601DF91CF91FF90DD
:10200000EF90DF90CF900C94920FCF93DF930E94CC
:10201000D50FEC0183E494E00E946F178C0F9D1F95
:10202000DF91CF910895CF93DF93EC0165EB72E0E0
:102030000E9463140E94B50C97FD05C0682FCE0165
:102040000E94220DF7CFCE01DF91CF910895CF935B
:10205000DF9300D000D000D0CDB7DEB7CE0101961F
:102060000E941310CE0101960E94551464E670E0A0
:1020700080E090E00E94CC1C63E471E086EA93E08B
:102080000E94361726960FB6F894DEBF0FBECDBF5E
:10209000DF91CF910895EF92FF920F931F93CF930B
:1020A000DF9300D000D000D0CDB7DEB77C018B012C
:1020B000CE0101960E941310CE0101960E94551484
:1020C00064E670E080E090E00E94CC1C69E371E07F
:1020D00086EA93E00E943617B70186EA93E00E94F1
:1020E000281766E371E086EA93E00E94361764E6FB
:1020F00070E080E090E00E94CC1CB80186EA93E09A
:102100000E94731764E670E080E090E00E94CC1CAF
:102110006AE186EA93E00E94D0126CED75E080E0FF
:1021200090E00E94CC1CCE0101960E941310CE01BB
:1021300001960E94551426960FB6F894DEBF0FBE86
:10214000CDBFDF91CF911F910F91FF90EF90089538
:10215000CF92DF92FF920F931F93CF93DF93CDB770
:10216000DEB762970FB6F894DEBF0FBECDBF8C010D
:10217000F62E6A0165EB72E0CE010D960E946314A3
:1021800089E06F2D8F15B0F4CE0101960E94E90C05
:10219000BE016F5F7F4FCE010D960E947C13BE0182
:1021A000635F7F4FC8010E945A14CE0101960E94BE
:1021B000551442C0CE010196E5E0CE16D10451F48B
:1021C0000E94E90CBE016F5F7F4FCE010D960E9409
:1021D0007C1321C00E94E90C62E871E0CE010796F1
:1021E0000E9463144D815E8169817A81CE010796D8
:1021F0000E94DD13811104C0CE0107960E940B14CA
:10220000BE01695F7F4FCE010D960E943E14CE0144
:1022100007960E945514CE0101960E945514F801AC
:10222000118210821382128215821482BE01635FB2
:102230007F4FC8010E947C13CE010D960E94551459
:10224000C80162960FB6F894DEBF0FBECDBFDF9116
:10225000CF911F910F91FF90DF90CF900895BF9283
:10226000CF92DF92EF92FF920F931F93CF93DF9362
:10227000CDB7DEB72C970FB6F894DEBF0FBECDBF3B
:102280008C016B0165EB72E0CE0107960E9463142E
:1022900087E08C9D70018D9DF00C1124C701019782
:1022A0000E94AF0D80930401670187E0C81AD1082E
:1022B000B12CE12CF12CC6018E0D9F1D0E94AF0D9B
:1022C000811101C0B39493E09B1530F462E871E092
:1022D000C8010E94631425C0A701682FCE01019692
:1022E0000E94A810BE016F5F7F4FCE0107960E942B
:1022F0007A0FCE0101960E945514EFEFEE1AFE0AF6
:10230000F6E0EF16F104B9F6F8011182108213829B
:10231000128215821482BE01695F7F4FC8010E943C
:102320007C13CE0107960E945514C8012C960FB657
:10233000F894DEBF0FBECDBFDF91CF911F910F91FB
:10234000FF90EF90DF90CF90BF9008950895409157
:1023500085055091860520918305309184054217AB
:102360005307B4F49091E8009570E1F39091E80080
:1023700092FD19C08093F1008091850590918605AA
:1023800001968F739927892B19F48EEF8093E800BB
:10239000809185059091860501969093860580939E
:1023A000850581E0089580E00895DF92EF92FF9225
:1023B0000F931F93CF93DF93D82EF92EE42E062F81
:1023C00010E0C8010196880F0E94A71183E00E94C7
:1023D000A711CD2DDF2D0C0F1D1FC017D10789F0C0
:1023E000E7FE03C0FE01849101C088810E94A7110D
:1023F000F82E80E00E94A7118F2121968111EDCF48
:1024000001C081E0DF91CF911F910F91FF90EF907C
:10241000DF900895DF92EF92FF920F931F93CF9377
:10242000DF93D82E8A017B01E40EF51EEB01CE1559
:10243000DF0571F0D7FE03C0FE01849101C08881E1
:102440000E94A71121968111F2CF8FEF9FEF01C05B
:10245000C801DF91CF911F910F91FF90EF90DF9016
:102460000895615030F02091F100FC012083019625
:10247000F8CF289884E6809394050895CF92DF9250
:10248000EF92FF920F931F93CF93DF936C017A012A
:102490008B01C0E0D0E0CE15DF0581F0D8016D9151
:1024A0008D01D601ED91FC910190F081E02DC601E6
:1024B0000995892B11F02196EECF7E01C701DF919E
:1024C000CF911F910F91FF90EF90DF90CF900895E3
:1024D000FC01538D448D252F30E0842F90E0821B2A
:1024E000930B541710F0CF96089501970895FC01AF
:1024F000918D828D981761F0828DDF01A80FB11D3B
:102500005D968C91928D9F5F9F73928F90E008955E
:102510008FEF9FEF0895FC01918D828D981731F018
:10252000828DE80FF11D858D90E008958FEF9FEF6C
:102530000895FC01918D228D892F90E0805C9F4F42
:10254000821B91098F739927089586EA93E00E9470
:10255000991221E0892B09F420E0822F0895FC01D3
:10256000848DDF01A80FB11DA35ABF4F2C91848D1C
:1025700090E001968F739927848FA689B7892C9351
:10258000A089B1898C9182748C93938D848D9813DA
:1025900006C00288F389E02D80818F7D80830895B5
:1025A000EF92FF920F931F93CF93DF93EC0181E0A3
:1025B000888F9B8D8C8D981305C0E889F98980815F
:1025C00085FD26C0F62E0B8D10E00F5F1F4F0F7399
:1025D0001127E02E8C8DE8120CC00FB607FCFACF45
:1025E000E889F989808185FFF5CFCE010E94AF127D
:1025F000F1CF8B8DFE01E80FF11DE35AFF4FF08202
:102600009FB7F8940B8FEA89FB898081806209C0AB
:102610009FB7F894EE89FF896083E889F989808102
:10262000827480839FBF81E090E0DF91CF911F9102
:102630000F91FF90EF900895CF93DF93EC01888D79
:102640008823C9F0EA89FB89808185FD05C0A889B6
:10265000B9898C9186FD0FC00FB607FCF5CF80813C
:1026600085FFF2CFA889B9898C9185FFEDCFCE0186
:102670000E94AF12E7CFDF91CF91089580E090E004
:10268000892B29F00E94A51281110C940000089555
:102690000E94792F0F931F93CF93DF931F92CDB793
:1026A000DEB782E0898342E450E06EE471E080E8C6
:1026B0000E940A120E94241CDC0112960D911C91AA
:1026C00013970115110589F0D801ED91FC91028055
:1026D000F381E02DBE016F5F7F4FC801099597FD23
:1026E00004C0F80100851185ECCF89810F90DF913E
:1026F000CF911F910F9108950F931F93CF93DF9365
:102700008C01EB01FC0180819181009739F0688197
:10271000798161157105A1F40E942A2E8881998121
:10272000F801918380838A819B81938382838C814A
:102730009D8195838483198218821B821A820FC01F
:10274000F801428153812C813D814217530720F3C8
:102750000E94AE2F8C819D81F801958384831D8218
:102760001C82DF91CF911F910F9108950F931F93BA
:10277000CF93DF93EC0188819981009729F02A811A
:102780003B812617370788F48B016F5F7F4F0E94CC
:10279000B32E009761F0998388831B830A832C8171
:1027A0003D81232B11F4FC01108281E001C080E007
:1027B000DF91CF911F910F910895EF92FF920F93A8
:1027C0001F93CF93DF936115710511F480E01CC056
:1027D00041155105C1F07B01EC018C819D818A017D
:1027E000080F191FB801CE010E94B613882371F398
:1027F000288139818C819D81B701820F931F0E94AE
:10280000AE2F1D830C8381E0DF91CF911F910F913B
:10281000FF90EF900895CF93DF93EC018881998129
:10282000009711F00E942A2E198218821D821C82A4
:102830001B821A82DF91CF910895EF92FF920F933E
:102840001F93CF93DF93EC017B018A01BA010E94B1
:10285000B613811104C0CE010E940B1407C01D8362
:102860000C83B701888199810E94AE2FCE01DF9140
:10287000CF911F910F91FF90EF900895CF93DF9329
:10288000EC01FB018617970761F06081718161158A
:10289000710529F0448155810E941D1402C00E94D7
:1028A0000B14CE01DF91CF910895FC0180819181BD
:1028B0000C942A2EFC01118210821382128215823E
:1028C00014820C943E14FC01118210821382128235
:1028D000158214826115710551F0FB0101900020F1
:1028E000E9F73197AF01461B570B0C941D1408955F
:1028F0001F920F920FB60F9211248F939F93809186
:10290000E1009091E100937F9093E10083FF0FC07D
:102910001092E90091E09093EB001092EC0092E3AA
:102920009093ED001092950598E09093F00082FF4F
:1029300020C093E09093E9009091F200992319F060
:102940009AE39093E80090918205992339F0909151
:102950008205915090938205992389F19091940575
:10296000992339F09091940591509093940599236F
:1029700041F184FF10C08091E2008E7E81608093DF
:10298000E2008091E1008F7E8093E1008091C60299
:102990008E7E806111C080FF16C08091E2008E7E25
:1029A00080618093E2008091E1008E7E8093E1005F
:1029B0008091C6028E7E81608093C60204C05D9ABB
:1029C000CDCF289AD6CF9F918F910F900FBE0F90A9
:1029D0001F9018951F920F920FB60F921124CF924D
:1029E000DF92EF92FF920F931F932F933F934F939A
:1029F0005F936F937F938F939F93AF93BF93EF9367
:102A0000FF93CF93DF93CDB7DEB76C97DEBFCDBF1B
:102A10001092E9008091E80083FFFBC168E0CE01DD
:102A200045960E94311282EF8093E8008D8987FFDE
:102A300005C09091E80090FFFCCF03C09EEF9093FB
:102A4000E800982F907609F0C6C09E894F89588D6E
:102A50002F89F88C91110CC0803829F48091C7021D
:102A60008093F10002C01092F1001092F10045C174
:102A7000913051F4811141C14130510509F03DC1FE
:102A80008091C7028D7F0BC0933061F4811135C1F5
:102A90004130510509F031C18091C70282608093B5
:102AA000C7022BC1953049F48091E80080FFFCCF2C
:102AB000822F80688093E30020C1963009F05EC0C9
:102AC0000B8D1C8D22E01092E90010928605109269
:102AD0008505F21232C010928405109283050E947F
:102AE0004A1399E0BE016F5F7F4FDB01E92F1D9212
:102AF000EA95E9F79983FA8291E09E8390EA9887B4
:102B00009AEF99872091850530918605275F3F4F81
:102B10003C832B838D831092E900109286051092DE
:102B20008505109384050093830549E050E080E01B
:102B30000E940A120E944A13E0C010938405009379
:102B400083050E94241CDC0112960D911C911397A1
:102B50000115110509F4BBC0D801ED91FC91048069
:102B6000F581E02DBE016B5E7F4FC801099500978E
:102B700009F0C7C0F80100851185EACF973009F444
:102B800045C1983021F481E08093F100B6C09930BE
:102B900009F0B3C0837009F039C1EEE4F1E081E0DF
:102BA00031E096E32081211109C08EE78093EA008D
:102BB0001092EA008F89809395059FC08093E90069
:102BC0003093EB0021912093EC009093ED008F5F08
:102BD000873041F7EACF8B8D9C8D1092E9001092DF
:102BE0008605109285059093840580938305898DD1
:102BF000811153C08E899D89913A49F4813209F03F
:102C000005C147E050E069E071E080E0BBC091326F
:102C100009F0FCC0833269F48F89988DA0E0B0E0A0
:102C20008093050190930601A0930701B0930801DA
:102C300064C0803269F48091E80082FFFCCF67E0D5
:102C400089E091E00E9431128BEF8093E80055C03B
:102C5000823209F052C08F8980931001EEEFFFE7B6
:102C6000859194918B3F9C4D19F0E0E0F8E002C013
:102C7000EEEFFAE08091090190910A01A0910B0119
:102C8000B0910C01803B9440A105B10509F09EC0B4
:102C90008091100180FF79C099C00E94241CFC0122
:102CA000028113810115110509F4B0C0D801ED911D
:102CB000FC910190F081E02DBE016B5E7F4FC80159
:102CC000099581111AC0F80100851185EBCFF1E05B
:102CD000FF1609F44EC0F3E0FF1298C08F898823D5
:102CE00009F44AC0823089F440E862E18FEA91E059
:102CF0000E94D511882309F489C08EEF8093E800E3
:102D000088C018161906CCF381C0813029F440E838
:102D100068E086EA91E0ECCF833009F077C00E944A
:102D2000241CDC011296ED90FC9013978E010F5F2E
:102D30001F4F6801E114F10479F0D701ED91FC9186
:102D40000680F781E02DB801C7010995080F111D14
:102D5000F701E084F184EECFD8011C92F6010190D6
:102D60000020E9F73197BF016C197D0940E0C601E9
:102D7000BFCF64E971E002C060E971E0FB014491FA
:102D800050E080E80E940A12B8CFEE3F2AE0F20736
:102D900051F0808191818737A7E79A0721F09093BE
:102DA000FF0A8093FE0A87E797E7918380838091EB
:102DB0006000809387059BE088E10FB6F894A895A2
:102DC000809360000FBE9093600097CF80819181C7
:102DD0008737974709F091CFA89580916000886167
:102DE000809360008091870580936000EE3FBAE099
:102DF000FB0739F08091FE0A9091FF0A918380834E
:102E00007CCF1092FF0A1092FE0A77CF81E2809366
:102E1000EB006C960FB6F894DEBF0FBECDBFDF910E
:102E2000CF91FF91EF91BF91AF919F918F917F9142
:102E30006F915F914F913F912F911F910F91FF9053
:102E4000EF90DF90CF900F900FBE0F901F901895CE
:102E5000DB0114964D915C9115976D917C91DC018D
:102E6000ED91FC910280F381E02D0994EF92FF92A5
:102E70000F931F93CF93DF938C017B01C0E0D0E0D1
:102E8000F701EC0FFD1F6491662361F0D801ED910D
:102E9000FC910190F081E02DC8010995892B11F07A
:102EA0002196EECFCE01DF91CF911F910F91FF9030
:102EB000EF9008956115710579F0FB0101900020F4
:102EC000E9F73197AF01461B570BDC01ED91FC91FF
:102ED0000280F381E02D099480E090E0089563EB97
:102EE00072E00C945A170F931F93CF93DF93EC016A
:102EF0000E9428178C01CE010E946F17800F911F2E
:102F0000DF91CF911F910F9108951F920F920FB6ED
:102F10000F9211242F933F934F935F936F937F935F
:102F20008F939F93AF93BF93EF93FF9386EA93E0C2
:102F30000E94AF12FF91EF91BF91AF919F918F913E
:102F40007F916F915F914F913F912F910F900FBEA5
:102F50000F901F9018951F920F920FB60F92112489
:102F60002F938F939F93EF93FF93E091B603F0918C
:102F7000B7038081E091BC03F091BD0382FD12C0D4
:102F800090818091BF038F5F8F732091C003821760
:102F900051F0E091BF03F0E0EA55FC4F958F80932C
:102FA000BF0301C08081FF91EF919F918F912F917D
:102FB0000F900FBE0F901F90189585ED8093BC0069
:102FC0008091BC0084FDFCCF10927603089540915F
:102FD000D505262F30E0240F311D21323105DCF4D8
:102FE000209176032430C9F4FC0180E090E086173C
:102FF00058F43091D5052191DC01AB54BA4FA30FA1
:10300000B11D2C930196F3CF8091D505680F609385
:10301000D50580E0089581E0089582E0089508953F
:1030200008950895E0912F0380912E03E81730F45E
:10303000F0E0E05DFC4F808190E008958FEF9FEF1E
:10304000089590912F0380912E03981750F4E92F43
:10305000F0E0E05DFC4F208130E09F5F90932F0314
:1030600002C02FEF3FEFC901089580912E0390E039
:1030700020912F03821B91090895CF92DF92EF9246
:10308000FF920F931F93CF93DF937C01CB018A01B3
:1030900020917703222389F0EB016B01C40ED51E2A
:1030A000CC15DD0569F06991D701ED91FC91019096
:1030B000F081E02DC7010995F3CF642F0E94E71737
:1030C000C801DF91CF911F910F91FF90EF90DF909A
:1030D000CF900895CF93DF931F92CDB7DEB769836A
:1030E000209177032223D1F020919903203240F0E0
:1030F00021E030E0FC013383228380E090E015C0C2
:1031000080917803E82FF0E0E758FC4F9981908395
:103110008F5F809378038093990305C061E0CE01AF
:1031200001960E94E71781E090E00F90DF91CF9128
:10313000089590E0FC013197EF30F105B0F5EA5ABF
:10314000FF4F0C94742D809180008F7703C0809185
:1031500080008F7D80938000089580918000877F1C
:10316000F9CF84B58F7702C084B58F7D84BD089573
:10317000809190008F7707C0809190008F7D03C071
:1031800080919000877F8093900008958091C00087
:103190008F7703C08091C0008F7D8093C000089519
:1031A0008091C200877F8093C20008953FB7F89452
:1031B00080918C0590918D05A0918E05B0918F0521
:1031C00026B5A89B05C02F3F19F00196A11DB11D82
:1031D0003FBFBA2FA92F982F8827820F911DA11DBD
:1031E000B11DBC01CD0142E0660F771F881F991FFA
:1031F0004A95D1F708959F92AF92BF92CF92DF92F6
:10320000EF92FF920F931F93CF93DF9300D0CDB730
:10321000DEB76C01B62E7A011A821982BE016F5F89
:103220007F4F80E590E00E94F01F89819A818C5E3B
:103230009A4F2DE0289F8001299F100D1124B8017D
:10324000C6010E94650DF701A0809180C380D480E3
:103250006281C80107960E943D0D692DC80108963C
:103260000E943D0D6A2DC80109960E943D0D6C2DEE
:10327000C8010A960E943D0D6D2DC8010B960E9453
:103280003D0D6B2DC8010C960E943D0D89819A81E0
:103290000196843FF1E09F0719F09A83898302C069
:1032A0001A821982BE016F5F7F4F80E590E00E9415
:1032B000C91F0F900F90DF91CF911F910F91FF9039
:1032C000EF90DF90CF90BF90AF909F900895DF92E6
:1032D000EF92FF920F931F93CF93DF938C017B01AB
:1032E000C0E0D0E087E0D82E2091CF043091D00408
:1032F000D29EC001D39E900D11248C179D0794F08F
:10330000CE010E94AF0D882359F0CD31D10514F4C0
:10331000F80101C0F701808191810196918380833A
:103320002796E2CFDF91CF911F910F91FF90EF9001
:10333000DF900895CF92DF92EF92FF920F931F9349
:10334000CF93DF931F92CDB7DEB71982BE016F5FB7
:103350007F4F0E94680E7C01019727E0289F600143
:10336000299FD00C112400E010E060E0C8018C0D12
:103370009D1D0E943D0D0F5F1F4F07301105A9F7DE
:10338000C7010F90DF91CF911F910F91FF90EF90A8
:10339000DF90CF9008956115710551F0FB01019008
:1033A0000020E9F73197AF01461B570B0C94DD1352
:1033B00080E00895CF93DF93BC0183E494E00E9402
:1033C0005A17EC0183E494E00E946F178C0F9D1F45
:1033D000DF91CF9108954F925F926F928F929F925B
:1033E000AF92BF92CF92DF92EF92FF921F93CF9353
:1033F000DF931092A3051092A2051092A1051092DE
:10340000A00510929F0510929E0510929D051092A6
:103410009C0510929B0510929A05109299051092A6
:1034200098051092970510929605DC01ED91FC919C
:1034300090819093A4058091D104813529F494352D
:10344000E1F0913561F41BC08C3439F49435D1F03E
:10345000913549F09934E9F406C09435A9F013E0A8
:10346000933411F414C012E0892F8D7F893479F0E0
:103470009B7F913509F06CC00AC0C7E006C0C0E070
:1034800012E00CC0C8E001C0C0E013E007C0C0E01B
:1034900005C0933409F05AC0C0E018E06BE772E051
:1034A000CF010E948D2C612CD0E04E01B4E08B0E38
:1034B000911C2E0125E0420E511C7E01A6E0EA0E71
:1034C000F11C6E01B7E0CB0ED11C5E0128E0A20E0C
:1034D000B11C29960097E1F16394611204C09093A6
:1034E000A3058093A205262D30E02815390521F487
:1034F0009093A1058093A0052415350521F49093A0
:103500009F0580939E052E153F0521F490939D0500
:1035100080939C052C153D0521F490939B05809389
:103520009A052A153B0521F49093990580939805F7
:103530002C173D0721F4909397058093960566EB31
:1035400072E080E090E00E948D2CC4CF13E08CCF1D
:10355000DF91CF911F91FF90EF90DF90CF90BF90C0
:10356000AF909F908F906F905F904F9008952091B3
:103570009505211103C08FEF9FEF08955FB7F89471
:1035800022E02093E9002091F20030E012161306A9
:1035900014F421E030E0422FFC0184E6415038F081
:1035A0002898809394059091F1009193F7CF21157D
:1035B000310521F08091F200882319F05FBFC90125
:1035C00008958BE68093E800F9CF2FB7F89483E055
:1035D0008093E9009091E800892F807295FF04C0E4
:1035E0009091F20080E4891B2FBF08951F920F92E3
:1035F0000FB60F9211242F933F934F935F936F93C6
:103600007F938F939F93AF93BF93EF93FF9380919B
:10361000B900887F803609F49CC068F5883209F4C7
:103620005BC090F4803109F454C038F4882309F465
:10363000F6C0883009F44DC0F6C0883109F44CC09A
:10364000803209F45DC0EFC0803409F468C048F4EA
:10365000803309F455C0883309F0E5C080937403C2
:10366000D8C0803509F44FC0883509F45DC088346E
:1036700009F0D9C0D6C0883909F4C7C0A8F4883782
:1036800009F467C038F4883609F463C0803709F458
:1036900060C0C9C0883809F4B8C0803909F45FC077
:1036A000803809F0C0C05BC0803B09F486C038F4A4
:1036B000803A09F466C0883A09F47FC0B4C0803CFF
:1036C00009F4A7C0883C09F4A4C0883B09F48AC067
:1036D000AAC08091510310C090917303809172032E
:1036E000981770F5E091730381E08E0F8093730358
:1036F000F0E0EE5AFC4F80818093BB0085EC86C0E1
:10370000809374038EC0E091730381E08E0F8093E9
:1037100073038091BB00F0E0EE5AFC4F80839091E0
:103720007303809172036EC0E091730381E08E0F8A
:10373000809373038091BB00F0E0EE5AFC4F8083CE
:103740008091750381116DC081E08093500384EAFC
:1037500061C083E0809376031092F705CFCF80910C
:10376000F705803208F051C0E091F70581E08E0F37
:103770008093F7058091BB00F0E0E952FA4F808317
:10378000BDCF85EC8093BC00109276038091F70545
:10379000803230F4E091F705F0E0E952FA4F108200
:1037A0006091F70570E0E0919205F091930587ED47
:1037B00095E009951092F70536C084E08093760372
:1037C0001092D6051092D505E0919005F0919105E3
:1037D00009958091D505811105C081E08093D505BB
:1037E0001092B505E091D60581E08E0F8093D60545
:1037F000F0E0EB54FA4F80818093BB009091D605A6
:103800008091D505981708F479CF85E88093BC009E
:103810000AC085EC8093BC001092760304C010921D
:1038200074030E94DD17FF91EF91BF91AF919F91BB
:103830008F917F916F915F914F913F912F910F9059
:103840000FBE0F901F9018958091AD0581110DC08E
:1038500082E08093A90584E08093AA051092AC05CC
:103860001092AB0581E08093AD0589EA95E008955B
:10387000CF93DF93282F30E0F901E65DFD4F84916F
:10388000F901E55FFD4FD491F901E451FE4FC49178
:10389000CC2391F081110E949918EC2FF0E0EE0FEB
:1038A000FF1FE252FE4FA591B491EC91ED2381E010
:1038B00090E021F480E002C080E090E0DF91CF91C1
:1038C00008951F93CF93DF93282F30E0F901E65D31
:1038D000FD4F8491F901E55FFD4FD491F901E45169
:1038E000FE4FC491CC23C1F0162F81110E9499186C
:1038F000EC2FF0E0EE0FFF1FE053FE4FA591B491C7
:103900009FB7F894111104C08C91D095D82302C0B0
:10391000EC91DE2BDC939FBFDF91CF911F91089537
:10392000CF93DF9390E0FC01E55FFD4F2491FC0114
:10393000E451FE4F8491882361F190E0880F991F34
:10394000FC01EE53FE4FC591D491FC01E053FE4FB4
:10395000A591B491611109C09FB7F8948881209511
:1039600082238883EC912E230BC0623061F49FB7D1
:10397000F8948881322F309583238883EC912E2B05
:103980002C939FBF06C08FB7F894E8812E2B288315
:103990008FBFDF91CF9108958F929F92AF92BF9288
:1039A000CF92DF92EF92FF926B017C010E94D618BA
:1039B0004B015C01C114D104E104F104F1F00E9457
:1039C000D618DC01CB0188199909AA09BB09883EE0
:1039D0009340A105B10570F321E0C21AD108E108B6
:1039E000F10888EE880E83E0981EA11CB11CC1145A
:1039F000D104E104F10419F7DDCFFF90EF90DF90DF
:103A0000CF90BF90AF909F908F9008952FB7F8946C
:103A1000609188057091890580918A0590918B0548
:103A20002FBF0895CF92DF92EF92FF920E94042061
:103A30006B017C010E94061D28EE33E040E050E05F
:103A40000E94522DC21AD30AE40AF50AC092A505B3
:103A5000D092A605E092A705F092A805FF90EF90FE
:103A6000DF90CF9008950F931F93CF93DF93EC01D6
:103A7000092E000CAA0BBB0B8093C4049093C504C1
:103A8000A093C604B093C7040E94061DAB01BC01FD
:103A90008091CB049091CC04A091CD04B091CE0440
:103AA0008A019B01081B190B2A0B3B0B8091C40454
:103AB0009091C504A091C604B091C70408171907D6
:103AC0002A073B0758F18091C204811113C081E09D
:103AD0008093C204C43F81E0D80774F0CE01845FB4
:103AE0009140092E000CAA0BBB0B481B590B6A0B0B
:103AF0007B0B02C01092C2044093CB045093CC04C1
:103B00006093CD047093CE046091C2048091C00490
:103B1000DF91CF911F910F910C94611CDF91CF9198
:103B20001F910F910895CF93DF9300D000D000D064
:103B3000CDB7DEB7CE0101960E941310CE010196DB
:103B40000E94551462EB72E086EA93E00E943617F9
:103B500064EF71E080E090E00E94CC1CCE01019601
:103B60000E941310CE0101960E94551466EA72E07D
:103B700086EA93E00E94361764EF71E080E090E0FF
:103B80000E94CC1CCE0101960E941310CE0101961A
:103B90000E9455146AE972E086EA93E00E943617A3
:103BA00064EF71E080E090E00E94CC1CCE010196B1
:103BB0000E941310CE0101960E94551466E872E02F
:103BC00086EA93E00E94361764EF71E080E090E0AF
:103BD0000E94CC1CCE0101960E941310CE010196CA
:103BE0000E94551467E672E086EA93E00E94361759
:103BF00064EF71E080E090E00E94CC1CCE01019661
:103C00000E941310CE0101960E94551460E672E0E6
:103C100086EA93E00E94361764EF71E080E090E05E
:103C20000E94CC1CCE0101960E941310CE01019679
:103C30000E94551462E572E086EA93E00E9436170E
:103C400064E670E080E090E00E94CC1CCE0101961A
:103C50000E941310CE0101960E94551426960FB6AD
:103C6000F894DEBF0FBECDBFDF91CF9108950F93C3
:103C70001F93CF93DF9300D000D000D0CDB7DEB735
:103C80008C01CE0101960E941310CE0101960E9474
:103C9000551464E670E080E090E00E94CC1C68E47B
:103CA00072E086EA93E00E94361768EE73E080E0E7
:103CB00090E00E94CC1CC80126960FB6F894DEBF97
:103CC0000FBECDBFDF91CF911F910F910895CF937C
:103CD000DF931F92CDB7DEB76983DC01ED91FC91D4
:103CE0000280F381E02D41E050E0BE016F5F7F4F25
:103CF00009950F90DF91CF91089583E08093E900BB
:103D00008091F200882319F08AE38093E8000895F7
:103D1000FC018485958597FD0BC09FB7F89482E0E0
:103D20008093E9008091F2009FBF90E00196089592
:103D30009FB7F89482E08093E9008091F2009FBFE2
:103D400090E0089580E090E008958F929F92AF9266
:103D5000BF92CF92DF92EF92FF920F931F93CF9378
:103D6000DF936C017B018A0180911001882309F4A3
:103D70005CC080919505882309F457C08091C602E4
:103D800080FF05C08091E00082608093E000E80140
:103D9000B12C8AEFA82E93E0892E2AE3922E209749
:103DA00011F4BB20D9F10E94E51A81110AC0AA942E
:103DB000AA20D9F161E070E080E090E00E94CC1C84
:103DC000EECF282F30E0C217D3070CF48C2F9FB70B
:103DD000F8948092E9002091E80025FF1DC0282F6B
:103DE00030E0C21BD30BF701815020F0419140938A
:103DF000F100FACFE20EF31EBB2019F09092E8001A
:103E00000AC08091E80085FD07C09092E800BB24BD
:103E1000B394209709F0B12C9FBFC1CF5D9884E681
:103E2000809382051016110644F081E090E0F601BF
:103E30009383828380E090E001C0C801DF91CF913D
:103E40001F910F91FF90EF90DF90CF90BF90AF90B8
:103E50009F908F9008950E94E51A90E008950F9327
:103E60001F93CF93DF931F92CDB7DEB78C01FC0178
:103E70008485958597FF0EC0CE0101960E94B71AE2
:103E8000019719F4898190E002C08FEF9FEFF8014C
:103E900095878487F801848595850F90DF91CF9170
:103EA0001F910F910895CF93DF931F92CDB7DEB787
:103EB000FC018485958597FD05C02FEF3FEF358781
:103EC00024870BC0CE0101960E94B71A019719F4FE
:103ED000898190E002C08FEF9FEF0F90DF91CF912B
:103EE0000895CF93DF93EB010E94EB2C8883CE01E2
:103EF000DF91CF91089560E0FC0180810C94611CFA
:103F000061E0FC0180810C94611CEF92FF920F93A1
:103F10001F93CF93DF93EC01CB01072E000CAA0B6C
:103F2000BB0B8C839D83AE83BF83598748878B816E
:103F3000882341F18B01E12CF12CE016F106C4F449
:103F400061E088810E94611C6885798580E090E04D
:103F50000E94CC1C60E088810E94611C6885798584
:103F600080E090E00E94CC1C8FEFE81AF80AE5CFC1
:103F700060E08881DF91CF911F910F91FF90EF90CA
:103F80000C94611CDF91CF911F910F91FF90EF90E6
:103F90000895EF92FF920F931F93CF93DF9300D07A
:103FA000CDB7DEB78C017B01FB0160819A838983E9
:103FB000CE0101960E94E901F70161810F5F1F4F59
:103FC0001A830983CE0101960E94E901C7010F906F
:103FD0000F90DF91CF911F910F91FF90EF90089577
:103FE0000F931F93CF93DF938C01EB010E94EB2C77
:103FF0008883C80101960E94EB2C8983CE01DF9152
:10400000CF911F910F910895EF92FF920F931F93FD
:10401000CF93DF93EC0169813881432F50E08A818F
:1040200090E0EEEBF2E021E0261730F47491870F78
:10403000911D2F5F3196F8CF633018F0337009F47B
:1040400001966DE671E0469F9001479F300D569FA7
:10405000300D1124215031094D5F5F4F5695479522
:1040600056954795240F351F280F391FA8E1B0E05A
:104070000E94432D2B817B018C01E20EF11C011D5E
:10408000111DA8019701ACE3B0E00E94012D2C8125
:104090007B018C01E20EF11C011D111DA80197018D
:1040A0000E94012D2D81DC01CB01820F911DA11DEC
:1040B000B11DBC01CD0160587C4B8249974CDF910A
:1040C000CF911F910F91FF90EF9008958F929F9243
:1040D000AF92BF92CF92DF92EF92FF92CF93DF9396
:1040E000EC016A017B0180E8C81A83E4D80A8DE6F6
:1040F000E80A88E3F80A8CE3882E912CA12CB12CD5
:10410000C701B601A50194010E94522D6D83CA0119
:10411000B901A50194010E94522D6C83C701B6011B
:1041200020E13EE040E050E00E94522DCA01B9017A
:1041300028E130E040E050E00E94522D6B83C7013F
:10414000B60120E831E541E050E00E94522D18828E
:104150004881542F537081E009F080E090E0BC0169
:1041600063597E4F2617370738F0281B390B2D5619
:1041700031404F5F4883ECCF81E089838981E82F0C
:10418000F0E0E354FD4FE491511103C0823009F493
:10419000EF5FF0E02E173F0720F02E1B3F0B8F5FE5
:1041A000ECCF2F5F2A83DF91CF91FF90EF90DF90CC
:1041B000CF90BF90AF909F908F900895CF93DF9353
:1041C000EC010E94061D28EE33E040E050E00E9422
:1041D000522D8091A5059091A605A091A705B091BB
:1041E000A805BA01A901480F591F6A1F7B1FCE01FC
:1041F0000E946620CE01DF91CF9108950F931F9307
:10420000CF93DF9300D0CDB7DEB78B01FB01608188
:104210009A838983CE0101960E94E901C8010F901B
:104220000F90DF91CF911F910F9108950F931F93DE
:10423000CF93DF9303ED12E0C0E0D0E0CE010E9407
:10424000EB2CF80181938F012196C730D105B1F78E
:1042500060ED72E08AE090E00E94F01F6FEC72E087
:1042600088E290E00E94711F6EEC72E082E390E0C1
:104270000E94711F6DEC72E084E390E00E94711F58
:104280006AEC72E086E390E00E94F01F62ED72E05B
:104290008CE390E00E94711F6CEC72E08EE390E082
:1042A0000E94711F68EC72E08CE490E00E94711F24
:1042B0006AED72E08EE490E00E94F01F6CEF75E012
:1042C0008AE590E00E94F01F62E076E084E690E0EC
:1042D0000E94F01F6AEF75E08EE690E00E94F01FEA
:1042E00069EF75E088EC90E00E94711F60E076E075
:1042F0008CED90E00E94F01F6EEF75E08EED90E087
:10430000DF91CF911F910F910C94F01F0F931F938A
:10431000CF93DF93CDB7DEB729970FB6F894DEBF02
:104320000FBECDBF80EC94E00E94801F00E010E043
:104330008091CF049091D00423E0880F991F2A9593
:10434000E1F7081719073CF460E0C8010E943D0D31
:104350000F5F1F4FEDCF04E012E460E0C8010E9440
:104360003D0D0F5F1F4F0C3C8BE51807B1F700E0C8
:1043700010E01A83098360E0CE0101960E94E901F2
:104380000F5F1F4F011582E0180799F787E0EFEBE9
:10439000F2E0DE01119601900D928A95E1F7CE01CF
:1043A00001960E94510F82E08093D0028093D10247
:1043B00060ED72E08AE090E00E94C91F11E018876A
:1043C000BE01685F7F4F88E290E00E94FE2019875F
:1043D000BE01675F7F4F8CE390E00E94FE20109249
:1043E000C80268EC72E08CE490E00E94FE2082E05B
:1043F00090E09093DB028093DA026AED72E08EE443
:1044000090E00E94C91F02E310E01093FD050093A5
:10441000FC056CEF75E08AE590E00E94C91F1093DF
:1044200003060093020662E076E084E690E00E94D4
:10443000C91F1093FB050093FA056AEF75E08EE63D
:1044400090E00E94C91F0E94350D61E08EE290E06D
:104450000E94F32C9EE088E10FB6F894A895809313
:1044600060000FBE9093600060ED77E080E090E028
:104470000E94CC1C29960FB6F894DEBF0FBECDBFAC
:10448000DF91CF911F910F910895FF920F931F938A
:10449000CF93DF93CDB7DEB72C970FB6F894DEBF7E
:1044A0000FBECDBF8C01F62ECE0107960E94DE20F6
:1044B0008F81898388858A8389858B838A858C838C
:1044C0008B858D838C858E83AE014F5F5F4F6F2D03
:1044D000C8010E94FB18BE016F5F7F4F80E590E02E
:1044E0000E94F01F89819A810E9405102091FC058D
:1044F0003091FD0589819A818217930721F080917F
:10450000F8058823C9F08091FA059091FB05820F88
:10451000931F843F21E092072CF49093FD05809334
:10452000FC0504C01092FD051092FC056CEF75E0CF
:104530008AE590E00E94C91F2C960FB6F894DEBF62
:104540000FBECDBFDF91CF911F910F91FF900895C6
:104550001F920F920FB60F9211242F933F938F93B8
:104560009F93AF93BF938091880590918905A09107
:104570008A05B0918B053091040623E0230F2D3777
:1045800020F40196A11DB11D05C026E8230F029657
:10459000A11DB11D20930406809388059093890581
:1045A000A0938A05B0938B0580918C0590918D0521
:1045B000A0918E05B0918F050196A11DB11D80932C
:1045C0008C0590938D05A0938E05B0938F05BF91B8
:1045D000AF919F918F913F912F910F900FBE0F90B0
:1045E0001F901895CF93DF93CDB7DEB7E2970FB644
:1045F000F894DEBF0FBECDBF789484B5826084BDD1
:1046000084B5816084BD85B5826085BD85B58160D6
:1046100085BD80916E00816080936E001092810054
:10462000809181008260809381008091810081600F
:1046300080938100809180008160809380008091D0
:1046400091008260809391008091910081608093BD
:104650009100809190008160809390008091C100D2
:1046600084608093C1008091C10082608093C1000A
:104670008091C10081608093C1008091C3008160FE
:104680008093C3008091C00082608093C0008091BD
:10469000C20081608093C20080917A008460809320
:1046A0007A0080917A00826080937A0080917A000B
:1046B000816080937A0080917A00806880937A008C
:1046C000109295051092C7021092C6028091D700F1
:1046D00081608093D70080EA8093D80089B580619B
:1046E00089BD89B5826089BD09B400FEFDCF61E056
:1046F00070E080E090E00E94CC1C8091D8008F7C1C
:1047000080618093D8008091E000807F8093E000FA
:104710008091E1008E7E8093E1008DE08093E20045
:10472000559A209A87EF84BF0FB6F894A895809188
:104730006000886180936000109260000FBE60E0AE
:104740008EE00E94901C61E084E10E94901C61E078
:1047500080E10E94901C62E085E10E94901C48EC80
:1047600050E065E070E080EC94E00E94851F8EE2EE
:1047700090E00E94EB2C81110FC061E080E10E946B
:10478000611C64EF71E080E090E00E94CC1C60E06E
:1047900080E10E94611C05C060E08EE290E00E9412
:1047A000F32C80EC94E00E94801F8FEF9FEF90939A
:1047B000500480934F0468EE73E080E090E00E9424
:1047C000CC1CE091B603F091B70302E00083E091C6
:1047D000B203F091B3031082E091B403F091B503FA
:1047E00080E180831092BE03E091BA03F091BB0395
:1047F00016E01083E091B803F091B90380818061E5
:104800008083E091B803F091B90380818860808350
:10481000E091B803F091B903808180688083E091D2
:10482000B803F091B90380818F7D80838091D1049A
:104830008C3409F045C068EE73E080E090E00E949F
:10484000CC1C68EE70E086EA93E00E94361768EEB2
:1048500073E080E090E00E94CC1CE091B603F09100
:10486000B7030083E091B203F091B3031082E091AB
:10487000B403F091B50387E680831092BE03E09104
:10488000BA03F091BB031083E091B803F091B90330
:10489000808180618083E091B803F091B9038081C9
:1048A00088608083E091B803F091B90380818068CB
:1048B0008083E091B803F091B90380818F7D80837C
:1048C00060E177E280E090E00E94CC1C8E010F5FF7
:1048D0001F4F4801C8010E941310C8010E945514BF
:1048E0006CED70E086EA93E00E94361768EE73E0A4
:1048F00080E090E00E94CC1CC8010E941310C80107
:104900000E94551460ED70E086EA93E00E9436172D
:1049100068EE73E080E090E00E94CC1CC8010E9429
:104920001310C8010E9455140E94931D6AEC70E098
:1049300086EA93E00E943617C8010E941310C8014E
:104940000E94551468EE73E080E090E00E94CC1C59
:1049500010922F0310922E03109278031092990355
:104960001092760381E0809375031092500361E00A
:1049700082E00E94611C61E083E00E94611C8091E2
:10498000B9008E7F8093B9008091B9008D7F8093AC
:10499000B90088E48093B80085E48093BC008FE080
:1049A00098E1909391058093900580E198E1909330
:1049B00093058093920560E177E280E090E00E94A9
:1049C000CC1C81E090E00E94EB2C8F3F11F40E9400
:1049D00086210E941621A091DA02B091DB021A16FC
:1049E0001B0674F420E437E74BE150E00E94812D70
:1049F0006093000170930101809302019093030181
:104A000064E170E08BE795E00E94B613C4010E9458
:104A1000371EB4018BE795E00E947C13C4010E940D
:104A20005514C4010E941310C4010E94551464E679
:104A300070E080E090E00E94CC1C6DEF70E086EAB0
:104A400093E00E94361760E177E280E090E00E94F8
:104A5000CC1C67EF70E086EA93E00E94361768EEA0
:104A600073E080E090E00E94CC1CC4010E9413100F
:104A7000C4010E94551448EC50E065E070E080EC01
:104A800094E00E94851F85E1898381E08A838B837E
:104A90001C821D821E82C4010E94121D0E942710CA
:104AA0006624639486EA93E00E9499121816190608
:104AB0000CF071C08091DD0481116DC086EA93E035
:104AC0000E947712782E8091DF02882309F4F1C0CA
:104AD0000E94061D5B016C012BA53CA54DA55EA5A2
:104AE0006FA578A989A99AA928513C4F4F4F5F4FCC
:104AF0006F4F7F4F8F4F9F4F19012A01B62FA72F5E
:104B0000F82FE92F9501A60160E070E080E090E0C9
:104B100051016201EB2EFA2E0F2F1E2F0E94892DBC
:104B200019F010F081E2782E80917A05E091DE0292
:104B30008711AFC0F0E0EF52FB4F108A1092DF02F6
:104B40001092DE0221EE34E03093E0042093DF0483
:104B50006092DD0442E350E061E070E080EC94E0BC
:104B60000E94851F8091DD0481111092DD048091E7
:104B7000DF049091E00498A38F8F0E94DA19AF8D23
:104B8000B8A1FD0101900020E9F73197EA1BFB0B6A
:104B9000349708F0A3C08091CE02882309F467C03F
:104BA00088EE93E00E94331D8091E802811111C0CC
:104BB000809193040E94381C21E0892B09F420E0A5
:104BC0008091CF02821326C28091C902811122C234
:104BD00052C084E690E00E94331DA091CA02B091B9
:104BE000CB02C090E402D090E502E090E602F090A3
:104BF000E70228EE33E00E947A2D609397047093C9
:104C000098048093990490939A04672B682B692BDE
:104C100009F4C3C20E94061D8B019C010C191D09D9
:104C20002E093F09680179010091970410919804B9
:104C30002091990430919A04C016D106E206F30639
:104C400008F4ABC260939E0470939F048093A00409
:104C50009093A1041092E3021092E8028091CD0299
:104C6000882349F082EA94E00E947B1F04C080E41C
:104C70009FE10E94331D1BE383E494E00E94881EA1
:104C800020912903181619060CF0B7C22111B5C2DC
:104C900089C2AE2FB0E0AF52BB4F50967C92EF5F0F
:104CA000EE3618F4E093DE02FDCE1DE61093DE0230
:104CB000F9CE80917705781649F0809178057816BD
:104CC00049F0809179057812EDCE04C031E230933D
:104CD0007A057BC14DE040937A0577C111968C919E
:104CE0008E3409F458CFCE014F960E94EB19809173
:104CF000A4058B3409F4A7C03CF4833409F450C0F4
:104D0000893409F44DC047CF813589F1843509F0E4
:104D100042CF0E94D1018130C1F018F08230E1F021
:104D20003ACF0E94C101882309F435CF0E94910136
:104D3000682F70E06115710509F42DCF8091A205EF
:104D40009091A3050E94EB0226CF0E94C101882307
:104D500019F00E946C031FCF6091A2057091A3050A
:104D60008091A0059091A1050E94020214CF60914C
:104D7000A2057091A305C4010E9463146091DC0236
:104D80007091DD02CE0143960E942F11B401CE0135
:104D900043960E944B10CE0143960E94551436C193
:104DA0000E94D101813019F0823099F029C0909190
:104DB000E802992319F08093E30222C08091CD028A
:104DC000823058F46091A2057091A30584EF91E0C0
:104DD00015C08091CD02823038F06091A2057091AB
:104DE000A30584E591E00AC080910401823050F36C
:104DF0006091A2057091A30588E591E00E940202EE
:104E00001092D3041092D20486EA93E00E94991281
:104E1000892B09F0ECC08091D2049091D304803E9C
:104E20009E420CF0E4C06DE070E080E090E00E94F3
:104E3000CC1C8091D2049091D30401969093D3041A
:104E40008093D204E1CF8091A2059091A3050E94A6
:104E50006F2C8C014497449708F0A6C080919A0566
:104E600090919B050E946F2C182F80919C0590912A
:104E70009D050E946F2CF82E80919E0590919F05B4
:104E80000E946F2CE82E8091A0059091A1050E94B0
:104E90006F2C09838A83EB82FC821D831E82C401EE
:104EA0000E94121D8091D1048135A1F4CE01439658
:104EB0000E94DE20CE0143960E940420AB01BC017B
:104EC0004054584361097109C4010E946620C4011D
:104ED0000E94121D66E080E090E00E9445228091D1
:104EE000C8028823B1F12091E1023091E202809161
:104EF000DA029091DB02820F931F9093E20280937B
:104F0000E102489734F11092E2021092E10261E06E
:104F100070E0CE0149960E942F116CE571E0C4014A
:104F20000E946314BE01675E7F4FCE0143960E94CC
:104F30005A14B401CE0143960E944B10CE01439601
:104F40000E945514C4010E945514CE0149960E9436
:104F500055148091DA029091DB02181619060CF0B4
:104F60001ACE0E94061D61327F4B8240910508F4E3
:104F700012CE61E171E086EA93E00E94361768E89C
:104F800073E180E090E00E94CC1C65E071E086EA6D
:104F900093E00E943617C4010E941310C4010E94BE
:104FA00055140E94931D2FC068E873E180E090E0E3
:104FB0000E94CC1C8091E0028F5F8093E0028230DF
:104FC00008F0E9CD0E942710E6CD0E94061D7B0166
:104FD0008C0120E030E0A9016BA7FCA60DA71EA75D
:104FE0002FA738AB49AB5AAB6092DF025BCD86EAA4
:104FF00093E00E949912892B31F465EB72E0C401B1
:105000000E94631403C0C4010E941310C4010E94D3
:105010005514C1CD6092E8020E94061D6093E4021F
:105020007093E5028093E6029093E7028091CD02AF
:105030008823F1F182EA94E00E94801FF12C08EEAF
:1050400013E0B801CE0149960E942F11CE01499676
:105050000E94400F811122C021E02F1530F468E832
:1050600073E180E090E00E94CC1C60E671E0C40136
:105070000E946314BE01675E7F4FCE0143960E947B
:105080005A14B401CE0143960E944B10CE014396B0
:105090000E945514C4010E945514F394CE01499600
:1050A0000E9455140F5F1F4F0E3E33E0130749F661
:1050B00065E671E0CE0185960E94631419828091A5
:1050C000C902882361F06BE671E0C4010E94AE2F33
:1050D0006091A2057091A305C4010E949A2FF12C42
:1050E00001E010E0B801CE014F960E942F11CE01D1
:1050F0004F960E94400F811131C041E04F1530F4AE
:1051000068E873E180E090E00E94CC1C8091C902C5
:10511000882331F0B401CE0149960E94631407C080
:10512000BE016B5D7F4FCE0149960E945A14BE01AD
:10513000615E7F4FCE0143960E945A14BE01675EA6
:105140007F4FCE0143960E944B10CE0143960E94A2
:105150005514CE0149960E945514F394CE014F96F2
:105160000E9455140F5F1F4F0630110509F0BACF8A
:10517000CE0185960E9455148091C90264E088236F
:1051800029F08091A2059091A30502C080E090E0F3
:105190000E9445221092C9026ECD8091E3028111D6
:1051A00059CD69CD83E494E00E94531F9091EA02A7
:1051B0009923E9F0E091E9028E3371F0AE2FB0E06F
:1051C000A351BD4F8C93EF5FEC3318F4E093E902E9
:1051D00053CD1093E90250CDF0E0E351FD4F108222
:1051E0001092EA021092E9026092290345CD8C33B5
:1051F00009F042CD6092EA023FCD222309F451C268
:105200008DEE92E098A38F8FCE014F960E94EB19FE
:10521000E091A205F091A3058081843409F456C081
:10522000CCF48134C9F13CF4833209F41BC18532DA
:1052300009F477C134C2823409F445C0833409F0DB
:105240002EC240E061E480919E0590919F050E94EE
:10525000ED0E25C2803509F4F1C074F48534E9F10E
:10526000863409F01CC264E071E080919E05909143
:105270009F050E94680EF0C0843509F4BFC08A35CE
:1052800009F4F8C1833509F00AC280EC94E00E9469
:10529000801F01E010E07AC080919A0590919B05F3
:1052A0000E946F2C482F65E480919E0590919F0588
:1052B0000E94ED0E44E150E061E070E080EC94E08B
:1052C0000E94851FECC10E948621E9C180919E0544
:1052D00090919F050E949A19E2C180EC94E00E948F
:1052E000801F1A8E198EBE01675E7F4F80E590E0A9
:1052F0000E94F01F04EF11E0898D9A8D892B21F413
:1053000024EF31E03A8F298F898D9A8D9C012150AD
:1053100031093A8F298F8D5E9A4F3DE0389F700199
:10532000399FF00C112465EB72E0CE0143960E9488
:105330006314C12CD12CC7018C0D9D1D0E94AF0D93
:10534000A601682FC4010E94A810B401CE014396A3
:105350000E947A0FC4010E9455144FEFC41AD40A58
:105360005DE0C516D10439F7BE016D5E7F4F83E461
:1053700094E00E947317CE0143960E945514015089
:10538000110909F0B9CF81E291E031C0B801C4013F
:105390000E942F11C4010E94400F811116C0B40158
:1053A00083E494E00E9428176DE283E494E00E9475
:1053B000671E6091040170E080E090E04AE00E9486
:1053C000920F83E494E00E946F170530110521F4D9
:1053D0008FE191E00E94810FC4010E9455140F5F7C
:1053E0001F4F093E83E0180789F68DE191E00E9486
:1053F000810F80EC94E00E947B1F51C10E94350D0B
:1054000080E791E00E94DA198BE090E00E9405109D
:1054100083E494E00E946F17C4010E94371EB40118
:105420008BE795E00E947C13C4010E9455146BE742
:1054300075E083E494E00E94731731C146E050E0C8
:1054400063ED72E080919E0590919F050E94B52FBB
:10545000892B29F481E090E00E94051020C180E0B2
:1054600090E0FACF0E9416216091EC0270E080E09B
:1054700090E04AE00E94920F8091D20290E00E9458
:10548000D50F6091D00270E080E090E04AE00E9489
:10549000920F6091D10270E080E090E04AE00E94BB
:1054A000920F8091CF0290E00E94D50F8091CE02A2
:1054B00090E00E94D50F6091CD0270E080E090E016
:1054C0004AE00E94920F8091CC0290E00E94D50F9A
:1054D0008091EB0290E00E94D50F8091CB028F93D8
:1054E0008091CA028F938CE791E09F938F939F9254
:1054F0008F920E94D22FB40183E494E00E945A1745
:1055000061E871E083E494E00E945A1782E891E038
:105510000E94DA190F900F900F900F900F900F903C
:10552000BEC0E0919E05F0919F05808180538093DD
:10553000EC026CEE72E086E490E00E94FE20E091C6
:105540009E05F0919F0581E09181903309F480E000
:105550008093D20262ED72E08CE390E00E94FE2024
:10556000E0919E05F0919F05828180538093D00247
:10557000838180538093D10260ED72E08AE090E0F5
:105580000E94C91FE0919E05F0919F0581E09481E2
:10559000903309F480E08093CF026FEC72E088E2F0
:1055A00090E00E94FE20E0919E05F0919F0581E031
:1055B0009581903309F480E08093CE026EEC72E026
:1055C00082E390E00E94FE20E0919E05F0919F050D
:1055D000868180538093CD026DEC72E084E390E08D
:1055E0000E94FE20E0919E05F0919F0581E0978149
:1055F000903309F480E08093CC026CEC72E08EE38F
:1056000090E00E94FE20E0919E05F0919F0581E0D0
:105610009085903309F480E08093EB026BEE72E0AA
:1056200088E490E00E94FE20E0919E05F0919F05A5
:1056300081859285A38589839A83AB831C82C4016B
:105640000E946F2C9093CB028093CA026AEC72E0A6
:1056500086E390E00E94C91FE0919E05F0919F05AE
:1056600084859585A68589839A83AB831C820E9455
:10567000162115C01C8A1B8A1A821982B401CE0118
:1056800043960E9467198B899C890E940510898125
:105690009A810E94051083E494E00E946F17109293
:1056A000290385E10E94381C9C0191E021153105F8
:1056B00009F490E090932C0380912B039817C9F084
:1056C000232B89F410912A031F5F10932A0340EDC6
:1056D00057E061E070E080EC94E00E94851F153097
:1056E00011F40E94862162E370E080E090E00E9465
:1056F000CC1C80912C0380932B030E94061D6B0110
:105700007C018091000190910101A0910201B09172
:105710000301C816D906EA06FB0601F54CE251E082
:1057200064E070E080EC94E00E94851FA091DA02B2
:10573000B091DB0220E437E74BE150E00E94812D7D
:10574000C60ED71EE81EF91EC0920001D0920101BC
:10575000E0920201F09203010E9427100E943E1382
:10576000A1C9CF93DF93EAE9F3E01382128288EEB6
:1057700093E0A0E0B0E084839583A683B7832BE118
:1057800031E031832083E6EAF3E0138212828483DE
:105790009583A683B7832DE231E0318320832DECFE
:1057A00030E0358724872CEC30E03787268728ECDB
:1057B00030E0318B208B29EC30E0338B228B2AECCC
:1057C00030E0358B248B2EEC30E0378B268B118E1E
:1057D000128E138E148EE3E4F4E01382128284831B
:1057E0009583A683B7838FE391E0918380838FEFC6
:1057F0009FEF9587848765EB72E08BE795E00E94C9
:105800006314C1EDD4E01C821B8265EB72E086ED6F
:1058100094E00E9463141B861C861D861F861E86CC
:105820008DE4809377058CE48093780583E58093FD
:10583000790581E280937A0581E5888388EE93E09B
:105840009093D0048093CF04E0ECF4E012821286AF
:10585000138614861586168684E090E091838083F3
:10586000C1E0C38361E00E94901CE1EBF4E012828E
:105870001286138614861586168689E090E0918339
:105880008083C38361E00E94901CE2EAF4E012820C
:10589000128613861486158616868AE090E0918318
:1058A0008083C38361E00E94901CE3E9F4E01282EC
:1058B0001286138614861586168688E090E09183FA
:1058C0008083138260E0DF91CF910C94901C86ED71
:1058D00094E00E9455148BE795E00C945514FC015C
:1058E00088279927E89421912032E9F3293010F094
:1058F0002E30C8F32B3241F02D3239F4689404C0B5
:105900000E94B92C820F911D219120532A30C0F39F
:105910001EF4909581959F4F089545E056E00E94B2
:10592000922C0895FA01A191B081009719F4109773
:10593000E1F0CD01DC01CD010D90002011F4C0019A
:1059400013C0FB012191222319F02015D9F7F3CFC1
:10595000FB012191201519F41E92119606C02223F5
:10596000C1F70D900020A1F7D001FA01A193B083F7
:1059700008957AE0979F902D879F802D910D112497
:105980000895BB27FB015527AA27880F991FAA1F37
:10599000A41710F0A41B83955051B9F7A05DAA334A
:1059A00008F0A95DA193009779F7B111B193119215
:1059B000CB010C94DB2CDC01FC01672F7191772368
:1059C000E1F7329704C07C916D9370836291AE17BA
:1059D000BF07C8F30895F999FECF92BD81BDF89A2B
:1059E000992780B50895262FF999FECF1FBA92BD49
:1059F00081BD20BD0FB6F894FA9AF99A0FBE0196B0
:105A000008950E94432DA59F900DB49F900DA49FD3
:105A1000800D911D112408952F923F924F925F9215
:105A20006F927F928F929F92AF92BF92CF92DF92AE
:105A3000EF92FF920F931F93CF93DF93CDB7DEB713
:105A4000CA1BDB0B0FB6F894DEBF0FBECDBF0994A7
:105A50002A88398848885F846E847D848C849B84FE
:105A6000AA84B984C884DF80EE80FD800C811B810C
:105A7000AA81B981CE0FD11D0FB6F894DEBF0FBE3B
:105A8000CDBFED010895A29FB001B39FC001A39FB8
:105A9000700D811D1124911DB29F700D811D112467
:105AA000911D0895A1E21A2EAA1BBB1BFD010DC07A
:105AB000AA1FBB1FEE1FFF1FA217B307E407F507BE
:105AC00020F0A21BB30BE40BF50B661F771F881F9A
:105AD000991F1A9469F760957095809590959B0130
