:100000000C9467010C948F010C948F010C948F0158
:100010000C948F010C948F010C948F010C948F0120
:100020000C948F010C948F010C9458110C94CA11EC
:100030000C948F010C948F010C948F010C948F0100
:100040000C948F010C948F010C948F010C948F01F0
:100050000C948F010C948F010C948F010C94332518
:100060000C948F010C948B140C9465140C948F01D8
:100070000C948F010C948F010C948F010C948F01C0
:100080000C948F010C948F010C948F010C948F01B0
:100090000C9417230C948F010C948F010C948F01F6
:1000A0000C948F010C948F010C948F01CD22D022DF
:1000B000BF22C322C922F122F122F122D422D82266
:1000C000DC22E222E622F122EC22415426570D00E6
:1000D00041542B43545A523D310D0A0041542B4395
:1000E000545A553D310D0A0041542B4950523D316F
:1000F000393230300D0A004154480D0A0041544451
:10010000303B0D0A0041542B4346554E3D310D0AFC
:100110000041542B4346554E3D300D0A00450045E5
:1001200000450041542B434855500D0A0041542BC3
:100130004353510D0A00080B00020202010009049A
:100140000000010202000005240010010524010145
:10015000010424020605240600010705810310009E
:100160004009040100020A000000070502024000E5
:100170000007058302400000040309041201000285
:10018000EF0201404F1B0692000101020301537070
:1001900061726B46756E00537061726B46756E20AE
:1001A00050726F204D6963726F0041542B43475367
:1001B0004E0D0A0041542B4347455245503D300DEA
:1001C0000A00415445300D0A0061742B7175726349
:1001D0006366673D22757263706F7274222C22759C
:1001E00061727431220D0A0041542B434E4D493D3A
:1001F000312C322C302C302C300D0A0041542B4342
:100200004C49503D310D0A0041542B434D47463D6A
:10021000310D0A0041542B435245473D310D0A0030
:10022000220D0041542B434D47533D22001F1C1FFC
:100230001E1F1E1F1F1E1F1E1F41542B43434C4BCE
:100240003F0D0A0000000000240027002A002D00B6
:10025000300000000000250028002B002E00310097
:10026000000000002300260029002C002F000404B9
:10027000040404030405020202020403020202024F
:100280000606060606060404020202040404080226
:10029000011040804010204080408008020401800E
:1002A0004020100201108010204040200000000279
:1002B00000090F0000030401000C00000000000012
:1002C00000000000000000000000622E5A2E1124E1
:1002D0001FBECFEFDAE0DEBFCDBF26E0A0E0B3E087
:1002E00001C01D92AD37B207E1F713E0A0E0B1E025
:1002F000EEEDFAE602C005900D92A030B107D9F7F5
:1003000011E0C6E6D1E004C02197FE010E94513001
:10031000C536D107C9F70E947D250C9462350C942F
:100320000000CF93DF93EB010E94382FC456DC4FBF
:100330008883DF91CF910C94DF156BE871E0809199
:100340009203909193030E946432892B21F581E4FA
:100350000E947021019761F080918103882399F0B8
:1003600081E40E947021181619066CF41092810322
:100370000E948E2040E061E4809196039091970363
:100380000E947B15089542E350E068E070E089E543
:1003900095E00E94E11C80E0089546E050E067E2AD
:1003A00073E080919403909195030E94923221E032
:1003B000892B09F020E0822F089560E171E080919F
:1003C0009603909197030E94F614009761F09C01A8
:1003D000215031092530310520F0069724F082E0C4
:1003E000089581E0089580E00895FF920F931F9390
:1003F000CF93DF93EC01F62E08811981C8010E948A
:10040000B42FF81621F06F2DC8010E94BC2FCE0129
:10041000DF91CF911F910F91FF900895EF92FF927E
:100420000F931F93CF93DF93CDB7DEB72C970FB603
:10043000F894DEBF0FBECDBF8C017B0164E272E099
:100440000E946432892BA1F510919D0364EF71E045
:1004500080E090E00E94ED2463E271E081E294E0AC
:100460000E94161480911001823000F588EE93E00E
:10047000189FA001199F500D11244115510539F005
:1004800061E070E08AE495E00E94E11C0FC08AE41C
:1004900095E00E94D71C811105C08AE495E00E9476
:1004A000D21C04C08AE495E00E94CD1C62E0B6C074
:1004B0006FE571E0C8010E946432892B71F51091DB
:1004C0009E0364EF71E080E090E00E94ED2463E21F
:1004D00071E081E294E00E941614809110018D7FFA
:1004E00009F09BC088EE93E0189FA001199F500D62
:1004F00011244115510529F061E070E08BE395E08E
:100500007AC08BE395E00E94D71C811103C08BE376
:1005100095E07CC08BE395E07EC064E971E0C801A2
:100520000E946432892B81F510919F0364EF71E082
:1005300080E090E00E94ED2463E271E081E294E0CB
:100540000E94161480911001882319F0833009F05D
:1005500064C088EE93E0189FA001199F500D1124EC
:100560004115510529F061E070E08DE195E043C04F
:100570008DE195E00E94D71C811103C08DE195E0CB
:1005800045C08DE195E047C068E971E0C8010E946F
:100590006432892B09F067C080912303823008F010
:1005A00062C08EE095E00E94D71C81115CC0109162
:1005B000A00364EF71E080E090E00E94ED2463E22C
:1005C00071E081E294E00E941614809110018B7F0B
:1005D00021F580912303811120C088EE93E0189FBC
:1005E000A001199F500D11244115510539F061E00A
:1005F00070E08EE095E00E94E11C0FC08EE095E077
:100600000E94D71C811105C08EE095E00E94D21C8B
:1006100004C08EE095E00E94CD1C63E0C7010E94FB
:10062000831F109122031123B9F161E971E0CE011A
:1006300007960E9443116091960370919703CE0133
:1006400001960E944311BE01695F7F4FCE01019662
:100650000E947C19CE0101960E943511CE010796A9
:100660000E94351120C06BE571E0C8010E94643220
:10067000892BC1F464EF71E080E090E00E94ED24EA
:1006800063E271E081E294E00E941614809110010F
:10069000882321F0833011F011E005C081E08093C0
:1006A0001F03FACF10E0812F2C960FB6F894DEBF0F
:1006B0000FBECDBFDF91CF911F910F91FF90EF90B3
:1006C0000895EF92FF920F931F93CF93DF93CDB7CF
:1006D000DEB76F970FB6F894DEBF0FBECDBF8C01AB
:1006E0007B01161617060CF03FC0609192037091C3
:1006F000930346E050E0CE0101960E94A032FF92A3
:10070000EF9288E692E09F938F937E018EE0E80E51
:10071000F11CFF92EF920E94AF32B701CE01019619
:100720000E947732BE016F5F7F4FCE014A960E94D2
:100730004311B801CE0144960E944311BE01665E8A
:100740007F4FCE0144960E947C19CE0144960E94B0
:100750003511CE014A960E9435110F900F900F90DF
:100760000F900F900F9021C060E171E00E94F6148D
:1007700018161906D4F46CE971E0CE010E960E94A9
:100780004311B801CE0101960E944311BE01625F80
:100790007F4FCE0101960E947C19CE0101960E94E6
:1007A0003511CE010E960E9435116F960FB6F89452
:1007B000DEBF0FBECDBFDF91CF911F910F91FF9094
:1007C000EF9008952F923F924F925F926F927F9297
:1007D0008F929F92AF92BF92CF92DF92EF92FF9251
:1007E0000F931F93CF93DF93CDB7DEB7C856D109D0
:1007F0000FB6F894DEBF0FBECDBF63EA71E0809103
:100800009203909193030E946432892B19F50E9400
:100810008E2061E971E0CE01895B9F4F0E944311F8
:100820006091960370919703CE0101960E94431147
:10083000BE01695B7F4FCE0101960E947C19CE01FB
:1008400001960E943511CE01895B9F4F0E943511A0
:100850000E94C41E6AEA71E0809192039091930312
:100860000E946432892B81F5E0919003F09191030D
:1008700086E0A7E2B3E001900D928A95E1F710922D
:100880002E0387E293E00E94071661E971E0CE0132
:10089000895B9F4F0E94431160919603709197036B
:1008A000CE0101960E944311BE01695B7F4FCE01CC
:1008B00001960E947C19CE0101960E943511CE014D
:1008C000895B9F4F0E9435116BE871E08091920324
:1008D000909193030E946432892B51F40E949D01F0
:1008E000682F70E080919603909197030E946103B6
:1008F00062EB71E080919203909193030E946432C5
:10090000892B31F581E08093810389E595E00E9490
:10091000D21C61E971E0CE01895B9F4F0E944311B7
:100920006091960370919703CE0101960E94431146
:10093000BE01695B7F4FCE0101960E947C19CE01FA
:1009400001960E943511CE01895B9F4F0E9435119F
:100950006CEB71E080919203909193030E9464325A
:10096000892B09F04BC06FEE72E0CE0101960E9418
:10097000431101E010E0B801CE01895B9F4F0E9456
:10098000421BBE01695B7F4FCE0101960E9430166B
:10099000CE01895B9F4F0E9435116AE0CE0101961E
:1009A0000E947B200F5F1F4F0630110521F7BE010B
:1009B0006F5F7F4FCE018A5A9F4F0E943A1160911C
:1009C000960370919703CE01895B9F4F0E9443115C
:1009D000BE016A5A7F4FCE01895B9F4F0E947C19EE
:1009E000CE01895B9F4F0E943511CE018A5A9F4FDD
:1009F0000E943511CE0101960E94351166EC71E01E
:100A000080919203909193030E946432892B09F0A4
:100A100069C080919003909191030E94382F5C01EE
:100A200080918E0390918F030E94382F6C01850175
:100A3000AC14BD040CF056C06FEE72E0CE0101960E
:100A40000E9443117801480129E0820E911C8E1406
:100A50009F04DCF0B701CE01895B9F4F0E94421BCF
:100A6000BE01695B7F4FCE0101960E943016CE0118
:100A7000895B9F4F0E9435116AE0CE0101960E946A
:100A80007B203FEFE31AF30AE2CFBE016F5F7F4F97
:100A9000CE018A5A9F4F0E943A116091960370913D
:100AA0009703CE01895B9F4F0E944311BE016A5A92
:100AB0007F4FCE01895B9F4F0E947C19CE01895BDD
:100AC0009F4F0E943511CE018A5A9F4F0E943511C7
:100AD000065F1F4F4AE0C41AD108CE0101960E945A
:100AE0003511A6CF6CEC71E0809192039091930345
:100AF0000E946432892B09F025C16FEE72E0CE01AD
:100B0000895B9F4F0E9443116CE870E0CE01895BC6
:100B10009F4F0E949610BE01635A7F4F80E590E080
:100B20000E944C1D6F960EAD1FAD6F97780189E145
:100B3000E81AF108F7FE16C0780194E1E91AF10805
:100B4000F7FE10C07801EFE0EE1AF108F7FE0AC0D8
:100B50007801FAE0EF1AF108F7FE04C0780125E009
:100B6000E21AF1081E141F040CF0E7C00550110929
:100B700040E050E06FEE72E0CE01895B9F4F0E9433
:100B8000FD106F968EAD9FAD6F975C0131E0A31A9B
:100B9000B1082DE0289F2001299F500C1124612CC1
:100BA000712C49E0441A4EEB540AAE14BF040CF405
:100BB000C4C06FEE72E0CE018A5A9F4F0E9443116B
:100BC0004201860C971CC12CD12CC601880D991DA1
:100BD0000E940821682F86E0C816D10409F45DC080
:100BE00095E0C916D10419F445E050E006C0E9E0EB
:100BF000CE16D104D1F449E050E0CE0101960E9416
:100C0000BB1ABE016F5F7F4FCE018A5A9F4F0E9471
:100C10003016CE0101960E94351164ED71E0CE01CF
:100C20008A5A9F4F0E94511838C0FBE0CF16D1045A
:100C300019F44BE050E0E1CF2CE0C216D104E1F40E
:100C4000862F90E08230910519F466ED71E0E7CFD0
:100C50008330910519F462E472E0E1CF84309105AC
:100C600019F469ED71E0DBCF069719F46CED71E0D2
:100C7000D6CF4CE050E001C0A601CE0101960E9403
:100C8000BB1ABE016F5F7F4FCE018A5A9F4F0E94F1
:100C90003016CE0101960E9435113FEFC31AD30AD8
:100CA0004DE0C416D10409F090CFBE016A5A7F4FBF
:100CB000CE01895B9F4F0E943016CE018A5A9F4F0A
:100CC0000E9435116AE0CE01895B9F4F0E947B2014
:100CD0000A151B0559F5BE01695B7F4FCE018A5A83
:100CE0009F4F0E943A116091960370919703CE0135
:100CF00001960E944311BE016A5A7F4FCE010196B0
:100D00000E947C19CE0101960E943511CE018A5AAB
:100D10009F4F0E94351140E050E06FEE72E0CE012F
:100D2000895B9F4F0E94FD100550110981E0A81AB0
:100D3000B1089DE0691A710838CFCE01895B9F4FD9
:100D40000E9435116FED71E08091920390919303B1
:100D50000E946432892B09F096C0198287E0E7E18E
:100D6000F1E0DE01AA5ABF4F01900D928A95E1F79A
:100D7000FE01EA5AFF4F6F0161E1E62E63E0F62EB5
:100D800073E0A72E73E0B72EEFE12E2EE3E03E2EA8
:100D9000F4EE8F2EF1E09F2E8E01095B1F4FA8E627
:100DA0006A2EA2E07A2EB7EE4B2EB1E05B2EF60152
:100DB00081916F01282F082E000C330B3F938F93E6
:100DC0009F928F921F930F930E94AF32B801CE0172
:100DD00001960E947732F8011082F701808191819B
:100DE000F2E0EF0EF11C9F938F937F926F921F930F
:100DF0000F930E94AF32B801CE0101960E94773264
:100E0000F8011082F50180819181F2E0AF0EB11CF2
:100E10009F938F935F924F921F930F930E94AF32D5
:100E2000B801CE0101960E9477320FB6F894DEBF6A
:100E30000FBECDBF2E143F0409F0B9CFBE016F5FC6
:100E40007F4FCE018D599F4F0E94431160919603B1
:100E500070919703CE01835A9F4F0E944311BE01A8
:100E60006D597F4FCE01835A9F4F0E947C19CE014E
:100E7000835A9F4F0E943511CE018D599F4F0E947A
:100E800035110E948E206CEE71E08091920390915A
:100E900093030E946432892B09F075C080918E0300
:100EA00090918F030E94382F6C0180918C03909158
:100EB0008D030E94382F7C018091900390919103C3
:100EC0000E94382F8730910519F501E113E043E0C6
:100ED000A42E43E0B42E5FE1852E53E0952EF80159
:100EE000D182C082F501F182E082B8018CED90E000
:100EF0000E94251DB5018EED90E00E94251D0E5F1C
:100F00001F4FF2E0AF0EB11C8016910641F71AC0D8
:100F100087309105B8F4880F991FBC016F5E7C4F34
:100F2000FB01D182C0828C010D5F1C4FF801F18260
:100F3000E0828CED90E00E94251DB8018EED90E0DE
:100F40000E94251D0E948E2061E971E0CE01895B1F
:100F50009F4F0E9443116091960370919703CE01B9
:100F600001960E944311BE01695B7F4FCE0101963D
:100F70000E947C19CE0101960E943511CE01895B39
:100F80009F4F0E94351162EF71E080919203909122
:100F900093030E946432892B49F580918E039091CE
:100FA0008F030091900310919103009711F440E09A
:100FB00003C00E94382F482F65E4C8010E947B15AA
:100FC0008C01181619061CF40E948E2008C042E3FA
:100FD00050E068E070E089E595E00E94E11CB8010E
:100FE00080919603909197030E94610366EF71E0F0
:100FF00080919203909193030E946432892B09F0AF
:1010000064C040E065E480919003909191030E9458
:101010007B1531E020E0181619060CF030E0032FA4
:10102000122F80918E0390918F03892B99F068EE97
:1010300073E080E090E00E94ED2440E065E4809160
:101040008E0390918F030E947B151816190614F4D5
:101050000F5F1F4F80918C0390918D03892B99F026
:1010600068EE73E080E090E00E94ED2440E065E4EB
:1010700080918C0390918D030E947B1518161906A0
:1010800014F40F5F1F4F80918A0390918B03892B7B
:1010900099F068EE73E080E090E00E94ED2440E07B
:1010A00065E480918A0390918B030E947B1518164A
:1010B000190614F40F5F1F4F0E948E20B801809113
:1010C0009603909197030E9461036BEF71E080910A
:1010D0009203909193030E946432892BE1F48091F2
:1010E0009003909191030E9420188C011816190604
:1010F0001CF40E948E2008C042E350E068E070E0DB
:1011000089E595E00E94E11CB801809196039091D9
:1011100097030E9461036FEF71E0809192039091B9
:1011200093030E946432892B79F443E063E5809154
:101130009003909191030E947B15BC0180919603CE
:10114000909197030E94610363E072E080919203A3
:10115000909193030E946432892B49F561E070E01D
:1011600080919003909191030E949101609190036E
:1011700070919103CE01895B9F4F0E944311609152
:10118000960370919703CE0101960E944311BE0110
:10119000695B7F4FCE0101960E947C19CE010196BA
:1011A0000E943511CE01895B9F4F0E9435116AE084
:1011B00072E080919203909193030E946432892B94
:1011C00049F562E070E080919003909191030E9454
:1011D00091016091900370919103CE01895B9F4FC3
:1011E0000E9443116091960370919703CE0101967E
:1011F0000E944311BE01695B7F4FCE0101960E94A0
:101200007C19CE0101960E943511CE01895B9F4F5A
:101210000E94351161E172E08091920390919303F5
:101220000E946432892B49F563E070E0809190035D
:10123000909191030E9491016091900370919103AC
:10124000CE01895B9F4F0E9443116091960370917C
:101250009703CE0101960E944311BE01695B7F4F47
:10126000CE0101960E947C19CE0101960E94351193
:10127000CE01895B9F4F0E94351168E172E0809139
:101280009203909193030E946432892B49F564E0A4
:1012900070E080919003909191030E949101609180
:1012A000900370919103CE01895B9F4F0E9443117F
:1012B0006091960370919703CE0101960E944311AD
:1012C000BE01695B7F4FCE0101960E947C19CE0161
:1012D00001960E943511CE01895B9F4F0E94351106
:1012E0006FE172E080919203909193030E946432C7
:1012F000892B09F03FC081E08093240381E090E0D6
:101300009A838983BE016F5F7F4F82E390E00E94E2
:10131000251D80919003909191030E94382F909306
:1013200021038093200360E273E086E390E00E9453
:10133000251D0E948E2067E272E0CE01895B9F4FDF
:101340000E9443116091960370919703CE0101961C
:101350000E944311BE01695B7F4FCE0101960E943E
:101360007C19CE0101960E943511CE01895B9F4FF9
:101370000E9435116AE272E080919203909193038A
:101380000E946432892B71F58EE095E00E94CD1C9D
:10139000109224031A821982BE016F5F7F4F82E38D
:1013A00090E00E94251D63E372E0CE01895B9F4FB0
:1013B0000E9443116091960370919703CE010196AC
:1013C0000E944311BE01695B7F4FCE0101960E94CE
:1013D0007C19CE0101960E943511CE01895B9F4F89
:1013E0000E94351167E372E080919203909193031C
:1013F0000E946432892B89F580919003909191032A
:101400000E94382F21E0892B09F420E02093220349
:1014100062E273E08EE390E00E942A1E61E971E0CF
:10142000CE01895B9F4F0E9443116091960370919A
:101430009703CE0101960E944311BE01695B7F4F65
:10144000CE0101960E947C19CE0101960E943511B1
:10145000CE01895B9F4F0E9435116DE372E0809150
:101460009203909193030E946432892B79F58091C5
:101470009003909191030E94382F809323030E9440
:101480008E2063E273E084E390E00E942A1E61E90B
:1014900071E0CE01895B9F4F0E94431160919603DA
:1014A00070919703CE0101960E944311BE01695BC2
:1014B0007F4FCE0101960E947C19CE0101960E94B9
:1014C0003511CE01895B9F4F0E94351165E472E0B2
:1014D00080919203909193030E946432892BA9F525
:1014E00080919003909191030E94382F21E0892BE5
:1014F00009F420E0209325030E948E2065E273E02A
:1015000088E290E00E942A1E6091900370919103FE
:10151000CE01895B9F4F0E944311609196037091A9
:101520009703CE0101960E944311BE01695B7F4F74
:10153000CE0101960E947C19CE0101960E943511C0
:10154000CE01895B9F4F0E9435116BE472E0809160
:101550009203909193030E946432892B91F460E18D
:1015600071E080919603909197030E94F6149093F6
:101570003103809330036DE271E081E294E00E94D8
:10158000161462E572E080919203909193030E9499
:101590006432892BA1F561E08EE290E00E94BC2FBD
:1015A00061E971E0CE01895B9F4F0E944311609118
:1015B000960370919703CE0101960E944311BE01DC
:1015C000695B7F4FCE0101960E947C19CE01019686
:1015D0000E943511CE01895B9F4F0E9435119EE01C
:1015E00088E10FB6F894A895809360000FBE9093A1
:1015F000600060ED77E080E090E00E94ED2467E518
:1016000072E080919203909193030E946432892B3F
:1016100011F40E94D52163E671E0809192039091CC
:1016200093030E946432892B89F5809190039091F5
:1016300091030E94382F21E0892B09F420E02093A8
:10164000020362E073E08CE490E00E942A1E61E9EC
:1016500071E0CE01895B9F4F0E9443116091960318
:1016600070919703CE0101960E944311BE01695B00
:101670007F4FCE0101960E947C19CE0101960E94F7
:101680003511CE01895B9F4F0E9435116BE572E0E9
:1016900080919203909193030E946432892B81F48C
:1016A00080919003909191030E94382F90932F0383
:1016B00080932E036EE273E08EE490E00E94251D7D
:1016C0006FE572E080919203909193030E946432DF
:1016D000892B09F083C1198280919D031F928F93FA
:1016E00086E692E09F938F938E01095B1F4F1F93B5
:1016F0000F930E94AF32B801CE0101960E9477325B
:10170000F801108280919E031F928F938CE692E0E5
:101710009F938F931F930F930E94AF32B801CE0116
:1017200001960E947732F801108280919F031F92E8
:101730008F9384E792E09F938F931F930F930E9460
:10174000AF32B801CE0101960E947732F8011082C3
:101750008091A0031F928F938AE792E09F938F93CB
:101760001F930F930E94AF32B801CE0101960E94E1
:101770007732F8011082809122031F928F9381E8C3
:1017800092E09F938F931F930F930E94AF32B80103
:10179000CE0101960E947732F801108280910203F7
:1017A0001F928F9384EEE82E82E0F82EFF92EF9244
:1017B0001F930F930E94AF320FB6F894DEBF0FBE97
:1017C000CDBFB801CE0101960E947732F801108298
:1017D00080912F038F9380912E038F93FF92EF922E
:1017E0001F930F930E94AF32B801CE0101960E9461
:1017F0007732F8011082809124031F928F9389E839
:1018000092E09F938F931F930F930E94AF32B80182
:10181000CE0101960E947732F80110828091230355
:101820001F928F9383E992E09F938F931F930F935F
:101830000E94AF32B801CE0101960E947732F801C2
:101840001082809121038F93809120038F9388E9E8
:1018500092E09F938F931F930F930E94AF32B80132
:10186000CE0101960E947732F8011082CE018A5A89
:101870009F4F0E94601DCE018A5A9F4F0E941D1EDD
:10188000E82FF0E0EE0FFF1FEF5EFC4F81818F939A
:1018900080818F938DE992E09F938F931F930F9395
:1018A0000E94AF32B801CE0101960E947732F80152
:1018B0001082CE018A5A9F4F0E941D1EE82FF0E031
:1018C000EE0FFF1FED5FFC4F81818F9380818F931F
:1018D000FF92EF921F930F930E94AF320FB6F894CE
:1018E000DEBF0FBECDBFB801CE0101960E94773298
:1018F000F80110826A968FAD6A971F928F93679650
:101900008FAD67971F928F9368968FAD68971F92E0
:101910008F9369968FAD69971F928F9383EA92E0B8
:101920009F938F931F930F930E94AF32B801CE0104
:1019300001960E947732F80110826B968FAD6B97FB
:101940000FB6F894DEBF0FBECDBF8A3028F41F92C9
:101950008F9381EB92E004C01F928F9385EE92E00B
:101960009F938F931F930F930E94AF320F900F900E
:101970000F900F900F900F90B801CE0101960E942A
:101980007732F801108265EB72E0CE0101960E9479
:101990007732BE016F5F7F4FCE018D599F4F0E94FE
:1019A00043116091960370919703CE01835A9F4F24
:1019B0000E944311BE016D597F4FCE01835A9F4F44
:1019C0000E947C19CE01835A9F4F0E943511CE018F
:1019D0008D599F4F0E9435110E948E206FEB72E04F
:1019E00080919203909193030E946432892B89F530
:1019F00080919003909191030E94382F21E0892BD0
:101A000009F420E02093A20362EA73E088EC90E0FE
:101A10000E942A1E61E971E0CE01895B9F4F0E94FE
:101A200043116091960370919703CE0101960E9435
:101A30004311BE01695B7F4FCE0101960E947C1964
:101A4000CE0101960E943511CE01895B9F4F0E9405
:101A5000351163EC72E080919203909193030E94A0
:101A60006432892BC9F480919003909191030E9474
:101A7000382F2091A5033091A603280F391F253F49
:101A8000314054F49093A4038093A30363EA73E07A
:101A90008EE690E00E94251D69EC72E08091920331
:101AA000909193030E946432892B09F050C01982EF
:101AB000609190037091910344E150E0CE01019652
:101AC0000E94A0329E012F5F3F4F790102ED10E08E
:101AD000F70161917F0129961FAF0EAF2997CE01C3
:101AE000895B9F4F0E94F5010F5F1F4F063E110556
:101AF00079F780918E0390918F030E94382F682F81
:101B00008DEC90E00E94BC2FBE016F5F7F4FCE0135
:101B10008A5A9F4F0E9443116091960370919703D8
:101B2000CE01895B9F4F0E944311BE016A5A7F4FCD
:101B3000CE01895B9F4F0E947C19CE01895B9F4F2C
:101B40000E943511CE018A5A9F4F0E9435116CECCC
:101B500072E080919203909193030E946432892BEA
:101B600011F581E08093A10361E971E0CE01895B09
:101B70009F4F0E9443116091960370919703CE018D
:101B800001960E944311BE01695B7F4FCE01019611
:101B90000E947C19CE0101960E943511CE01895B0D
:101BA0009F4F0E94351162ED72E0809192039091F7
:101BB00093030E946432892B09F056C0A5961FAE8C
:101BC0001EAEA5976F961FAE1EAE6F97BE01635AED
:101BD0007F4FCE018D599F4F0E94ED17198287E0EC
:101BE0008F9380ED8F936F968FAD6F978F936E96D7
:101BF0008FAD6E978F93A5968FADA5978F93A49673
:101C00008FADA4978F9389ED92E09F938F938E0170
:101C10000F5F1F4F1F930F930E94AF32B801CE0189
:101C20008A5A9F4F0E9443116091960370919703C7
:101C3000CE01895B9F4F0E944311BE016A5A7F4FBC
:101C4000CE01895B9F4F0E947C19CE01895B9F4F1B
:101C50000E943511CE018A5A9F4F0E9435110FB64E
:101C6000F894DEBF0FBECDBF68EE72E080919203A4
:101C7000909193030E946432892B71F5CE010196F5
:101C80000E947D1ABE016F5F7F4F84E196E00E9443
:101C90005C10CE0101960E94351164E176E0CE0120
:101CA000895B9F4F0E943A11609196037091970350
:101CB000CE0101960E944311BE01695B7F4FCE01A8
:101CC00001960E947C19CE0101960E943511CE0129
:101CD000895B9F4F0E943511C859DF4F0FB6F894AA
:101CE000DEBF0FBECDBFDF91CF911F910F91FF904F
:101CF000EF90DF90CF90BF90AF909F908F907F90AC
:101D00006F905F904F903F902F900895089540916D
:101D100085035091860320918303309184034217F9
:101D20005307B4F49091E8009570E1F39091E800C6
:101D300092FD19C08093F1008091850390918603F4
:101D400001968F739927892B19F48EEF8093E80001
:101D500080918503909186030196909386038093EA
:101D6000850381E0089580E00895DF92EF92FF926D
:101D70000F931F93CF93DF93D82EF92EE42E062FC7
:101D800010E0C8010196880F0E94870E83E00E9430
:101D9000870ECD2DDF2D0C0F1D1FC017D10789F029
:101DA000E7FE03C0FE01849101C088810E94870E76
:101DB000F82E80E00E94870E8F2121968111EDCFB1
:101DC00001C081E0DF91CF911F910F91FF90EF90C3
:101DD000DF900895DF92EF92FF920F931F93CF93BE
:101DE000DF93D82E8A017B01E40EF51EEB01CE15A0
:101DF000DF0571F0D7FE03C0FE01849101C0888128
:101E00000E94870E21968111F2CF8FEF9FEF01C0C4
:101E1000C801DF91CF911F910F91FF90EF90DF905C
:101E20000895615030F02091F100FC01208301966B
:101E3000F8CF289884E6809388030895CF92DF92A4
:101E4000EF92FF920F931F93CF93DF936C017A0170
:101E50008B01C0E0D0E0CE15DF0581F0D8016D9197
:101E60008D01D601ED91FC910190F081E02DC6012C
:101E70000995892B11F02196EECF7E01C701DF91E4
:101E8000CF911F910F91FF90EF90DF90CF90089529
:101E9000FC01538D448D252F30E0842F90E0821B70
:101EA000930B541710F0CF96089501970895FC01F5
:101EB000918D828D981761F0828DDF01A80FB11D81
:101EC0005D968C91928D9F5F9F73928F90E00895A5
:101ED0008FEF9FEF0895FC01918D828D981731F05F
:101EE000828DE80FF11D858D90E008958FEF9FEFB3
:101EF0000895FC01918D228D892F90E0805C9F4F89
:101F0000821B91098F739927089581E294E00E94C2
:101F1000790F21E0892B09F420E0822F0895FC013C
:101F2000848DDF01A80FB11DA35ABF4F2C91848D62
:101F300090E001968F739927848FA689B7892C9397
:101F4000A089B1898C9182748C93938D848D981320
:101F500006C00288F389E02D80818F7D80830895FB
:101F6000EF92FF920F931F93CF93DF93EC0181E0E9
:101F7000888F9B8D8C8D981305C0E889F9898081A5
:101F800085FD26C0F62E0B8D10E00F5F1F4F0F73DF
:101F90001127E02E8C8DE8120CC00FB607FCFACF8B
:101FA000E889F989808185FFF5CFCE010E948F0FE6
:101FB000F1CF8B8DFE01E80FF11DE35AFF4FF08248
:101FC0009FB7F8940B8FEA89FB898081806209C0F2
:101FD0009FB7F894EE89FF896083E889F989808149
:101FE000827480839FBF81E090E0DF91CF911F9149
:101FF0000F91FF90EF900895CF93DF93EC01888DC0
:102000008823C9F0EA89FB89808185FD05C0A889FC
:10201000B9898C9186FD0FC00FB607FCF5CF808182
:1020200085FFF2CFA889B9898C9185FFEDCFCE01CC
:102030000E948F0FE7CFDF91CF91089580E090E06D
:10204000892B29F00E94850F81110C9400000895BE
:102050000E9456320F931F93CF93DF931F92CDB7F9
:10206000DEB782E0898342E450E066E371E080E815
:102070000E94EA0E0E944524DC0112960D911C91EB
:1020800013970115110589F0D801ED91FC9102809B
:10209000F381E02DBE016F5F7F4FC801099597FD69
:1020A00004C0F80100851185ECCF89810F90DF9184
:1020B000CF911F910F9108950F931F93CF93DF93AB
:1020C0008C01EB01FC0180819181009739F06881DE
:1020D000798161157105A1F40E9407318881998188
:1020E000F801918380838A819B81938382838C8191
:1020F0009D8195838483198218821B821A820FC066
:10210000F801428153812C813D814217530720F30E
:102110000E948B328C819D81F801958384831D827E
:102120001C82DF91CF911F910F9108950F931F9300
:10213000CF93DF93EC0188819981009729F02A8160
:102140003B812617370788F48B016F5F7F4F0E9412
:102150009031009761F0998388831B830A832C81D7
:102160003D81232B11F4FC01108281E001C080E04D
:10217000DF91CF911F910F910895EF92FF920F93EE
:102180001F93CF93DF936115710511F480E01CC09C
:1021900041155105C1F07B01EC018C819D818A01C3
:1021A000080F191FB801CE010E949610882371F301
:1021B000288139818C819D81B701820F931F0E94F4
:1021C0008B321D830C8381E0DF91CF911F910F91A2
:1021D000FF90EF900895CF93DF93EC018881998170
:1021E000009711F00E940731198218821D821C820B
:1021F0001B821A82DF91CF910895EF92FF920F9385
:102200001F93CF93DF93EC017B018A01BA010E94F7
:102210009610811104C0CE010E94EB1007C01D83EF
:102220000C83B701888199810E948B32CE01DF91A6
:10223000CF911F910F91FF90EF900895CF93DF936F
:10224000EC01FB018617970761F0608171816115D0
:10225000710529F0448155810E94FD1002C00E9441
:10226000EB10CE01DF91CF910895FC018081918127
:102270000C940731FC0111821082138212821582A4
:1022800014820C941E11FC0111821082138212829E
:10229000158214826115710551F0FB010190002037
:1022A000E9F73197AF01461B570B0C94FD100895C9
:1022B0001F920F920FB60F9211248F939F938091CC
:1022C000E1009091E100937F9093E10083FF0FC0C4
:1022D0001092E90091E09093EB001092EC0092E3F1
:1022E0009093ED001092890398E09093F00082FFA4
:1022F00020C093E09093E9009091F200992319F0A7
:102300009AE39093E80090918203992339F0909199
:102310008203915090938203992389F190918803CD
:10232000992339F0909188039150909388039923D1
:1023300041F184FF10C08091E2008E7E8160809325
:10234000E2008091E1008F7E8093E10080910003A4
:102350008E7E806111C080FF16C08091E2008E7E6B
:1023600080618093E2008091E1008E7E8093E100A5
:10237000809100038E7E81608093000304C05D9A8B
:10238000CDCF289AD6CF9F918F910F900FBE0F90EF
:102390001F9018951F920F920FB60F921124CF9293
:1023A000DF92EF92FF920F931F932F933F934F93E0
:1023B0005F936F937F938F939F93AF93BF93EF93AD
:1023C000FF93CF93DF93CDB7DEB76C97DEBFCDBF62
:1023D0001092E9008091E80083FFFBC168E0CE0124
:1023E00045960E94110F82EF8093E8008D8987FF48
:1023F00005C09091E80090FFFCCF03C09EEF909342
:10240000E800982F907609F0C6C09E894F89588DB4
:102410002F89F88C91110CC0803829F48091010328
:102420008093F10002C01092F1001092F10045C1BA
:10243000913051F4811141C14130510509F03DC144
:10244000809101038D7F0BC0933061F4811135C100
:102450004130510509F031C18091010382608093C0
:1024600001032BC1953049F48091E80080FFFCCF37
:10247000822F80688093E30020C1963009F05EC00F
:102480000B8D1C8D22E01092E900109286031092B1
:102490008503F21232C010928403109283030E94CB
:1024A0002A1099E0BE016F5F7F4FDB01E92F1D927B
:1024B000EA95E9F79983FA8291E09E8390EA9887FA
:1024C0009AEF99872091850330918603275F3F4FCC
:1024D0003C832B838D831092E90010928603109227
:1024E0008503109384030093830349E050E080E068
:1024F0000E94EA0E0E942A10E0C010938403009309
:1025000083030E944524DC0112960D911C911397C0
:102510000115110509F4BBC0D801ED91FC910480AF
:10252000F581E02DBE016B5E7F4FC80109950097D4
:1025300009F0C7C0F80100851185EACF973009F48A
:1025400045C1983021F481E08093F100B6C0993004
:1025500009F0B3C0837009F039C1EFE1F1E081E027
:1025600031E096E32081211109C08EE78093EA00D3
:102570001092EA008F89809389039FC08093E900BD
:102580003093EB0021912093EC009093ED008F5F4E
:10259000873041F7EACF8B8D9C8D1092E900109225
:1025A0008603109285039093840380938303898D1F
:1025B000811153C08E899D89913A49F4813209F085
:1025C00005C147E050E068E071E080E0BBC09132B7
:1025D00009F0FCC0833269F48F89988DA0E0B0E0E7
:1025E0008093040190930501A0930601B093070125
:1025F00064C0803269F48091E80082FFFCCF67E01C
:1026000088E091E00E94110F8BEF8093E80055C0A5
:10261000823209F052C08F8980930F01EEEFFFE7FD
:10262000859194918B3F9C4D19F0E0E0F8E002C059
:10263000EEEFFAE08091080190910901A0910A0162
:10264000B0910B01803B9440A105B10509F09EC0FB
:1026500080910F0180FF79C099C00E944524FC0140
:10266000028113810115110509F4B0C0D801ED9163
:10267000FC910190F081E02DBE016B5E7F4FC8019F
:10268000099581111AC0F80100851185EBCFF1E0A1
:10269000FF1609F44EC0F3E0FF1298C08F8988231B
:1026A00009F44AC0823089F440E862E187E991E0A8
:1026B0000E94B50E882309F489C08EEF8093E8004C
:1026C00088C018161906CCF381C0813029F440E87F
:1026D00068E08EE891E0ECCF833009F077C00E948B
:1026E0004524DC011296ED90FC9013978E010F5F4C
:1026F0001F4F6801E114F10479F0D701ED91FC91CD
:102700000680F781E02DB801C7010995080F111D5A
:10271000F701E084F184EECFD8011C92F60101901C
:102720000020E9F73197BF016C197D0940E0C6012F
:10273000BFCF6CE771E002C068E771E0FB01449134
:1027400050E080E80E94EA0EB8CFEE3F2AE0F207A0
:1027500051F0808191818737A7E79A0721F0909304
:10276000FF0A8093FE0A87E797E791838083809131
:102770006000809387039BE088E10FB6F894A895EA
:10278000809360000FBE9093600097CF808191810D
:102790008737974709F091CFA895809160008861AD
:1027A000809360008091870380936000EE3FBAE0E1
:1027B000FB0739F08091FE0A9091FF0A9183808394
:1027C0007CCF1092FF0A1092FE0A77CF81E28093AD
:1027D000EB006C960FB6F894DEBF0FBECDBFDF9155
:1027E000CF91FF91EF91BF91AF919F918F917F9189
:1027F0006F915F914F913F912F911F910F91FF909A
:10280000EF90DF90CF900F900FBE0F901F90189514
:10281000DB0114964D915C9115976D917C91DC01D3
:10282000ED91FC910280F381E02D0994EF92FF92EB
:102830000F931F93CF93DF938C017B01C0E0D0E017
:10284000F701EC0FFD1F6491662361F0D801ED9153
:10285000FC910190F081E02DC8010995892B11F0C0
:102860002196EECFCE01DF91CF911F910F91FF9076
:10287000EF9008956115710579F0FB01019000203A
:10288000E9F73197AF01461B570BDC01ED91FC9145
:102890000280F381E02D099480E090E008956DEED0
:1028A00072E00C943A140F931F93CF93DF93EC01D3
:1028B0000E9408148C01CE010E944F14800F911FBA
:1028C000DF91CF911F910F9108951F920F920FB634
:1028D0000F9211242F933F934F935F936F937F93A6
:1028E0008F939F93AF93BF93EF93FF9381E294E015
:1028F0000E948F0FFF91EF91BF91AF919F918F91A8
:102900007F916F915F914F913F912F910F900FBEEB
:102910000F901F9018951F920F920FB60F921124CF
:102920002F938F939F93EF93FF93E0913104F09156
:1029300032048081E0913704F091380482FD12C0A6
:10294000908180913A048F5F8F7320913B048217AE
:1029500051F0E0913A04F0E0EF5DFB4F958F8093EA
:102960003A0401C08081FF91EF919F918F912F9147
:102970000F900FBE0F901F901895EF92FF920F933C
:102980001F93CF93DF93CDB7DEB729970FB6F89497
:10299000DEBF0FBECDBF8C01862FF80111821082E1
:1029A00013821282158214824AE09E012F5F3F4FEC
:1029B0007901B90190E00E948A2FF701019000206F
:1029C000E9F73197AF014E195F09B701C8010E94BD
:1029D000FD1029960FB6F894DEBF0FBECDBFDF9174
:1029E000CF911F910F91FF90EF9008952F923F92FA
:1029F0004F925F926F927F928F929F92AF92BF920F
:102A0000CF92DF92EF92FF920F931F93CF93DF93BA
:102A1000482E392E3B01C12CD12CC1E0D0E0809151
:102A200068059091690505968C179D070CF44EC0BA
:102A3000E42CF32C560100E010E0502E82E090E0F0
:102A40000E946F304C010F5F1F4FA801440F551FAC
:102A5000B701C4010E945B32F4011282C5010E94D9
:102A60000821282EC4010E94382F222D30E028177B
:102A7000390789F48114910419F0C4010E940731C7
:102A8000502EF2E0EF0EF11C8FEFA81AB80A0730B3
:102A9000110599F606C08114910419F0C4010E9431
:102AA0000731E7E0CE0ED11CF5E0F51568F427E01C
:102AB0002C9FC0012D9F900D112401970E94082189
:102AC000F3018083CE0104C02196A9CF80E090E07D
:102AD000DF91CF911F910F91FF90EF90DF90CF90FA
:102AE000BF90AF909F908F907F906F905F904F902E
:102AF0003F902F900895CF92DF92EF92FF920F9325
:102B00001F93CF93DF931F92CDB7DEB74983FC01AC
:102B100001900020E9F73197E81BF90BEB30F10544
:102B200018F480E090E030C0DC01E80FF91F2D912F
:102B3000022E000C330B205331092A30310588F75F
:102B4000AE17BF07A1F7F62E8C01BE016F5F7F4F56
:102B50000E94F614892B29F78F2D0E9470217C0189
:102B600018161906F4F6019727E0289F6001299F9F
:102B7000D00C1124B601C8010E94BE206981C60193
:102B800006960E949620C7010F90DF91CF911F916A
:102B90000F91FF90EF90DF90CF900895FC0124817A
:102BA0003581232B49F069E871E0808191810E9491
:102BB000823221E0892B09F020E0822F0895EF92E4
:102BC000FF920F931F93CF93DF9300D0CDB7DEB763
:102BD0008DE9E82E83E0F82E0AE010E0F70161911C
:102BE0007F011A830983CE0101960E94F5010F5FD0
:102BF0001F4F0E30110591F78DE993E00F900F9064
:102C0000DF91CF911F910F91FF90EF900895CF9298
:102C1000DF92EF92FF920F931F93CF93DF9300D039
:102C2000CDB7DEB76C017C0100E010E0F7016191E7
:102C30007F011A830983CE0101960E94F5010F5F7F
:102C40001F4F0730110591F7C6010F900F90DF91CC
:102C5000CF911F910F91FF90EF90DF90CF9008954B
:102C6000FB0144815581608171810C94BD10CF932B
:102C7000DF93BC018EEB94E00E941614EC018EEB06
:102C800094E00E944F148C0F9D1FDF91CF91089507
:102C90008F929F92AF92BF920F931F93CF93DF9328
:102CA000CDB7DEB7A1970FB6F894DEBF0FBECDBF8C
:102CB00019A2423008F44AE08E010F5D1F4F842EA6
:102CC000912CA12CB12CA50194010E942F30E62F4C
:102CD000B901CA0101501109EA3014F4E05D01C0E4
:102CE000E95CD801EC93232B242B252B61F7B80149
:102CF0008EEB94E00E943A14A1960FB6F894DEBFD2
:102D00000FBECDBFDF91CF911F910F91BF90AF90BC
:102D10009F908F900895CF92DF92EF92FF92CF9382
:102D2000DF936C01990FEE08FF08F7FE19C06DE202
:102D30008EEB94E00E94B91BEC0166277727CB014C
:102D40006C197D098E099F094AE00E9448168C0F74
:102D50009D1FDF91CF91FF90EF90DF90CF9008956E
:102D60004AE0C701B601DF91CF91FF90EF90DF906D
:102D7000CF900C944816CF93DF930E948B16EC01F2
:102D80008EEB94E00E944F148C0F9D1FDF91CF912A
:102D900008959F92AF92BF92CF92DF92EF92FF92EF
:102DA0000F931F93CF93DF9300D0CDB7DEB76C01A5
:102DB000B62E7A011A821982BE016F5F7F4F80E5BD
:102DC00090E00E944C1D89819A818C5E9A4F2DE083
:102DD000289F8001299F100D1124B801C6010E946F
:102DE000BE20F701A0809180C380D4806281C80199
:102DF00007960E949620692DC80108960E94962089
:102E00006A2DC80109960E9496206C2DC8010A9669
:102E10000E9496206D2DC8010B960E9496206B2D66
:102E2000C8010C960E94962089819A810196843F60
:102E3000F1E09F0719F09A83898302C01A821982F0
:102E4000BE016F5F7F4F80E590E00E94251D0F90CF
:102E50000F90DF91CF911F910F91FF90EF90DF9036
:102E6000CF90BF90AF909F900895CF92DF92EF9256
:102E7000FF920F931F93CF93DF93EC0188814A81D8
:102E8000698190E00E94EB1D9C01A8E1B0E00E94E6
:102E90000C302B817B018C01E20EF11C011D111DF8
:102EA000A8019701ACE3B0E00E94CA2F2C817B01FE
:102EB0008C01E20EF11C011D111DA80197010E9459
:102EC000CA2F2D816B017C01C20ED11CE11CF11CAB
:102ED0000E94272528EE33E040E050E00E942F308A
:102EE000C21AD30AE40AF50A00E8C01A0CEBD00AA9
:102EF00002E9E00A07ECF00AC0929903D0929A0323
:102F0000E0929B03F0929C03DF91CF911F910F9170
:102F1000FF90EF90DF90CF9008950F931F93CF9382
:102F2000DF93EC01092E000CAA0BBB0B80935D050F
:102F300090935E05A0935F05B09360050E942725DE
:102F4000AB01BC018091640590916505A091660577
:102F5000B09167058A019B01081B190B2A0B3B0BDB
:102F600080915D0590915E05A0915F05B09160052F
:102F7000081719072A073B0758F180915B05811153
:102F800013C081E080935B05C43F81E0D80774F0F3
:102F9000CE01845F9140092E000CAA0BBB0B481B8D
:102FA000590B6A0B7B0B02C010925B0540936405C2
:102FB00050936505609366057093670560915B05A6
:102FC00080915905DF91CF911F910F910C9482242C
:102FD000DF91CF911F910F910895DF92EF92FF92B1
:102FE0000F931F93CF93DF938C017B01C0E0D0E060
:102FF00087E0D82E2091680530916905D29EC001E6
:10300000D39E900D11248C179D0794F0CE010E9441
:103010000821882359F0CD31D10514F4F80101C0FD
:10302000F701808191810196918380832796E2CF79
:10303000DF91CF911F910F91FF90EF90DF90089556
:10304000CF92DF92EF92FF920F931F93CF93DF9374
:103050001F92CDB7DEB71982BE016F5F7F4F0E940E
:10306000F6147C01019727E0289F6001299FD00C6E
:10307000112400E010E060E0C8018C0D9D1D0E944D
:1030800096200F5F1F4F07301105A9F7C7010F905A
:10309000DF91CF911F910F91FF90EF90DF90CF9034
:1030A00008956115710551F0FB0101900020E9F7C9
:1030B0003197AF01461B570B0C94BD1080E008956B
:1030C000CF93DF93BC018EEB94E00E943A14EC01A5
:1030D0008EEB94E00E944F148C0F9D1FDF91CF91D7
:1030E00008954F925F926F928F929F92AF92BF928C
:1030F000CF92DF92EF92FF921F93CF93DF931092C4
:1031000097031092960310929503109294031092D5
:1031100093031092920310929103109290031092D5
:103120008F0310928E0310928D0310928C031092D5
:103130008B0310928A03DC01ED91FC9190819093B6
:10314000980380916A05813529F49435E1F0913531
:1031500061F41BC08C3439F49435D1F0913549F0C9
:103160009934E9F406C09435A9F013E0933411F4CE
:1031700014C012E0892F8D7F893479F09B7F9135BF
:1031800009F06CC00AC0C7E006C0C0E012E00CC085
:10319000C8E001C0C0E013E007C0C0E005C0933440
:1031A00009F05AC0C0E018E06FEA72E0CF010E9457
:1031B000562F612CD0E04E01B4E08B0E911C2E01F5
:1031C00025E0420E511C7E01A6E0EA0EF11C6E01C4
:1031D000B7E0CB0ED11C5E0128E0A20EB11C2996EF
:1031E0000097E1F16394611204C090939703809378
:1031F0009603262D30E02815390521F49093950388
:10320000809394032415350521F4909393038093C0
:1032100092032E153F0521F4909391038093900320
:103220002C153D0521F490938F0380938E032A156E
:103230003B0521F490938D0380938C032C173D075D
:1032400021F490938B0380938A0360EF72E080E017
:1032500090E00E94562FC4CF13E08CCFDF91CF9126
:103260001F91FF90EF90DF90CF90BF90AF909F9015
:103270008F906F905F904F90089520918903211156
:1032800003C08FEF9FEF08955FB7F89422E020937B
:10329000E9002091F20030E01216130614F421E048
:1032A00030E0422FFC0184E6415038F028988093AA
:1032B00088039091F1009193F7CF2115310521F00A
:1032C0008091F200882319F05FBFC90108958BE651
:1032D0008093E800F9CF2FB7F89483E08093E9005A
:1032E0009091E800892F807295FF04C09091F200C0
:1032F00080E4891B2FBF0895EF92FF920F931F93D5
:10330000CF93DF9300D000D000D0CDB7DEB77C01E3
:103310008B01CE0101960E94C121CE0101960E942F
:10332000351164E670E080E090E00E94ED2463E2F5
:1033300072E081E294E00E941614B70181E294E009
:103340000E94081460E272E081E294E00E94161488
:1033500064E670E080E090E00E94ED24B80181E234
:1033600094E00E94531464E670E080E090E00E94D4
:10337000ED246AE181E294E00E94B00F6CED75E00B
:1033800080E090E00E94ED24CE0101960E94C121D0
:10339000CE0101960E94351126960FB6F894DEBF35
:1033A0000FBECDBFDF91CF911F910F91FF90EF9096
:1033B0000895CF93DF9300D000D000D0CDB7DEB713
:1033C000CE0101960E94C121CE0101960E943511C5
:1033D00064E172E081E294E00E94161464EF71E00F
:1033E00080E090E00E94ED24CE0101960E94C12170
:1033F000CE0101960E94351168E072E081E294E00E
:103400000E94161464EF71E080E090E00E94ED24C9
:10341000CE0101960E94C121CE0101960E94351174
:103420006CEF71E081E294E00E94161464EF71E0A9
:1034300080E090E00E94ED24CE0101960E94C1211F
:10344000CE0101960E94351168EE71E081E294E0B0
:103450000E94161464EF71E080E090E00E94ED2479
:10346000CE0101960E94C121CE0101960E94351124
:1034700069EC71E081E294E00E94161464EF71E05F
:1034800080E090E00E94ED24CE0101960E94C121CF
:10349000CE0101960E94351162EC71E081E294E068
:1034A0000E94161464EF71E080E090E00E94ED2429
:1034B000CE0101960E94C121CE0101960E943511D4
:1034C00064EB71E081E294E00E94161464E670E01F
:1034D00080E090E00E94ED24CE0101960E94C1217F
:1034E000CE0101960E94351126960FB6F894DEBFE4
:1034F0000FBECDBFDF91CF9108950F931F93CF9350
:10350000DF9300D000D000D0CDB7DEB78C01CE0164
:1035100001960E94C121CE0101960E94351164E6F8
:1035200070E080E090E00E94ED246AEA71E081E2C0
:1035300094E00E94161468EE73E080E090E00E9430
:10354000ED2480917705882329F01092770568EEA5
:1035500075E002C06AE971E0C8010E944311C80128
:1035600026960FB6F894DEBF0FBECDBFDF91CF9188
:103570001F910F910895CF92DF92FF920F931F93A7
:10358000CF93DF93CDB7DEB762970FB6F894DEBF67
:103590000FBECDBF8C01F62E6A016FEE72E0CE0138
:1035A0000D960E94431189E06F2D8F15B0F4CE0166
:1035B00001960E94BD14BE016F5F7F4FCE010D9634
:1035C0000E945C10BE01635F7F4FC8010E943A11E8
:1035D000CE0101960E94351142C0CE010196E5E070
:1035E000CE16D10451F40E94BD14BE016F5F7F4F0F
:1035F000CE010D960E945C1021C00E94BD1469E8A6
:1036000071E0CE0107960E9443114D815E81698170
:103610007A81CE0107960E94BD10811104C0CE01AF
:1036200007960E94EB10BE01695F7F4FCE010D9699
:103630000E941E11CE0107960E943511CE010196FF
:103640000E943511F80111821082138212821582B4
:103650001482BE01635F7F4FC8010E945C10CE01DF
:103660000D960E943511C80162960FB6F894DEBF20
:103670000FBECDBFDF91CF911F910F91FF90DF90D3
:10368000CF900895BF92CF92DF92EF92FF920F9367
:103690001F93CF93DF93CDB7DEB72C970FB6F89477
:1036A000DEBF0FBECDBF8C016B016FEE72E0CE01AD
:1036B00007960E94431187E08C9D70018D9DF00C50
:1036C0001124C70101970E9408218093100167010E
:1036D00087E0C81AD108B12CE12CF12CC6018E0D5F
:1036E0009F1D0E940821811101C0B39493E09B1596
:1036F00030F469E871E0C8010E94431125C0A701B8
:10370000682FCE0101960E94BB1ABE016F5F7F4FEA
:10371000CE0107960E943016CE0101960E94351107
:10372000EFEFEE1AFE0AF6E0EF16F104B9F6F80133
:10373000118210821382128215821482BE01695F87
:103740007F4FC8010E945C10CE0107960E94351180
:10375000C8012C960FB6F894DEBF0FBECDBFDF9127
:10376000CF911F910F91FF90EF90DF90CF90BF907E
:103770000895CF93DF931F92CDB7DEB76983DC0145
:10378000ED91FC910280F381E02D41E050E0BE011B
:103790006F5F7F4F09950F90DF91CF91089583E080
:1037A0008093E9008091F200882319F08AE38093E6
:1037B000E8000895FC018485958597FD0BC09FB7AF
:1037C000F89482E08093E9008091F2009FBF90E03E
:1037D000019608959FB7F89482E08093E900809164
:1037E000F2009FBF90E0089580E090E008958F92EE
:1037F0009F92AF92BF92CF92DF92EF92FF920F9380
:103800001F93CF93DF936C017B018A0180910F019D
:10381000882309F45CC080918903882309F457C088
:103820008091000380FF05C08091E000826080935A
:10383000E000E801B12C8AEFA82E93E0892E2AE35C
:10384000922E209711F4BB20D9F10E946B1981119F
:103850000AC0AA94AA20D9F161E070E080E090E06B
:103860000E94ED24EECF282F30E0C217D3070CF4CE
:103870008C2F9FB7F8948092E9002091E80025FFF3
:103880001DC0282F30E0C21BD30BF701815020F060
:1038900041914093F100FACFE20EF31EBB2019F0E4
:1038A0009092E8000AC08091E80085FD07C09092E0
:1038B000E800BB24B394209709F0B12C9FBFC1CF7F
:1038C0005D9884E6809382031016110644F081E02F
:1038D00090E0F6019383828380E090E001C0C8010C
:1038E000DF91CF911F910F91FF90EF90DF90CF90DC
:1038F000BF90AF909F908F9008950E946B1990E0B9
:1039000008950F931F93CF93DF931F92CDB7DEB728
:103910008C01FC018485958597FF0EC0CE01019630
:103920000E943D19019719F4898190E002C08FEF40
:103930009FEFF80195878487F801848595850F901E
:10394000DF91CF911F910F910895CF93DF931F9235
:10395000CDB7DEB7FC018485958597FD05C02FEFB7
:103960003FEF358724870BC0CE0101960E943D1999
:10397000019719F4898190E002C08FEF9FEF0F90BB
:10398000DF91CF910895CF93DF93EB010E94B42F85
:103990008883CE01DF91CF91089560E0FC018081A2
:1039A0000C94822461E0FC0180810C948224FC014F
:1039B00080810E94592421E0892B09F420E0822F84
:1039C0000895EF92FF920F931F93CF93DF93EC0133
:1039D000CB01072E000CAA0BBB0B8C839D83AE83FF
:1039E000BF83598748878B81882341F18B01E12C64
:1039F000F12CE016F106C4F461E088810E94822473
:103A00006885798580E090E00E94ED2460E08881FF
:103A10000E9482246885798580E090E00E94ED24F0
:103A20008FEFE81AF80AE5CF60E08881DF91CF9147
:103A30001F910F91FF90EF900C948224DF91CF9112
:103A40001F910F91FF90EF900895EF92FF920F93C7
:103A50001F93CF93DF9300D0CDB7DEB78C017B01EE
:103A6000FB0160819A838983CE0101960E94F50152
:103A7000F70161810F5F1F4F1A830983CE01019601
:103A80000E94F501C7010F900F90DF91CF911F9118
:103A90000F91FF90EF9008950F931F93CF93DF93B3
:103AA0008C01EB010E94B42F8883C80101960E940B
:103AB000B42F8983CE01DF91CF911F910F9108958B
:103AC0008F929F92AF92BF92CF92DF92EF92FF922E
:103AD000CF93DF93EC010E942725C0909903D090EB
:103AE0009A03E0909B03F0909C0320E8C21A23E421
:103AF000D20A2DE6E20A28E3F20A28EE33E040E09B
:103B000050E00E942F30C20ED31EE41EF51E8CE33F
:103B1000882E912CA12CB12CC701B601A5019401CE
:103B20000E942F306D83CA01B901A50194010E9442
:103B30002F306C83C701B60120E13EE040E050E049
:103B40000E942F30CA01B90128E130E040E050E086
:103B50000E942F306B83C701B60120E831E541E0B8
:103B600050E00E942F3018824881542F537081E01A
:103B700009F080E090E0BC0163597E4F26173707BB
:103B800038F0281B390B2D5631404F5F4883ECCF5E
:103B900081E089838981E82FF0E0E45DFD4FE491C5
:103BA000511103C0823009F4EF5FF0E02E173F0798
:103BB00020F02E1B3F0B8F5FECCF2F5F2A83CE01AF
:103BC000DF91CF91FF90EF90DF90CF90BF90AF90BB
:103BD0009F908F900895803D27E0920710F0805DC0
:103BE000974050E0EDE2F2E021E0261730F4349106
:103BF000430F511D2F5F3196F8CF633038F09C0191
:103C000023703327232B11F44F5F5F4FBC016D5F8F
:103C10007F4F7695679576956795EDE6F1E08E9FF7
:103C200090018F9F300D9E9F300D1124C901019787
:103C3000860F971F840F951F0895FC018081428194
:103C4000618190E00E94EB1D069667E070E00E94A3
:103C50001B3008950F931F93CF93DF9300D0CDB700
:103C6000DEB78B01FB0160819A838983CE010196C7
:103C70000E94F501C8010F900F90DF91CF911F9125
:103C80000F9108950F931F93CF93DF9307E213E0F3
:103C9000C0E0D0E0CE010E94B42FF80181938F01E3
:103CA0002196C730D105B1F70DE913E0CAE0D0E0A5
:103CB000CE010E94B42FF80181938F012196CE305E
:103CC000D105B1F765E273E088E290E00E94C31C81
:103CD00064E273E082E390E00E94C31C63E273E05D
:103CE00084E390E00E94C31C60E273E086E390E00E
:103CF0000E944C1D66E273E08CE390E00E94C31CBE
:103D000062E273E08EE390E00E94C31C62E073E025
:103D10008CE490E00E94C31C6EE273E08EE490E0BD
:103D20000E944C1D65EA73E08AE590E00E944C1DFC
:103D300067EA73E084E690E00E944C1D63EA73E05A
:103D40008EE690E00E944C1D62EA73E088EC90E001
:103D50000E94C31CC1E1D3E003E013E0BE018CED7F
:103D600090E00E944C1DB8018EED90E00E944C1D29
:103D700022960E5F1F4FF3E0CF31DF0779F7DF9117
:103D8000CF911F910F9108950F931F93CF93DF93BE
:103D9000CDB7DEB729970FB6F894DEBF0FBECDBF03
:103DA00089E595E00E94D21C00E010E08091680552
:103DB0009091690523E0880F991F2A95E1F708176C
:103DC00019073CF460E0C8010E9496200F5F1F4F66
:103DD000EDCF04E012E460E0C8010E9496200F5F7E
:103DE0001F4F0C3C8BE51807B1F700E010E01A8379
:103DF000098360E0CE0101960E94F5010F5F1F4F1D
:103E0000011582E0180799F787E0E9EFF2E0DE019B
:103E1000119601900D928A95E1F7CE0101960E94CC
:103E2000071682E080939D0380939E0380939F03F7
:103E30008093A0030E94DF1511E01887BE01685F20
:103E40007F4F88E290E00E942A1E1987BE01675FBB
:103E50007F4F8CE390E00E942A1E1092020362E0E2
:103E600073E08CE490E00E942A1E82E090E0909340
:103E70002F0380932E036EE273E08EE490E00E94A5
:103E8000251D02E310E01093A6030093A50365EA45
:103E900073E08AE590E00E94251D1093A80300932B
:103EA000A70367EA73E084E690E00E94251D109363
:103EB000A4030093A30363EA73E08EE690E00E94FC
:103EC000251D0E948E2061E08EE290E00E94BC2FB2
:103ED0009EE088E10FB6F894A895809360000FBE2D
:103EE0009093600060ED77E080E090E00E94ED2428
:103EF00029960FB6F894DEBF0FBECDBFDF91CF91EC
:103F00001F910F910895FF920F931F93CF93DF930B
:103F1000CDB7DEB72C970FB6F894DEBF0FBECDBF7E
:103F20008C01F62ECE0107960E94601D8F81898339
:103F300088858A8389858B838A858C838B858D830D
:103F40008C858E83AE014F5F5F4F6F2DC8010E943D
:103F5000C916BE016F5F7F4F80E590E00E944C1D47
:103F600089819A810E94BB162091A5033091A603F6
:103F700089819A818217930721F08091A103882378
:103F8000C9F08091A3039091A403820F931F843FF3
:103F900021E092072CF49093A6038093A50304C01C
:103FA0001092A6031092A50365EA73E08AE590E0FB
:103FB0000E94251D2C960FB6F894DEBF0FBECDBF14
:103FC000DF91CF911F910F91FF900895282F30918D
:103FD0001404313208F04AC08091F1038111FCCF02
:103FE00090911A0642E04093F1032093F0032FEFE3
:103FF0002093EF031092EE033093ED03E4EFF3E030
:10400000ADECB3E020E0321721F041914D932F5FEA
:10401000FACF1092CC032091CC03990F922B90935E
:10402000CC039091CB03913061F41092CB0390912B
:10403000CC039093BB009091BC0093FDF8CF95EC1E
:1040400001C095EE9093BC009091F1039230E1F3A2
:104050009091EF039F3F79F08091EF03803241F020
:104060008091EF03803331F084E005C081E003C02C
:1040700082E001C083E01092F303109214041092C6
:10408000F2030895682F85E194E00C9486220F9343
:104090001F930E9427256093290470932A0480931C
:1040A0002B0490932C0481E294E00E94570F97FF19
:1040B0001FC00E9427250091290410912A042091F5
:1040C0002B0430912C04DC01CB01801B910BA20B43
:1040D000B30B009125041091260420912704309100
:1040E000280480179107A207B307E8F28FEF9FEF2C
:1040F0001F910F910895CF93DF9300D0CDB7DEB716
:1041000069831A8241E050E0BE016F5F7F4F0E94D9
:10411000BD100F900F90DF91CF91089548EC50E0C3
:1041200064E070E089E595E00C94E11C1F93CF9367
:10413000DF93EC01162F81E08093F20380E58093FA
:104140001A061092F303109214048D2F90E00E942F
:104150004220CE0199270E944220612F85E194E000
:104160000E94862281E00E94E61F64E170E080E008
:1041700090E0DF91CF911F910C94ED24CF92DF92CC
:10418000EF92FF920F931F93CF93DF938B010097D2
:1041900029F07C0182E0C82ED12C1CC0C0E0D0E008
:1041A00060E0CE01800F911F0E9496202196C630BC
:1041B000D105B1F724C0CE010E94073182E0E80E9C
:1041C000F11C82E0C80ED11C0F5F1F4F8EE0C81695
:1041D000D104A9F082E090E00E946F30EC011882D7
:1041E000A601B7010E945B321A82CE010E94382FCD
:1041F000682FC8010E9496202097E9F6DFCFDF9153
:10420000CF911F910F91FF90EF90DF90CF90089585
:10421000CF93DF93EC0181E08093F20380E58093FC
:104220001A061092F303109214048D2F90E00E944E
:104230004220CE0199270E94422081E00E94E61F81
:104240008091F1038111FCCF81E08093F103809391
:10425000F0039FEF9093EF031092EE031092ED03A3
:104260008093CC038091CC03806A8093CC038091AF
:10427000CB03813061F41092CB038091CC03809307
:10428000BB008091BC0083FDF8CF85EC01C085EEBA
:104290008093BC008091F1038130E1F38091EE03C3
:1042A000811103C09091EE0301C091E0ADECB3E049
:1042B000EBEAF3E080E0891721F02D9121938F5FE5
:1042C000FACF1092AA038093A903882329F085E1ED
:1042D00094E00E943D2201C08FEFDF91CF910895BD
:1042E000CF92DF92EF92FF920F931F93CF93DF93C2
:1042F000E0906805F0906905853441F0833549F018
:10430000813469F485E0E82EF12C09C0C6E0D0E0E4
:1043100008C0E701219685E0E80EF11C02C0C1E06B
:10432000D0E0CE01019727E0289F8001299F100D42
:104330001124EC16FD06D4F0680187E0C80ED11CEC
:104340000C151D051CF021968601F3CFC8010E94B3
:1043500008218111F8CFC80101968C159D059CF7A5
:104360000E9408218111EFCFCE0102C080E090E0D1
:10437000DF91CF911F910F91FF90EF90DF90CF9041
:104380000895CF93DF93EC016FEE72E00E9443112A
:104390000E94472097FD05C0682FCE010E947B2018
:1043A000F7CFCE01DF91CF910895CF93DF9300D067
:1043B00000D000D0CDB7DEB7CE0101960E94C1215A
:1043C000CE0101960E94351164E670E080E090E035
:1043D0000E94ED2469E372E081E294E00E941614E9
:1043E00026960FB6F894DEBF0FBECDBFDF91CF91FA
:1043F000089585ED8093BC008091BC0084FDFCCFC6
:104400001092F103089540915406262F30E0240FB6
:10441000311D21323105DCF42091F1032430C9F43F
:10442000FC0180E090E0861758F430915406219109
:10443000DC01AC5CB94FA30FB11D2C930196F3CFF7
:1044400080915406680F6093540680E0089581E0DF
:10445000089582E00895089508950895E091AA03CB
:104460008091A903E81730F4F0E0E555FC4F808116
:1044700090E008958FEF9FEF08959091AA038091A7
:10448000A903981750F4E92FF0E0E555FC4F20817F
:1044900030E09F5F9093AA0302C02FEF3FEFC90166
:1044A00008958091A90390E02091AA03821B9109AD
:1044B0000895CF92DF92EF92FF920F931F93CF93C5
:1044C000DF937C01CB018A012091F203222389F042
:1044D000EB016B01C40ED51ECC15DD0569F06991A9
:1044E000D701ED91FC910190F081E02DC701099574
:1044F000F3CF642F0E940322C801DF91CF911F9157
:104500000F91FF90EF90DF90CF900895CF93DF93BE
:104510001F92CDB7DEB769832091F2032223D1F039
:1045200020911404203240F021E030E0FC0133837C
:10453000228380E090E015C08091F303E82FF0E043
:10454000EC50FC4F998190838F5F8093F3038093AD
:10455000140405C061E0CE0101960E94032281E0AF
:1045600090E00F90DF91CF91089590E0FC0131979A
:10457000EF30F105B0F5EA5AFF4F0C9451308091BD
:1045800080008F7703C0809180008F7D80938000B2
:10459000089580918000877FF9CF84B58F7702C01E
:1045A00084B58F7D84BD0895809190008F7707C07A
:1045B000809190008F7D03C080919000877F8093D1
:1045C000900008958091C0008F7703C08091C00053
:1045D0008F7D8093C00008958091C200877F809373
:1045E000C20008953FB7F894809124069091250663
:1045F000A0912606B091270626B5A89B05C02F3F9F
:1046000019F00196A11DB11D3FBFBA2FA92F982FF8
:104610008827820F911DA11DB11DBC01CD0142E073
:10462000660F771F881F991F4A95D1F708951F922B
:104630000F920FB60F9211242F933F934F935F93D6
:104640006F937F938F939F93AF93BF93EF93FF935A
:104650008091B900887F803609F49CC068F5883263
:1046600009F45BC090F4803109F454C038F4882315
:1046700009F4F6C0883009F44DC0F6C0883109F459
:104680004CC0803209F45DC0EFC0803409F468C0CA
:1046900048F4803309F455C0883309F0E5C08093AD
:1046A000EF03D8C0803509F44FC0883509F45DC0E8
:1046B000883409F0D9C0D6C0883909F4C7C0A8F435
:1046C000883709F467C038F4883609F463C0803746
:1046D00009F460C0C9C0883809F4B8C0803909F449
:1046E0005FC0803809F0C0C05BC0803B09F486C061
:1046F00038F4803A09F466C0883A09F47FC0B4C03F
:10470000803C09F4A7C0883C09F4A4C0883B09F4A4
:104710008AC0AAC08091CC0310C09091EE03809112
:10472000ED03981770F5E091EE0381E08E0F809312
:10473000EE03F0E0E353FC4F80818093BB0085ECF7
:1047400086C08093EF038EC0E091EE0381E08E0F70
:104750008093EE038091BB00F0E0E353FC4F808335
:104760009091EE038091ED036EC0E091EE0381E045
:104770008E0F8093EE038091BB00F0E0E353FC4F7B
:1047800080838091F00381116DC081E08093CB0321
:1047900084EA61C083E08093F10310927606CFCF64
:1047A00080917606803208F051C0E091760681E073
:1047B0008E0F809376068091BB00F0E0EA5AF94FA5
:1047C0008083BDCF85EC8093BC001092F103809173
:1047D0007606803230F4E0917606F0E0EA5AF94F3E
:1047E00010826091760670E0E0911D06F0911E0641
:1047F00086E596E009951092760636C084E08093AF
:10480000F1031092550610925406E0911B06F091A8
:104810001C06099580915406811105C081E08093A2
:10482000540610923406E091550681E08E0F809375
:104830005506F0E0EC5CF94F80818093BB009091CD
:10484000550680915406981708F479CF85E880932F
:10485000BC000AC085EC8093BC001092F10304C038
:104860001092EF030E94F921FF91EF91BF91AF9158
:104870009F918F917F916F915F914F913F912F9178
:104880000F900FBE0F901F90189580912C068111EC
:104890000DC082E08093280684E080932906109260
:1048A0002B0610922A0681E080932C0688E296E07F
:1048B0000895CF93DF93282F30E0F901E455FD4FA1
:1048C0008491F901E357FD4FD491F901E259FD4F6D
:1048D000C491CC2391F081110E94B522EC2FF0E01D
:1048E000EE0FFF1FE05AFD4FA591B491EC91ED231F
:1048F00081E090E021F480E002C080E090E0DF9170
:10490000CF9108951F93CF93DF93282F30E0F901C3
:10491000E455FD4F8491F901E357FD4FD491F9011E
:10492000E259FD4FC491CC23C1F0162F81110E9492
:10493000B522EC2FF0E0EE0FFF1FEE5AFD4FA591D0
:10494000B4919FB7F894111104C08C91D095D823DD
:1049500002C0EC91DE2BDC939FBFDF91CF911F91C2
:104960000895CF93DF9390E0FC01E357FD4F24912E
:10497000FC01E259FD4F8491882361F190E0880F9A
:10498000991FFC01EC5BFD4FC591D491FC01EE5ADF
:10499000FD4FA591B491611109C09FB7F89488812A
:1049A000209582238883EC912E230BC0623061F422
:1049B0009FB7F8948881322F309583238883EC91B8
:1049C0002E2B2C939FBF06C08FB7F894E8812E2B17
:1049D00028838FBFDF91CF9108958F929F92AF92DE
:1049E000BF92CF92DF92EF92FF926B017C010E9407
:1049F000F2224B015C01C114D104E104F104F1F095
:104A00000E94F222DC01CB0188199909AA09BB098D
:104A1000883E9340A105B10570F321E0C21AD10888
:104A2000E108F10888EE880E83E0981EA11CB11CF5
:104A3000C114D104E104F10419F7DDCFFF90EF9028
:104A4000DF90CF90BF90AF909F908F9008952FB739
:104A5000F894609120067091210680912206909131
:104A600023062FBF08951F920F920FB60F921124A5
:104A70002F933F938F939F93AF93BF938091200683
:104A800090912106A0912206B091230630911F0635
:104A900023E0230F2D3720F40196A11DB11D05C081
:104AA00026E8230F0296A11DB11D20931F068093B7
:104AB000200690932106A0932206B09323068091AE
:104AC000240690912506A0912606B091270601960E
:104AD000A11DB11D8093240690932506A093260660
:104AE000B0932706BF91AF919F918F913F912F91E6
:104AF0000F900FBE0F901F901895CF93DF93CDB7F7
:104B0000DEB7E2970FB6F894DEBF0FBECDBF789444
:104B100084B5826084BD84B5816084BD85B58260C2
:104B200085BD85B5816085BD80916E008160809373
:104B30006E001092810080918100826080938100DC
:104B400080918100816080938100809180008160EC
:104B50008093800080919100826080939100809189
:104B6000910081608093910080919000816080939A
:104B700090008091C10084608093C1008091C10049
:104B800082608093C1008091C10081608093C100E8
:104B90008091C30081608093C3008091C0008260D7
:104BA0008093C0008091C20081608093C200809198
:104BB0007A00846080937A0080917A00826080938A
:104BC0007A0080917A00816080937A0080917A00E7
:104BD000806880937A0010928903109201031092EA
:104BE00000038091D70081608093D70080EA809392
:104BF000D80089B5806189BD89B5826089BD09B455
:104C000000FEFDCF61E070E080E090E00E94ED24C6
:104C10008091D8008F7C80618093D8008091E000E3
:104C2000807F8093E0008091E1008E7E8093E100A0
:104C30008DE08093E200559A209A87EF84BF0FB6EB
:104C4000F894A8958091600088618093600010922C
:104C500060000FBE60E08EE00E94B12461E084E15C
:104C60000E94B12462E085E10E94B12448EC50E04A
:104C700065E070E089E595E00E94E11C8EE290E03D
:104C80000E94B42F81110FC061E084E10E94822450
:104C900064EF71E080E090E00E94ED2460E084E148
:104CA0000E94822405C060E08EE290E00E94BC2F4A
:104CB00089E595E00E94D21C8FEF9FEF9093CB0483
:104CC0008093CA0468EE73E080E090E00E94ED24D7
:104CD000E0913104F091320402E00083E0912D0470
:104CE000F0912E041082E0912F04F091300480E1C5
:104CF000808310923904E0913504F091360416E077
:104D00001083E0913304F0913404808180618083CA
:104D1000E0913304F0913404808188608083E091D5
:104D20003304F0913404808180688083E0913304FF
:104D3000F091340480818F7D808380916A058C346A
:104D400009F045C068EE73E080E090E00E94ED2439
:104D500068EE70E081E294E00E94161468EE73E061
:104D600080E090E00E94ED24E0913104F091320463
:104D70000083E0912D04F0912E041082E0912F0425
:104D8000F091300487E6808310923904E091350475
:104D9000F09136041083E0913304F0913404808163
:104DA00080618083E0913304F091340480818860D5
:104DB0008083E0913304F0913404808180688083A3
:104DC000E0913304F091340480818F7D808360E131
:104DD00077E280E090E00E94ED248E010F5F1F4F8C
:104DE0004801C8010E94C121C8010E9435116CED23
:104DF00070E081E294E00E94161468EE73E080E0B7
:104E000090E00E94ED24C8010E94C121C8010E94C7
:104E1000351160ED70E081E294E00E94161468EEB6
:104E200073E080E090E00E94ED24C8010E94C1215F
:104E3000C8010E9435110E94D9196AEC70E081E224
:104E400094E00E941614C8010E94C121C8010E946A
:104E5000351168EE73E080E090E00E94ED2410923E
:104E6000AA031092A9031092F30310921404109253
:104E7000F10381E08093F0031092CB0361E082E0C4
:104E80000E94822461E083E00E9482248091B90024
:104E90008E7F8093B9008091B9008D7F8093B90097
:104EA00088E48093B80085E48093BC008BE292E2B2
:104EB00090931C0680931B068CE292E290931E0650
:104EC00080931D0660E177E280E090E00E94ED248F
:104ED00081E090E00E94B42F8F3F11F40E94C41E25
:104EE0000E94421EA0912E03B0912F031A161B069A
:104EF00074F420E437E74BE150E00E945E306093A9
:104F0000000170930101809302019093030164E119
:104F100070E084E196E00E949610C4010E947D1A20
:104F2000B40184E196E00E945C10C4010E94351136
:104F3000C4010E94C121C4010E94351164E670E0E1
:104F400080E090E00E94ED246DEF70E081E294E05B
:104F50000E94161460E177E280E090E00E94ED2468
:104F600067EF70E081E294E00E94161468EE73E04F
:104F700080E090E00E94ED24C4010E94C121C401A0
:104F80000E94351148EC50E065E070E089E595E05D
:104F90000E94E11C85E1898381E08A838B831C82E6
:104FA0001D821E82C4010E9435170E94D5216624ED
:104FB000639481E294E00E94790F181619060CF0B0
:104FC00071C08091760581116DC081E294E00E94EC
:104FD000570F782E80913303882309F4BAC00E94BA
:104FE00027255B016C012BA53CA54DA55EA56FA5F2
:104FF00078A989A99AA928513C4F4F4F5F4F6F4F0D
:105000007F4F8F4F9F4F19012A01B62FA72FF82FDF
:10501000E92F9501A60160E070E080E090E0510189
:105020006201EB2EFA2E0F2F1E2F0E94663019F010
:1050300010F021E2722E80911306E0913203871165
:1050400078C0F0E0E659FA4F108A109233031092BC
:1050500032032AE735E03093790520937805609292
:10506000760542E350E061E070E089E595E00E945A
:10507000E11C80917605811110927605809178056A
:105080009091790598A38F8F0E946018AF8DB8A179
:10509000FD0101900020E9F73197EA1BFB0B3497E3
:1050A00008F06CC0D0902403DD2009F45BC2CE016F
:1050B00043960E94601DCE0143960E941D1EE82F5C
:1050C000F0E0EE0FFF1FEF5EFC4F00811181CE017B
:1050D00043960E941D1EE82FF0E0EE0FFF1FED5FCC
:1050E000FC4FE080F180101611061CF01E141F0406
:1050F000ECF4C4010E94601D8C8198012E193F09B7
:1051000090E037FF08C08017910784F08E159F0547
:105110000CF0B8C127C2E81AF90A1E141F040CF4D7
:1051200021C2801791070CF4ADC11CC2D110AAC1D5
:1051300019C2AE2FB0E0A659BA4F50967C92EF5FDD
:10514000EE3618F4E093320334CF1DE610933203A9
:1051500030CF80911006781649F0809111067816AC
:1051600049F080911206781224CF04C031E23093C6
:10517000130663C14DE0409313065FC111968C91F5
:105180008E3409F48FCFCE014F960E947118809112
:1051900098038B3409F4A7C03CF4833409F450C05D
:1051A000893409F44DC07ECF813589F1843509F009
:1051B00079CF0E94DD018130C1F018F08230E1F03A
:1051C00071CF0E94CD01882309F46CCF0E949D010C
:1051D000682F70E06115710509F464CF8091960322
:1051E000909197030E9461035DCF0E94CD018823B7
:1051F00019F00E94E20356CF6091960370919703D5
:1052000080919403909195030E940E024BCF609180
:10521000960370919703C4010E944311609130037B
:1052200070913103CE0143960E94421BB401CE011E
:1052300043960E947C19CE0143960E9435111EC1EF
:105240000E94DD01813019F0823099F029C09091DF
:105250003C03992319F08093370322C080912303E4
:10526000823058F4609196037091970384E292E043
:1052700015C080912303823038F0609196037091BD
:1052800097038BE591E00AC080911001823050F3C2
:1052900060919603709197038FE591E00E940E0252
:1052A00010926C0510926B0581E294E00E94790FD8
:1052B000892B09F0D4C080916B0590916C05803EDC
:1052C0009E420CF0CCC06DE070E080E090E00E9467
:1052D000ED2480916B0590916C05019690936C057F
:1052E00080936B05E1CF80919603909197030E9484
:1052F000382F8C014497449708F08EC080918E031C
:1053000090918F030E94382F182F809190039091D5
:1053100091030E94382FF82E80919203909193036D
:105320000E94382FE82E80919403909195030E945B
:10533000382F09838A83EB82FC821D831E82C4017D
:105340000E94351766E080E090E00E94831F809104
:1053500002038823B1F12091350330913603809107
:105360002E0390912F03820F931F90933603809307
:105370003503489734F1109236031092350361E0FB
:1053800070E0CE0149960E94421B63E671E0C401C1
:105390000E944311BE01675E7F4FCE0143960E947B
:1053A0003A11B401CE0143960E947C19CE01439676
:1053B0000E943511C4010E943511CE0149960E9408
:1053C000351180912E0390912F03181619060CF0B9
:1053D00069CE0E94272561327F4B8240910508F4F7
:1053E00061CE61E171E081E294E00E94161468E808
:1053F00073E180E090E00E94ED2465E071E081E2DD
:1054000094E00E941614C4010E94C121C4010E94AC
:1054100035110E94D9192FC068E873E180E090E04F
:105420000E94ED24809134038F5F80933403823097
:1054300008F038CE0E94D52135CE0E9427257B0169
:105440008C0120E030E0A9016BA7FCA60DA71EA7E8
:105450002FA738AB49AB5AAB60923303AACD81E298
:1054600094E00E94790F892B31F46FEE72E0C40151
:105470000E94431103C0C4010E94C121C4010E94C3
:10548000351110CE88EE93E00E948D1780913C0379
:1054900081110DC08CE295E00E94D71C90912503EC
:1054A000891365C080911F03811161C04DC084E6DE
:1054B00090E00E948D17A0912003B0912103C0902D
:1054C0003803D0903903E0903A03F0903B0328EE84
:1054D00033E00E945730609330057093310580931C
:1054E000320590933305672B682B692B09F402C1B1
:1054F0000E9427258B019C010C191D092E093F09CB
:105500006801790100913005109131052091320533
:1055100030913305C016D106E206F30608F4EAC05E
:1055200060933705709338058093390590933A0559
:105530001092370310923C0380912303882321F0BB
:105540008EE095E00E94CD1C1BE38EEB94E00E9460
:10555000DA1B20917D03181619060CF0D0C021111A
:10556000CEC07DC380E49FE10E948D17EDCF609295
:105570003C030E942725609338037093390380937E
:105580003A0390933B03809123038823F1F18EE04B
:1055900095E00E94D21CF12C00ED17E0B801CE017D
:1055A00049960E94421BCE0149960E94CE15811158
:1055B00022C021E02F1530F468E873E180E090E02C
:1055C0000E94ED2467E671E0C4010E944311BE0110
:1055D000675E7F4FCE0143960E943A11B401CE011F
:1055E00043960E947C19CE0143960E943511C40156
:1055F0000E943511F394CE0149960E9435110F5F38
:105600001F4F063D37E0130749F66CE671E0CE0107
:1056100085960E944311198280911F03882361F0AF
:1056200062E771E0C4010E948B3260919603709131
:105630009703C4010E947732F12C01E010E0B80119
:10564000CE014F960E94421BCE014F960E94CE156E
:10565000811131C041E04F1530F468E873E180E01A
:1056600090E00E94ED2480911F03882331F0B40163
:10567000CE0149960E94431107C0BE016B5D7F4F6A
:10568000CE0149960E943A11BE01615E7F4FCE0164
:1056900043960E943A11BE01675E7F4FCE0143964A
:1056A0000E947C19CE0143960E943511CE01499685
:1056B0000E943511F394CE014F960E9435110F5F71
:1056C0001F4F0630110509F0BACFCE0185960E9412
:1056D000351180911F0364E0882329F0809196039F
:1056E0009091970302C080E090E00E94831F109287
:1056F0001F032ACF8091370381111ACF25CF222390
:1057000009F44DC281E493E098A38F8FCE014F96A8
:105710000E947118E0919603F09197038081843480
:1057200009F456C0CCF48134C9F13CF4833209F455
:105730001BC1853209F477C130C2823409F445C0F7
:10574000833409F02AC240E061E480919203909191
:1057500093030E947B1521C2803509F4F1C074F4D3
:105760008534E9F1863409F018C260E171E0809176
:105770009203909193030E94F614F0C0843509F4CB
:10578000BFC08A3509F4F4C1833509F006C289E542
:1057900095E00E94D21C01E010E07AC080918E0357
:1057A00090918F030E94382F482F65E480919203D7
:1057B000909193030E947B1544E150E061E070E01A
:1057C00089E595E00E94E11CE8C10E94C41EE5C184
:1057D00080919203909193030E942018DEC189E585
:1057E00095E00E94D21C1A8E198EBE01675E7F4F13
:1057F00080E590E00E944C1D04EF11E0898D9A8DA8
:10580000892B21F424EF31E03A8F298F898D9A8DED
:105810009C01215031093A8F298F8D5E9A4F3DE0CE
:10582000389F7001399FF00C11246FEE72E0CE01A9
:1058300043960E944311C12CD12CC6018E0D9F1D91
:105840000E940821A601682FC4010E94BB1AB4015E
:10585000CE0143960E943016C4010E9435114FEFCD
:10586000C41AD40A5DE0C516D10439F7BE016D5ED5
:105870007F4F8EEB94E00E945314CE0143960E941A
:1058800035110150110909F0B9CF81E291E031C021
:10589000B801C4010E94421BC4010E94CE158111AF
:1058A00016C0B4018EEB94E00E9408146DE28EEBFA
:1058B00094E00E94B91B6091100170E080E090E0DC
:1058C0004AE00E9448168EEB94E00E944F14053087
:1058D000110521F48FE191E00E943716C4010E9466
:1058E00035110F5F1F4F013D87E0180789F68DE1E5
:1058F00091E00E94371689E595E00E94CD1C4DC1CC
:105900000E948E2087E791E00E9460188BE090E073
:105910000E94BB168EEB94E00E944F14C4010E94BB
:105920007D1AB40184E196E00E945C10C4010E94DB
:10593000351164E176E08EEB94E00E9453142DC1A2
:1059400046E050E067E273E0809192039091930308
:105950000E949232892B29F481E090E00E94BB16CC
:105960001CC180E090E0FACF0E94421E609140038B
:1059700070E080E090E04AE00E94481680912603A3
:1059800090E00E948B1660919D0370E080E090E0B3
:105990004AE00E94481660919E0370E080E090E02B
:1059A0004AE00E9448168091250390E00E948B16E1
:1059B0008091240390E00E948B166091230370E095
:1059C00080E090E04AE00E9448168091220390E037
:1059D0000E948B1680913F0390E00E948B1680916D
:1059E00021038F93809120038F9383E891E09F930D
:1059F0008F939F928F920E94AF32B4018EEB94E00E
:105A00000E943A1468E871E08EEB94E00E943A1428
:105A100089E891E00E9460180F900F900F900F900E
:105A20000F900F90BAC0E0919203F09193038081A0
:105A300080538093400360E473E086E490E00E942A
:105A40002A1EE0919203F091930381E091819033BB
:105A500009F480E08093260366E273E08CE390E033
:105A60000E942A1EE0919203F09193038281805359
:105A700080939D038381805380939E030E94DF1552
:105A8000E0919203F091930381E09481903309F4C3
:105A900080E08093250365E273E088E290E00E9455
:105AA0002A1EE0919203F091930381E09581903357
:105AB00009F480E08093240364E273E082E390E0E1
:105AC0000E942A1EE0919203F091930386818053F5
:105AD0008093230363E273E084E390E00E942A1E34
