:100000000C9463010C948B010C948B010C948B0168
:100010000C948B010C948B010C948B010C948B0130
:100020000C948B010C948B010C9440150C94B2151C
:100030000C948B010C948B010C948B010C948B0110
:100040000C948B010C948B010C948B010C948B0100
:100050000C948B010C948B010C948B010C94502309
:100060000C948B010C9473180C944D180C948B0108
:100070000C948B010C948B010C948B010C948B01D0
:100080000C948B010C948B010C948B010C948B01C0
:100090000C94951B0C948B010C948B010C948B018C
:1000A0000C948B010C948B010C948B0179197C19A5
:1000B0006B196F1975199D199D199D19801984194E
:1000C00088198E1992199D199819415426570D00B7
:1000D00041542B43545A523D300D0A0041542B4396
:1000E000545A553D310D0A0041542B4950523D316F
:1000F000393230300D0A004154480D0A0041544451
:10010000303B0D0A0041542B4346554E3D310D0AFC
:100110000041542B4346554E3D300D0A00450045E5
:1001200000450041542B434855500D0A0041542BC3
:100130004353510D0A00220D0041542B434D4753A8
:100140003D220041542B43434C4B3F0D0A00080B0A
:100150000002020201000904000001020200000581
:1001600024001001052401010104240206052406CF
:1001700000010705810310004009040100020A0084
:10018000000007050202400000070583024000004E
:100190000403090412010002EF0201404F1B069202
:1001A000000101020301537061726B46756E0053CA
:1001B0007061726B46756E2050726F204D6963726C
:1001C0006F0000000000240027002A002D003000EE
:1001D00000000000250028002B002E003100000048
:1001E00000002300260029002C002F000404040432
:1001F00004030405020202020403020202020606CC
:1002000006060606040402020204040408020110A1
:10021000408040102040804080080204018040203F
:100220001002011080102040402000000002000950
:100230000F0000030401000C00000000000000009B
:10024000000000000000000041542B4347534E0DB6
:100250000A00415426570D00415445300D0A0061F3
:10026000742B717572636366673D22757263706F7C
:100270007274222C227561727431220D0A0041546D
:100280002B434E4D493D312C322C302C302C300D2F
:100290000A0041542B434C49503D310D0A00415452
:1002A0002B434D47463D310D0A0041542B435245E7
:1002B000473D310D0A001F1C1F1E1F1E1F1F1E1F42
:1002C0001E1FDC2C922D11241FBECFEFDAE0DEBF03
:1002D000CDBF26E0A4EDB2E001C01D92A433B20769
:1002E000E1F712E0A0E0B1E0E2EAF7E602C0059033
:1002F0000D92A43DB107D9F711E0C2E6D1E004C0E8
:100300002197FE010E94B32EC136D107C9F70E9482
:100310009A230C94C4330C94000068E871E0809137
:10032000CD059091CE050E94C630892B21F581E440
:100330000E94DF0E019761F080915C03882399F0A1
:1003400081E40E94DF0E181619066CF410925C030B
:100350000E94FD0D40E061E48091D1059091D205AD
:100360000E94B50F089542E350E068E070E08FEE20
:1003700094E00E94462080E0089546E050E062E06C
:1003800073E08091CF059091D0050E94F43021E078
:10039000892B09F020E0822F089564E071E08091BC
:1003A000D1059091D2050E94300F009761F09C0119
:1003B000215031092530310520F0069724F082E0E4
:1003C000089581E0089580E00895FF920F931F93B0
:1003D000CF93DF93EC01F62E08811981C8010E94AA
:1003E000162EF81621F06F2DC8010E941E2ECE0188
:1003F000DF91CF911F910F91FF900895EF92FF929F
:100400000F931F93CF93DF93CDB7DEB72C970FB623
:10041000F894DEBF0FBECDBF8C017B016BE072E0B4
:100420000E94C630892BA1F51091FF0264EF71E0A4
:1004300080E090E00E946B1D63E271E085ED93E047
:100440000E94FE1780910401823000F588EE93E04F
:10045000189FA001199F500D11244115510539F025
:1004600061E070E080EE94E00E9446200FC0809131
:10047000E0040E94D71C892B29F480EE94E00E94AE
:10048000412004C080EE94E00E943C2062E02BC03A
:100490006FE571E0C8010E94C630892B09F048C0A1
:1004A0008091FC02823008F043C08091D1040E9408
:1004B000D71C892BE9F51091000364EF71E080E00F
:1004C00090E00E946B1D63E271E085ED93E00E9475
:1004D000FE17809104018D7F29F48091FC0288230E
:1004E00009F441C063E0C7010E94ED221091FB02B4
:1004F0001123B9F16EE871E0CE0107960E942B1529
:100500006091D1057091D205CE0101960E942B1504
:10051000BE01695F7F4FCE0101960E941311CE018B
:1005200001960E941D15CE0107960E941D1541C01F
:100530006BE571E0C8010E94C630892BC9F564EFF4
:1005400071E080E090E00E946B1D63E271E085ED58
:1005500093E00E94FE1780910401882329F18330E3
:1005600019F111E026C088EE93E0189FA001199FB1
:10057000500D11244115510539F061E070E081ED15
:1005800094E00E944620AECF8091D1040E94D71CF7
:10059000892B29F481ED94E00E944120A3CF81EDC5
:1005A00094E00E943C209ECF81E08093F602D9CF58
:1005B00010E0812F2C960FB6F894DEBF0FBECDBF92
:1005C000DF91CF911F910F91FF90EF900895EF92DF
:1005D000FF920F931F93CF93DF93CDB7DEB76F9743
:1005E0000FB6F894DEBF0FBECDBF8C017B0116168F
:1005F00017060CF03FC06091CD057091CE0546E026
:1006000050E0CE0101960E940231FF92EF928BE4FE
:1006100092E09F938F937E018EE0E80EF11CFF9293
:10062000EF920E941131B701CE0101960E94D9309C
:10063000BE016F5F7F4FCE014A960E942B15B80115
:10064000CE0144960E942B15BE01665E7F4FCE01FF
:1006500044960E941311CE0144960E941D15CE01AE
:100660004A960E941D150F900F900F900F900F90BB
:100670000F9021C064E071E00E94300F1816190637
:10068000D4F461E971E0CE010E960E942B15B801F9
:10069000CE0101960E942B15BE01625F7F4FCE01F5
:1006A00001960E941311CE0101960E941D15CE01E4
:1006B0000E960E941D156F960FB6F894DEBF0FBE02
:1006C000CDBFDF91CF911F910F91FF90EF900895D3
:1006D0002F923F924F925F926F927F928F929F9252
:1006E000AF92BF92CF92DF92EF92FF920F931F9340
:1006F000CF93DF93CDB7DEB7C956D1090FB6F894C3
:10070000DEBF0FBECDBF68E971E08091CD0590914D
:10071000CE050E94C630892B19F50E94FD0D6EE8AA
:1007200071E0CE01885B9F4F0E942B156091D1052F
:100730007091D205CE0101960E942B15BE01685B17
:100740007F4FCE0101960E941311CE0101960E94A7
:100750001D15CE01885B9F4F0E941D150E942E2201
:100760006FE971E08091CD059091CE050E94C63071
:10077000892B81F5E091CB05F091CC0586E0A2E0D4
:10078000B3E001900D928A95E1F71092090382E09F
:1007900093E00E9419106EE871E0CE01885B9F4FD4
:1007A0000E942B156091D1057091D205CE01019662
:1007B0000E942B15BE01685B7F4FCE0101960E94FF
:1007C0001311CE0101960E941D15CE01885B9F4F2B
:1007D0000E941D1568E871E08091CD059091CE05CD
:1007E0000E94C630892B51F40E948D01682F70E061
:1007F0008091D1059091D2050E94E70267EA71E0ED
:100800008091CD059091CE050E94C630892B31F59F
:1008100081E080935C038FEE94E00E9441206EE8BB
:1008200071E0CE01885B9F4F0E942B156091D1052E
:100830007091D205CE0101960E942B15BE01685B16
:100840007F4FCE0101960E941311CE0101960E94A6
:100850001D15CE01885B9F4F0E941D1561EB71E055
:100860008091CD059091CE050E94C630892B09F06C
:100870004BC061EC72E0CE0101960E942B1501E0A5
:1008800010E0B801CE01885B9F4F0E94F711BE01B6
:10089000685B7F4FCE0101960E944210CE01885BBB
:1008A0009F4F0E941D156AE0CE0101960E94EA0D3D
:1008B0000F5F1F4F0630110521F7BE016F5F7F4F9D
:1008C000CE01895A9F4F0E9422156091D1057091E7
:1008D000D205CE01885B9F4F0E942B15BE01695A3D
:1008E0007F4FCE01885B9F4F0E941311CE01885B22
:1008F0009F4F0E941D15CE01895A9F4F0E941D15C2
:10090000CE0101960E941D156BEB71E08091CD0523
:100910009091CE050E94C630892B09F069C0809164
:10092000CB059091CC050E949A2D5C018091C90560
:100930009091CA050E949A2D6C018501AC14BD04EA
:100940000CF056C061EC72E0CE0101960E942B15AE
:100950007801480129E0820E911C8E149F04DCF07E
:10096000B701CE01885B9F4F0E94F711BE01685B03
:100970007F4FCE0101960E944210CE01885B9F4FAF
:100980000E941D156AE0CE0101960E94EA0D4FEF0C
:10099000E41AF40AE2CFBE016F5F7F4FCE01895A9D
:1009A0009F4F0E9422156091D1057091D205CE0112
:1009B000885B9F4F0E942B15BE01695A7F4FCE0165
:1009C000885B9F4F0E941311CE01885B9F4F0E944E
:1009D0001D15CE01895A9F4F0E941D15065F1F4F9E
:1009E0008AE0C81AD108CE0101960E941D15A6CF33
:1009F00061EC71E08091CD059091CE050E94C630EA
:100A0000892B09F025C161EC72E0CE01885B9F4F14
:100A10000E942B156CE870E0CE01885B9F4F0E940E
:100A20007E14BE01625A7F4F80E590E00E94B120A3
:100A3000A0960EAD1FADA097780199E1E91AF108D3
:100A4000F7FE16C07801E4E1EE1AF108F7FE10C0D7
:100A50007801FFE0EF1AF108F7FE0AC078012AE0FA
:100A6000E21AF108F7FE04C0780145E0E41AF10843
:100A70001E141F040CF0E7C00550110940E050E0BF
:100A800061EC72E0CE01885B9F4F0E94E514A09656
:100A90008EAD9FADA0975C01E1E0AE1AB1082DE0EC
:100AA000289F2001299F500C1124612C712CF9E002
:100AB0004F1AFEEB5F0AAE14BF040CF4C4C061EC25
:100AC00072E0CE01895A9F4F0E942B154201860C7D
:100AD000971CC12CD12CC601880D991D0E94770E40
:100AE000682F26E0C216D10409F45DC045E0C416A3
:100AF000D10419F445E050E006C089E0C816D104DD
:100B0000D1F449E050E0CE0101960E947011BE017F
:100B10006F5F7F4FCE01895A9F4F0E944210CE01D6
:100B200001960E941D1569EC71E0CE01895A9F4F14
:100B30000E94931A38C09BE0C916D10419F44BE007
:100B400050E0E1CFECE0CE16D104E1F4862F90E046
:100B50008230910519F46BEC71E0E7CF8330910599
:100B600019F469E272E0E1CF8430910519F46EEC7A
:100B700071E0DBCF069719F461ED71E0D6CF4CE060
:100B800050E001C0A601CE0101960E947011BE0185
:100B90006F5F7F4FCE01895A9F4F0E944210CE0156
:100BA00001960E941D15FFEFCF1ADF0A2DE0C21635
:100BB000D10409F090CFBE01695A7F4FCE01885B06
:100BC0009F4F0E944210CE01895A9F4F0E941D15CF
:100BD0006AE0CE01885B9F4F0E94EA0D0A151B0553
:100BE00059F5BE01685B7F4FCE01895A9F4F0E9425
:100BF00022156091D1057091D205CE0101960E9417
:100C00002B15BE01695A7F4FCE0101960E94131128
:100C1000CE0101960E941D15CE01895A9F4F0E9458
:100C20001D1540E050E061EC72E0CE01885B9F4F03
:100C30000E94E5140550110941E0A41AB1088DE0A5
:100C4000681A710838CFCE01885B9F4F0E941D152E
:100C500064ED71E08091CD059091CE050E94C63083
:100C6000892B09F096C0198287E0E7E1F1E0DE0107
:100C7000A95ABF4F01900D928A95E1F7FE01E95AFA
:100C8000FF4F6F0168EEE62E62E0F62E7AEDA72E9A
:100C900072E0B72EE6EF2E2EE2E03E2EF9ED8F2E1B
:100CA000F1E09F2E8E01085B1F4FABE46A2EA2E09D
:100CB0007A2EBCED4B2EB1E05B2EF60181916F01D7
:100CC000282F082E000C330B3F938F939F928F9207
:100CD0001F930F930E941131B801CE0101960E941B
:100CE000D930F8011082F70180819181F2E0EF0E96
:100CF000F11C9F938F937F926F921F930F930E948B
:100D00001131B801CE0101960E94D930F80110824C
:100D1000F50180819181F2E0AF0EB11C9F938F931A
:100D20005F924F921F930F930E941131B801CE0131
:100D300001960E94D9300FB6F894DEBF0FBECDBF2A
:100D40002E143F0409F0B9CFBE016F5F7F4FCE0173
:100D50008C599F4F0E942B156091D1057091D2053F
:100D6000CE01825A9F4F0E942B15BE016C597F4FB6
:100D7000CE01825A9F4F0E941311CE01825A9F4F7B
:100D80000E941D15CE018C599F4F0E941D150E9477
:100D9000FD0D61EE71E08091CD059091CE050E9430
:100DA000C630892B09F075C08091C9059091CA059C
:100DB0000E949A2D6C018091C7059091C8050E94F0
:100DC0009A2D7C018091CB059091CC050E949A2DA3
:100DD0008730910519F508EE12E04AEDA42E42E0A5
:100DE000B42E56EF852E52E0952EF801D182C082A6
:100DF000F501F182E082B8018CED90E00E948A203A
:100E0000B50180EF90E00E948A200E5F1F4FF2E054
:100E1000AF0EB11C8016910641F71AC087309105BC
:100E2000B8F4880F991FBC0168517D4FFB01D18236
:100E3000C0828C0106521D4FF801F182E0828CEDD8
:100E400090E00E948A20B80180EF90E00E948A2002
:100E50000E94FD0D6EE871E0CE01885B9F4F0E94FD
:100E60002B156091D1057091D205CE0101960E949B
:100E70002B15BE01685B7F4FCE0101960E941311B6
:100E8000CE0101960E941D15CE01885B9F4F0E94E6
:100E90001D1567EE71E08091CD059091CE050E9401
:100EA000C630892B49F58091C9059091CA050091FA
:100EB000CB051091CC05009711F440E003C00E94CF
:100EC0009A2D482F65E4C8010E94B50F8C011816B1
:100ED00019061CF40E94FD0D08C042E350E068E0D2
:100EE00070E08FEE94E00E944620B8018091D10519
:100EF0009091D2050E94E7026BEE71E08091CD05E2
:100F00009091CE050E94C630892B09F064C040E064
:100F100065E48091CB059091CC050E94B50F31E03E
:100F200020E0181619060CF030E0032F122F8091E4
:100F3000C9059091CA05892B99F068EE73E080E0AD
:100F400090E00E946B1D40E065E48091C90590919E
:100F5000CA050E94B50F1816190614F40F5F1F4F2B
:100F60008091C7059091C805892B99F068EE73E0D0
:100F700080E090E00E946B1D40E065E48091C70531
:100F80009091C8050E94B50F1816190614F40F5F4A
:100F90001F4F8091C5059091C605892B99F068EE89
:100FA00073E080E090E00E946B1D40E065E480917A
:100FB000C5059091C6050E94B50F1816190614F4C0
:100FC0000F5F1F4F0E94FD0DB8018091D1059091D8
:100FD000D2050E94E70260EF71E08091CD0590910B
:100FE000CE050E94C630892BE1F48091CB0590910B
:100FF000CC050E94621A8C01181619061CF40E9476
:10100000FD0D08C042E350E068E070E08FEE94E030
:101010000E944620B8018091D1059091D2050E948E
:10102000E70264EF71E08091CD059091CE050E94BA
:10103000C630892B79F443E063E58091CB0590912C
:10104000CC050E94B50FBC018091D1059091D205CD
:101050000E94E70268EF71E08091CD059091CE0586
:101060000E94C630892B79F58091CB059091CC05F3
:101070000E949A2D8093FF026FEF72E08AE090E069
:101080000E948A206091CB057091CC05CE01885BCF
:101090009F4F0E942B156091D1057091D205CE0112
:1010A00001960E942B15BE01685B7F4FCE01019611
:1010B0000E941311CE0101960E941D15CE01885B7E
:1010C0009F4F0E941D156FEF71E08091CD059091AB
:1010D000CE050E94C630892B79F58091CB05909181
:1010E000CC050E949A2D809300036FEF72E08AE096
:1010F00090E00E948A206091CB057091CC05CE01D2
:10110000885B9F4F0E942B156091D1057091D2058D
:10111000CE0101960E942B15BE01685B7F4FCE0168
:1011200001960E941311CE0101960E941D15CE0159
:10113000885B9F4F0E941D1566E072E08091CD058F
:101140009091CE050E94C630892B09F03FC081E006
:101150008093FD0281E090E09A838983BE016F5FF6
:101160007F4F82E390E00E948A208091CB0590918E
:10117000CC050E949A2D9093FA028093F90269EFB0
:1011800072E086E390E00E948A200E94FD0D6EE0EE
:1011900072E0CE01885B9F4F0E942B156091D105B4
:1011A0007091D205CE0101960E942B15BE01685B9D
:1011B0007F4FCE0101960E941311CE0101960E942D
:1011C0001D15CE01885B9F4F0E941D1561E172E0E5
:1011D0008091CD059091CE050E94C630892B71F586
:1011E00081ED94E00E943C201092FD021A82198247
:1011F000BE016F5F7F4F82E390E00E948A206AE128
:1012000072E0CE01885B9F4F0E942B156091D10543
:101210007091D205CE0101960E942B15BE01685B2C
:101220007F4FCE0101960E941311CE0101960E94BC
:101230001D15CE01885B9F4F0E941D156EE172E067
:101240008091CD059091CE050E94C630892B89F5FD
:101250008091CB059091CC050E949A2D21E0892B9D
:1012600009F420E02093FB026BEF72E08EE390E044
:101270000E948F216EE871E0CE01885B9F4F0E9433
:101280002B156091D1057091D205CE0101960E9477
:101290002B15BE01685B7F4FCE0101960E94131192
:1012A000CE0101960E941D15CE01885B9F4F0E94C2
:1012B0001D1564E272E08091CD059091CE050E94EB
:1012C000C630892B79F58091CB059091CC050E9491
:1012D0009A2D8093FC020E94FD0D6CEF72E084E376
:1012E00090E00E948F216EE871E0CE01885B9F4FF5
:1012F0000E942B156091D1057091D205CE01019607
:101300000E942B15BE01685B7F4FCE0101960E94A3
:101310001311CE0101960E941D15CE01885B9F4FCF
:101320000E941D156CE272E08091CD059091CE0572
:101330000E94C630892BA9F58091CB059091CC05F0
:101340000E949A2D21E0892B09F420E02093FE02CF
:101350000E94FD0D6EEF72E088E290E00E948F2106
:101360006091CB057091CC05CE01885B9F4F0E94A8
:101370002B156091D1057091D205CE0101960E9486
:101380002B15BE01685B7F4FCE0101960E941311A1
:10139000CE0101960E941D15CE01885B9F4F0E94D1
:1013A0001D1562E372E08091CD059091CE050E94FB
:1013B000C630892B91F464E071E08091D105909161
:1013C000D2050E94300F90930C0380930B036DE2C3
:1013D00071E085ED93E00E94FE1769E372E0809171
:1013E000CD059091CE050E94C630892BA1F561E014
:1013F0008EE290E00E941E2E6EE871E0CE01885BC6
:101400009F4F0E942B156091D1057091D205CE019E
:1014100001960E942B15BE01685B7F4FCE0101969D
:101420000E941311CE0101960E941D15CE01885B0A
:101430009F4F0E941D159EE088E10FB6F894A89575
:10144000809360000FBE9093600060ED77E080E0D5
:1014500090E00E946B1D63E671E08091CD05909154
:10146000CE050E94C630892B91F48091CB059091D6
:10147000CC050E949A2D21E0892B09F420E02093CD
:10148000F70267EF72E08CE490E00E948F216EE338
:1014900072E08091CD059091CE050E94C630892BD7
:1014A00081F48091CB059091CC050E949A2D909368
:1014B0000A038093090369E073E08EE490E00E94E0
:1014C0008A2062E472E08091CD059091CE050E9461
:1014D000C630892B09F058C119828091FF021F92F2
:1014E0008F9389E492E09F938F938E01085B1F4F47
:1014F0001F930F930E941131B801CE0101960E94F3
:10150000D930F8011082809100031F928F938FE4ED
:1015100092E09F938F931F930F930E941131B80114
:10152000CE0101960E94D930F80110828091FB0211
:101530001F928F9386E592E09F938F931F930F9353
:101540000E941131B801CE0101960E94D930F801F4
:1015500010828091F7021F928F938EE5E82E82E031
:10156000F82EFF92EF921F930F930E941131B80152
:10157000CE0101960E94D930F801108280910A03B1
:101580008F93809109038F93FF92EF921F930F9394
:101590000E941131B801CE0101960E94D930F801A4
:1015A00010828091FD021F928F9382E692E09F93BA
:1015B0008F931F930F930E9411310FB6F894DEBFE3
:1015C0000FBECDBFB801CE0101960E94D930F801FF
:1015D00010828091FC021F928F938CE692E09F9381
:1015E0008F931F930F930E941131B801CE01019682
:1015F0000E94D930F80110828091FA028F93809175
:10160000F9028F9381E792E09F938F931F930F933B
:101610000E941131B801CE0101960E94D930F80123
:101620001082CE01895A9F4F0E94C520CE01895A4F
:101630009F4F0E948221E82FF0E0EE0FFF1FE8513C
:10164000FD4F81818F9380818F9386E792E09F93F6
:101650008F931F930F930E941131B801CE01019611
:101660000E94D930F8011082CE01895A9F4F0E9402
:101670008221E82FF0E0EE0FFF1FE652FD4F81813F
:101680008F9380818F93FF92EF921F930F930E940D
:101690001131B801CE0101960E94D930F8011082B3
:1016A0006B968FAD6B971F928F9368968FAD6897EF
:1016B0001F928F9369968FAD69971F928F936A9649
:1016C0008FAD6A971F928F938CE792E09F938F93D1
:1016D0001F930F930E9411310FB6F894DEBF0FBE17
:1016E000CDBFB801CE0101960E94D930F801108219
:1016F0006C968FAD6C978A3028F41F928F938AE88E
:1017000092E004C01F928F938FE592E09F938F9396
:101710001F930F930E9411310F900F900F900F9015
:101720000F900F90B801CE0101960E94D930F801B8
:1017300010826EE872E0CE0101960E94D930BE019F
:101740006F5F7F4FCE018C599F4F0E942B15609188
:10175000D1057091D205CE01825A9F4F0E942B1560
:10176000BE016C597F4FCE01825A9F4F0E941311C8
:10177000CE01825A9F4F0E941D15CE018C599F4F5A
:101780000E941D150E94FD0D68E972E08091CD0553
:101790009091CE050E94C630892BC9F48091CB056B
:1017A0009091CC050E949A2D20912806309129060F
:1017B000280F391F253F314054F49093270680931A
:1017C000260666E276E08EE690E00E948A206EE9C8
:1017D00072E08091CD059091CE050E94C630892B94
:1017E00009F04FC019826091CB057091CC0544E19E
:1017F00050E0CE0101960E940231CE0101967C019B
:1018000002ED10E0F70161917F012A961FAF0EAF44
:101810002A97CE01885B9F4F0E94E5010F5F1F4F03
:10182000063E110579F78091C9059091CA050E947D
:101830009A2D682F8DEC90E00E941E2EBE016F5FE6
:101840007F4FCE01895A9F4F0E942B156091D10581
:101850007091D205CE01885B9F4F0E942B15BE016F
:10186000695A7F4FCE01885B9F4F0E941311CE01B2
:10187000885B9F4F0E941D15CE01895A9F4F0E9481
:101880001D1561EA72E08091CD059091CE050E9410
:10189000C630892B11F581E0809325066EE871E052
:1018A000CE01885B9F4F0E942B156091D1057091EE
:1018B000D205CE0101960E942B15BE01685B7F4FB9
:1018C000CE0101960E941311CE0101960E941D15B2
:1018D000CE01885B9F4F0E941D1567EA72E08091E0
:1018E000CD059091CE050E94C630892B09F052C0DB
:1018F000A6961FAE1EAEA697A0961FAE1EAEA097D0
:10190000BE01625A7F4FCE018C599F4F0E942F1A01
:101910001982A0968FADA0978F936F968FAD6F971A
:101920008F93A6968FADA6978F93A5968FADA5970B
:101930008F938EEA92E09F938F938E010F5F1F4FDC
:101940001F930F930E941131B801CE01895A9F4F06
:101950000E942B156091D1057091D205CE01885B54
:101960009F4F0E942B15BE01695A7F4FCE01885BA5
:101970009F4F0E941311CE01885B9F4F0E941D153F
:10198000CE01895A9F4F0E941D150FB6F894DEBFF5
:101990000FBECDBF68EB72E08091CD059091CE0572
:1019A0000E94C630892B71F5CE0101960E94AF1EB0
:1019B000BE016F5F7F4F8AEA95E00E944414CE011A
:1019C00001960E941D156AEA75E0CE01885B9F4F63
:1019D0000E9422156091D1057091D205CE01019629
:1019E0000E942B15BE01685B7F4FCE0101960E94BD
:1019F0001311CE0101960E941D15CE01885B9F4FE9
:101A00000E941D15C759DF4F0FB6F894DEBF0FBEF9
:101A1000CDBFDF91CF911F910F91FF90EF90DF909D
:101A2000CF90BF90AF909F908F907F906F905F907E
:101A30004F903F902F900895282F3091C803313256
:101A400008F04AC08091A5038111FCCF9091B005A8
:101A500042E04093A5032093A4032FEF2093A30318
:101A60001092A2033093A103E8EAF3E0A1E8B3E007
:101A700020E0321721F041914D932F5FFACF109261
:101A8000800320918003990F922B90938003909173
:101A90007F03913061F410927F03909180039093C3
:101AA000BB009091BC0093FDF8CF95EC01C095EE82
:101AB0009093BC009091A5039230E1F39091A30321
:101AC0009F3F79F08091A303803241F08091A3037E
:101AD000803331F084E005C081E003C082E001C0C2
:101AE00083E01092A7031092C8031092A6030895F2
:101AF000682F89EC93E00C9432190F931F930E9486
:101B0000A51D6093DD037093DE038093DF03909344
:101B1000E00385ED93E00E943F1397FF1FC00E94F2
:101B2000A51D0091DD031091DE032091DF033091AC
:101B3000E003DC01CB01801B910BA20BB30B0091E6
:101B4000D9031091DA032091DB033091DC03801775
:101B50009107A207B307E8F28FEF9FEF1F910F9154
:101B60000895EF92FF920F931F93CF93DF93CDB71A
:101B7000DEB729970FB6F894DEBF0FBECDBF8C013C
:101B8000862FF8011182108213821282158214822C
:101B90004AE09E012F5F3F4F7901B90190E00E941A
:101BA000EC2DF70101900020E9F73197AF014E19B4
:101BB0005F09B701C8010E94E51429960FB6F89491
:101BC000DEBF0FBECDBFDF91CF911F910F91FF9070
:101BD000EF900895CF93DF9300D0CDB7DEB7698340
:101BE0001A8241E050E0BE016F5F7F4F0E94A51452
:101BF0000F900F90DF91CF91089548EC50E064E092
:101C000070E08FEE94E00C9446201F93CF93DF9307
:101C1000EC01162F81E08093A60380E58093B00548
:101C20001092A7031092C8038D2F90E00E94780DA8
:101C3000CE0199270E94780D612F89EC93E00E94D4
:101C4000321981E00E941C0D64E170E080E090E0B8
:101C5000DF91CF911F910C946B1DCF92DF92EF9289
:101C6000FF920F931F93CF93DF938B01009729F07F
:101C70007C0182E0C82ED12C1CC0C0E0D0E060E026
:101C8000CE01800F911F0E94050E2196C630D1050E
:101C9000B1F724C0CE010E94692F82E0E80EF11C4A
:101CA00082E0C80ED11C0F5F1F4F8EE0C816D10412
:101CB000A9F082E090E00E94D12EEC011882A601EA
:101CC000B7010E94BD301A82CE010E949A2D682F62
:101CD000C8010E94050E2097E9F6DFCFDF91CF9172
:101CE0001F910F91FF90EF90DF90CF900895CF93C9
:101CF000DF93EC0181E08093A60380E58093B0053B
:101D00001092A7031092C8038D2F90E00E94780DC7
:101D1000CE0199270E94780D81E00E941C0D8091D0
:101D2000A5038111FCCF81E08093A5038093A403D8
:101D30009FEF9093A3031092A2031092A1038093AC
:101D4000800380918003806A8093800380917F0369
:101D5000813061F410927F03809180038093BB00F7
:101D60008091BC0083FDF8CF85EC01C085EE8093A7
:101D7000BC008091A5038130E1F38091A203811121
:101D800003C09091A20301C091E0A1E8B3E0EFE5A8
:101D9000F3E080E0891721F02D9121938F5FFACF36
:101DA00010925E0380935D03882329F089EC93E011
:101DB0000E94E91801C08FEFDF91CF910895CF9273
:101DC000DF92EF92FF920F931F93CF93DF93E090F8
:101DD000FE04F090FF04853441F0833549F08134EE
:101DE00069F485E0E82EF12C09C0C6E0D0E008C017
:101DF000E701219685E0E80EF11C02C0C1E0D0E0C9
:101E0000CE01019727E0289F8001299F100D112402
:101E1000EC16FD06D4F0680187E0C80ED11C0C1545
:101E20001D051CF021968601F3CFC8010E94770E94
:101E30008111F8CFC80101968C159D059CF70E9471
:101E4000770E8111EFCFCE0102C080E090E0DF91EC
:101E5000CF911F910F91FF90EF90DF90CF90089559
:101E60002F923F924F925F926F927F928F929F92AA
:101E7000AF92BF92CF92DF92EF92FF920F931F9398
:101E8000CF93DF93482E392E3B01C12CD12CC1E0DA
:101E9000D0E08091FE049091FF0405968C179D0779
:101EA0000CF44EC0E42CF32C560100E010E0502E50
:101EB00082E090E00E94D12E4C010F5F1F4FA801DD
:101EC000440F551FB701C4010E94BD30F4011282B6
:101ED000C5010E94770E282EC4010E949A2D222D42
:101EE00030E02817390789F48114910419F0C401EE
:101EF0000E94692F502EF2E0EF0EF11C8FEFA81A0E
:101F0000B80A0730110599F606C08114910419F03A
:101F1000C4010E94692FE7E0CE0ED11CF5E0F51553
:101F200068F427E02C9FC0012D9F900D112401978C
:101F30000E94770EF3018083CE0104C02196A9CFC1
:101F400080E090E0DF91CF911F910F91FF90EF9093
:101F5000DF90CF90BF90AF909F908F907F906F90C9
:101F60005F904F903F902F900895CF92DF92EF9225
:101F7000FF920F931F93CF93DF931F92CDB7DEB7DE
:101F80004983FC0101900020E9F73197E81BF90B28
:101F9000EB30F10518F480E090E030C0DC01E80F90
:101FA000F91F2D91022E000C330B205331092A30DA
:101FB000310588F7AE17BF07A1F7F62E8C01BE01D9
:101FC0006F5F7F4F0E94300F892B29F78F2D0E9462
:101FD000DF0E7C0118161906F4F6019727E0289FFA
:101FE0006001299FD00C1124B601C8010E942D0E5A
:101FF0006981C60106960E94050EC7010F90DF9108
:10200000CF911F910F91FF90EF90DF90CF900895A7
:10201000FC0124813581232B49F06DEB72E0808136
:1020200091810E94E43021E0892B09F020E0822F89
:102030000895CF92DF92EF92FF920F931F93CF9369
:10204000DF9300D0CDB7DEB76C017C0100E010E07B
:10205000F70161917F011A830983CE0101960E94E5
:10206000E5010F5F1F4F0730110591F7C6010F9073
:102070000F90DF91CF911F910F91FF90EF90DF9024
:10208000CF900895FB0144815581608171810C944A
:10209000A514CF93DF93BC0182E794E00E94FE1762
:1020A000EC0182E794E00E9437188C0F9D1FDF91AE
:1020B000CF9108958F929F92AF92BF920F931F93EB
:1020C000CF93DF93CDB7DEB7A1970FB6F894DEBFFD
:1020D0000FBECDBF19A2423008F44AE08E010F5D59
:1020E0001F4F842E912CA12CB12CA50194010E948C
:1020F000912EE62FB901CA0101501109EA3014F4FA
:10210000E05D01C0E95CD801EC93232B242B252B47
:1021100061F7B80182E794E00E942218A1960FB6F9
:10212000F894DEBF0FBECDBFDF91CF911F910F910D
:10213000BF90AF909F908F900895CF92DF92EF92D3
:10214000FF92CF93DF936C01990FEE08FF08F7FE23
:1021500019C06DE282E794E00E94281FEC01662717
:102160007727CB016C197D098E099F094AE00E94EF
:102170005A108C0F9D1FDF91CF91FF90EF90DF9051
:10218000CF9008954AE0C701B601DF91CF91FF904B
:10219000EF90DF90CF900C945A10CF93DF930E9472
:1021A0009D10EC0182E794E00E9437188C0F9D1F70
:1021B000DF91CF910895CF93DF93EC0161EC72E052
:1021C0000E942B150E947D0D97FD05C0682FCE0142
:1021D0000E94EA0DF7CFCE01DF91CF910895CF9302
:1021E000DF9300D000D000D0CDB7DEB7CE0101968E
:1021F0000E94DB10CE0101960E941D1564E670E07E
:1022000080E090E00E946B1D63E471E085ED93E057
:102210000E94FE1726960FB6F894DEBF0FBECDBF04
:10222000DF91CF910895EF92FF920F931F93CF9379
:10223000DF9300D000D000D0CDB7DEB77C018B019A
:10224000CE0101960E94DB10CE0101960E941D1561
:1022500064E670E080E090E00E946B1D69E371E04D
:1022600085ED93E00E94FE17B70185ED93E00E9493
:10227000F01766E371E085ED93E00E94FE1764E6D7
:1022800070E080E090E00E946B1DB80185ED93E066
:102290000E943B1864E670E080E090E00E946B1DB5
:1022A0006AE185ED93E00E9498136CED75E080E0A3
:1022B00090E00E946B1DCE0101960E94DB10CE01C2
:1022C00001960E941D1526960FB6F894DEBF0FBE2C
:1022D000CDBFDF91CF911F910F91FF90EF900895A7
:1022E000CF92DF92FF920F931F93CF93DF93CDB7DF
:1022F000DEB762970FB6F894DEBF0FBECDBF8C017C
:10230000F62E6A0161EC72E0CE010D960E942B154B
:1023100089E06F2D8F15B0F4CE0101960E94B10DAA
:10232000BE016F5F7F4FCE010D960E944414BE0127
:10233000635F7F4FC8010E942215CE0101960E9463
:102340001D1542C0CE010196E5E0CE16D10451F430
:102350000E94B10DBE016F5F7F4FCE010D960E94AE
:10236000441421C00E94B10D6DEB72E0CE010796BE
:102370000E942B154D815E8169817A81CE0107967D
:102380000E94A514811104C0CE0107960E94D314A7
:10239000BE01695F7F4FCE010D960E940615CE01EA
:1023A00007960E941D15CE0101960E941D15F80189
:1023B000118210821382128215821482BE01635F21
:1023C0007F4FC8010E944414CE010D960E941D1536
:1023D000C80162960FB6F894DEBF0FBECDBFDF9185
:1023E000CF911F910F91FF90DF90CF900895BF92F2
:1023F000CF92DF92EF92FF920F931F93CF93DF93D1
:10240000CDB7DEB72C970FB6F894DEBF0FBECDBFA9
:102410008C016B0161EC72E0CE0107960E942B15D6
:1024200087E08C9D70018D9DF00C1124C7010197F0
:102430000E94770E80930401670187E0C81AD108D3
:10244000B12CE12CF12CC6018E0D9F1D0E94770E40
:10245000811101C0B39493E09B1530F46DEB72E0F1
:10246000C8010E942B1525C0A701682FCE01019637
:102470000E947011BE016F5F7F4FCE0107960E94D0
:102480004210CE0101960E941D15EFEFEE1AFE0AD2
:10249000F6E0EF16F104B9F6F8011182108213820A
:1024A000128215821482BE01695F7F4FC8010E94AB
:1024B0004414CE0107960E941D15C8012C960FB634
:1024C000F894DEBF0FBECDBFDF91CF911F910F916A
:1024D000FF90EF90DF90CF90BF90089508954091C6
:1024E000B4055091B5052091B2053091B30542175E
:1024F0005307B4F49091E8009570E1F39091E800EF
:1025000092FD19C08093F1008091B4059091B505BA
:1025100001968F739927892B19F48EEF8093E80029
:102520008091B4059091B50501969093B50580937F
:10253000B40581E0089580E00895DF92EF92FF9264
:102540000F931F93CF93DF93D82EF92EE42E062FEF
:1025500010E0C8010196880F0E946F1283E00E946C
:102560006F12CD2DDF2D0C0F1D1FC017D10789F065
:10257000E7FE03C0FE01849101C088810E946F12B2
:10258000F82E80E00E946F128F2121968111EDCFED
:1025900001C081E0DF91CF911F910F91FF90EF90EB
:1025A000DF900895DF92EF92FF920F931F93CF93E6
:1025B000DF93D82E8A017B01E40EF51EEB01CE15C8
:1025C000DF0571F0D7FE03C0FE01849101C0888150
:1025D0000E946F1221968111F2CF8FEF9FEF01C001
:1025E000C801DF91CF911F910F91FF90EF90DF9085
:1025F0000895615030F02091F100FC012083019694
:10260000F8CF289884E68093C3050895CF92DF928F
:10261000EF92FF920F931F93CF93DF936C017A0198
:102620008B01C0E0D0E0CE15DF0581F0D8016D91BF
:102630008D01D601ED91FC910190F081E02DC60154
:102640000995892B11F02196EECF7E01C701DF910C
:10265000CF911F910F91FF90EF90DF90CF90089551
:10266000FC01538D448D252F30E0842F90E0821B98
:10267000930B541710F0CF96089501970895FC011D
:10268000918D828D981761F0828DDF01A80FB11DA9
:102690005D968C91928D9F5F9F73928F90E00895CD
:1026A0008FEF9FEF0895FC01918D828D981731F087
:1026B000828DE80FF11D858D90E008958FEF9FEFDB
:1026C0000895FC01918D228D892F90E0805C9F4FB1
:1026D000821B91098F739927089585ED93E00E94DD
:1026E000611321E0892B09F420E0822F0895FC0179
:1026F000848DDF01A80FB11DA35ABF4F2C91848D8B
:1027000090E001968F739927848FA689B7892C93BF
:10271000A089B1898C9182748C93938D848D981348
:1027200006C00288F389E02D80818F7D8083089523
:10273000EF92FF920F931F93CF93DF93EC0181E011
:10274000888F9B8D8C8D981305C0E889F9898081CD
:1027500085FD26C0F62E0B8D10E00F5F1F4F0F7307
:102760001127E02E8C8DE8120CC00FB607FCFACFB3
:10277000E889F989808185FFF5CFCE010E94771322
:10278000F1CF8B8DFE01E80FF11DE35AFF4FF08270
:102790009FB7F8940B8FEA89FB898081806209C01A
:1027A0009FB7F894EE89FF896083E889F989808171
:1027B000827480839FBF81E090E0DF91CF911F9171
:1027C0000F91FF90EF900895CF93DF93EC01888DE8
:1027D0008823C9F0EA89FB89808185FD05C0A88925
:1027E000B9898C9186FD0FC00FB607FCF5CF8081AB
:1027F00085FFF2CFA889B9898C9185FFEDCFCE01F5
:102800000E947713E7CFDF91CF91089580E090E0A9
:10281000892B29F00E946D1381110C9400000895FA
:102820000E94B8300F931F93CF93DF931F92CDB7C1
:10283000DEB782E0898342E450E06EE471E080E834
:102840000E94D2120E94C31CDC0112960D911C91B1
:1028500013970115110589F0D801ED91FC910280C3
:10286000F381E02DBE016F5F7F4FC801099597FD91
:1028700004C0F80100851185ECCF89810F90DF91AC
:10288000CF911F910F9108950F931F93CF93DF93D3
:102890008C01EB01FC0180819181009739F0688106
:1028A000798161157105A1F40E94692F8881998150
:1028B000F801918380838A819B81938382838C81B9
:1028C0009D8195838483198218821B821A820FC08E
:1028D000F801428153812C813D814217530720F337
:1028E0000E94ED308C819D81F801958384831D8247
:1028F0001C82DF91CF911F910F9108950F931F9329
:10290000CF93DF93EC0188819981009729F02A8188
:102910003B812617370788F48B016F5F7F4F0E943A
:10292000F22F009761F0998388831B830A832C819F
:102930003D81232B11F4FC01108281E001C080E075
:10294000DF91CF911F910F910895EF92FF920F9316
:102950001F93CF93DF936115710511F480E01CC0C4
:1029600041155105C1F07B01EC018C819D818A01EB
:10297000080F191FB801CE010E947E14882371F33D
:10298000288139818C819D81B701820F931F0E941C
:10299000ED301D830C8381E0DF91CF911F910F916A
:1029A000FF90EF900895CF93DF93EC018881998198
:1029B000009711F00E94692F198218821D821C82D3
:1029C0001B821A82DF91CF910895EF92FF920F93AD
:1029D0001F93CF93DF93EC017B018A01BA010E9420
:1029E0007E14811104C0CE010E94D31407C01D8340
:1029F0000C83B701888199810E94ED30CE01DF916F
:102A0000CF911F910F91FF90EF900895CF93DF9397
:102A1000EC01FB018617970761F0608171816115F8
:102A2000710529F0448155810E94E51402C00E947D
:102A3000D314CE01DF91CF910895FC018081918163
:102A40000C94692FFC01118210821382128215826C
:102A500014820C940615FC011182108213821282DA
:102A6000158214826115710551F0FB01019000205F
:102A7000E9F73197AF01461B570B0C94E514089505
:102A80001F920F920FB60F9211248F939F938091F4
:102A9000E1009091E100937F9093E10083FF0FC0EC
:102AA0001092E90091E09093EB001092EC0092E319
:102AB0009093ED001092C40598E09093F00082FF8F
:102AC00020C093E09093E9009091F200992319F0CF
:102AD0009AE39093E8009091B105992339F0909191
:102AE000B10591509093B105992389F19091C30557
:102AF000992339F09091C30591509093C305992380
:102B000041F184FF10C08091E2008E7E816080934D
:102B1000E2008091E1008F7E8093E1008091D402F9
:102B20008E7E806111C080FF16C08091E2008E7E93
:102B300080618093E2008091E1008E7E8093E100CD
:102B40008091D4028E7E81608093D40204C05D9A0D
:102B5000CDCF289AD6CF9F918F910F900FBE0F9017
:102B60001F9018951F920F920FB60F921124CF92BB
:102B7000DF92EF92FF920F931F932F933F934F9308
:102B80005F936F937F938F939F93AF93BF93EF93D5
:102B9000FF93CF93DF93CDB7DEB76C97DEBFCDBF8A
:102BA0001092E9008091E80083FFFBC168E0CE014C
:102BB00045960E94F91282EF8093E8008D8987FF85
:102BC00005C09091E80090FFFCCF03C09EEF90936A
:102BD000E800982F907609F0C6C09E894F89588DDD
:102BE0002F89F88C91110CC0803829F48091D5027E
:102BF0008093F10002C01092F1001092F10045C1E3
:102C0000913051F4811141C14130510509F03DC16C
:102C10008091D5028D7F0BC0933061F4811135C155
:102C20004130510509F031C18091D5028260809315
:102C3000D5022BC1953049F48091E80080FFFCCF8C
:102C4000822F80688093E30020C1963009F05EC037
:102C50000B8D1C8D22E01092E9001092B5051092A8
:102C6000B405F21232C01092B3051092B2050E9460
:102C7000121499E0BE016F5F7F4FDB01E92F1D92B7
:102C8000EA95E9F79983FA8291E09E8390EA988722
:102C90009AEF99872091B4053091B505275F3F4F92
:102CA0003C832B838D831092E9001092B50510921E
:102CB000B4051093B3050093B20549E050E080E0FD
:102CC0000E94D2120E941214E0C01093B305009328
:102CD000B2050E94C31CDC0112960D911C91139742
:102CE0000115110509F4BBC0D801ED91FC910480D8
:102CF000F581E02DBE016B5E7F4FC80109950097FD
:102D000009F0C7C0F80100851185EACF973009F4B2
:102D100045C1983021F481E08093F100B6C099302C
:102D200009F0B3C0837009F039C1E5E5F1E081E055
:102D300031E096E32081211109C08EE78093EA00FB
:102D40001092EA008F898093C4059FC08093E900A8
:102D50003093EB0021912093EC009093ED008F5F76
:102D6000873041F7EACF8B8D9C8D1092E90010924D
:102D7000B5051092B4059093B3058093B205898D83
:102D8000811153C08E899D89913A49F4813209F0AD
:102D900005C147E050E069E071E080E0BBC09132DE
:102DA00009F0FCC0833269F48F89988DA0E0B0E00F
:102DB0008093050190930601A0930701B093080149
:102DC00064C0803269F48091E80082FFFCCF67E044
:102DD00089E091E00E94F9128BEF8093E80055C0E2
:102DE000823209F052C08F8980931001EEEFFFE725
:102DF000859194918B3F9C4D19F0E0E0F8E002C082
:102E0000EEEFFAE08091090190910A01A0910B0187
:102E1000B0910C01803B9440A105B10509F09EC022
:102E20008091100180FF79C099C00E94C31CFC01F1
:102E3000028113810115110509F4B0C0D801ED918B
:102E4000FC910190F081E02DBE016B5E7F4FC801C7
:102E5000099581111AC0F80100851185EBCFF1E0C9
:102E6000FF1609F44EC0F3E0FF1298C08F89882343
:102E700009F44AC0823089F440E862E18FEA91E0C7
:102E80000E949D12882309F489C08EEF8093E80088
:102E900088C018161906CCF381C0813029F440E8A7
:102EA00068E086EA91E0ECCF833009F077C00E94B9
:102EB000C31CDC011296ED90FC9013978E010F5FFE
:102EC0001F4F6801E114F10479F0D701ED91FC91F5
:102ED0000680F781E02DB801C7010995080F111D83
:102EE000F701E084F184EECFD8011C92F601019045
:102EF0000020E9F73197BF016C197D0940E0C60158
:102F0000BFCF64E971E002C060E971E0FB01449168
:102F100050E080E80E94D212B8CFEE3F2AE0F207DC
:102F200051F0808191818737A7E79A0721F090932C
:102F3000FF0A8093FE0A87E797E791838083809159
:102F400060008093B6059BE088E10FB6F894A895E1
:102F5000809360000FBE9093600097CF8081918135
:102F60008737974709F091CFA895809160008861D5
:102F7000809360008091B60580936000EE3FBAE0D8
:102F8000FB0739F08091FE0A9091FF0A91838083BC
:102F90007CCF1092FF0A1092FE0A77CF81E28093D5
:102FA000EB006C960FB6F894DEBF0FBECDBFDF917D
:102FB000CF91FF91EF91BF91AF919F918F917F91B1
:102FC0006F915F914F913F912F911F910F91FF90C2
:102FD000EF90DF90CF900F900FBE0F901F9018953D
:102FE000DB0114964D915C9115976D917C91DC01FC
:102FF000ED91FC910280F381E02D0994EF92FF9214
:103000000F931F93CF93DF938C017B01C0E0D0E03F
:10301000F701EC0FFD1F6491662361F0D801ED917B
:10302000FC910190F081E02DC8010995892B11F0E8
:103030002196EECFCE01DF91CF911F910F91FF909E
:10304000EF9008956115710579F0FB010190002062
:10305000E9F73197AF01461B570BDC01ED91FC916D
:103060000280F381E02D099480E090E008956FEBF9
:1030700072E00C9422180F931F93CF93DF93EC010F
:103080000E94F0178C01CE010E943718800F911F0B
:10309000DF91CF911F910F9108951F920F920FB65C
:1030A0000F9211242F933F934F935F936F937F93CE
:1030B0008F939F93AF93BF93EF93FF9385ED93E02F
:1030C0000E947713FF91EF91BF91AF919F918F91E4
:1030D0007F916F915F914F913F912F910F900FBE14
:1030E0000F901F9018951F920F920FB60F921124F8
:1030F0002F938F939F93EF93FF93E091E503F091CC
:10310000E6038081E091EB03F091EC0382FD12C0B5
:1031100090818091EE038F5F8F732091EF03821770
:1031200051F0E091EE03F0E0EB52FC4F958F80936D
:10313000EE0301C08081FF91EF919F918F912F91BC
:103140000F900FBE0F901F90189585ED8093BC00D7
:103150008091BC0084FDFCCF1092A503089540919E
:103160000006262F30E0240F311D21323105DCF41A
:103170002091A5032430C9F4FC0180E090E086177B
:1031800058F4309100062191DC01A052BA4FA30FF0
:10319000B11D2C930196F3CF80910006680F6093C8
:1031A000000680E0089581E0089582E00895089582
:1031B00008950895E0915E0380915D03E81730F46F
:1031C000F0E0E15AFC4F808190E008958FEF9FEF8F
:1031D000089590915E0380915D03981750F4E92F54
:1031E000F0E0E15AFC4F208130E09F5F90935E0356
:1031F00002C02FEF3FEFC901089580915D0390E079
:1032000020915E03821B91090895CF92DF92EF9285
:10321000FF920F931F93CF93DF937C01CB018A0121
:103220002091A603222389F0EB016B01C40ED51E69
:10323000CC15DD0569F06991D701ED91FC91019004
:10324000F081E02DC7010995F3CF642F0E94AF18DC
:10325000C801DF91CF911F910F91FF90EF90DF9008
:10326000CF900895CF93DF931F92CDB7DEB76983D8
:103270002091A6032223D1F02091C803203240F0F0
:1032800021E030E0FC013383228380E090E015C030
:103290008091A703E82FF0E0E855FC4F99819083D7
:1032A0008F5F8093A7038093C80305C061E0CE01C0
:1032B00001960E94AF1881E090E00F90DF91CF91CE
:1032C000089590E0FC013197EF30F105B0F5EA5A2E
:1032D000FF4F0C94B32E809180008F7703C08091B4
:1032E00080008F7D80938000089580918000877F8B
:1032F000F9CF84B58F7702C084B58F7D84BD0895E2
:10330000809190008F7707C0809190008F7D03C0DF
:1033100080919000877F8093900008958091C000F5
:103320008F7703C08091C0008F7D8093C000089587
:103330008091C200877F8093C20008953FB7F894C0
:103340008091BB059091BC05A091BD05B091BE05D3
:1033500026B5A89B05C02F3F19F00196A11DB11DF0
:103360003FBFBA2FA92F982F8827820F911DA11D2B
:10337000B11DBC01CD0142E0660F771F881F991F68
:103380004A95D1F708959F92AF92BF92CF92DF9264
:10339000EF92FF920F931F93CF93DF9300D0CDB79F
:1033A000DEB76C01B62E7A011A821982BE016F5FF8
:1033B0007F4F80E590E00E94B12089819A818C5EE8
:1033C0009A4F2DE0289F8001299F100D1124B801EC
:1033D000C6010E942D0EF701A0809180C380D48089
:1033E0006281C80107960E94050E692DC8010896E2
:1033F0000E94050E6A2DC80109960E94050E6C2DCB
:10340000C8010A960E94050E6D2DC8010B960E94F8
:10341000050E6B2DC8010C960E94050E89819A81BC
:103420000196843FF1E09F0719F09A83898302C0D7
:103430001A821982BE016F5F7F4F80E590E00E9483
:103440008A200F900F90DF91CF911F910F91FF90E5
:10345000EF90DF90CF90BF90AF909F900895DF9254
:10346000EF92FF920F931F93CF93DF938C017B0119
:10347000C0E0D0E087E0D82E2091FE043091FF0418
:10348000D29EC001D39E900D11248C179D0794F0FD
:10349000CE010E94770E882359F0CD31D10514F466
:1034A000F80101C0F70180819181019691838083A9
:1034B0002796E2CFDF91CF911F910F91FF90EF9070
:1034C000DF900895CF92DF92EF92FF920F931F93B8
:1034D000CF93DF931F92CDB7DEB71982BE016F5F26
:1034E0007F4F0E94300F7C01019727E0289F6001E9
:1034F000299FD00C112400E010E060E0C8018C0D81
:103500009D1D0E94050E0F5F1F4F07301105A9F783
:10351000C7010F90DF91CF911F910F91FF90EF9016
:10352000DF90CF9008956115710551F0FB01019076
:103530000020E9F73197AF01461B570B0C94A514F7
:1035400080E008954F925F926F928F929F92AF9218
:10355000BF92CF92DF92EF92FF921F93CF93DF93B0
:103560001092D2051092D1051092D0051092CF057D
:103570001092CE051092CD051092CC051092CB057D
:103580001092CA051092C9051092C8051092C7057D
:103590001092C6051092C505DC01ED91FC91908159
:1035A0009093D30580910005813529F4943581F0FD
:1035B000913519F40FC0943581F0892F877F8334BA
:1035C00061F0993451F09B7F913509F060C005C0DE
:1035D000C8E004C0C0E012E002C0C0E013E068E848
:1035E00072E0CF010E94B82D612CD0E04E01B4E012
:1035F0008B0E911C2E0125E0420E511C7E01A6E08F
:10360000EA0EF11C6E01B7E0CB0ED11C5E0128E082
:10361000A20EB11C29960097D1F16394611204C0E7
:103620009093D2058093D105262D30E028153905D9
:1036300021F49093D0058093CF052415350521F40E
:103640009093CE058093CD052E153F0521F49093E0
:10365000CC058093CB052C153D0521F49093CA052C
:103660008093C9052A153B0521F49093C8058093E2
:10367000C7052C173D0721F49093C6058093C50517
:1036800062EC72E080E090E00E94B82DC4CFDF9140
:10369000CF911F91FF90EF90DF90CF90BF90AF90B0
:1036A0009F908F906F905F904F9008952091C405E8
:1036B000211103C08FEF9FEF08955FB7F89422E0C8
:1036C0002093E9002091F20030E01216130614F462
:1036D00021E030E0422FFC0184E6415038F0289888
:1036E0008093C3059091F1009193F7CF2115310597
:1036F00021F08091F200882319F05FBFC90108957D
:103700008BE68093E800F9CF2FB7F89483E080939D
:10371000E9009091E800892F807295FF04C0909194
:10372000F20080E4891B2FBF08951F920F920FB6FD
:103730000F9211242F933F934F935F936F937F9337
:103740008F939F93AF93BF93EF93FF938091B900B3
:10375000887F803609F49CC068F5883209F45BC024
:1037600090F4803109F454C038F4882309F4F6C089
:10377000883009F44DC0F6C0883109F44CC080325D
:1037800009F45DC0EFC0803409F468C048F48033A8
:1037900009F455C0883309F0E5C08093A303D8C06D
:1037A000803509F44FC0883509F45DC0883409F0CC
:1037B000D9C0D6C0883909F4C7C0A8F4883709F43D
:1037C00067C038F4883609F463C0803709F460C0F4
:1037D000C9C0883809F4B8C0803909F45FC080389E
:1037E00009F0C0C05BC0803B09F486C038F4803A61
:1037F00009F466C0883A09F47FC0B4C0803C09F47B
:10380000A7C0883C09F4A4C0883B09F48AC0AAC0B8
:103810008091800310C09091A2038091A10398171A
:1038200070F5E091A20381E08E0F8093A203F0E097
:10383000EF57FC4F80818093BB0085EC86C080935E
:10384000A3038EC0E091A20381E08E0F8093A203B8
:103850008091BB00F0E0EF57FC4F80839091A20372
:103860008091A1036EC0E091A20381E08E0F80934E
:10387000A2038091BB00F0E0EF57FC4F8083809162
:10388000A40381116DC081E080937F0384EA61C04D
:1038900083E08093A50310922206CFCF8091220669
:1038A000803208F051C0E091220681E08E0F8093B3
:1038B00022068091BB00F0E0EE5FF94F8083BDCF20
:1038C00085EC8093BC001092A50380912206803283
:1038D00030F4E0912206F0E0EE5FF94F1082609143
:1038E000220670E0E091C105F091C20582E096E009
:1038F00009951092220636C084E08093A5031092A9
:10390000010610920006E091BF05F091C0050995EF
:1039100080910006811105C081E08093000610921D
:10392000E005E091010681E08E0F80930106F0E052
:10393000E052FA4F80818093BB0090910106809104
:103940000006981708F479CF85E88093BC000AC078
:1039500085EC8093BC001092A50304C01092A303D1
:103960000E94A518FF91EF91BF91AF919F918F9108
:103970007F916F915F914F913F912F910F900FBE6B
:103980000F901F9018958091D80581110DC082E08D
:103990008093D40584E08093D5051092D7051092CA
:1039A000D60581E08093D80584ED95E00895CF9306
:1039B000DF93282F30E0F901E65DFD4F8491F90196
:1039C000E55FFD4FD491F901E451FE4FC491CC2342
:1039D00091F081110E946119EC2FF0E0EE0FFF1FB2
:1039E000E252FE4FA591B491EC91ED2381E090E07D
:1039F00021F480E002C080E090E0DF91CF91089553
:103A00001F93CF93DF93282F30E0F901E65DFD4F40
:103A10008491F901E55FFD4FD491F901E451FE4F26
:103A2000C491CC23C1F0162F81110E946119EC2F93
:103A3000F0E0EE0FFF1FE053FE4FA591B4919FB74A
:103A4000F894111104C08C91D095D82302C0EC9148
:103A5000DE2BDC939FBFDF91CF911F910895CF9311
:103A6000DF9390E0FC01E55FFD4F2491FC01E45100
:103A7000FE4F8491882361F190E0880F991FFC012B
:103A8000EE53FE4FC591D491FC01E053FE4FA5913A
:103A9000B491611109C09FB7F89488812095822361
:103AA0008883EC912E230BC0623061F49FB7F894A9
:103AB0008881322F309583238883EC912E2B2C9391
:103AC0009FBF06C08FB7F894E8812E2B28838FBF45
:103AD000DF91CF9108958F929F92AF92BF92CF9234
:103AE000DF92EF92FF926B017C010E949E194B01C5
:103AF0005C01C114D104E104F104F1F00E949E19AB
:103B0000DC01CB0188199909AA09BB09883E9340B9
:103B1000A105B10570F321E0C21AD108E108F1084E
:103B200088EE880E83E0981EA11CB11CC114D1043C
:103B3000E104F10419F7DDCFFF90EF90DF90CF9013
:103B4000BF90AF909F908F9008952FB7F894609199
:103B5000B7057091B8058091B9059091BA052FBF4E
:103B600008950F931F93CF93DF93EC01092E000C60
:103B7000AA0BBB0B8093F3049093F404A093F50479
:103B8000B093F6040E94A51DAB01BC018091FA041C
:103B90009091FB04A091FC04B091FD048A019B016B
:103BA000081B190B2A0B3B0B8091F3049091F40432
:103BB000A091F504B091F604081719072A073B07EE
:103BC00058F18091F104811113C081E08093F104D8
:103BD000C43F81E0D80774F0CE01845F9140092E84
:103BE000000CAA0BBB0B481B590B6A0B7B0B02C0CA
:103BF0001092F1044093FA045093FB046093FC0488
:103C00007093FD046091F1048091EF04DF91CF91F6
:103C10001F910F910C94001DDF91CF911F910F9177
:103C20000895CF93DF9300D000D000D0CDB7DEB79A
:103C3000CE0101960E94DB10CE0101960E941D1557
:103C40006AEA72E085ED93E00E94FE1768EE73E089
:103C500080E090E00E946B1DCE0101960E94DB1077
:103C6000CE0101960E941D156EE972E085ED93E08C
:103C70000E94FE1768EE73E080E090E00E946B1DEA
:103C8000CE0101960E94DB10CE0101960E941D1507
:103C900062E972E085ED93E00E94FE1768EE73E042
:103CA00080E090E00E946B1DCE0101960E94DB1027
:103CB000CE0101960E941D156EE772E085ED93E03E
:103CC0000E94FE1768EE73E080E090E00E946B1D9A
:103CD000CE0101960E94DB10CE0101960E941D15B7
:103CE0006FE572E085ED93E00E94FE1768EE73E0E9
:103CF00080E090E00E946B1DCE0101960E94DB10D7
:103D0000CE0101960E941D1568E572E085ED93E0F5
:103D10000E94FE1768EE73E080E090E00E946B1D49
:103D2000CE0101960E94DB10CE0101960E941D1566
:103D300062E572E085ED93E00E94FE17CE010196E8
:103D40000E94DB10CE0101960E941D1526960FB62B
:103D5000F894DEBF0FBECDBFDF91CF910895EF92F3
:103D6000FF920F931F93CF93DF9300D000D000D02A
:103D7000CDB7DEB78C01CE0101960E94DB10CE01DB
:103D800001960E941D1564E670E080E090E00E94BC
:103D90006B1D68E472E085ED93E00E94FE1768EE0B
:103DA00073E080E090E00E946B1DFF24F39487E2B3
:103DB000E82E85ED93E00E94611320910D05181601
:103DC000190664F521112AC085ED93E00E943F1386
:103DD000909124069923E9F0E09123068A3071F04E
:103DE000AE2FB0E0A258BA4F8C93EF5FE83218F4D0
:103DF000E0932306DECFE0922306DBCFF0E0E2582B
:103E0000FA4F10821092240610922306F0920D05AC
:103E1000D0CF883371F6F0922406CBCF222329F03D
:103E200010920D056EE775E002C06BEC72E0C80100
:103E30000E942B15C80126960FB6F894DEBF0FBE60
:103E4000CDBFDF91CF911F910F91FF90EF9008951B
:103E5000CF93DF931F92CDB7DEB76983DC01ED917D
:103E6000FC910280F381E02D41E050E0BE016F5FE4
:103E70007F4F09950F90DF91CF91089583E0809354
:103E8000E9008091F200882319F08AE38093E8002A
:103E90000895FC018485958597FD0BC09FB7F89424
:103EA00082E08093E9008091F2009FBF90E001964C
:103EB00008959FB7F89482E08093E9008091F20022
:103EC0009FBF90E0089580E090E008958F929F92C8
:103ED000AF92BF92CF92DF92EF92FF920F931F9318
:103EE000CF93DF936C017B018A01809110018823BD
:103EF00009F45CC08091C405882309F457C08091FF
:103F0000D40280FF05C08091E00082608093E000D1
:103F1000E801B12C8AEFA82E93E0892E2AE3922E95
:103F2000209711F4BB20D9F10E94841B81110AC093
:103F3000AA94AA20D9F161E070E080E090E00E94AC
:103F40006B1DEECF282F30E0C217D3070CF48C2F57
:103F50009FB7F8948092E9002091E80025FF1DC0EA
:103F6000282F30E0C21BD30BF701815020F0419184
:103F70004093F100FACFE20EF31EBB2019F09092AD
:103F8000E8000AC08091E80085FD07C09092E80033
:103F9000BB24B394209709F0B12C9FBFC1CF5D988B
:103FA00084E68093B1051016110644F081E090E09C
:103FB000F6019383828380E090E001C0C801DF9125
:103FC000CF911F910F91FF90EF90DF90CF90BF9016
:103FD000AF909F908F9008950E94841B90E0089569
:103FE0000F931F93CF93DF931F92CDB7DEB78C0152
:103FF000FC018485958597FF0EC0CE0101960E9435
:10400000561B019719F4898190E002C08FEF9FEF52
:10401000F80195878487F801848595850F90DF9155
:10402000CF911F910F910895CF93DF931F92CDB73A
:10403000DEB7FC018485958597FD05C02FEF3FEF26
:10404000358724870BC0CE0101960E94561B01972D
:1040500019F4898190E002C08FEF9FEF0F90DF91FC
:10406000CF910895CF93DF93EB010E94162E8883A2
:10407000CE01DF91CF91089560E0FC0180810C9426
:10408000001D61E0FC0180810C94001DEF92FF9205
:104090000F931F93CF93DF93EC01CB01072E000CFE
:1040A000AA0BBB0B8C839D83AE83BF835987488744
:1040B0008B81882341F18B01E12CF12CE016F10674
:1040C000C4F461E088810E94001D6885798580E0E4
:1040D00090E00E946B1D60E088810E94001D688551
:1040E000798580E090E00E946B1D8FEFE81AF80A56
:1040F000E5CF60E08881DF91CF911F910F91FF9014
:10410000EF900C94001DDF91CF911F910F91FF90C4
:10411000EF900895EF92FF920F931F93CF93DF9349
:1041200000D0CDB7DEB78C017B01FB0160819A83A3
:104130008983CE0101960E94E501F70161810F5F3D
:104140001F4F1A830983CE0101960E94E501C70122
:104150000F900F90DF91CF911F910F91FF90EF90F3
:1041600008950F931F93CF93DF938C01EB010E946F
:10417000162E8883C80101960E94162E8983CE01CF
:10418000DF91CF911F910F9108958F929F92AF92DF
:10419000BF92CF92DF92EF92FF92CF93DF93EC0129
:1041A0000E94A51DC090D602D090D702E090D80200
:1041B000F090D90220E8C21A23E4D20A2DE6E20ADE
:1041C00028E3F20A28EE33E040E050E00E94912E0E
:1041D000C20ED31EE41EF51E8CE3882E912CA12C5A
:1041E000B12CC701B601A50194010E94912E6D83E7
:1041F000CA01B901A50194010E94912E6C83C701E7
:10420000B60120E13EE040E050E00E94912ECA015C
:10421000B90128E130E040E050E00E94912E6B832C
:10422000C701B60120E831E541E050E00E94912E3F
:1042300018824881542F537081E009F080E090E0AB
:10424000BC0163597E4F2617370738F0281B390BFE
:104250002D5631404F5F4883ECCF81E089838981BF
:10426000E82FF0E0EB54FD4FE491511103C0823090
:1042700009F4EF5FF0E02E173F0720F02E1B3F0BF5
:104280008F5FECCF2F5F2A83CE01DF91CF91FF901C
:10429000EF90DF90CF90BF90AF909F908F90089558
:1042A000803D27E0920710F0805D974050E0E6EBFC
:1042B000F2E021E0261730F43491430F511D2F5FB7
:1042C0003196F8CF633038F09C0123703327232BCD
:1042D00011F44F5F5F4FBC016D5F7F4F769567951F
:1042E00076956795EDE6F1E08E9F90018F9F300DFA
:1042F0009E9F300D1124C9010197860F971F840FCF
:10430000951F0895FC0180814281618190E00E94A7
:104310005021069667E070E00E947D2E08950F936D
:104320001F93CF93DF9300D0CDB7DEB78B01FB0196
:1043300060819A838983CE0101960E94E501C801BC
:104340000F900F90DF91CF911F910F910895EF92F1
:10435000FF920F931F93CF93DF9302E013E0C0E02F
:10436000D0E0CE010E94162EF80181938F01219694
:10437000C730D105B1F76FEF72E08AE090E00E949C
:10438000B1206EEF72E088E290E00E9432206DEF83
:1043900072E082E390E00E9432206CEF72E084E3EE
:1043A00090E00E94322069EF72E086E390E00E9484
:1043B000B12061E073E08CE390E00E9432206BEF6B
:1043C00072E08EE390E00E94322068EF72E08AE4AF
:1043D00090E00E94322067EF72E08CE490E00E944F
:1043E000322069E073E08EE490E00E94B12068E240
:1043F00076E08AE590E00E94B1206BE276E084E608
:1044000090E00E94B12066E276E08EE690E00E94A5
:10441000B1206AE276E088EC90E00E943220C8EE9B
:10442000D2E00AED12E086EFE82E82E0F82EBE011F
:104430008CED90E00E94B120B80180EF90E00E94E6
:10444000B12022960E5F1F4FEC16FD0681F7DF911B
:10445000CF911F910F91FF90EF9008950F931F93AD
:10446000CF93DF93CDB7DEB729970FB6F894DEBFB1
:104470000FBECDBF8FEE94E00E94412000E010E01F
:104480008091FE049091FF0423E0880F991F2A95E4
:10449000E1F7081719073CF460E0C8010E94050E17
:1044A0000F5F1F4FEDCF04E012E460E0C8010E94EF
:1044B000050E0F5F1F4F0C3C8BE51807B1F700E0AE
:1044C00010E01A83098360E0CE0101960E94E501A5
:1044D0000F5F1F4F011582E0180799F787E0EDEC99
:1044E000F2E0DE01119601900D928A95E1F7CE017E
:1044F00001960E94191082E08093FF0280930003CE
:104500006FEF72E08AE090E00E948A2011E0188745
:10451000BE01685F7F4F88E290E00E948F2119877B
:10452000BE01675F7F4F8CE390E00E948F21109265
:10453000F70267EF72E08CE490E00E948F2182E046
:1045400090E090930A038093090369E073E08EE49E
:1045500090E00E948A2009E110E010932906009360
:10456000280668E276E08AE590E00E948A201093AF
:104570002C0600932B066BE276E084E690E00E9426
:104580008A20109327060093260666E276E08EE6E0
:1045900090E00E948A200E94FD0D61E08EE290E092
:1045A0000E941E2E9EE088E10FB6F894A895809395
:1045B00060000FBE9093600060ED77E080E090E0D7
:1045C0000E946B1D29960FB6F894DEBF0FBECDBFBB
:1045D000DF91CF911F910F910895FF920F931F9339
:1045E000CF93DF93CDB7DEB72C970FB6F894DEBF2D
:1045F0000FBECDBF8C01F62ECE0107960E94C520BE
:104600008F81898388858A8389858B838A858C833A
:104610008B858D838C858E83AE014F5F5F4F6F2DB1
:10462000C8010E94C319BE016F5F7F4F80E590E013
:104630000E94B12089819A810E94CD102091280684
:104640003091290689819A818217930721F0809100
:1046500025068823C9F08091260690912706820FAF
:10466000931F843F21E092072CF4909329068093B6
:10467000280604C0109229061092280668E276E007
:104680008AE590E00E948A202C960FB6F894DEBF4F
:104690000FBECDBFDF91CF911F910F91FF90089575
:1046A0001F920F920FB60F9211242F933F938F9367
:1046B0009F93AF93BF938091B7059091B805A09158
:1046C000B905B091BA0530912D0623E0230F2D379F
:1046D00020F40196A11DB11D05C026E8230F029606
:1046E000A11DB11D20932D068093B7059093B805A9
:1046F000A093B905B093BA058091BB059091BC0514
:10470000A091BD05B091BE050196A11DB11D80937C
:10471000BB059093BC05A093BD05B093BE05BF91AA
:10472000AF919F918F913F912F910F900FBE0F905E
:104730001F901895CF93DF93CDB7DEB7E2970FB6F2
:10474000F894DEBF0FBECDBF789484B5826084BD7F
:1047500084B5816084BD85B5826085BD85B5816085
:1047600085BD80916E00816080936E001092810003
:1047700080918100826080938100809181008160BE
:10478000809381008091800081608093800080917F
:10479000910082608093910080919100816080936C
:1047A0009100809190008160809390008091C10081
:1047B00084608093C1008091C10082608093C100B9
:1047C0008091C10081608093C1008091C3008160AD
:1047D0008093C3008091C00082608093C00080916C
:1047E000C20081608093C20080917A0084608093CF
:1047F0007A0080917A00826080937A0080917A00BA
:10480000816080937A0080917A00806880937A003A
:104810001092C4051092D5021092D4028091D70054
:1048200081608093D70080EA8093D80089B5806149
:1048300089BD89B5826089BD09B400FEFDCF61E004
:1048400070E080E090E00E946B1D8091D8008F7C2A
:1048500080618093D8008091E000807F8093E000A9
:104860008091E1008E7E8093E1008DE08093E200F4
:10487000559A209A87EF84BF0FB6F894A895809137
:104880006000886180936000109260000FBE60E05D
:104890008EE00E942F1D61E080E10E942F1D62E0EA
:1048A00085E10E942F1D48EC50E065E070E08FEE3E
:1048B00094E00E9446208EE290E00E94162E811124
:1048C0000FC061E080E10E94001D64EF71E080E0B4
:1048D00090E00E946B1D60E080E10E94001D05C019
:1048E00060E08EE290E00E941E2E8FEE94E00E9427
:1048F00041208FEF9FEF90937F0480937E0468EEBA
:1049000073E080E090E00E946B1D68EE73E080E051
:1049100090E00E946B1D10925E0310925D03109256
:10492000A7031092C8031092A50381E08093A4030B
:1049300010927F0361E082E00E94001D61E083E04D
:104940000E94001D8091B9008E7F8093B9008091F4
:10495000B9008D7F8093B90088E48093B80085E426
:104960008093BC0087ED98E19093C0058093BF05CC
:1049700088ED98E19093C2058093C10560E576E4E7
:1049800080E090E00E946B1DE091E503F091E6036A
:1049900002E00083E091E103F091E2031082E091F4
:1049A000E303F091E40380E180831092ED03E09152
:1049B000E903F091EA0316E01083E091E703F09138
:1049C000E803808180618083E091E703F091E80350
:1049D000808188608083E091E703F091E803808123
:1049E00080688083E091E703F091E80380818F7D08
:1049F0008083809100058C3409F045C068EE73E037
:104A000080E090E00E946B1D68EE70E085ED93E021
:104A10000E94FE1768EE73E080E090E00E946B1D3C
:104A2000E091E503F091E6030083E091E103F0916A
:104A3000E2031082E091E303F091E40387E68083D0
:104A40001092ED03E091E903F091EA031083E09105
:104A5000E703F091E803808180618083E091E703C0
:104A6000F091E803808188608083E091E703F09112
:104A7000E803808180688083E091E703F091E80398
:104A800080818F7D808368EE73E080E090E00E94FB
:104A90006B1D8E010F5F1F4F4801C8010E94DB1084
:104AA000C8010E941D156CED70E085ED93E00E9439
:104AB000FE1768EE73E080E090E00E946B1DC80175
:104AC0000E94DB10C8010E941D1560ED70E085EDAD
:104AD00093E00E94FE1768EE73E080E090E00E9491
:104AE0006B1DC8010E94DB10C8010E941D150E94A9
:104AF000111E6AEC70E085ED93E00E94FE17C8017C
:104B00000E94DB10C8010E941D1581E090E00E9408
:104B1000162E8F3F11F40E942E220E94A721A091F1
:104B20000903B0910A031A161B0674F420E437E750
:104B30004BE150E00E94C02E609300017093010190
:104B4000809302019093030164E170E08AEA95E0AA
:104B50000E947E14C4010E94AF1EB4018AEA95E04F
:104B60000E944414C4010E941D15C4010E94DB1060
:104B7000C4010E941D1564E670E080E090E00E9490
:104B80006B1D6DEF70E085ED93E00E94FE1760E114
:104B900077E280E090E00E946B1D67EF70E085EDAA
:104BA00093E00E94FE1768EE73E080E090E00E94C0
:104BB0006B1DC4010E94DB10C4010E941D1548EC4E
:104BC00050E065E070E08FEE94E00E9446200E9485
:104BD000EF106624639485ED93E00E94611318162C
:104BE00019060CF077C080910C05811173C085ED1A
:104BF00093E00E943F13782E80910E03882309F4DE
:104C0000C0C00E94A51D5B016C012BA53CA54DA554
:104C10005EA56FA578A989A99AA928513C4F4F4F45
:104C20005F4F6F4F7F4F8F4F9F4F19012A01B62F54
:104C3000A72FF82FE92F9501A60160E070E080E032
:104C400090E051016201EB2EFA2E0F2F1E2F0E94D1
:104C5000C82E19F010F031E2732E8091A905E09171
:104C60000D0387117EC0F0E0E050FB4F108A1092D8
:104C70000E0310920D0320E135E030930F052093D1
:104C80000E0560920C0542E350E061E070E08FEEAB
:104C900094E00E94462080910C05811110920C0531
:104CA00060910E0570910F0578A36F8F82E794E0F5
:104CB0000E94221882E794E00E943718AF8DB8A1B5
:104CC000FD0101900020E9F73197EA1BFB0B3497B7
:104CD00008F06CC0D090FD02DD2009F495C2CE0131
:104CE00043960E94C520CE0143960E948221E82F60
:104CF000F0E0EE0FFF1FE851FD4F00811181CE0162
:104D000043960E948221E82FF0E0EE0FFF1FE6524B
:104D1000FD4FE080F180101611061CF01E141F04D8
:104D2000ECF4C4010E94C5208C8198012E193F0922
:104D300090E037FF08C08017910784F08E159F051B
:104D40000CF0EEC161C2E81AF90A1E141F040CF43B
:104D50005BC2801791070CF4E3C156C2D110E0C1C9
:104D600053C2AE2FB0E0A050BB4F50967C92EF5F85
:104D7000EE3618F4E0930D032ECF1DE610930D03CD
:104D80002ACF8091A605781649F08091A70578165C
:104D900049F08091A80578121ECF04C031E230930B
:104DA000A90599C14DE04093A90595C111968C9133
:104DB0008E3409F48FCFCE014F960E94A21A8091B3
:104DC000D3058B3409F4A7C03CF4833409F450C0F4
:104DD000893409F44DC07ECF813589F1843509F0DD
:104DE00079CF0E94CD018130C1F018F08230E1F01E
:104DF00071CF0E94BD01882309F46CCF0E948D0100
:104E0000682F70E06115710509F464CF8091D105B8
:104E10009091D2050E94E7025DCF0E94BD018823D8
:104E200019F00E94680356CF6091D1057091D205A8
:104E30008091CF059091D0050E94FE014BCF6091EB
:104E4000D1057091D205C4010E942B1560910B030E
:104E500070910C03CE0143960E94F711B401CE016C
:104E600043960E941311CE0143960E941D1554C112
:104E70000E94CD01813019F0823099F029C09091C3
:104E80001703992319F08093120322C08091FC022A
:104E9000823058F46091D1057091D2058BE092E098
:104EA00015C08091FC02823038F06091D10570917C
:104EB000D2058BE591E00AC080910401823050F365
:104EC0006091D1057091D2058FE591E00E94FE01BD
:104ED000109202051092010585ED93E00E94611386
:104EE000892B09F00AC18091010590910205803E4D
:104EF0009E420CF002C16DE070E080E090E00E9404
:104F00006B1D809101059091020501969093020519
:104F100080930105E1CF8091D1059091D2050E9447
:104F20009A2D8C014497449708F0C4C08091C9051C
:104F30009091CA050E949A2DB82E8091CB05909130
:104F4000CC050E949A2DA82E8091CD059091CE057A
:104F50000E949A2DF82E8091CF059091D0050E9445
:104F60009A2D4F2D682FC8010E9450218C010E945C
:104F7000A51D6B017C019801A8E1B0E00E946E2E96
:104F80009B01AC012A0D311D411D511DACE3B0E068
:104F90000E942C2E9B01AC012B0D311D411D511D7A
:104FA0000E942C2E1B012C01C701B60128EE33E014
:104FB00040E050E00E94912E80E893E4ADE6B8E333
:104FC000821B930BA40BB50B820D931DA41DB51D65
:104FD0008093D6029093D702A093D802B093D902BF
:104FE00066E080E090E00E94ED228091F702882345
:104FF000B1F1209110033091110380910903909138
:105000000A03820F931F9093110380931003489714
:1050100034F1109211031092100361E070E0CE01A0
:1050200049960E94F71163E671E0C4010E942B15B6
:10503000BE01675E7F4FCE0143960E942215B401E8
:10504000CE0143960E941311CE0143960E941D1576
:10505000C4010E941D15CE0149960E941D15809124
:10506000090390910A03181619060CF033CE0E941A
:10507000A51D61327F4B8240910508F42BCE61E182
:1050800071E085ED93E00E94FE1768E873E180E02F
:1050900090E00E946B1D65E071E085ED93E00E9459
:1050A000FE17C4010E94DB10C4010E941D150E945E
:1050B000111E2FC068E873E180E090E00E946B1D34
:1050C00080910F038F5F80930F03823008F002CE30
:1050D0000E94EF10FFCD0E94A51D7B018C0120E0F6
:1050E00030E0A9016BA7FCA60DA71EA72FA738AB20
:1050F00049AB5AAB60920E036ECD85ED93E00E94F2
:105100006113892B31F461EC72E0C4010E942B150C
:1051100003C0C4010E94DB10C4010E941D15DACD3A
:1051200088EE93E00E94B11D80911703811111C098
:105130008091C2040E94D71C21E0892B09F420E051
:105140008091FE02821365C08091F602811161C0D8
:105150004DC084E690E00E94B11DA091F902B0918B
:10516000FA02C0901303D0901403E0901503F0905E
:10517000160328EE33E00E94B92E6093C6047093A4
:10518000C7048093C8049093C904672B682B692BCC
:1051900009F402C10E94A51D8B019C010C191D0977
:1051A0002E093F09680179010091C6041091C704D6
:1051B0002091C8043091C904C016D106E206F30656
:1051C00008F4EAC06093CD047093CE048093CF04BA
:1051D0009093D00410921203109217038091FC0256
:1051E000882321F081ED94E00E943C201BE382E7BC
:1051F00094E00E94491F20915803181619060CF0DC
:10520000D0C02111CEC0ADC380E49FE10E94B11D8A
:10521000EDCF609217030E94A51D60931303709356
:10522000140380931503909316038091FC02882346
:10523000F1F181ED94E00E944120F12C08EE13E0A1
:10524000B801CE0149960E94F711CE0149960E94FD
:105250000810811122C021E02F1530F468E873E1B5
:1052600080E090E00E946B1D67E671E0C4010E943F
:105270002B15BE01675E7F4FCE0143960E9422151B
:10528000B401CE0143960E941311CE0143960E94B1
:105290001D15C4010E941D15F394CE0149960E946C
:1052A0001D150F5F1F4F0E3E33E0130749F66CE6E6
:1052B00071E0CE0185960E942B1519828091F6022D
:1052C000882361F062E771E0C4010E94ED306091D3
:1052D000D1057091D205C4010E94D930F12C01E0B2
:1052E00010E0B801CE014F960E94F711CE014F9603
:1052F0000E940810811131C041E04F1530F468E878
:1053000073E180E090E00E946B1D8091F60288239B
:1053100031F0B401CE0149960E942B1507C0BE01A1
:105320006B5D7F4FCE0149960E942215BE01615EE2
:105330007F4FCE0143960E942215BE01675E7F4FCC
:10534000CE0143960E941311CE0143960E941D1573
:10535000CE0149960E941D15F394CE014F960E94EE
:105360001D150F5F1F4F0630110509F0BACFCE0192
:1053700085960E941D158091F60264E0882329F02D
:105380008091D1059091D20502C080E090E00E940A
:10539000ED221092F6022ACF8091120381111ACFCA
:1053A00025CF222309F47DC28CE193E098A38F8F4F
:1053B000CE014F960E94A21AE091D105F091D2053C
:1053C0008081843409F456C0CCF48134C9F13CF4B2
:1053D000833209F422C1853209F487C160C2823464
:1053E00009F445C0833409F05AC240E061E4809179
:1053F000CD059091CE050E94B50F51C2803509F4BC
:10540000F8C074F48534E9F1863409F048C264E0E8
:1054100071E08091CD059091CE050E94300FF7C0CC
:10542000843509F4C0C08A3509F424C2833509F0F3
:1054300036C28FEE94E00E94412001E010E07BC074
:105440008091C9059091CA050E949A2D482F65E464
:105450008091CD059091CE050E94B50F44E150E0BA
:1054600061E070E08FEE94E00E94462018C20E9436
:105470002E2215C28091CD059091CE050E94621A10
:105480000EC28FEE94E00E9441201A8E198EBE014A
:10549000675E7F4F80E590E00E94B12004EF11E04D
:1054A0008DE0B82E898D9A8D892B21F424EF31E07F
:1054B0003A8F298F898D9A8D9C01215031093A8F1D
:1054C000298F8D5E9A4FB89E7001B99EF00C112401
:1054D00061EC72E0CE0143960E942B15C12CD12CB9
:1054E000C7018C0D9D1D0E94770EA601682FC40177
:1054F0000E947011B401CE0143960E944210C40173
:105500000E941D153FEFC31AD30A4DE0C416D10403
:1055100039F7BE016D5E7F4F82E794E00E943B1831
:10552000CE0143960E941D150150110909F0BACF12
:1055300081E291E031C0B801C4010E94F711C401B9
:105540000E940810811116C0B40182E794E00E9405
:10555000F0176DE282E794E00E94281F6091040139
:1055600070E080E090E04AE00E945A1082E794E008
:105570000E9437180530110521F48FE191E00E9457
:105580004910C4010E941D150F5F1F4F093E53E0D3
:10559000150789F68DE191E00E9449108FEE94E0A5
:1055A0000E943C207CC10E94FD0D67E771E082E70C
:1055B00094E00E94221882E794E00E9437188BE062
:1055C00090E00E94CD1082E794E00E943718C40159
:1055D0000E94AF1EB4018AEA95E00E944414C401FF
:1055E0000E941D156AEA75E082E794E00E943B186C
:1055F00056C146E050E062E073E08091CD059091A5
:10560000CE050E94F430892B29F481E090E00E94BD
:10561000CD1045C180E090E0FACF0E94A7216091B3
:105620001B0370E080E090E04AE00E945A108091F5
:10563000010390E00E949D106091FF0270E080E005
:1056400090E04AE00E945A106091000370E080E010
:1056500090E04AE00E945A108091FE0290E00E9481
:105660009D108091FD0290E00E949D106091FC02CF
:1056700070E080E090E04AE00E945A108091FB02C6
:1056800090E00E949D1080911A0390E00E949D106E
:105690008091FA028F938091F9028F9303E811E0D1
:1056A0001F930F939F928F920E941131B40182E752
:1056B00094E00E9422188091F8021F928F931F930A
:1056C0000F939F928F920E941131B40182E794E070
:1056D0000E9422188091F70290E00E94CD100FB630
:1056E000F894DEBF0FBECDBFDAC0E091CD05F091DA
:1056F000CE058081805380931B036BE173E086E4C9
:1057000090E00E948F21E091CD05F091CE0581E0DF
:105710009181903309F480E08093010361E073E0AC
:105720008CE390E00E948F21E091CD05F091CE05B1
:10573000828180538093FF02838180538093000392
:105740006FEF72E08AE090E00E948A20E091CD0540
:10575000F091CE0581E09481903309F480E080934C
:10576000FE026EEF72E088E290E00E948F21E091ED
:10577000CD05F091CE0581E09581903309F480E06C
:105780008093FD026DEF72E082E390E00E948F2132
:10579000E091CD05F091CE05868180538093FC0287
:1057A0006CEF72E084E390E00E948F21E091CD05E0
:1057B000F091CE0581E09781903309F480E08093E9
:1057C000FB026BEF72E08EE390E00E948F21E0918C
:1057D000CD05F091CE0581E09085903309F480E00D
:1057E00080931A036AE173E088E490E00E948F21BD
:1057F000E091CD05F091CE0581859285A3858983C1
:105800009A83AB831C82C4010E949A2D9093FA0262
:105810008093F90269EF72E086E390E00E948A20AB
:10582000E091CD05F091CE0584859585A685898387
:105830009A83AB831C82C4010E949A2D8093F80244
:1058400068EF72E08AE490E00E948F21E091CD053C
:10585000F091CE0581E09785903309F480E0809344
:10586000F70267EF72E08CE490E00E948F210E94C3
:10587000A72115C01C8A1B8A1A821982B401CE0185
:1058800043960E942F1A8B899C890E94CD10898192
:105890009A810E94CD1082E794E00E9437181092FE
:1058A000580385E10E94D71C9C0191E02115310528
:1058B00009F490E090935B0380915A039817C9F024
:1058C000232B89F4109159031F5F1093590340ED66
:1058D00057E061E070E08FEE94E00E9446201530C2
:1058E00011F40E942E2262E370E080E090E00E94BA
:1058F0006B1D80915B0380935A030E94A51D6B0171
:105900007C018091000190910101A0910201B09170
:105910000301C816D906EA06FB0601F54CE251E080
:1059200064E070E08FEE94E00E944620A0910903AD
:10593000B0910A0320E437E74BE150E00E94C02E0B
:10594000C60ED71EE81EF91EC0920001D0920101BA
:10595000E0920201F09203010E94EF100E940614EF
:105960003AC982E794E00E94142090911903992388
:10597000E9F0E09118038E3371F0AE2FB0E0A45E31
:10598000BC4F8C93EF5FEC3318F4E09318032FCCEB
:10599000109318032CCCF0E0E45EFC4F10821092C0
:1059A0001903109218036092580321CC8C3309F02C
:1059B0001ECC609219031BCCCF93DF93E9ECF3E08C
:1059C0001382128288EE93E0A0E0B0E08483958396
:1059D000A683B78322E231E031832083E5EDF3E053
:1059E0001382128284839583A683B78324E331E0F4
:1059F000318320832DEC30E0358724872CEC30E098
:105A00003787268728EC30E0318B208B29EC30E07B
:105A1000338B228B2AEC30E0358B248B2EEC30E05C
:105A2000378B268B118E128E138E148EE2E7F4E0E4
:105A30001382128284839583A683B78386E491E0E0
:105A4000918380838FEF9FEF9587848761EC72E06D
:105A50008AEA95E00E942B15C0E0D5E01C821B82EB
:105A600061EC72E085E095E00E942B151B861C8698
:105A70001D861F861E868DE48093A6058CE4809388
:105A8000A70583E58093A80581E28093A90581E5B8
:105A9000888388EE93E09093FF048093FE04EFEEFA
:105AA000F4E012821286138614861586168684E028
:105AB00090E091838083C1E0C38361E00E942F1D49
:105AC000E0EEF4E01282128613861486158616869E
:105AD00089E090E091838083C38361E00E942F1D61
