:100000000C946B010C9493010C9493010C94930148
:100010000C9493010C9493010C9493010C94930110
:100020000C9493010C9493010C941E240C948D2435
:100030000C9493010C9493010C9493010C949301F0
:100040000C9493010C9493010C9493010C949301E0
:100050000C9493010C9493010C9493010C94D4236D
:100060000C9493010C94E5260C94BF260C949301F8
:100070000C9493010C9493010C9493010C949301B0
:100080000C9493010C9493010C9493010C949301A0
:100090000C94B5220C9493010C9493010C9493014D
:1000A0000C9493010C9493010C94930141542B43B1
:1000B00053510D0A001F1C1F1E1F1E1F1F1E1F1E37
:1000C0001F080B00020202000009040000010202E6
:1000D000000005240010010524010101042402068A
:1000E00005240600010705810310004009040100F2
:1000F000020A000000070502024000000705830213
:100100004000000403090412010002EF0201404F05
:100110001B0692000101020301537061726B467568
:100120006E00537061726B46756E2050726F204D79
:100130006963726F0041542657300D0041542B43C0
:10014000545A523D310D0A0041542B43545A553DE7
:10015000310D0A0041545A300D0041542B49505280
:100160003D31393230300D0A004154480D0A00410A
:100170005444303B0D0A0041542B4346554E3D310B
:100180000D0A0041542B4346554E3D300D0A0041A7
:10019000542B434855500D0A0045004500450000CA
:1001A000000000240027002A002D0030000000007D
:1001B00000250028002B002E003100000000002345
:1001C00000260029002C002F00040404040403046A
:1001D00005020202020403020202020606060606E5
:1001E00006040402020204040408020110408040D4
:1001F000102040804080080204018040201002014D
:10020000108010204040200000000200090F000074
:10021000030401000C0000000000000000000000CA
:10022000000000000041542B434C49503D310D0A61
:100230000041542B4347534E0D0A0041542B434C6D
:1002400049503D310D0A0041542B4347455245501A
:100250003D300D0A00415445300D0A0061742B7188
:100260007572636366673D22757263706F72742284
:100270002C227561727431220D0A0041542B434EB9
:100280004D493D312C322C302C302C300D0A0041A0
:10029000542B434C49503D310D0A0041542B434DE2
:1002A00047463D310D0A0041542B435245473D31ED
:1002B0000D0A0041545A300D0A00220D0041542B02
:1002C000434D47533D220041542B43434C4B3F0D7C
:1002D0000A001727B23011241FBECFEFDAE0DEBFCD
:1002E000CDBF26E0A6E1B3E001C01D92AC37B20756
:1002F000E1F713E0A0E0B1E0EAEAFDE602C0059014
:100300000D92A631B107D9F711E0CAE6D1E004C0D9
:100310002197FE010E94D331C936D107C9F70E9447
:10032000CC270C94C8360C94000080911D04909149
:100330001E04891B990B0895FC01809107048823F2
:1003400011F13FB7F89482E08093E9002091F20028
:10035000822F90E01816190614F481E090E08823AB
:1003600039F0289844E6409306044091F100408318
:10037000222339F02091F200211103C02BE62093B3
:10038000E8003FBF08958FEF9FEF08952FB7F894CF
:1003900083E08093E9009091E800892F807295FFB7
:1003A00004C09091F20080E4891B2FBF0895209132
:1003B000E103260F3327331F21323105ECF420915E
:1003C0006504FC0190E080E0243069F082E008954B
:1003D000A091E1032191AC0141545C4FA40FB52FD2
:1003E000B11D2C930196861798F38091E103680F55
:1003F0006093E10380E0089581E0089508950895F1
:100400000895E0911E0480911D04E81730F4F0E097
:10041000E15EFB4F808190E008958FEF9FEF08959C
:1004200090911E0480911D042FEF3FEF981748F420
:10043000E92FF0E0E15EFB4F208130E09F5F909379
:100440001E04C9010895CF92DF92EF92FF920F939D
:100450001F93CF93DF937C01CB018A0120916B0422
:10046000222389F0EB016B01C40ED51ECC15DD05EE
:1004700069F06991D701ED91FC910190F081E02D37
:10048000C7010995F3CF642F0E94D701C801DF91FE
:10049000CF911F910F91FF90EF90DF90CF90089533
:1004A000CF93DF931F92CDB7DEB7698320916B04A2
:1004B0002223F9F020918E04203258F021E030E020
:1004C000FC013383228390E080E00F90DF91CF9195
:1004D000089580916C04E82FF0E0E359FB4F998177
:1004E00090838F5F80936C0480938E0481E090E012
:1004F000ECCF61E0CE0101960E94D701F7CF682FC3
:100500008FE894E00C9450028091B60381110DC0E5
:1005100082E08093B20384E08093B3031092B5032A
:100520001092B40381E08093B60382EB93E00895C8
:1005300081508F3008F047C0E82FF0E0EE55FD4FB6
:100540000C94D331BF02C302B102B702BB02E30273
:10055000E302E302C602CC02D002D402DA02E302D2
:10056000DE02809180008F778093800008958091D3
:1005700080008F7DF9CF80918000877FF5CF84B593
:100580008F7784BD089584B58F7DFBCF80919000D7
:100590008F77809390000895809190008F7DF9CFA0
:1005A00080919000877FF5CF8091C0008F778093F6
:1005B000C00008958091C0008F7DF9CF8091C20066
:1005C000877F8093C2000895CF93DF93282F30E078
:1005D000F901E95FFD4F8491F901E851FE4FD49193
:1005E000F901E753FE4FC491CC23A1F081110E9481
:1005F0009802EC2FF0E0EE0FFF1FE554FE4FA5919F
:10060000B491EC91ED2381E090E009F480E0DF917A
:10061000CF91089580E090E0FACF1F93CF93DF93BE
:10062000282F30E0F901E95FFD4F8491F901E8518D
:10063000FE4FD491F901E753FE4FC491CC23A9F0AA
:10064000162F81110E949802EC2FF0E0EE0FFF1F91
:10065000E355FE4FA591B4918FB7F894EC91111129
:1006600008C0D095DE23DC938FBFDF91CF911F911F
:100670000895DE2BF8CF1092650481E08093640426
:1006800010923F0461E082E00E940D0361E083E08C
:100690000E940D03E9EBF0E080818E7F80838081F2
:1006A0008D7F808388E48093B80085E48093BC00CC
:1006B0000895CF93DF9391E09093BE038823B9F020
:1006C000C091B800D091BA008091BC008A7B809321
:1006D000BC0060E082E00E940D0360E083E00E94C5
:1006E0000D030E943B03D093BA00C093B800DF9182
:1006F000CF910895CF93DF9390E0FC01E851FE4F36
:10070000249187539E4FFC0184918823C9F090E087
:10071000880F991FFC01E156FE4FA591B491FC0191
:10072000E355FE4FC591D49161110DC09FB7F89468
:100730008C91209582238C938881282328839FBFC6
:10074000DF91CF910895623051F49FB7F8943C91B6
:10075000822F809583238C93E8812E2BEFCF8FB748
:10076000F894EC912E2B2C938FBFEACF3FB7F894DF
:100770008091AE039091AF03A091B003B091B1030B
:1007800026B5A89B05C02F3F19F00196A11DB11DEC
:100790003FBFBA2FA92F982F8827BC01CD01620F28
:1007A000711D811D911D42E0660F771F881F991FE3
:1007B0004A95D1F708958F929F92AF92BF92CF92B0
:1007C000DF92EF92FF920F931F93CF93DF93D0911D
:1007D0008E04D13208F0D7C0182FC0918D040E942A
:1007E000B6036B017C018091650481116BC082E0CE
:1007F00080936504109364048FEF809363041092D8
:100800006204D0936104ADE6B4E0E1E4F4E080E09A
:10081000D81391C01092400480914004CC0FC82B93
:10082000C093400480913F04813009F088C0109249
:100830003F040E94B6036B017C01809140048093C9
:10084000BB008091670490916804A0916904B09105
:100850006A04892B8A2B8B2BA1F00E94B60300918E
:100860006704109168042091690430916A046C193E
:100870007D098E099F09061717072807390708F40D
:1008800042C08091BC0083FDD8CF85EC8093BC0032
:100890000E94B6036B017C0180916504823009F4EB
:1008A00050C0809163048F3F09F46FC0809163044E
:1008B000803209F46CC080916304803309F469C00C
:1008C00084E026C08091670490916804A091690437
:1008D000B0916A04892B8A2B8B2B09F484CF0E9458
:1008E000B6038090670490906804A0906904B0906B
:1008F0006A046C197D098E099F0986169706A80659
:10090000B90608F070CF809166040E94590385E013
:1009100010926C0410928E0410926B04DF91CF91B0
:100920001F910F91FF90EF90DF90CF90BF90AF900D
:100930009F908F9008959D9191938F5F69CF85EEE1
:10094000A5CF8091670490916804A0916904B0914B
:100950006A04892B8A2B8B2B09F49ECF0E94B60345
:1009600000916704109168042091690430916A0431
:100970006C197D098E099F09061717072807390783
:1009800008F08ACFC0CF81E0C3CF80E0C1CF82E042
:10099000BFCF83E0BDCF8F929F92AF92BF92CF9295
:1009A000DF92EF92FF926B017C010E94B6034B0134
:1009B0005C01C114D104E104F104B9F00E94B60352
:1009C000681979098A099B09683E73408105910578
:1009D00080F321E0C21AD108E108F10888EE880E00
:1009E00083E0981EA11CB11CE4CFFF90EF90DF9034
:1009F000CF90BF90AF909F908F9008951F93CF930B
:100A0000DF93EC01162F81E080936B0480E58093E7
:100A10008D0410926C0410928E048D2F90E00E9431
:100A20007F02CE0199270E947F02612F8FE894E018
:100A30000E94500281E00E94DB0364E170E080E0EC
:100A400090E0DF91CF911F910C94CB042FB7F894D5
:100A50006091AA037091AB038091AC039091AD03B8
:100A60002FBF08950F931F93CF93DF93EC01092EAF
:100A7000000CAA0BBB0B8093B9059093BA05A09309
:100A8000BB05B093BC050E942605AB01BC0180915B
:100A9000C0059091C105A091C205B091C3058A011E
:100AA0009B01081B190B2A0B3B0B8091B9059091F8
:100AB000BA05A091BB05B091BC05081719072A0714
:100AC0003B0758F18091B705811124C081E08093E4
:100AD000B705C43F81E0D8075CF0CE01845F914048
:100AE000092E000CAA0BBB0B481B590B6A0B7B0B86
:100AF0004093C0055093C1056093C2057093C30530
:100B00006091B7058091B505DF91CF911F910F914D
:100B10000C940D031092B705EBCFDF91CF911F918D
:100B20000F91089508954091240350912503209139
:100B300022033091230342175307B4F49091E80045
:100B40009570E1F39091E80092FD19C08093F10057
:100B5000809124039091250301968F739927892B07
:100B600019F48EEF8093E80080912403909125037F
:100B70000196909325038093240381E0089580E0FB
:100B80000895EF92FF920F931F93CF93DF93F82E68
:100B9000192FE62E042F81E0860F880F0E949305FF
:100BA00083E00E949305CF2DD12FEC0EFD2EF11C7A
:100BB000CE15DF05B9F007FF13C0FE0184910E9436
:100BC0009305182F80E00E949305812321968111BF
:100BD000EFCFDF91CF911F910F91FF90EF9008958C
:100BE0008881EDCF81E0F5CFDF92EF92FF920F93F6
:100BF0001F93CF93DF93D82E8A01EB017B01E40E84
:100C0000F51ECE15DF0559F0D7FE12C0FE01849106
:100C10000E94930521968111F4CF0FEF1FEFC801B9
:100C2000DF91CF911F910F91FF90EF90DF9008958A
:100C30008881EECF0F931F93CF93DF931F92CDB791
:100C4000DEB782E0898342E450E061EC70E080E846
:100C50000E94F4050E948402DC0112960D911C9101
:100C60000115110589F0D801ED91FC910280F38105
:100C7000E02DBE016F5F7F4FC801099597FD04C04D
:100C8000F80100851185ECCF89810F90DF91CF911C
:100C90001F910F910895615030F02091F100FC01F7
:100CA00020830196F8CF289884E68093060408955F
:100CB000DB0114964D915C9115976D917C91DC014F
:100CC000ED91FC910280F381E02D0994EF92FF9267
:100CD0000F931F93CF93DF938C017B01D0E0C0E093
:100CE000F701EC0FFD1F6491662361F0D801ED91CF
:100CF000FC910190F081E02DC8010995892B11F03C
:100D00002196EECFCE01DF91CF911F910F91FF90F1
:100D1000EF900895AF92BF92CF92DF92EF92FF9241
:100D20000F931F93CF93DF936C017B018B01040F13
:100D3000151FEB015E01AE18BF08C017D10759F0AF
:100D40006991D601ED91FC910190F081E02DC601F1
:100D50000995892B79F7C501DF91CF911F910F91EB
:100D6000FF90EF90DF90CF90BF90AF90089590E00C
:100D700080E00895FC01538D448D252F30E0842FB1
:100D800090E0821B930B541710F0CF9608950197B3
:100D90000895FC01918D828D981761F0A28DAE0FA0
:100DA000BF2FB11D5D968C91928D9F5F9F73928F27
:100DB00090E008958FEF9FEF08950F931F930E9487
:100DC00026056093A3047093A4048093A5049093D4
:100DD000A6048BE994E00E94C90697FF1DC00E94FB
:100DE00026050091A3041091A4042091A50430913C
:100DF000A604601B710B820B930B00919F04109152
:100E0000A0042091A1043091A20460177107820709
:100E10009307F8F28FEF9FEF1F910F910895FC0158
:100E2000918D828D981731F0828DE80FF11D858D9F
:100E300090E008958FEF9FEF0895FC01918D228D32
:100E4000892F90E0805C9F4F821B91098F739927B7
:100E500008958BE994E00E941D0721E0892B09F495
:100E600020E0822F089580E090E0892B29F00E94F5
:100E7000290781110C9400000895FC01A48DA80F8E
:100E8000B92FB11DA35ABF4F2C91848D90E00196CC
:100E90008F739927848FA689B7892C93A089B189EC
:100EA0008C9182748C93938D848D981306C00288E4
:100EB000F389E02D80818F7D80830895EF92FF92EA
:100EC0000F931F93CF93DF93EC0181E0888F9B8D6D
:100ED0008C8D981319C0E889F989808185FF14C029
:100EE0009FB7F894EE89FF896083E889F98980814A
:100EF000827480839FBF81E090E0DF91CF911F914A
:100F00000F91FF90EF900895F62E0B8D10E00F5F7C
:100F10001F4F0F731127E02E8C8D8E110CC00FB652
:100F200007FCFACFE889F989808185FFF5CFCE01EA
:100F30000E943D07F1CFEB8DEC0FFD2FF11DE35A21
:100F4000FF4FF0829FB7F8940B8FEA89FB8980816D
:100F50008062CFCFCF93DF93EC01888D8823B9F0E7
:100F6000AA89BB89E889F9898C9185FD03C08081B4
:100F700086FD0DC00FB607FCF7CF8C9185FFF2CF31
:100F8000808185FFEDCFCE010E943D07E9CFDF9143
:100F9000CF9108958F929F92AF92BF92CF92DF929E
:100FA000EF92FF920F931F93CF93DF936C017B011E
:100FB0008A0180910B01882309F45CC080910704A9
:100FC000882309F457C08091280380FF05C08091D1
:100FD000E00082608093E000E801B12C8AEFA82E47
:100FE00093E0892E2AE3922E209711F4BB20D9F1A9
:100FF0000E94C60181110AC0AA94AA20D9F161E019
:1010000070E080E090E00E94CB04EECF8C171D06CC
:1010100011F00CF08C2F9FB7F8948092E90020918A
:10102000E80025FD02C09FBFDFCF282F30E0C21BA4
:10103000D30BF701815020F041914093F100FACF9A
:10104000E20EF31EBB2021F09092E800B12CEBCF12
:101050008091E80085FDE7CF9092E800BB24B3942F
:10106000209709F3F3CF5D9884E680932703101649
:1010700011063CF081E090E0F6019383828310E05A
:1010800000E0C801DF91CF911F910F91FF90EF9089
:10109000DF90CF90BF90AF909F908F900895CF93A7
:1010A000DF931F92CDB7DEB76983DC01ED91FC9130
:1010B0000280F381E02D41E050E0BE016F5F7F4F81
:1010C00009950F90DF91CF91089583E08093E90017
:1010D0008091F200882319F08AE38093E800089554
:1010E0000E94C60190E00895CF93DF931F92CDB781
:1010F000DEB7FC018485958597FD08C02FEF3FEF93
:10110000358724870F90DF91CF910895CE01019606
:101110000E949C01019719F4898190E0F3CF8FEF31
:101120009FEFF0CF0F931F93CF93DF931F92CDB715
:10113000DEB78C01FC018485958597FF0BC0CE013D
:1011400001960E949C01019771F4898190E0F80159
:1011500095878487F801848595850F90DF91CF91DD
:101160001F910F9108958FEF9FEFF1CFFC018485C0
:10117000958597FD0BC09FB7F89482E08093E900B6
:101180008091F2009FBF90E0019608959FB7F89478
:1011900082E08093E9008091F2009FBF90E0089583
:1011A00060E0FC0180810C940D0361E0FC01808112
:1011B0000C940D03EF92FF920F931F93CF93DF9345
:1011C000EC01CB01072E000CAA0BBB0B8C839D837B
:1011D000AE83BF83598748878B81882339F18B0180
:1011E000F12CE12C61E088810E940D0368857985EE
:1011F00090E080E00E94CB0460E088810E940D03B3
:101200006885798590E080E00E94CB048FEFE81A32
:10121000F80A0E151F0531F760E08881DF91CF9144
:101220001F910F91FF90EF900C940D03DF91CF91E0
:101230001F910F91FF90EF90089548EC50E064E00B
:1012400070E085EB95E00C94DA0842E350E068E04A
:1012500070E085EB95E00C94DA088F929F92AF9244
:10126000BF92CF92DF92EF92FF92CF93DF93EC0188
:101270006A017B0180E8C81A83E4D80A8DE6E80A8F
:1012800088E3F80A8CE3882E912CA12CB12CC7019D
:10129000B601A50194010E94B1316D83CA01B90163
:1012A000A50194010E94B1316C83C701B60120E110
:1012B0003EE040E050E00E94B131CA01B90128E1AE
:1012C00030E040E050E00E94B1316B83C701B601CD
:1012D00020E831E541E050E00E94B131188263E935
:1012E0007EEF4881542F537081E009F080E090E058
:1012F000FC01E359FE4F2E173F0740F0FB01E81BAE
:10130000F90B2E0F3F1F4F5F4883EBCF81E089839E
:101310008981682F6150770BFB01EB54FF4FE491FB
:10132000511103C0823009F4EF5FF0E02E173F0740
:1013300020F02E1B3F0B8F5FEACF2F5F2A83DF91B8
:10134000CF91FF90EF90DF90CF90BF90AF909F90A4
:101350008F900895CF93DF93EC010E94260528EE2D
:1013600033E040E050E00E94B13180911E03909143
:101370001F03A0912003B0912103BA01A901480FD6
:10138000591F6A1F7B1FCE010E942D09CE01DF91DC
:10139000CF910895DC0150E0E5EBF0E081E08617A5
:1013A00030F49491490F511D8F5F3196F8CF63301F
:1013B00038F0CD0183709927892B11F44F5F5F4F6F
:1013C0009D012D5F3F4F36952795369527956DE604
:1013D00071E0A69FC001A79F900DB69F900D1124AC
:1013E0000197820F931F840F951F0895EF92FF922C
:1013F0000F931F93CF93DF93EC0188814A8169811A
:1014000090E00E94CA099C01A8E1B0E00E948E31E0
:101410002B817B018C01E20EF11C011D111DA80125
:101420009701ACE3B0E00E944C312C817B018C0130
:10143000E20EF11C011D111DA80197010E944C3103
:101440002D81620F711D811D911D60587C4B824959
:10145000974CDF91CF911F910F91FF90EF900895DE
:10146000CF92DF92EF92FF920E94F6096B017C010E
:101470000E94260528EE33E040E050E00E94B131A2
:10148000C21AD30AE40AF50AC0921E03D0921F03BF
:10149000E0922003F0922103FF90EF90DF90CF9035
:1014A0000895FC0180814281618190E00E94CA0917
:1014B000069667E070E00E949D310895CF92DF921A
:1014C000EF92FF920F931F93CF93DF93EC0181E094
:1014D00080936B0480E580938D0410926C041092CD
:1014E0008E048D2F90E00E947F02CE0199270E94EA
:1014F0007F0281E00E94DB030E94B6036B017C0146
:1015000080916504811163C081E0809365048093BC
:1015100064049FEF9093630410926204109261043C
:101520008093400480914004806A809340048091BD
:101530003F04813009F084C010923F040E94B6033A
:101540006B017C01809140048093BB008091670413
:1015500090916804A0916904B0916A04892B8A2B48
:101560008B2BA1F00E94B6030091670410916804D0
:101570002091690430916A046C197D098E099F09D4
:10158000061717072807390708F442C08091BC00E6
:1015900083FDD8CF85EC8093BC000E94B6036B011D
:1015A0007C0180916504813009F44CC08091620413
:1015B00081116AC080916204E1E4F4E0AFE1B4E03B
:1015C00090E0981751F121912D939F5FFACF809170
:1015D000670490916804A0916904B0916A04892B12
:1015E0008A2B8B2B09F48CCF0E94B60300916704E1
:1015F000109168042091690430916A046C197D0986
:101600008E099F09061717072807390708F078CFB2
:10161000809166040E94590380E010921E0480931A
:101620001D04882399F18FE894E00E941002DF9155
:10163000CF911F910F91FF90EF90DF90CF90089581
:1016400085EEA9CF8091670490916804A091690408
:10165000B0916A04892B8A2B8B2B09F4A2CF0E94AC
:10166000B6030091670410916804209169043091D9
:101670006A046C197D098E099F0906171707280748
:10168000390708F08ECFC4CF81E096CF8FEFCFCF50
:10169000EF92FF920F931F93CF93DF93E090C405D7
:1016A000F090C505C6E0D0E0853479F0833541F08F
:1016B000813419F485E0E82EF12CC1E0D0E005C0BA
:1016C000E701219685E0E80EF11C87E08C9F800100
:1016D0008D9F100D1124EC16FD06B4F0C80107977C
:1016E000801791076CF40E945E0A811109C0C8013D
:1016F00006978017910724F40E945E0A882331F030
:101700002196095F1F4FE7CFD0E0C0E0CE01DF9107
:10171000CF911F910F91FF90EF900895DF92EF927C
:10172000FF920F931F93CF93DF938C017B01D0E047
:10173000C0E087E0D82E2091C4053091C505D29E27
:10174000C001D39E900D11248C179D078CF0CE0103
:101750000E945E0A882351F0F801CD31D1050CF0CA
:10176000F701808191810196918380832796E3CF51
:10177000DF91CF911F910F91FF90EF90DF9008952F
:10178000CF92DF92EF92FF920F931F93CF93DF934D
:101790007B01009741F18C0182E0C82ED12C82E0C0
:1017A00090E00E94F131EC011882A601B8010E947C
:1017B000D3331A82CE010E94BA30682FC7010E942B
:1017C000FE04209719F0CE010E948D320E5F1F4F4C
:1017D00082E0C80ED11C8FEFE81AF80A8EE0C81616
:1017E000D104E9F60CC0D0E0C0E060E0C7018C0F86
:1017F0009D1F0E94FE042196C630D105B1F7DF91EE
:10180000CF911F910F91FF90EF90DF90CF900895AF
:101810002F923F924F925F926F927F928F929F9200
:10182000AF92BF92CF92DF92EF92FF920F931F93EE
:10183000CF93DF93582E492E3B01D12CC12CC1E010
:10184000D0E08091C4059091C50505968C179D0741
:101850000CF45CC0E52CF42C560110E000E0302EB6
:1018600082E090E00E94F1314C010F5F1F4FA80110
:10187000440F551FB701C4010E94D333F4011282F3
:10188000C5010E945E0A282EC4010E94BA302816A3
:10189000190671F58114910419F0C4010E948D326A
:1018A000F2E0EF0EF11C8FEFA81AB80A073011050D
:1018B000B1F627E02C9FC0012D9F900D11240197B8
:1018C0000E945E0AF3018083CE01DF91CF911F91C8
:1018D0000F91FF90EF90DF90CF90BF90AF909F90CF
:1018E0008F907F906F905F904F903F902F900895D2
:1018F0008114910419F0C4010E948D32E7E0CE0EEC
:10190000D11CF6E03F16A9F221969BCFD0E0C0E0B3
:10191000DBCFCF92DF92EF92FF920F931F93CF9383
:10192000DF931F92CDB7DEB71982BE016F5F7F4F85
:101930000E94080C7C01019727E0289F6001299FE5
:10194000D00C112410E000E060E0C8018C0D9D1D5A
:101950000E94FE040F5F1F4F07301105A9F7C70152
:101960000F90DF91CF911F910F91FF90EF90DF903B
:10197000CF90089560E171E0809114049091150476
:101980000E94080C009731F480915D03813051F47E
:1019900082E008959C01215031092530310520F065
:1019A0000697B4F780E0089581E00895CF93DF9320
:1019B000EC0188819981009711F00E948D32198283
:1019C00018821D821C821B821A82DF91CF9108959A
:1019D000FC0180819181009711F00C948D32089563
:1019E000CF92DF92EF92FF920F931F93CF93DF93EB
:1019F0001F92CDB7DEB74983FC0101900020E9F7C3
:101A00003197E81BF90BDC01EB30F10568F4F12CA0
:101A1000E12CC7010F90DF91CF911F910F91FF90A3
:101A2000EF90DF90CF9008952D91022E000C330B94
:101A3000205331092A30310550F79D01281B390BFD
:101A40002E173F0788F3F62E8C01BE016F5F7F4F84
:101A50000E94080C892BD9F68F2D0E94480B7C011F
:101A600018161906A4F6019727E0289F6001299F00
:101A7000D00C1124B601C8010E94C00B6981C601B7
:101A800006960E94FE04C5CFFB0101900020E9F7F5
:101A90003197AF01461B570BDC01ED91FC910280A1
:101AA000F381E02D09948F929F92AF92BF920F9392
:101AB0001F93CF93DF93CDB7DEB7A1970FB6F894FE
:101AC000DEBF0FBECDBF19A2423008F44AE08E013E
:101AD0000F5D1F4F842E912CB12CA12CA5019401D8
:101AE0000E94B131E62FB901CA01EA3004F5E05D88
:101AF000D801EE938D01232B242B252B79F790E031
:101B000080E0109729F0BD0188E395E00E94440D24
:101B1000A1960FB6F894DEBF0FBECDBFDF91CF9177
:101B20001F910F91BF90AF909F908F900895E95CA7
:101B3000DFCFCF92DF92EF92FF92CF93DF936C01D2
:101B4000990FEE08FF08F7FE19C06DE288E395E0F3
:101B50000E944F08EC0166277727CB016C197D099D
:101B60008E099F094AE00E94530D8C0F9D1FDF9143
:101B7000CF91FF90EF90DF90CF9008954AE0C7019A
:101B8000B601DF91CF91FF90EF90DF90CF900C9452
:101B9000530D6BE571E00C94440DCF93DF93BC01C2
:101BA00088E395E00E946606EC0188E395E00E94D8
:101BB000C90D8C0F9D1FDF91CF910895CF93DF93B7
:101BC0000E94990DEC0188E395E00E94C90D8C0FED
:101BD0009D1FDF91CF910895CF93DF93D0E0C0E0B8
:101BE000009731F0BC0188E395E00E94440DEC01C0
:101BF00088E395E00E94C90D8C0F9D1FDF91CF9166
:101C000008950F931F93CF93DF93EC010E94580622
:101C10008C01CE010E94C90D800F911FDF91CF91E1
:101C20001F910F910895FC0124813581232B49F0E8
:101C300064E173E0808191810E94FA3321E0892B75
:101C400009F020E0822F089585ED8093BC008091FB
:101C5000670490916804A0916904B0916A040796A2
:101C6000A11DB11D23E0B695A795979587952A9557
:101C7000D1F72091BC0024FD03C0109265040895A3
:101C800040916704509168046091690470916A04FE
:101C9000452B462B472B69F30097A105B10541F071
:101CA00025E32A95F1F700000197A109B109E1CFD9
:101CB000809166040C94590346E050E06EE573E0B1
:101CC00080911204909113040E940A3421E0892B20
:101CD00009F020E0822F08950F931F93CF93DF9395
:101CE0008C01EB010E9436318883C80101960E9465
:101CF00036318983CE01DF91CF911F910F910895E5
:101D0000CF93DF93EB010E9436318883CE01DF91C0
:101D1000CF910895CF93DF93EB010E9436318883F2
:101D2000CE01DF91CF9108950F931F93CF93DF934F
:101D30000EE513E0D0E0C0E0CE010E943631F8019C
:101D400081938F012196C730D105B1F78AE090E0E9
:101D50000E943631809319048BE090E00E94363166
:101D600080931A048CE090E00E94363180931B042B
:101D70008DE090E00E94363180931C046DE573E0A5
:101D800086E490E00E948A0E6BE573E088E290E0C2
:101D90000E94800E6AE573E082E390E00E94800E6C
:101DA00069E573E084E390E00E948A0E65E573E0E4
:101DB00086E390E00E946C0E6CE573E08CE390E0AB
:101DC0000E94800E68E573E08EE390E00E94800E32
:101DD0006FE273E08CE490E00E94800E65EA73E0AD
:101DE0008EE490E00E946C0E6CE173E08AE590E076
:101DF0000E946C0E6AE173E084E690E00E946C0E33
:101E000068E173E08EE690E00E946C0E67E173E09B
:101E100088EC90E00E94800ED0E0C0E0BE01625CE1
:101E20007C4F8CED90E00E946C0EBE01605D7C4F9B
:101E30008EED90E00E946C0E2296CE30D10571F7A7
:101E4000DF91CF911F910F910895FF920F931F93F0
:101E5000CF93DF93EC01F62E08811981C8010E940F
:101E60003631F81621F06F2DC8010E943E31CE01A7
:101E7000DF91CF911F910F91FF900895EF92FF9204
:101E80000F931F93CF93DF9300D0CDB7DEB789E1D7
:101E9000E82E84E0F82E0AE010E01A830983F701A7
:101EA00061917F01CE0101960E94250F0F5F1F4FA8
:101EB0000E30110591F789E194E00F900F90DF91BA
:101EC000CF911F910F91FF90EF900895CF93DF93E3
:101ED000EB010E94BA30C85EDB4F8883DF91CF915F
:101EE0000C943E0FCF92DF92EF92FF920F931F93CD
:101EF000CF93DF9300D0CDB7DEB76C017C0110E04B
:101F000000E01A830983F70161917F01CE010196F8
:101F10000E94250F0F5F1F4F0730110591F7C60173
:101F20000F900F90DF91CF911F910F91FF90EF9045
:101F3000DF90CF900895EF92FF920F931F93CF936E
:101F4000DF9300D0CDB7DEB78C017B019A83898304
:101F5000FB016081CE0101960E94250F0F5F1F4F8C
:101F60001A830983F7016181CE0101960E94250F32
:101F7000C7010F900F90DF91CF911F910F91FF90AC
:101F8000EF9008959F92AF92BF92CF92DF92EF921F
:101F9000FF920F931F93CF93DF9300D0CDB7DEB79F
:101FA0006C01B62E7A011A821982BE016F5F7F4FD3
:101FB00080E590E00E946C0E89819A818C5E9A4F38
:101FC0002DE0289F8001299F100D1124B801C60122
:101FD0000E94C00BF701A0809180C380D4806281F1
:101FE000C80107960E94FE04692DC80108960E9448
:101FF000FE046A2DC80109960E94FE046C2DC801DA
:102000000A960E94FE046D2DC8010B960E94FE04E4
:102010006B2DC8010C960E94FE0489819A8101965D
:10202000843FF1E09F07B9F09A838983BE016F5F17
:102030007F4F80E590E00E949B0F0F900F90DF9103
:10204000CF911F910F91FF90EF90DF90CF90BF90B5
:10205000AF909F9008951A821982E8CFFF920F9354
:102060001F93CF93DF93CDB7DEB72C970FB6F894BD
:10207000DEBF0FBECDBF8C01F62ECE0107960E94AB
:10208000AA098F81898388858A8389858B838A853C
:102090008C838B858D838C858E83AE014F5F5F4FE4
:1020A0006F2DC8010E94C20FBE016F5F7F4F80E598
:1020B00090E00E946C0E89819A810E94DE0D8981D8
:1020C0009A8120911C0330911D0382179307A1F47C
:1020D0002091180330911903820F931F843F21E050
:1020E0009207B4F490931D0380931C036CE173E09A
:1020F0008AE590E00E949B0F2C960FB6F894DEBF05
:102100000FBECDBFDF91CF911F910F91FF9008952A
:1021100010921D0310921C03E9CF0F931F93CF93CE
:10212000DF9300D0CDB7DEB78B019A838983FB01A3
:102130006081CE0101960E94250FC8010F900F907B
:10214000DF91CF911F910F9108950F931F93CF931C
:10215000DF9300D0CDB7DEB78B019A838983FB0173
:102160006081CE0101960E94250FC8010F900F904B
:10217000DF91CF911F910F9108950F931F93CF93EC
:10218000DF93CDB7DEB72A970FB6F894DEBF0FBE48
:10219000CDBF85EB95E00E94D50810E000E080916E
:1021A000C4059091C50523E0880F991F2A95E1F792
:1021B000081719073CF460E0C8010E94FE040F5F95
:1021C0001F4FEDCF04E012E460E0C8010E94FE045E
:1021D0000F5F1F4F0C3C8BE51807B1F710E000E0D4
:1021E0001A83098360E0CE0101960E94250F0F5FDC
:1021F0001F4F011582E0180799F787E0EEE5F1E03F
:10220000DE01119601900D928A95E1F7CE010196BB
:102210000E94720F82E08093190480931A048093C5
:102220001B0480931C040E943E0F19861886BE0171
:10223000685F7F4F86E490E00E949B0F11E0188753
:10224000BE01685F7F4F88E290E00E948D101A8780
:10225000BE01665F7F4F8CE390E00E948D1010926C
:102260002F036FE273E08CE490E00E948D1088E110
:1022700090E09093A6038093A50365EA73E08EE453
:1022800090E00E949B0F02E310E010931D03009367
:102290001C036CE173E08AE590E00E949B0F1093B1
:1022A0001B0300931A036AE173E084E690E00E9446
:1022B0009B0F109319030093180368E173E08EE6F7
:1022C00090E00E949B0F0E941D0961E08EE290E069
:1022D0000E943E3188E19EE00FB6F894A895809365
:1022E00060000FBE9093600060ED77E080E090E0CA
:1022F0000E94CB042A960FB6F894DEBF0FBECDBF66
:10230000DF91CF911F910F9108950F931F93CF935A
:10231000DF938C01EB01FC01808191810097E1F05A
:102320006881798161157105A9F0428153812C8101
:102330003D814217530770F00E9403348C819D81C8
:10234000F801958384831D821C82DF91CF911F91B8
:102350000F9108950E948D3288819981F8019183AF
:1023600080838A819B81938382838C819D819583E5
:102370008483198218821B821A82E5CF0F931F93E0
:10238000CF93DF93EC0188819981009759F02A81DE
:102390003B812617370730F081E0DF91CF911F9105
:1023A0000F9108958B016F5F7F4F0E941633009746
:1023B00059F0998388831B830A832C813D81232BC9
:1023C00059F7FC011082E8CF80E0E7CFEF92FF924F
:1023D0000F931F93CF93DF936115710541F480E054
:1023E000DF91CF911F910F91FF90EF9008954115CC
:1023F0005105B1F07B01EC010C811D81040F151F0B
:10240000B8010E94BE11882351F3288139818C8143
:102410009D81B701820F931F0E9403341D830C839B
:1024200081E0DECFCF93DF9300D0CDB7DEB76983F5
:102430001A8241E050E0BE016F5F7F4F0E94E611BB
:102440000F900F90DF91CF910895FB010190002034
:10245000E9F73197AF01461B570B0C94E611FB01CE
:1024600044815581608171810C94E611EF92FF9255
:102470000F931F93CF93DF93EC017B018A01BA0185
:102480000E94BE1181110BC0CE010E94D60CCE015C
:10249000DF91CF911F910F91FF90EF9008951D83D1
:1024A0000C83B701888199810E940334F0CFFB012E
:1024B00001900020E9F73197AF01461B570B0C94B0
:1024C00036120F931F93CF93DF93CDB7DEB72997C3
:1024D0000FB6F894DEBF0FBECDBF8C01862FF8017A
:1024E0001182108213821282158214824AE0BE0188
:1024F0006F5F7F4F90E00E940C31BE016F5F7F4F96
:10250000C8010E94571229960FB6F894DEBF0FBE7D
:10251000CDBFDF91CF911F910F910895CF93DF939E
:10252000EC01FB018617970749F060817181611505
:10253000710541F0448155810E943612CE01DF9130
:10254000CF9108950E94D60CF9CFFC011182108220
:1025500013821282158214820C948E12FC01118255
:10256000108213821282158214826115710551F056
:10257000FB0101900020E9F73197AF01461B570B93
:102580000C9436120895CF93DF93EC016DE571E062
:102590000E94AE120E94DD0697FD05C0682FCE0195
:1025A0000E941212F7CFCE01DF91CF910895CF9301
:1025B000DF9300D000D000D0CDB7DEB7CE010196BA
:1025C0000E94C312CE0101960E94E80C64E670E0FE
:1025D00080E090E00E94CB0467EC72E08BE994E02D
:1025E0000E94660626960FB6F894DEBF0FBECDBFDA
:1025F000DF91CF910895EF92FF920F931F93CF93A6
:10260000DF9300D000D000D0CDB7DEB77C018B01C6
:10261000CE0101960E94C312CE0101960E94E80CE1
:1026200064E670E080E090E00E94CB046DEB72E025
:102630008BE994E00E946606B7018BE994E00E9462
:1026400058066AEB72E08BE994E00E94660664E645
:1026500070E080E090E00E94CB04B8018BE994E048
:102660000E94010E64E670E080E090E00E94CB04DE
:102670006AE18BE994E00E945E076CED75E080E012
:1026800090E00E94CB04CE0101960E94C312CE01BD
:1026900001960E94E80C26960FB6F894DEBF0FBE96
:1026A000CDBFDF91CF911F910F91FF90EF900895D3
:1026B000CF93DF9300D000D000D0CDB7DEB7CE01EE
:1026C00001960E94C312CE0101960E94E80C63EBB2
:1026D00072E08BE994E00E94660664EF71E080E0AE
:1026E00090E00E94CB04CE0101960E94C312CE015D
:1026F00001960E94E80C67EA72E08BE994E00E9480
:10270000660664EF71E080E090E00E94CB04CE01A9
:1027100001960E94C312CE0101960E94E80C6BE95B
:1027200072E08BE994E00E94660664EF71E080E05D
:1027300090E00E94CB04CE0101960E94C312CE010C
:1027400001960E94E80C6FE872E08BE994E00E9429
:10275000660664EF71E080E090E00E94CB04CE0159
:1027600001960E94C312CE0101960E94E80C6BE70D
:1027700072E08BE994E00E94660664EF71E080E00D
:1027800090E00E94CB04CE0101960E94C312CE01BC
:1027900001960E94E80C6CE572E08BE994E00E94DF
:1027A000660664EF71E080E090E00E94CB04CE0109
:1027B00001960E94C312CE0101960E94E80C65E5C5
:1027C00072E08BE994E00E94660664EF71E080E0BD
:1027D00090E00E94CB04CE0101960E94C312CE016C
:1027E00001960E94E80C67E472E08BE994E00E9495
:1027F000660664EF71E080E090E00E94CB04CE01B9
:1028000001960E94C312CE0101960E94E80C6BE370
:1028100072E08BE994E00E94660664E670E080E076
:1028200090E00E94CB04CE0101960E94C312CE011B
:1028300001960E94E80C26960FB6F894DEBF0FBEF4
:10284000CDBFDF91CF9108954F925F926F927F92AB
:102850008F929F92AF92BF92CF92DF92EF92FF92B0
:102860000F931F93CF93DF9300D000D000D0CDB74C
:10287000DEB71092150410921404109213041092F3
:102880001204109211041092100410920F0410926E
:102890000E0410920D0410920C0410920B0410926E
:1028A0000A041092090410920804DC01ED91FC91D5
:1028B0009081909316048091C605282F2D7F213595
:1028C00049F4943531F19135C1F09334A1F083E0AE
:1028D000582E15C08C3469F4943509F477C09135BD
:1028E00061F0993451F0933491F700E098E0592E5B
:1028F00013C0943551F700E00DC032E0532E892FFC
:102900008D7F893421F09B7F913509F061C000E013
:1029100003C007E023E0522E6FE771E0CF010E9471
:10292000D830412C10E03801B4E06B0E711C7801F6
:1029300025E0E20EF11C6801A6E0CA0ED11C580188
:10294000B7E0AB0EB11C480128E0820E911C075F76
:102950001F4F009709F450C04394451004C0909352
:10296000150480931404242D30E02615370521F436
:1029700090931304809312042E153F0521F4909335
:102980001104809310042C153D0521F490930F043D
:1029900080930E042A153B0521F490930D04809337
:1029A0000C042815390521F490930B0480930A0434
:1029B0002017310721F4909309048093080465E6F9
:1029C00071E090E080E00E94D830C3CF08E0A2CF51
:1029D00065E272E08BE994E00E94660664EF71E0C4
:1029E00080E090E00E94CB04CE0101960E94C312C9
:1029F000CE0101960E94E80C26960FB6F894DEBF31
:102A00000FBECDBFDF91CF911F910F91FF90EF903F
:102A1000DF90CF90BF90AF909F908F907F906F90FE
:102A20005F904F900895EF92FF920F931F93CF9373
:102A3000DF9300D000D000D0CDB7DEB78C01CE013F
:102A400001960E94C312CE0101960E94E80C64E632
:102A500070E080E090E00E94CB0461E372E08BE9DB
:102A600094E00E94660668EE73E080E090E00E94C9
:102A7000CB04FF24F39487E2E82E8BE994E00E94D4
:102A80001D072091D3051816190664F521112AC0D7
:102A90008BE994E00E94C906909118049923E9F00B
:102AA00090911704292F30E02A533A4F22583F4F74
:102AB000F9018A3051F080839F5F983218F0E092DC
:102AC0001704DBCF90931704D8CF1082109218040C
:102AD00010921704F092D305D0CF883371F6F0929C
:102AE0001804CBCF65E072E0222321F01092D305C9
:102AF00064E476E0C8010E94AE12C80126960FB6C3
:102B0000F894DEBF0FBECDBFDF91CF911F910F9123
:102B1000FF90EF900895CF92DF92FF920F931F9353
:102B2000CF93DF93CDB7DEB762970FB6F894DEBFD1
:102B30000FBECDBF8C01F62E6A016DE571E0CE01AE
:102B40000D960E94AE1289E06F2D8F1540F5CE01D3
:102B500001960E946112BE016F5F7F4FCE010D96FC
:102B60000E948511BE01635F7F4FC8010E94A512BC
:102B7000CE0101960E94E80CCE010D960E94E80C51
:102B8000C80162960FB6F894DEBF0FBECDBFDF91CD
:102B9000CF911F910F91FF90DF90CF900895CE01BC
:102BA0000196E5E0CE16D104D9F40E946112BE016F
:102BB0006F5F7F4FCE010D960E948511CE01019669
:102BC0000E94E80CF8011182108213821282158291
:102BD0001482BE01635F7F4FC8010E948511CCCF74
:102BE0000E94611264E173E0CE0107960E94AE126A
:102BF0004D815E8169817A81CE0107960E94E6113E
:102C0000811104C0CE0107960E94D60CBE01695FF7
:102C10007F4FCE010D960E948E12CE0107960E9424
:102C2000E80CCCCFBF92CF92DF92EF92FF920F933E
:102C30001F93CF93DF93CDB7DEB72C970FB6F894E1
:102C4000DEBF0FBECDBF8C016B016DE571E0CE0123
:102C500007960E94AE1287E08C9D70018D9DF00C4E
:102C60001124C70101970E945E0A80931001670139
:102C700087E0C81AD108B12CF12CE12CC7018C0DCA
:102C80009D1D0E945E0A811101C0B39493E09B15C3
:102C9000D0F464E173E0C8010E94AE12CE01079641
:102CA0000E94E80CC8012C960FB6F894DEBF0FBE48
:102CB000CDBFDF91CF911F910F91FF90EF90DF90EB
:102CC000CF90BF900895A701682FCE0101960E9472
:102CD0008B15BE016F5F7F4FCE0107960E942F12AA
:102CE000CE0101960E94E80CEFEFEE1AFE0AF6E024
:102CF000EF16F10419F6F801118210821382128284
:102D000015821482BE01695F7F4FC8010E94851140
:102D1000C5CFAF92BF92DF92EF92FF920F931F93B6
:102D2000CF93DF93CDB7DEB7C054D1090FB6F89477
:102D3000DEBF0FBECDBF5C011982809151038E01B1
:102D40000F5D1F4F882309F44AC06EE671E0CE0183
:102D500001960E9403346091140470911504CE0111
:102D600001960E94EF33CE01C5960E94AA0988AD54
:102D70001F928F938DA91F928F938EA91F928F936D
:102D80008FA91F928F9383E791E09F938F931F9357
:102D90000F930E942734B801CE0101960E94EF33B1
:102DA00019A289AD0FB6F894DEBF0FBECDBF8A3031
:102DB00008F067C01F928F9381E891E09F938F93F3
:102DC0001F930F930E9427340F900F900F900F9036
:102DD0000F900F90B801CE0101960E94EF33EE24C0
:102DE000E394F12CD12CB701C8010E941216C8013E
:102DF0000E94130E811129C031E03D1530F468E8BE
:102E000073E180E090E00E94CB048091510388231D
:102E1000E9F1BE016F5F7F4FCE01CB960E94AE12EB
:102E2000B801CE01C5960E94A512BE01655C7F4F18
:102E3000CE01C5960E94FB12CE01C5960E94E80CF9
:102E4000CE01CB960E94E80CD394C8010E94E80CF6
:102E50008FEFE81AF80A26E0E216F10421F681E085
:102E6000C05CDF4F0FB6F894DEBF0FBECDBFDF9161
:102E7000CF911F910F91FF90EF90DF90BF90AF9097
:102E800008951F928F9383EF92E098CFB501CE0102
:102E9000CB960E94A512C4CFEF92FF920F931F937F
:102EA000CF93DF93CDB7DEB72C970FB6F894DEBF84
:102EB0000FBECDBF8C017B0166E572E00E94DC3362
:102EC000892B09F061C080911001823098F4209123
:102ED000190488EE93E0289FA001299F500D11242A
:102EE0004115510509F440C061E070E086EA95E0C3
:102EF0000E94DA086FE871E08BE994E00E946606B0
:102F000062E0C7010E942E1010915803112309F4AA
:102F100092C065E871E0CE0107960E94AE12609102
:102F2000140470911504CE0101960E94AE12BE01E8
:102F3000695F7F4FCE0101960E94FB12CE01019680
:102F40000E94E80CCE0107960E94E80C812F2C9677
:102F50000FB6F894DEBF0FBECDBFDF91CF911F91AA
:102F60000F91FF90EF9008958091A6050E94E402D2
:102F7000892B29F486EA95E00E94D508BBCF86EA22
:102F800095E00E94D008B6CF68E871E0C8010E94C1
:102F9000DC33892B91F5809110018D7FB1F4809104
:102FA0005903811112C020911A0488EE93E0289FE2
:102FB000A001299F500D11244115510571F061E0C8
:102FC00070E087E995E00E94DA086FE871E08BE92C
:102FD00094E00E94660663E094CF809197050E947A
:102FE000E402892B29F487E995E00E94D508EDCF0A
:102FF00087E995E00E94D008E8CF6CE871E0C8014D
:103000000E94DC3310E0892B09F0A0CF68E572E064
:1030100080E090E00E94CB046FE871E08BE994E0DF
:103020000E94660680911001882311F0833019F404
:1030300081E08093510311E089CF60E971E08091D4
:103040001004909111040E94DC33892BF9F481E47F
:103050000E94480B019759F40E941D0940E061E469
:1030600080911404909115040E94F00C08958091B1
:103070001603882349F081E40E94480B18161906AC
:103080001CF410921603E8CF0E94250980E00895F1
:10309000EF92FF920F931F93CF93DF93CDB7DEB7DD
:1030A0006F970FB6F894DEBF0FBECDBF8C017B01CA
:1030B000161617060CF04BC06091100470911104A5
:1030C00046E050E0CE0101960E941834FF92EF9244
:1030D0008EE992E09F938F937E018EE0E80EF11CC3
:1030E000FF92EF920E942734B701CE0101960E9411
:1030F000EF33BE016F5F7F4FCE014A960E94AE1242
:10310000B801CE0144960E94AE12BE01665E7F4FAA
:10311000CE0144960E94FB12CE0144960E94E80C18
:10312000CE014A960E94E80C0F900F900F900F90DE
:103130000F900F906F960FB6F894DEBF0FBECDBF05
:10314000DF91CF911F910F91FF90EF90089560E173
:1031500071E00E94080C1816190664F766E971E020
:10316000CE010E960E94AE12B801CE0101960E94C9
:10317000AE12BE01625F7F4FCE0101960E94FB122C
:10318000CE0101960E94E80CCE010E960E94E80C3A
:10319000D1CF2F923F924F925F926F927F928F92F8
:1031A0009F92AF92BF92CF92DF92EF92FF920F93D6
:1031B0001F93CF93DF93CDB7DEB7C757D1090FB6B3
:1031C000F894DEBF0FBECDBF6DE971E080911004B1
:1031D000909111040E94DC33892B19F50E941D097E
:1031E00065E871E0CE018A5A9F4F0E94AE1260914D
:1031F000140470911504CE0101960E94AE12BE0116
:103200006A5A7F4FCE0101960E94FB12CE010196B1
:103210000E94E80CCE018A5A9F4F0E94E80C0E943F
:10322000BD1064EA71E080911004909111040E9435
:10323000DC33892B81F5E0910E04F0910F0486E0D8
:10324000AEE5B3E001900D928A95E1F71092650327
:103250008EE593E00E94720F65E871E0CE018A5A14
:103260009F4F0E94AE126091140470911504CE011C
:1032700001960E94AE12BE016A5A7F4FCE0101969E
:103280000E94FB12CE0101960E94E80CCE018A5AE0
:103290009F4F0E94E80C60E971E0809110049091CA
:1032A00011040E94DC33892B51F40E941D18682FF1
:1032B00070E080911404909115040E9448186CEA03
:1032C00071E080911004909111040E94DC33892BED
:1032D00031F581E08093160385EB95E00E94D508D7
:1032E00065E871E0CE018A5A9F4F0E94AE1260914C
:1032F000140470911504CE0101960E94AE12BE0115
:103300006A5A7F4FCE0101960E94FB12CE010196B0
:103310000E94E80CCE018A5A9F4F0E94E80C66EB8F
:1033200071E080911004909111040E94DC33892B8C
:10333000C9F481E080935D030E941D096DE573E08F
:1033400086E490E00E94A51061EC71E0CE01019648
:103350000E94AE12CE0101960E948916CE010196FE
:103360000E94E80C6DEC71E08091100490911104C2
:103370000E94DC33892BC1F410925D030E941D0969
:103380006DE573E086E490E00E94A51068ED71E0C1
:10339000CE0101960E94AE12CE0101960E948916BE
:1033A000CE0101960E94E80C64EE71E08091100459
:1033B000909111040E94DC33892B09F04AC06DE51D
:1033C00071E0CE018B599F4F0E94AE1201E010E0D8
:1033D000B801CE0101960E941216BE016F5F7F4FA9
:1033E000CE018B599F4F0E942F12CE0101960E9451
:1033F000E80C6AE0CE018B599F4F0E9412120F5FBA
:103400001F4F0630110521F7BE016B597F4FCE01CA
:103410008A5A9F4F0E94A51260911404709115045E
:10342000CE0101960E94AE12BE016A5A7F4FCE01B4
:1034300001960E94FB12CE0101960E94E80CCE017B
:103440008A5A9F4F0E94E80CCE018B599F4F0E94D1
:10345000E80C6EEE71E080911004909111040E94CE
:10346000DC33892B09F06BC080910E0490910F041E
:103470000E94BA306C0180910C0490910D040E945E
:10348000BA307C018601CE14DF040CF058C06DE523
:1034900071E0CE0101960E94AE1258012AE0A20E00
:1034A000B11C0A151B05D1F0B801CE018A5A9F4FF5
:1034B0000E941216BE016A5A7F4FCE0101960E94E9
:1034C0002F12CE018A5A9F4F0E94E80C6AE0CE016B
:1034D00001960E9412120F5F1F4FE3CFBE016F5F74
:1034E0007F4FCE018B599F4F0E94A512609114040B
:1034F00070911504CE018A5A9F4F0E94AE12BE01F0
:103500006B597F4FCE018A5A9F4F0E94FB12CE010A
:103510008A5A9F4F0E94E80CCE018B599F4F0E9400
:10352000E80C6CED75E080E090E00E94CB048AE04E
:10353000E81AF108CE0101960E94E80CA4CF64EFCE
:1035400071E080911004909111040E94DC33892B6A
:1035500009F022C16DE571E0CE018B599F4F0E94A9
:10356000AE126CE870E0CE018B599F4F0E94BE11E5
:10357000BE0164597F4F80E590E00E946C0EAE96CC
:10358000EEACFFACAE9787010951110917FF0EC0D1
:103590000B5F1F4FC701059717FF08C00B5F1F4F39
:1035A00017FF04C00B5F1F4F17FD8C01101611068B
:1035B0000CF0EDC095E0E91AF1086DE571E0CE017F
:1035C0008B599F4F0E945712AE968EAD9FADAE970E
:1035D0005C01E1E0AE1AB1088D5E9A4F2DE0289FA4
:1035E0004001299F900C1124A016B1060CF4CFC005
:1035F0006DE571E0CE018A5A9F4F0E94AE12D12C28
:10360000C12CC601880D991D0E945E0A682FF6E044
:10361000CF16D10421F145E050E025E0C216D104D7
:1036200039F089E0C816D10409F06DC049E050E0D6
:10363000CE0101960E948B15BE016F5F7F4FCE01B8
:103640008A5A9F4F0E942F12CE0101960E94E80CC9
:103650006CEF71E0CE018A5A9F4F0E942512FFEF56
:10366000CF1ADF0A2DE0C216D10459F6BE016A5AFC
:103670007F4FCE018B599F4F0E942F12CE018A5A45
:103680009F4F0E94E80C6AE0CE018B599F4F0E9429
:103690001212EA14FB0481F5BE016B597F4FCE0173
:1036A0008A5A9F4F0E94A5126091140470911504CC
:1036B000CE0101960E94AE12BE016A5A7F4FCE0122
:1036C00001960E94FB12CE0101960E94E80CCE01E9
:1036D0008A5A9F4F0E94E80C68EB7BE080E090E004
:1036E0000E94CB046DE571E0CE018B599F4F0E9483
:1036F000571285E0E81AF10891E0A91AB108EDE047
:103700008E1A910871CF4BE050E09BE0C916D104AE
:1037100009F48ECFA601ECE0CE16D10439F5862F40
:1037200090E08230910519F46EEF71E093CF833011
:10373000910519F464E772E08DCF8132910519F497
:1037400061E072E087CF8C32910519F464E072E099
:1037500081CF8430910519F467E072E07BCF4CE0B3
:1037600050E0069719F46AE072E074CFCE0101963A
:103770000E948B15BE016F5F7F4FCE018A5A9F4F0B
:103780000E942F12CE0101960E94E80C68CFCE0154
:103790008B599F4F0E94E80C6DE072E080911004FD
:1037A000909111040E94DC33892B09F096C0198294
:1037B00087E0E7E1F1E0DE01AB59BF4F01900D92E8
:1037C0008A95E1F7CE018B599F4F7C016EE3A62EBF
:1037D00063E0B62E70E3C72E73E0D72E1C0197E08E
:1037E000290E311CE2E18E2EE2E09E2E8E010A5A55
:1037F0001F4FFEE96F2EF2E07F2EA5E14A2EA2E0D8
:103800005A2EF70181917F01282F082E000C330BCF
:103810003F938F939F928F921F930F930E94273411
:10382000B801CE0101960E94EF33F8011082F50134
:1038300080819181F2E0AF0EB11C9F938F937F92B4
:103840006F921F930F930E942734B801CE01019607
:103850000E94EF33F8011082F60180819181F2E03D
:10386000CF0ED11C9F938F935F924F921F930F9314
:103870000E942734B801CE0101960E94EF330FB6A3
:10388000F894DEBF0FBECDBF2E143F0409F0B9CFB0
:10389000BE016F5F7F4FCE018E589F4F0E94AE12C8
:1038A0006091140470911504CE0184599F4F0E94B9
:1038B000AE12BE016E587F4FCE0184599F4F0E94B9
:1038C000FB12CE0184599F4F0E94E80CCE018E5806
:1038D0009F4F0E94E80C0E941D096AE172E08091EE
:1038E0001004909111040E94DC33892B09F05BC015
:1038F00080910C0490910D040E94BA306C0180916B
:103900000A0490910B040E94BA307C0180910E044D
:1039100090910F040E94BA308730910509F0DCC500
:103920000EE313E040E3A42E43E0B42E5CE4852EC6
:1039300053E0952EF801D182C082F501F182E08238
:10394000B8018CED90E00E949B0FB5018EED90E0E8
:103950000E949B0F0E5F1F4FF2E0AF0EB11C80164E
:10396000910641F70E941D0965E871E0CE018A5A6F
:103970009F4F0E94AE126091140470911504CE0105
:1039800001960E94AE12BE016A5A7F4FCE01019687
:103990000E94FB12CE0101960E94E80CCE018A5AC9
:1039A0009F4F0E94E80C60E272E0809110049091B9
:1039B00011040E94DC33892B01F580910C04909155
:1039C0000D0400910E0410910F0440E0009719F0CF
:1039D0000E94BA30482F65E4C8010E94F00C8C01A7
:1039E000181619060CF094C50E941D09B8018091A3
:1039F0001404909115040E94481864E272E08091CA
:103A00001004909111040E94DC33892B09F064C0EA
:103A100040E065E480910E0490910F040E94F00C48
:103A200031E020E0181619060CF030E0032F122FB9
:103A300080910C0490910D04892B99F068EE73E04D
:103A400080E090E00E94CB0440E065E480910C04AB
:103A500090910D040E94F00C1816190614F40F5FD3
:103A60001F4F80910A0490910B04892B99F068EE06
:103A700073E080E090E00E94CB0440E065E4809138
:103A80000A0490910B040E94F00C1816190614F405
:103A90000F5F1F4F8091080490910904892B99F0C2
:103AA00068EE73E080E090E00E94CB0440E065E4C3
:103AB00080910804909109040E94F00C18161906D0
:103AC00014F40F5F1F4F0E941D09B8018091140468
:103AD000909115040E94481869E272E080911004E8
:103AE000909111040E94DC33892BA1F480910E0483
:103AF00090910F040E94890C8C01181619060CF085
:103B00000AC50E941D09B801809114049091150402
:103B10000E9448186DE272E08091100490911104A7
:103B20000E94DC33892BB1F460E171E080910E04D6
:103B300090910F040E94080C8C01181619060CF0C5
:103B4000EDC40E941D09B8018091140490911504E0
:103B50000E94481861E372E0809110049091110472
:103B60000E94DC33892B79F443E063E580910E04F5
:103B700090910F040E94F00CBC018091140490916C
:103B800015040E94481865E372E08091100490913A
:103B900011040E94DC33892B49F561E070E08091CB
:103BA0000E0490910F040E94660F60910E047091B4
:103BB0000F04CE018A5A9F4F0E94AE1260911404E6
:103BC00070911504CE0101960E94AE12BE016A5A90
:103BD0007F4FCE0101960E94FB12CE0101960E94FA
:103BE000E80CCE018A5A9F4F0E94E80C6CE372E009
:103BF00080911004909111040E94DC33892B49F5C7
:103C000062E070E080910E0490910F040E94660FB4
:103C100060910E0470910F04CE018A5A9F4F0E944A
:103C2000AE126091140470911504CE0101960E94A9
:103C3000AE12BE016A5A7F4FCE0101960E94FB125E
:103C4000CE0101960E94E80CCE018A5A9F4F0E9435
:103C5000E80C63E472E080911004909111040E94DA
:103C6000DC33892B49F563E070E080910E0490917C
:103C70000F040E94660F60910E0470910F04CE0134
:103C80008A5A9F4F0E94AE126091140470911504DD
:103C9000CE0101960E94AE12BE016A5A7F4FCE013C
:103CA00001960E94FB12CE0101960E94E80CCE0103
:103CB0008A5A9F4F0E94E80C6AE472E080911004D7
:103CC000909111040E94DC33892B49F564E070E087
:103CD00080910E0490910F040E94660F60910E0473
:103CE00070910F04CE018A5A9F4F0E94AE126091CC
:103CF000140470911504CE0101960E94AE12BE010B
:103D00006A5A7F4FCE0101960E94FB12CE010196A6
:103D10000E94E80CCE018A5A9F4F0E94E80C61E590
:103D200072E080911004909111040E94DC33892B81
:103D300009F03FC081E080935A0381E090E09A83CC
:103D40008983BE016F5F7F4F82E390E00E949B0FEB
:103D500080910E0490910F040E94BA309093560304
:103D60008093550365E573E086E390E00E949B0F26
:103D70000E941D0969E572E0CE018A5A9F4F0E9498
:103D8000AE126091140470911504CE0101960E9448
:103D9000AE12BE016A5A7F4FCE0101960E94FB12FD
:103DA000CE0101960E94E80CCE018A5A9F4F0E94D4
:103DB000E80C6CE572E080911004909111040E946F
:103DC000DC33892B71F587E995E00E94D0081092C9
:103DD0005A031A821982BE016F5F7F4F82E390E01F
:103DE0000E949B0F65E672E0CE018A5A9F4F0E94A7
:103DF000AE126091140470911504CE0101960E94D8
:103E0000AE12BE016A5A7F4FCE0101960E94FB128C
:103E1000CE0101960E94E80CCE018A5A9F4F0E9463
:103E2000E80C69E672E080911004909111040E9400
:103E3000DC33892B89F580910E0490910F040E9448
:103E4000BA3021E0892B09F420E02093580368E57B
:103E500073E08EE390E00E948D1065E871E0CE0182
:103E60008A5A9F4F0E94AE126091140470911504FB
:103E7000CE0101960E94AE12BE016A5A7F4FCE015A
:103E800001960E94FB12CE0101960E94E80CCE0121
:103E90008A5A9F4F0E94E80C6FE672E080911004EE
:103EA000909111040E94DC33892B79F580910E04E6
:103EB00090910F040E94BA30809359030E941D090B
:103EC00069E573E084E390E00E94A51065E871E085
:103ED000CE018A5A9F4F0E94AE12609114047091D5
:103EE0001504CE0101960E94AE12BE016A5A7F4FA0
:103EF000CE0101960E94FB12CE0101960E94E80CB1
:103F0000CE018A5A9F4F0E94E80C67E772E08091C9
:103F10001004909111040E94DC33892BA9F5809143
:103F20000E0490910F040E94BA3021E0892B09F40D
:103F300020E020935B030E941D096BE573E088E29B
:103F400090E00E948D1060910E0470910F04CE01DC
:103F50008A5A9F4F0E94AE1260911404709115040A
:103F6000CE0101960E94AE12BE016A5A7F4FCE0169
:103F700001960E94FB12CE0101960E94E80CCE0130
:103F80008A5A9F4F0E94E80C6DE772E080911004FE
:103F9000909111040E94DC33892B91F460E171E06F
:103FA00080911404909115040E94080C9093A8032A
:103FB0008093A7036CEA70E08BE994E00E946606A8
:103FC00064E872E080911004909111040E94DC3347
:103FD000892BA1F561E08EE290E00E943E3165E818
:103FE00071E0CE018A5A9F4F0E94AE126091140474
:103FF00070911504CE0101960E94AE12BE016A5A5C
:104000007F4FCE0101960E94FB12CE0101960E94C5
:10401000E80CCE018A5A9F4F0E94E80C88E19EE08E
:104020000FB6F894A895809360000FBE909360003F
:1040300060ED77E080E090E00E94CB0469E872E0F8
:1040400080911004909111040E94DC33892B11F4AB
:104050000E94D7126DE872E08091100490911104D3
:104060000E94DC33892B89F580910E0490910F0416
:104070000E94BA3021E0892B09F420E020932F031D
:104080006FE273E08CE490E00E948D1065E871E0CF
:10409000CE018A5A9F4F0E94AE1260911404709113
:1040A0001504CE0101960E94AE12BE016A5A7F4FDE
:1040B000CE0101960E94FB12CE0101960E94E80CEF
:1040C000CE018A5A9F4F0E94E80C61E972E080910C
:1040D0001004909111040E94DC33892B81F48091AB
:1040E0000E0490910F040E94BA309093A60380931F
:1040F000A50365EA73E08EE490E00E949B0F65E9FA
:1041000072E080911004909111040E94DC33892B9D
:1041100009F067C11982809119041F928F938CE96D
:1041200092E09F938F938E010A5A1F4F1F930F9314
:104130000E942734B801CE0101960E94EF33F801A6
:10414000108280911A041F928F9382EA92E09F93CB
:104150008F931F930F930E942734B801CE010196CD
:104160000E94EF33F801108280915D031F928F93BC
:104170008AEA92E09F938F931F930F930E942734B4
:10418000B801CE0101960E94EF33F80110828091B0
:1041900058031F928F9384EB92E09F938F931F930A
:1041A0000F930E942734B801CE0101960E94EF338D
:1041B000F801108280912F031F928F9382EFE82ED7
:1041C00082E0F82EFF92EF921F930F930E94273404
:1041D000B801CE0101960E94EF33F8011082809160
:1041E000A6038F938091A5038F93FF92EF921F9365
:1041F0000F930E9427340FB6F894DEBF0FBECDBFD9
:10420000B801CE0101960E94EF33F801108280912F
:104210005A031F928F938CEB92E09F938F931F937F
:104220000F930E942734B801CE0101960E94EF330C
:10423000F8011082809159031F928F9386EC92E0CF
:104240009F938F931F930F930E942734B801CE0141
:1042500001960E94EF33F8011082809156038F93EC
:10426000809155038F938BEC92E09F938F931F93D4
:104270000F930E942734B801CE0101960E94EF33BC
:10428000F8011082CE018E589F4F0E94AA09CE01DC
:104290008E589F4F0E94510AE82FF0E0EE0FFF1F4B
:1042A000E25CFC4F81818F9380818F9380ED92E05F
:1042B0009F938F931F930F930E942734B801CE01D1
:1042C00001960E94EF33F8011082CE018E589F4F65
:1042D0000E94510AE82FF0E0EE0FFF1FE05DFC4F57
:1042E00081818F9380818F93FF92EF921F930F9321
:1042F0000E942734B801CE0101960E94EF33F801E5
:104300001082E6968FADE6971F928F93E3968FAD5E
:10431000E3971F928F93E4968FADE4971F928F934C
:10432000E5968FADE5971F928F9383E791E09F937A
:104330008F931F930F930E9427340FB6F894DEBF1C
:104340000FBECDBFB801CE0101960E94EF33F80138
:104350001082E7968FADE7978A3008F001C11F926F
:104360008F9381E891E09F938F931F930F930E9407
:1043700027340F900F900F900F900F900F90B8016F
:10438000CE0101960E94EF33F801108266ED72E0D3
:10439000CE0101960E94EF33BE016F5F7F4FCE01C9
:1043A00084599F4F0E94AE126091140470911504BD
:1043B000CE018B599F4F0E94AE12BE0164597F4FB0
:1043C000CE018B599F4F0E94FB12CE018B599F4FFC
:1043D0000E94E80CCE0184599F4F0E94E80C0E9475
:1043E0001D0960EE72E080911004909111040E940A
:1043F000DC33892B09F056C0E4961FAE1EAEE4975D
:10440000AE961FAE1EAEAE97BE0164597F4FCE0171
:104410008E589F4F0E948E0B198283E08F9388EEF7
:104420008F93AE968FADAE978F93AD968FADAD97C0
:104430008F93E4968FADE4978F93E3968FADE397D8
:104440008F9387EE92E09F938F938E010F5F1F4FA4
:104450001F930F930E942734B801CE018B599F4FB1
:104460000E94AE126091140470911504CE018A5A14
:104470009F4F0E94AE12BE016B597F4FCE018A5AE8
:104480009F4F0E94FB12CE018A5A9F4F0E94E80C58
:10449000CE018B599F4F0E94E80C0FB6F894DEBFF7
:1044A0000FBECDBFC958DF4F0FB6F894DEBF0FBEA9
:1044B000CDBFDF91CF911F910F91FF90EF90DF90D3
:1044C000CF90BF90AF909F908F907F906F905F90B4
:1044D0004F903F902F9008958730910508F042CA81
:1044E000880F991FBC01625C7C4FFB01D182C082A6
:1044F0008C01005D1C4FF801F182E0828CED90E0B0
:104500000E949B0FB8018EED90E00E949B0F2ACA7B
:104510000E9425096BCA0E942509F5CA0E94250937
:1045200064E173E0CE018A5A9F4F0E94AE126091FF
:10453000140470911504CE0101960E94AE12BE01C2
:104540006A5A7F4FCE0101960E94FB12CE0101965E
:104550000E94E80CCE018A5A9F4F0E94E80CFACACA
:104560001F928F9383EF92E0FECE1F920F920FB6B1
:104570000F9211242F933F934F935F936F937F93E9
:104580008F939F93AF93BF93EF93FF938091B90065
:10459000887F803609F44AC0F0F5883209F4A7C054
:1045A00018F5803109F49BC0B8F4882309F4F9C0E8
:1045B000883009F494C0FF91EF91BF91AF919F9122
:1045C0008F917F916F915F914F913F912F910F90BC
:1045D0000FBE0F901F901895883109F488C0803263
:1045E00051F78093630414C0803409F49DC040F4F3
:1045F0008033B9F38833F9F68093630485ECB0C057
:10460000803509F485C0883509F496C0883499F658
:104610000E94240ED0CF883909F48CC038F5883731
:1046200029F050F4883611F0803729F683E0809322
:1046300065041092050457C0883809F47BC080399E
:1046400019F0803809F0B7CF80910504803208F066
:1046500071C0E091050481E08E0F80930504809184
:10466000BB00F0E0EB51FC4F80833DC0803B39F054
:10467000E0F4803A09F479C0883A09F09CCF84E0EC
:10468000809365041092E2031092E103E091DF034E
:10469000F091E00309958091E10381110FC081E061
:1046A0008093E1031092BF0309C0803C09F4A6CFB8
:1046B000883C09F4A3CF883B09F07DCFE091E20369
:1046C00081E08E0F8093E203F0E0E154FC4F8081A3
:1046D0008093BB009091E2038091E10329C0809117
:1046E00040048093BB0085EC8093BC0064CF909124
:1046F000620480916104981758F5E091620481E0AA
:104700008E0F80936204F0E0EF5BFB4F8081E9CF76
:10471000E091620481E08E0F809362048091BB007F
:10472000F0E0EF5BFB4F8083909162048091610425
:104730009817C8F285E8D8CFE091620481E08E0F27
:10474000809362048091BB00F0E0EF5BFB4F8083BD
:104750008091640481115CCF81E080933F0484EAFE
:104760008093BC001092650426CF85EC8093BC003A
:104770001092650480910504803230F4E0910504C4
:10478000F0E0EB51FC4F10826091050470E0E09185
:10479000E303F091E40385EE93E00995109205049C
:1047A0000ACF1092630434CF1F920F920FB60F926C
:1047B00011242F933F938F939F93AF93BF93809137
:1047C000AA039091AB03A091AC03B091AD033091DB
:1047D000A90323E0230F2D3758F50196A11DB11D24
:1047E0002093A9038093AA039093AB03A093AC03F7
:1047F000B093AD038091AE039091AF03A091B0034D
:10480000B091B1030196A11DB11D8093AE039093A9
:10481000AF03A093B003B093B103BF91AF919F9149
:104820008F913F912F910F900FBE0F901F90189571
:1048300026E8230F0296A11DB11DD2CF1F920F9221
:104840000FB60F9211248F939F938091E100909166
:10485000E100937F9093E10083FF0FC01092E90085
:1048600091E09093EB001092EC0092E39093ED00B6
:104870001092070498E09093F00082FF22C093E02A
:104880009093E9009091F200992319F09AE39093A4
:10489000E80090912703992341F0909127039150CC
:1048A00090932703911101C05D9A9091060499237A
:1048B00041F090910604915090930604911101C02B
:1048C000289A84FF18C08091E2008E7E81608093D8
:1048D000E2008091E1008F7E8093E10080912803C7
:1048E0008E7E8061809328039F918F910F900FBEE1
:1048F0000F901F90189580FFF7CF8091E2008E7E79
:1049000080618093E2008091E1008E7E8093E100DF
:10491000809128038E7E8160E5CF1F920F920FB6A3
:104920000F921124CF92DF92EF92FF920F931F9379
:104930002F933F934F935F936F937F938F939F93A7
:10494000AF93BF93EF93FF93CF93DF93CDB7DEB7D2
:104950006C97DEBFCDBF1092E9008091E80083FF25
:1049600025C068E0CE0145960E944B0682EF8093F9
:10497000E8008D8987FF39C09091E80090FFFCCF57
:10498000982F907609F034C19E894F89588D2F89D0
:10499000F88C911131C0803861F5809129038093A2
:1049A000F1001092F1008EEF8093E8006C960FB644
:1049B000F894DEBF0FBECDBFDF91CF91FF91EF9195
:1049C000BF91AF919F918F917F916F915F914F9127
:1049D0003F912F911F910F91FF90EF90DF90CF901B
:1049E0000F900FBE0F901F9018959EEF9093E800C8
:1049F000C7CF1092F100D5CF913059F48111D3CFA8
:104A00004130510581F6809129038D7F80932903E0
:104A1000CACF933049F48111C6CF4130510519F600
:104A2000809129038260F2CF953041F48091E800B3
:104A300080FFFCCF20682093E300B5CF963009F0CB
:104A4000A9C00B8D1C8D22E01092E9001092250365
:104A500010922403F2122EC010922303109222030C
:104A60000E941A061F8299E09983FA8291E09E8340
:104A700090EA98879AEF9987209124033091250333
:104A8000275F3F4F3C832B838D831092E900109268
:104A9000250310922403109323030093220349E07B
:104AA00050E0BE016F5F7F4F80E00E94F4050E94DE
:104AB0001A0679CF10932303009322030E948402E5
:104AC000DC0112960D911C910115110509F451C1DB
:104AD000D801ED91FC910480F581E02DBE016B5E63
:104AE0007F4FC8010995009709F03EC1F801008584
:104AF0001185EACFF3E0FF120EC08F89882309F4F5
:104B000040C0823061F440E862E182E291E00E94BC
:104B1000C105811148CF81E28093EB0047CF8130FE
:104B200029F440E868E089E191E0F1CF833099F71A
:104B30000E948402DC011296ED90FC908E010F5FC2
:104B40001F4F6801E114F10479F0D701ED91FC9158
:104B50000680F781E02DB801C7010995080F111DE6
:104B6000F701E084F184EECFD8011C92F6010190A8
:104B70000020E9F73197BF016C197D0940E0C601BB
:104B8000C6CF63E071E0FB01449150E080E80E94F1
:104B9000F40509CF973009F4BECF983021F481E0B5
:104BA0008093F10000CF993009F0FDCE837009F0B9
:104BB000B2CFEFE1F1E081E031E096E321912223F1
:104BC00071F08093E9003093EB00DF0111972C9195
:104BD0002093EC009093ED008F5F873079F78EE79C
:104BE0008093EA001092EA008F8980930704DBCE5D
:104BF0008B8D9C8D1092E900109225031092240356
:104C00009093230380932203898D811192C08E8912
:104C10009D89913A49F4813209F07DCF47E050E017
:104C200064E071E080E0B3CF913209F074CF833259
:104C300069F48F89988DB0E0A0E080930001909393
:104C40000101A0930201B0930301ADCE803269F45B
:104C50008091E80082FFFCCF67E084E091E00E9451
:104C60004B068BEF8093E8009ECE823209F09BCEFC
:104C70008F8980930B01EEEFFFE7859194918B3F35
:104C80009C4D51F1E0E0F8E0809104019091050124
:104C9000A0910601B0910701803B9440A105B105A8
:104CA000F1F480910B0180FD1AC0EE3F8AE0F80715
:104CB00089F587E797E791838083809160008093EF
:104CC000260388E19BE00FB6F894A89580936000D6
:104CD0000FBE9093600067CEEEEFFAE0D5CF8081F3
:104CE00091818737974709F05ECEA8958091600043
:104CF0008861809360008091260380936000EE3F7E
:104D00002AE0F20789F08091FE0A9091FF0A9183D0
:104D1000808349CE808191818737980751F29093A3
:104D2000FF0A8093FE0AC5CF1092FF0A1092FE0A76
:104D30003ACE0E948402DC0112960D911C9101155D
:104D4000110509F4E8CED801ED91FC910190F081B4
:104D5000E02DBE016B5E7F4FC8010995811123CE06
:104D6000F80100851185EBCF181619060CF41BCE3F
:104D7000D2CEF1E0FF12BECE67E071E004CF1F9209
:104D80000F920FB60F9211242F933F934F935F937F
:104D90006F937F938F939F93AF93BF93EF93FF9303
:104DA0008BE994E00E943D07FF91EF91BF91AF9195
:104DB0009F918F917F916F915F914F913F912F9133
:104DC0000F900FBE0F901F9018951F920F920FB665
:104DD0000F9211242F938F939F93EF93FF93E09162
:104DE000AB04F091AC048081E091B104F091B20485
:104DF00082FD1BC090818091B4048F5F8F732091DE
:104E0000B504821741F0E091B404F0E0E556FB4FA1
:104E1000958F8093B404FF91EF919F918F912F9183
:104E20000F900FBE0F901F9018958081F4CFCF93F5
:104E3000DF93EFE8F4E01382128288EE93E0A0E0C3
:104E4000B0E084839583A683B78329E231E0318380
:104E50002083EBE9F4E01382128284839583A68396
:104E6000B7832BE331E0318320832DEC30E03587AD
:104E700024872CEC30E03787268728EC30E0318B14
:104E8000208B29EC30E0338B228B2AEC30E0358B01
:104E9000248B2EEC30E0378B268B118E128E138EE6
:104EA000148EE8E3F5E01382128284839583A6834F
:104EB000B7838DE491E0918380838FEF9FEF958797
:104EC00084876DE571E080E796E00E94AE12C6EC43
:104ED000D5E01C821B826DE571E08BEC95E00E94B1
:104EE000AE121B861C861D861F861E868DE480934F
:104EF0006C068CE480936D0683E580936E0691E2E8
:104F000090936F06888388EE93E09093C505809315
:104F1000C405E5EBF5E01282128613861486158629
:104F2000168684E090E091838083C1E0C38361E0D2
:104F30000E947A03E6EAF5E012821286138614864E
:104F40001586168689E090E091838083C38361E0B3
:104F50000E947A03E7E9F5E012821286138614862E
:104F6000158616868AE090E091838083C38361E092
:104F70000E947A03E8E8F5E012821286138614860E
:104F80001586168688E090E091838083138260E026
:104F9000DF91CF910C947A03CF93DF93CDB7DEB737
:104FA000C354D1090FB6F894DEBF0FBECDBF7894BD
:104FB00084B5826084BD84B5816084BD85B582601E
:104FC00085BD85B5816085BD80916E0081608093CF
:104FD0006E00109281008091810082608093810038
:104FE0008091810081608093810080918000816048
:104FF00080938000809191008260809391008091E5
:1050000091008160809391008091900081608093F5
:1050100090008091C10084608093C1008091C100A4
:1050200082608093C1008091C10081608093C10043
:105030008091C30081608093C3008091C000826032
:105040008093C0008091C20081608093C2008091F3
:105050007A00846080937A0080917A0082608093E5
:105060007A0080917A00816080937A0080917A0042
:10507000806880937A00109207041092290310929E
:1050800028038091D70081608093D70080EA8093C5
:10509000D80089B5806189BD89B5826089BD09B4B0
:1050A00000FEFDCF61E070E080E090E00E94CB0464
:1050B0008091D8008F7C80618093D8008091E0003F
:1050C000807F8093E0008091E1008E7E8093E100FC
:1050D0008DE08093E200559A209A87EF84BF0FB647
:1050E000F894A89580916000886180936000109288
:1050F00060000FBE60E08EE00E947A0361E084E110
:105100000E947A0362E085E10E947A0348EC50E055
:1051100065E070E085EB95E00E94DA088EE290E0B1
:105120000E9436318111EAC161E084E10E940D03E1
:1051300064EF71E080E090E00E94CB0460E084E1E5
:105140000E940D0385EB95E00E94D5088FEF9FEF3D
:10515000909345058093440568EE73E080E090E00D
:105160000E94CB04E091AB04F091AC0402E0008318
:10517000E091A704F091A8041082E091A904F091B5
:10518000AA0480E180831092B304E091AF04F0910F
:10519000B00416E01083E091AD04F091AE0480817C
:1051A00080618083E091AD04F091AE0480818860DD
:1051B0008083E091AD04F091AE04808180688083AB
:1051C000E091AD04F091AE0480818F7D8083809169
:1051D000C6058C3409F045C068EE73E080E090E0CD
:1051E0000E94CB046AE571E08BE994E00E946606B8
:1051F00068EE73E080E090E00E94CB04E091AB04A5
:10520000F091AC040083E091A704F091A80410820F
:10521000E091A904F091AA0487E680831092B30478
:10522000E091AF04F091B0041083E091AD04F091EF
:10523000AE04808180618083E091AD04F091AE0482
:10524000808188608083E091AD04F091AE0480811C
:1052500080688083E091AD04F091AE0480818F7D01
:10526000808360E177E280E090E00E94CB0464E517
:1052700071E08BE994E00E9466068E010F5F1F4F7C
:105280004801C8010E94C312C8010E94E80C68E4EA
:1052900071E08BE994E00E94660668EE73E080E0BE
:1052A00090E00E94CB04C8010E94C312C8010E9472
:1052B000E80C6CE371E08BE994E00E94660668EE0E
:1052C00073E080E090E00E94CB04C8010E94C3120A
:1052D000C8010E94E80C0E94581365E371E08BE955
:1052E00094E00E946606C8010E94C312C8010E9491
:1052F000E80C68EE73E080E090E00E94CB0410922E
:105300001E0410921D0410926C0410928E040E94D0
:105310003B038EEF91E09093E0038093DF038FEFE8
:1053200091E09093E4038093E30360E177E280E00F
:1053300090E00E94CB0481E090E00E9436318F3FE4
:1053400011F40E94BD100E94940EA091A503B0918B
:10535000A6031A161B0674F420E437E74BE150E06D
:105360000E94E03160930C0170930D0180930E0157
:1053700090930F0164E170E080E796E00E94BE1117
:10538000C4010E941315B40180E796E00E948511C4
:10539000C4010E94E80C60ED77E080E090E00E949C
:1053A000CB04C4010E94C312C4010E94E80C64E64D
:1053B00070E080E090E00E94CB046FE671E08BE942
:1053C00094E00E94660660E177E280E090E00E944F
:1053D000CB0469E671E08BE994E00E94660668EE12
:1053E00073E080E090E00E94CB04C4010E94C312ED
:1053F000C4010E94E80C48EC50E065E070E085EBE9
:1054000095E00E94DA0885E1898381E08A838B83B5
:105410001C821D821E82C4010E94300A68EB7BE060
:1054200080E090E00E94CB040E94D7123E011AE176
:10543000610E711C442443948BE994E00E941D0783
:10544000181619060CF0A4C08091D2058111A0C0D5
:105450008BE994E00E94C906582E80912B03882383
:1054600009F4B8C10E9426055B016C012AAD3BAD71
:105470004CAD5DAD6EAD7FAD21968FAD219722967F
:105480009FAD229728513C4F4F4F5F4F6F4F7F4F3B
:105490008F4F9F4F190123964FAF2397B52FA62FFC
:1054A000F72FE82F24969FAF24979501A60160E07F
:1054B00070E080E090E051012396CFAC2397DB2E83
:1054C000EA2EFF2E0E2F24961FAD24970E94E8315E
:1054D00019F010F021E2522E80912A03E82FF0E01B
:1054E00090916F06EA53FA4F951589F0508A8F5FB5
:1054F0008E3650F02DE620932A039ECF60E08EE298
:1055000090E00E943E311ECE80932A0395CF108AF0
:1055100010922B0310922A0346ED55E05093D505C7
:105520004093D4054092D20542E350E061E070E040
:1055300085EB95E00E94DA088091D205811173C154
:105540008091D4059091D5059DAB8CAB0E94EC0D5C
:10555000ACA9BDA9FD0101900020E9F73197EA1B34
:10556000FB0B3497A8F011968C918E3489F0CE0104
:10557000C4960E942414809116048B3409F404C24A
:105580000CF054C1833409F49DC1893409F49AC1E3
:1055900080915A03882309F4BFC2C3010E94AA095B
:1055A000C3010E94510AE82FF0E0EE0FFF1FE25CFA
:1055B000FC4F00811181C3010E94510AE82FF0E0E5
:1055C000EE0FFF1FE05DFC4FE080F180101611062A
:1055D0001CF01E141F048CF4C4010E94AA098C81C3
:1055E00098012E193F0990E037FF8DC2801791076F
:1055F00024F08E159F050CF48FC288EE93E00E9474
:10560000320580915203811194C2809188050E94D5
:10561000E40221E0892B09F420E080915B038213EE
:1056200005C080915103882309F4ADC06FE871E093
:105630008BE994E00E946606409252030E94260580
:1056400060934D0370934E0380934F0390935003E8
:10565000809159038823D9F187E995E00E94D50804
:10566000F12C08EE13E0B801CE018E960E941216BE
:10567000CE018E960E94130E81111FC021E02F15BE
:1056800030F468E873E180E090E00E94CB0466EFBC
:1056900072E0C4010E94AE12BE01625D7F4FC30181
:1056A0000E94A512B401C3010E94FB12C3010E9413
:1056B000E80CC4010E94E80CF394CE018E960E947F
:1056C000E80C0F5F1F4F0E3E33E0130761F619829F
:1056D0006BEF72E0C4010E94EF33CE01C4960E94CA
:1056E000AA098FA91F928F938CA91F928F938DA9BE
:1056F0001F928F938EA91F928F9343E751E05F9380
:105700004F937F926F920E942734B301C4010E948D
:10571000EF331A8E88AD0FB6F894DEBF0FBECDBF43
:105720008A3008F0FEC11F928F9381E891E09F9329
:105730008F937F926F920E9427340F900F900F905B
:105740000F900F900F90B301C4010E94EF331A8E97
:10575000B401CE018E960E94AE12CE018E960E94AA
:105760008916CE018E960E94E80C8091510364E068
:10577000882309F4DBC180911404909115040E94E0
:105780002E10109251031BE388E395E00E94B608A7
:105790002091A103181619060CF02EC221112EC259
:1057A00088E395E00E94740890915403992309F4CA
:1057B0001DC290915303E92FF0E0EB59FC4F8E335B
:1057C00009F40CC280839F5F9C3308F404C21093D9
:1057D0005303DACF80916C06581661F080916D0604
:1057E000581621F080916E06581226CE8DE08093D7
:1057F0006F0603C051E250936F060E9426057B019D
:105800008C0120E030E0A9016AAFFBAE8CAF1DAF88
:105810002EAF3FAF21964FAF219722965FAF2297D1
:1058200040922B0309CE1092D2058ACE813589F1A0
:10583000843509F0ADCE0E94BA0C813019F170F0B8
:10584000823009F0A5CE6091140470911504809106
:105850001204909113040E944C179ACE0E945C0E81
:10586000882309F495CE0E941D18682F70E06115F9
:10587000710509F48DCE80911404909115040E9455
:10588000481886CE0E945C0E8823E9F20E94C9184F
:105890007FCE6091140470911504C4010E94AE1271
:1058A0006091A7037091A803C3010E941216B4016E
:1058B000C3010E94FB12C3010E94E80CC4010E94B4
:1058C000E80C66CE0E94BA0C813021F18230E9F1F9
:1058D0001092C8051092C7058BE994E00E941D073D
:1058E000892B09F041C08091C7059091C805803E81
:1058F0009E42D4F56DE070E080E090E00E94CB0421
:105900008091C7059091C80501969093C805809332
:10591000C705E2CF90915203992319F080934C036D
:10592000D7CF80915903823048F46091140470916C
:10593000150486E592E00E944C17CACF60911404CA
:10594000709115048CE891E0F6CF80915903823074
:10595000A8F780911001823040F360911404709197
:10596000150488E891E0E7CF8BE994E00E941D07D9
:10597000892B21F0C4010E94C312A0CF6DE571E014
:10598000C4010E94AE129ACF809114049091150424
:105990000E94BA308C014497449708F0A3C08091CC
:1059A0000C0490910D040E94BA30182F80910E04BF
:1059B00090910F040E94BA30F82E809110049091BB
:1059C00011040E94BA30E82E8091120490911304C1
:1059D0000E94BA3009838A83EB82FC821D831E8277
:1059E000C4010E94300A8091C605813591F4C3013B
:1059F0000E94AA09C3010E94F609AB01BC014054F0
:105A0000584361097109C4010E942D09C4010E9413
:105A1000300A66E090E080E00E942E1080912F0313
:105A2000882389F080912D0390912E032091A50366
:105A30003091A603820F931F883191057CF59093D6
:105A40002E0380932D038091A5039091A603181631
:105A500019060CF09DCD0E94260561327F4B8240D5
:105A6000910508F495CD63E871E08BE994E00E941C
:105A7000660660E47FE180E090E00E94CB0467E787
:105A800071E08BE994E00E946606C4010E94C31293
:105A9000C4010E94E80C0E9458136CCF10922E0390
:105AA00010922D0361E070E0CE018E960E941216D6
:105AB0006DE872E0C4010E94AE12BE01625D7F4FCC
:105AC000C3010E94A512B401C3010E94FB12C301CD
:105AD0000E94E80CC4010E94E80CCE018E960E9440
