:100000000C946B010C9493010C9493010C94930148
:100010000C9493010C9493010C9493010C94930110
:100020000C9493010C9493010C9404150C94761584
:100030000C9493010C9493010C9493010C949301F0
:100040000C9493010C9493010C9493010C949301E0
:100050000C9493010C9493010C9493010C94CF2372
:100060000C9493010C9432180C940C180C9493017A
:100070000C9493010C9493010C9493010C949301B0
:100080000C9493010C9493010C9493010C949301A0
:100090000C94701B0C9493010C9493010C94930199
:1000A0000C9493010C9493010C94930137193A1911
:1000B00029192D1933195B195B195B193E1942195E
:1000C00046194C1950195B195619415426570D0001
:1000D00041542B43545A523D300D0A0041542B4396
:1000E000545A523D310D0A0041542B43545A553D48
:1000F000310D0A0041542B52455345540D0A00411D
:10010000542B4346554E3D310D0A0041542B434676
:10011000554E3D300D0A0045004500450041542B29
:10012000434855500D0A0041542B4353510D0A00CA
:10013000220D0041542B434D47533D220041542B87
:1001400043434C4B3F0D0A00080B00020202010022
:10015000090400000102020000052400100105242A
:10016000010101042402060524060001070581039C
:1001700010004009040100020A0000000705020205
:100180004000000705830240000004030904120137
:100190000002EF0201404F1B069200010102030121
:1001A000537061726B46756E00537061726B467569
:1001B0006E2050726F204D6963726F000000000066
:1001C000240027002A002D00300000000000250038
:1001D00028002B002E003100000000002300260024
:1001E00029002C002F000404040404030405020267
:1001F00002020403020202020606060606060404C0
:100200000202020404040802011040804010204051
:1002100080408008020401804020100201108010FC
:10022000204040200000000200090F0000030401EC
:10023000000C0000000000000000000000000000B2
:1002400000004154480D0A00415444303B0D0A005F
:1002500041542B4347534E0D0A0041542B4347450D
:100260005245503D300D0A00415445300D0A0061A1
:10027000742B717572636366673D22757263706F6C
:100280007274222C227561727431220D0A0041545D
:100290002B434E4D493D312C322C302C302C300D1F
:1002A0000A0041542B434C49503D310D0A00415442
:1002B0002B434D47463D310D0A0041542B435245D7
:1002C000473D310D0A001F1C1F1E1F1E1F1F1E1F32
:1002D0001E1FE42C992D11241FBECFEFDAE0DEBFE4
:1002E000CDBF26E0AAE2B3E001C01D92AA38B20752
:1002F000E1F713E0A0E0B1E0E0EBF7E602C0059023
:100300000D92AA32B107D9F711E0CAE6D1E004C0D4
:100310002197FE010E94BA2EC936D107C9F70E9463
:1003200019240C94CB330C9400006FEC71E0809195
:100330000306909104060E94CD30892B21F581E4BB
:100340000E949F0E019761F080919203882399F09B
:1003500081E40E949F0E181619066CF41092920305
:100360000E94BD0D40E061E480910706909108066F
:100370000E94750F089542E350E068E070E085E266
:1003800095E00E94872080E0089546E050E068E311
:1003900073E080910506909106060E94FB3021E0F3
:1003A000892B09F020E0822F089564E071E08091AC
:1003B0000706909108060E94F00E009761F09C01DC
:1003C000215031092530310520F0069724F082E0D4
:1003D000089581E0089580E00895FF920F931F93A0
:1003E000CF93DF93EC01F62E08811981C8010E949A
:1003F0001D2EF81621F06F2DC8010E94252ECE016A
:10040000DF91CF911F910F91FF900895EF92FF928E
:100410000F931F93CF93DF93CDB7DEB72C970FB613
:10042000F894DEBF0FBECDBF8C017B016CE272E0A1
:100430000E94CD30892BA1F51091350364EF71E056
:1004400080E090E00E94471D6DE171E08BE094E058
:100450000E94B41780910401823000F588EE93E089
:10046000189FA001199F500D11244115510539F015
:1004700061E070E086E195E00E9487200FC08091E6
:1004800016050E94B31C892B29F486E195E00E9491
:10049000822004C086E195E00E947D2062E02BC0AE
:1004A00066EA71E0C8010E94CD30892B09F048C08E
:1004B00080913203823008F043C0809107050E948A
:1004C000B31C892BE9F51091360364EF71E080E0ED
:1004D00090E00E94471D6DE171E08BE094E00E9486
:1004E000B417809104018D7F29F480913203882311
:1004F00009F441C063E0C7010E946C2310913103ED
:100500001123B9F165ED71E0CE0107960E94EF1459
:100510006091070670910806CE0101960E94EF14C3
:10052000BE01695F7F4FCE0101960E94D310CE01BC
:1005300001960E94E114CE0107960E94E11441C089
:1005400062EA71E0C8010E94CD30892BC9F564EFE1
:1005500071E080E090E00E94471D6DE171E08BE06A
:1005600094E00E94B41780910401882329F183301C
:1005700019F111E026C088EE93E0189FA001199FA1
:10058000500D11244115510539F061E070E087E00C
:1005900095E00E948720AECF809107050E94B31C92
:1005A000892B29F487E095E00E948220A3CF87E081
:1005B00095E00E947D209ECF81E080932C03D9CFCF
:1005C00010E0812F2C960FB6F894DEBF0FBECDBF82
:1005D000DF91CF911F910F91FF90EF900895EF92CF
:1005E000FF920F931F93CF93DF93CDB7DEB76F9733
:1005F0000FB6F894DEBF0FBECDBF8C017B0116167F
:1006000017060CF03FC0609103067091040646E0A7
:1006100050E0CE0101960E940931FF92EF928CE6E4
:1006200092E09F938F937E018EE0E80EF11CFF9283
:10063000EF920E941831B701CE0101960E94E0307E
:10064000BE016F5F7F4FCE014A960E94EF14B80142
:10065000CE0144960E94EF14BE01665E7F4FCE012C
:1006600044960E94D310CE0144960E94E114CE011C
:100670004A960E94E1140F900F900F900F900F90E8
:100680000F9021C064E071E00E94F00E1816190668
:10069000D4F468ED71E0CE010E960E94EF14B8011B
:1006A000CE0101960E94EF14BE01625F7F4FCE0122
:1006B00001960E94D310CE0101960E94E114CE0152
:1006C0000E960E94E1146F960FB6F894DEBF0FBE2F
:1006D000CDBFDF91CF911F910F91FF90EF900895C3
:1006E0002F923F924F925F926F927F928F929F9242
:1006F000AF92BF92CF92DF92EF92FF920F931F9330
:10070000CF93DF93CDB7DEB7C956D1090FB6F894B2
:10071000DEBF0FBECDBF6FED71E0809103069091FB
:1007200004060E94CD30892B19F50E94BD0D65EDA0
:1007300071E0CE01885B9F4F0E94EF146091070625
:1007400070910806CE0101960E94EF14BE01685B0D
:100750007F4FCE0101960E94D310CE0101960E94D8
:10076000E114CE01885B9F4F0E94E1140E94AD22EC
:1007700066EE71E080910306909104060E94CD30F0
:10078000892B81F5E0910106F091020686E0A8E34D
:10079000B3E001900D928A95E1F710923F0388E350
:1007A00093E00E94D90F65ED71E0CE01885B9F4F09
:1007B0000E94EF146091070670910806CE01019621
:1007C0000E94EF14BE01685B7F4FCE0101960E942C
:1007D000D310CE0101960E94E114CE01885B9F4F99
:1007E0000E94E1146FEC71E0809103069091040681
:1007F0000E94CD30892B51F40E949501682F70E042
:1008000080910706909108060E94EF026EEE71E05B
:1008100080910306909104060E94CD30892B31F51A
:1008200081E08093920385E295E00E94822065ED4D
:1008300071E0CE01885B9F4F0E94EF146091070624
:1008400070910806CE0101960E94EF14BE01685B0C
:100850007F4FCE0101960E94D310CE0101960E94D7
:10086000E114CE01885B9F4F0E94E11468EF71E0B4
:1008700080910306909104060E94CD30892B09F0E7
:100880004BC067E173E0CE0101960E94EF1401E0D6
:1008900010E0B801CE01885B9F4F0E94BB11BE01E2
:1008A000685B7F4FCE0101960E940210CE01885BEB
:1008B0009F4F0E94E1146AE0CE0101960E94AA0DAA
:1008C0000F5F1F4F0630110521F7BE016F5F7F4F8D
:1008D000CE01895A9F4F0E94E614609107067091DD
:1008E0000806CE01885B9F4F0E94EF14BE01695A33
:1008F0007F4FCE01885B9F4F0E94D310CE01885B53
:100900009F4F0E94E114CE01895A9F4F0E94E1142B
:10091000CE0101960E94E11462E072E0809103062C
:10092000909104060E94CD30892B09F069C0809116
:100930000106909102060E94A12D5C018091FF05A5
:10094000909100060E94A12D6C018501AC14BD049C
:100950000CF056C067E173E0CE0101960E94EF14DF
:100960007801480129E0820E911C8E149F04DCF06E
:10097000B701CE01885B9F4F0E94BB11BE01685B2F
:100980007F4FCE0101960E940210CE01885B9F4FDF
:100990000E94E1146AE0CE0101960E94AA0D3FEF89
:1009A000E31AF30AE2CFBE016F5F7F4FCE01895A8F
:1009B0009F4F0E94E6146091070670910806CE01D1
:1009C000885B9F4F0E94EF14BE01695A7F4FCE0192
:1009D000885B9F4F0E94D310CE01885B9F4F0E947F
:1009E000E114CE01895A9F4F0E94E114065F1F4F08
:1009F0004AE0C41AD108CE0101960E94E114A6CFA4
:100A000068E072E080910306909104060E94CD3068
:100A1000892B49F58091FF05909100060091010610
:100A200010910206009711F440E003C00E94A12D2E
:100A3000482F65E4C8010E94750F8C01181619062D
:100A40001CF40E94BD0D08C042E350E068E070E075
:100A500085E295E00E948720B80180910706909179
:100A600008060E94EF026CE072E08091030690910C
:100A700004060E94CD30892B09F064C040E065E493
:100A800080910106909102060E94750F31E020E0EE
:100A9000181619060CF030E0032F122F8091FF0575
:100AA00090910006892B99F068EE73E080E090E069
:100AB0000E94471D40E065E48091FF05909100068B
:100AC0000E94750F1816190614F40F5F1F4F8091BE
:100AD000FD059091FE05892B99F068EE73E080E0AA
:100AE00090E00E94471D40E065E48091FD059091F3
:100AF000FE050E94750F1816190614F40F5F1F4F9C
:100B00008091FB059091FC05892B99F068EE73E0CC
:100B100080E090E00E94471D40E065E48091FB0585
:100B20009091FC050E94750F1816190614F40F5FBA
:100B30001F4F0E94BD0DB8018091070690910806D5
:100B40000E94EF0261E172E0809103069091040639
:100B50000E94CD30892BE1F480910106909102062C
:100B60000E94201A8C01181619061CF40E94BD0D53
:100B700008C042E350E068E070E085E295E00E9442
:100B80008720B80180910706909108060E94EF0225
:100B900065E172E080910306909104060E94CD30D9
:100BA000892B79F443E063E5809101069091020678
:100BB0000E94750FBC0180910706909108060E9463
:100BC000EF0269E172E080910306909104060E94B1
:100BD000CD30892B79F580910106909102060E9413
:100BE000A12D8093350365E373E08AE090E00E94D5
:100BF000CB206091010670910206CE01885B9F4F69
:100C00000E94EF146091070670910806CE010196CC
:100C10000E94EF14BE01685B7F4FCE0101960E94D7
:100C2000D310CE0101960E94E114CE01885B9F4F44
:100C30000E94E11460E272E0809103069091040644
:100C40000E94CD30892B79F58091010690910206A2
:100C50000E94A12D8093360365E373E08AE090E063
:100C60000E94CB206091010670910206CE01885B44
:100C70009F4F0E94EF146091070670910806CE0105
:100C800001960E94EF14BE01685B7F4FCE01019672
:100C90000E94D310CE0101960E94E114CE01885B20
:100CA0009F4F0E94E11467E272E0809103069091E9
:100CB00004060E94CD30892B09F03FC081E080936B
:100CC000330381E090E09A838983BE016F5F7F4F99
:100CD00082E390E00E94CB20809101069091020671
:100CE0000E94A12D9093300380932F036FE273E055
:100CF00086E390E00E94CB200E94BD0D6FE272E07F
:100D0000CE01885B9F4F0E94EF146091070670919F
:100D10000806CE0101960E94EF14BE01685B7F4F6A
:100D2000CE0101960E94D310CE0101960E94E114DB
:100D3000CE01885B9F4F0E94E11462E372E08091D4
:100D40000306909104060E94CD30892B71F587E04F
:100D500095E00E947D20109233031A821982BE0111
:100D60006F5F7F4F82E390E00E94CB206BE372E0E5
:100D7000CE01885B9F4F0E94EF146091070670912F
:100D80000806CE0101960E94EF14BE01685B7F4FFA
:100D9000CE0101960E94D310CE0101960E94E1146B
:100DA000CE01885B9F4F0E94E1146FE372E0809157
:100DB0000306909104060E94CD30892B89F580911D
:100DC0000106909102060E94A12D21E0892B09F4D1
:100DD00020E02093310361E373E08EE390E00E9412
:100DE0000E2265ED71E0CE01885B9F4F0E94EF14EB
:100DF0006091070670910806CE0101960E94EF14DB
:100E0000BE01685B7F4FCE0101960E94D310CE01D8
:100E100001960E94E114CE01885B9F4F0E94E1146D
:100E200065E472E080910306909104060E94CD3043
:100E3000892B79F580910106909102060E94A12DDF
:100E4000809332030E94BD0D62E373E084E390E07F
:100E50000E940E2265ED71E0CE01885B9F4F0E94DB
:100E6000EF146091070670910806CE0101960E946A
:100E7000EF14BE01685B7F4FCE0101960E94D31034
:100E8000CE0101960E94E114CE01885B9F4F0E9423
:100E9000E1146DE472E080910306909104060E94D3
:100EA000CD30892BA9F580910106909102060E9410
:100EB000A12D21E0892B09F420E0209334030E9426
:100EC000BD0D64E373E088E290E00E940E22609121
:100ED000010670910206CE01885B9F4F0E94EF14BD
:100EE0006091070670910806CE0101960E94EF14EA
:100EF000BE01685B7F4FCE0101960E94D310CE01E8
:100F000001960E94E114CE01885B9F4F0E94E1147C
:100F100063E572E080910306909104060E94CD3053
:100F2000892B91F464E071E08091070690910806A6
:100F30000E94F00E909342038093410367E271E0B8
:100F40008BE094E00E94B4176AE572E0809103069A
:100F5000909104060E94CD30892BA1F561E08EE2CC
:100F600090E00E94252E65ED71E0CE01885B9F4FD9
:100F70000E94EF146091070670910806CE01019659
:100F80000E94EF14BE01685B7F4FCE0101960E9464
:100F9000D310CE0101960E94E114CE01885B9F4FD1
:100FA0000E94E1149EE088E10FB6F894A895809322
:100FB00060000FBE9093600060ED77E080E090E00D
:100FC0000E94471D6AEA71E0809103069091040631
:100FD0000E94CD30892B91F48091010690910206F8
:100FE0000E94A12D21E0892B09F420E020932D03FC
:100FF0006DE273E08CE490E00E940E226FE572E0F7
:1010000080910306909104060E94CD30892B81F4D3
:1010100080910106909102060E94A12D90934003B9
:1010200080933F036FE373E08EE490E00E94CB2057
:1010300063E672E080910306909104060E94CD3031
:10104000892B09F098C11982809135031F928F93E3
:101050008AE692E09F938F938E01085B1F4F1F9348
:101060000F930E941831B801CE0101960E94E03022
:10107000F8011082809136031F928F9380E792E0EF
:101080009F938F931F930F930E941831B801CE0145
:1010900001960E94E030F8011082809131031F9286
:1010A0008F9387E792E09F938F931F930F930E94F4
:1010B0001831B801CE0101960E94E030F80110828B
:1010C00080912D031F928F939FE7E92E92E0F92ED6
:1010D000FF92EF921F930F930E941831B801CE0137
:1010E00001960E94E030F8011082809140038F93B6
:1010F00080913F038F93FF92EF921F930F930E9473
:101100001831B801CE0101960E94E030F80110823A
:10111000809133031F928F9383E892E09F938F9384
:101120001F930F930E9418310FB6F894DEBF0FBEC5
:10113000CDBFB801CE0101960E94E030F8011082C7
:10114000809132031F928F938DE892E09F938F934B
:101150001F930F930E941831B801CE0101960E948F
:10116000E030F8011082809130038F9380912F033B
:101170008F9382E992E09F938F931F930F930E9426
:101180001831B801CE0101960E94E030F8011082BA
:10119000CE01895A9F4F0E947E2168968FAD689735
:1011A0006A964FAD6A9769966FAD699790E00E9415
:1011B0009E21069627E0C22ED12CB6010E94842ED5
:1011C000FC01EE0FFF1FE259F94F81818F9380815F
:1011D0008F9387E992E09F938F931F930F930E94C1
:1011E0001831B801CE0101960E94E030F80110825A
:1011F00068968FAD68976A964FAD6A9769966FAD9E
:10120000699790E00E949E210696B6010E94842E66
:10121000FC01EE0FFF1FE05AF94F81818F9380810F
:101220008F93FF92EF921F930F930E941831B80192
:10123000CE0101960E94E030F801108280917C0678
:101240001F928F938DE992E09F938F931F930F933B
:101250000E941831B801CE0101960E94E030F801D9
:1012600010821F921F9285EA92E09F938F931F93A3
:101270000F930E9418310FB6F894DEBF0FBECDBF9A
:10128000B801CE0101960E94E030F80110826B9601
:101290008FAD6B971F928F9368968FAD68971F9253
:1012A0008F9369968FAD69971F928F936A968FADD2
:1012B0006A971F928F938AEA92E09F938F931F936E
:1012C0000F930E941831B801CE0101960E94E030C0
:1012D000F80110826C968FAD6C970FB6F894DEBF54
:1012E0000FBECDBF8A3028F41F928F9388EB92E017
:1012F00004C01F928F9380E892E09F938F931F9377
:101300000F930E9418310F900F900F900F900F9035
:101310000F90B801CE0101960E94E030F8011082D2
:101320006CEB72E0CE0101960E94E030BE016F5F6F
:101330007F4FCE018C599F4F0E94EF14609107069A
:1013400070910806CE01825A9F4F0E94EF14BE0191
:101350006C597F4FCE01825A9F4F0E94D310CE010D
:10136000825A9F4F0E94E114CE018C599F4F0E94D8
:10137000E1140E94BD0D66EC72E08091030690912D
:1013800004060E94CD30892B09F096C0198287E0AF
:10139000E7E1F1E0DE01A95ABF4F01900D928A9575
:1013A000E1F79E01295A3F4F69017EE6E72E76E07C
:1013B000F72EE0E6AE2EE6E0BE2EFCE72F2EF6E09E
:1013C0003F2EABEC8A2EA2E09A2E8E01085B1F4FB7
:1013D000BCE66B2EB2E07B2E8EEC482E82E0582EBF
:1013E000F60181916F01282F082E000C330B3F93DB
:1013F0008F939F928F921F930F930E941831B80181
:10140000CE0101960E94E030F8011082F701808140
:101410009181F2E0EF0EF11C9F938F937F926F9278
:101420001F930F930E941831B801CE0101960E94BC
:10143000E030F8011082F50180819181F2E0AF0E79
:10144000B11C9F938F935F924F921F930F930E94B3
:101450001831B801CE0101960E94E0300FB6F89421
:10146000DEBF0FBECDBF2E143F0409F0B9CFBE01C1
:101470006F5F7F4FCE018C599F4F0E94EF14609198
:10148000070670910806CE01825A9F4F0E94EF1402
:10149000BE016C597F4FCE01825A9F4F0E94D310DC
:1014A000CE01825A9F4F0E94E114CE018C599F4F6A
:1014B0000E94E1140E94BD0D63ED72E0809103066D
:1014C000909104060E94CD30892B89F58091010608
:1014D000909102060E94A12D21E0892B09F420E0C1
:1014E00020937C066CE776E088EC90E00E940E2268
:1014F00065ED71E0CE01885B9F4F0E94EF14609113
:10150000070670910806CE0101960E94EF14BE01F5
:10151000685B7F4FCE0101960E94D310CE010196E9
:101520000E94E114CE01885B9F4F0E94E11467ED99
:1015300072E080910306909104060E94CD30892BC1
:10154000D1F50E94BD0D80910106909102060E9486
:10155000A12D20917F0630918006280F391F253F4D
:1015600031404CF590937E0680937D066DE776E0E2
:101570008EE690E00E94CB2065ED71E0CE01885BA5
:101580009F4F0E94EF146091070670910806CE01EC
:1015900001960E94EF14BE01685B7F4FCE01019659
:1015A0000E94D310CE0101960E94E114CE01885B07
:1015B0009F4F0E94E1146DED72E0809103069091BF
:1015C00004060E94CD30892B79F5198260910106BD
:1015D0007091020644E150E0CE0101960E9409316B
:1015E0008E010F5F1F4F62EDE62EF12CF801619125
:1015F0008F012A96FFAEEEAE2A97CE01885B9F4FF1
:101600000E94ED01FFEFEF1AFF0A26EEE216F10449
:1016100069F78091FF05909100060E94A12D682F27
:101620008DEC90E00E94252E60EE72E08091030622
:10163000909104060E94CD30892B11F581E08093B2
:101640005F0665ED71E0CE01885B9F4F0E94EF144D
:101650006091070670910806CE0101960E94EF1472
:10166000BE01685B7F4FCE0101960E94D310CE0170
:1016700001960E94E114CE01885B9F4F0E94E11405
:1016800066EE72E080910306909104060E94CD30D0
:10169000892B09F45EC06BEE72E080910306909195
:1016A00004060E94CD30892B09F0B4C0A6961FAE67
:1016B0001EAEA697A0961FAE1EAEA097BE01625AA0
:1016C0007F4FCE018C599F4F0E94ED191982A09631
:1016D0008FADA0978F936F968FAD6F978F93A696D0
:1016E0008FADA6978F93A5968FADA5978F938EEF0D
:1016F00092E09F938F938E010F5F1F4F1F930F9365
:101700000E941831B801CE01895A9F4F0E94EF14F0
:101710006091070670910806CE01885B9F4F0E947A
:10172000EF14BE01695A7F4FCE01885B9F4F0E9424
:10173000D310CE01885B9F4F0E94E114CE01895ADD
:101740009F4F0E94E1140FB6F894DEBF0FBECDBFCD
:1017500061C0E12CF12C51E3C52ED12C8E010F5F1D
:101760001F4F85E295E00E9482200E94B21E85E212
:1017700095E00E947D2068E873E180E090E00E949F
:10178000471DEC14FD04E1F52A961FAE1EAE2A9704
:101790002C961FAE1EAE2C972E961FAE1EAE2E9709
:1017A0004AE0B801C7010E94F32DF8010190002022
:1017B000E9F73197AF01401B510BB801CE01885BAF
:1017C0009F4F0E94A91462EF72E0C8010E94EF14BB
:1017D000BE01685B7F4FC8010E94D310C8010E9400
:1017E000E114CE01885B9F4F0E94E114670132E350
:1017F000C30ED11C60E97FE581E090E00E94471DA7
:101800004FEFE41AF40A88EEE81683E0F80609F0D0
:10181000A8CF41CF68E073E0809103069091040661
:101820000E94CD30892B71F5CE0101960E94F01EE9
:10183000BE016F5F7F4F80EE95E00E940814CE01DD
:1018400001960E94E11460EE75E0CE01885B9F4F27
:101850000E94E6146091070670910806CE01019679
:101860000E94EF14BE01685B7F4FCE0101960E947B
:10187000D310CE0101960E94E114CE01885B9F4FE8
:101880000E94E1146DE073E08091030690910406DC
:101890000E94CD30892B09F075C08091FF05909191
:1018A00000060E94A12D6C018091FD059091FE051E
:1018B0000E94A12D7C0180910106909102060E9458
:1018C000A12D8730910519F50EE616E030E6A32E1E
:1018D00036E0B32E4CE7842E46E0942EF801D182F8
:1018E000C082F501F182E082B8018CED90E00E94A7
:1018F000CB20B50180EF90E00E94CB200E5F1F4F00
:10190000F2E0AF0EB11C8016910641F71AC0873085
:101910009105B8F4880F991FBC016259794FFB01FA
:10192000D182C0828C01005A194FF801F182E08205
:101930008CED90E00E94CB20B80180EF90E00E94F7
:10194000CB200E94BD0D65ED71E0CE01885B9F4FFD
:101950000E94EF146091070670910806CE0101966F
:101960000E94EF14BE01685B7F4FCE0101960E947A
:10197000D310CE0101960E94E114CE01885B9F4FE7
:101980000E94E114C759DF4F0FB6F894DEBF0FBEB7
:10199000CDBFDF91CF911F910F91FF90EF90DF901E
:1019A000CF90BF90AF909F908F907F906F905F90FF
:1019B0004F903F902F900895282F3091FE033132A1
:1019C00008F04AC08091DB038111FCCF9091E605BD
:1019D00042E04093DB032093DA032FEF2093D903F7
:1019E0001092D8033093D703EEEDF3E0A7EBB3E00A
:1019F00020E0321721F041914D932F5FFACF1092E2
:101A0000B6032091B603990F922B9093B603909151
:101A1000B503913061F41092B5039091B6039093A1
:101A2000BB009091BC0093FDF8CF95EC01C095EE02
:101A30009093BC009091DB039230E1F39091D90335
:101A40009F3F79F08091D903803241F08091D90392
:101A5000803331F084E005C081E003C082E001C042
:101A600083E01092DD031092FE031092DC030895D0
:101A7000682F8FEF93E00C94F0180F931F930E9440
:101A8000811D609313047093140480931504909344
:101A900016048BE094E00E94031397FF1FC00E947E
:101AA000811D0091130410911404209115043091AC
:101AB0001604DC01CB01801B910BA20BB30B009130
:101AC0000F0410911004209111043091120480171A
:101AD0009107A207B307E8F28FEF9FEF1F910F91D5
:101AE0000895EF92FF920F931F93CF93DF93CDB79B
:101AF000DEB729970FB6F894DEBF0FBECDBF8C01BD
:101B0000862FF801118210821382128215821482AC
:101B10004AE09E012F5F3F4F7901B90190E00E949A
:101B2000F32DF70101900020E9F73197AF014E192D
:101B30005F09B701C8010E94A91429960FB6F8944D
:101B4000DEBF0FBECDBFDF91CF911F910F91FF90F0
:101B5000EF900895CF93DF9300D0CDB7DEB76983C0
:101B60001A8241E050E0BE016F5F7F4F0E9469140E
:101B70000F900F90DF91CF91089548EC50E064E012
:101B800070E085E295E00C9487201F93CF93DF935C
:101B9000EC01162F81E08093DC0380E58093E6055D
:101BA0001092DD031092FE038D2F90E00E94380DFD
:101BB000CE0199270E94380D612F8FEF93E00E948C
:101BC000F01881E00E94DC0C64E170E080E090E0BD
:101BD000DF91CF911F910C94471DCF92DF92EF922E
:101BE000FF920F931F93CF93DF938B01009729F000
:101BF0007C0182E0C82ED12C1CC0C0E0D0E060E0A7
:101C0000CE01800F911F0E94C50D2196C630D105CF
:101C1000B1F724C0CE010E94702F82E0E80EF11CC3
:101C200082E0C80ED11C0F5F1F4F8EE0C816D10492
:101C3000A9F082E090E00E94D82EEC011882A60163
:101C4000B7010E94C4301A82CE010E94A12D682FD4
:101C5000C8010E94C50D2097E9F6DFCFDF91CF9133
:101C60001F910F91FF90EF90DF90CF900895CF9349
:101C7000DF93EC0181E08093DC0380E58093E6054F
:101C80001092DD031092FE038D2F90E00E94380D1C
:101C9000CE0199270E94380D81E00E94DC0C8091D2
:101CA000DB038111FCCF81E08093DB038093DA03B7
:101CB0009FEF9093D9031092D8031092D70380938B
:101CC000B6038091B603806A8093B6038091B50312
:101CD000813061F41092B5038091B6038093BB000C
:101CE0008091BC0083FDF8CF85EC01C085EE809328
:101CF000BC008091DB038130E1F38091D803811136
:101D000003C09091D80301C091E0A7EBB3E0E5E9EF
:101D1000F3E080E0891721F02D9121938F5FFACFB6
:101D20001092940380939303882329F08FEF93E01C
:101D30000E94A71801C08FEFDF91CF910895CF9235
:101D4000DF92EF92FF920F931F93CF93DF93E09078
:101D50003405F0903505853441F0833549F0813400
:101D600069F485E0E82EF12C09C0C6E0D0E008C097
:101D7000E701219685E0E80EF11C02C0C1E0D0E049
:101D8000CE01019727E0289F8001299F100D112483
:101D9000EC16FD06D4F0680187E0C80ED11C0C15C6
:101DA0001D051CF021968601F3CFC8010E94370E55
:101DB0008111F8CFC80101968C159D059CF70E94F2
:101DC000370E8111EFCFCE0102C080E090E0DF91AD
:101DD000CF911F910F91FF90EF90DF90CF900895DA
:101DE0002F923F924F925F926F927F928F929F922B
:101DF000AF92BF92CF92DF92EF92FF920F931F9319
:101E0000CF93DF93482E392E3B01C12CD12CC1E05A
:101E1000D0E0809134059091350505968C179D078B
:101E20000CF44EC0E42CF32C560100E010E0502ED0
:101E300082E090E00E94D82E4C010F5F1F4FA80156
:101E4000440F551FB701C4010E94C430F40112822F
:101E5000C5010E94370E282EC4010E94A12D222DFB
:101E600030E02817390789F48114910419F0C4016E
:101E70000E94702F502EF2E0EF0EF11C8FEFA81A87
:101E8000B80A0730110599F606C08114910419F0BB
:101E9000C4010E94702FE7E0CE0ED11CF5E0F515CD
:101EA00068F427E02C9FC0012D9F900D112401970D
:101EB0000E94370EF3018083CE0104C02196A9CF82
:101EC00080E090E0DF91CF911F910F91FF90EF9014
:101ED000DF90CF90BF90AF909F908F907F906F904A
:101EE0005F904F903F902F900895CF92DF92EF92A6
:101EF000FF920F931F93CF93DF931F92CDB7DEB75F
:101F00004983FC0101900020E9F73197E81BF90BA8
:101F1000EB30F10518F480E090E030C0DC01E80F10
:101F2000F91F2D91022E000C330B205331092A305A
:101F3000310588F7AE17BF07A1F7F62E8C01BE0159
:101F40006F5F7F4F0E94F00E892B29F78F2D0E9423
:101F50009F0E7C0118161906F4F6019727E0289FBA
:101F60006001299FD00C1124B601C8010E94ED0D1B
:101F70006981C60106960E94C50DC7010F90DF91C9
:101F8000CF911F910F91FF90EF90DF90CF90089528
:101F9000FC0124813581232B49F063E173E08081CA
:101FA00091810E94EB3021E0892B09F020E0822F03
:101FB0000895CF92DF92EF92FF920F931F93CF93EA
:101FC000DF9300D0CDB7DEB76C017C0100E010E0FC
:101FD000F70161917F011A830983CE0101960E9466
:101FE000ED010F5F1F4F0730110591F7C6010F90EC
:101FF0000F90DF91CF911F910F91FF90EF90DF90A5
:10200000CF900895FB0144815581608171810C94CA
:102010006914CF93DF93BC0188EA94E00E94B4175F
:10202000EC0188EA94E00E94ED178C0F9D1FDF9170
:10203000CF9108958F929F92AF92BF920F931F936B
:10204000CF93DF93CDB7DEB7A1970FB6F894DEBF7D
:102050000FBECDBF19A2423008F44AE08E010F5DD9
:102060001F4F842E912CA12CB12CA50194010E940C
:10207000982EE62FB901CA0101501109EA3014F473
:10208000E05D01C0E95CD801EC93232B242B252BC8
:1020900061F7B80188EA94E00E94D817A1960FB6BC
:1020A000F894DEBF0FBECDBFDF91CF911F910F918E
:1020B000BF90AF909F908F900895CF92DF92EF9254
:1020C000FF92CF93DF936C01990FEE08FF08F7FEA4
:1020D00019C06DE288EA94E00E94691FEC0166274E
:1020E0007727CB016C197D098E099F094AE00E9470
:1020F0001A108C0F9D1FDF91CF91FF90EF90DF9012
:10210000CF9008954AE0C701B601DF91CF91FF90CB
:10211000EF90DF90CF900C941A10CF93DF930E9432
:102120005D10EC0188EA94E00E94ED178C0F9D1F72
:10213000DF91CF910895CF93DF93EC0167E173E0D6
:102140000E94EF140E943D0D97FD05C0682FCE013F
:102150000E94AA0DF7CFCE01DF91CF910895CF93C2
:10216000DF9300D000D000D0CDB7DEB7CE0101960E
:102170000E949B10CE0101960E94E11464E670E07B
:1021800080E090E00E94471D6DE371E08BE094E0F9
:102190000E94B41726960FB6F894DEBF0FBECDBFCF
:1021A000DF91CF910895EF92FF920F931F93CF93FA
:1021B000DF9300D000D000D0CDB7DEB78C017B011B
:1021C000CE0101960E949B10CE0101960E94E1145F
:1021D00064E670E080E090E00E94471D63E371E0F8
:1021E0008BE094E00E94B417F8014481558160812E
:1021F00071818BE094E00E94CA1260E371E08BE091
:1022000094E00E94B41764E670E080E090E00E94E1
:10221000471DB7018BE094E00E94F11764E670E07F
:1022200080E090E00E94471D6AE18BE094E00E940C
:102230005C136CED75E080E090E00E94471DCE01DC
:1022400001960E949B10CE0101960E94E1142696F1
:102250000FB6F894DEBF0FBECDBFDF91CF911F91B7
:102260000F91FF90EF900895CF92DF92FF920F931E
:102270001F93CF93DF93CDB7DEB762970FB6F89475
:10228000DEBF0FBECDBF8C01F62E6A0167E173E0A1
:10229000CE010D960E94EF1489E06F2D8F15B0F4DA
:1022A000CE0101960E94710DBE016F5F7F4FCE017E
:1022B0000D960E940814BE01635F7F4FC8010E9403
:1022C000E614CE0101960E94E11442C0CE010196AF
:1022D000E5E0CE16D10451F40E94710DBE016F5F8E
:1022E0007F4FCE010D960E94081421C00E94710DEF
:1022F00063E173E0CE0107960E94EF144D815E8189
:1023000069817A81CE0107960E946914811104C007
:10231000CE0107960E949714BE01695F7F4FCE01E0
:102320000D960E94CA14CE0107960E94E114CE01B8
:1023300001960E94E114F801118210821382128228
:1023400015821482BE01635F7F4FC8010E9408148A
:10235000CE010D960E94E114C80162960FB6F89462
:10236000DEBF0FBECDBFDF91CF911F910F91FF90C8
:10237000DF90CF900895BF92CF92DF92EF92FF92BD
:102380000F931F93CF93DF93CDB7DEB72C970FB684
:10239000F894DEBF0FBECDBF8C016B0167E173E027
:1023A000CE0107960E94EF1487E08C9D70018D9DF1
:1023B000F00C1124C70101970E94370E809304018D
:1023C000670187E0C81AD108B12CE12CF12CC601B5
:1023D0008E0D9F1D0E94370E811101C0B39493E0B2
:1023E0009B1530F463E173E0C8010E94EF1425C02F
:1023F000A701682FCE0101960E943411BE016F5FC4
:102400007F4FCE0107960E940210CE0101960E94D6
:10241000E114EFEFEE1AFE0AF6E0EF16F104B9F65A
:10242000F801118210821382128215821482BE0179
:10243000695F7F4FC8010E940814CE0107960E9471
:10244000E114C8012C960FB6F894DEBF0FBECDBFC5
:10245000DF91CF911F910F91FF90EF90DF90CF9080
:10246000BF90089508954091EA055091EB052091A1
:10247000E8053091E90542175307B4F49091E8005C
:102480009570E1F39091E80092FD19C08093F100FE
:102490008091EA059091EB0501968F739927892B1E
:1024A00019F48EEF8093E8008091EA059091EB0596
:1024B00001969093EB058093EA0581E0089580E012
:1024C0000895DF92EF92FF920F931F93CF93DF93C4
:1024D000D82EF92EE42E062F10E0C8010196880FA1
:1024E0000E94331283E00E943312CD2DDF2D0C0F9A
:1024F0001D1FC017D10789F0E7FE03C0FE018491BC
:1025000001C088810E943312F82E80E00E943312AD
:102510008F2121968111EDCF01C081E0DF91CF9114
:102520001F910F91FF90EF90DF900895DF92EF924F
:10253000FF920F931F93CF93DF93D82E8A017B01D5
:10254000E40EF51EEB01CE15DF0571F0D7FE03C0DA
:10255000FE01849101C088810E943312219681116D
:10256000F2CF8FEF9FEF01C0C801DF91CF911F9194
:102570000F91FF90EF90DF900895615030F020911F
:10258000F100FC0120830196F8CF289884E680931F
:10259000F9050895CF92DF92EF92FF920F931F9368
:1025A000CF93DF936C017A018B01C0E0D0E0CE15B0
:1025B000DF0581F0D8016D918D01D601ED91FC917F
:1025C0000190F081E02DC6010995892B11F021962B
:1025D000EECF7E01C701DF91CF911F910F91FF9048
:1025E000EF90DF90CF900895FC01538D448D252FFF
:1025F00030E0842F90E0821B930B541710F0CF969D
:10260000089501970895FC01918D828D981761F0CE
:10261000828DDF01A80FB11D5D968C91928D9F5F19
:102620009F73928F90E008958FEF9FEF0895FC01C4
:10263000918D828D981731F0828DE80FF11D858D77
:1026400090E008958FEF9FEF0895FC01918D228D0A
:10265000892F90E0805C9F4F821B91098F7399278F
:1026600008958BE094E00E94251321E0892B09F462
:1026700020E0822F0895FC01848DDF01A80FB11D99
:10268000A35ABF4F2C91848D90E001968F739927A8
:10269000848FA689B7892C93A089B1898C91827483
:1026A0008C93938D848D981306C00288F389E02D56
:1026B00080818F7D80830895EF92FF920F931F9307
:1026C000CF93DF93EC0181E0888F9B8D8C8D9813E5
:1026D00005C0E889F989808185FD26C0F62E0B8D1D
:1026E00010E00F5F1F4F0F731127E02E8C8DE81243
:1026F0000CC00FB607FCFACFE889F989808185FF05
:10270000F5CFCE010E943B13F1CF8B8DFE01E80F78
:10271000F11DE35AFF4FF0829FB7F8940B8FEA89BF
:10272000FB898081806209C09FB7F894EE89FF8998
:102730006083E889F9898081827480839FBF81E00A
:1027400090E0DF91CF911F910F91FF90EF9008954E
:10275000CF93DF93EC01888D8823C9F0EA89FB8948
:10276000808185FD05C0A889B9898C9186FD0FC03F
:102770000FB607FCF5CF808185FFF2CFA889B98914
:102780008C9185FFEDCFCE010E943B13E7CFDF9107
:10279000CF91089580E090E0892B29F00E943113B9
:1027A00081110C94000008950E94BF300F931F9375
:1027B000CF93DF931F92CDB7DEB782E0898342E4E7
:1027C00050E068E471E080E80E9496120E949F1C2D
:1027D000DC0112960D911C9113970115110589F0DA
:1027E000D801ED91FC910280F381E02DBE016F5F75
:1027F0007F4FC801099597FD04C0F8010085118538
:10280000ECCF89810F90DF91CF911F910F910895A7
:102810000F931F93CF93DF938C01EB01FC01808119
:102820009181009739F06881798161157105A1F472
:102830000E94702F88819981F801918380838A8119
:102840009B81938382838C819D819583848319826C
:1028500018821B821A820FC0F801428153812C8199
:102860003D814217530720F30E94F4308C819D81F3
:10287000F801958384831D821C82DF91CF911F9183
:102880000F9108950F931F93CF93DF93EC018881ED
:102890009981009729F02A813B812617370788F410
:1028A0008B016F5F7F4F0E94F92F009761F0998332
:1028B00088831B830A832C813D81232B11F4FC0127
:1028C000108281E001C080E0DF91CF911F910F91D4
:1028D0000895EF92FF920F931F93CF93DF936115AB
:1028E000710511F480E01CC041155105C1F07B0158
:1028F000EC018C819D818A01080F191FB801CE015E
:102900000E944214882371F3288139818C819D8132
:10291000B701820F931F0E94F4301D830C8381E066
:10292000DF91CF911F910F91FF90EF900895CF937A
:10293000DF93EC0188819981009711F00E94702F3C
:10294000198218821D821C821B821A82DF91CF910C
:102950000895EF92FF920F931F93CF93DF93EC01B3
:102960007B018A01BA010E944214811104C0CE0188
:102970000E94971407C01D830C83B7018881998139
:102980000E94F430CE01DF91CF911F910F91FF9003
:10299000EF900895CF93DF93EC01FB018617970723
:1029A00061F0608171816115710529F04481558163
:1029B0000E94A91402C00E949714CE01DF91CF910A
:1029C0000895FC01808191810C94702FFC0111828B
:1029D000108213821282158214820C94CA14FC0194
:1029E0001182108213821282158214826115710580
:1029F00051F0FB0101900020E9F73197AF01461B30
:102A0000570B0C94A91408951F920F920FB60F92B2
:102A100011248F939F938091E1009091E100937F27
:102A20009093E10083FF0FC01092E90091E0909332
:102A3000EB001092EC0092E39093ED001092FA05F7
:102A400098E09093F00082FF20C093E09093E9001B
:102A50009091F200992319F09AE39093E8009091F5
:102A6000E705992339F09091E70591509093E70598
:102A7000992389F19091F905992339F09091F905FD
:102A800091509093F905992341F184FF10C08091F2
:102A9000E2008E7E81608093E2008091E1008F7E73
:102AA0008093E10080912A038E7E806111C080FFB7
:102AB00016C08091E2008E7E80618093E20080915A
:102AC000E1008E7E8093E10080912A038E7E8160FA
:102AD00080932A0304C05D9ACDCF289AD6CF9F91C8
:102AE0008F910F900FBE0F901F9018951F920F920D
:102AF0000FB60F921124CF92DF92EF92FF920F93B5
:102B00001F932F933F934F935F936F937F938F9375
:102B10009F93AF93BF93EF93FF93CF93DF93CDB783
:102B2000DEB76C97DEBFCDBF1092E9008091E80060
:102B300083FFFBC168E0CE0145960E94BD1282EF83
:102B40008093E8008D8987FF05C09091E80090FF91
:102B5000FCCF03C09EEF9093E800982F907609F089
:102B6000C6C09E894F89588D2F89F88C91110CC051
:102B7000803829F480912B038093F10002C01092D9
:102B8000F1001092F10045C1913051F4811141C121
:102B90004130510509F03DC180912B038D7F0BC061
:102BA000933061F4811135C14130510509F031C1D3
:102BB00080912B03826080932B032BC1953049F4C5
:102BC0008091E80080FFFCCF822F80688093E30033
:102BD00020C1963009F05EC00B8D1C8D22E0109252
:102BE000E9001092EB051092EA05F21232C0109241
:102BF000E9051092E8050E94D61399E0BE016F5FC7
:102C00007F4FDB01E92F1D92EA95E9F79983FA825C
:102C100091E09E8390EA98879AEF99872091EA0540
:102C20003091EB05275F3F4F3C832B838D831092C0
:102C3000E9001092EB051092EA051093E905009364
:102C4000E80549E050E080E00E9496120E94D61309
:102C5000E0C01093E9050093E8050E949F1CDC0189
:102C600012960D911C9113970115110509F4BBC023
:102C7000D801ED91FC910480F581E02DBE016B5EE1
:102C80007F4FC8010995009709F0C7C0F80100857A
:102C90001185EACF973009F445C1983021F481E0DD
:102CA0008093F100B6C0993009F0B3C0837009F089
:102CB00039C1E5E5F1E081E031E096E320812111C1
:102CC00009C08EE78093EA001092EA008F89809312
:102CD000FA059FC08093E9003093EB002191209387
:102CE000EC009093ED008F5F873041F7EACF8B8D3A
:102CF0009C8D1092E9001092EB051092EA059093DA
:102D0000E9058093E805898D811153C08E899D89DD
:102D1000913A49F4813209F005C147E050E069E099
:102D200071E080E0BBC0913209F0FCC0833269F4ED
:102D30008F89988DA0E0B0E0809305019093060103
:102D4000A0930701B093080164C0803269F48091B8
:102D5000E80082FFFCCF67E089E091E00E94BD12AD
:102D60008BEF8093E80055C0823209F052C08F8902
:102D700080931001EEEFFFE7859194918B3F9C4D7E
:102D800019F0E0E0F8E002C0EEEFFAE0809109010E
:102D900090910A01A0910B01B0910C01803B9440ED
:102DA000A105B10509F09EC08091100180FF79C096
:102DB00099C00E949F1CFC0102811381011511051D
:102DC00009F4B0C0D801ED91FC910190F081E02DA3
:102DD000BE016B5E7F4FC801099581111AC0F801D1
:102DE00000851185EBCFF1E0FF1609F44EC0F3E04A
:102DF000FF1298C08F89882309F44AC0823089F471
:102E000040E862E189EA91E00E946112882309F4B6
:102E100089C08EEF8093E80088C018161906CCF39D
:102E200081C0813029F440E868E080EA91E0ECCF8D
:102E3000833009F077C00E949F1CDC011296ED9050
:102E4000FC9013978E010F5F1F4F6801E114F1048E
:102E500079F0D701ED91FC910680F781E02DB80162
:102E6000C7010995080F111DF701E084F184EECF29
:102E7000D8011C92F60101900020E9F73197BF01BB
:102E80006C197D0940E0C601BFCF6EE871E002C059
:102E90006AE871E0FB01449150E080E80E949612DC
:102EA000B8CFEE3F2AE0F20751F080819181873759
:102EB000A7E79A0721F09093FF0A8093FE0A87E71D
:102EC00097E791838083809160008093EC059BE07D
:102ED00088E10FB6F894A895809360000FBE909398
:102EE000600097CF808191818737974709F091CF14
:102EF000A895809160008861809360008091EC05C6
:102F000080936000EE3FBAE0FB0739F08091FE0A43
:102F10009091FF0A918380837CCF1092FF0A1092D8
:102F2000FE0A77CF81E28093EB006C960FB6F8949F
:102F3000DEBF0FBECDBFDF91CF91FF91EF91BF916B
:102F4000AF919F918F917F916F915F914F913F9141
:102F50002F911F910F91FF90EF90DF90CF900F90E6
:102F60000FBE0F901F901895EF92FF920F931F9333
:102F7000CF93DF938C017B01C0E0D0E0F701EC0F31
:102F8000FD1F6491662361F0D801ED91FC910190E1
:102F9000F081E02DC8010995892B11F02196EECF23
:102FA000CE01DF91CF911F910F91FF90EF90089587
:102FB0006115710579F0FB0101900020E9F7319767
:102FC000AF01461B570BDC01ED91FC910280F381B0
:102FD000E02D099480E090E0089565E173E00C94A1
:102FE000D8170F931F93CF93DF93EC01FB0144811C
:102FF000558160817181E881F9810280F381E02D42
:1030000009958C01CE010E94ED17800F911FDF9171
:10301000CF911F910F9108951F920F920FB60F92AB
:1030200011242F933F934F935F936F937F938F93CD
:103030009F93AF93BF93EF93FF938BE094E00E9435
:103040003B13FF91EF91BF91AF919F918F917F9132
:103050006F915F914F913F912F910F900FBE0F9005
:103060001F9018951F920F920FB60F9211242F9355
:103070008F939F93EF93FF93E0911B04F0911C04B7
:103080008081E0912104F091220482FD12C09081A0
:10309000809124048F5F8F7320912504821751F053
:1030A000E0912404F0E0E55FFB4F958F80932404CA
:1030B00001C08081FF91EF919F918F912F910F908F
:1030C0000FBE0F901F90189585ED8093BC008091E6
:1030D000BC0084FDFCCF1092DB03089540913A06BA
:1030E000262F30E0240F311D21323105DCF42091F0
:1030F000DB032430C9F4FC0180E090E0861758F42B
:1031000030913A062191DC01A65EB94FA30FB11DA3
:103110002C930196F3CF80913A06680F60933A069C
:1031200080E0089581E0089582E00895089508956B
:10313000E091940380919303E81730F4F0E0EB56AC
:10314000FC4F808190E008958FEF9FEF089590915C
:10315000940380919303981750F4E92FF0E0EB5615
:10316000FC4F208130E09F5F9093940302C02FEFCB
:103170003FEFC90108958091930390E0209194035B
:10318000821B91090895CF92DF92EF92FF920F93E5
:103190001F93CF93DF937C01CB018A012091DC0345
:1031A000222389F0EB016B01C40ED51ECC15DD0581
:1031B00069F06991D701ED91FC910190F081E02DCA
:1031C000C7010995F3CF642F0E946E18C801DF91E3
:1031D000CF911F910F91FF90EF90DF90CF900895C6
:1031E000CF93DF931F92CDB7DEB769832091DC03C5
:1031F0002223D1F02091FE03203240F021E030E084
:10320000FC013383228380E090E015C08091DD03D0
:10321000E82FF0E0E252FC4F998190838F5F80931A
:10322000DD038093FE0305C061E0CE0101960E949C
:103230006E1881E090E00F90DF91CF91089590E0BB
:10324000FC013197EF30F105B0F5EA5AFF4F0C94CD
:10325000BA2E809180008F7703C0809180008F7D8F
:1032600080938000089580918000877FF9CF84B596
:103270008F7702C084B58F7D84BD089580919000C2
:103280008F7707C0809190008F7D03C08091900060
:10329000877F8093900008958091C0008F7703C04E
:1032A0008091C0008F7D8093C00008958091C200FE
:1032B000877F8093C20008953FB7F8948091F1050D
:1032C0009091F205A091F305B091F40526B5A89B65
:1032D00005C02F3F19F00196A11DB11D3FBFBA2FA8
:1032E000A92F982F8827820F911DA11DB11DBC0108
:1032F000CD0142E0660F771F881F991F4A95D1F7CD
:1033000008959F92AF92BF92CF92DF92EF92FF9279
:103310000F931F93CF93DF9300D0CDB7DEB76C012F
:10332000B62E7A011A821982BE016F5F7F4F80E547
:1033300090E00E94F22089819A818C5E9A4F2DE064
:10334000289F8001299F100D1124B801C6010E94F9
:10335000ED0DF701A0809180C380D4806281C80107
:1033600007960E94C50D692DC80108960E94C50DDB
:103370006A2DC80109960E94C50D6C2DC8010A96D8
:103380000E94C50D6D2DC8010B960E94C50D6B2DB9
:10339000C8010C960E94C50D89819A810196843FCF
:1033A000F1E09F0719F09A83898302C01A8219827B
:1033B000BE016F5F7F4F80E590E00E94CB200F90B1
:1033C0000F90DF91CF911F910F91FF90EF90DF90C1
:1033D000CF90BF90AF909F900895DF92EF92FF92B1
:1033E0000F931F93CF93DF938C017B01C0E0D0E05C
:1033F00087E0D82E2091340530913505D29EC0014A
:10340000D39E900D11248C179D0794F0CE010E943D
:10341000370E882359F0CD31D10514F4F80101C0DD
:10342000F701808191810196918380832796E2CF75
:10343000DF91CF911F910F91FF90EF90DF90089552
:10344000CF92DF92EF92FF920F931F93CF93DF9370
:103450001F92CDB7DEB71982BE016F5F7F4F0E940A
:10346000F00E7C01019727E0289F6001299FD00C76
:10347000112400E010E060E0C8018C0D9D1D0E9449
:10348000C50D0F5F1F4F07301105A9F7C7010F903A
:10349000DF91CF911F910F91FF90EF90DF90CF9030
:1034A0000895BC0188EA94E00C94D8174F925F927B
:1034B0006F928F929F92AF92BF92CF92DF92EF92D4
:1034C000FF921F93CF93DF93109208061092070686
:1034D000109206061092050610920406109203063A
:1034E0001092020610920106109200061092FF053B
:1034F0001092FE051092FD051092FC051092FB053E
:10350000DC01ED91FC919081909309068091360544
:10351000813529F49435F9F0913561F419C08C3472
:1035200039F49435C1F0913549F09934D9F406C095
:10353000943599F013E0933411F412C012E0892FFE
:103540008D7F893469F09B7F913509F06AC008C08E
:10355000C0E012E00CC0C8E001C0C0E013E007C04A
:10356000C0E005C0933409F05AC0C0E018E066EB33
:1035700072E0CF010E94BF2D612CD0E04E01B4E07B
:103580008B0E911C2E0125E0420E511C7E01A6E0FF
:10359000EA0EF11C6E01B7E0CB0ED11C5E0128E0F3
:1035A000A20EB11C29960097E1F16394611204C048
:1035B0009093080680930706262D30E028153905DC
:1035C00021F490930606809305062415350521F411
:1035D00090930406809303062E153F0521F49093E3
:1035E0000206809301062C153D0521F490930006F8
:1035F0008093FF052A153B0521F49093FE058093E7
:10360000FD052C173D0721F49093FC058093FB05E5
:1036100068E173E080E090E00E94BF2DC4CF13E02A
:103620008ECFDF91CF911F91FF90EF90DF90CF90E1
:10363000BF90AF909F908F906F905F904F90089544
:10364000CF93DF93BC0188EA94E00E94D817EC0185
:1036500088EA94E00E94ED178C0F9D1FDF91CF91B7
:1036600008952091FA05211103C08FEF9FEF08956F
:103670005FB7F89422E02093E9002091F20030E057
:103680001216130614F421E030E0422FFC0184E608
:10369000415038F028988093F9059091F10091936A
:1036A000F7CF2115310521F08091F200882319F020
:1036B0005FBFC90108958BE68093E800F9CF2FB76B
:1036C000F89483E08093E9009091E800892F80725C
:1036D00095FF04C09091F20080E4891B2FBF0895EC
:1036E0001F920F920FB60F9211242F933F934F9377
:1036F0005F936F937F938F939F93AF93BF93EF935A
:10370000FF938091B900887F803609F49CC068F5EA
:10371000883209F45BC090F4803109F454C038F465
:10372000882309F4F6C0883009F44DC0F6C088310A
:1037300009F44CC0803209F45DC0EFC0803409F454
:1037400068C048F4803309F455C0883309F0E5C0F7
:103750008093D903D8C0803509F44FC0883509F467
:103760005DC0883409F0D9C0D6C0883909F4C7C013
:10377000A8F4883709F467C038F4883609F463C0C0
:10378000803709F460C0C9C0883809F4B8C08039EE
:1037900009F45FC0803809F0C0C05BC0803B09F409
:1037A00086C038F4803A09F466C0883A09F47FC0CC
:1037B000B4C0803C09F4A7C0883C09F4A4C0883B8D
:1037C00009F48AC0AAC08091B60310C09091D803B2
:1037D0008091D703981770F5E091D80381E08E0FA0
:1037E0008093D803F0E0E954FC4F80818093BB00C4
:1037F00085EC86C08093D9038EC0E091D80381E028
:103800008E0F8093D8038091BB00F0E0E954FC4F09
:1038100080839091D8038091D7036EC0E091D80344
:1038200081E08E0F8093D8038091BB00F0E0E954D3
:10383000FC4F80838091DA0381116DC081E0809319
:10384000B50384EA61C083E08093DB0310925C06D9
:10385000CFCF80915C06803208F051C0E0915C06C9
:1038600081E08E0F80935C068091BB00F0E0E45C09
:10387000F94F8083BDCF85EC8093BC001092DB03B1
:1038800080915C06803230F4E0915C06F0E0E45C0C
:10389000F94F108260915C0670E0E091F705F091BD
:1038A000F8058CE396E0099510925C0636C084E03A
:1038B0008093DB0310923B0610923A06E091F505E7
:1038C000F091F605099580913A06811105C081E0D5
:1038D00080933A0610921A06E0913B0681E08E0F23
:1038E00080933B06F0E0E65EF94F80818093BB0059
:1038F00090913B0680913A06981708F479CF85E8B5
:103900008093BC000AC085EC8093BC001092DB035E
:1039100004C01092D9030E946418FF91EF91BF91E7
:10392000AF919F918F917F916F915F914F913F9157
:103930002F910F900FBE0F901F90189508958091B2
:10394000120681110DC082E080930E0684E0809300
:103950000F06109211061092100681E08093120655
:103960008EE096E00895CF93DF93282F30E0F901A1
:10397000EC5DFD4F8491F901EB5FFD4FD491F901AE
:10398000EA51FE4FC491CC2391F081110E941F197E
:10399000EC2FF0E0EE0FFF1FE852FE4FA591B4911F
:1039A000EC91ED2381E090E021F480E002C080E022
:1039B00090E0DF91CF9108951F93CF93DF93282F4D
:1039C00030E0F901EC5DFD4F8491F901EB5FFD4FB3
:1039D000D491F901EA51FE4FC491CC23C1F0162FC6
:1039E00081110E941F19EC2FF0E0EE0FFF1FE6532C
:1039F000FE4FA591B4919FB7F894111104C08C911A
:103A0000D095D82302C0EC91DE2BDC939FBFDF91D1
:103A1000CF911F910895CF93DF9390E0FC01EB5F6E
:103A2000FD4F2491FC01EA51FE4F8491882361F1FE
:103A300090E0880F991FFC01E454FE4FC591D4918A
:103A4000FC01E653FE4FA591B491611109C09FB7E7
:103A5000F8948881209582238883EC912E230BC0D3
:103A6000623061F49FB7F8948881322F30958323B8
:103A70008883EC912E2B2C939FBF06C08FB7F894B0
:103A8000E8812E2B28838FBFDF91CF9108958F92ED
:103A90009F92AF92BF92CF92DF92EF92FF926B0113
:103AA0007C010E945C194B015C01C114D104E1044A
:103AB000F104F1F00E945C19DC01CB01881999092D
:103AC000AA09BB09883E9340A105B10570F321E026
:103AD000C21AD108E108F10888EE880E83E0981E2A
:103AE000A11CB11CC114D104E104F10419F7DDCF0C
:103AF000FF90EF90DF90CF90BF90AF909F908F900E
:103B000008952FB7F8946091ED057091EE058091BE
:103B1000EF059091F0052FBF0895CF92DF92EF92BD
:103B2000FF920E94D0216B017C010E94811D28EE32
:103B300033E040E050E00E94982EC21AD30AE40A13
:103B4000F50AC0920A06D0920B06E0920C06F0929B
:103B50000D06FF90EF90DF90CF9008950F931F9385
:103B6000CF93DF93EC01092E000CAA0BBB0B8093C3
:103B7000290590932A05A0932B05B0932C050E944C
:103B8000811DAB01BC018091300590913105A09160
:103B90003205B09133058A019B01081B190B2A0BD2
:103BA0003B0B8091290590912A05A0912B05B0919E
:103BB0002C05081719072A073B0758F1809127059C
:103BC000811113C081E080932705C43F81E0D807AD
:103BD00074F0CE01845F9140092E000CAA0BBB0B40
:103BE000481B590B6A0B7B0B02C0109227054093B0
:103BF0003005509331056093320570933305609121
:103C0000270580912505DF91CF911F910F910C948D
:103C1000DC1CDF91CF911F910F910895CF93DF931B
:103C200000D000D000D0CDB7DEB7CE0101960E9403
:103C30009B10CE0101960E94E1146AEB72E08BE0CA
:103C400094E00E94B41764EF71E080E090E00E947D
:103C5000471DCE0101960E949B10CE0101960E9445
:103C6000E1146EEA72E08BE094E00E94B41764EF16
:103C700071E080E090E00E94471DCE0101960E9415
:103C80009B10CE0101960E94E11462EA72E08BE083
:103C900094E00E94B41764EF71E080E090E00E942D
:103CA000471DCE0101960E949B10CE0101960E94F5
:103CB000E1146EE872E08BE094E00E94B41764EFC8
:103CC00071E080E090E00E94471DCE0101960E94C5
:103CD0009B10CE0101960E94E1146FE672E08BE02A
:103CE00094E00E94B41764EF71E080E090E00E94DD
:103CF000471DCE0101960E949B10CE0101960E94A5
:103D0000E11468E672E08BE094E00E94B41764EF7F
:103D100071E080E090E00E94471DCE0101960E9474
:103D20009B10CE0101960E94E1146AE572E08BE0DF
:103D300094E00E94B41764E670E080E090E00E9496
:103D4000471DCE0101960E949B10CE0101960E9454
:103D5000E11426960FB6F894DEBF0FBECDBFDF91FB
:103D6000CF910895CF93DF9300D000D000D0CDB78E
:103D7000DEB7CE0101960E949B10CE0101960E94F3
:103D8000E11464E670E080E090E00E94471D68E482
:103D900072E08BE094E00E94B41760E177E280E08B
:103DA00090E00E94471D62E472E08BE094E00E9484
:103DB000B41768EE73E080E090E00E94471DCE01EA
:103DC00001960E949B10CE0101960E94E114269656
:103DD0000FB6F894DEBF0FBECDBFDF91CF9108952F
:103DE000EF92FF920F931F93CF93DF9300D000D0F9
:103DF00000D0CDB7DEB78C01CE0101960E949B109A
:103E0000CE0101960E94E11464E670E080E090E04B
:103E10000E94471D60E572E08BE094E00E94B417B9
:103E200068EE73E080E090E00E94471DFF24F39469
:103E300087E2E82E8BE094E00E9425132091430551
:103E40001816190664F521112AC08BE094E00E942F
:103E5000031390915E069923E9F0E0915D068A30A4
:103E600071F0AE2FB0E0AC54BA4F8C93EF5FE832F4
:103E700018F4E0935D06DECFE0925D06DBCFF0E064
:103E8000EC54FA4F108210925E0610925D06F0928A
:103E90004305D0CF883371F6F0925E06CBCF222354
:103EA00029F01092430564EB75E002C061E273E013
:103EB000C8010E94EF14C80126960FB6F894DEBF21
:103EC0000FBECDBFDF91CF911F910F91FF90EF906B
:103ED0000895CF93DF931F92CDB7DEB76983DC01DE
:103EE000ED91FC910280F381E02D41E050E0BE01B4
:103EF0006F5F7F4F09950F90DF91CF91089583E019
:103F00008093E9008091F200882319F08AE380937E
:103F1000E8000895FC018485958597FD0BC09FB747
:103F2000F89482E08093E9008091F2009FBF90E0D6
:103F3000019608959FB7F89482E08093E9008091FC
:103F4000F2009FBF90E0089580E090E008958F9286
:103F50009F92AF92BF92CF92DF92EF92FF920F9318
:103F60001F93CF93DF936C017B018A018091100135
:103F7000882309F45CC08091FA05882309F457C0AE
:103F800080912A0380FF05C08091E00082608093C9
:103F9000E000E801B12C8AEFA82E93E0892E2AE3F5
:103FA000922E209711F4BB20D9F10E945F1B811142
:103FB0000AC0AA94AA20D9F161E070E080E090E004
:103FC0000E94471DEECF282F30E0C217D3070CF414
:103FD0008C2F9FB7F8948092E9002091E80025FF8C
:103FE0001DC0282F30E0C21BD30BF701815020F0F9
:103FF00041914093F100FACFE20EF31EBB2019F07D
:104000009092E8000AC08091E80085FD07C0909278
:10401000E800BB24B394209709F0B12C9FBFC1CF17
:104020005D9884E68093E7051016110644F081E060
:1040300090E0F6019383828380E090E001C0C801A4
:10404000DF91CF911F910F91FF90EF90DF90CF9074
:10405000BF90AF909F908F9008950E945F1B90E05B
:1040600008950F931F93CF93DF931F92CDB7DEB7C1
:104070008C01FC018485958597FF0EC0CE010196C9
:104080000E94311B019719F4898190E002C08FEFE3
:104090009FEFF80195878487F801848595850F90B7
:1040A000DF91CF911F910F910895CF93DF931F92CE
:1040B000CDB7DEB7FC018485958597FD05C02FEF50
:1040C0003FEF358724870BC0CE0101960E94311B3C
:1040D000019719F4898190E002C08FEF9FEF0F9054
:1040E000DF91CF910895CF93DF93EB010E941D2EB6
:1040F0008883CE01DF91CF91089560E0FC0180813B
:104100000C94DC1C61E0FC0180810C94DC1CEF92BF
:10411000FF920F931F93CF93DF93EC01CB01072EF8
:10412000000CAA0BBB0B8C839D83AE83BF83598786
:1041300048878B81882341F18B01E12CF12CE0161B
:10414000F106C4F461E088810E94DC1C68857985F1
:1041500080E090E00E94471D60E088810E94DC1CA6
:104160006885798580E090E00E94471D8FEFE81A0E
:10417000F80AE5CF60E08881DF91CF911F910F9120
:10418000FF90EF900C94DC1CDF91CF911F910F9169
:10419000FF90EF900895EF92FF920F931F93CF93AC
:1041A000DF9300D0CDB7DEB78C017B01FB016081CE
:1041B0009A838983CE0101960E94ED01F701618106
:1041C0000F5F1F4F1A830983CE0101960E94ED01F4
:1041D000C7010F900F90DF91CF911F910F91FF902A
:1041E000EF9008950F931F93CF93DF938C01EB0112
:1041F0000E941D2E8883C80101960E941D2E89836E
:10420000CE01DF91CF911F910F9108958F929F92D0
:10421000AF92BF92CF92DF92EF92FF92CF93DF9354
:10422000EC016A017B0180E8C81A83E4D80A8DE6B4
:10423000E80A88E3F80A8CE3882E912CA12CB12C93
:10424000C701B601A50194010E94982E6D83CA0191
:10425000B901A50194010E94982E6C83C701B60193
:1042600020E13EE040E050E00E94982ECA01B901F2
:1042700028E130E040E050E00E94982E6B83C701B7
:10428000B60120E831E541E050E00E94982E188206
:104290004881542F537081E009F080E090E0BC0128
:1042A00063597E4F2617370738F0281B390B2D56D8
:1042B00031404F5F4883ECCF81E089838981E82FCB
:1042C000F0E0EB53FD4FE491511103C0823009F44B
:1042D000EF5FF0E02E173F0720F02E1B3F0B8F5FA4
:1042E000ECCF2F5F2A83DF91CF91FF90EF90DF908B
:1042F000CF90BF90AF909F908F900895CF93DF9312
:10430000EC010E94811D28EE33E040E050E00E9465
:10431000982E80910A0690910B06A0910C06B09100
:104320000D06BA01A901480F591F6A1F7B1FCE0154
:104330000E940621CE01DF91CF910895803D27E0B4
:10434000920710F0805D974050E0E6ECF2E021E04B
:10435000261730F43491430F511D2F5F3196F8CF5B
:10436000633038F09C0123703327232B11F44F5F07
:104370005F4FBC016D5F7F4F76956795769567952A
:10438000EDE6F1E08E9F90018F9F300D9E9F300DE6
:104390001124C9010197860F971F840F951F089557
:1043A000EF92FF920F931F93CF93DF93EC018881DD
:1043B0004A81698190E00E949E219C01A8E1B0E0C1
:1043C0000E94752E2B817B018C01E20EF11C011DD8
:1043D000111DA8019701ACE3B0E00E94332E2C819F
:1043E0007B018C01E20EF11C011D111DA80197013A
:1043F0000E94332E2D81DC01CB01820F911DA11D66
:10440000B11DBC01CD0160587C4B8249974CDF91B6
:10441000CF911F910F91FF90EF9008950F931F93ED
:10442000CF93DF9300D0CDB7DEB78B01FB01608166
:104430009A838983CE0101960E94ED01C8010F90F5
:104440000F90DF91CF911F910F910895EF92FF92FE
:104450000F931F93CF93DF9308E313E0C0E0D0E006
:10446000CE010E941D2EF80181938F012196C73045
:10447000D105B1F765E373E08AE090E00E94F22095
:1044800064E373E088E290E00E94732063E373E0EA
:1044900082E390E00E94732062E373E084E390E0A3
:1044A0000E9473206FE273E086E390E00E94F220A6
:1044B00067E373E08CE390E00E94732061E373E0B4
:1044C0008EE390E00E9473206EE273E08AE490E055
:1044D0000E9473206DE273E08CE490E00E947320F0
:1044E0006FE373E08EE490E00E94F2206FE776E0E5
:1044F0008AE590E00E94F22061E876E084E690E0B0
:104500000E94F2206DE776E08EE690E00E94F220B5
:104510006CE776E088EC90E00E947320CEE6D6E06F
:1045200000E616E08CE7E82E86E0F82EBE018CED62
:1045300090E00E94F220B80180EF90E00E94F2200B
:1045400022960E5F1F4FEC16FD0681F7DF91CF918B
:104550001F910F91FF90EF9008950F931F93CF93AA
:10456000DF93CDB7DEB729970FB6F894DEBF0FBE45
:10457000CDBF85E295E00E94822000E010E08091AE
:1045800034059091350523E0880F991F2A95E1F7AE
:10459000081719073CF460E0C8010E94C50D0F5FC1
:1045A0001F4FEDCF04E012E460E0C8010E94C50D8A
:1045B0000F5F1F4F0C3C8BE51807B1F700E010E0D0
:1045C0001A83098360E0CE0101960E94ED010F5F1E
:1045D0001F4F011582E0180799F787E0E3E2F3E047
:1045E000DE01119601900D928A95E1F7CE010196B8
:1045F0000E94D90F82E0809335038093360365E3F0
:1046000073E08AE090E00E94CB2011E01887BE01A1
:10461000685F7F4F88E290E00E940E221987BE01FA
:10462000675F7F4F8CE390E00E940E2210922D0373
:104630006DE273E08CE490E00E940E2282E090E054
:104640009093400380933F036FE373E08EE490E028
:104650000E94CB2009E110E01093800600937F06B2
:104660006FE776E08AE590E00E94CB201093820607
:104670000093810661E876E084E690E00E94CB201A
:1046800010937E0600937D066DE776E08EE690E05F
:104690000E94CB200E94BD0D61E08EE290E00E945E
:1046A000252E9EE088E10FB6F894A89580936000CF
:1046B0000FBE9093600060ED77E080E090E00E9494
:1046C000471D29960FB6F894DEBF0FBECDBFDF9110
:1046D000CF911F910F910895FF920F931F93CF9346
:1046E000DF93CDB7DEB72C970FB6F894DEBF0FBEC1
:1046F000CDBF8C01F62ECE0107960E947E218F81C0
:10470000898388858A8389858B838A858C838B8539
:104710008D838C858E83AE014F5F5F4F6F2DC801F7
:104720000E948119BE016F5F7F4F80E590E00E947B
:10473000F22089819A810E948D1020917F0630910C
:10474000800689819A818217930721F080915F0604
:104750008823C9F080917D0690917E06820F931F79
:10476000843F21E092072CF49093800680937F068B
:1047700004C01092800610927F066FE776E08AE50B
:1047800090E00E94CB202C960FB6F894DEBF0FBEAF
:10479000CDBFDF91CF911F910F91FF9008951F9290
:1047A0000F920FB60F9211242F933F938F939F93E5
:1047B000AF93BF938091ED059091EE05A091EF0529
:1047C000B091F0053091830623E0230F2D3720F4BC
:1047D0000196A11DB11D05C026E8230F0296A11D5B
:1047E000B11D209383068093ED059093EE05A09371
:1047F000EF05B093F0058091F1059091F205A0913D
:10480000F305B091F4050196A11DB11D8093F1054A
:104810009093F205A093F305B093F405BF91AF9187
:104820009F918F913F912F910F900FBE0F901F90EE
:104830001895CF93DF93CDB7DEB7E2970FB6F89414
:10484000DEBF0FBECDBF789484B5826084BD84B5D1
:10485000816084BD85B5826085BD85B5816085BD7B
:1048600080916E00816080936E0010928100809133
:1048700081008260809381008091810081608093BB
:104880008100809180008160809380008091910000
:10489000826080939100809191008160809391006B
:1048A000809190008160809390008091C10084602D
:1048B0008093C1008091C10082608093C10080918B
:1048C000C10081608093C1008091C30081608093AA
:1048D000C3008091C00082608093C0008091C200BC
:1048E00081608093C20080917A00846080937A0016
:1048F00080917A00826080937A0080917A00816052
:1049000080937A0080917A00806880937A00109278
:10491000FA0510922B0310922A038091D700816030
:104920008093D70080EA8093D80089B5806189BDE3
:1049300089B5826089BD09B400FEFDCF61E070E0F9
:1049400080E090E00E94471D8091D8008F7C8061BC
:104950008093D8008091E000807F8093E000809178
:10496000E1008E7E8093E1008DE08093E200559A15
:10497000209A87EF84BF0FB6F894A89580916000C5
:10498000886180936000109260000FBE60E08EE04E
:104990000E940B1D61E080E10E940B1D62E085E139
:1049A0000E940B1D48EC50E065E070E085E295E068
:1049B0000E9487208EE290E00E941D2E81110FC080
:1049C00061E080E10E94DC1C64EF71E080E090E037
:1049D0000E94471D60E080E10E94DC1C05C060E091
:1049E0008EE290E00E94252E85E295E00E948220D2
:1049F0008FEF9FEF9093B5048093B40468EE73E05B
:104A000080E090E00E94471D68EE73E080E090E057
:104A10000E94471D10929403109293031092DD039D
:104A20001092FE031092DB0381E08093DA03109270
:104A3000B50361E082E00E94DC1C61E083E00E943B
:104A4000DC1C8091B9008E7F8093B9008091B90001
:104A50008D7F8093B90088E48093B80085E48093CB
:104A6000BC0086E998E19093F6058093F50587E907
:104A700098E19093F8058093F70560E47FE180E08A
:104A800090E00E94471D81E090E00E941D2E8F3F24
:104A900011F40E94AD220E942622A0913F03B09102
:104AA00040031A161B0674F420E437E74BE150E08C
:104AB0000E94C72E60930001709301018093020150
:104AC00090930301E0911B04F0911C0482E0808329
:104AD000E0911704F09118041082E0911904F0910C
:104AE0001A0480E1808310922304E0911F04F09166
:104AF000200486E08083E0911D04F0911E048081F3
:104B000080618083E0911D04F0911E0480818860A3
:104B10008083E0911D04F0911E0480818068808371
:104B2000E0911D04F0911E0480818F7D808368E8F0
:104B300073E180E090E00E94471D8E010F5F1F4FE0
:104B40004801C8010E949B10C8010E94E11468EE50
:104B500070E08BE094E00E94B41768EE73E080E0B0
:104B600090E00E94471DC8010E949B10C8010E944E
:104B7000E1146CED70E08BE094E00E94B41768EEF5
:104B800073E080E090E00E94471DC8010E949B10E6
:104B9000C8010E94E11460ED70E08BE094E00E9497
:104BA000B41764EF71E080E090E00E94471DC801F7
:104BB0000E949B10C8010E94E1140E940E1E6AEC24
:104BC00070E08BE094E00E94B417C8010E949B1033
:104BD000C8010E94E11460ED77E080E090E00E945F
:104BE000471D64E170E080EE95E00E944214C80128
:104BF0000E94F01EB80180EE95E00E940814C801E2
:104C00000E94E1140E94B21E48EC50E065E070E0A2
:104C100085E295E00E9487200E94AF10662463948D
:104C20008BE094E00E942513181619060CF071C051
:104C30008091420581116DC08BE094E00E940313C6
:104C4000782E80914403882309F4F1C00E94811DCD
:104C50005B016C012BA53CA54DA55EA56FA578A9B0
:104C600089A99AA928513C4F4F4F5F4F6F4F7F4FF3
:104C70008F4F9F4F19012A01B62FA72FF82FE92F29
:104C80009501A60160E070E080E090E051016201D2
:104C9000EB2EFA2E0F2F1E2F0E94CF2E19F010F0A0
:104CA00081E2782E8091DF05E09143038711AFC048
:104CB000F0E0EA5CFA4F108A10924403109243032A
:104CC00026E435E030934505209344056092420583
:104CD00042E350E061E070E085E295E00E948720C9
:104CE0008091420581111092420580914405909176
:104CF000450598A38F8F0E94201BAF8DB8A1FD01A1
:104D000001900020E9F73197EA1BFB0B349708F07C
:104D1000A3C080913303882309F467C088EE93E031
:104D20000E94AE1D80914D03811111C08091F80445
:104D30000E94B31C21E0892B09F420E08091340308
:104D4000821381C280912C0381117DC252C084E6FE
:104D500090E00E94AE1DA0912F03B0913003C0904F
:104D60004903D0904A03E0904B03F0904C0328EEA7
:104D700033E00E94C02E6093FC047093FD04809386
:104D8000FE049093FF04672B682B692B09F41EC364
:104D90000E94811D8B019C010C191D092E093F09E0
:104DA000680179010091FC041091FD042091FE043A
:104DB0003091FF04C016D106E206F30608F406C3DC
:104DC0006093030570930405809305059093060591
:104DD0001092480310924D0380913203882349F0CA
:104DE00087E095E00E947D2004C080E49FE10E945E
:104DF000AE1D1BE388EA94E00E948A1F20918E0377
:104E0000181619060CF012C3211110C3E4C2AE2FFC
:104E1000B0E0AA5CBA4F50967C92EF5FEE3618F481
:104E2000E0934303FDCE1DE610934303F9CE80913A
:104E3000DC05781649F08091DD05781649F08091FF
:104E4000DE057812EDCE04C031E23093DF05BAC141
:104E50004DE04093DF05B6C111968C918E3409F474
:104E600058CFCE014F960E94561A8BE591E00E94D2
:104E7000511A6091090688EA94E00E94691F88EA45
:104E800094E00E94ED1784E691E00E94511A80910F
:104E90000706909108060E94201B8FE691E00E9471
:104EA000511A80910506909106060E94201B88E702
:104EB00091E00E94511A80910306909104060E948D
:104EC000201B84E891E00E94511A80910106909184
:104ED00002060E94201B8DE891E00E94511A8091E9
:104EE000FF05909100060E94201B87E991E00E9437
:104EF000511A8091FD059091FE050E94201B809122
:104F000009068B3409F4A7C03CF4833409F450C07B
:104F1000893409F44DC0FDCE813589F1843509F01D
:104F2000F8CE0E94D5018130C1F018F08230E1F056
:104F3000F0CE0E94C501882309F4EBCE0E949501B2
:104F4000682F70E06115710509F4E3CE80910706C2
:104F5000909108060E94EF02DCCE0E94C5018823D2
:104F600019F00E947003D5CE609107067091080673
:104F700080910506909106060E940602CACE6091B5
:104F8000070670910806C4010E94EF146091410366
:104F900070914203CE0143960E94BB11B401CE0131
:104FA00043960E94D310CE0143960E94E114F5C0AF
:104FB0000E94D501813019F0823099F029C090917A
:104FC0004D03992319F08093480322C08091320346
:104FD000823058F460910706709108068CE292E0E6
:104FE00015C080913203823038F0609107067091CD
:104FF000080682EA91E00AC080910401823050F3F1
:10500000609107067091080686EA91E00E94060208
:1050100010923805109237058BE094E00E9425131A
:10502000892B09F0AEC08091370590913805803EFC
:105030009E420CF0A6C06DE070E080E090E00E941F
:10504000471D80913705909138050196909338055A
:1050500080933705E1CF80910706909108060E9462
:10506000A12D8C014497449708F09BC08091FF05C7
:10507000909100060E94A12D182F80910106909119
:1050800002060E94A12DF82E80910306909104063D
:105090000E94A12DE82E80910506909106060E949F
:1050A000A12D09838A83EB82FC821D831E82C401A9
:1050B0000E948D1D809136058135A1F4CE01439665
:1050C0000E947E21CE0143960E94D021AB01BC01FB
:1050D0004054584361097109C4010E940621C4016A
:1050E0000E948D1D66E080E090E00E946C2380911C
:1050F0002D038823B1F1209146033091470380911D
:105100003F0390914003820F931F90934703809336
:105110004603489734F1109247031092460361E02A
:1051200070E0CE0149960E94BB116AEA71E0C401A9
:105130000E94EF14BE01675E7F4FCE0143960E942E
:10514000E614B401CE0143960E94D310CE014396DB
:105150000E94E114C4010E94E114CE0149960E940C
:10516000E11480913F0390914003181619060CF04A
:10517000D0CD0E94811D61327F4B82409105A0F508
:10518000C8CD8BE094E00E942513892B09F044C020
:1051900067E173E0C4010E94EF14C4010E94E114AE
:1051A000B8CD68E873E180E090E00E94471D8091EF
:1051B00045038F5F80934503823008F0AACD0E949B
:1051C000AF10A7CD0E94811D7B018C0120E030E053
:1051D000A9016BA7FCA60DA71EA72FA738AB49AB4B
:1051E0005AAB609244031CCD809136058135C1F4E1
:1051F0006BE071E08BE094E00E94B41768E873E123
:1052000080E090E00E94471D6FEF70E08BE094E03B
:105210000E94B4170E940E1EC4010E949B10BDCFB5
:1052200064EF70E08BE094E00E94B41760E87EE3E6
:1052300080E090E00E94471DC4010E949B10C401C1
:105240000E94E114E7CF60924D030E94811D60939C
:10525000490370934A0380934B0390934C038091CE
:105260003203882321F087E095E00E94822080911C
:1052700032038430C8F46EEA71E0CE0185960E9454
:10528000EF14198280912C03882309F448C069EB3C
:1052900071E0C4010E94F430609107067091080625
:1052A000C4010E94E0303BC0F12C08EE13E0B801CD
:1052B000CE0149960E94BB11CE0149960E94C80FAB
:1052C000811122C021E02F1530F468E873E180E0FD
:1052D00090E00E94471D64EB71E0C4010E94EF144E
:1052E000BE01675E7F4FCE0143960E94E614B40173
:1052F000CE0143960E94D310CE0143960E94E11442
:10530000C4010E94E114F394CE0149960E94E11475
:105310000F5F1F4F0E3E33E0130749F6ACCFF12C61
:1053200001E010E0B801CE014F960E94BB11CE0102
:105330004F960E94C80F811131C041E04F1530F4E3
:1053400068E873E180E090E00E94471D80912C03A3
:10535000882331F0B401CE0149960E94EF1407C0B2
:10536000BE016B5D7F4FCE0149960E94E614BE01DF
:10537000615E7F4FCE0143960E94E614BE01675ED8
:105380007F4FCE0143960E94D310CE0143960E94D8
:10539000E114CE0149960E94E114F394CE014F9698
:1053A0000E94E1140F5F1F4F0630110509F0BACFBC
:1053B000CE0185960E94E11410922C0364E0809146
:1053C0000706909108060E946C2313CD8091480334
:1053D0008111FECC0ECD88EA94E00E945520909178
:1053E0004F039923E9F0E0914E038E3371F0AE2F15
:1053F000B0E0AE5ABC4F8C93EF5FEC3318F4E093FF
:105400004E03F8CC10934E03F5CCF0E0EE5AFC4F6F
:10541000108210924F0310924E0360928E03EACCDA
:105420008C3309F0E7CC60924F03E4CC222309F4DB
:105430006BC282E593E098A38F8FCE014F960E94B6
:10544000561AE0910706F09108068081843409F429
:1054500056C0CCF48134C9F13CF4833209F414C150
:10546000853209F475C14EC2823409F445C08334D3
:1054700009F048C240E061E480910306909104067F
:105480000E94750F3FC2803509F4EAC074F4853478
:10549000E9F1863409F036C264E071E080910306D8
:1054A000909104060E94F00EE9C0843509F4B8C05A
:1054B0008A3509F412C2833509F024C285E295E0E9
:1054C0000E94822001E010E07AC08091FF05909157
:1054D00000060E94A12D482F65E48091030690915B
:1054E00004060E94750F44E150E061E070E085E23F
:1054F00095E00E94872006C20E94AD2203C28091DF
:105500000306909104060E94201AFCC185E295E0F2
:105510000E9482201A8E198EBE01675E7F4F80E541
:1055200090E00E94F22004EF11E0898D9A8D892B82
:1055300021F424EF31E03A8F298F898D9A8D9C01D7
:10554000215031093A8F298F8D5E9A4F3DE0389F67
:105550007001399FF00C112467E173E0CE0143968E
:105560000E94EF14C12CD12CC7018C0D9D1D0E94EF
:10557000370EA601682FC4010E943411B401CE0178
:1055800043960E940210C4010E94E1144FEFC41A16
:10559000D40A5DE0C516D10439F7BE016D5E7F4FB8
:1055A00088EA94E00E94F117CE0143960E94E1142C
:1055B0000150110909F0B9CF8BE191E02AC0B8017F
:1055C000CE0143960E94BB11CE0143960E94C80FA4
:1055D00081110CC0B801C4010E94BB11B40188EA5A
:1055E00094E00E94F117C4010E94E11405301105F6
:1055F00021F489E191E00E940910CE0143960E94B6
:10560000E1140F5F1F4F093E83E01807C1F687E1E1
:1056100091E00E94091085E295E00E947D2072C110
:105620000E94BD0D8EEB91E00E94201B8BE090E06C
:105630000E948D1088EA94E00E94ED17C4010E9438
:10564000F01EB40180EE95E00E940814C4010E948F
:10565000E11460EE75E088EA94E00E94F11752C10F
:1056600046E050E068E373E0809103069091040601
:105670000E94FB30892B29F481E090E00E948D107C
:1056800041C180E090E0FACF0E9426226091510350
:1056900070E080E090E04AE00E941A1080913703A9
:1056A00090E00E945D106091350370E080E090E032
:1056B0004AE00E941A106091360370E080E090E0AA
:1056C0004AE00E941A108091340390E00E945D101D
:1056D0008091330390E00E945D106091320370E08E
:1056E00080E090E04AE00E941A108091310390E03F
:1056F0000E945D108091500390E00E945D108091A7
:1057000030038F9380912F038F930AEC11E01F9346
:105710000F939F928F920E941831C4010E94511AD8
:1057200080912E031F928F931F930F939F928F92BE
:105730000E941831C4010E94511A80912D0390E0FB
:105740000E948D100FB6F894DEBF0FBECDBFDAC039
:10575000E0910306F0910406808180538093510309
:1057600061E573E086E490E00E940E22E09103067A
:10577000F091040681E09181903309F480E08093F8
:10578000370367E373E08CE390E00E940E22E09120
:105790000306F09104068281805380933503838150
:1057A00080538093360365E373E08AE090E00E94C3
:1057B000CB20E0910306F091040681E094819033C0
:1057C00009F480E08093340364E373E088E290E0BE
:1057D0000E940E22E0910306F091040681E095817B
:1057E000903309F480E08093330363E373E082E352
:1057F00090E00E940E22E0910306F091040686815B
:1058000080538093320362E373E084E390E00E946C
:105810000E22E0910306F091040681E09781903317
:1058200009F480E08093310361E373E08EE390E05C
:105830000E940E22E0910306F091040681E090851B
:10584000903309F480E08093500360E573E088E4CE
:1058500090E00E940E22E0910306F09104068185FB
:105860009285A38589839A83AB831C82C4010E949D
:10587000A12D9093300380932F036FE273E086E3B2
:1058800090E00E94CB20E0910306F091040684850D
:105890009585A68589839A83AB831C82C4010E9467
:1058A000A12D80932E036EE273E08AE490E00E94C3
:1058B0000E22E0910306F091040681E09785903373
:1058C00009F480E080932D036DE273E08CE490E0B6
:1058D0000E940E220E94262215C01C8A1B8A1A8250
:1058E0001982B401CE0143960E94ED198B899C89DF
:1058F0000E948D1089819A810E948D1088EA94E01F
:105900000E94ED1710928E0385E10E94B31C9C014A
:1059100091E02115310509F490E090939103809175
:1059200090039817C9F0232B89F410918F031F5F00
:1059300010938F0340ED57E061E070E085E295E061
:105940000E948720153011F40E94AD2262E370E0BE
:1059500080E090E00E94471D809191038093900326
:105960000E94811D6B017C018091000190910101D9
:10597000A0910201B0910301C816D906EA06FB0600
:1059800001F54CE251E064E070E085E295E00E94B0
:105990008720A0913F03B091400320E437E74BE11B
:1059A00050E00E94C72EC60ED71EE81EF91EC092F8
:1059B0000001D0920101E0920201F09203010E94E5
:1059C000AF100E94CA132CC9CF93DF93EFEFF3E01F
:1059D0001382128288EE93E0A0E0B0E08483958386
:1059E000A683B78322E231E031832083EBE0F4E049
:1059F0001382128284839583A683B78324E331E0E4
:105A0000318320832DEC30E0358724872CEC30E087
:105A10003787268728EC30E0318B208B29EC30E06B
:105A2000338B228B2AEC30E0358B248B2EEC30E04C
:105A3000378B268B118E128E138E148EE8EAF4E0CB
:105A40001382128284839583A683B78386E491E0D0
:105A5000918380838FEF9FEF9587848767E173E061
:105A600080EE95E00E94EF14C6E3D5E01C821B8215
:105A700067E173E08BE395E00E94EF141B861C86C0
:105A80001D861F861E868DE48093DC058CE4809342
:105A9000DD0593E59093DE0591E29093DF05888321
:105AA00088EE93E09093350580933405E5E2F5E0C8
:105AB00012821286138614861586168684E090E07C
:105AC00091838083C1E0C38361E00E940B1DE6E106
:105AD000F5E012821286138614861586168689E0F2
