:100000000C9420020C9448020C9448020C94480270
:100010000C9448020C9448020C9448020C94480238
:100020000C9448020C9448020C9470230C94DF2327
:100030000C9448020C9448020C9448020C94480218
:100040000C9448020C9448020C9448020C94480208
:100050000C9448020C9448020C9448020C942623F9
:100060000C9448020C9437260C9411260C944802E8
:100070000C9448020C9448020C9448020C944802D8
:100080000C9448020C9448020C9448020C944802C8
:100090000C9407220C9448020C9448020C944802D9
:1000A0000C9448020C9448020C94480241542B438F
:1000B0004855500D0A0041542B4353510D0A003B43
:1000C00026570D0A0041542A42414E443D004154F6
:1000D0002B48545450504152413D225553455244AF
:1000E000415441222C22417574686F72697A61749F
:1000F000696F6E3A20426173696320596D6C766254
:10010000477868646D56415A32316861577775593E
:100110003239744F6D466B62556C754F4455682289
:100120000D0A0041542B48545450504152413D2235
:10013000434944222C310D0A0041542B4854545059
:1001400053534C3D310D0A0041542B4854545049EF
:100150004E49540D0A0041542B53415042523D32F6
:100160002C310D0A0041542B53415042523D312C49
:10017000310D0A0041542B53415042523D332C3132
:100180002C2241504E222C22696E7465726E657469
:100190002E6469676974656C2E7665220D0A0041CC
:1001A000542B53415042523D332C312C22434F4E5D
:1001B00054595045222C2247505253220D0A002CEC
:1001C0003130303030300D0A0041542B48545450F7
:1001D000444154413D0041542B48545450414354F0
:1001E000494F4E3D310D0A0041542B53415042526C
:1001F0003D302C310D0A0041542B48545450544585
:10020000524D0D0A007B226576656E7473223A5B4F
:10021000001F1C1F1E1F1E1F1F1E1F1E1F080B005E
:10022000020202000009040000010202000005248D
:100230000010010524010101042402060524060022
:10024000010705810310004009040100020A0000B3
:100250000007050202400000070583024000000479
:1002600003090412010002EF0201404F1B06920035
:100270000101020301537061726B46756E00537089
:1002800061726B46756E2050726F204D6963726F9C
:100290000061742B717572636366673D22757263CA
:1002A000706F7274222C227561727431220D0A00F3
:1002B00041542B434E4D493D312C322C302C302CA7
:1002C000300D0A0041542B434C49503D310D0A007A
:1002D00041542B434D47463D310D0A0041542B43B9
:1002E0005245473D310D0A0041542B4346554E3D82
:1002F000310D0A0041542B4346554E3D300D0A0046
:1003000041542B43545A523D310D0A0041542B4362
:10031000545A553D310D0A0041542B43474552452F
:10032000503D300D0A00415445300D0A0041542B18
:100330004950523D31393230300D0A004154480D98
:100340000A00415444303B0D0A0041542A42414EB8
:10035000443F0D0A00450045004500000000002410
:100360000027002A002D0030000000000025002892
:10037000002B002E00310000000000230026002981
:10038000002C002F000404040404030405020202EC
:10039000020403020202020606060606060404021E
:1003A0000202040404080201104080401020408032
:1003B00040800802040180402010020110801020BB
:1003C0004040200000000200090F0000030401006B
:1003D0000C00000000000000000000000000000011
:1003E00000220D0A002F6C697374002F6170692F51
:1003F00076312F0068747470733A2F2F006874740C
:10040000703A2F2F0041542B4854545050415241C0
:100410003D2255524C222C220041542B4347534E2F
:100420000D0A00220D0041542B434D47533D22003D
:1004300041542B43434C4B3F0D0A00006926FB2FD0
:1004400011241FBECFEFDAE0DEBFCDBF26E0AEEE57
:10045000B2E001C01D92A732B207E1F712E0A0E0BE
:10046000B1E0ECE7FCE602C005900D92AE3EB107AC
:10047000D9F712E0CFE1D2E004C02197FE010E943B
:100480004B31CE31D107C9F70E941E270C9431366B
:100490000C9400008091D0039091D103891B990B9B
:1004A0000895FC018091C003882311F13FB7F894AF
:1004B00082E08093E9002091F200822F90E01816EC
:1004C000190614F481E090E0882339F0289844E676
:1004D0004093BF034091F1004083222339F02091E3
:1004E000F200211103C02BE62093E8003FBF0895DE
:1004F0008FEF9FEF08952FB7F89483E08093E90082
:100500009091E800892F807295FF04C09091F200CD
:1005100080E4891B2FBF089520919A03260F33276B
:10052000331F21323105ECF420911804FC0190E0D6
:1005300080E0243069F082E00895A0919A0321912F
:10054000AC0148585C4FA40FB52FB11D2C930196F8
:10055000861798F380919A03680F60939A0380E05E
:10056000089581E00895089508950895E091D103D4
:100570008091D003E81730F4F0E0EE52FC4F808118
:1005800090E008958FEF9FEF08959091D1038091AF
:10059000D0032FEF3FEF981748F4E92FF0E0EE5229
:1005A000FC4F208130E09F5F9093D103C9010895F3
:1005B000CF92DF92EF92FF920F931F93CF93DF932F
:1005C0007C01CB018A0120911E04222389F0EB01DA
:1005D0006B01C40ED51ECC15DD0569F06991D701FC
:1005E000ED91FC910190F081E02DC7010995F3CFC9
:1005F000642F0E948C02C801DF91CF911F910F914F
:10060000FF90EF90DF90CF900895CF93DF931F92EC
:10061000CDB7DEB7698320911E042223F9F0209123
:100620004104203258F021E030E0FC013383228382
:1006300090E080E00F90DF91CF91089580911F04AA
:10064000E82FF0E0E05EFB4F998190838F5F80930D
:100650001F048093410481E090E0ECCF61E0CE0183
:1006600001960E948C02F7CF682F82E494E00C94EC
:10067000050380916F0381110DC082E080936B03AD
:1006800084E080936C0310926E0310926D0381E0FE
:1006900080936F038BE693E0089581508F3008F0CC
:1006A00047C0E82FF0E0E95AFC4F0C944B3174033B
:1006B000780366036C0370039803980398037B0325
:1006C0008103850389038F0398039303809180003E
:1006D0008F77809380000895809180008F7DF9CF7F
:1006E00080918000877FF5CF84B58F7784BD089592
:1006F00084B58F7DFBCF809190008F7780939000A1
:100700000895809190008F7DF9CF80919000877F30
:10071000F5CF8091C0008F778093C00008958091BD
:10072000C0008F7DF9CF8091C200877F8093C20087
:100730000895CF93DF93282F30E0F901ED53FC4F5C
:100740008491F901EC55FC4FD491F901EB57FC4F22
:10075000C491CC23A1F081110E944D03EC2FF0E055
:10076000EE0FFF1FE958FC4FA591B491EC91ED23DA
:1007700081E090E009F480E0DF91CF91089580E07E
:1007800090E0FACF1F93CF93DF93282F30E0F90149
:10079000ED53FC4F8491F901EC55FC4FD491F901D4
:1007A000EB57FC4FC491CC23A9F0162F81110E9466
:1007B0004D03EC2FF0E0EE0FFF1FE759FC4FA59122
:1007C000B4918FB7F894EC91111108C0D095DE2345
:1007D000DC938FBFDF91CF911F910895DE2BF8CF6F
:1007E0001092180481E0809317041092F20361E0E4
:1007F00082E00E94C20361E083E00E94C203E9EB51
:10080000F0E080818E7F808380818D7F808388E48B
:100810008093B80085E48093BC000895CF93DF9364
:1008200091E0909377038823B9F0C091B800D091FC
:10083000BA008091BC008A7B8093BC0060E082E0BB
:100840000E94C20360E083E00E94C2030E94F003A2
:10085000D093BA00C093B800DF91CF910895CF93A1
:10086000DF9390E0FC01EC55FC4F24918B579C4F9B
:10087000FC0184918823C9F090E0880F991FFC0146
:10088000E55AFC4FA591B491FC01E759FC4FC59185
:10089000D49161110DC09FB7F8948C91209582235B
:1008A0008C938881282328839FBFDF91CF9108955F
:1008B000623051F49FB7F8943C91822F8095832346
:1008C0008C93E8812E2BEFCF8FB7F894EC912E2BE1
:1008D0002C938FBFEACF3FB7F89480916703909134
:1008E0006803A0916903B0916A0326B5A89B05C06F
:1008F0002F3F19F00196A11DB11D3FBFBA2FA92F9F
:10090000982F8827BC01CD01620F711D811D911D9B
:1009100042E0660F771F881F991F4A95D1F7089507
:100920008F929F92AF92BF92CF92DF92EF92FF92FF
:100930000F931F93CF93DF93D0914104D13208F0EE
:10094000D7C0182FC09140040E946B046B017C013A
:100950008091180481116BC082E080931804109379
:1009600017048FEF8093160410921504D09314048B
:10097000A0E2B4E0E4EFF3E080E0D81391C010927D
:10098000F3038091F303CC0FC82BC093F303809142
:10099000F203813009F088C01092F2030E946B04C8
:1009A0006B017C018091F3038093BB0080911A045A
:1009B00090911B04A0911C04B0911D04892B8A2BDB
:1009C0008B2BA1F00E946B0400911A0410911B0460
:1009D00020911C0430911D046C197D098E099F091A
:1009E000061717072807390708F442C08091BC0092
:1009F00083FDD8CF85EC8093BC000E946B046B0113
:100A00007C0180911804823009F450C08091160452
:100A10008F3F09F46FC080911604803209F46CC0D6
:100A200080911604803309F469C084E026C0809167
:100A30001A0490911B04A0911C04B0911D04892BF1
:100A40008A2B8B2B09F484CF0E946B0480901A04AC
:100A500090901B04A0901C04B0901D046C197D099B
:100A60008E099F0986169706A806B90608F070CF6A
:100A7000809119040E940E0485E010921F041092C8
:100A8000410410921E04DF91CF911F910F91FF90AE
:100A9000EF90DF90CF90BF90AF909F908F90089590
:100AA0009D9191938F5F69CF85EEA5CF80911A04B8
:100AB00090911B04A0911C04B0911D04892B8A2BDA
:100AC0008B2B09F49ECF0E946B0400911A041091A5
:100AD0001B0420911C0430911D046C197D098E09A2
:100AE0009F09061717072807390708F08ACFC0CFD4
:100AF00081E0C3CF80E0C1CF82E0BFCF83E0BDCF34
:100B00008F929F92AF92BF92CF92DF92EF92FF921D
:100B10006B017C010E946B044B015C01C114D10488
:100B2000E104F104B9F00E946B04681979098A099B
:100B30009B09683E73408105910580F321E0C21A4C
:100B4000D108E108F10888EE880E83E0981EA11C08
:100B5000B11CE4CFFF90EF90DF90CF90BF90AF90AB
:100B60009F908F9008951F93CF93DF93EC01162FE2
:100B700081E080931E0480E58093400410921F045E
:100B8000109241048D2F90E00E943403CE019927EA
:100B90000E943403612F82E494E00E94050381E007
:100BA0000E94900464E170E080E090E0DF91CF91DA
:100BB0001F910C9480052FB7F89460916303709196
:100BC000640380916503909166032FBF08950F938E
:100BD0001F93CF93DF93EC01909367058093660595
:100BE0000E94DB05AB01BC0180916B0590916C0507
:100BF000A0916D05B0916E058A019B01081B190B30
:100C00002A0B3B0B8091660590916705B0E0A0E050
:100C1000081719072A073B0758F1809164058111CD
:100C200024C081E080936405C43F81E0D8075CF074
:100C3000CE01845F9140092E000CAA0BBB0B481B10
:100C4000590B6A0B7B0B40936B0550936C056093BB
:100C50006D0570936E056091640580916205DF916A
:100C6000CF911F910F910C94C20310926405EBCFAA
:100C7000DF91CF911F910F91089508954091FD024A
:100C80005091FE022091FB023091FC024217530763
:100C9000B4F49091E8009570E1F39091E80092FD32
:100CA00019C08093F1008091FD029091FE0201969F
:100CB0008F739927892B19F48EEF8093E800809128
:100CC000FD029091FE0201969093FE028093FD0238
:100CD00081E0089580E00895EF92FF920F931F93B3
:100CE000CF93DF93F82E192FE62E042F81E0860F85
:100CF000880F0E943E0683E00E943E06CF2DD12F32
:100D0000EC0EFD2EF11CCE15DF05B9F007FF13C068
:100D1000FE0184910E943E06182F80E00E943E064C
:100D2000812321968111EFCFDF91CF911F910F91F8
:100D3000FF90EF9008958881EDCF81E0F5CFDF92AD
:100D4000EF92FF920F931F93CF93DF93D82E8A01D8
:100D5000EB017B01E40EF51ECE15DF0559F0D7FE41
:100D600012C0FE0184910E943E0621968111F4CFAB
:100D70000FEF1FEFC801DF91CF911F910F91FF90EF
:100D8000EF90DF9008958881EECF0F931F93CF935C
:100D9000DF931F92CDB7DEB782E0898342E450E053
:100DA0006DE172E080E80E949F060E943903DC0139
:100DB00012960D911C910115110589F0D801ED9144
:100DC000FC910280F381E02DBE016F5F7F4FC8016F
:100DD000099597FD04C0F80100851185ECCF898144
:100DE0000F90DF91CF911F910F910895615030F0D6
:100DF0002091F100FC0120830196F8CF289884E629
:100E00008093BF0308950F931F93CF93DF93EC015B
:100E10000E94DB05688779878A879B87E881F9814B
:100E20000284F385E02DCE01099597FF15C00E943D
:100E3000DB05088519852A853B85601B710B820BB4
:100E4000930B0C811D812E813F81601771078207F2
:100E5000930720F38FEF9FEFDF91CF911F910F91B9
:100E60000895DB0114964D915C9115976D917C91DD
:100E7000DC01ED91FC910280F381E02D0994BC012D
:100E80008EE494E00C943107EF92FF920F931F933E
:100E9000CF93DF938C017B01D0E0C0E0F701EC0F32
:100EA000FD1F6491662361F0D801ED91FC910190E2
:100EB000F081E02DC8010995892B11F02196EECF24
:100EC000CE01DF91CF911F910F91FF90EF90089588
:100ED000FF920F931F93CF93DF938C01F62EEA01BD
:100EE00065E074E08EE494E00E9444076DEF73E0E7
:100EF000FF2011F064EF73E08EE494E00E94440759
:100F0000B8018EE494E00E9431076BEE73E08EE44A
:100F100094E00E944407BE018EE494E00E943107F1
:100F200065EE73E08EE494E00E94440761EE73E0A6
:100F30008EE494E0DF91CF911F910F91FF900C947C
:100F40004407AF92BF92CF92DF92EF92FF920F933E
:100F50001F93CF93DF936C017B018B01040F151F4F
:100F6000EB015E01AE18BF08C017D10759F06991B7
:100F7000D601ED91FC910190F081E02DC60109951B
:100F8000892B79F7C501DF91CF911F910F91FF90C8
:100F9000EF90DF90CF90BF90AF90089590E080E009
:100FA0000895FC01538D448D252F30E0842F90E06F
:100FB000821B930B541710F0CF9608950197089554
:100FC000FC01918D828D981761F0A28DAE0FBF2F1D
:100FD000B11D5D968C91928D9F5F9F73928F90E073
:100FE00008958FEF9FEF0895FC01918D828D9817E2
:100FF00031F0828DE80FF11D858D90E008958FEF1F
:101000009FEF0895FC01918D228D892F90E0805CE7
:101010009F4F821B91098F73992708951F93CF9338
:10102000DF93D82FC1E017E28EE494E00E9402081B
:10103000181619066CF580917E05811129C08EE481
:1010400094E00E94E0079091CD039923E1F0909104
:10105000CC03E92FF0E0EF58FA4F8A3061F0E25804
:10106000FF4F80839F5F983218F01093CC03DCCF42
:101070009093CC03D9CF108A1092CD031092CC0359
:10108000C0937E05D1CF8D13CFCFC093CD03CCCFEE
:10109000DF91CF911F9108958EE494E00E940208A1
:1010A00021E0892B09F420E0822F089580E090E070
:1010B000892B29F00E944C0881110C94000008959E
:1010C000FC01A48DA80FB92FB11DA35ABF4F2C91BD
:1010D000848D90E001968F739927848FA689B789B4
:1010E0002C93A089B1898C9182748C93938D848D7B
:1010F000981306C00288F389E02D80818F7D80835C
:101100000895EF92FF920F931F93CF93DF93EC011B
:1011100081E0888F9B8D8C8D981319C0E889F9899F
:10112000808185FF14C09FB7F894EE89FF896083A2
:10113000E889F9898081827480839FBF81E090E093
:10114000DF91CF911F910F91FF90EF900895F62EB0
:101150000B8D10E00F5F1F4F0F731127E02E8C8D4A
:101160008E110CC00FB607FCFACFE889F98980818F
:1011700085FFF5CFCE010E946008F1CFEB8DEC0F1B
:10118000FD2FF11DE35AFF4FF0829FB7F8940B8FAC
:10119000EA89FB8980818062CFCFCF93DF93EC0116
:1011A000888D8823B9F0AA89BB89E889F9898C914F
:1011B00085FD03C0808186FD0DC00FB607FCF7CF0B
:1011C0008C9185FFF2CF808185FFEDCFCE010E940B
:1011D0006008E9CFDF91CF9108958F929F92AF92EF
:1011E000BF92CF92DF92EF92FF920F931F93CF9314
:1011F000DF936C017B018A0180910B01882309F444
:101200005CC08091C003882309F457C0809101031A
:1012100080FF05C08091E00082608093E000E801DB
:10122000B12C8AEFA82E93E0892E2AE3922E2097E4
:1012300011F4BB20D9F10E947B0281110AC0AA944B
:10124000AA20D9F161E070E080E090E00E94800582
:10125000EECF8C171D0611F00CF08C2F9FB7F89471
:101260008092E9002091E80025FD02C09FBFDFCFFA
:10127000282F30E0C21BD30BF701815020F04191A1
:101280004093F100FACFE20EF31EBB2021F09092C2
:10129000E800B12CEBCF8091E80085FDE7CF90927C
:1012A000E800BB24B394209709F3F3CF5D9884E65C
:1012B00080930003101611063CF081E090E0F601E7
:1012C0009383828310E000E0C801DF91CF911F91EA
:1012D0000F91FF90EF90DF90CF90BF90AF909F90D5
:1012E0008F900895CF93DF931F92CDB7DEB76983B8
:1012F000DC01ED91FC910280F381E02D41E050E0B2
:10130000BE016F5F7F4F09950F90DF91CF910895D8
:1013100083E08093E9008091F200882319F08AE34A
:101320008093E80008950E947B0290E00895CF9397
:10133000DF931F92CDB7DEB7FC018485958597FDBD
:1013400008C02FEF3FEF358724870F90DF91CF91B3
:101350000895CE0101960E945102019719F48981E6
:1013600090E0F3CF8FEF9FEFF0CF0F931F93CF93CA
:10137000DF931F92CDB7DEB78C01FC018485958584
:1013800097FF0BC0CE0101960E945102019771F4A4
:10139000898190E0F80195878487F8018485958597
:1013A0000F90DF91CF911F910F9108958FEF9FEFD5
:1013B000F1CFFC018485958597FD0BC09FB7F8940C
:1013C00082E08093E9008091F2009FBF90E0019657
:1013D00008959FB7F89482E08093E9008091F2002D
:1013E0009FBF90E0089560E0FC0180810C94C203EF
:1013F00061E0FC0180810C94C203EF92FF920F9395
:101400001F93CF93DF93EC017D836C835F834E83C7
:101410008B81882339F18B01F12CE12C61E08881EB
:101420000E94C2036E817F8190E080E00E9480056F
:1014300060E088810E94C2036E817F8190E080E03D
:101440000E9480058FEFE81AF80A0E151F0531F784
:1014500060E08881DF91CF911F910F91FF90EF9015
:101460000C94C203DF91CF911F910F91FF90EF90E9
:10147000089548EC50E064E070E082E695E00C945A
:10148000FD0942E350E068E070E082E695E00C94EC
:10149000FD09EF92FF920F931F93CF93DF93EC011F
:1014A00069813881432F50E02A81822F90E0E1E169
:1014B000F2E021E0261730F47491870F911D2F5F21
:1014C0003196F8CF633018F0337009F401966DE669
:1014D00071E0469F9001479F300D569F300D1124BB
:1014E000215031094D5F5F4F569547955695479569
:1014F000240F351F280F391FA8E1B0E00E941A31D0
:101500002B817B018C01E20EF11C011D111DA80134
:101510009701ACE3B0E00E94D8302C817B018C01B4
:10152000E20EF11C011D111DA80197010E94D83087
:101530002D81620F711D811D911D60587C4B824968
:10154000974CDF91CF911F910F91FF90EF900895ED
:10155000CF92DF92EF92FF920E94490A6B017C01C9
:101560000E94DB0528EE33E040E050E00E94293184
:10157000C21AD30AE40AF50AC092F702D092F8021E
:10158000E092F902F092FA02FF90EF90DF90CF9094
:1015900008958F929F92AF92BF92CF92DF92EF9277
:1015A000FF92CF93DF93EC016A017B0180E8C81AB8
:1015B00083E4D80A8DE6E80A88E3F80A8CE3882EEB
:1015C000912CA12CB12CC701B601A50194010E9458
:1015D00029316D83CA01B901A50194010E94293105
:1015E0006C83C701B60120E13EE040E050E00E947C
:1015F0002931CA01B90128E130E040E050E00E9401
:1016000029316B83C701B60120E831E541E050E0A4
:101610000E942931188263E97EEF4881542F53706C
:1016200081E009F080E090E0FC01E359FE4F2E17C5
:101630003F0740F0FB01E81BF90B2E0F3F1F4F5FE8
:101640004883EBCF81E089838981682F6150770BD4
:10165000FB01EF5EFD4FE491511103C0823009F4AC
:10166000EF5FF0E02E173F0720F02E1B3F0B8F5F40
:10167000EACF2F5F2A83DF91CF91FF90EF90DF9029
:10168000CF90BF90AF909F908F900895CF93DF93AE
:10169000EC010E94DB0528EE33E040E050E00E94C0
:1016A00029318091F7029091F802A091F902B0914E
:1016B000FA02BA01A901480F591F6A1F7B1FCE0108
:1016C0000E94C90ACE01DF91CF910895CF92DF9297
:1016D000EF92FF920F931F93CF93DF93EC0181E082
:1016E00080931E0480E58093400410921F041092A2
:1016F00041048D2F90E00E943403CE0199270E946F
:10170000340381E00E9490040E946B046B017C0111
:1017100080911804811163C081E080931804809344
:1017200017049FEF9093160410921504109214045E
:101730008093F3038091F303806A8093F303809195
:10174000F203813009F084C01092F2030E946B040E
:101750006B017C018091F3038093BB0080911A049C
:1017600090911B04A0911C04B0911D04892B8A2B1D
:101770008B2BA1F00E946B0400911A0410911B04A2
:1017800020911C0430911D046C197D098E099F095C
:10179000061717072807390708F442C08091BC00D4
:1017A00083FDD8CF85EC8093BC000E946B046B0155
:1017B0007C0180911804813009F44CC0809115049B
:1017C00081116AC080911504E4EFF3E0A2EDB3E06B
:1017D00090E0981751F121912D939F5FFACF80915E
:1017E0001A0490911B04A0911C04B0911D04892B34
:1017F0008A2B8B2B09F48CCF0E946B0400911A0466
:1018000010911B0420911C0430911D046C197D095A
:101810008E099F09061717072807390708F078CFA0
:10182000809119040E940E0480E01092D1038093ED
:10183000D003882399F182E494E00E94C502DF91ED
:10184000CF911F910F91FF90EF90DF90CF9008956F
:1018500085EEA9CF80911A0490911B04A0911C04DD
:10186000B0911D04892B8A2B8B2B09F4A2CF0E94E7
:101870006B0400911A0410911B0420911C043091F8
:101880001D046C197D098E099F0906171707280783
:10189000390708F08ECFC4CF81E096CF8FEFCFCF3E
:1018A000EF92FF920F931F93CF93DF93E0906F051A
:1018B000F0907005C6E0D0E0853479F0833541F0D2
:1018C000813419F485E0E82EF12CC1E0D0E005C0A8
:1018D000E701219685E0E80EF11C87E08C9F8001EE
:1018E0008D9F100D1124EC16FD06B4F0C80107976A
:1018F000801791076CF40E94660B811109C0C80122
:1019000006978017910724F40E94660B882331F014
:101910002196095F1F4FE7CFD0E0C0E0CE01DF91F5
:10192000CF911F910F91FF90EF900895DF92EF926A
:10193000FF920F931F93CF93DF938C017B01D0E035
:10194000C0E087E0D82E20916F0530917005D29EBF
:10195000C001D39E900D11248C179D078CF0CE01F1
:101960000E94660B882351F0F801CD31D1050CF0AF
:10197000F701808191810196918380832796E3CF3F
:10198000DF91CF911F910F91FF90EF90DF9008951D
:10199000CF92DF92EF92FF920F931F93CF93DF933B
:1019A0007B01009741F18C0182E0C82ED12C82E0AE
:1019B00090E00E945A31EC011882A601B8010E9401
:1019C0003C331A82CE010E940330682FC7010E9467
:1019D000B305209719F0CE010E94F6310E5F1F4F1C
:1019E00082E0C80ED11C8FEFE81AF80A8EE0C81604
:1019F000D104E9F60CC0D0E0C0E060E0C7018C0F74
:101A00009D1F0E94B3052196C630D105B1F7DF9125
:101A1000CF911F910F91FF90EF90DF90CF9008959D
:101A20002F923F924F925F926F927F928F929F92EE
:101A3000AF92BF92CF92DF92EF92FF920F931F93DC
:101A4000CF93DF93582E492E3B01D12CC12CC1E0FE
:101A5000D0E080916F059091700505968C179D07D9
:101A60000CF45CC0E52CF42C560110E000E0302EA4
:101A700082E090E00E945A314C010F5F1F4FA80195
:101A8000440F551FB701C4010E943C33F401128278
:101A9000C5010E94660B282EC4010E94033028163F
:101AA000190671F58114910419F0C4010E94F631F0
:101AB000F2E0EF0EF11C8FEFA81AB80A07301105FB
:101AC000B1F627E02C9FC0012D9F900D11240197A6
:101AD0000E94660BF3018083CE01DF91CF911F91AD
:101AE0000F91FF90EF90DF90CF90BF90AF909F90BD
:101AF0008F907F906F905F904F903F902F900895C0
:101B00008114910419F0C4010E94F631E7E0CE0E71
:101B1000D11CF6E03F16A9F221969BCFD0E0C0E0A1
:101B2000DBCFCF92DF92EF92FF920F931F93CF9371
:101B3000DF931F92CDB7DEB71982BE016F5F7F4F73
:101B40000E94100D7C01019727E0289F6001299FCA
:101B5000D00C112410E000E060E0C8018C0D9D1D48
:101B60000E94B3050F5F1F4F07301105A9F7C7018A
:101B70000F90DF91CF911F910F91FF90EF90DF9029
:101B8000CF9008956CE071E08091C9039091CA03F1
:101B90000E94100D009761F09C0121503109253001
:101BA000310520F0069724F082E0089581E0089541
:101BB00080E00895CF93DF93EC01888199810097AD
:101BC00011F00E94F631198218821D821C821B823C
:101BD0001A82DF91CF910895FC0180819181009755
:101BE00011F00C94F6310895CF92DF92EF92FF92AC
:101BF0000F931F93CF93DF931F92CDB7DEB7498327
:101C0000FC0101900020E9F7AF01FC0141505109AE
:101C10004E175F07B1F02191022E000C330B2053B9
:101C200031092A303105A0F3F12CE12CC7010F90C6
:101C3000DF91CF911F910F91FF90EF90DF90CF90A8
:101C40000895F62E8C01BE016F5F7F4F0E94100D2C
:101C5000892B51F78F2D0E94500C7C011816190604
:101C60001CF7019727E0289F6001299FD00C1124C1
:101C7000B601C8010E94C80C6981C60106960E947F
:101C8000B305D4CFFB0101900020E9F73197AF01F4
:101C9000461B570BDC01ED91FC910280F381E02D96
:101CA00009948F929F92AF92BF92EF92FF920F93FF
:101CB0001F93CF93DF93CDB7DEB7A1970FB6F894FC
:101CC000DEBF0FBECDBF7C01FA01CB0119A22230CD
:101CD00008F42AE08E010F5D1F4F822E912CB12C4B
:101CE000A12CBF01A50194010E942931F901CA016B
:101CF0006A300CF5605DD8016E938D01232B242B87
:101D0000252B79F790E080E0109721F0BD01C70105
:101D10000E94420EA1960FB6F894DEBF0FBECDBF53
:101D2000DF91CF911F910F91FF90EF90BF90AF90F7
:101D30009F908F900895695CDECFCF92DF92EF92F3
:101D4000FF920F931F93CF93DF936B01770FEE08F2
:101D5000FF08F7FE1FC0EC01E881F9810190F081D6
:101D6000E02D6DE209958C0144275527BA014C19E5
:101D70005D096E097F092AE0CE010E94510E800F95
:101D8000911FDF91CF911F910F91FF90EF90DF9006
:101D9000CF9008952AE0B701A601DF91CF911F915E
:101DA0000F91FF90EF90DF90CF900C94510E60E573
:101DB00071E00C94420ECF93DF93BC018BEE94E064
:101DC0000E944407EC018BEE94E00E94D70E8C0F2A
:101DD0009D1FDF91CF910895CF93DF93D0E0C0E0B6
:101DE000009731F0BC018BEE94E00E94420EEC01B2
:101DF0008BEE94E00E94D70E8C0F9D1FDF91CF9148
:101E00000895CF93DF93BC018BEE94E00E949D0E6A
:101E1000EC018BEE94E00E94D70E8C0F9D1FDF919A
:101E2000CF9108950F931F93CF93DF93EC010E94FE
:101E300031078C01CE010E94D70E800F911FDF91D8
:101E4000CF911F910F910895FC0124813581232B9F
:101E500049F064E872E0808191810E94633321E05F
:101E6000892B09F020E0822F0895AF92BF92CF9284
:101E7000DF92EF92FF920F931F93CF93DF93109215
:101E8000CA031092C9031092C8031092C70310929C
:101E9000C6031092C5031092C4031092C30310929C
:101EA000C2031092C103DC01ED91FC9190819093EB
:101EB000CB0380917105813539F4943511F1913559
:101EC00029F1993449F41BC08C34B9F49435E1F00C
:101ED0009135E1F09934D1F0892F8B7F813579F0FC
:101EE0009B3469F0DF91CF911F910F91FF90EF909C
:101EF000DF90CF90BF90AF900895943511F7C0E078
:101F000001C0C7E013E004C0C8E0FCCFC0E012E0AD
:101F100068E772E0CF010E944F3000E0D0E07E0120
:101F2000B4E0EB0EF11C6E0125E0C20ED11C5E0187
:101F3000A6E0AA0EB11C27960097A1F20F5F01132D
:101F400004C09093CA038093C903202F30E02E155C
:101F50003F0521F49093C8038093C7032C153D05DA
:101F600021F49093C6038093C5032A153B0521F401
:101F70009093C4038093C3032C173D0721F49093DF
:101F8000C2038093C10363E571E090E080E00E94AA
:101F90004F30D2CF85ED8093BC0080911A04909190
:101FA0001B04A0911C04B0911D040796A11DB11D36
:101FB00023E0B695A795979587952A95D1F7209117
:101FC000BC0024FD03C010921804089540911A0427
:101FD00050911B0460911C0470911D04452B462BED
:101FE000472B69F30097A105B10541F025E32A9538
:101FF000F1F700000197A109B109E1CF809119041F
:102000000C940E0446E050E069E173E08091C70350
:102010009091C8030E94733321E0892B09F020E0DE
:10202000822F08950F931F93CF93DF938C01EB01C1
:10203000FC01808191810097E1F0688179816115CF
:102040007105A9F0428153812C813D8142175307CC
:1020500070F00E946C338C819D81F801958384839C
:102060001D821C82DF91CF911F910F9108950E94D4
:10207000F63188819981F801918380838A819B81DF
:10208000938382838C819D819583848319821882B6
:102090001B821A82E5CF0F931F93CF93DF93EC013E
:1020A00088819981009759F02A813B81261737074B
:1020B00030F081E0DF91CF911F910F9108958B0156
:1020C0006F5F7F4F0E947F32009759F0998388831A
:1020D0001B830A832C813D81232B59F7FC0110823D
:1020E000E8CF80E0E7CFEF92FF920F931F93CF935B
:1020F000DF936115710541F480E0DF91CF911F916D
:102100000F91FF90EF90089541155105B1F07B01BB
:10211000EC010C811D81040F151FB8010E944B10AA
:10212000882351F3288139818C819D81B701820FE9
:10213000931F0E946C331D830C8381E0DECFEF92EE
:10214000FF920F931F93CF93DF93EC017B018A01E2
:10215000BA010E944B1081110BC0CE010E94DA0D12
:10216000CE01DF91CF911F910F91FF90EF900895D5
:102170001D830C83B701888199810E946C33F0CF55
:10218000EF92FF920F931F93CF93DF93CDB7DEB7FC
:1021900029970FB6F894DEBF0FBECDBF8C01862FF6
:1021A000F8011182108213821282158214824AE091
:1021B0009E012F5F3F4F7901B90190E00E94983056
:1021C000F70101900020E9F73197AF014E195F093F
:1021D000B701C8010E949F1029960FB6F894DEBF80
:1021E0000FBECDBFDF91CF911F910F91FF90EF9068
:1021F0000895CF93DF93EC01FB018617970749F011
:10220000608171816115710541F0448155810E94A1
:102210009F10CE01DF91CF9108950E94DA0DF9CF82
:10222000FC011182108213821282158214820C9496
:10223000F910FC011182108213821282158214821D
:102240006115710551F0FB0101900020E9F731970C
:10225000AF01461B570B0C949F100895EF92FF920D
:102260000F931F93CF93DF93EC017B0168E772E03C
:102270008FEE95E00E944F3010E000E00097C1F033
:102280000F5F1F4F0E151F0561F4BC01CE010E94A8
:102290001911CE01DF91CF911F910F91FF90EF9017
:1022A00008956CE571E090E080E00E944F30E6CF49
:1022B00062E571E0EBCFAF92BF92CF92DF92EF92E7
:1022C000FF920F931F93CF93DF937C016B015A0111
:1022D00089012417350720F48B2D5901042F182F5D
:1022E00062E571E0C7010E941911D6011496CD91E3
:1022F000DC91AC16BD0620F50C171D0708F4E801AB
:10230000D601ED91FC911197EC0FFD1F1081108209
:102310006D917C916A0D7B1D61157105E9F0FB01E2
:1023200001900020E9F73197AF01461B570BC70119
:102330000E949F10F60180819181C80FD91F1883D8
:10234000C701DF91CF911F910F91FF90EF90DF9028
:10235000CF90BF90AF900895C7010E94DA0DEACFE9
:10236000EF92FF920F931F93CF93DF9300D0CDB7DF
:10237000DEB78C017B0162E571E00E941911C70193
:102380000E94030797FD0BC089831A8241E050E049
:10239000BE016F5F7F4FC8010E947310F0CFC8016C
:1023A0000F900F90DF91CF911F910F91FF90EF90C1
:1023B0000895CF93DF9300D000D000D0CDB7DEB723
:1023C0006EE474E0CE0101960E94B011CE01019638
:1023D0000E94EC0D64E670E080E090E00E948005D1
:1023E00060E374E08EE494E00E94440726960FB602
:1023F000F894DEBF0FBECDBFDF91CF910895EF926D
:10240000FF920F931F93CF93DF9300D000D000D0A3
:10241000CDB7DEB77C018B016EE474E0CE0101968E
:102420000E94B011CE0101960E94EC0D64E670E0AE
:1024300080E090E00E94800566E274E08EE494E023
:102440000E944407B7018EE494E00E94310763E2E2
:1024500074E08EE494E00E94440764E670E080E05B
:1024600090E00E948005B8018EE494E00E94120F73
:1024700064E670E080E090E00E9480056AE18EE40E
:1024800094E00E94810868EB7BE080E090E00E948D
:1024900080056EE474E0CE0101960E94B011CE0179
:1024A00001960E94EC0D6EE474E0CE0101960E944C
:1024B000B011CE0101960E94EC0D26960FB6F8944D
:1024C000DEBF0FBECDBFDF91CF911F910F91FF9067
:1024D000EF9008950F931F93CF93DF9300D000D018
:1024E00000D0CDB7DEB78C016EE474E0CE0101966A
:1024F0000E94B011CE0101960E94EC0D64E670E0DE
:1025000080E090E00E94800569E174E08EE494E050
:102510000E94440768EE73E080E090E00E9480052E
:1025200088E30E940E0880917E0562E571E08823B1
:1025300021F010927E056FEE75E0C8010E9419111E
:10254000C80126960FB6F894DEBF0FBECDBFDF914F
:10255000CF911F910F910895CF93DF93EC011092CB
:102560007305109272058EE494E00E940208892B94
:10257000B9F48091720590917305803E9E4284F477
:102580006DE070E080E090E00E948005809172052F
:102590009091730501969093730580937205E3CF34
:1025A0008EE494E00E940208892B49F06EE474E006
:1025B000CE010E94B011CE01DF91CF91089562E566
:1025C00071E0CE010E941911F6CFCF92DF92FF92F7
:1025D0000F931F93CF93DF93CDB7DEB762970FB6FC
:1025E000F894DEBF0FBECDBF8C01F62E6A0162E506
:1025F00071E0CE010D960E94191189E06F2D8F15A3
:1026000040F5CE0101960E94C010BE016F5F7F4F62
:10261000CE010D960E941210BE01635F7F4FC8016C
:102620000E941011CE0101960E94EC0DCE010D9674
:102630000E94EC0DC80162960FB6F894DEBF0FBE83
:10264000CDBFDF91CF911F910F91FF90DF90CF9081
:102650000895CE010196E5E0CE16D104D9F40E948A
:10266000C010BE016F5F7F4FCE010D960E94121009
:10267000CE0101960E94EC0DF801118210821382A6
:10268000128215821482BE01635F7F4FC8010E94CF
:102690001210CCCF0E94C01064E872E0CE01079601
:1026A0000E9419114D815E8169817A81CE01079660
:1026B0000E947310811104C0CE0107960E94DA0DAA
:1026C000BE01695F7F4FCE010D960E94F910CE01C9
:1026D00007960E94EC0DCCCFAF92BF92DF92EF92A3
:1026E000FF920F931F93CF93DF93CDB7DEB72C9755
:1026F0000FB6F894DEBF0FBECDBF8C015B0162E563
:1027000071E0CE0107960E94191187E08A9D700141
:102710008B9DF00C1124C70101970E94660B8093DA
:102720000C01570187E0A81AB108D12CF12CE12C3B
:10273000C5018E0D9F1D0E94660B81111FC091E087
:10274000D9121AC064E872E0C8010E941911CE01C2
:1027500007960E94EC0DC8012C960FB6F894DEBFC8
:102760000FBECDBFDF91CF911F910F91FF90EF90E2
:10277000DF90BF90AF900895DD24D394A701682F18
:10278000CE0101960E94E5124D815E8169817A81B8
:10279000CE0107960E947310CE0101960E94EC0DA7
:1027A000EFEFEE1AFE0AF6E0EF16F10409F6F80173
:1027B000118210821382128215821482BE01695F17
:1027C0007F4FC8010E941210C2CFCF92DF92EF92CA
:1027D000FF920F931F93CF93DF9300D000D000D0D0
:1027E000CDB7DEB77C016C5E7A4F8DE0869F6001CD
:1027F000879FD00C112462E571E0C7010E94191176
:1028000010E000E0C8018C0D9D1D0E94660BA80120
:10281000682FCE0101960E94E5124D815E8169818B
:102820007A81C7010E947310CE0101960E94EC0DBF
:102830000F5F1F4F0D30110529F7C70126960FB600
:10284000F894DEBF0FBECDBFDF91CF911F910F91E6
:10285000FF90EF90DF90CF9008956EE571E080914A
:10286000C5039091C6030E944533892BF9F481E496
:102870000E94500C019759F40E94390A40E061E42B
:102880008091C9039091CA030E94F40D089580912C
:10289000EE02882349F081E40E94500C18161906B4
:1028A0001CF41092EE02E8CF0E94410A80E00895E5
:1028B000EF92FF920F931F93CF93DF93CDB7DEB7C5
:1028C0006D970FB6F894DEBF0FBECDBF8C017B01B4
:1028D000161617060CF04BC06091C5037091C60325
:1028E00046E050E0CE0101960E948133FF92EF92C4
:1028F00088E392E09F938F937E0189E1E80EF11CBB
:10290000FF92EF920E949033B701CE0101960E9490
:102910005833BE016F5F7F4FCE0143960E9419115D
:10292000B801CE010D960E941911BE016D5E7F4F58
:10293000CE010D960E94FF11CE010D960E94EC0D66
:10294000CE0143960E94EC0D0F900F900F900F90C8
:102950000F900F906D960FB6F894DEBF0FBECDBFEF
:10296000DF91CF911F910F91FF90EF9008956CE050
:1029700071E00E94100D1816190664F764E671E004
:10298000CE010D960E941911B801CE0101960E9448
:102990001911BE01635F7F4FCE0101960E94FF11A6
:1029A000CE0101960E94EC0DCE010D960E94EC0D19
:1029B000D1CFFC01808191810C94C230EF92FF92C3
:1029C0000F931F93CF93DF9300D0CDB7DEB78C0169
:1029D0007B019A838983CE0101960E94D914F70165
:1029E00080830F5F1F4F1A830983CE0101960E94D7
:1029F000D914F7018183C7010F900F90DF91CF9118
:102A00001F910F91FF90EF9008950F931F93CF9315
:102A1000DF9300D0CDB7DEB78B019A838983CE01D7
:102A200001960E94D914F8018083C8010F900F907D
:102A3000DF91CF911F910F9108950F931F93CF9323
:102A4000DF9300D0CDB7DEB78B019A838983CE01A7
:102A500001960E94D914F8018083C8010F900F904D
:102A6000DF91CF911F910F910895EF92FF920F93F5
:102A70001F93CF93DF9300D0CDB7DEB789E1E82E67
:102A800083E0F82E10E000E01A830983CE0101965E
:102A90000E94D914F70181937F010F5F1F4F073008
:102AA000110591F78AE090E09A838983CE0101961F
:102AB0000E94D9148093CE038BE090E09A8389839F
:102AC000CE0101960E94D9148093CF0366E173E092
:102AD00088E290E00E941D1565E173E082E390E0DA
:102AE0000E941D1564E173E084E390E00E940515E7
:102AF00061E173E086E390E00E94051567E173E011
:102B00008CE390E00E941D1563E173E08EE390E09A
:102B10000E941D1560E173E08AE490E00E940515B3
:102B20006FE073E08CE490E00E941D1565EF72E0A9
:102B30008AE590E00E94DE1463EF72E084E690E0A4
:102B40000E94DE1461EF72E08EE690E00E94DE14D7
:102B500060EF72E088EC90E00E941D150F900F90DE
:102B6000DF91CF911F910F91FF90EF9008951F93E8
:102B7000CF93DF93EC01162F0E94D914811729F00F
:102B8000612F888199810E94CA30CE01DF91CF9157
:102B90001F9108950F931F93CF93DF9300D0CDB76C
:102BA000DEB78AE090E09A8389830EEC13E0F801A7
:102BB0006081CE0101960E94B7158BE090E09A8368
:102BC0008983F8016181CE0101960E94B715C80181
:102BD0000F900F90DF91CF911F910F910895CF9299
:102BE000DF92EF92FF920F931F93CF93DF9300D06A
:102BF000CDB7DEB76C017C0110E000E01A830983D9
:102C0000F70161917F01CE0101960E94B7150F5F18
:102C10001F4F0730110591F7C6010F900F90DF91FC
:102C2000CF911F910F91FF90EF90DF90CF9008957B
:102C3000EF92FF920F931F93CF93DF9300D0CDB706
:102C4000DEB78C017B019A838983FB016081CE0111
:102C500001960E94B7150F5F1F4F1A830983F70172
:102C60006181CE0101960E94B715C7010F900F90A8
:102C7000DF91CF911F910F91FF90EF9008959F9258
:102C8000AF92BF92CF92DF92EF92FF920F931F937A
:102C9000CF93DF9300D0CDB7DEB76C01B62E7A01AB
:102CA0001A821982BE016F5F7F4F80E590E00E941B
:102CB000DE1489819A818C5E9A4F2DE0289F8001D5
:102CC000299F100D1124B801C6010E94C80CF701FC
:102CD000A0809180C380D4806281C80107960E9441
:102CE000B305692DC80108960E94B3056A2DC80175
:102CF00009960E94B3056C2DC8010A960E94B3057F
:102D00006D2DC8010B960E94B3056B2DC8010C9662
:102D10000E94B30589819A810196843FF1E09F0763
:102D2000B9F09A838983BE016F5F7F4F80E590E0A1
:102D30000E9418160F900F90DF91CF911F910F9165
:102D4000FF90EF90DF90CF90BF90AF909F9008954D
:102D50001A821982E8CF8F929F92AF92BF92CF9240
:102D6000DF92EF92FF920F931F93CF93DF93CDB734
:102D7000DEB7E4970FB6F894DEBF0FBECDBF8C016F
:102D8000F62ECE018D960E94460B8DA589838EA5C9
:102D90008A838FA58B8388A98C8389A98D838AA92F
:102DA0008E83AE014F5F5F4F6F2DC8010E943F16AB
:102DB000BE016D5C7F4F80E590E00E94DE148BA920
:102DC0009CA90E94010F8091F5029091F6022BA917
:102DD0003CA92817390729F02091EF02222309F492
:102DE000FFC22091F1023091F202820F931F843FC3
:102DF00021E092070CF006C29093F6028093F50250
:102E000065EF72E08AE590E00E9418168091F0026A
:102E1000811105C08091EF02882309F4E1C20BA95A
:102E20001CA9A090F302B090F40282E695E00E9403
:102E3000F80962E571E0CE0187960E9419112EE033
:102E400030E049E050E06BE176E0CE0181960E94EF
:102E50005B118DEC90E09A838983CE0101960E94EC
:102E6000D914D82E6FE971E08EE494E00E944407F3
:102E700068EE73E080E090E00E9480056EE474E00C
:102E8000CE0101960E94B011CE0101960E94EC0D78
:102E900064E771E08EE494E00E94440768EE73E01A
:102EA00080E090E00E9480056EE474E0CE0101961F
:102EB0000E94B011CE0101960E94EC0D65E671E012
:102EC0008EE494E00E94440780917405909175050A
:102ED0000F970CF09CC168E273E280E090E00E94E2
:102EE000800566E571E08EE494E00E94440768EE98
:102EF00073E080E090E00E94800568E471E08EE479
:102F000094E00E94440764EF71E080E090E00E944A
:102F1000800581E0D8120CC069E371E08EE494E092
:102F20000E94440764EF71E080E090E00E94800519
:102F300063E271E08EE494E00E94440764EF71E084
:102F400080E090E00E9480056EEC70E08EE494E0FA
:102F50000E944407CE0101960E94AC12CE01019658
:102F60000E94EC0D68EE73E080E090E00E94800526
:102F70001982FE0131964F01E2EDEE2EF12CFE8A10
:102F8000ED8ACE0145960E94D914F40181934F0138
:102F9000FFEFEF1AFF0A26EEE216F10481F76BE667
:102FA00071E0CE0145960E941911BE016F5F7F4FFF
:102FB000CE014B960E941911AE014B5E5F4F6D2DF5
:102FC000CE014B960E946807CE014B960E94EC0DF5
:102FD000CE0145960E94EC0D68EE73E080E090E033
:102FE0000E94800580E58A9D60018B9DD00C112494
:102FF0008CE0C80ED11CF12CE12C2AE0B701A6010F
:103000008BEE94E00E94510E8BEE94E00E94D70E5E
:1030100069EC71E08EE494E00E9444072AE0B70175
:10302000A6018EE494E00E94510E6FEB71E08EE4F5
:1030300094E00E94440768EE73E080E090E00E9414
:1030400080051E8A1D8A188E1F8A1A8E198E6BE0C3
:1030500070E0CE0145960E944B108111DDC0CE017B
:1030600045960E94DA0DCE0145960E943F07CE019B
:1030700045960E94EC0DEE24E394F12CAE14BF04AF
:103080000CF4D5C00115110511F404EF11E0015045
:103090001109B801CE0145960E94E513BE016B5E91
:1030A0007F4FCE0187960E941210CE0145960E9456
:1030B000EC0D61E771E0CE0145960E941911CE0139
:1030C00045960E943F07CE0145960E94EC0D2BE0ED
:1030D00030E050E040E0BE01695D7F4FCE01459693
:1030E0000E945B11CE0145960E943F07CE01459696
:1030F0000E94EC0D6CE771E0CE0145960E9419111B
:10310000CE0145960E943F07CE0145960E94EC0DE8
:10311000BE016F5D7F4FCE0145960E941011CE011A
:1031200045960E943F07CE0145960E94EC0D6CE843
:1031300071E0CE0145960E941911CE0145960E947C
:103140003F07CE0145960E94EC0D29E130E047E1B2
:1031500050E0BE01695D7F4FCE0145960E945B1134
:10316000CE0145960E943F07CE0145960E94EC0D88
:1031700067E971E0CE0145960E941911CE0145968E
:103180000E943F07CE0145960E94EC0D27E130E0FA
:103190004DE050E0BE01695D7F4FCE0145960E9433
:1031A0005B11CE0145960E943F07CE0145960E94D5
:1031B000EC0D66EA71E0CE0145960E941911CE0130
:1031C00045960E943F07CE0145960E94EC0DEA14F9
:1031D000FB0474F46CE571E0CE0145960E94191170
:1031E000CE0145960E943F07CE0145960E94EC0D08
:1031F00064E670E080E090E00E9480059FEFE91AAD
:10320000F90A3CCF1092F6021092F502F9CD60ED6A
:1032100077E080E090E063CE8BE090E09A8F898F3A
:1032200065E072E08D899E890E9448301CCF64E67B
:1032300070E080E090E00E94800569EA71E0CE01D4
:1032400045960E941911CE0145960E943F07CE0176
:1032500045960E94EC0D64E670E080E090E00E94EC
:103260008005CE0145960E94AC12CE0145960E9483
:10327000EC0D64E670E080E090E00E94800562E57D
:1032800071E0CE014B960E94191166ED71E08EE45B
:1032900094E00E9444076CEA7DE080E090E00E94A8
:1032A00080058FE40E940E0880917E058111ABC0DD
:1032B00062E571E0CE0145960E941911BE016B5E78
:1032C0007F4FCE014B960E941210CE0145960E9470
:1032D000EC0D8FE40E940E0880917E05811196C04E
:1032E00062E571E0CE0145960E941911BE016B5E48
:1032F0007F4FCE014B960E941210CE0145960E9440
:10330000EC0D8B8D9C8DC12CD12C7601009719F082
:103310000E9421306B018601CE014B960E94EC0D7C
:10332000C6010E94010F64E670E080E090E00E9418
:1033300080058091F1029091F202093C1105B1F0F3
:103340008091F3029091F4022091EF02211167C065
:103350002091F1023091F202A901440F551F420F52
:10336000531F8417950734F4820F931F9093F40230
:103370008093F30268EE73E080E090E00E948005A5
:1033800067EF71E08EE494E00E94440768EE73E01A
:1033900080E090E00E94800568EE71E08EE494E0A9
:1033A0000E944407CE0145960E94AC12CE0145967C
:1033B0000E94EC0D10927C0563EF72E084E690E0D1
:1033C0000E9418161092EF0282E695E00E94F3091F
:1033D000CE0181960E94EC0DCE0187960E94EC0DE5
:1033E000E4960FB6F894DEBF0FBECDBFDF91CF914C
:1033F0001F910F91FF90EF90DF90CF90BF90AF9013
:103400009F908F90089510927E0552CF10927E0566
:1034100063E070E0CE0145960E942E1167CF0196C1
:10342000A5CFEF92FF920F931F93CF93DF93CDB76A
:10343000DEB72C970FB6F894DEBF0FBECDBF8C0160
:103440007B016CEF71E00E944533892B09F061C06C
:1034500080910C01823098F42091CE0388EE93E0A5
:10346000289FA001299F500D11244115510509F4F1
:1034700040C061E070E085E595E00E94FD096CEADE
:1034800070E08EE494E00E94440762E0C7010E946D
:10349000AB1610911303112309F48CC06CEA71E090
:1034A000CE0107960E9419116091C9037091CA0359
:1034B000CE0101960E941911BE01695F7F4FCE01B6
:1034C00001960E94FF11CE0101960E94EC0DCE01E3
:1034D00007960E94EC0D812F2C960FB6F894DEBF54
:1034E0000FBECDBFDF91CF911F910F91FF90EF9055
:1034F0000895809155050E949903892B29F485E54B
:1035000095E00E94F809BBCF85E595E00E94F3099C
:10351000B6CF6FEA71E0C8010E944533892BC1F52F
:10352000809114038230A0F5809148050E94990390
:10353000892B71F580910C018D7F91F42091CF033F
:1035400088EE93E0289FA001299F500D112441157A
:10355000510571F061E070E088E495E00E94FD099A
:103560006CEA70E08EE494E00E94440763E08ECF42
:10357000809148050E949903892B29F488E495E0FD
:103580000E94F809EDCF88E495E00E94F309E8CFA6
:1035900063EB71E0C8010E94453310E0892B09F00C
:1035A0009ACF80910C01882311F0833019F481E0C7
:1035B0008093060311E08FCF0F931F93CF93DF9378
:1035C00000D0CDB7DEB78B019A838983FB01608180
:1035D000CE0101960E94B715C8010F900F90DF91A0
:1035E000CF911F910F9108950F931F93CF93DF9366
:1035F00000D0CDB7DEB78B019A838983FB01608150
:10360000CE0101960E94B715C8010F900F90DF916F
:10361000CF911F910F9108950F931F93CF93DF9335
:10362000CDB7DEB729970FB6F894DEBF0FBECDBF7A
:1036300082E695E00E94F80910E000E060E0C80131
:103640000E94B3050F5F1F4F0C348DE11807B1F7CF
:1036500004E012E460E0C8010E94B3050F5F1F4F51
:103660000C3C8BE51807B1F710E000E01A830983E2
:1036700060E0CE0101960E94B7150F5F1F4F011544
:1036800082E0180799F787E0E7EBF1E0DE01119699
:1036900001900D928A95E1F7CE0101960E94EF15F7
:1036A00082E08093CE038093CF030E94CA1511E07D
:1036B0001887BE01685F7F4F88E290E00E94DC1AA5
:1036C0001987BE01675F7F4F8CE390E00E94DC1A90
:1036D00010930F036FE073E08CE490E00E94DC1A1B
:1036E00009E110E01093F6020093F50265EF72E035
:1036F0008AE590E00E9418161093F4020093F302FA
:1037000063EF72E084E690E00E9418161093F202D4
:103710000093F10261EF72E08EE690E00E941816CD
:103720000E94390A88E19EE00FB6F894A89580932C
:1037300060000FBE9093600060ED77E080E090E065
:103740000E94800529960FB6F894DEBF0FBECDBF4C
:10375000DF91CF911F910F910895EF92FF920F93F8
:103760001F93CF93DF93CDB7DEB7C756D1090FB6FE
:10377000F894DEBF0FBECDBF6EEB71E08091C50344
:103780009091C6030E944533892B81F5E091C303D4
:10379000F091C40386E0A9E1B3E001900D928A950F
:1037A000E1F71092200389E193E00E94EF1566ECA7
:1037B00071E0CE01895B9F4F0E9419116091C9038E
:1037C0007091CA03CE0101960E941911BE01695B76
:1037D0007F4FCE0101960E94FF11CE0101960E94FB
:1037E000EC0DCE01895B9F4F0E94EC0D6EE571E000
:1037F0008091C5039091C6030E944533892B51F4F3
:103800000E942D14682F70E08091C9039091CA0323
:103810000E94581469EC71E08091C5039091C60331
:103820000E944533892B31F581E08093EE0282E6D8
:1038300095E00E94F80966EC71E0CE01895B9F4F2C
:103840000E9419116091C9037091CA03CE010196BB
:103850000E941911BE01695B7F4FCE0101960E9443
:10386000FF11CE0101960E94EC0DCE01895B9F4FA6
:103870000E94EC0D63ED71E08091C5039091C60349
:103880000E944533892B09F053C062E571E0CE01F7
:103890008A5A9F4F0E94191101E010E08AE0F82E29
:1038A000B801CE0101960E946C134D815E81698141
:1038B0007A81CE018A5A9F4F0E947310CE010196E1
:1038C0000E94EC0DF9821A8241E050E0BE016F5F68
:1038D0007F4FCE018A5A9F4F0E9473100F5F1F4F78
:1038E00006301105E9F6BE016A5A7F4FCE01895BA9
:1038F0009F4F0E9410116091C9037091CA03CE01BD
:1039000001960E941911BE01695B7F4FCE0101969D
:103910000E94FF11CE0101960E94EC0DCE01895B41
:103920009F4F0E94EC0DCE018A5A9F4F0E94EC0DD2
:103930006DED71E08091C5039091C6030E944533FF
:10394000892B71F58091C1039091C2030091C3034B
:103950001091C40340E0009719F00E940330482FF3
:1039600065E4C8010E94F40D8C01181619060CF0CC
:1039700040C50E94390A68E08091C9039091CA034A
:103980000E94AB1668E08091C3039091C4030E942B
:10399000AB16B8018091C9039091CA030E945814D4
:1039A00061EE71E08091C5039091C6030E9445339A
:1039B000892BA1F48091C3039091C4030E94910DBF
:1039C0008C01181619060CF017C50E94390AB801A7
:1039D0008091C9039091CA030E94581465EE71E06A
:1039E0008091C5039091C6030E944533892BB1F4A1
:1039F00043E063E58091C3039091C4030E94F40DFA
:103A00008C01181619060CF0FAC40E94390AB80184
:103A10008091C9039091CA030E94581469EE71E025
:103A20008091C5039091C6030E944533892B59F5B7
:103A30008091C3039091C4030E9403308093CE030E
:103A40000E94CA156091C3037091C403CE01895BC3
:103A50009F4F0E9419116091C9037091CA03CE0152
:103A600001960E941911BE01695B7F4FCE0101963C
:103A70000E94FF11CE0101960E94EC0DCE01895BE0
:103A80009F4F0E94EC0D60EF71E08091C503909113
:103A9000C6030E944533892B59F58091C303909149
:103AA000C4030E9403308093CF030E94CA15609123
:103AB000C3037091C403CE01895B9F4F0E9419110B
:103AC0006091C9037091CA03CE0101960E94191139
:103AD000BE01695B7F4FCE0101960E94FF11CE01AE
:103AE00001960E94EC0DCE01895B9F4F0E94EC0D68
:103AF00067EF71E08091C5039091C6030E94453342
:103B0000892BE9F581E08093150381E090E09A83A9
:103B10008983BE016F5F7F4F82E390E00E94181699
:103B20008091C3039091C4030E94033080931103DA
:103B300061E173E086E390E00E94F41A0E94390A82
:103B40006FEF71E0CE01895B9F4F0E941911609168
:103B5000C9037091CA03CE0101960E941911BE01DA
:103B6000695B7F4FCE0101960E94FF11CE01019645
:103B70000E94EC0DCE01895B9F4F0E94EC0D62E02C
:103B800072E08091C5039091C6030E944533892B52
:103B900061F5109215031A821982BE016F5F7F4F83
:103BA00082E390E00E9418160E94390A6BE072E0EE
:103BB000CE01895B9F4F0E9419116091C9037091DA
:103BC000CA03CE0101960E941911BE01695B7F4FA5
:103BD000CE0101960E94FF11CE0101960E94EC0DCC
:103BE000CE01895B9F4F0E94EC0D6FE072E08091E7
:103BF000C5039091C6030E944533892B09F041C04B
:103C00008091C3039091C4030E94033021E0892B6B
:103C100009F420E0209313038EE390E09A838983D4
:103C20006091C303CE0101960E94B7158FE390E027
:103C30009A8389836091C403CE0101960E94B715CF
:103C40000E94390A6CEA71E0CE01895B9F4F0E94A5
:103C500019116091C9037091CA03CE0101960E94A7
:103C60001911BE01695B7F4FCE0101960E94FF11C1
:103C7000CE0101960E94EC0DCE01895B9F4F0E9400
:103C8000EC0D65E172E08091C5039091C6030E943E
:103C90004533892B79F58091C3039091C4030E9429
:103CA0000330809314030E94390A64E173E084E3D3
:103CB00090E00E94F41A6CEA71E0CE01895B9F4F9C
:103CC0000E9419116091C9037091CA03CE01019637
:103CD0000E941911BE01695B7F4FCE0101960E94BF
:103CE000FF11CE0101960E94EC0DCE01895B9F4F22
:103CF0000E94EC0D6DE172E08091C5039091C603C6
:103D00000E944533892BA9F58091C3039091C40388
:103D10000E94033021E0892B09F420E02093160350
:103D20000E94390A66E173E088E290E00E94DC1AA2
:103D30006091C3037091C403CE01895B9F4F0E94C1
:103D400019116091C9037091CA03CE0101960E94B6
:103D50001911BE01695B7F4FCE0101960E94FF11D0
:103D6000CE0101960E94EC0DCE01895B9F4F0E940F
:103D7000EC0D63E272E08091C5039091C6030E944E
:103D80004533892B91F46CE071E08091C9039091E7
:103D9000CA030E94100D909361038093600366EB49
:103DA00070E08EE494E00E9444076AE272E0809141
:103DB000C5039091C6030E944533892B09F040C08A
:103DC0008091C3039091C4030E9403308C014097FB
:103DD000B8F50E94390A809171058C3409F565ECBB
:103DE00070E08EE494E00E944407B8018EE494E011
:103DF0000E949D0E6FEB70E08EE494E00E944407F9
:103E000068EE73E080E090E00E9480056BEE74E065
:103E1000CE0101960E94B011CE0101960E94EC0DD8
:103E200088E19EE00FB6F894A895809360000FBEDD
:103E30009093600060ED77E080E090E00E94800564
:103E40006FE272E08091C5039091C6030E944533F2
:103E5000892B09F019C119828091CE031F928F938B
:103E600086E392E09F938F938E01095B1F4F1F9310
:103E70000F930E949033B801CE0101960E945833EF
:103E8000F80110828091CF031F928F938CE392E010
:103E90009F938F931F930F930E949033B801CE018D
:103EA00001960E945833F8011082809113031F92EB
:103EB0008F9383E492E09F938F931F930F930E94BD
:103EC0009033B801CE0101960E945833F801108258
:103ED000809115031F928F938BE492E09F938F93B1
:103EE0001F930F930E949033B801CE0101960E9458
:103EF0005833F8011082809114031F928F9385E547
:103F000092E09F938F931F930F930E949033B80179
:103F1000CE0101960E945833F8011082809111035E
:103F20001F928F938AE592E09F938F931F930F9335
:103F30000E9490330FB6F894DEBF0FBECDBFB8011C
:103F4000CE0101960E945833F80110828091F00250
:103F50001F928F938FE592E09F938F931F930F9300
:103F60000E949033B801CE0101960E945833F801A7
:103F70001082809174059091750599279F938F9376
:103F800087E692E09F938F931F930F930E94903345
:103F9000B801CE0101960E945833F8011082CE017B
:103FA0008E599F4F0E94460BA6968FADA6971F92E3
:103FB0008F93A3968FADA3971F928F93A4968FADE7
:103FC000A4971F928F93A5968FADA5971F928F935D
:103FD0008CE692E09F938F931F930F930E949033F0
:103FE000B801CE0101960E945833F8011082A796BD
:103FF0008FADA7970FB6F894DEBF0FBECDBF8A3046
:1040000008F000C21F928F938AE792E09F938F93EC
:104010001F930F930E9490330F900F900F900F906B
:104020000F900F90B801CE0101960E945833F8010D
:1040300010826EE772E0CE0101960E945833BE01F5
:104040006F5F7F4FCE01845A9F4F0E94191160917C
:10405000C9037091CA03CE018A5A9F4F0E94191159
:10406000BE01645A7F4FCE018A5A9F4F0E94FF11B2
:10407000CE018A5A9F4F0E94EC0DCE01845A9F4F69
:104080000E94EC0D0E94390A66E872E08091C50337
:104090009091C6030E944533892B99F58091C30303
:1040A0009091C4030E94033021E0892B09F420E0A1
:1040B0002093F00260EF72E088EC90E00E94DC1A3E
:1040C0000E94390A6CEA71E0CE01895B9F4F0E9421
:1040D00019116091C9037091CA03CE0101960E9423
:1040E0001911BE01695B7F4FCE0101960E94FF113D
:1040F000CE0101960E94EC0DCE01895B9F4F0E947C
:10410000EC0D6AE872E08091C5039091C6030E94AD
:104110004533892BE1F50E94390A8091C3039091C0
:10412000C4030E9403302091F5023091F602280F5B
:10413000391F60E972E0253F314064F49093F20248
:104140008093F10261EF72E08EE690E00E94181613
:104150006CEA71E0CE01895B9F4F0E94191160915A
:10416000C9037091CA03CE0101960E941911BE01C4
:10417000695B7F4FCE0101960E94FF11CE0101962F
:104180000E94EC0DCE01895B9F4F0E94EC0D64E90B
:1041900072E08091C5039091C6030E944533892B3C
:1041A00009F052C019826091C3037091C40344E1C5
:1041B00050E0CE0101960E9481339E012F5F3F4F58
:1041C000790102ED10E029961FAF0EAF2997F70194
:1041D00061917F01CE01895B9F4F0E94B7150F5FF0
:1041E0001F4F063E110579F78091C1039091C203DC
:1041F0000E940330682F8DEC90E00E94CA300E942C
:10420000390ABE016F5F7F4FCE018A5A9F4F0E94CD
:1042100019116091C9037091CA03CE01895B9F4F48
:104220000E941911BE016A5A7F4FCE01895B9F4FD0
:104230000E94FF11CE01895B9F4F0E94EC0DCE01C1
:104240008A5A9F4F0E94EC0D67E972E08091C50386
:104250009091C6030E944533892B21F50E94390AAB
:1042600081E08093EF026CEA71E0CE01895B9F4FA1
:104270000E9419116091C9037091CA03CE01019681
:104280000E941911BE01695B7F4FCE0101960E9409
:10429000FF11CE0101960E94EC0DCE01895B9F4F6C
:1042A0000E94EC0D6DE972E08091C5039091C60308
:1042B0000E944533892B09F054C00E94390AA49604
:1042C0001FAE1EAEA4976E961FAE1EAE6E97BE01B9
:1042D000645A7F4FCE018E599F4F0E94960C1982CF
:1042E0006E968FAD6E978F936D968FAD6D978F9302
:1042F000A4968FADA4978F93A3968FADA3978F931A
:1043000084EA92E09F938F938E010F5F1F4F1F935C
:104310000F930E949033B801CE018A5A9F4F0E949A
:1043200019116091C9037091CA03CE01895B9F4F37
:104330000E941911BE016A5A7F4FCE01895B9F4FBF
:104340000E94FF11CE01895B9F4F0E94EC0DCE01B0
:104350008A5A9F4F0E94EC0D0FB6F894DEBF0FBE35
:10436000CDBF6EEA72E08091C5039091C6030E94B2
:104370004533892B81F50E94390ACE0101960E94AE
:104380006A12BE016F5F7F4F8BE196E00E941210B0
:10439000CE0101960E94EC0D6BE176E0CE01895BC7
:1043A0009F4F0E9410116091C9037091CA03CE0102
:1043B00001960E941911BE01695B7F4FCE010196E3
:1043C0000E94FF11CE0101960E94EC0DCE01895B87
:1043D0009F4F0E94EC0DC959DF4F0FB6F894DEBF16
:1043E0000FBECDBFDF91CF911F910F91FF90EF9046
:1043F00008950E94410ABFCA0E94410AE8CA0E9469
:10440000410A05CB1F928F938BE792E0FFCD1F925D
:104410000F920FB60F9211242F933F934F935F93F8
:104420006F937F938F939F93AF93BF93EF93FF937C
:104430008091B900887F803609F44AC0F0F588324F
:1044400009F4A7C018F5803109F49BC0B8F488239B
:1044500009F4F9C0883009F494C0FF91EF91BF913D
:10446000AF919F918F917F916F915F914F913F910C
:104470002F910F900FBE0F901F901895883109F45F
:1044800088C0803251F78093160414C0803409F438
:104490009DC040F48033B9F38833F9F68093160455
:1044A00085ECB0C0803509F485C0883509F496C024
:1044B000883499F60E94CA0FD0CF883909F48CC08D
:1044C00038F5883729F050F4883611F0803729F60E
:1044D00083E0809318041092BE0357C0883809F413
:1044E0007BC0803919F0803809F0B7CF8091BE03C6
:1044F000803208F071C0E091BE0381E08E0F80939E
:10450000BE038091BB00F0E0E256FC4F80833DC0CB
:10451000803B39F0E0F4803A09F479C0883A09F038
:104520009CCF84E08093180410929B0310929A030E
:10453000E0919803F0919903099580919A03811174
:104540000FC081E080939A031092780309C0803CE9
:1045500009F4A6CF883C09F4A3CF883B09F07DCFAE
:10456000E0919B0381E08E0F80939B03F0E0E8587D
:10457000FC4F80818093BB0090919B0380919A03B4
:1045800029C08091F3038093BB0085EC8093BC002D
:1045900064CF9091150480911404981758F5E09118
:1045A000150481E08E0F80931504F0E0EC50FC4F71
:1045B0008081E9CFE091150481E08E0F809315048E
:1045C0008091BB00F0E0EC50FC4F8083909115048B
:1045D000809114049817C8F285E8D8CFE0911504AB
:1045E00081E08E0F809315048091BB00F0E0EC50C9
:1045F000FC4F80838091170481115CCF81E0809310
:10460000F20384EA8093BC001092180426CF85EC54
:104610008093BC00109218048091BE03803230F465
:10462000E091BE03F0E0E256FC4F10826091BE03C1
:1046300070E0E0919C03F0919D038EE993E0099571
:104640001092BE030ACF1092160434CF1F920F921D
:104650000FB60F9211242F933F938F939F93AF9395
:10466000BF938091630390916403A0916503B0911F
:1046700066033091620323E0230F2D3758F501962E
:10468000A11DB11D20936203809363039093640383
:10469000A0936503B09366038091670390916803CC
:1046A000A0916903B0916A030196A11DB11D809389
:1046B000670390936803A0936903B0936A03BF9163
:1046C000AF919F918F913F912F910F900FBE0F90BF
:1046D0001F90189526E8230F0296A11DB11DD2CF79
:1046E0001F920F920FB60F9211248F939F93809178
:1046F000E1009091E100937F9093E10083FF0FC070
:104700001092E90091E09093EB001092EC0092E39C
:104710009093ED001092C00398E09093F00082FF18
:1047200022C093E09093E9009091F200992319F050
:104730009AE39093E80090910003992341F09091BF
:104740000003915090930003911101C05D9A9091E4
:10475000BF03992341F09091BF0391509093BF0301
:10476000911101C0289A84FF18C08091E2008E7ECA
:1047700081608093E2008091E1008F7E8093E10070
:10478000809101038E7E8061809301039F918F91C0
:104790000F900FBE0F901F90189580FFF7CF80915C
:1047A000E2008E7E80618093E2008091E1008E7E47
:1047B0008093E100809101038E7E8160E5CF1F929E
:1047C0000F920FB60F921124CF92DF92EF92FF92C9
:1047D0000F931F932F933F934F935F936F937F9309
:1047E0008F939F93AF93BF93EF93FF93CF93DF93F9
:1047F000CDB7DEB76C97DEBFCDBF1092E9008091D8
:10480000E80083FF25C068E0CE0145960E94F606C9
:1048100082EF8093E8008D8987FF39C09091E8008E
:1048200090FFFCCF982F907609F034C19E894F8974
:10483000588D2F89F88C911131C0803861F58091A5
:1048400002038093F1001092F1008EEF8093E80054
:104850006C960FB6F894DEBF0FBECDBFDF91CF913F
:10486000FF91EF91BF91AF919F918F917F916F9148
:104870005F914F913F912F911F910F91FF90EF907A
:10488000DF90CF900F900FBE0F901F9018959EEF66
:104890009093E800C7CF1092F100D5CF913059F432
:1048A0008111D3CF4130510581F6809102038D7F74
:1048B00080930203CACF933049F48111C6CF4130AF
:1048C000510519F6809102038260F2CF953041F4D0
:1048D0008091E80080FFFCCF20682093E300B5CFF3
:1048E000963009F0A9C00B8D1C8D22E01092E900D2
:1048F0001092FE021092FD02F2122EC01092FC02E3
:104900001092FB020E94C5061F8299E09983FA82E9
:1049100091E09E8390EA98879AEF99872091FD0213
:104920003091FE02275F3F4F3C832B838D83109293
:10493000E9001092FE021092FD021093FC02009317
:10494000FB0249E050E0BE016F5F7F4F80E00E94B4
:104950009F060E94C50679CF1093FC020093FB02CC
:104960000E943903DC0112960D911C91011511056D
:1049700009F451C1D801ED91FC910480F581E02D3D
:10498000BE016B5E7F4FC8010995009709F03EC1DB
:10499000F80100851185EACFF3E0FF120EC08F8980
:1049A000882309F440C0823061F440E862E18EE778
:1049B00092E00E946C06811148CF81E28093EB0067
:1049C00047CF813029F440E868E085E792E0F1CFF5
:1049D000833099F70E943903DC011296ED90FC9028
:1049E0008E010F5F1F4F6801E114F10479F0D701C8
:1049F000ED91FC910680F781E02DB801C701099582
:104A0000080F111DF701E084F184EECFD8011C924C
:104A1000F60101900020E9F73197BF016C197D097B
:104A200040E0C601C6CF6FE572E0FB01449150E063
:104A300080E80E949F0609CF973009F4BECF9830D6
:104A400021F481E08093F10000CF993009F0FDCE90
:104A5000837009F0B2CFE4E1F1E081E031E096E368
:104A60002191222371F08093E9003093EB00DF0164
:104A700011972C912093EC009093ED008F5F87307D
:104A800079F78EE78093EA001092EA008F8980938D
:104A9000C003DBCE8B8D9C8D1092E9001092FE023C
:104AA0001092FD029093FC028093FB02898D81118C
:104AB00092C08E899D89913A49F4813209F07DCF67
:104AC00047E050E064E071E080E0B3CF913209F05C
:104AD00074CF833269F48F89988DB0E0A0E0809321
:104AE000000190930101A0930201B0930301ADCEA8
:104AF000803269F48091E80082FFFCCF67E084E0B7
:104B000091E00E94F6068BEF8093E8009ECE823201
:104B100009F09BCE8F8980930B01EEEFFFE7859123
:104B200094918B3F9C4D51F1E0E0F8E080910401BD
:104B300090910501A0910601B0910701803B94403E
:104B4000A105B105F1F480910B0180FD1AC0EE3F83
:104B50008AE0F80789F587E797E79183808380915A
:104B600060008093FF0288E19BE00FB6F894A8955F
:104B7000809360000FBE9093600067CEEEEFFAE086
:104B8000D5CF808191818737974709F05ECEA89570
:104B9000809160008861809360008091FF02809323
:104BA0006000EE3F2AE0F20789F08091FE0A9091C2
:104BB000FF0A9183808349CE80819181873798074E
:104BC00051F29093FF0A8093FE0AC5CF1092FF0A1C
:104BD0001092FE0A3ACE0E943903DC0112960D9122
:104BE0001C910115110509F4E8CED801ED91FC9155
:104BF0000190F081E02DBE016B5E7F4FC8010995E9
:104C0000811123CEF80100851185EBCF1816190606
:104C10000CF41BCED2CEF1E0FF12BECE63E672E002
:104C200004CF1F920F920FB60F9211242F933F9330
:104C30004F935F936F937F938F939F93AF93BF93A4
:104C4000EF93FF938EE494E00E946008FF91EF9150
:104C5000BF91AF919F918F917F916F915F914F9194
:104C60003F912F910F900FBE0F901F9018951F929C
:104C70000F920FB60F9211242F938F939F93EF9360
:104C8000FF93E0915E04F0915F048081E091640401
:104C9000F091650482FD1BC09081809167048F5F55
:104CA0008F7320916804821741F0E0916704F0E06F
:104CB000E25BFB4F958F80936704FF91EF919F918B
:104CC0008F912F910F900FBE0F901F90189580819C
:104CD000F4CFCF93DF93E2E4F4E01382128288EE04
:104CE00093E0A0E0B0E084839583A683B7832EE1B0
:104CF00031E031832083EEE4F4E013821282848376
:104D00009583A683B78320E331E0318320832DECA4
:104D100030E0358724872CEC30E03787268728EC75
:104D200030E0318B208B29EC30E0338B228B2AEC66
:104D300030E0358B248B2EEC30E0378B268B118EB8
:104D4000128E138E148EEBEEF4E0138212828483A3
:104D50009583A683B78382E491E0918380838FEF6C
:104D60009FEF9587848762E571E08BE196E00E9472
:104D70001911C1E7D5E01C821B8262E571E086E76C
:104D800095E00E9419111B861C861D861F861E86B3
:104D90008DE4809317068CE48093180693E5909336
:104DA000190691E290931A06888388EE93E0909317
:104DB000700580936F05E2E6F5E012821086118699
:104DC00012861386148684E090E091838083C1E08C
:104DD000C38361E00E942F04E5E5F5E012821086AE
:104DE000118612861386148689E090E09183808371
:104DF000C38361E00E942F04E8E4F5E0128210868C
:104E000011861286138614868AE090E0918380834F
:104E1000C38361E00E942F04EBE3F5E01282108669
:104E2000118612861386148688E090E09183808331
:104E3000138260E0DF91CF910C942F04CF93DF9326
:104E4000CDB7DEB7E2970FB6F894DEBF0FBECDBF89
:104E5000789484B5826084BD84B5816084BD85B555
:104E6000826085BD85B5816085BD80916E00816061
:104E700080936E0010928100809181008260809307
:104E80008100809181008160809381008091800009
:104E90008160809380008091910082608093910076
:104EA0008091910081608093910080919000816059
:104EB000809390008091C10084608093C1008091B4
:104EC000C10082608093C1008091C10081608093A5
:104ED000C1008091C30081608093C3008091C000B5
:104EE00082608093C0008091C20081608093C20084
:104EF00080917A00846080937A0080917A00826049
:104F000080937A0080917A00816080937A0080910A
:104F10007A00806880937A001092C0031092020396
:104F2000109201038091D70081608093D70080EABE
:104F30008093D80089B5806189BD89B5826089BDBB
:104F400009B400FEFDCF61E070E080E090E00E94D7
:104F500080058091D8008F7C80618093D8008091FB
:104F6000E000807F8093E0008091E1008E7E80935E
:104F7000E1008DE08093E200559A209A87EF84BF8C
:104F80000FB6F894A89580916000886180936000C6
:104F9000109260000FBE62E085E10E942F0448EC91
:104FA00050E065E070E082E695E00E94FD0982E64F
:104FB00095E00E94F8098FEF9FEF9093F80480939B
:104FC000F70468EE73E080E090E00E94800583EBD8
:104FD00092E00E94EC0EE0915E04F0915F0402E02A
:104FE0000083E0915A04F0915B041082E0915C042C
:104FF000F0915D0480E1808310926604E091620488
:10500000F091630416E01083E0916004F091610474
:10501000808180618083E0916004F09161048081EF
:1050200088608083E0916004F091610480818068F1
:105030008083E0916004F091610480818F7D8083A2
:10504000809171058C3409F04BC068EE73E080E00C
:1050500090E00E9480056DE273E08EE494E00E948F
:10506000440768EE73E080E090E00E948005E091E4
:105070005E04F0915F040083E0915A04F0915B04B8
:105080001082E0915C04F0915D0487E680831092C9
:105090006604E0916204F09163041083E09160047F
:1050A000F0916104808180618083E0916004F091DF
:1050B0006104808188608083E0916004F0916104E4
:1050C000808180688083E0916004F0916104808138
:1050D0008F7D808368EE73E080E090E00E94800521
:1050E00066E273E08EE494E00E94440768E873E1AE
:1050F00080E090E00E9480056EE474E08E010F5F16
:105100001F4F4801C8010E94B011C8010E94EC0D58
:1051100068E173E08EE494E00E94440764E670E086
:1051200080E090E00E9480056EE474E0C8010E9477
:10513000B011C8010E94EC0D6CE073E08EE494E0C5
:105140000E94440768EE73E080E090E00E948005D2
:105150006EE474E0C8010E94B011C8010E94EC0D19
:1051600060E073E08EE494E00E94440768EE73E030
:1051700080E090E00E9480056EE474E0C8010E9427
:10518000B011C8010E94EC0D64EF72E08EE494E06F
:105190000E94440768EE73E080E090E00E94800582
:1051A0006EE474E0C8010E94B011C8010E94EC0DC9
:1051B00068EE72E08EE494E00E94440760E177E2DA
:1051C00080E090E00E9480056EE474E0C8010E94D7
:1051D000B011C8010E94EC0D6CED72E08EE494E019
:1051E0000E94440768EE73E080E090E00E94800532
:1051F0006EE474E0C8010E94B011C8010E94EC0D79
:1052000060ED72E08EE494E00E94440768EE73E083
:1052100080E090E00E9480056EE474E0C8010E9486
:10522000B011C8010E94EC0D64EC72E08EE494E0D1
:105230000E94440768EE73E080E090E00E948005E1
:105240006EE474E0C8010E94B011C8010E94EC0D28
:1052500060EB72E08EE494E00E94440768EE73E035
:1052600080E090E00E9480056EE474E0C8010E9436
:10527000B011C8010E94EC0D61E972E08EE494E087
:105280000E94440768EE73E080E090E00E94800591
:105290006EE474E0C8010E94B011C8010E94EC0DD8
:1052A00064EF71E080E090E00E9480056EE474E0BD
:1052B000C8010E94B011C8010E94EC0D68EE73E0B5
:1052C00080E090E00E9480051092D1031092D003FC
:1052D00010921F04109241040E94F00383EB92E0AD
:1052E000909399038093980384EB92E090939D03AD
:1052F00080939C0389EB92E00E94EC0E60E177E2E0
:1053000080E090E00E94800581E090E09A838983AC
:10531000C8010E94D9148F3F11F40E940C1B0E94F7
:105320003515C4010E946A12B4018BE196E00E9417
:105330001210C4010E94EC0D6EE474E0C4010E94DE
:10534000B011C4010E94EC0D64E670E080E090E0D2
:105350000E94800562E473E08EE494E00E944407BA
:1053600060E177E280E090E00E9480056CE373E00A
:105370008EE494E00E94440768EE73E080E090E0E1
:105380000E9480056EE474E0C4010E94B011C40163
:105390000E94EC0D48EC50E065E070E082E695E09C
:1053A0000E94FD090E94D911662463948EE494E062
:1053B0000E940208181619060CF08FC080917D0516
:1053C00081118BC08EE494E00E94E007782E8091DA
:1053D0000403882309F47DC10E94DB055B016C0195
:1053E0002BA53CA54DA55EA56FA578A989A99AA96D
:1053F0002053384F4F4F5F4F6F4F7F4F8F4F9F4F0F
:1054000019012A01B62FA72FF82FE92F9501A60120
:1054100060E070E080E090E051016201EB2EFA2E36
:105420000F2F1E2F0E94513119F010F081E2782EBB
:1054300080910303E82FF0E090911A06EF58FA4F9D
:10544000971559F0708A8F5F8E3620F01DE6109305
:105450000303ACCF80930303A9CF108A10920403F7
:105460001092030381E895E09093800580937F0577
:1054700060927D0542E350E061E070E082E695E0F5
:105480000E94FD0980917D05811148C180917F05B1
:10549000909180059A8F898F0E94EC0EA98DBA8D0C
:1054A000FD0101900020E9F73197EA1BFB0B3497CF
:1054B000A0F011968C91833481F08E3471F0CE017E
:1054C00049960E94350F8091CB038B3409F4D6C1E5
:1054D0000CF027C1893409F499C180911503882300
:1054E00009F4CBC288EE93E00E94E70580910C039B
:1054F000811179C280913B050E94990321E0892B9B
:1055000009F420E080911603821305C08091060300
:10551000882309F4B7C060920C030E94DB056093F6
:1055200008037093090380930A0390930B038091FF
:105530001403882321F088E495E00E94F809809103
:1055400014038430D0F1F12C08EE13E0B801CE0141
:1055500049960E946C13CE0149960E94240F811136
:1055600022C021E02F1530F468E873E180E090E07C
:105570000E9480056CEC72E0C4010E941911BE010A
:10558000675E7F4FCE0143960E941011B401CE0199
:1055900043960E94FF11CE0143960E94EC0DC40178
:1055A0000E94EC0DF394CE0149960E94EC0D0F5F22
:1055B0001F4F0E3E33E0130749F661ED72E0CE0156
:1055C00085960E941911198280910603882361F043
:1055D00067ED72E0C4010E946C336091C903709161
:1055E000CA03C4010E945833F12C01E010E0B80155
:1055F000CE014F960E946C13CE014F960E94240F4D
:1056000081112AC041E04F1530F468E873E180E071
:1056100090E00E94800580910603882309F4DBC195
:10562000B401CE0143960E941911BE01615E7F4F05
:10563000CE0149960E941011BE016D5E7F4FCE01D2
:1056400049960E94FF11CE0149960E94EC0DCE01B1
:1056500043960E94EC0DF394CE014F960E94EC0D00
:105660000F5F1F4F0630110511F6CE0185960E947F
:10567000EC0D1092060364E08091C9039091CA0377
:105680000E94AB161BE38BEE94E00E94D909209197
:105690005C03181619060CF006C2211107C28BEE26
:1056A00094E00E94970990910E03992309F4F5C1A3
:1056B00090910D03E92FF0E0E05EFC4F8E3309F48A
:1056C000E4C180839F5F9C3308F4DCC110930D0319
:1056D000DACF80911706781661F080911806781657
:1056E00021F080911906781261CE3DE030931A06C0
:1056F00003C021E220931A060E94DB057B018C0186
:1057000020E030E0A9016BA7FCA68DA71EA72FA75C
:1057100038AB49AB5AAB6092040348CE10927D057A
:10572000B5CE813509F456C0843509F0D6CE0E9435
:10573000C20D813019F170F0823009F0CECE609147
:10574000C9037091CA038091C7039091C8030E9456
:10575000111AC3CE0E940210882309F4BECE0E9403
:105760002D14682F70E06115710509F4B6CE809193
:10577000C9039091CA030E945814AFCE0E94021030
:10578000882319F00E94AD1BA8CE6091C9037091C7
:10579000CA038091C7039091C8030E94111A811116
:1057A0009CCE64EC72E0CE0143960E941911609188
:1057B000C9037091CA03C4010E941911BE016D5E34
:1057C0007F4FC4010E94FF11C4010E94EC0DCE0165
:1057D000439619C06091C9037091CA03C4010E9425
:1057E00019116091600370916103CE0143960E948C
:1057F0006C13B401CE0143960E94FF11CE01439673
:105800000E94EC0DC4010E94EC0D67CE80917105E1
:105810008C3449F48091C9039091CA030196909306
:10582000CA038093C9030E94C20D813091F0823077
:1058300009F053CE6091C9037091CA03809114039B
:105840008230C8F480910C01823090F08FEA91E0B0
:105850007ECF90910C03992319F0809307033DCEDE
:105860006091C9037091CA0380911403823018F4C7
:105870008CEF91E06CCF83EB91E069CF8091C9030D
:105880009091CA030E9403308C014497449708F01A
:1058900091C08091C1039091C2030E940330182FE0
:1058A0008091C3039091C4030E940330F82E80912D
:1058B000C5039091C6030E940330E82E8091C70370
:1058C0009091C8030E94033009838A83EB82FC8293
:1058D0001D831E82C4010E94A80A80917105813532
:1058E000A1F4CE0143960E94460BCE0143960E943E
:1058F000490AAB01BC014054584361097109C40114
:105900000E94C90AC4010E94A80A66E090E080E0F3
:105910000E94AB16809171058C3409F0DECD6EE4E7
:1059200074E0C4010E94B011C4010E94EC0D64E651
:1059300070E080E090E00E9480056AE473E08EE40D
:1059400094E00E94440764E670E080E090E00E94EA
:10595000800582E40E940E0862E571E0CE01439664
:105960000E94191180917E058823D1F010927E0546
:1059700062E070E0C4010E942E11B401CE01439692
:105980000E941210C4010E94EC0D8B899C89009723
:1059900069F00E942130709375056093740517CFEC
:1059A00062E571E0C4010E941911E7CF60E070E088
:1059B000CB01F1CF68E873E180E090E00E948005C0
:1059C000809105038F5F80930503823008F085CDB9
:1059D0000E94D91182CDBE016B5D7F4FCE014396EF
:1059E0000E94101122CE84E690E00E94E705C0904C
:1059F0000803D0900903E0900A03F0900B03409154
:105A0000110328EE33E0429FC001439F900D112403
:105A10009093400580933F05892B51F10E94DB054F
:105A20008B019C010C191D092E093F0940913F056E
:105A3000509140056A01F12CE12C0C151D052E0535
:105A40003F05B0F06093440570934505809346058B
:105A5000909347051092070310920C038091140352
:105A6000882309F40FCE88E495E00E94F3090ACE5A
:105A7000809107038111EECF05CE80E49FE10E9463
:105A8000E70500CE90930D03FECD108210920E0319
:105A900010920D0360925C03F6CD8C3309F0F3CDC8
:105AA00060920E03F0CD222309F4C3C080E293E09C
:105AB0009A8F898FCE0149960E94350FE091C903D4
:105AC000F091CA038081853409F420C10CF092C0A2
:105AD000813409F4F8C00CF081C0853209F4ADC1FD
