:100000000C9467010C948F010C948F010C948F0158
:100010000C948F010C948F010C948F010C948F0120
:100020000C948F010C948F010C94DE130C945014DB
:100030000C948F010C948F010C948F010C948F0100
:100040000C948F010C948F010C948F010C948F01F0
:100050000C948F010C948F010C948F010C945722F7
:100060000C948F010C9411170C94EB160C948F01C7
:100070000C948F010C948F010C948F010C948F01C0
:100080000C948F010C948F010C948F010C948F01B0
:100090000C945C1A0C948F010C948F010C948F01BA
:1000A0000C948F010C948F010C948F0117181A185F
:1000B00009180D1813183B183B183B181E18221866
:1000C00026182C1830183B183618415426570D00A6
:1000D00041542B43545A523D310D0A0041542B4395
:1000E000545A553D310D0A0041542B4950523D316F
:1000F000393230300D0A004154480D0A0041544451
:10010000303B0D0A0041542B4346554E3D310D0AFC
:100110000041542B4346554E3D300D0A00450045E5
:1001200000450041542B434855500D0A0041542BC3
:100130004353510D0A00220D0041542B434D4753A8
:100140003D220041542B43434C4B3F0D0A00080B0A
:100150000002020201000904000001020200000581
:1001600024001001052401010104240206052406CF
:1001700000010705810310004009040100020A0084
:10018000000007050202400000070583024000004E
:100190000403090412010002EF0201404F1B069202
:1001A000000101020301537061726B46756E0053CA
:1001B0007061726B46756E2050726F204D6963726C
:1001C0006F0000000000240027002A002D003000EE
:1001D00000000000250028002B002E003100000048
:1001E00000002300260029002C002F000404040432
:1001F00004030405020202020403020202020606CC
:1002000006060606040402020204040408020110A1
:10021000408040102040804080080204018040203F
:100220001002011080102040402000000002000950
:100230000F0000030401000C00000000000000009B
:10024000000000000000000041542B4347534E0DB6
:100250000A0041542B4347455245503D300D0A009A
:10026000415445300D0A0061742B717572636366E9
:10027000673D22757263706F7274222C22756172F1
:100280007431220D0A0041542B434E4D493D312C0F
:10029000322C302C302C300D0A0041542B434C4969
:1002A000503D310D0A0041542B434D47463D310D21
:1002B0000A0041542B435245473D310D0A001F1C93
:1002C0001F1E1F1E1F1F1E1F1E1F512B062C112419
:1002D0001FBECFEFDAE0DEBFCDBF25E0A6EBB2E078
:1002E00001C01D92AD3FB207E1F712E0A0E0B1E01E
:1002F000E2E6F4E602C005900D92A63BB107D9F7FD
:1003000011E0C6E6D1E004C02197FE010E94132D42
:10031000C536D107C9F70E94A1220C9424320C944F
:10032000000064E871E080918E0590918F050E9435
:10033000262F892B21F581E40E947D0D019761F024
:1003400080911D03882399F081E40E947D0D181689
:1003500019066CF410921D030E949B0C40E061E4AE
:1003600080919205909193050E94530E089542E367
:1003700050E068E070E080EB94E00E94341F80E081
:10038000089546E050E063EC72E080919005909112
:1003900091050E94542F21E0892B09F020E0822F43
:1003A000089564E071E080919205909193050E9418
:1003B000CE0D009761F09C012150310925303105A7
:1003C00020F0069724F082E0089581E0089580E00F
:1003D0000895FF920F931F93CF93DF93EC01F62EB6
:1003E00008811981C8010E948A2CF81621F06F2D0E
:1003F000C8010E94922CCE01DF91CF911F910F91E5
:10040000FF900895EF92FF920F931F93CF93DF9386
:10041000CDB7DEB72C970FB6F894DEBF0FBECDBFB9
:100420008C017B016AEE71E00E94262F892BA1F5D9
:100430001091C00264EF71E080E090E00E94321CF5
:1004400063E271E086E993E00E949C1680910401CA
:10045000823000F588EE93E0189FA001199F500D9F
:1004600011244115510539F061E070E081EA94E012
:100470000E94341F0FC08091A1040E949E1B892BF3
:1004800029F481EA94E00E942F1F04C081EA94E0DD
:100490000E942A1F62E02BC068E571E0C8010E943B
:1004A000262F892B09F048C08091BD02823008F0C8
:1004B00043C0809192040E949E1B892BE9F5109104
:1004C000C10264EF71E080E090E00E94321C63E2C0
:1004D00071E086E993E00E949C16809104018D7F73
:1004E00029F48091BD02882309F441C063E0C7016B
:1004F0000E94F4211091BC021123B9F16AE871E065
:10050000CE0107960E94C9136091920570919305E0
:10051000CE0101960E94C913BE01695F7F4FCE01D3
:1005200001960E94B10FCE0101960E94BB13CE012D
:1005300007960E94BB1341C064E571E0C8010E94A8
:10054000262F892BC9F564EF71E080E090E00E94CE
:10055000321C63E271E086E993E00E949C16809170
:100560000401882329F1833019F111E026C088EEB7
:1005700093E0189FA001199F500D112441155105BA
:1005800039F061E070E082E994E00E94341FAECF60
:10059000809192040E949E1B892B29F482E994E0A9
:1005A0000E942F1FA3CF82E994E00E942A1F9ECFB2
:1005B00081E08093B902D9CF10E0812F2C960FB63D
:1005C000F894DEBF0FBECDBFDF91CF911F910F9189
:1005D000FF90EF900895EF92FF920F931F93CF93A8
:1005E000DF93CDB7DEB76F970FB6F894DEBF0FBEBF
:1005F000CDBF8C017B01161617060CF03FC0609131
:100600008E0570918F0546E050E0CE0101960E9464
:10061000622FFF92EF928AE292E09F938F937E0186
:100620008EE0E80EF11CFF92EF920E94712FB7014D
:10063000CE0101960E94392FBE016F5F7F4FCE0120
:100640004A960E94C913B801CE0144960E94C9136C
:10065000BE01665E7F4FCE0144960E94B10FCE016F
:1006600044960E94BB13CE014A960E94BB130F9082
:100670000F900F900F900F900F9021C064E071E0E9
:100680000E94CE0D18161906D4F46DE871E0CE0163
:100690000E960E94C913B801CE0101960E94C9139B
:1006A000BE01625F7F4FCE0101960E94B10FCE0165
:1006B00001960E94BB13CE010E960E94BB136F964B
:1006C0000FB6F894DEBF0FBECDBFDF91CF911F9163
:1006D0000F91FF90EF9008954F925F926F927F92EB
:1006E0008F929F92AF92BF92CF92DF92EF92FF9242
:1006F0000F931F93CF93DF93CDB7DEB7C756D109C2
:100700000FB6F894DEBF0FBECDBF64E971E08091F3
:100710008E0590918F050E94262F892B19F50E9436
:100720009B0C6AE871E0CE01895B9F4F0E94C91360
:100730006091920570919305CE0101960E94C913B4
:10074000BE01695B7F4FCE0101960E94B10FCE01C1
:1007500001960E94BB13CE01895B9F4F0E94BB1381
:100760000E9435216BE971E080918E0590918F0593
:100770000E94262F892B81F5E0918C05F0918D0543
:1007800086E0A3ECB2E001900D928A95E1F7109219
:10079000CA0283EC92E00E94B70E6AE871E0CE01D3
:1007A000895B9F4F0E94C9136091920570919305D8
:1007B000CE0101960E94C913BE01695B7F4FCE0135
:1007C00001960E94B10FCE0101960E94BB13CE018B
:1007D000895B9F4F0E94BB1364E871E080918E0596
:1007E00090918F050E94262F892B51F40E94910130
:1007F000682F70E080919205909193050E94EB0222
:1008000063EA71E080918E0590918F050E94262FFA
:10081000892B31F581E080931D0380EB94E00E94E9
:100820002F1F6AE871E0CE01895B9F4F0E94C913B8
:100830006091920570919305CE0101960E94C913B3
:10084000BE01695B7F4FCE0101960E94B10FCE01C0
:1008500001960E94BB13CE01895B9F4F0E94BB1380
:100860006DEA71E080918E0590918F050E94262F90
:10087000892B09F069C080918C0590918D050E94AB
:100880000E2C5C0180918A0590918B050E940E2CA4
:100890006C018501AC14BD040CF056C063EA72E033
:1008A000CE0101960E94C9137801480129E0820E09
:1008B000911C8E149F04DCF0B701CE01895B9F4F21
:1008C0000E949510BE01695B7F4FCE0101960E9488
:1008D000E00ECE01895B9F4F0E94BB136AE0CE0100
:1008E00001960E94880C3FEFE31AF30AE2CFBE01A3
:1008F0006F5F7F4FCE018A5A9F4F0E94C013609155
:10090000920570919305CE01895B9F4F0E94C91398
:10091000BE016A5A7F4FCE01895B9F4F0E94B10F83
:10092000CE01895B9F4F0E94BB13CE018A5A9F4F15
:100930000E94BB13065F1F4F4AE0C41AD108CE01C4
:1009400001960E94BB13A6CF63EB71E080918E05E8
:1009500090918F050E94262F892B09F025C163EA0B
:1009600072E0CE01895B9F4F0E94C9136CE870E072
:10097000CE01895B9F4F0E941C13BE01645A7F4FBA
:1009800080E590E00E949F1F6E960EAD1FAD6E97A2
:10099000780189E1E81AF108F7FE16C0780194E1C0
:1009A000E91AF108F7FE10C07801EFE0EE1AF1083D
:1009B000F7FE0AC07801FAE0EF1AF108F7FE04C06A
:1009C000780125E0E21AF1081E141F040CF0E7C0BC
:1009D0000550110940E050E063EA72E0CE01895B06
:1009E0009F4F0E9483136E968EAD9FAD6E975C01F4
:1009F00031E0A31AB1082DE0289F2001299F500C57
:100A00001124612C712C49E0441A4EEB540AAE14A7
:100A1000BF040CF4C4C063EA72E0CE018A5A9F4F4F
:100A20000E94C9134201860C971CC12CD12CC6010F
:100A3000880D991D0E94150D682F86E0C816D104F7
:100A400009F45DC095E0C916D10419F445E050E001
:100A500006C0E9E0CE16D104D1F449E050E0CE0161
:100A600001960E940E10BE016F5F7F4FCE018A5A21
:100A70009F4F0E94E00ECE0101960E94BB136BEBCC
:100A800071E0CE018A5A9F4F0E94311938C0FBE0B5
:100A9000CF16D10419F44BE050E0E1CF2CE0C216A0
:100AA000D104E1F4862F90E08230910519F46DEBCA
:100AB00071E0E7CF8330910519F468E072E0E1CF8F
:100AC0008430910519F460EC71E0DBCF069719F4DE
:100AD00063EC71E0D6CF4CE050E001C0A601CE013E
:100AE00001960E940E10BE016F5F7F4FCE018A5AA1
:100AF0009F4F0E94E00ECE0101960E94BB133FEF74
:100B0000C31AD30A4DE0C416D10409F090CFBE0138
:100B10006A5A7F4FCE01895B9F4F0E94E00ECE0143
:100B20008A5A9F4F0E94BB136AE0CE01895B9F4F98
:100B30000E94880C0A151B0559F5BE01695B7F4FA1
:100B4000CE018A5A9F4F0E94C01360919205709106
:100B50009305CE0101960E94C913BE016A5A7F4FC8
:100B6000CE0101960E94B10FCE0101960E94BB13E7
:100B7000CE018A5A9F4F0E94BB1340E050E063EAC7
:100B800072E0CE01895B9F4F0E94831305501109CB
:100B900081E0A81AB1089DE0691A710838CFCE012A
:100BA000895B9F4F0E94BB1366EC71E080918E05BC
:100BB00090918F050E94262F892B49F580918A05F7
:100BC00090918B0500918C0510918D05009711F483
:100BD00040E003C00E940E2C482F65E4C8010E942B
:100BE000530E8C01181619061CF40E949B0C08C0A9
:100BF00042E350E068E070E080EB94E00E94341F34
:100C0000B80180919205909193050E94EB026AECE5
:100C100071E080918E0590918F050E94262F892B7F
:100C200009F064C040E065E480918C0590918D05E9
:100C30000E94530E31E020E0181619060CF030E047
:100C4000032F122F80918A0590918B05892B99F0A3
:100C500068EE73E080E090E00E94321C40E065E4C2
:100C600080918A0590918B050E94530E18161906E3
:100C700014F40F5F1F4F8091880590918905892B8F
:100C800099F068EE73E080E090E00E94321C40E052
:100C900065E480918805909189050E94530E18168D
:100CA000190614F40F5F1F4F8091860590918705F8
:100CB000892B99F068EE73E080E090E00E94321C8E
:100CC00040E065E480918605909187050E94530E6F
:100CD0001816190614F40F5F1F4F0E949B0CB801E1
:100CE00080919205909193050E94EB026FEC71E068
:100CF00080918E0590918F050E94262F892BE1F41B
:100D000080918C0590918D050E9400198C01181618
:100D100019061CF40E949B0C08C042E350E068E0F6
:100D200070E080EB94E00E94341FB801809192053E
:100D3000909193050E94EB0263ED71E080918E0526
:100D400090918F050E94262F892B79F443E063E56B
:100D500080918C0590918D050E94530EBC0180916D
:100D60009205909193050E94EB0267ED71E08091EE
:100D70008E0590918F050E94262F892B79F5809101
:100D80008C0590918D050E940E2C8093C00260EC22
:100D900072E08AE090E00E94781F60918C0570916B
:100DA0008D05CE01895B9F4F0E94C913609192050A
:100DB00070919305CE0101960E94C913BE01695B33
:100DC0007F4FCE0101960E94B10FCE0101960E9485
:100DD000BB13CE01895B9F4F0E94BB136EED71E088
:100DE00080918E0590918F050E94262F892B79F591
:100DF00080918C0590918D050E940E2C8093C102EC
:100E000060EC72E08AE090E00E94781F60918C05AF
:100E100070918D05CE01895B9F4F0E94C91360912F
:100E2000920570919305CE0101960E94C913BE01EF
:100E3000695B7F4FCE0101960E94B10FCE010196F2
:100E40000E94BB13CE01895B9F4F0E94BB1365EECE
:100E500071E080918E0590918F050E94262F892B3D
:100E600009F03FC081E08093BE0281E090E09A8368
:100E70008983BE016F5F7F4F82E390E00E94781FFD
:100E800080918C0590918D050E940E2C9093BB0251
:100E90008093BA026AEB72E086E390E00E94781FCA
:100EA0000E949B0C6DEE71E0CE01895B9F4F0E940A
:100EB000C9136091920570919305CE0101960E942D
:100EC000C913BE01695B7F4FCE0101960E94B10F2D
:100ED000CE0101960E94BB13CE01895B9F4F0E94F9
:100EE000BB1360EF71E080918E0590918F050E9499
:100EF000262F892B71F582E994E00E942A1F109217
:100F0000BE021A821982BE016F5F7F4F82E390E0BA
:100F10000E94781F69EF71E0CE01895B9F4F0E94AC
:100F2000C9136091920570919305CE0101960E94BC
:100F3000C913BE01695B7F4FCE0101960E94B10FBC
:100F4000CE0101960E94BB13CE01895B9F4F0E9488
:100F5000BB136DEF71E080918E0590918F050E941B
:100F6000262F892B89F580918C0590918D050E9403
:100F70000E2C21E0892B09F420E02093BC026CEBBD
:100F800072E08EE390E00E94AD206AE871E0CE014D
:100F9000895B9F4F0E94C9136091920570919305E0
:100FA000CE0101960E94C913BE01695B7F4FCE013D
:100FB00001960E94B10FCE0101960E94BB13CE0193
:100FC000895B9F4F0E94BB1363E072E080918E05A6
:100FD00090918F050E94262F892B79F580918C05A1
:100FE00090918D050E940E2C8093BD020E949B0C57
:100FF0006DEB72E084E390E00E94AD206AE871E05E
:10100000CE01895B9F4F0E94C91360919205709138
:101010009305CE0101960E94C913BE01695B7F4F03
:10102000CE0101960E94B10FCE0101960E94BB1322
:10103000CE01895B9F4F0E94BB136BE072E08091F1
:101040008E0590918F050E94262F892BA9F58091FE
:101050008C0590918D050E940E2C21E0892B09F4BE
:1010600020E02093BF020E949B0C6FEB72E088E2AD
:1010700090E00E94AD2060918C0570918D05CE01AD
:10108000895B9F4F0E94C9136091920570919305EF
:10109000CE0101960E94C913BE01695B7F4FCE014C
:1010A00001960E94B10FCE0101960E94BB13CE01A2
:1010B000895B9F4F0E94BB1361E172E080918E05B6
:1010C00090918F050E94262F892B91F464E071E0A6
:1010D00080919205909193050E94CE0D9093CD0240
:1010E0008093CC026DE271E086E993E00E949C1649
:1010F00068E172E080918E0590918F050E94262F05
:10110000892BA1F561E08EE290E00E94922C6AE8C2
:1011100071E0CE01895B9F4F0E94C91360919205D7
:1011200070919305CE0101960E94C913BE01695BBF
:101130007F4FCE0101960E94B10FCE0101960E9411
:10114000BB13CE01895B9F4F0E94BB139EE088E1D9
:101150000FB6F894A895809360000FBE909360003E
:1011600060ED77E080E090E00E94321C6CE571E079
:1011700080918E0590918F050E94262F892B91F4E6
:1011800080918C0590918D050E940E2C21E0892B79
:1011900009F420E02093B80268EB72E08CE490E060
:1011A0000E94AD206DE172E080918E0590918F05D7
:1011B0000E94262F892B81F480918C0590918D05BA
:1011C0000E940E2C9093CB028093CA026AEC72E0CC
:1011D0008EE490E00E94781F61E272E080918E05BB
:1011E00090918F050E94262F892B09F031C1198219
:1011F0008091C0021F928F9388E292E09F938F9319
:101200008E01095B1F4F1F930F930E94712FB8012E
:10121000CE0101960E94392FF80110828091C102FF
:101220001F928F938EE292E09F938F931F930F9361
:101230000E94712FB801CE0101960E94392FF8014A
:1012400010828091BC021F928F9385E392E09F935E
:101250008F931F930F930E94712FB801CE010196B7
:101260000E94392FF80110828091B8021F928F934B
:101270008DE3E82E82E0F82EFF92EF921F930F93FA
:101280000E94712FB801CE0101960E94392FF801FA
:1012900010828091CB028F938091CA028F93FF922C
:1012A000EF921F930F930E94712FB801CE01019608
:1012B0000E94392FF80110828091BE021F928F93F5
:1012C00081E492E09F938F931F930F930E94712F5D
:1012D0000FB6F894DEBF0FBECDBFB801CE010196A8
:1012E0000E94392FF80110828091BD021F928F93C6
:1012F0008BE492E09F938F931F930F930E94712F23
:10130000B801CE0101960E94392FF8011082809118
:10131000BB028F938091BA028F9380E592E09F93F6
:101320008F931F930F930E94712FB801CE010196E6
:101330000E94392FF80110828091EB051F928F9344
:1013400085E592E09F938F931F930F930E94712FD7
:10135000B801CE0101960E94392FF8011082CE010A
:101360008A5A9F4F0E948D206A968FAD6A971F926E
:101370008F9367968FAD67971F928F9368968FAD07
:1013800068971F928F9369968FAD69971F928F937D
:101390008DE592E09F938F931F930F930E94712F7F
:1013A000B801CE0101960E94392FF80110826B9688
:1013B0008FAD6B970FB6F894DEBF0FBECDBF8A30EE
:1013C00028F41F928F938BE692E004C01F928F93B4
:1013D0008EE392E09F938F931F930F930E94712F40
:1013E0000F900F900F900F900F900F90B801CE01BB
:1013F00001960E94392FF80110826FE672E0CE014B
:1014000001960E94392FBE016F5F7F4FCE018E592A
:101410009F4F0E94C9136091920570919305CE0170
:10142000845A9F4F0E94C913BE016E597F4FCE014F
:10143000845A9F4F0E94B10FCE01845A9F4F0E9441
:10144000BB13CE018E599F4F0E94BB130E949B0C71
:1014500068E772E080918E0590918F050E94262F9B
:10146000892B89F580918C0590918D050E940E2C19
:1014700021E0892B09F420E02093EB056BEE75E069
:1014800088EC90E00E94AD206AE871E0CE01895BB3
:101490009F4F0E94C9136091920570919305CE01F0
:1014A00001960E94C913BE01695B7F4FCE01019670
:1014B0000E94B10FCE0101960E94BB13CE01895B41
:1014C0009F4F0E94BB136CE772E080918E05909154
:1014D0008F050E94262F892BC9F480918C0590914D
:1014E0008D050E940E2C2091EE053091EF05280FFE
:1014F000391F253F314054F49093ED058093EC055E
:101500006CEE75E08EE690E00E94781F62E872E073
:1015100080918E0590918F050E94262F892B09F0CE
:1015200050C0198260918C0570918D0544E150E0A6
:10153000CE0101960E94622F9E012F5F3F4F7901DD
:1015400002ED10E0F70161917F0129961FAF0EAF08
:101550002997CE01895B9F4F0E94E9010F5F1F4FC2
:10156000063E110579F780918A0590918B050E94BE
:101570000E2C682F8DEC90E00E94922CBE016F5FC4
:101580007F4FCE018A5A9F4F0E94C91360919205E6
:1015900070919305CE01895B9F4F0E94C913BE01D4
:1015A0006A5A7F4FCE01895B9F4F0E94B10FCE01D7
:1015B000895B9F4F0E94BB13CE018A5A9F4F0E94A6
:1015C000BB1365E872E080918E0590918F050E94B3
:1015D000262F892B11F581E08093EA056AE871E0F6
:1015E000CE01895B9F4F0E94C91360919205709153
:1015F0009305CE0101960E94C913BE01695B7F4F1E
:10160000CE0101960E94B10FCE0101960E94BB133C
:10161000CE01895B9F4F0E94BB136BE872E0809103
:101620008E0590918F050E94262F892B09F052C0BC
:10163000A4961FAE1EAEA4976E961FAE1EAE6E97FA
:10164000BE01645A7F4FCE018E599F4F0E94CD1824
:1016500019826E968FAD6E978F936D968FAD6D9745
:101660008F93A4968FADA4978F93A3968FADA397D6
:101670008F9382E992E09F938F938E010F5F1F4FAC
:101680001F930F930E94712FB801CE018A5A9F4F6A
:101690000E94C9136091920570919305CE01895BF8
:1016A0009F4F0E94C913BE016A5A7F4FCE01895BCA
:1016B0009F4F0E94B10FCE01895B9F4F0E94BB13C9
:1016C000CE018A5A9F4F0E94BB130FB6F894DEBF1B
:1016D0000FBECDBF6CE972E080918E0590918F05B1
:1016E0000E94262F892B71F5CE0101960E949D1D27
:1016F000BE016F5F7F4F8BE695E00E94E212CE0144
:1017000001960E94BB136BE675E0CE01895B9F4F8B
:101710000E94C0136091920570919305CE010196CD
:101720000E94C913BE01695B7F4FCE0101960E94E2
:10173000B10FCE0101960E94BB13CE01895B9F4F72
:101740000E94BB13C959DF4F0FB6F894DEBF0FBE1E
:10175000CDBFDF91CF911F910F91FF90EF90DF9060
:10176000CF90BF90AF909F908F907F906F905F9041
:101770004F900895282F30918903313208F04AC0E4
:10178000809166038111FCCF9091710542E04093F6
:101790006603209365032FEF209364031092630385
:1017A00030936203E9E6F3E0A2E4B3E020E032170D
:1017B00021F041914D932F5FFACF10924103209178
:1017C0004103990F922B90934103909140039130E4
:1017D00061F410924003909141039093BB0090916B
:1017E000BC0093FDF8CF95EC01C095EE9093BC0042
:1017F000909166039230E1F3909164039F3F79F0FA
:1018000080916403803241F080916403803331F031
:1018100084E005C081E003C082E001C083E0109253
:10182000680310928903109267030895682F8AE86D
:1018300093E00C94D0170F931F930E946C1C60933D
:101840009E0370939F038093A0039093A10386E966
:1018500093E00E94DD1197FF1FC00E946C1C009155
:101860009E0310919F032091A0033091A103DC01FE
:10187000CB01801B910BA20BB30B00919A0310912B
:101880009B0320919C0330919D0380179107A20731
:10189000B307E8F28FEF9FEF1F910F910895EF923A
:1018A000FF920F931F93CF93DF93CDB7DEB72997A6
:1018B0000FB6F894DEBF0FBECDBF8C01862FF801A6
:1018C0001182108213821282158214824AE09E01D4
:1018D0002F5F3F4F7901B90190E00E94602CF70122
:1018E00001900020E9F73197AF014E195F09B70168
:1018F000C8010E94831329960FB6F894DEBF0FBE6D
:10190000CDBFDF91CF911F910F91FF90EF90089580
:10191000CF93DF9300D0CDB7DEB769831A8241E061
:1019200050E0BE016F5F7F4F0E9443130F900F90F6
:10193000DF91CF91089548EC50E064E070E080EBD7
:1019400094E00C94341F1F93CF93DF93EC01162F78
:1019500081E08093670380E58093710510926803AE
:10196000109289038D2F90E00E94160CCE019927CA
:101970000E94160C612F8AE893E00E94D01781E044
:101980000E94BA0B64E170E080E090E0DF91CF91BB
:101990001F910C94321CCF92DF92EF92FF920F9323
:1019A0001F93CF93DF938B01009729F07C0182E096
:1019B000C82ED12C1CC0C0E0D0E060E0CE01800F6A
:1019C000911F0E94A30C2196C630D105B1F724C007
:1019D000CE010E94C92D82E0E80EF11C82E0C80E03
:1019E000D11C0F5F1F4F8EE0C816D104A9F082E012
:1019F00090E00E94312DEC011882A601B7010E94EF
:101A00001D2F1A82CE010E940E2C682FC8010E9441
:101A1000A30C2097E9F6DFCFDF91CF911F910F91B3
:101A2000FF90EF90DF90CF900895CF93DF93EC017C
:101A300081E08093670380E58093710510926803CD
:101A4000109289038D2F90E00E94160CCE019927E9
:101A50000E94160C81E00E94BA0B809166038111EE
:101A6000FCCF81E080936603809365039FEF9093A2
:101A70006403109263031092620380934103809188
:101A80004103806A8093410380914003813061F477
:101A900010924003809141038093BB008091BC0071
:101AA00083FDF8CF85EC01C085EE8093BC0080916A
:101AB00066038130E1F380916303811103C090914B
:101AC000630301C091E0A2E4B3E0E0E2F3E080E070
:101AD000891721F02D9121938F5FFACF10921F0368
:101AE00080931E03882329F08AE893E00E948717D9
:101AF00001C08FEFDF91CF910895CF92DF92EF92E7
:101B0000FF920F931F93CF93DF93E090BF04F09069
:101B1000C004853441F0833549F0813469F485E0AF
:101B2000E82EF12C09C0C6E0D0E008C0E7012196FC
:101B300085E0E80EF11C02C0C1E0D0E0CE010197C3
:101B400027E0289F8001299F100D1124EC16FD0627
:101B5000D4F0680187E0C80ED11C0C151D051CF0DF
:101B600021968601F3CFC8010E94150D8111F8CF8F
:101B7000C80101968C159D059CF70E94150D8111D9
:101B8000EFCFCE0102C080E090E0DF91CF911F91B6
:101B90000F91FF90EF90DF90CF9008952F923F929A
:101BA0004F925F926F927F928F929F92AF92BF926D
:101BB000CF92DF92EF92FF920F931F93CF93DF9319
:101BC000482E392E3B01C12CD12CC1E0D0E08091B0
:101BD000BF049091C00405968C179D070CF44EC06D
:101BE000E42CF32C560100E010E0502E82E090E04F
:101BF0000E94312D4C010F5F1F4FA801440F551F4C
:101C0000B701C4010E941D2FF4011282C5010E9478
:101C1000150D282EC4010E940E2C222D30E028170D
:101C2000390789F48114910419F0C4010E94C92D67
:101C3000502EF2E0EF0EF11C8FEFA81AB80A073011
:101C4000110599F606C08114910419F0C4010E948F
:101C5000C92DE7E0CE0ED11CF5E0F51568F427E0BC
:101C60002C9FC0012D9F900D112401970E94150DEE
:101C7000F3018083CE0104C02196A9CF80E090E0DB
:101C8000DF91CF911F910F91FF90EF90DF90CF9058
:101C9000BF90AF909F908F907F906F905F904F908C
:101CA0003F902F900895CF92DF92EF92FF920F9383
:101CB0001F93CF93DF931F92CDB7DEB74983FC010B
:101CC00001900020E9F73197E81BF90BEB30F105A3
:101CD00018F480E090E030C0DC01E80FF91F2D918E
:101CE000022E000C330B205331092A30310588F7BE
:101CF000AE17BF07A1F7F62E8C01BE016F5F7F4FB5
:101D00000E94CE0D892B29F78F2D0E947D0D7C011D
:101D100018161906F4F6019727E0289F6001299FFD
:101D2000D00C1124B601C8010E94CB0C6981C601F8
:101D300006960E94A30CC7010F90DF91CF911F91CF
:101D40000F91FF90EF90DF90CF900895FC012481D8
:101D50003581232B49F062E871E0808191810E94F6
:101D6000442F21E0892B09F020E0822F0895CF92A3
:101D7000DF92EF92FF920F931F93CF93DF9300D0E8
:101D8000CDB7DEB76C017C0100E010E0F701619196
:101D90007F011A830983CE0101960E94E9010F5F3A
:101DA0001F4F0730110591F7C6010F900F90DF917B
:101DB000CF911F910F91FF90EF90DF90CF900895FA
:101DC000FB0144815581608171810C944313CF9351
:101DD000DF93BC0183E394E00E949C16EC0183E353
:101DE00094E00E94D5168C0F9D1FDF91CF9108952E
:101DF0008F929F92AF92BF920F931F93CF93DF93D7
:101E0000CDB7DEB7A1970FB6F894DEBF0FBECDBF3A
:101E100019A2423008F44AE08E010F5D1F4F842E54
:101E2000912CA12CB12CA50194010E94F12CE62F3C
:101E3000B901CA0101501109EA3014F4E05D01C092
:101E4000E95CD801EC93232B242B252B61F7B801F7
:101E500083E394E00E94C016A1960FB6F894DEBF0B
:101E60000FBECDBFDF91CF911F910F91BF90AF906B
:101E70009F908F900895CF92DF92EF92FF92CF9331
:101E8000DF936C01990FEE08FF08F7FE19C06DE2B1
:101E900083E394E00E94161EEC0166277727CB01AE
:101EA0006C197D098E099F094AE00E94F80E8C0F7B
:101EB0009D1FDF91CF91FF90EF90DF90CF9008951D
:101EC0004AE0C701B601DF91CF91FF90EF90DF901C
:101ED000CF900C94F80ECF93DF930E943B0FEC0150
:101EE00083E394E00E94D5168C0F9D1FDF91CF9164
:101EF0000895CF93DF93EC0163EA72E00E94C91367
:101F00000E941B0C97FD05C0682FCE010E94880C13
:101F1000F7CFCE01DF91CF910895CF93DF9300D01B
:101F200000D000D0CDB7DEB7CE0101960E94790F68
:101F3000CE0101960E94BB1364E670E080E090E061
:101F40000E94321C63E471E086E993E00E949C16D3
:101F500026960FB6F894DEBF0FBECDBFDF91CF91AE
:101F60000895EF92FF920F931F93CF93DF9300D0CA
:101F700000D000D0CDB7DEB77C018B01CE01019639
:101F80000E94790FCE0101960E94BB1364E670E0B7
:101F900080E090E00E94321C69E371E086E993E002
:101FA0000E949C16B70186E993E00E948E1666E3B4
:101FB00071E086E993E00E949C1664E670E080E0A0
:101FC00090E00E94321CB80186E993E00E94D91685
:101FD00064E670E080E090E00E94321C6AE186E9ED
:101FE00093E00E9436126CED75E080E090E00E9474
:101FF000321CCE0101960E94790FCE0101960E94FB
:10200000BB1326960FB6F894DEBF0FBECDBFDF918F
:10201000CF911F910F91FF90EF900895CF92DF9293
:10202000FF920F931F93CF93DF93CDB7DEB76297E5
:102030000FB6F894DEBF0FBECDBF8C01F62E6A013D
:1020400063EA72E0CE010D960E94C91389E06F2DFC
:102050008F15B0F4CE0101960E944F0CBE016F5F48
:102060007F4FCE010D960E94E212BE01635F7F4F4B
:10207000C8010E94C013CE0101960E94BB1342C04A
:10208000CE010196E5E0CE16D10451F40E944F0C2A
:10209000BE016F5F7F4FCE010D960E94E21221C0FC
:1020A0000E944F0C62E871E0CE0107960E94C913AE
:1020B0004D815E8169817A81CE0107960E9443132A
:1020C000811104C0CE0107960E947113BE01695FA1
:1020D0007F4FCE010D960E94A413CE0107960E9459
:1020E000BB13CE0101960E94BB13F801118210822E
:1020F0001382128215821482BE01635F7F4FC80172
:102100000E94E212CE010D960E94BB13C801629696
:102110000FB6F894DEBF0FBECDBFDF91CF911F91F8
:102120000F91FF90DF90CF900895BF92CF92DF92F2
:10213000EF92FF920F931F93CF93DF93CDB7DEB74C
:102140002C970FB6F894DEBF0FBECDBF8C016B018C
:1021500063EA72E0CE0107960E94C91387E08C9D66
:1021600070018D9DF00C1124C70101970E94150D7F
:1021700080930401670187E0C81AD108B12CE12CD3
:10218000F12CC6018E0D9F1D0E94150D811101C0FD
:10219000B39493E09B1530F462E871E0C8010E94AB
:1021A000C91325C0A701682FCE0101960E940E1009
:1021B000BE016F5F7F4FCE0107960E94E00ECE01F9
:1021C00001960E94BB13EFEFEE1AFE0AF6E0EF163F
:1021D000F104B9F6F801118210821382128215827D
:1021E0001482BE01695F7F4FC8010E94E212CE01D6
:1021F00007960E94BB13C8012C960FB6F894DEBF59
:102200000FBECDBFDF91CF911F910F91FF90EF9047
:10221000DF90CF90BF90089508954091750550913B
:102220007605209173053091740542175307B4F475
:102230009091E8009570E1F39091E80092FD19C04B
:102240008093F100809175059091760501968F73CA
:102250009927892B19F48EEF8093E80080917505FA
:10226000909176050196909376058093750581E0AF
:10227000089580E00895DF92EF92FF920F931F93ED
:10228000CF93DF93D82EF92EE42E062F10E0C8014D
:102290000196880F0E940D1183E00E940D11CD2D33
:1022A000DF2D0C0F1D1FC017D10789F0E7FE03C0FB
:1022B000FE01849101C088810E940D11F82E80E0FA
:1022C0000E940D118F2121968111EDCF01C081E077
:1022D000DF91CF911F910F91FF90EF90DF900895C4
:1022E000DF92EF92FF920F931F93CF93DF93D82E3D
:1022F0008A017B01E40EF51EEB01CE15DF0571F0BE
:10230000D7FE03C0FE01849101C088810E940D1197
:1023100021968111F2CF8FEF9FEF01C0C801DF91AD
:10232000CF911F910F91FF90EF90DF900895615032
:1023300030F02091F100FC0120830196F8CF28981D
:1023400084E6809384050895CF92DF92EF92FF9206
:102350000F931F93CF93DF936C017A018B01C0E041
:10236000D0E0CE15DF0581F0D8016D918D01D60149
:10237000ED91FC910190F081E02DC6010995892B2A
:1023800011F02196EECF7E01C701DF91CF911F9111
:102390000F91FF90EF90DF90CF900895FC01538D47
:1023A000448D252F30E0842F90E0821B930B54172F
:1023B00010F0CF96089501970895FC01918D828DBC
:1023C000981761F0828DDF01A80FB11D5D968C9189
:1023D000928D9F5F9F73928F90E008958FEF9FEF94
:1023E0000895FC01918D828D981731F0828DE80F50
:1023F000F11D858D90E008958FEF9FEF0895FC010A
:10240000918D228D892F90E0805C9F4F821B9109D6
:102410008F739927089586E993E00E94FF1121E0C8
:10242000892B09F420E0822F0895FC01848DDF01BF
:10243000A80FB11DA35ABF4F2C91848D90E0019637
:102440008F739927848FA689B7892C93A089B18926
:102450008C9182748C93938D848D981306C002881E
:10246000F389E02D80818F7D80830895EF92FF9224
:102470000F931F93CF93DF93EC0181E0888F9B8DA7
:102480008C8D981305C0E889F989808185FD26C067
:10249000F62E0B8D10E00F5F1F4F0F731127E02EEC
:1024A0008C8DE8120CC00FB607FCFACFE889F989C9
:1024B000808185FFF5CFCE010E941512F1CF8B8D63
:1024C000FE01E80FF11DE35AFF4FF0829FB7F89429
:1024D0000B8FEA89FB898081806209C09FB7F894DD
:1024E000EE89FF896083E889F9898081827480831D
:1024F0009FBF81E090E0DF91CF911F910F91FF90FE
:10250000EF900895CF93DF93EC01888D8823C9F075
:10251000EA89FB89808185FD05C0A889B9898C91EC
:1025200086FD0FC00FB607FCF5CF808185FFF2CF87
:10253000A889B9898C9185FFEDCFCE010E94151233
:10254000E7CFDF91CF91089580E090E0892B29F0CB
:102550000E940B1281110C94000008950E94182F04
:102560000F931F93CF93DF931F92CDB7DEB782E017
:10257000898342E450E06EE471E080E80E947011CB
:102580000E948A1BDC0112960D911C911397011574
:10259000110589F0D801ED91FC910280F381E02DC5
:1025A000BE016F5F7F4FC801099597FD04C0F80118
:1025B00000851185ECCF89810F90DF91CF911F911C
:1025C0000F9108950F931F93CF93DF938C01EB012D
:1025D000FC0180819181009739F0688179816115D2
:1025E0007105A1F40E94C92D88819981F801918318
:1025F00080838A819B81938382838C819D81958353
:102600008483198218821B821A820FC0F8014281CA
:1026100053812C813D814217530720F30E944D2F97
:102620008C819D81F801958384831D821C82DF91BA
:10263000CF911F910F9108950F931F93CF93DF9325
:10264000EC0188819981009729F02A813B81261726
:10265000370788F48B016F5F7F4F0E94522E0097DF
:1026600061F0998388831B830A832C813D81232B0E
:1026700011F4FC01108281E001C080E0DF91CF9174
:102680001F910F910895EF92FF920F931F93CF9395
:10269000DF936115710511F480E01CC041155105EF
:1026A000C1F07B01EC018C819D818A01080F191F0B
:1026B000B801CE010E941C13882371F3288139814F
:1026C0008C819D81B701820F931F0E944D2F1D8326
:1026D0000C8381E0DF91CF911F910F91FF90EF90DC
:1026E0000895CF93DF93EC0188819981009711F0D1
:1026F0000E94C92D198218821D821C821B821A8297
:10270000DF91CF910895EF92FF920F931F93CF9394
:10271000DF93EC017B018A01BA010E941C13811135
:1027200004C0CE010E94711307C01D830C83B70142
:10273000888199810E944D2FCE01DF91CF911F9109
:102740000F91FF90EF900895CF93DF93EC01FB0181
:102750008617970761F0608171816115710529F015
:10276000448155810E94831302C00E947113CE01DF
:10277000DF91CF910895FC01808191810C94C92D46
:10278000FC011182108213821282158214820C9431
:10279000A413FC011182108213821282158214820A
:1027A0006115710551F0FB0101900020E9F73197A7
:1027B000AF01461B570B0C94831308951F920F9281
:1027C0000FB60F9211248F939F938091E100909107
:1027D000E100937F9093E10083FF0FC01092E90026
:1027E00091E09093EB001092EC0092E39093ED0057
:1027F0001092850598E09093F00082FF20C093E04E
:102800009093E9009091F200992319F09AE3909344
:10281000E80090917205992339F0909172059150DA
:1028200090937205992389F190918405992339F049
:1028300090918405915090938405992341F184FFF0
:1028400010C08091E2008E7E81608093E2008091D2
:10285000E1008F7E8093E1008091B6028E7E8061E0
:1028600011C080FF16C08091E2008E7E806180934F
:10287000E2008091E1008E7E8093E1008091B602BB
:102880008E7E81608093B60204C05D9ACDCF289A77
:10289000D6CF9F918F910F900FBE0F901F901895DC
:1028A0001F920F920FB60F921124CF92DF92EF92E8
:1028B000FF920F931F932F933F934F935F936F93C9
:1028C0007F938F939F93AF93BF93EF93FF93CF9398
:1028D000DF93CDB7DEB76C97DEBFCDBF1092E900B6
:1028E0008091E80083FFFBC168E0CE0145960E941D
:1028F000971182EF8093E8008D8987FF05C0909142
:10290000E80090FFFCCF03C09EEF9093E800982F63
:10291000907609F0C6C09E894F89588D2F89F88C12
:1029200091110CC0803829F48091B7028093F10096
:1029300002C01092F1001092F10045C1913051F4A3
:10294000811141C14130510509F03DC18091B7026B
:102950008D7F0BC0933061F4811135C14130510539
:1029600009F031C18091B70282608093B7022BC118
:10297000953049F48091E80080FFFCCF822F806879
:102980008093E30020C1963009F05EC00B8D1C8D52
:1029900022E01092E9001092760510927505F2126D
:1029A00032C010927405109273050E94B01299E023
:1029B000BE016F5F7F4FDB01E92F1D92EA95E9F7BA
:1029C0009983FA8291E09E8390EA98879AEF99879B
:1029D0002091750530917605275F3F4F3C832B830F
:1029E0008D831092E9001092760510927505109370
:1029F00074050093730549E050E080E00E94701177
:102A00000E94B012E0C010937405009373050E94F9
:102A10008A1BDC0112960D911C911397011511056B
:102A200009F4BBC0D801ED91FC910480F581E02D43
:102A3000BE016B5E7F4FC8010995009709F0C7C0C2
:102A4000F80100851185EACF973009F445C1983027
:102A500021F481E08093F100B6C0993009F0B3C051
:102A6000837009F039C1EEE4F1E081E031E096E3F2
:102A70002081211109C08EE78093EA001092EA00BC
:102A80008F89809385059FC08093E9003093EB0088
:102A900021912093EC009093ED008F5F873041F7F8
:102AA000EACF8B8D9C8D1092E900109276051092E2
:102AB00075059093740580937305898D811153C0BA
:102AC0008E899D89913A49F4813209F005C147E028
:102AD00050E069E071E080E0BBC0913209F0FCC0D9
:102AE000833269F48F89988DA0E0B0E0809305016E
:102AF00090930601A0930701B093080164C080324F
:102B000069F48091E80082FFFCCF67E089E091E002
:102B10000E9497118BEF8093E80055C0823209F034
:102B200052C08F8980931001EEEFFFE78591949159
:102B30008B3F9C4D19F0E0E0F8E002C0EEEFFAE0C8
:102B40008091090190910A01A0910B01B0910C01B3
:102B5000803B9440A105B10509F09EC08091100111
:102B600080FF79C099C00E948A1BFC0102811381F9
:102B70000115110509F4B0C0D801ED91FC91019047
:102B8000F081E02DBE016B5E7F4FC8010995811178
:102B90001AC0F80100851185EBCFF1E0FF1609F4AA
:102BA0004EC0F3E0FF1298C08F89882309F44AC011
:102BB000823089F440E862E18FEA91E00E943B11A3
:102BC000882309F489C08EEF8093E80088C0181626
:102BD0001906CCF381C0813029F440E868E086EA28
:102BE00091E0ECCF833009F077C00E948A1BDC01B2
:102BF0001296ED90FC9013978E010F5F1F4F6801A6
:102C0000E114F10479F0D701ED91FC910680F78190
:102C1000E02DB801C7010995080F111DF701E084E7
:102C2000F184EECFD8011C92F60101900020E9F763
:102C30003197BF016C197D0940E0C601BFCF64E93F
:102C400071E002C060E971E0FB01449150E080E86E
:102C50000E947011B8CFEE3F2AE0F20751F0808158
:102C600091818737A7E79A0721F09093FF0A809315
:102C7000FE0A87E797E791838083809160008093C5
:102C800077059BE088E10FB6F894A89580936000E3
:102C90000FBE9093600097CF8081918187379747CF
:102CA00009F091CFA89580916000886180936000C1
:102CB0008091770580936000EE3FBAE0FB0739F022
:102CC0008091FE0A9091FF0A918380837CCF1092BD
:102CD000FF0A1092FE0A77CF81E28093EB006C9698
:102CE0000FB6F894DEBF0FBECDBFDF91CF91FF913D
:102CF000EF91BF91AF919F918F917F916F915F9174
:102D00004F913F912F911F910F91FF90EF90DF9086
:102D1000CF900F900FBE0F901F901895DB01149667
:102D20004D915C9115976D917C91DC01ED91FC9139
:102D30000280F381E02D0994EF92FF920F931F938D
:102D4000CF93DF938C017B01C0E0D0E0F701EC0F63
:102D5000FD1F6491662361F0D801ED91FC91019013
:102D6000F081E02DC8010995892B11F02196EECF55
:102D7000CE01DF91CF911F910F91FF90EF900895B9
:102D80006115710579F0FB0101900020E9F7319799
:102D9000AF01461B570BDC01ED91FC910280F381E2
:102DA000E02D099480E090E0089561EA72E00C94CF
:102DB000C0160F931F93CF93DF93EC010E948E16E2
:102DC0008C01CE010E94D516800F911FDF91CF910B
:102DD0001F910F9108951F920F920FB60F92112419
:102DE0002F933F934F935F936F937F938F939F9313
:102DF000AF93BF93EF93FF9386E993E00E94151280
:102E0000FF91EF91BF91AF919F918F917F916F91C2
:102E10005F914F913F912F910F900FBE0F901F9098
:102E200018951F920F920FB60F9211242F938F9324
:102E30009F93EF93FF93E091A603F091A703808106
:102E4000E091AC03F091AD0382FD12C090818091BE
:102E5000AF038F5F8F732091B003821751F0E09121
:102E6000AF03F0E0EA56FC4F958F8093AF0301C0AB
:102E70008081FF91EF919F918F912F910F900FBEC5
:102E80000F901F90189585ED8093BC008091BC0039
:102E900084FDFCCF1092660308954091C505262F4E
:102EA00030E0240F311D21323105DCF4209166031E
:102EB0002430C9F4FC0180E090E0861758F430918A
:102EC000C5052191DC01AB55BA4FA30FB11D2C9361
:102ED0000196F3CF8091C505680F6093C50580E02A
:102EE000089581E0089582E0089508950895089571
:102EF000E0911F0380911E03E81730F4F0E0E05EDC
:102F0000FC4F808190E008958FEF9FEF089590919E
:102F10001F0380911E03981750F4E92FF0E0E05E44
:102F2000FC4F208130E09F5F90931F0302C02FEF82
:102F30003FEFC901089580911E0390E020911F0387
:102F4000821B91090895CF92DF92EF92FF920F9327
:102F50001F93CF93DF937C01CB018A0120916703FC
:102F6000222389F0EB016B01C40ED51ECC15DD05C3
:102F700069F06991D701ED91FC910190F081E02D0C
:102F8000C7010995F3CF642F0E944D17C801DF9147
:102F9000CF911F910F91FF90EF90DF90CF90089508
:102FA000CF93DF931F92CDB7DEB76983209167037C
:102FB0002223D1F020918903203240F021E030E03B
:102FC000FC013383228380E090E015C08091680388
:102FD000E82FF0E0E759FC4F998190838F5F809351
:102FE00068038093890305C061E0CE0101960E94C9
:102FF0004D1781E090E00F90DF91CF91089590E020
:10300000FC013197EF30F105B0F5EA5AFF4F0C940F
:10301000132D809180008F7703C0809180008F7D79
:1030200080938000089580918000877FF9CF84B5D8
:103030008F7702C084B58F7D84BD08958091900004
:103040008F7707C0809190008F7D03C080919000A2
:10305000877F8093900008958091C0008F7703C090
:103060008091C0008F7D8093C00008958091C20040
:10307000877F8093C20008953FB7F89480917C05C4
:1030800090917D05A0917E05B0917F0526B5A89B06
:1030900005C02F3F19F00196A11DB11D3FBFBA2FEA
:1030A000A92F982F8827820F911DA11DB11DBC014A
:1030B000CD0142E0660F771F881F991F4A95D1F70F
:1030C00008959F92AF92BF92CF92DF92EF92FF92BC
:1030D0000F931F93CF93DF9300D0CDB7DEB76C0172
:1030E000B62E7A011A821982BE016F5F7F4F80E58A
:1030F00090E00E949F1F89819A818C5E9A4F2DE0FB
:10310000289F8001299F100D1124B801C6010E943B
:10311000CB0CF701A0809180C380D4806281C8016C
:1031200007960E94A30C692DC80108960E94A30C63
:103130006A2DC80109960E94A30C6C2DC8010A963D
:103140000E94A30C6D2DC8010B960E94A30C6B2D41
:10315000C8010C960E94A30C89819A810196843F34
:10316000F1E09F0719F09A83898302C01A821982BD
:10317000BE016F5F7F4F80E590E00E94781F0F9047
:103180000F90DF91CF911F910F91FF90EF90DF9003
:10319000CF90BF90AF909F900895DF92EF92FF92F3
:1031A0000F931F93CF93DF938C017B01C0E0D0E09E
:1031B00087E0D82E2091BF043091C004D29EC00178
:1031C000D39E900D11248C179D0794F0CE010E9480
:1031D000150D882359F0CD31D10514F4F80101C043
:1031E000F701808191810196918380832796E2CFB8
:1031F000DF91CF911F910F91FF90EF90DF90089595
:10320000CF92DF92EF92FF920F931F93CF93DF93B2
:103210001F92CDB7DEB71982BE016F5F7F4F0E944C
:10322000CE0D7C01019727E0289F6001299FD00CDB
:10323000112400E010E060E0C8018C0D9D1D0E948B
:10324000A30C0F5F1F4F07301105A9F7C7010F909F
:10325000DF91CF911F910F91FF90EF90DF90CF9072
:1032600008956115710551F0FB0101900020E9F707
:103270003197AF01461B570B0C94431380E0089520
:10328000CF93DF93BC0183E394E00E94C016EC016E
:1032900083E394E00E94D5168C0F9D1FDF91CF91A0
:1032A00008954F925F926F928F929F92AF92BF92CA
:1032B000CF92DF92EF92FF921F93CF93DF93109202
:1032C000930510929205109291051092900510921C
:1032D0008F0510928E0510928D0510928C0510921C
:1032E0008B0510928A05109289051092880510921C
:1032F000870510928605DC01ED91FC9190819093F9
:1033000094058091C104813529F49435E1F091351B
:1033100061F41BC08C3439F49435D1F0913549F007
:103320009934E9F406C09435A9F013E0933411F40C
:1033300014C012E0892F8D7F893479F09B7F9135FD
:1033400009F06CC00AC0C7E006C0C0E012E00CC0C3
:10335000C8E001C0C0E013E007C0C0E005C093347E
:1033600009F05AC0C0E018E069E672E0CF010E949F
:103370002C2C612CD0E04E01B4E08B0E911C2E0160
:1033800025E0420E511C7E01A6E0EA0EF11C6E0102
:10339000B7E0CB0ED11C5E0128E0A20EB11C29962D
:1033A0000097E1F16394611204C0909393058093B8
:1033B0009205262D30E02815390521F490939105CA
:1033C000809390052415350521F490938F05809303
:1033D0008E052E153F0521F490938D0580938C0565
:1033E0002C153D0521F490938B0580938A052A15B1
:1033F0003B0521F490938905809388052C173D07A0
:1034000021F4909387058093860564EA72E080E05A
:1034100090E00E942C2CC4CF13E08CCFDF91CF9191
:103420001F91FF90EF90DF90CF90BF90AF909F9053
:103430008F906F905F904F90089520918505211196
:1034400003C08FEF9FEF08955FB7F89422E02093B9
:10345000E9002091F20030E01216130614F421E086
:1034600030E0422FFC0184E6415038F028988093E8
:1034700084059091F1009193F7CF2115310521F04A
:103480008091F200882319F05FBFC90108958BE68F
:103490008093E800F9CF2FB7F89483E08093E90098
:1034A0009091E800892F807295FF04C09091F200FE
:1034B00080E4891B2FBF08951F920F920FB60F92C1
:1034C00011242F933F934F935F936F937F938F9329
:1034D0009F93AF93BF93EF93FF938091B900887F41
:1034E000803609F49CC068F5883209F45BC090F41A
:1034F000803109F454C038F4882309F4F6C08830C8
:1035000009F44DC0F6C0883109F44CC0803209F48A
:103510005DC0EFC0803409F468C048F4803309F41A
:1035200055C0883309F0E5C080936403D8C0803566
:1035300009F44FC0883509F45DC0883409F0D9C05A
:10354000D6C0883909F4C7C0A8F4883709F467C021
:1035500038F4883609F463C0803709F460C0C9C004
:10356000883809F4B8C0803909F45FC0803809F0A0
:10357000C0C05BC0803B09F486C038F4803A09F4CF
:1035800066C0883A09F47FC0B4C0803C09F4A7C083
:10359000883C09F4A4C0883B09F48AC0AAC0809181
:1035A000410310C09091630380916203981770F5F6
:1035B000E091630381E08E0F80936303F0E0EE5BA4
:1035C000FC4F80818093BB0085EC86C080936403B0
:1035D0008EC0E091630381E08E0F8093630380913E
:1035E000BB00F0E0EE5BFC4F808390916303809121
:1035F00062036EC0E091630381E08E0F80936303EA
:103600008091BB00F0E0EE5BFC4F8083809165030E
:1036100081116DC081E08093400384EA61C083E042
:10362000809366031092E705CFCF8091E705803243
:1036300008F051C0E091E70581E08E0F8093E70527
:103640008091BB00F0E0E953FA4F8083BDCF85EC59
:103650008093BC00109266038091E705803230F4BD
:10366000E091E705F0E0E953FA4F10826091E70539
:1036700070E0E0918205F091830587EC95E0099573
:103680001092E70536C084E0809366031092C60569
:103690001092C505E0918005F09181050995809112
:1036A000C505811105C081E08093C5051092A5056F
:1036B000E091C60581E08E0F8093C605F0E0EB55E2
:1036C000FA4F80818093BB009091C6058091C5051B
:1036D000981708F479CF85E88093BC000AC085EC80
:1036E0008093BC001092660304C0109264030E9491
:1036F0004317FF91EF91BF91AF919F918F917F9170
:103700006F915F914F913F912F910F900FBE0F904E
:103710001F90189580919D0581110DC082E08093C6
:10372000990584E080939A0510929C0510929B0560
:1037300081E080939D0589E995E00895CF93DF931B
:10374000282F30E0F901E65DFD4F8491F901E55F36
:10375000FD4FD491F901E451FE4FC491CC2391F077
:1037600081110E94FF17EC2FF0E0EE0FFF1FE252D5
:10377000FE4FA591B491EC91ED2381E090E021F40E
:1037800080E002C080E090E0DF91CF9108951F9328
:10379000CF93DF93282F30E0F901E65DFD4F849150
:1037A000F901E55FFD4FD491F901E451FE4FC49159
:1037B000CC23C1F0162F81110E94FF17EC2FF0E0EF
:1037C000EE0FFF1FE053FE4FA591B4919FB7F89401
:1037D000111104C08C91D095D82302C0EC91DE2B3E
:1037E000DC939FBFDF91CF911F910895CF93DF931B
:1037F00090E0FC01E55FFD4F2491FC01E451FE4F98
:103800008491882361F190E0880F991FFC01EE53A9
:10381000FE4FC591D491FC01E053FE4FA591B491A8
:10382000611109C09FB7F89488812095822388830D
:10383000EC912E230BC0623061F49FB7F89488811D
:10384000322F309583238883EC912E2B2C939FBFAE
:1038500006C08FB7F894E8812E2B28838FBFDF91A5
:10386000CF9108958F929F92AF92BF92CF92DF92A5
:10387000EF92FF926B017C010E943C184B015C01AE
:10388000C114D104E104F104F1F00E943C18DC0100
:10389000CB0188199909AA09BB09883E9340A10563
:1038A000B10570F321E0C21AD108E108F10888EEF1
:1038B000880E83E0981EA11CB11CC114D104E10440
:1038C000F10419F7DDCFFF90EF90DF90CF90BF901C
:1038D000AF909F908F9008952FB7F89460917805DE
:1038E0007091790580917A0590917B052FBF08959D
:1038F000CF92DF92EF92FF920E94B31F6B017C0187
:103900000E946C1C28EE33E040E050E00E94F12C55
:10391000C21AD30AE40AF50AC0929505D092960518
:10392000E0929705F0929805FF90EF90DF90CF908E
:1039300008950F931F93CF93DF93EC01092E000C92
:10394000AA0BBB0B8093B4049093B504A093B60468
:10395000B093B7040E946C1CAB01BC018091BB0406
:103960009091BC04A091BD04B091BE048A019B015A
:10397000081B190B2A0B3B0B8091B4049091B504E2
:10398000A091B604B091B704081719072A073B079E
:1039900058F18091B204811113C081E08093B20488
:1039A000C43F81E0D80774F0CE01845F9140092EB6
:1039B000000CAA0BBB0B481B590B6A0B7B0B02C0FC
:1039C0001092B2044093BB045093BC046093BD04B6
:1039D0007093BE046091B2048091B004DF91CF91E6
:1039E0001F910F910C94C71BDF91CF911F910F91E5
:1039F0000895CF93DF9300D000D000D0CDB7DEB7CD
:103A0000CE0101960E94790FCE0101960E94BB1350
:103A100062EB72E086E993E00E949C1664EF71E02D
:103A200080E090E00E94321CCE0101960E94790F46
:103A3000CE0101960E94BB1366EA72E086E993E02C
:103A40000E949C1664EF71E080E090E00E94321CBE
:103A5000CE0101960E94790FCE0101960E94BB1300
:103A60006AE972E086E993E00E949C1664EF71E0D7
:103A700080E090E00E94321CCE0101960E94790FF6
:103A8000CE0101960E94BB1366E872E086E993E0DE
:103A90000E949C1664EF71E080E090E00E94321C6E
:103AA000CE0101960E94790FCE0101960E94BB13B0
:103AB00067E672E086E993E00E949C1664EF71E08D
:103AC00080E090E00E94321CCE0101960E94790FA6
:103AD000CE0101960E94BB1360E672E086E993E096
:103AE0000E949C1664EF71E080E090E00E94321C1E
:103AF000CE0101960E94790FCE0101960E94BB1360
:103B000062E572E086E993E00E949C1664E670E04C
:103B100080E090E00E94321CCE0101960E94790F55
:103B2000CE0101960E94BB1326960FB6F894DEBF15
:103B30000FBECDBFDF91CF910895EF92FF920F930B
:103B40001F93CF93DF9300D000D000D0CDB7DEB766
:103B50008C01CE0101960E94790FCE0101960E9440
:103B6000BB1364E670E080E090E00E94321C68E4E1
:103B700072E086E993E00E949C1668EE73E080E0B4
:103B800090E00E94321CFF24F39487E2E82E86E93D
:103B900093E00E94FF112091CE041816190664F5D7
:103BA00021112AC086E993E00E94DD119091E90578
:103BB0009923E9F0E091E8058A3071F0AE2FB0E08A
:103BC000A15CBA4F8C93EF5FE83218F4E093E805FC
:103BD000DECFE092E805DBCFF0E0E15CFA4F108247
:103BE0001092E9051092E805F092CE04D0CF883308
:103BF00071F6F092E905CBCF222329F01092CE0482
:103C00006FE375E002C06DEA72E0C8010E94C9135B
:103C1000C80126960FB6F894DEBF0FBECDBFDF9168
:103C2000CF911F910F91FF90EF900895CF93DF9365
:103C30001F92CDB7DEB76983DC01ED91FC91028064
:103C4000F381E02D41E050E0BE016F5F7F4F0995A9
:103C50000F90DF91CF91089583E08093E9008091E8
:103C6000F200882319F08AE38093E8000895FC01AC
:103C70008485958597FD0BC09FB7F89482E080936B
:103C8000E9008091F2009FBF90E0019608959FB7F0
:103C9000F89482E08093E9008091F2009FBF90E069
:103CA000089580E090E008958F929F92AF92BF9226
:103CB000CF92DF92EF92FF920F931F93CF93DF93F8
:103CC0006C017B018A0180911001882309F45CC09A
:103CD00080918505882309F457C08091B60280FF42
:103CE00005C08091E00082608093E000E801B12C83
:103CF0008AEFA82E93E0892E2AE3922E209711F4C2
:103D0000BB20D9F10E944B1A81110AC0AA94AA20A3
:103D1000D9F161E070E080E090E00E94321CEECFCB
:103D2000282F30E0C217D3070CF48C2F9FB7F894DC
:103D30008092E9002091E80025FF1DC0282F30E087
:103D4000C21BD30BF701815020F041914093F10049
:103D5000FACFE20EF31EBB2019F09092E8000AC0E1
:103D60008091E80085FD07C09092E800BB24B394E1
:103D7000209709F0B12C9FBFC1CF5D9884E6809356
:103D800072051016110644F081E090E0F60193836D
:103D9000828380E090E001C0C801DF91CF911F9144
:103DA0000F91FF90EF90DF90CF90BF90AF909F90DA
:103DB0008F9008950E944B1A90E008950F931F93DF
:103DC000CF93DF931F92CDB7DEB78C01FC018485C2
:103DD000958597FF0EC0CE0101960E941D1A01978E
:103DE00019F4898190E002C08FEF9FEFF801958769
:103DF0008487F801848595850F90DF91CF911F917D
:103E00000F910895CF93DF931F92CDB7DEB7FC01DA
:103E10008485958597FD05C02FEF3FEF3587248773
:103E20000BC0CE0101960E941D1A019719F48981D9
:103E300090E002C08FEF9FEF0F90DF91CF91089538
:103E4000CF93DF93EB010E948A2C8883CE01DF9110
:103E5000CF91089560E0FC0180810C94C71B61E064
:103E6000FC0180810C94C71BEF92FF920F931F936C
:103E7000CF93DF93EC01CB01072E000CAA0BBB0BF9
:103E80008C839D83AE83BF83598748878B8188232A
:103E900041F18B01E12CF12CE016F106C4F461E054
:103EA00088810E94C71B6885798580E090E00E9428
:103EB000321C60E088810E94C71B6885798580E09C
:103EC00090E00E94321C8FEFE81AF80AE5CF60E01C
:103ED0008881DF91CF911F910F91FF90EF900C940B
:103EE000C71BDF91CF911F910F91FF90EF90089525
:103EF000EF92FF920F931F93CF93DF9300D0CDB734
:103F0000DEB78C017B01FB0160819A838983CE013E
:103F100001960E94E901F70161810F5F1F4F1A832B
:103F20000983CE0101960E94E901C7010F900F900D
:103F3000DF91CF911F910F91FF90EF9008950F9314
:103F40001F93CF93DF938C01EB010E948A2C88830F
:103F5000C80101960E948A2C8983CE01DF91CF91FE
:103F60001F910F910895EF92FF920F931F93CF939C
:103F7000DF93EC0169813881432F50E08A8190E022
:103F8000EEEBF2E021E0261730F47491870F911DDB
:103F90002F5F3196F8CF633018F0337009F4019633
:103FA0006DE671E0469F9001479F300D569F300DA2
:103FB0001124215031094D5F5F4F56954795569515
:103FC0004795240F351F280F391FA8E1B0E00E9444
:103FD000E22C2B817B018C01E20EF11C011D111DD5
:103FE000A8019701ACE3B0E00E94A02C2C817B01DA
:103FF0008C01E20EF11C011D111DA80197010E9408
:10400000A02C2D81DC01CB01820F911DA11DB11DC2
:10401000BC01CD0160587C4B8249974CDF91CF9118
:104020001F910F91FF90EF9008958F929F92AF9202
:10403000BF92CF92DF92EF92FF92CF93DF93EC018A
:104040006A017B0180E8C81A83E4D80A8DE6E80A91
:1040500088E3F80A8CE3882E912CA12CB12CC7019F
:10406000B601A50194010E94F12C6D83CA01B9012A
:10407000A50194010E94F12C6C83C701B60120E1D7
:104080003EE040E050E00E94F12CCA01B90128E175
:1040900030E040E050E00E94F12C6B83C701B60194
:1040A00020E831E541E050E00E94F12C188248817F
:1040B000542F537081E009F080E090E0BC01635917
:1040C0007E4F2617370738F0281B390B2D56314005
:1040D0004F5F4883ECCF81E089838981E82FF0E04E
:1040E000E354FD4FE491511103C0823009F4EF5FB6
:1040F000F0E02E173F0720F02E1B3F0B8F5FECCF19
:104100002F5F2A83DF91CF91FF90EF90DF90CF90C8
:10411000BF90AF909F908F900895CF93DF93EC0165
:104120000E946C1C28EE33E040E050E00E94F12C2D
:104130008091950590919605A0919705B09198056D
:10414000BA01A901480F591F6A1F7B1FCE010E94A7
:104150001520CE01DF91CF9108950F931F93CF9338
:10416000DF9300D0CDB7DEB78B01FB0160819A836E
:104170008983CE0101960E94E901C8010F900F903A
:10418000DF91CF911F910F9108950F931F93CF93BC
:10419000DF9303EC12E0C0E0D0E0CE010E948A2C55
:1041A000F80181938F012196C730D105B1F760ECFA
:1041B00072E08AE090E00E949F1F6FEB72E088E25D
:1041C00090E00E94201F6EEB72E082E390E00E947C
:1041D000201F6DEB72E084E390E00E94201F6AEBE9
:1041E00072E086E390E00E949F1F62EC72E08CE335
:1041F00090E00E94201F6CEB72E08EE390E00E9442
:10420000201F68EB72E08CE490E00E94201F6AECB3
:1042100072E08EE490E00E949F1F6EEE75E08AE5EA
:1042200090E00E949F1F64EF75E084E690E00E949A
:104230009F1F6CEE75E08EE690E00E949F1F6BEE74
:1042400075E088EC90E00E94201F62EF75E08CED35
:1042500090E00E949F1F60EF75E08EED90E0DF918F
:10426000CF911F910F910C949F1F0F931F93CF938A
:10427000DF93CDB7DEB729970FB6F894DEBF0FBE38
:10428000CDBF80EB94E00E942F1F00E010E08091F2
:10429000BF049091C00423E0880F991F2A95E1F78D
:1042A000081719073CF460E0C8010E94A30C0F5FD7
:1042B0001F4FEDCF04E012E460E0C8010E94A30CA0
:1042C0000F5F1F4F0C3C8BE51807B1F700E010E0C3
:1042D0001A83098360E0CE0101960E94E9010F5F15
:1042E0001F4F011582E0180799F787E0EFEAF2E027
:1042F000DE01119601900D928A95E1F7CE010196AB
:104300000E94B70E82E08093C0028093C10260ECED
:1043100072E08AE090E00E94781F11E01887BE01E9
:10432000685F7F4F88E290E00E94AD201987BE0150
:10433000675F7F4F8CE390E00E94AD201092B8023F
:1043400068EB72E08CE490E00E94AD2082E090E0A7
:104350009093CB028093CA026AEC72E08EE490E004
:104360000E94781F02E310E01093EF050093EE0522
:104370006EEE75E08AE590E00E94781F1093F505D7
:104380000093F40564EF75E084E690E00E94781FE6
:104390001093ED050093EC056CEE75E08EE690E071
:1043A0000E94781F0E949B0C61E08EE290E00E94C8
:1043B000922C9EE088E10FB6F894A8958093600057
:1043C0000FBE9093600060ED77E080E090E00E9487
:1043D000321C29960FB6F894DEBF0FBECDBFDF9119
:1043E000CF911F910F910895FF920F931F93CF9339
:1043F000DF93CDB7DEB72C970FB6F894DEBF0FBEB4
:10440000CDBF8C01F62ECE0107960E948D208F81A4
:10441000898388858A8389858B838A858C838B852C
:104420008D838C858E83AE014F5F5F4F6F2DC801EA
:104430000E946118BE016F5F7F4F80E590E00E948F
:104440009F1F89819A810E946B0F2091EE05309108
:10445000EF0589819A818217930721F08091EA05FF
:104460008823C9F08091EC059091ED05820F931F90
:10447000843F21E092072CF49093EF058093EE05A2
:1044800004C01092EF051092EE056EEE75E08AE51D
:1044900090E00E94781F2C960FB6F894DEBF0FBEF6
:1044A000CDBFDF91CF911F910F91FF9008951F9283
:1044B0000F920FB60F9211242F933F938F939F93D8
:1044C000AF93BF938091780590917905A0917A057B
:1044D000B0917B053091F60523E0230F2D3720F4B2
:1044E0000196A11DB11D05C026E8230F0296A11D4E
:1044F000B11D2093F6058093780590937905A093DC
:104500007A05B0937B0580917C0590917D05A09103
:104510007E05B0917F050196A11DB11D80937C059C
:1045200090937D05A0937E05B0937F05BF91AF91D9
:104530009F918F913F912F910F900FBE0F901F90E1
:104540001895CF93DF93CDB7DEB7E2970FB6F89407
:10455000DEBF0FBECDBF789484B5826084BD84B5C4
:10456000816084BD85B5826085BD85B5816085BD6E
:1045700080916E00816080936E0010928100809126
:1045800081008260809381008091810081608093AE
:1045900081008091800081608093800080919100F3
:1045A000826080939100809191008160809391005E
:1045B000809190008160809390008091C100846020
:1045C0008093C1008091C10082608093C10080917E
:1045D000C10081608093C1008091C300816080939D
:1045E000C3008091C00082608093C0008091C200AF
:1045F00081608093C20080917A00846080937A0009
:1046000080917A00826080937A0080917A00816044
:1046100080937A0080917A00806880937A0010926B
:1046200085051092B7021092B6028091D700816082
:104630008093D70080EA8093D80089B5806189BDD6
:1046400089B5826089BD09B400FEFDCF61E070E0EC
:1046500080E090E00E94321C8091D8008F7C8061C5
:104660008093D8008091E000807F8093E00080916B
:10467000E1008E7E8093E1008DE08093E200559A08
:10468000209A87EF84BF0FB6F894A89580916000B8
:10469000886180936000109260000FBE60E08EE041
:1046A0000E94F61B61E080E10E94F61B62E085E15A
:1046B0000E94F61B48EC50E065E070E080EB94E06F
:1046C0000E94341F8EE290E00E948A2C81110FC05C
:1046D00061E080E10E94C71B64EF71E080E090E040
:1046E0000E94321C60E080E10E94C71B05C060E0B0
:1046F0008EE290E00E94922C80EB94E00E942F1FAB
:104700008FEF9FEF9093400480933F0468EE73E037
:1047100080E090E00E94321CE091A603F091A70394
:1047200002E00083E091A203F091A3031082E091E4
:10473000A403F091A50380E180831092AE03E09181
:10474000AA03F091AB0316E01083E091A803F09167
:10475000A903808180618083E091A803F091A9037F
:10476000808188608083E091A803F091A903808113
:1047700080688083E091A803F091A90380818F7DF8
:1047800080838091C1048C3409F045C068EE73E0E9
:1047900080E090E00E94321C68EE70E086E993E0D1
:1047A0000E949C1668EE73E080E090E00E94321C4C
:1047B000E091A603F091A7030083E091A203F0919A
:1047C000A3031082E091A403F091A50387E6808300
:1047D0001092AE03E091AA03F091AB031083E09135
:1047E000A803F091A903808180618083E091A803F0
:1047F000F091A903808188608083E091A803F09103
:10480000A903808180688083E091A803F091A903C7
:1048100080818F7D808368E873E180E090E00E9472
:10482000321C8E010F5F1F4F4801C8010E94790F93
:10483000C8010E94BB136CED70E086E993E00E9412
:104840009C1668EE73E080E090E00E94321CC80184
:104850000E94790FC8010E94BB1360ED70E086E9E9
:1048600093E00E949C1668EE73E080E090E00E9466
:10487000321CC8010E94790FC8010E94BB130E941C
:10488000F91C6AEC70E086E993E00E949C16C8016E
:104890000E94790FC8010E94BB1368EE73E080E0AC
:1048A00090E00E94321C10921F0310921E0310927F
:1048B0006803109289031092660381E08093650378
:1048C0001092400361E082E00E94C71B61E083E038
:1048D0000E94C71B8091B9008E7F8093B9008091A0
:1048E000B9008D7F8093B90088E48093B80085E497
:1048F0008093BC0085E797E19093810580938005C4
:1049000086E797E1909383058093820560E177E2E3
:1049100080E090E00E94321C81E090E00E948A2CAE
:104920008F3F11F40E9435210E94C520A091CA0238
:10493000B091CB021A161B0674F420E437E74BE162
:1049400050E00E94202D609300017093010180933C
:1049500002019093030164E170E08BE695E00E9410
:104960001C13C4010E949D1DB4018BE695E00E94BA
:10497000E212C4010E94BB13C4010E94790FC4015A
:104980000E94BB1364E670E080E090E00E94321C5D
:104990006DEF70E086E993E00E949C1660E177E29B
:1049A00080E090E00E94321C67EF70E086E993E0BF
:1049B0000E949C1668EE73E080E090E00E94321C3A
:1049C000C4010E94790FC4010E94BB1348EC50E05F
:1049D00065E070E080EB94E00E94341F0E948D0F30
:1049E0006624639486E993E00E94FF111816190665
:1049F0000CF071C08091CD0481116DC086E993E007
:104A00000E94DD11782E8091CF02882309F4F1C035
:104A10000E946C1C5B016C012BA53CA54DA55EA5FD
:104A20006FA578A989A99AA928513C4F4F4F5F4F8C
:104A30006F4F7F4F8F4F9F4F19012A01B62FA72F1E
:104A4000F82FE92F9501A60160E070E080E090E08A
:104A500051016201EB2EFA2E0F2F1E2F0E94282DDE
:104A600019F010F081E2782E80916A05E091CE0273
:104A70008711AFC0F0E0EF53FB4F108A1092CF02C6
:104A80001092CE0221ED34E03093D0042093CF0475
:104A90006092CD0442E350E061E070E080EB94E08E
:104AA0000E94341F8091CD0481111092CD04809119
:104AB000CF049091D00498A38F8F0E944019AF8D9E
:104AC000B8A1FD0101900020E9F73197EA1BFB0B2B
:104AD000349708F0A3C08091BE02882309F467C010
:104AE00088EE93E00E94991C8091D802811111C038
:104AF000809183040E949E1B21E0892B09F420E011
:104B00008091BF02821326C28091B902811122C214
:104B100052C084E690E00E94991CA091BA02B09124
:104B2000BB02C090D402D090D502E090D602F090A3
:104B3000D70228EE33E00E94192D6093870470930A
:104B400088048093890490938A04672B682B692BCF
:104B500009F4C3C20E946C1C8B019C010C191D0935
:104B60002E093F096801790100918704109188049A
:104B70002091890430918A04C016D106E206F3061A
:104B800008F4ABC260938E0470938F0480939004FA
:104B9000909391041092D3021092D8028091BD029A
:104BA000882349F082E994E00E942A1F04C080E42F
:104BB0009FE10E94991C1BE383E394E00E94371E4F
:104BC00020911903181619060CF0B7C22111B5C2AD
:104BD00089C2AE2FB0E0AF53BB4F50967C92EF5FCF
:104BE000EE3618F4E093CE02FDCE1DE61093CE0211
:104BF000F9CE80916705781649F08091680578169E
:104C000049F0809169057812EDCE04C031E230930D
:104C10006A057BC14DE040936A0577C111968C917E
:104C20008E3409F458CFCE014F960E9451198091CD
:104C300094058B3409F4A7C03CF4833409F450C0C4
:104C4000893409F44DC047CF813589F1843509F0A5
:104C500042CF0E94D1018130C1F018F08230E1F0E2
:104C60003ACF0E94C101882309F435CF0E949101F7
:104C7000682F70E06115710509F42DCF80919205C0
:104C8000909193050E94EB0226CF0E94C1018823D8
:104C900019F00E946C031FCF6091920570919305EB
:104CA00080919005909191050E94020214CF60912D
:104CB000920570919305C4010E94C9136091CC02C2
:104CC0007091CD02CE0143960E949510B401CE01A1
:104CD00043960E94B10FCE0143960E94BB1336C18A
:104CE0000E94D101813019F0823099F029C0909151
:104CF000D802992319F08093D30222C08091BD027B
:104D0000823058F460919205709193058AEE91E09B
:104D100015C08091BD02823038F06091920570918B
:104D2000930584E591E00AC080910401823050F33C
:104D3000609192057091930588E591E00E940202CE
:104D40001092C3041092C20486E993E00E94FF11FE
:104D5000892B09F0ECC08091C2049091C304803E7D
:104D60009E420CF0E4C06DE070E080E090E00E94B4
:104D7000321C8091C2049091C30401969093C304A5
:104D80008093C204E1CF80919205909193050E9497
:104D90000E2C8C014497449708F0A6C080918A0598
:104DA00090918B050E940E2C182F80918C0590916C
:104DB0008D050E940E2CF82E80918E0590918F0506
:104DC0000E940E2CE82E80919005909191050E94F2
:104DD0000E2C09838A83EB82FC821D831E82C40110
:104DE0000E94781C8091C1048135A1F4CE014396C4
:104DF0000E948D20CE0143960E94B31FAB01BC01DF
:104E00004054584361097109C4010E941520C4012E
:104E10000E94781C66E080E090E00E94F42180917E
:104E2000B8028823B1F12091D1023091D202809151
:104E3000CA029091CB02820F931F9093D20280936B
:104E4000D102489734F11092D2021092D10261E05F
:104E500070E0CE0149960E9495106CE571E0C401A6
:104E60000E94C913BE01675E7F4FCE0143960E9428
:104E7000C013B401CE0143960E94B10FCE014396F8
:104E80000E94BB13C4010E94BB13CE0149960E942D
:104E9000BB138091CA029091CB02181619060CF030
:104EA0001ACE0E946C1C61327F4B8240910508F43F
:104EB00012CE61E171E086E993E00E949C1668E8F9
:104EC00073E180E090E00E94321C65E071E086E9C9
:104ED00093E00E949C16C4010E94790FC4010E94B5
:104EE000BB130E94F91C2FC068E873E180E090E0DA
:104EF0000E94321C8091D0028F5F8093D00282305A
:104F000008F0E9CD0E948D0FE6CD0E946C1C7B015C
:104F10008C0120E030E0A9016BA7FCA60DA71EA71D
:104F20002FA738AB49AB5AAB6092CF025BCD86E975
:104F300093E00E94FF11892B31F463EA72E0C4010F
:104F40000E94C91303C0C4010E94790FC4010E94CA
:104F5000BB13C1CD6092D8020E946C1C6093D40236
:104F60007093D5028093D6029093D7028091BD02B0
:104F70008823F1F182E994E00E942F1FF12C08EEC2
:104F800013E0B801CE0149960E949510CE014996D2
:104F90000E94A60E811122C021E02F1530F468E88E
:104FA00073E180E090E00E94321C60E671E0C40191
:104FB0000E94C913BE01675E7F4FCE0143960E94D7
:104FC000C013B401CE0143960E94B10FCE014396A7
:104FD0000E94BB13C4010E94BB13F394CE014996F7
:104FE0000E94BB130F5F1F4F0E3E33E0130749F6BD
:104FF00065E671E0CE0185960E94C9131982809101
:10500000B902882361F06BE671E0C4010E944D2F64
:105010006091920570919305C4010E94392FF12C83
:1050200001E010E0B801CE014F960E949510CE012C
:105030004F960E94A60E811131C041E04F1530F409
:1050400068E873E180E090E00E94321C8091B90230
:10505000882331F0B401CE0149960E94C91307C0DC
:10506000BE016B5D7F4FCE0149960E94C013BE0109
:10507000615E7F4FCE0143960E94C013BE01675E02
:105080007F4FCE0143960E94B10FCE0143960E94FE
:10509000BB13CE0149960E94BB13F394CE014F96E9
:1050A0000E94BB130F5F1F4F0630110509F0BACFE6
:1050B000CE0185960E94BB138091B90264E08823DB
:1050C00029F0809192059091930502C080E090E0D4
:1050D0000E94F4211092B9026ECD8091D302811109
:1050E00059CD69CD83E394E00E94021F9091DA02CA
:1050F0009923E9F0E091D9028E3371F0AE2FB0E040
:10510000A352BD4F8C93EF5FEC3318F4E093D902B8
:1051100053CD1093D90250CDF0E0E352FD4F1082F1
:105120001092DA021092D9026092190345CD8C33A5
:1051300009F042CD6092DA023FCD222309F451C238
:105140008DED92E098A38F8FCE014F960E9451195A
:10515000E0919205F09193058081843409F456C062
:10516000CCF48134C9F13CF4833209F41BC185329B
:1051700009F477C134C2823409F445C0833409F09C
:105180002EC240E061E480918E0590918F050E94CF
:10519000530E25C2803509F4F1C074F48534E9F169
:1051A000863409F01CC264E071E080918E05909114
:1051B0008F050E94CE0DF0C0843509F4BFC08A353A
:1051C00009F4F8C1833509F00AC280EB94E00E942B
:1051D0002F1F01E010E07AC080918A0590918B0525
:1051E0000E940E2C482F65E480918E0590918F05CA
:1051F0000E94530E44E150E061E070E080EB94E0E7
:105200000E94341FECC10E943521E9C180918E05B6
:1052100090918F050E940019E2C180EB94E00E94FA
:105220002F1F1A8E198EBE01675E7F4F80E590E0BA
:105230000E949F1F04EF11E0898D9A8D892B21F424
:1052400024EF31E03A8F298F898D9A8D9C0121506E
:1052500031093A8F298F8D5E9A4F3DE0389F70015A
:10526000399FF00C112463EA72E0CE0143960E944C
:10527000C913C12CD12CC7018C0D9D1D0E94150D89
:10528000A601682FC4010E940E10B401CE014396FE
:105290000E94E00EC4010E94BB134FEFC41AD40A4F
:1052A0005DE0C516D10439F7BE016D5E7F4F83E323
:1052B00094E00E94D916CE0143960E94BB13015080
:1052C000110909F0B9CF81E291E031C0B801C40100
:1052D0000E949510C4010E94A60E811116C0B4014F
:1052E00083E394E00E948E166DE283E394E00E94D3
:1052F000161E6091040170E080E090E04AE00E9498
:10530000F80E83E394E00E94D5160530110521F4D0
:105310008FE191E00E94E70EC4010E94BB130F5F72
:105320001F4F093E83E0180789F68DE191E00E9446
:10533000E70E80EB94E00E942A1F51C10E949B0C53
:1053400080E791E00E9440198BE090E00E946B0F93
:1053500083E394E00E94D516C4010E949D1DB40110
:105360008BE695E00E94E212C4010E94BB136BE63B
:1053700075E083E394E00E94D91631C146E050E025
:1053800063EC72E080918E0590918F050E94542FFE
:10539000892B29F481E090E00E946B0F20C180E00E
:1053A00090E0FACF0E94C5206091DC0270E080E0BE
:1053B00090E04AE00E94F80E8091C20290E00E94C4
:1053C0003B0F6091C00270E080E090E04AE00E94F4
:1053D000F80E6091C10270E080E090E04AE00E9427
:1053E000F80E8091BF0290E00E943B0F8091BE02B8
:1053F00090E00E943B0F6091BD0270E080E090E081
:105400004AE00E94F80E8091BC0290E00E943B0F9F
:105410008091DB0290E00E943B0F8091BB028F9352
:105420008091BA028F938CE791E09F938F939F9224
:105430008F920E94712FB40183E394E00E94C01602
:1054400061E871E083E394E00E94C01682E891E095
:105450000E9440190F900F900F900F900F900F9097
:10546000BEC0E0918E05F0918F05808180538093BE
:10547000DC026CED72E086E490E00E94AD20E091E9
:105480008E05F0918F0581E09181903309F480E0E1
:105490008093C20262EC72E08CE390E00E94AD2047
:1054A000E0918E05F0918F05828180538093C00238
:1054B000838180538093C10260EC72E08AE090E0C7
:1054C0000E94781FE0918E05F0918F0581E0948114
:1054D000903309F480E08093BF026FEB72E088E2C2
:1054E00090E00E94AD20E0918E05F0918F0581E063
:1054F0009581903309F480E08093BE026EEB72E0F8
:1055000082E390E00E94AD20E0918E05F0918F053E
:10551000868180538093BD026DEB72E084E390E05E
:105520000E94AD20E0918E05F0918F0581E097817A
:10553000903309F480E08093BC026CEB72E08EE360
:1055400090E00E94AD20E0918E05F0918F0581E002
:105550009085903309F480E08093DB026BED72E07C
:1055600088E490E00E94AD20E0918E05F0918F05D7
:1055700081859285A38589839A83AB831C82C4012C
:105580000E940E2C9093BB028093BA026AEB72E0E9
:1055900086E390E00E94781FE0918E05F0918F05E0
:1055A00084859585A68589839A83AB831C820E9416
:1055B000C52015C01C8A1B8A1A821982B401CE012B
:1055C00043960E94CD188B899C890E946B0F89811C
:1055D0009A810E946B0F83E394E00E94D51610928B
:1055E000190385E10E949E1B9C0191E02115310564
:1055F00009F490E090931C0380911B039817C9F065
:10560000232B89F410911A031F5F10931A0340EDA6
:1056100057E061E070E080EB94E00E94341F1530A9
:1056200011F40E94352162E370E080E090E00E9476
:10563000321C80911C0380931B030E946C1C6B0125
:105640007C018091000190910101A0910201B09133
:105650000301C816D906EA06FB0601F54CE251E043
:1056600064E070E080EB94E00E94341FA091CA02D5
:10567000B091CB0220E437E74BE150E00E94202DAF
:10568000C60ED71EE81EF91EC0920001D09201017D
:10569000E0920201F09203010E948D0F0E94A41279
:1056A000A1C9CF93DF93EAE8F3E01382128288EE78
:1056B00093E0A0E0B0E084839583A683B7832BE1D9
:1056C00031E031832083E6E9F3E0138212828483A0
:1056D0009583A683B7832DE231E0318320832DECBF
:1056E00030E0358724872CEC30E03787268728EC9C
:1056F00030E0318B208B29EC30E0338B228B2AEC8D
:1057000030E0358B248B2EEC30E0378B268B118EDE
:10571000128E138E148EE3E3F4E0138212828483DC
:105720009583A683B7838FE391E0918380838FEF86
:105730009FEF9587848763EA72E08BE695E00E948D
:10574000C913C1ECD4E01C821B8263EA72E086ECD0
:1057500094E00E94C9131B861C861D861F861E8628
:105760008DE4809367058CE48093680593E59093BE
:10577000690591E290936A05888388EE93E090939F
:10578000C0048093BF04E0EBF4E01282128613861B
:1057900014861586168684E090E091838083C1E0AC
:1057A000C38361E00E94F61BE1EAF4E012821286F4
:1057B000138614861586168689E090E0918380838F
:1057C000C38361E00E94F61BE2E9F4E012821286D4
:1057D00013861486158616868AE090E0918380836E
:1057E000C38361E00E94F61BE3E8F4E012821286B4
:1057F000138614861586168688E090E09183808350
:10580000138260E0DF91CF910C94F61B86EC94E05C
:105810000E94BB138BE695E00C94BB13FC01882718
:105820009927E89421912032E9F3293010F02E30A5
:10583000C8F32B3241F02D3239F4689404C00E9431
:10584000582C820F911D219120532A30C0F31EF451
:10585000909581959F4F089547EF55E00E94312C18
:105860000895FA01A191B081009719F41097E1F021
:10587000CD01DC01CD010D90002011F4C00113C059
:10588000FB012191222319F02015D9F7F3CFFB0159
:105890002191201519F41E92119606C02223C1F7FA
:1058A0000D900020A1F7D001FA01A193B0830895D3
:1058B0007AE0979F902D879F802D910D1124089558
:1058C000BB27FB015527AA27880F991FAA1FA417DA
:1058D00010F0A41B83955051B9F7A05DAA3308F0CE
:1058E000A95DA193009779F7B111B1931192CB0102
:1058F0000C947A2CDC01FC01672F71917723E1F77E
:10590000329704C07C916D9370836291AE17BF078C
:10591000C8F30895F999FECF92BD81BDF89A9927F1
:1059200080B50895262FF999FECF1FBA92BD81BD8B
:1059300020BD0FB6F894FA9AF99A0FBE0196089511
:105940000E94E22CA59F900DB49F900DA49F800D06
:10595000911D112408952F923F924F925F926F9262
:105960007F928F929F92AF92BF92CF92DF92EF92EF
:10597000FF920F931F93CF93DF93CDB7DEB7CA1B70
:10598000DB0B0FB6F894DEBF0FBECDBF09942A889B
:10599000398848885F846E847D848C849B84AA8443
:1059A000B984C884DF80EE80FD800C811B81AA81D0
:1059B000B981CE0FD11D0FB6F894DEBF0FBECDBF9B
:1059C000ED010895A29FB001B39FC001A39F700D88
:1059D000811D1124911DB29F700D811D1124911DF7
:1059E0000895A1E21A2EAA1BBB1BFD010DC0AA1F20
:1059F000BB1FEE1FFF1FA217B307E407F50720F038
:105A0000A21BB30BE40BF50B661F771F881F991FB2
:105A10001A9469F760957095809590959B01AC01FB
:105A2000BD01CF010895EE0FFF1F0590F491E02D09
:105A300009940E94E22CB7FF0895821B930B0895EE
:105A4000B7FF0C94A02C0E94A02C821B930B0895EE
:105A50002A153B054C055D056E057F0580079107FE
:105A600008950F931F93CF93DF938230910510F425
:105A700082E090E0E091FB05F091FC0520E030E051
:105A8000A0E0B0E0309719F140815181028113818B
:105A900048175907C8F08417950769F4109731F033
:105AA00012960C93129713961C9327C00093FB0534
:105AB0001093FC0522C02115310519F04217530738
:105AC00018F49A01BD01EF01DF01F801DBCF2115C8
:105AD0003105F9F0281B390B2430310580F48A8117
