:100000000C9476010C949E010C949E010C949E011C
:100010000C949E010C949E010C949E010C949E01E4
:100020000C949E010C949E010C948A230C94F92349
:100030000C949E010C949E010C949E010C949E01C4
:100040000C949E010C949E010C949E010C949E01B4
:100050000C949E010C949E010C949E010C944023E0
:100060000C949E010C9451260C942B260C949E010A
:100070000C949E010C949E010C949E010C949E0184
:100080000C949E010C949E010C949E010C949E0174
:100090000C9421220C949E010C949E010C949E01C0
:1000A0000C949E010C949E010C949E0141542B4390
:1000B00053510D0A001F1C1F1E1F1E1F1F1E1F1E37
:1000C0001F080B00020202000009040000010202E6
:1000D000000005240010010524010101042402068A
:1000E00005240600010705810310004009040100F2
:1000F000020A000000070502024000000705830213
:100100004000000403090412010002EF0201404F05
:100110001B0692000101020301537061726B467568
:100120006E00537061726B46756E2050726F204D79
:100130006963726F0041542B435245473D310D0AAC
:100140000041542B43545A523D310D0A0041542B67
:1001500043545A553D310D0A0041545A300D004167
:10016000542B4950523D31393230300D0A00415440
:100170002B4346554E3D310D0A0041542B43465505
:100180004E3D300D0A0045004500450000000000CE
:10019000240027002A002D00300000000000250068
:1001A00028002B002E003100000000002300260054
:1001B00029002C002F000404040404030405020297
:1001C00002020403020202020606060606060404F0
:1001D0000202020404040802011040804010204082
:1001E000804080080204018040201002011080102D
:1001F000204040200000000200090F00000304011D
:10020000000C0000000000000000000000000000E2
:10021000000041542B434C49503D310D0A004154DC
:100220002B4347534E0D0A004154480D0A003B0D25
:100230000A004154440041542B434855500D0A00D4
:1002400041542657300D0041542B434C49503D3109
:100250000D0A0041542B4347455245503D300D0A8D
:1002600000415445300D0A0061742B71757263634F
:1002700066673D22757263706F7274222C227561FD
:10028000727431220D0A0041542B434E4D493D31C9
:100290002C322C302C302C300D0A0041542B434C86
:1002A00049503D310D0A0041542B434D47463D31E5
:1002B0000D0A0041542B435245473D310D0A003B86
:1002C0002657300D0A0041542B434E4D503D00221D
:1002D0000D0041542B434D47533D220041542B43C5
:1002E000434C4B3F0D0A000083265F3011241FBE94
:1002F000CFEFDAE0DEBFCDBF26E0AAEFB2E001C06B
:100300001D92A736B207E1F712E0A0E0B1E0E4E009
:10031000FDE602C005900D92AA3FB107D9F711E0A2
:10032000C5E7D1E004C02197FE010E948031C437A7
:10033000D107C9F70E943A270C9475360C94000037
:100340008091080490910904891B990B0895FC0180
:100350008091F203882311F13FB7F89482E08093F3
:10036000E9002091F200822F90E01816190614F48B
:1003700081E090E0882339F0289844E64093F10327
:100380004091F1004083222339F02091F2002111A5
:1003900003C02BE62093E8003FBF08958FEF9FEF47
:1003A00008952FB7F89483E08093E9009091E800D6
:1003B000892F807295FF04C09091F20080E4891B20
:1003C0002FBF08952091CC03260F3327331F2132EE
:1003D0003105ECF420915004FC0190E080E02430E1
:1003E00069F082E00895A091CC032191AC014655BB
:1003F0005C4FA40FB52FB11D2C930196861798F36F
:100400008091CC03680F6093CC0380E0089581E075
:100410000895089508950895E091090480910804CD
:10042000E81730F4F0E0E65FFB4F808190E008953C
:100430008FEF9FEF089590910904809108042FEFAA
:100440003FEF981748F4E92FF0E0E65FFB4F20817B
:1004500030E09F5F90930904C9010895CF92DF9225
:10046000EF92FF920F931F93CF93DF937C01CB0109
:100470008A0120915604222389F0EB016B01C40EFE
:10048000D51ECC15DD0569F06991D701ED91FC9180
:100490000190F081E02DC7010995F3CF642F0E94F0
:1004A000E201C801DF91CF911F910F91FF90EF9072
:1004B000DF90CF900895CF93DF931F92CDB7DEB733
:1004C0006983209156042223F9F020917904203287
:1004D00058F021E030E0FC013383228390E080E09B
:1004E0000F90DF91CF91089580915704E82FF0E0AD
:1004F000E85AFB4F998190838F5F809357048093D4
:10050000790481E090E0ECCF61E0CE0101960E9499
:10051000E201F7CF682F8AE794E00C945B028091A8
:10052000A10381110DC082E080939D0384E080933C
:100530009E031092A00310929F0381E08093A10379
:100540008DE993E0089581508F3008F047C0E82F7F
:10055000F0E0E355FD4F0C948031CA02CE02BC029C
:10056000C202C602EE02EE02EE02D102D702DB02A6
:10057000DF02E502EE02E902809180008F7780932E
:1005800080000895809180008F7DF9CF8091800058
:10059000877FF5CF84B58F7784BD089584B58F7D2F
:1005A000FBCF809190008F77809390000895809189
:1005B00090008F7DF9CF80919000877FF5CF80915B
:1005C000C0008F778093C00008958091C0008F7D18
:1005D000F9CF8091C200877F8093C2000895CF93A6
:1005E000DF93282F30E0F901EC50FE4F8491F901A0
:1005F000EB52FE4FD491F901EA54FE4FC491CC2343
:10060000A1F081110E94A302EC2FF0E0EE0FFF1F7A
:10061000E855FE4FA591B491EC91ED2381E090E077
:1006200009F480E0DF91CF91089580E090E0FACF67
:100630001F93CF93DF93282F30E0F901EC50FE4F4A
:100640008491F901EB52FE4FD491F901EA54FE4F27
:10065000C491CC23A9F0162F81110E94A302EC2F84
:10066000F0E0EE0FFF1FE656FE4FA591B4918FB755
:10067000F894EC91111108C0D095DE23DC938FBF64
:10068000DF91CF911F910895DE2BF8CF1092500487
:1006900081E080934F0410922A0461E082E00E947E
:1006A000180361E083E00E941803E9EBF0E0808129
:1006B0008E7F808380818D7F808388E48093B800E3
:1006C00085E48093BC000895CF93DF9391E09093ED
:1006D000A9038823B9F0C091B800D091BA008091E5
:1006E000BC008A7B8093BC0060E082E00E9418031B
:1006F00060E083E00E9418030E944603D093BA0092
:10070000C093B800DF91CF910895CF93DF9390E02D
:10071000FC01EB52FE4F24918A549E4FFC018491C0
:100720008823C9F090E0880F991FFC01E457FE4F21
:10073000A591B491FC01E656FE4FC591D49161118B
:100740000DC09FB7F8948C91209582238C9388815B
:10075000282328839FBFDF91CF910895623051F401
:100760009FB7F8943C91822F809583238C93E881E6
:100770002E2BEFCF8FB7F894EC912E2B2C938FBFAD
:10078000EACF3FB7F8948091990390919A03A09192
:100790009B03B0919C0326B5A89B05C02F3F19F081
:1007A0000196A11DB11D3FBFBA2FA92F982F8827F1
:1007B000BC01CD01620F711D811D911D42E0660FCC
:1007C000771F881F991F4A95D1F708958F929F929E
:1007D000AF92BF92CF92DF92EF92FF920F931F934F
:1007E000CF93DF93D0917904D13208F0D7C0182F7E
:1007F000C09178040E94C1036B017C018091500478
:1008000081116BC082E08093500410934F048FEFEE
:1008100080934E0410924D04D0934C04A8E5B4E0AC
:10082000ECE2F4E080E0D81391C010922B048091A8
:100830002B04CC0FC82BC0932B0480912A04813049
:1008400009F088C010922A040E94C1036B017C0148
:1008500080912B048093BB008091520490915304AB
:10086000A0915404B0915504892B8A2B8B2BA1F0B5
:100870000E94C1030091520410915304209154042A
:10088000309155046C197D098E099F0906171707C9
:100890002807390708F442C08091BC0083FDD8CFF7
:1008A00085EC8093BC000E94C1036B017C018091A8
:1008B0005004823009F450C080914E048F3F09F4F7
:1008C0006FC080914E04803209F46CC080914E0458
:1008D000803309F469C084E026C08091520490916D
:1008E0005304A0915404B0915504892B8A2B8B2B6F
:1008F00009F484CF0E94C103809052049090530465
:10090000A0905404B09055046C197D098E099F097C
:1009100086169706A806B90608F070CF8091510494
:100920000E94640385E0109257041092790410929B
:100930005604DF91CF911F910F91FF90EF90DF90C0
:10094000CF90BF90AF909F908F9008959D9191937D
:100950008F5F69CF85EEA5CF8091520490915304AB
:10096000A0915404B0915504892B8A2B8B2B09F448
:100970009ECF0E94C1030091520410915304209114
:100980005404309155046C197D098E099F0906178E
:1009900017072807390708F08ACFC0CF81E0C3CFF7
:1009A00080E0C1CF82E0BFCF83E0BDCF8F929F9226
:1009B000AF92BF92CF92DF92EF92FF926B017C01D8
:1009C0000E94C1034B015C01C114D104E104F10494
:1009D000B9F00E94C103681979098A099B09683E28
:1009E00073408105910580F321E0C21AD108E10826
:1009F000F10888EE880E83E0981EA11CB11CE4CF9C
:100A0000FF90EF90DF90CF90BF90AF909F908F902E
:100A100008951F93CF93DF93EC01162F81E080930D
:100A2000560480E58093780410925704109279045C
:100A30008D2F90E00E948A02CE0199270E948A029F
:100A4000612F8AE794E00E945B0281E00E94E60346
:100A500064E170E080E090E0DF91CF911F910C9411
:100A6000D6042FB7F8946091950370919603809106
:100A70009703909198032FBF08950F931F93CF93DF
:100A8000DF93EC01092E000CAA0BBB0B8093A4058D
:100A90009093A505A093A605B093A7050E943105E4
:100AA000AB01BC018091AB059091AC05A091AD0567
:100AB000B091AE058A019B01081B190B2A0B3B0B59
:100AC0008091A4059091A505A091A605B091A705D8
:100AD000081719072A073B0758F18091A2058111D1
:100AE00024C081E08093A205C43F81E0D8075CF078
:100AF000CE01845F9140092E000CAA0BBB0B481B52
:100B0000590B6A0B7B0B4093AB055093AC0560937C
:100B1000AD057093AE056091A2058091A005DF91AF
:100B2000CF911F910F910C9418031092A205EBCF57
:100B3000DF91CF911F910F9108950895409108037F
:100B40005091090320910603309107034217530780
:100B5000B4F49091E8009570E1F39091E80092FD73
:100B600019C08093F10080910803909109030196C8
:100B70008F739927892B19F48EEF8093E800809169
:100B80000803909109030196909309038093080349
:100B900081E0089580E00895EF92FF920F931F93F4
:100BA000CF93DF93F82E192FE62E042F81E0860FC6
:100BB000880F0E949E0583E00E949E05CF2DD12FB5
:100BC000EC0EFD2EF11CCE15DF05B9F007FF13C0AA
:100BD000FE0184910E949E05182F80E00E949E05D0
:100BE000812321968111EFCFDF91CF911F910F913A
:100BF000FF90EF9008958881EDCF81E0F5CFDF92EF
:100C0000EF92FF920F931F93CF93DF93D82E8A0119
:100C1000EB017B01E40EF51ECE15DF0559F0D7FE82
:100C200012C0FE0184910E949E0521968111F4CF8D
:100C30000FEF1FEFC801DF91CF911F910F91FF9030
:100C4000EF90DF9008958881EECF0F931F93CF939D
:100C5000DF931F92CDB7DEB782E0898342E450E094
:100C600061EC70E080E80E94FF050E948F02DC01C9
:100C700012960D911C910115110589F0D801ED9185
:100C8000FC910280F381E02DBE016F5F7F4FC801B0
:100C9000099597FD04C0F80100851185ECCF898185
:100CA0000F90DF91CF911F910F910895615030F017
:100CB0002091F100FC0120830196F8CF289884E66A
:100CC0008093F10308950F931F93CF93DF93EC016B
:100CD0000E943105688779878A879B87E881F98137
:100CE0000284F385E02DCE01099597FF15C00E947F
:100CF0003105088519852A853B85601B710B820BA0
:100D0000930B0C811D812E813F8160177107820733
:100D1000930720F38FEF9FEFDF91CF911F910F91FA
:100D20000895DB0114964D915C9115976D917C911E
:100D3000DC01ED91FC910280F381E02D0994EF92AA
:100D4000FF920F931F93CF93DF938C017B01D0E031
:100D5000C0E0F701EC0FFD1F6491662361F0D8013C
:100D6000ED91FC910190F081E02DC8010995892B4E
:100D700011F02196EECFCE01DF91CF911F910F910F
:100D8000FF90EF90089566E372E086E894E00C949B
:100D90009F06AF92BF92CF92DF92EF92FF920F9396
:100DA0001F93CF93DF936C017B018B01040F151F01
:100DB000EB015E01AE18BF08C017D10759F0699169
:100DC000D601ED91FC910190F081E02DC6010995CD
:100DD000892B79F7C501DF91CF911F910F91FF907A
:100DE000EF90DF90CF90BF90AF90089590E080E0BB
:100DF0000895FC01538D448D252F30E0842F90E021
:100E0000821B930B541710F0CF9608950197089505
:100E1000FC01918D828D981761F0A28DAE0FBF2FCE
:100E2000B11D5D968C91928D9F5F9F73928F90E024
:100E300008958FEF9FEF0895FC01918D828D981793
:100E400031F0828DE80FF11D858D90E008958FEFD0
:100E50009FEF0895FC01918D228D892F90E0805C99
:100E60009F4F821B91098F739927089586E894E01C
:100E70000E942A0721E0892B09F420E0822F08959F
:100E800080E090E0892B29F00E94360781110C94B4
:100E900000000895FC01A48DA80FB92FB11DA35A1D
:100EA000BF4F2C91848D90E001968F739927848F8A
:100EB000A689B7892C93A089B1898C9182748C936F
:100EC000938D848D981306C00288F389E02D80816C
:100ED0008F7D80830895EF92FF920F931F93CF939E
:100EE000DF93EC0181E0888F9B8D8C8D981319C066
:100EF000E889F989808185FF14C09FB7F894EE894D
:100F0000FF896083E889F9898081827480839FBF2B
:100F100081E090E0DF91CF911F910F91FF90EF90D2
:100F20000895F62E0B8D10E00F5F1F4F0F731127E2
:100F3000E02E8C8D8E110CC00FB607FCFACFE8891D
:100F4000F989808185FFF5CFCE010E944A07F1CF54
:100F5000EB8DEC0FFD2FF11DE35AFF4FF0829FB791
:100F6000F8940B8FEA89FB8980818062CFCFCF9381
:100F7000DF93EC01888D8823B9F0AA89BB89E889C1
:100F8000F9898C9185FD03C0808186FD0DC00FB667
:100F900007FCF7CF8C9185FFF2CF808185FFEDCFE5
:100FA000CE010E944A07E9CFDF91CF9108958F9239
:100FB0009F92AF92BF92CF92DF92EF92FF920F93E8
:100FC0001F93CF93DF936C017B018A0180910B010A
:100FD000882309F45CC08091F203882309F457C088
:100FE00080910C0380FF05C08091E00082608093B7
:100FF000E000E801B12C8AEFA82E93E0892E2AE3C5
:10100000922E209711F4BB20D9F10E94D1018111B9
:101010000AC0AA94AA20D9F161E070E080E090E0D3
:101020000E94D604EECF8C171D0611F00CF08C2F09
:101030009FB7F8948092E9002091E80025FD02C056
:101040009FBFDFCF282F30E0C21BD30BF7018150A9
:1010500020F041914093F100FACFE20EF31EBB2045
:1010600021F09092E800B12CEBCF8091E80085FD53
:10107000E7CF9092E800BB24B394209709F3F3CF15
:101080005D9884E680930B03101611063CF081E016
:1010900090E0F6019383828310E000E0C801DF91C5
:1010A000CF911F910F91FF90EF90DF90CF90BF9065
:1010B000AF909F908F900895CF93DF931F92CDB7FD
:1010C000DEB76983DC01ED91FC910280F381E02DB4
:1010D00041E050E0BE016F5F7F4F09950F90DF91B7
:1010E000CF91089583E08093E9008091F2008823F6
:1010F00019F08AE38093E80008950E94D10190E0FE
:101100000895CF93DF931F92CDB7DEB7FC0184859E
:10111000958597FD08C02FEF3FEF358724870F9007
:10112000DF91CF910895CE0101960E94A70101970A
:1011300019F4898190E0F3CF8FEF9FEFF0CF0F93F9
:101140001F93CF93DF931F92CDB7DEB78C01FC01C5
:101150008485958597FF0BC0CE0101960E94A7015B
:10116000019771F4898190E0F80195878487F801EF
:10117000848595850F90DF91CF911F910F910895F0
:101180008FEF9FEFF1CFFC018485958597FD0BC014
:101190009FB7F89482E08093E9008091F2009FBFAE
:1011A00090E0019608959FB7F89482E08093E9005B
:1011B0008091F2009FBF90E0089560E0FC01808183
:1011C0000C94180361E0FC0180810C941803EF92E9
:1011D000FF920F931F93CF93DF93EC01CB01072E68
:1011E000000CAA0BBB0B8C839D83AE83BF835987F6
:1011F00048878B81882339F18B01F12CE12C61E048
:1012000088810E9418036885798590E080E00E94BB
:10121000D60460E088810E9418036885798590E093
:1012200080E00E94D6048FEFE81AF80A0E151F0519
:1012300031F760E08881DF91CF911F910F91FF908E
:10124000EF900C941803DF91CF911F910F91FF90B5
:10125000EF90089548EC50E064E070E080EA95E09B
:101260000C94E7088F929F92AF92BF92CF92DF9239
:10127000EF92FF92CF93DF93EC016A017B0180E84C
:10128000C81A83E4D80A8DE6E80A88E3F80A8CE3F2
:10129000882E912CA12CB12CC701B601A501940177
:1012A0000E945E316D83CA01B901A50194010E94BB
:1012B0005E316C83C701B60120E13EE040E050E0C2
:1012C0000E945E31CA01B90128E130E040E050E0FF
:1012D0000E945E316B83C701B60120E831E541E031
:1012E00050E00E945E31188263E97EEF4881542FFE
:1012F000537081E009F080E090E0FC01E359FE4F7B
:101300002E173F0740F0FB01E81BF90B2E0F3F1F84
:101310004F5F4883EBCF81E089838981682F6150DB
:10132000770BFB01EB54FF4FE491511103C0823066
:1013300009F4EF5FF0E02E173F0720F02E1B3F0B64
:101340008F5FEACF2F5F2A83DF91CF91FF90EF90DD
:10135000DF90CF90BF90AF909F908F900895CF93E4
:10136000DF93EC010E94310528EE33E040E050E0CD
:101370000E945E318091020390910303A0910403C7
:10138000B0910503BA01A901480F591F6A1F7B1FBD
:10139000CE010E943209CE01DF91CF910895DC0188
:1013A00050E0E5EBF0E081E0861730F49491490FCE
:1013B000511D8F5F3196F8CF633038F0CD018370C7
:1013C0009927892B11F44F5F5F4F9D012D5F3F4F90
:1013D00036952795369527956DE671E0A69FC00155
:1013E000A79F900DB69F900D11240197820F931F18
:1013F000840F951F0895EF92FF920F931F93CF9341
:10140000DF93EC0188814A81698190E00E94CF09D5
:101410009C01A8E1B0E00E943B312B817B018C0153
:10142000E20EF11C011D111DA8019701ACE3B0E013
:101430000E94F9302C817B018C01E20EF11C011D10
:10144000111DA80197010E94F9302D81620F711DB5
:10145000811D911D60587C4B8249974CDF91CF9143
:101460001F910F91FF90EF900895CF92DF92EF922E
:10147000FF920E94FB096B017C010E94310528EE5E
:1014800033E040E050E00E945E31C21AD30AE40A21
:10149000F50AC0920203D0920303E0920403F09293
:1014A0000503FF90EF90DF90CF900895FC018081BD
:1014B0004281618190E00E94CF09069667E070E06A
:1014C0000E944A310895CF92DF92EF92FF920F93DC
:1014D0001F93CF93DF93EC0181E08093560480E566
:1014E0008093780410925704109279048D2F90E025
:1014F0000E948A02CE0199270E948A0281E00E94FE
:10150000E6030E94C1036B017C01809150048111AC
:1015100063C081E08093500480934F049FEF9093C9
:101520004E0410924D0410924C0480932B04809131
:101530002B04806A80932B0480912A04813009F067
:1015400084C010922A040E94C1036B017C01809127
:101550002B048093BB008091520490915304A0917E
:101560005404B0915504892B8A2B8B2BA1F00E9437
:10157000C1030091520410915304209154043091FE
:1015800055046C197D098E099F090617170728074E
:10159000390708F442C08091BC0083FDD8CF85ECA8
:1015A0008093BC000E94C1036B017C0180915004B8
:1015B000813009F44CC080914D0481116AC0809142
:1015C0004D04ECE2F4E0AAE0B4E090E0981751F1A9
:1015D00021912D939F5FFACF8091520490915304F3
:1015E000A0915404B0915504892B8A2B8B2B09F4BC
:1015F0008CCF0E94C103009152041091530420919A
:101600005404309155046C197D098E099F09061701
:1016100017072807390708F078CF809151040E94F6
:10162000640380E01092090480930804882399F1F0
:101630008AE794E00E941B02DF91CF911F910F91E6
:10164000FF90EF90DF90CF90089585EEA9CF809125
:10165000520490915304A0915404B0915504892BE5
:101660008A2B8B2B09F4A2CF0E94C1030091520454
:101670001091530420915404309155046C197D0944
:101680008E099F09061717072807390708F08ECF1C
:10169000C4CF81E096CF8FEFCFCFEF92FF920F9321
:1016A0001F93CF93DF93E090AF05F090B0058134A6
:1016B00029F1C6E0D0E0853411F0C1E0D0E087E048
:1016C0008C9F80018D9F100D1124EC16FD06D4F027
:1016D000C8010797801791076CF40E94630A811173
:1016E00009C0C80106978017910724F40E94630A75
:1016F000882351F02196095F1F4FE7CF85E0E82E40
:10170000F12CDBCFD0E0C0E0CE01DF91CF911F9173
:101710000F91FF90EF900895DF92EF92FF920F9359
:101720001F93CF93DF938C017B01D0E0C0E087E073
:10173000D82E2091AF053091B005D29EC001D39E26
:10174000900D11248C179D078CF0CE010E94630A26
:10175000882351F0F801CD31D1050CF0F7018081DB
:1017600091810196918380832796E3CFDF91CF917A
:101770001F910F91FF90EF90DF900895CF92DF922D
:10178000EF92FF920F931F93CF93DF937B0100970C
:1017900041F18C0182E0C82ED12C82E090E00E94C1
:1017A0009E31EC011882A601B8010E9480331A8292
:1017B000CE010E946730682FC7010E94090520975B
:1017C00019F0CE010E943A320E5F1F4F82E0C80E20
:1017D000D11C8FEFE81AF80A8EE0C816D104E9F69A
:1017E0000CC0D0E0C0E060E0C7018C0F9D1F0E94DC
:1017F00009052196C630D105B1F7DF91CF911F9130
:101800000F91FF90EF90DF90CF900895CF93DF93EB
:10181000EC0188819981009711F00E943A32198277
:1018200018821D821C821B821A82DF91CF9108953B
:10183000FC0180819181009711F00C943A32089557
:10184000FB0101900020E9F73197AF01461B570BD0
:10185000DC01ED91FC910280F381E02D09948F92DF
:101860009F92AF92BF92EF92FF920F931F93CF93ED
:10187000DF93CDB7DEB7A1970FB6F894DEBF0FBEEA
:10188000CDBF7C01FA01CB0119A2223008F42AE075
:101890008E010F5D1F4F822E912CB12CA12CBF0108
:1018A000A50194010E945E31F901CA016A300CF56C
:1018B000605DD8016E938D01232B242B252B79F7A6
:1018C00090E080E0109721F0BD01C7010E94200C3C
:1018D000A1960FB6F894DEBF0FBECDBFDF91CF91BA
:1018E0001F910F91FF90EF90BF90AF909F908F90BE
:1018F0000895695CDECFCF92DF92EF92FF920F9353
:101900001F93CF93DF936B01770FEE08FF08F7FE6D
:101910001FC0EC01E881F9810190F081E02D6DE2BA
:1019200009958C0144275527BA014C195D096E09A8
:101930007F092AE0CE010E942F0C800F911FDF91BA
:10194000CF911F910F91FF90EF90DF90CF9008956E
:101950002AE0B701A601DF91CF911F910F91FF906F
:10196000EF90DF90CF900C942F0C6BE571E00C940E
:10197000200CCF93DF93BC0183E295E00E949F0689
:10198000EC0183E295E00E94B50C8C0F9D1FDF9166
:10199000CF910895CF93DF93BC0183E295E00E943D
:1019A0007B0CEC0183E295E00E94B50C8C0F9D1F2F
:1019B000DF91CF9108950F931F93CF93DF93EC01A5
:1019C0000E9491068C01CE010E94B50C800F911FE0
:1019D000DF91CF911F910F9108953F924F925F92A7
:1019E0006F927F928F929F92AF92BF92CF92DF922F
:1019F000EF92FF920F931F93CF93DF93EC013B0184
:101A0000FC0101900020E9F73197E81BF90BD12C7C
:101A1000C12C329768F042E050E06EE571E00E9420
:101A2000B73331E020E0892B09F030E0C32ED22E0D
:101A3000B12CA12CEE24E394F12C2E014C0C5D1C56
:101A40008091AF059091B00505968E159F050CF419
:101A500061C010E000E0302E82E090E00E949E31F4
:101A6000EC01F801EE0FFF1FE40DF51D808191815F
:101A7000998388831A82CE010E9467304C01011538
:101A8000110539F481E0C816D10419F4E0E58E1A85
:101A90009108C8018A0D9B1D0E94630A88151904CC
:101AA00079F5209719F0CE010E943A3233940F5FF6
:101AB0001F4F0730110579F6F7E0AF0EB11C85E036
:101AC000831520F527E02E9DC0012F9D900D112438
:101AD00001970E94630AF3018083C701DF91CF91D0
:101AE0001F910F91FF90EF90DF90CF90BF90AF903C
:101AF0009F908F907F906F905F904F903F90089550
:101B00002097D1F2CE010E943A32D6CFFFEFEF1AE2
:101B1000FF0A96CFF12CE12CE0CFCF92DF92EF922B
:101B2000FF920F931F93CF93DF931F92CDB7DEB732
:101B30004983FC0101900020E9F73197E81BF90B7C
:101B4000DC01EB30F10568F4F12CE12CC7010F90BA
:101B5000DF91CF911F910F91FF90EF90DF90CF9089
:101B600008952D91022E000C330B205331092A3099
:101B7000310550F79D01281B390B2E173F0788F3BD
:101B8000F62E8C01BE016F5F7F4F0E94ED0C892BFA
:101B9000D9F68F2D0E944D0B7C0118161906A4F65C
:101BA000019727E0289F6001299FD00C1124B601DE
:101BB000C8010E94BE0B6981C60106960E940905F4
:101BC000C5CFCF92DF92EF92FF920F931F93CF93E7
:101BD000DF931F92CDB7DEB71982BE016F5F7F4FD3
:101BE0000E94ED0C7C01019727E0289F6001299F4E
:101BF000D00C112410E000E060E0C8018C0D9D1DA8
:101C00000E9409050F5F1F4F07301105A9F7C70193
:101C10000F90DF91CF911F910F91FF90EF90DF9088
:101C2000CF90089560E171E08091FF0390910004EE
:101C30000E94ED0C009731F480914803813051F4FB
:101C400082E008959C01215031092530310520F0B2
:101C50000697B4F780E0089581E0089546E050E0EB
:101C600069E473E08091FD039091FE030E94B73315
:101C700021E0892B09F020E0822F089585ED8093E3
:101C8000BC008091520490915304A0915404B091EF
:101C900055040796A11DB11D23E0B695A79597950C
:101CA00087952A95D1F72091BC0024FD03C010929E
:101CB000500408954091520450915304609154048B
:101CC00070915504452B462B472B69F30097A105CE
:101CD000B10541F025E32A95F1F700000197A1092C
:101CE000B109E1CF809151040C9464030F931F93C9
:101CF000CF93DF938C01EB010E94E3308883C8010E
:101D000001960E94E3308983CE01DF91CF911F912C
:101D10000F910895CF93DF93EB010E94E330888306
:101D2000CE01DF91CF910895CF93DF93EB010E9415
:101D3000E3308883CE01DF91CF9108950F931F93F5
:101D4000CF93DF9309E413E0D0E0C0E0CE010E941E
:101D5000E330F80181938F012196C730D105B1F7A7
:101D60008AE090E00E94E330809304048BE090E0EE
:101D70000E94E330809305048CE090E00E94E33001
:101D8000809306048DE090E00E94E3308093070486
:101D900068E473E086E490E00E94940E66E473E0E9
:101DA00088E290E00E948A0E65E473E082E390E0AE
:101DB0000E948A0E64E473E084E390E00E94940E33
:101DC0006FE373E086E390E00E94760E67E473E0D1
:101DD0008CE390E00E948A0E62E473E08EE390E070
:101DE0000E94760E6DE373E08AE490E00E94760E26
:101DF00065E173E08CE490E00E948A0E60E973E094
:101E00008EE490E00E94760E60E073E08AE590E058
:101E10000E94760E6EEF72E084E690E00E94760EED
:101E20006CEF72E08EE690E00E94760E6BEF72E04F
:101E300088EC90E00E948A0ED0E0C0E0BE016C5DAC
:101E40007C4F8CED90E00E94760EBE016A5E7C4F66
:101E50008EED90E00E94760E2296CE30D10571F77D
:101E6000DF91CF911F910F910895FF920F931F93D0
:101E7000CF93DF93EC01F62E08811981C8010E94EF
:101E8000E330F81621F06F2DC8010E94EB30CE012F
:101E9000DF91CF911F910F91FF900895EF92FF92E4
:101EA0000F931F93CF93DF9300D0CDB7DEB784E0BD
:101EB000E82E84E0F82E0AE010E01A830983F70187
:101EC00061917F01CE0101960E94350F0F5F1F4F78
:101ED0000E30110591F784E094E00F900F90DF91A0
:101EE000CF911F910F91FF90EF900895CF92DF92C5
:101EF000EF92FF920F931F93CF93DF9300D0CDB754
:101F0000DEB76C017C0110E000E01A830983F70161
:101F100061917F01CE0101960E94350F0F5F1F4F27
:101F20000730110591F7C6010F900F90DF91CF9107
:101F30001F910F91FF90EF90DF90CF900895EF9257
:101F4000FF920F931F93CF93DF9300D0CDB7DEB7EF
:101F50008C017B019A838983FB016081CE0101960C
:101F60000E94350F0F5F1F4F1A830983F7016181AC
:101F7000CE0101960E94350FC7010F900F90DF919F
:101F8000CF911F910F91FF90EF9008959F92AF9284
:101F9000BF92CF92DF92EF92FF920F931F93CF9356
:101FA000DF9300D0CDB7DEB76C01B62E7A011A826E
:101FB0001982BE016F5F7F4F80E590E00E94760E30
:101FC00089819A818C5E9A4F2DE0289F8001299FFC
:101FD000100D1124B801C6010E94BE0BF701A080AC
:101FE0009180C380D4806281C80107960E94090550
:101FF000692DC80108960E9409056A2DC801099635
:102000000E9409056C2DC8010A960E9409056D2DD4
:10201000C8010B960E9409056B2DC8010C960E9401
:10202000090589819A810196843FF1E09F07B9F003
:102030009A838983BE016F5F7F4F80E590E00E94A5
:102040009F0F0F900F90DF91CF911F910F91FF90F5
:10205000EF90DF90CF90BF90AF909F9008951A823D
:102060001982E8CFFF920F931F93CF93DF93CDB7E1
:10207000DEB72C970FB6F894DEBF0FBECDBF8C0134
:10208000F62ECE0107960E94AF098F81898388853D
:102090008A8389858B838A858C838B858D838C85C8
:1020A0008E83AE014F5F5F4F6F2DC8010E94C60F38
:1020B000BE016F5F7F4F80E590E00E94760E8981C0
:1020C0009A810E94CA0C2C960FB6F894DEBF0FBE00
:1020D000CDBFDF91CF911F910F91FF9008950F9386
:1020E0001F93CF93DF9300D0CDB7DEB78B019A83D8
:1020F0008983FB016081CE0101960E94350FC801E2
:102100000F900F90DF91CF911F910F9108950F9332
:102110001F93CF93DF9300D0CDB7DEB78B019A83A7
:102120008983FB016081CE0101960E94350FC801B1
:102130000F900F90DF91CF911F910F9108950F9302
:102140001F93CF93DF93CDB7DEB72A970FB6F894DE
:10215000DEBF0FBECDBF80EA95E00E94E20810E02E
:1021600000E08091AF059091B00523E0880F991FA2
:102170002A95E1F7081719073CF460E0C8010E94AE
:1021800009050F5F1F4FEDCF04E012E460E0C801C6
:102190000E9409050F5F1F4F0C3C8BE51807B1F734
:1021A00010E000E01A83098360E0CE0101960E94EE
:1021B000350F0F5F1F4F011582E0180799F787E071
:1021C000E1E6F1E0DE01119601900D928A95E1F7CA
:1021D000CE0101960E94760F82E0809304048093E2
:1021E000050480930604809307040E944E0F19860D
:1021F0001886BE01685F7F4F86E490E00E949F0FC3
:1022000011E01887BE01685F7F4F88E290E00E946E
:102210006F101A87BE01665F7F4F8CE390E00E94CB
:102220006F101092150365E173E08CE490E00E945A
:102230006F1088E190E0909391038093900360E9A0
:1022400073E08EE490E00E949F0F02E310E0109391
:1022500001030093000360E073E08AE590E00E94D0
:102260009F0F1093FF020093FE026EEF72E084E670
:1022700090E00E949F0F1093FD020093FC026CEF10
:1022800072E08EE690E00E949F0F0E942A0961E0B2
:102290008EE290E00E94EB308EE090E090933E035F
:1022A00080933D036DE373E08AE490E00E949F0F0A
:1022B00088E19EE00FB6F894A895809360000FBE69
:1022C0009093600060ED77E080E090E00E94D6049B
:1022D0002A960FB6F894DEBF0FBECDBFDF91CF9127
:1022E0001F910F9108950F931F93CF93DF938C014C
:1022F000EB01FC01808191810097E1F06881798197
:1023000061157105A9F0428153812C813D814217ED
:10231000530770F00E94B0338C819D81F801958342
:1023200084831D821C82DF91CF911F910F910895AC
:102330000E943A3288819981F801918380838A8151
:102340009B81938382838C819D8195838483198271
:1023500018821B821A82E5CF0F931F93CF93DF93CE
:10236000EC0188819981009759F02A813B812617D9
:10237000370730F081E0DF91CF911F910F910895E1
:102380008B016F5F7F4F0E94C332009759F0998392
:1023900088831B830A832C813D81232B59F7FC0101
:1023A0001082E8CF80E0E7CFEF92FF920F931F9368
:1023B000CF93DF936115710541F480E0DF91CF91F8
:1023C0001F910F91FF90EF90089541155105B1F0C5
:1023D0007B01EC010C811D81040F151FB8010E94C7
:1023E000AC11882351F3288139818C819D81B701FB
:1023F000820F931F0E94B0331D830C8381E0DECFD8
:10240000CF93DF9300D0CDB7DEB769831A8241E066
:1024100050E0BE016F5F7F4F0E94D4110F900F906C
:10242000DF91CF910895FB0101900020E9F73197EA
:10243000AF01461B570B0C94D411FB01448155810D
:10244000608171810C94D411EF92FF920F931F93CE
:10245000CF93DF93EC017B018A01BA010E94AC119A
:1024600081110BC0CE010E94060CCE01DF91CF91ED
:102470001F910F91FF90EF9008951D830C83B7017A
:10248000888199810E94B033F0CFFB010190002038
:10249000E9F73197AF01461B570B0C9424120F93A9
:1024A0001F93CF93DF93CDB7DEB729970FB6F8947C
:1024B000DEBF0FBECDBF8C01862FF80111821082C6
:1024C00013821282158214824AE0BE016F5F7F4F31
:1024D00090E00E94B930BE016F5F7F4FC8010E943B
:1024E000451229960FB6F894DEBF0FBECDBFDF911F
:1024F000CF911F910F910895CF93DF93EC01FB01D2
:102500008617970749F0608171816115710541F067
:10251000448155810E942412CE01DF91CF9108950C
:102520000E94060CF9CFFC011182108213821282E4
:10253000158214820C947C12FC0111821082138289
:102540001282158214826115710551F0FB01019010
:102550000020E9F73197AF01461B570B0C9424126A
:1025600008950F931F93CF93DF93EC018B016DE5DB
:1025700071E00E949C12C8010E94630697FD05C08D
:10258000682FCE010E940012F6CFCE01DF91CF91CD
:102590001F910F910895CF93DF9300D000D000D00A
:1025A000CDB7DEB766E874E0CE0101960E94B112A5
:1025B000CE0101960E94180C64E670E080E090E085
:1025C0000E94D6046CED72E086E894E00E949F06BB
:1025D00026960FB6F894DEBF0FBECDBFDF91CF9128
:1025E0000895EF92FF920F931F93CF93DF9300D044
:1025F00000D000D0CDB7DEB77C018B0166E874E077
:10260000CE0101960E94B112CE0101960E94180CD3
:1026100064E670E080E090E00E94D60462ED72E033
:1026200086E894E00E949F06B70186E894E00E9445
:1026300091066FEC72E086E894E00E949F0668ECD9
:1026400070E080E090E00E94D604B80186E894E053
:102650000E94DB0C68EE73E080E090E00E94D604FC
:102660006AE186E894E00E946B0764EF71E080E025
:1026700090E00E94D60466E874E0CE0101960E94C4
:10268000B112CE0101960E94180C66E874E0CE01EA
:1026900001960E94B112CE0101960E94180C269656
:1026A0000FB6F894DEBF0FBECDBFDF91CF911F9163
:1026B0000F91FF90EF9008950F931F93CF93DF93A7
:1026C00000D000D000D0CDB7DEB78C0166EC72E050
:1026D00086E894E00E949F06B80186E894E00E9494
:1026E0007B0C6FEB72E086E894E00E949F0668EE38
:1026F00073E080E090E00E94D60463E275E0CE01D2
:1027000001960E94B112CE0101960E94180C2696E5
:102710000FB6F894DEBF0FBECDBFDF91CF911F91F2
:102720000F910895CF93DF9300D000D000D0CDB7A4
:10273000DEB78091B4059091B5050E945C1366E800
:1027400074E0CE0101960E94B112CE0101960E9462
:10275000180C63EB72E086E894E00E949F0664EF39
:1027600071E080E090E00E94D60466E874E0CE015B
:1027700001960E94B112CE0101960E94180C67EAE0
:1027800072E086E894E00E949F0664EF71E080E0CA
:1027900090E00E94D60466E874E0CE0101960E94A3
:1027A000B112CE0101960E94180C6BE972E086E826
:1027B00094E00E949F0664EF71E080E090E00E9448
:1027C000D60466E874E0CE0101960E94B112CE01F3
:1027D00001960E94180C67E872E086E894E00E9477
:1027E0009F0664EF71E080E090E00E94D60466E806
:1027F00074E0CE0101960E94B112CE0101960E94B2
:10280000180C68E672E086E894E00E949F0664EF88
:1028100071E080E090E00E94D60466E874E0CE01AA
:1028200001960E94B112CE0101960E94180C61E639
:1028300072E086E894E00E949F0664EF71E080E019
:1028400090E00E94D60466E874E0CE0101960E94F2
:10285000B112CE0101960E94180C63E572E086E881
:1028600094E00E949F0664EF71E080E090E00E9497
:10287000D60466E874E0CE0101960E94B112CE0142
:1028800001960E94180C67E472E086E894E00E94CA
:102890009F0664E670E080E090E00E94D60466E85F
:1028A00074E0CE0101960E94B112CE0101960E9401
:1028B000180C60E472E086E894E00E949F06269679
:1028C0000FB6F894DEBF0FBECDBFDF91CF91089554
:1028D0000F931F93CF93DF9300D000D000D0CDB7DC
:1028E000DEB78C0166E874E0CE0101960E94B11259
:1028F000CE0101960E94180C64E670E080E090E042
:102900000E94D60462E372E086E894E00E949F068B
:10291000B80186E894E00E9491066EE272E086E8D3
:1029200094E00E949F0668E873E180E090E00E94D6
:10293000D60468E272E086E894E00E949F0668EEA2
:1029400073E080E090E00E94D60466E874E0CE0177
:1029500001960E94B112CE0101960E94180C269693
:102960000FB6F894DEBF0FBECDBFDF91CF911F91A0
:102970000F910895EF92FF920F931F93CF93DF93E0
:1029800000D000D000D0CDB7DEB78C0166E874E08F
:10299000CE0101960E94B112CE0101960E94180C40
:1029A00064E670E080E090E00E94D6046EE172E0A0
:1029B00086E894E00E949F0668EE73E080E090E075
:1029C0000E94D604FF24F39487E2E82E86E894E080
:1029D0000E942A072091BE051816190664F52111D8
:1029E0002AC086E894E00E94080790910304992386
:1029F000E9F090910204292F30E02F543A4F2258E9
:102A00003F4FF9018A3051F080839F5F983218F070
:102A1000E0920204DBCF90930204D8CF1082109290
:102A2000030410920204F092BE05D0CF883371F6F1
:102A3000F0920304CBCF67E372E0222321F01092DF
:102A4000BE056FE276E0C8010E949C12C80126967E
:102A50000FB6F894DEBF0FBECDBFDF91CF911F91AF
:102A60000F91FF90EF9008954F925F926F927F9237
:102A70008F929F92AF92BF92CF92DF92EF92FF928E
:102A80000F931F93CF93DF9300D000D000D0CDB72A
:102A9000DEB7109200041092FF031092FE03109212
:102AA000FD031092FC031092FB031092FA031092A4
:102AB000F9031092F8031092F7031092F6031092A4
:102AC000F5031092F4031092F303DC01ED91FC91F5
:102AD0009081909301048091B105282F2D7F21359D
:102AE00049F4943531F19135C1F09334A1F083E08C
:102AF000582E15C08C3469F4943509F477C091359B
:102B000061F0993451F0933491F700E098E0592E38
:102B100013C0943551F700E00DC032E0532E892FD9
:102B20008D7F893421F09B7F913509F061C000E0F1
:102B300003C007E023E0522E69ED71E0CF010E944F
:102B40008530412C10E03801B4E06B0E711C780127
:102B500025E0E20EF11C6801A6E0CA0ED11C580166
:102B6000B7E0AB0EB11C480128E0820E911C075F54
:102B70001F4F009709F452C04394451004C090932E
:102B800000048093FF03242D30E02615370521F43F
:102B90009093FE038093FD032E153F0521F490933F
:102BA000FC038093FB032C153D0521F49093FA035D
:102BB0008093F9032A153B0521F49093F803809341
:102BC000F7032815390521F49093F6038093F50354
:102BD0002017310721F49093F4038093F30368E600
:102BE00071E090E080E00E948530C3CF08E0A2CF82
:102BF00062E172E086E894E00E949F0664EF71E073
:102C000080E090E00E94D60466E874E0CE01019670
:102C10000E94B112CE0101960E94180C26960FB6A2
:102C2000F894DEBF0FBECDBFDF91CF911F910F9102
:102C3000FF90EF90DF90CF90BF90AF909F908F90DC
:102C40007F906F905F904F900895BF92CF92DF92E8
:102C5000EF92FF920F931F93CF93DF93CDB7DEB721
:102C6000C259D1090FB6F894DEBF0FBECDBF1A828C
:102C70001982FE0133968EE7DF011D928A95E9F7EE
:102C8000CE0183579F4F0E94AF09CF56DF4FB880C8
:102C9000C159D040C057DF4FC880C059D040C3573A
:102CA000DF4FD880CD58D040C257DF4FE880CE5894
:102CB000D040C157DF4FF880CF58D040CE01835766
:102CC0009F4F0E94560AE82FF0E0EE0FFF1FEA5ECA
:102CD000FC4F10810181CE0183579F4F0E94560AFD
:102CE0001F92BF921F92CF921F92DF921F92EF927C
:102CF0001F92FF920F931F93E82FF0E0EE0FFF1F3C
:102D0000EC5DFC4F81818F9380818F938091400394
:102D10008F9380913F038F93809144031F928F93F1
:102D2000809145031F928F93809191038F9380919F
:102D300090038F93809115031F928F93809143038B
:102D40008F93809142038F9380913E038F93809164
:102D50003D038F93E4E0F4E081811F928F938081A3
:102D60001F928F9381E791E09F938F938E010F5F66
:102D70001F4F1F930F930E94D4330FB6F894DEBFFA
:102D80000FBECDBFB801CE0189579F4F0E949C1244
:102D90006091FF0370910004CE018F579F4F0E94F6
:102DA0009C12BE0169577F4FCE018F579F4F0E94E3
:102DB000F112CE018F579F4F0E94180CCE018957F8
:102DC0009F4F0E94180CCE56DF4F0FB6F894DEBF0F
:102DD0000FBECDBFDF91CF911F910F91FF90EF906C
:102DE000DF90CF90BF900895CF92DF92FF920F9324
:102DF0001F93CF93DF93CDB7DEB762970FB6F894EA
:102E0000DEBF0FBECDBF8C01F62E6A016DE571E00D
:102E1000CE010D960E949C1289E06F2D8F1540F512
:102E2000CE0101960E944F12BE016F5F7F4FCE010F
:102E30000D960E947311BE01635F7F4FC8010E940F
:102E40009312CE0101960E94180CCE010D960E949D
:102E5000180CC80162960FB6F894DEBF0FBECDBF46
:102E6000DF91CF911F910F91FF90DF90CF90089548
:102E7000CE010196E5E0CE16D104D9F40E944F129E
:102E8000BE016F5F7F4FCE010D960E947311CE0180
:102E900001960E94180CF80111821082138212828E
:102EA00015821482BE01635F7F4FC8010E947311B7
:102EB000CCCF0E944F1267EF72E0CE0107960E94BE
:102EC0009C124D815E8169817A81CE0107960E94B4
:102ED000D411811104C0CE0107960E94060CBE01D8
:102EE000695F7F4FCE010D960E947C12CE0107963E
:102EF0000E94180CCCCFBF92CF92DF92EF92FF923C
:102F00000F931F93CF93DF93CDB7DEB72C970FB6F8
:102F1000F894DEBF0FBECDBF8C016B016DE571E093
:102F2000CE0107960E949C1287E08C9D70018D9DBA
:102F3000F00C1124C70101970E94630A80931001CD
:102F4000670187E0C81AD108B12CF12CE12CC70128
:102F50008C0D9D1D0E94630A811101C0B39493E002
:102F60009B15D0F467EF72E0C8010E949C12CE015D
:102F700007960E94180CC8012C960FB6F894DEBF75
:102F80000FBECDBFDF91CF911F910F91FF90EF90BA
:102F9000DF90CF90BF900895A701682FCE010196D2
:102FA0000E94F416BE016F5F7F4FCE0107960E940C
:102FB0001D12CE0101960E94180CEFEFEE1AFE0AC8
:102FC000F6E0EF16F10419F6F8011182108213826F
:102FD000128215821482BE01695F7F4FC8010E9470
:102FE0007311C5CFAF92BF92DF92EF92FF920F9312
:102FF0001F93CF93DF93CDB7DEB7C054D1090FB67F
:10300000F894DEBF0FBECDBF5C01198280913703FB
:103010008E010F5D1F4F882309F44AC068EC71E0F0
:10302000CE0101960E94B0336091FF0370910004BD
:10303000CE0101960E949C33CE01C5960E94AF0935
:1030400088AD1F928F938DA91F928F938EA91F9287
:103050008F938FA91F928F938DEC91E09F938F9305
:103060001F930F930E94D433B801CE0101960E94A2
:103070009C3319A289AD0FB6F894DEBF0FBECDBF49
:103080008A3008F06FC01F928F938BED91E09F9371
:103090008F931F930F930E94D4330F900F900F9034
:1030A0000F900F900F90B801CE0101960E949C33B3
:1030B000EE24E394F12CD12CB701C8010E947B17B8
:1030C0008DA19EA1892B41F067EF72E089A19AA1A1
:1030D0000E94A733892B49F131E03D1530F468E8AF
:1030E00073E180E090E00E94D6048091370388234A
:1030F000F1F1BE016F5F7F4FCE01CB960E949C1213
:10310000B801CE01C5960E949312BE01655C7F4F47
:10311000CE01C5960E94F112CE01C5960E94180CF0
:10312000CE01CB960E94180CD394C8010E94180CB3
:103130008FEFE81AF80A26E0E216F10409F0BCCF96
:1031400081E0C05CDF4F0FB6F894DEBF0FBECDBF8D
:10315000DF91CF911F910F91FF90EF90DF90BF9083
:10316000AF9008951F928F938AED92E090CFB501B2
:10317000CE01CB960E949312C3CFEF92FF920F9392
:103180001F93CF93DF93CDB7DEB72C970FB6F8948C
:10319000DEBF0FBECDBF8C017B016AE772E00E94EB
:1031A0008933892B09F063C00E94C3068091100106
:1031B0008230B0F480913803811112C02091040450
:1031C00088EE93E0289FA001299F500D11244115FE
:1031D0005105E9F161E070E081E995E00E94E708BE
:1031E0000E94C30662E0C7010E9432108091420330
:1031F000909143030197E9F46FED71E0CE010796DA
:103200000E949C126091FF0370910004CE01019610
:103210000E949C12BE01695F7F4FCE0101960E9401
:10322000F112CE0101960E94180CCE0107960E9461
:10323000180C81E02C960FB6F894DEBF0FBECDBF00
:10324000DF91CF911F910F91FF90EF9008958091A2
:1032500091050E94EF02892B29F481E995E00E94F3
:10326000E208BECF81E995E00E94DD08B9CF62EEA9
:1032700071E0C8010E948933892B71F5809110019A
:103280008D7FB1F480914403811112C02091050417
:1032900088EE93E0289FA001299F500D112441152D
:1032A000510551F061E070E082E895E00E94E70886
:1032B0000E94C30663E097CF809182050E94EF02CF
:1032C000892B29F482E895E00E94E208F1CF82E898
:1032D00095E00E94DD08ECCF66EE71E0C8010E9427
:1032E0008933892B99F468E572E080E090E00E94D0
:1032F000D6040E94C30680911001882319F0833000
:1033000009F097CF81E08093370394CF80E092CF8C
:103310006AEE71E08091FB039091FC030E94893377
:10332000892B29F581E40E944D0B019759F40E94E5
:103330002A0940E061E48091FF03909100040E941B
:103340008D0D08958091FA02882349F081E40E944E
:103350004D0B181619061CF41092FA02E8CF42E33E
:1033600050E068E070E080EA95E00E94E70880E0C5
:103370000895EF92FF920F931F93CF93DF93CDB7F2
:10338000DEB7EA970FB6F894DEBF0FBECDBF8C0153
:103390007B01161617060CF06FC06091FB0370914D
:1033A000FC0346E050E0CE0101960E94C533FF9237
:1033B000EF9280EF91E09F938F937E0185E3E80E7B
:1033C000F11CFF92EF920E94D433B701CE01019617
:1033D0000E949C336091F9037091FA03CE0101962B
:1033E0000E949C336CE571E0CE0101960E949C33F3
:1033F000B801CE0101960E949C330F900F900F9060
:103400000F900F900F908091420390914303BE0163
:103410006F5F7F4F02972CF5CE018F960E949C1212
:10342000B801CE0189960E949C12BE01615D7F4F5A
:10343000CE0189960E94F112CE0189960E94180C45
:10344000CE018F960E94180CEA960FB6F894DEBF54
:103450000FBECDBFDF91CF911F910F91FF90EF90E5
:103460000895CE0189960E949C12CE0189960E94F1
:10347000F217CE018996E6CF60E171E00E94ED0C73
:10348000181619060CF766EF71E0CE0189960E94B6
:103490009C12B801CE0101960E949C12BE01675D8C
:1034A0007F4FCE0101960E94F112CE0101960E943B
:1034B000180CDFCF2F923F924F925F926F927F92C4
:1034C0008F929F92AF92BF92CF92DF92EF92FF9234
:1034D0000F931F93CF93DF93CDB7DEB7C856D109B3
:1034E0000FB6F894DEBF0FBECDBF6DEF71E08091D7
:1034F000FB039091FC030E948933892B19F50E94EC
:103500002A096FED71E0CE01895B9F4F0E949C12EA
:103510006091FF0370910004CE0101960E949C12FD
:10352000BE01695B7F4FCE0101960E94F112CE0170
:1035300001960E94180CCE01895B9F4F0E94180CC7
:103540000E949F1064E072E08091FB039091FC0365
:103550000E948933892B81F5E091F903F091FA03F8
:1035600086E0A9E4B3E001900D928A95E1F710920C
:10357000500389E493E00E94760F6FED71E0CE0175
:10358000895B9F4F0E949C126091FF037091000421
:10359000CE0101960E949C12BE01695B7F4FCE0155
:1035A00001960E94F112CE0101960E94180CCE01E4
:1035B000895B9F4F0E94180C6AEE71E08091FB03BB
:1035C0009091FC030E948933892B51F40E94881941
:1035D000682F70E08091FF03909100040E94B91958
:1035E0006CE072E08091FB039091FC030E948933B0
:1035F000892B31F581E08093FA0280EA95E00E9400
:10360000E2086FED71E0CE01895B9F4F0E949C1232
:103610006091FF0370910004CE0101960E949C12FC
:10362000BE01695B7F4FCE0101960E94F112CE016F
:1036300001960E94180CCE01895B9F4F0E94180CC6
:1036400066E172E08091FB039091FC030E94893354
:10365000892B09F04AC06DE571E0CE018A5A9F4F6F
:103660000E949C1201E010E0B801CE0101960E9478
:103670007B17BE016F5F7F4FCE018A5A9F4F0E941A
:103680001D12CE0101960E94180C6AE0CE018A5AE2
:103690009F4F0E9400120F5F1F4F0630110521F748
:1036A000BE016A5A7F4FCE01895B9F4F0E949312E1
:1036B0006091FF0370910004CE0101960E949C125C
:1036C000BE01695B7F4FCE0101960E94F112CE01CF
:1036D00001960E94180CCE01895B9F4F0E94180C26
:1036E000CE018A5A9F4F0E94180C60E272E08091CE
:1036F000FB039091FC030E948933892B09F06BC076
:103700008091F9039091FA030E9467306C018091D7
:10371000F7039091F8030E9467307C018601CE1474
:10372000DF040CF058C06DE571E0CE0101960E94F7
:103730009C1258012AE0A20EB11C0A151B05D1F0FB
:10374000B801CE01895B9F4F0E947B17BE01695B68
:103750007F4FCE0101960E941D12CE01895B9F4FC3
:103760000E94180C6AE0CE0101960E9400120F5FC1
:103770001F4FE3CFBE016F5F7F4FCE018A5A9F4F2D
:103780000E9493126091FF0370910004CE01895B47
:103790009F4F0E949C12BE016A5A7F4FCE01895BE7
:1037A0009F4F0E94F112CE01895B9F4F0E94180C1F
:1037B000CE018A5A9F4F0E94180C60EA7FE080E099
:1037C00090E00E94D6048AE0E81AF108CE01019642
:1037D0000E94180CA4CF66E272E08091FB039091E6
:1037E000FC030E948933892B09F026C16DE571E045
:1037F000CE018A5A9F4F0E949C126CE870E0CE0165
:103800008A5A9F4F0E94AC11BE01635A7F4F80E5D8
:1038100090E00E94760E6F96EEACFFAC6F9757016A
:1038200097E3A91AB10882E390E0B7FE03C05701FD
:10383000A81AB90A0597C9F71A141B040CF0F7C0A7
:10384000E5E0EE1AF1086DE571E0CE018A5A9F4F6E
:103850000E9445126F968EAD9FAD6F976C01F1E09F
:10386000CF1AD1088D5E9A4F2DE0289F4001299FE5
:10387000900C1124CA14DB040CF4D9C06DE571E07E
:10388000CE01895B9F4F0E949C1210E000E0C801AE
:10389000880D991D0E94630A682F06301105E9F012
:1038A0000530110509F06BC045E050E0CE010196EE
:1038B0000E94F416BE016F5F7F4FCE01895B9F4F60
:1038C0000E941D12CE0101960E94180C64EF71E057
:1038D000CE01895B9F4F0E9413120F5F1F4F0D3067
:1038E0001105A9F6BE01695B7F4FCE018A5A9F4F31
:1038F0000E941D12CE01895B9F4F0E94180C6AE046
:10390000CE018A5A9F4F0E940012EC14FD0481F5EB
:10391000BE016A5A7F4FCE01895B9F4F0E9493126E
:103920006091FF0370910004CE0101960E949C12E9
:10393000BE01695B7F4FCE0101960E94F112CE015C
:1039400001960E94180CCE01895B9F4F0E94180CB3
:1039500060EA7FE080E090E00E94D6046DE571E0CF
:10396000CE018A5A9F4F0E94451225E0E21AF108C3
:1039700081E0C81AD1089DE0891A91087BCF0930EF
:103980001105A9F449E050E0CE0101960E94F41619
:10399000BE016F5F7F4FCE01895B9F4F0E941D125A
:1039A000CE0101960E94180C6EE272E091CF4BE0BE
:1039B00050E00B30110541F3A8010C30110531F531
:1039C00090E08230910519F460E372E081CF83309A
:1039D000910519F46EE972E07BCF8132910519F4FB
:1039E00063E372E075CF8C32910519F466E372E0FF
:1039F0006FCF8430910519F469E372E069CF4CE030
:103A000050E0069719F46CE372E062CFCE010196A4
:103A10000E94F416BE016F5F7F4FCE01895B9F4FFE
:103A20000E941D12CE0101960E94180C56CFCE01A5
:103A30008A5A9F4F0E94180C6FE372E08091FB033B
:103A40009091FC030E948933892B09F094C019825C
:103A500087E0E7E1F1E0DE01AA5ABF4F01900D9245
:103A60008A95E1F7FE01EA5AFF4F7F0154E2A52E45
:103A700053E0B52E66E1C62E63E0D62E1F01F7E0B7
:103A80002F0E311C74E4872E72E0972E8E01095B95
:103A90001F4FE7E46E2EE2E07E2EFBE44F2EF2E0B5
:103AA0005F2EF70181917F01282F082E000C330B28
:103AB0003F938F939F928F921F930F930E94D433C3
:103AC000B801CE0101960E949C33F8011082F501E5
:103AD00080819181F2E0AF0EB11C9F938F937F9212
:103AE0006F921F930F930E94D433B801CE010196B9
:103AF0000E949C33F8011082F60180819181F2E0EE
:103B0000CF0ED11C9F938F935F924F921F930F9371
:103B10000E94D433B801CE0101960E949C330FB6A7
:103B2000F894DEBF0FBECDBFE214F30409F0B9CFA5
:103B3000BE016F5F7F4FCE018D599F4F0E949C1237
:103B40006091FF0370910004CE01835A9F4F0E9441
:103B50009C12BE016D597F4FCE01835A9F4F0E9428
:103B6000F112CE01835A9F4F0E94180CCE018D593D
:103B70009F4F0E94180C60E572E08091FB039091CA
:103B8000FC030E948933892B09F059C08091F70307
:103B90009091F8030E9467306C018091F503909139
:103BA000F6030E9467307C018091F9039091FA033B
:103BB0000E9467308730910509F0F5C304E213E0F5
:103BC00036E1A32E33E0B32E42E3842E43E0942E5D
:103BD000F801D182C082F501F182E082B8018CED5A
:103BE00090E00E949F0FB5018EED90E00E949F0F24
:103BF0000E5F1F4FF2E0AF0EB11C8016910641F729
:103C00006FED71E0CE01895B9F4F0E949C12609125
:103C1000FF0370910004CE0101960E949C12BE0128
:103C2000695B7F4FCE0101960E94F112CE01019691
:103C30000E94180CCE01895B9F4F0E94180C66E50C
:103C400072E08091FB039091FC030E948933892BE1
:103C500001F58091F7039091F8030091F903109119
:103C6000FA0340E0009719F00E946730482F65E49E
:103C7000C8010E948D0D8C01181619060CF0AFC3F7
:103C80000E942A09B8018091FF03909100040E94CC
:103C9000B9196AE572E08091FB039091FC030E94E0
:103CA0008933892B09F04CC040E065E48091F90329
:103CB0009091FA030E948D0D31E020E0181619064C
:103CC0000CF030E0032F122F8091F7039091F8034E
:103CD0009A8389838091F5039091F6039C838B836B
:103CE0008091F3039091F4039E838D83CE0101961E
:103CF0007C015E0197E0A90EB11CF701C190D19043
:103D00007F01C114D10481F068EE73E080E090E09F
:103D10000E94D60440E065E4C6010E948D0D18168D
:103D2000190614F40F5F1F4FAE14BF0431F70E9441
:103D30002A09B8018091FF03909100040E94B919EB
:103D40006FE572E08091FB039091FC030E94893340
:103D5000892BA1F48091F9039091FA030E94E10D5F
:103D60008C01181619060CF043C30E942A09B801E9
:103D70008091FF03909100040E94B91963E672E0FC
:103D80008091FB039091FC030E948933892B99F465
:103D900060E171E08091F9039091FA030E94ED0CCB
:103DA000181619060CF02DC3BC018091FF039091E9
:103DB00000040E94B91967E672E08091FB039091BC
:103DC000FC030E948933892B59F58091F903909166
:103DD000FA030E946730809304040E944E0F6091A2
:103DE000F9037091FA03CE01895B9F4F0E949C12E8
:103DF0006091FF0370910004CE0101960E949C1215
:103E0000BE01695B7F4FCE0101960E94F112CE0187
:103E100001960E94180CCE01895B9F4F0E94180CDE
:103E20006EE672E08091FB039091FC030E9489335F
:103E3000892B59F58091F9039091FA030E9467301C
:103E4000809305040E944E0F6091F9037091FA036C
:103E5000CE01895B9F4F0E949C126091FF0370917D
:103E60000004CE0101960E949C12BE01695B7F4F47
:103E7000CE0101960E94F112CE0101960E94180C0B
:103E8000CE01895B9F4F0E94180C65E772E080911C
:103E9000FB039091FC030E948933892B09F03FC0FA
:103EA00081E08093450381E090E09A838983BE019D
:103EB0006F5F7F4F82E390E00E949F0F8091F90334
:103EC0009091FA030E9467309093400380933F03E0
:103ED0006FE373E086E390E00E949F0F0E942A093F
:103EE0006DE772E0CE01895B9F4F0E949C1260914A
:103EF000FF0370910004CE0101960E949C12BE0146
:103F0000695B7F4FCE0101960E94F112CE010196AE
:103F10000E94180CCE01895B9F4F0E94180C60E82C
:103F200072E08091FB039091FC030E948933892BFE
:103F300071F582E895E00E94DD08109245031A822F
:103F40001982BE016F5F7F4F82E390E00E949F0F56
:103F500069E872E0CE01895B9F4F0E949C126091DC
:103F6000FF0370910004CE0101960E949C12BE01D5
:103F7000695B7F4FCE0101960E94F112CE0101963E
:103F80000E94180CCE01895B9F4F0E94180C6DE8AF
:103F900072E08091FB039091FC030E948933892B8E
:103FA00059F480913803882339F082E895E00E9423
:103FB000DD0881E08093320363E972E08091FB03C6
:103FC0009091FC030E948933892B79F58091F90344
:103FD0009091FA030E9467309093430380934203C9
:103FE00062E473E08EE390E00E949F0F6FED71E05A
:103FF000CE01895B9F4F0E949C126091FF037091DC
:104000000004CE0101960E949C12BE01695B7F4FA5
:10401000CE0101960E94F112CE0101960E94180C69
:10402000CE01895B9F4F0E94180C69E972E0809174
:10403000FB039091FC030E948933892B79F58091D1
:10404000F9039091FA030E946730809344030E9421
:104050002A0964E473E084E390E00E9487106FED26
:1040600071E0CE01895B9F4F0E949C126091FF031B
:1040700070910004CE0101960E949C12BE01695B02
:104080007F4FCE0101960E94F112CE0101960E944F
:10409000180CCE01895B9F4F0E94180C61EA72E0F8
:1040A0008091FB039091FC030E948933892BA9F531
:1040B0008091F9039091FA030E94673021E0892BE7
:1040C00009F420E0209346030E942A0966E473E085
:1040D00088E290E00E946F106091F9037091FA03FA
:1040E000CE01895B9F4F0E949C126091FF037091EB
:1040F0000004CE0101960E949C12BE01695B7F4FB5
:10410000CE0101960E94F112CE0101960E94180C78
:10411000CE01895B9F4F0E94180C67EA72E0809184
:10412000FB039091FC030E948933892B91F460E199
:1041300071E08091FF03909100040E94ED0C909338
:104140009303809392036CEA70E086E894E00E9407
:104150009F066EEA72E08091FB039091FC030E943F
:104160008933892B31F58091F9039091FA030E94EC
:10417000673090933E0380933D036DE373E08AE4E0
:1041800090E00E949F0F80913D0390913E030E941A
:104190005C1388E19EE00FB6F894A89580936000C8
:1041A0000FBE9093600060ED77E080E090E00E94A9
:1041B000D60463EB72E08091FB039091FC030E94B4
:1041C0008933892B89F58091F9039091FA030E9434
:1041D000673021E0892B09F420E02093150365E185
:1041E00073E08CE490E00E946F106FED71E0CE01FF
:1041F000895B9F4F0E949C126091FF0370910004A5
:10420000CE0101960E949C12BE01695B7F4FCE01D8
:1042100001960E94F112CE0101960E94180CCE0167
:10422000895B9F4F0E94180C67EB72E08091FB0343
:104230009091FC030E948933892B81F48091F903CA
:104240009091FA030E9467309093910380939003BA
:1042500060E973E08EE490E00E949F0F6BEB72E0E8
:104260008091FB039091FC030E948933892B21F4F8
:104270000E9425160E942A0962EC72E08091FB03DD
:104280009091FC030E948933892B91F440ED57E013
:1042900061E070E081E995E00E94E70840ED57E0B9
:1042A00061E070E082E895E00E94E7080E94251630
:1042B00067EC72E08091FB039091FC030E948933CC
:1042C000892B09F056C0A5961FAE1EAEA5976F9616
:1042D0001FAE1EAE6F97BE01635A7F4FCE018D5940
:1042E0009F4F0E948C0B198283E08F9388EE8F93EF
:1042F0006F968FAD6F978F936E968FAD6E978F93EE
:10430000A5968FADA5978F93A4968FADA4978F9305
:104310008EEC92E09F938F938E010F5F1F4F1F9340
:104320000F930E94D433B801CE018A5A9F4F0E9446
:104330009C126091FF0370910004CE01895B9F4F36
:104340000E949C12BE016A5A7F4FCE01895B9F4F2B
:104350000E94F112CE01895B9F4F0E94180CCE0182
:104360008A5A9F4F0E94180C0FB6F894DEBF0FBEFA
:10437000CDBFC859DF4F0FB6F894DEBF0FBECDBF1B
:10438000DF91CF911F910F91FF90EF90DF90CF9031
:10439000BF90AF909F908F907F906F905F904F9065
:1043A0003F902F9008958730910508F029CC880F11
:1043B000991FBC016C5D7C4FFB01D182C0828C01D6
:1043C0000A5E1C4FF801F182E0828CED90E00E94C1
:1043D0009F0FB8018EED90E00E949F0F11CC42E339
:1043E00050E068E070E080EA95E00E94E7084ACC7F
:1043F00042E350E068E070E080EA95E00E94E70860
:10440000B6CC67EF72E0CE01895B9F4F0E949C1291
:104410006091FF0370910004CE0101960E949C12EE
:10442000BE01695B7F4FCE0101960E94F112CE0161
:1044300001960E94180CCE01895B9F4F0E94180CB8
:10444000BACC1F920F920FB60F9211242F933F9365
:104450004F935F936F937F938F939F93AF93BF938C
:10446000EF93FF938091B900887F803609F44AC0AA
:10447000F0F5883209F4A7C018F5803109F49BC023
:10448000B8F4882309F4F9C0883009F494C0FF9186
:10449000EF91BF91AF919F918F917F916F915F91BC
:1044A0004F913F912F910F900FBE0F901F90189535
:1044B000883109F488C0803251F780934E0414C0CB
:1044C000803409F49DC040F48033B9F38833F9F6A1
:1044D00080934E0485ECB0C0803509F485C08835E2
:1044E00009F496C0883499F60E943E0ED0CF8839E0
:1044F00009F48CC038F5883729F050F4883611F06B
:10450000803729F683E0809350041092F00357C05F
:10451000883809F47BC0803919F0803809F0B7CFAA
:104520008091F003803208F071C0E091F00381E0E7
:104530008E0F8093F0038091BB00F0E0E053FC4FBE
:1045400080833DC0803B39F0E0F4803A09F479C0C3
:10455000883A09F09CCF84E0809350041092CD03F8
:104560001092CC03E091CA03F091CB03099580919E
:10457000CC0381110FC081E08093CC031092AA0379
:1045800009C0803C09F4A6CF883C09F4A3CF883B3E
:1045900009F07DCFE091CD0381E08E0F8093CD03B4
:1045A000F0E0E655FC4F80818093BB009091CD03F5
:1045B0008091CC0329C080912B048093BB0085ECB3
:1045C0008093BC0064CF90914D0480914C04981767
:1045D00058F5E0914D0481E08E0F80934D04F0E09A
:1045E000E45DFB4F8081E9CFE0914D0481E08E0FC7
:1045F00080934D048091BB00F0E0E45DFB4F80832D
:1046000090914D0480914C049817C8F285E8D8CF5A
:10461000E0914D0481E08E0F80934D048091BB00AA
:10462000F0E0E45DFB4F808380914F0481115CCF0B
:1046300081E080932A0484EA8093BC0010925004A5
:1046400026CF85EC8093BC00109250048091F0033B
:10465000803230F4E091F003F0E0E053FC4F108240
:104660006091F00370E0E091CE03F091CF0380ED14
:1046700093E009951092F0030ACF10924E0434CFC4
:104680001F920F920FB60F9211242F933F938F9387
:104690009F93AF93BF938091950390919603A091C0
:1046A0009703B09198033091940323E0230F2D37A3
:1046B00058F50196A11DB11D209394038093950395
:1046C00090939603A0939703B093980380919903D6
:1046D00090919A03A0919B03B0919C030196A11D18
:1046E000B11D8093990390939A03A0939B03B09379
:1046F0009C03BF91AF919F918F913F912F910F900C
:104700000FBE0F901F90189526E8230F0296A11D4B
:10471000B11DD2CF1F920F920FB60F9211248F931B
:104720009F938091E1009091E100937F9093E1004D
:1047300083FF0FC01092E90091E09093EB0010927C
:10474000EC0092E39093ED001092F20398E09093C6
:10475000F00082FF22C093E09093E9009091F20074
:10476000992319F09AE39093E80090910B03992311
:1047700041F090910B03915090930B03911101C064
:104780005D9A9091F103992341F09091F10391503A
:104790009093F103911101C0289A84FF18C0809171
:1047A000E2008E7E81608093E2008091E1008F7E46
:1047B0008093E10080910C038E7E806180930C03D6
:1047C0009F918F910F900FBE0F901F90189580FFB3
:1047D000F7CF8091E2008E7E80618093E20080912D
:1047E000E1008E7E8093E10080910C038E7E8160DB
:1047F000E5CF1F920F920FB60F921124CF92DF9246
:10480000EF92FF920F931F932F933F934F935F93DA
:104810006F937F938F939F93AF93BF93EF93FF9388
:10482000CF93DF93CDB7DEB76C97DEBFCDBF1092CD
:10483000E9008091E80083FF25C068E0CE0145963D
:104840000E94560682EF8093E8008D8987FF39C069
:104850009091E80090FFFCCF982F907609F034C13A
:104860009E894F89588D2F89F88C911131C08038DD
:1048700061F580910D038093F1001092F1008EEFAD
:104880008093E8006C960FB6F894DEBF0FBECDBFE4
:10489000DF91CF91FF91EF91BF91AF919F918F9158
:1048A0007F916F915F914F913F912F911F910F9148
:1048B000FF90EF90DF90CF900F900FBE0F901F9062
:1048C00018959EEF9093E800C7CF1092F100D5CFD6
:1048D000913059F48111D3CF4130510581F6809147
:1048E0000D038D7F80930D03CACF933049F481115E
:1048F000C6CF4130510519F680910D038260F2CF89
:10490000953041F48091E80080FFFCCF206820932F
:10491000E300B5CF963009F0A9C00B8D1C8D22E0C5
:104920001092E9001092090310920803F2122EC0AF
:1049300010920703109206030E9425061F8299E039
:104940009983FA8291E09E8390EA98879AEF9987FB
:104950002091080330910903275F3F4F3C832B834D
:104960008D831092E90010920903109208031093AE
:1049700007030093060349E050E0BE016F5F7F4FDD
:1049800080E00E94FF050E94250679CF109307035F
:10499000009306030E948F02DC0112960D911C9178
:1049A0000115110509F451C1D801ED91FC91048064
:1049B000F581E02DBE016B5E7F4FC8010995009720
:1049C00009F03EC1F80100851185EACFF3E0FF123E
:1049D0000EC08F89882309F440C0823061F440E81A
:1049E00062E182E291E00E94CC05811148CF81E230
:1049F0008093EB0047CF813029F440E868E089E1FB
:104A000091E0F1CF833099F70E948F02DC0112967A
:104A1000ED90FC908E010F5F1F4F6801E114F104CF
:104A200079F0D701ED91FC910680F781E02DB80176
:104A3000C7010995080F111DF701E084F184EECF3D
:104A4000D8011C92F60101900020E9F73197BF01CF
:104A50006C197D0940E0C601C6CF63E071E0FB013F
:104A6000449150E080E80E94FF0509CF973009F497
:104A7000BECF983021F481E08093F10000CF9930CF
:104A800009F0FDCE837009F0B2CFEFE1F1E081E0F3
:104A900031E096E32191222371F08093E900309375
:104AA000EB00DF0111972C912093EC009093ED0027
:104AB0008F5F873079F78EE78093EA001092EA00E3
:104AC0008F898093F203DBCE8B8D9C8D1092E90051
:104AD0001092090310920803909307038093060332
:104AE000898D811192C08E899D89913A49F48132D4
:104AF00009F07DCF47E050E064E071E080E0B3CFA3
:104B0000913209F074CF833269F48F89988DB0E0C7
:104B1000A0E08093000190930101A0930201B09363
:104B20000301ADCE803269F48091E80082FFFCCFB2
:104B300067E084E091E00E9456068BEF8093E800E6
:104B40009ECE823209F09BCE8F8980930B01EEEFCF
:104B5000FFE7859194918B3F9C4D51F1E0E0F8E0A7
:104B60008091040190910501A0910601B091070187
:104B7000803B9440A105B105F1F480910B0180FDCB
:104B80001AC0EE3F8AE0F80789F587E797E7918337
:104B900080838091600080930A0388E19BE00FB6D8
:104BA000F894A895809360000FBE9093600067CE44
:104BB000EEEFFAE0D5CF808191818737974709F0F2
:104BC0005ECEA8958091600088618093600080919E
:104BD0000A0380936000EE3F2AE0F20789F080919B
:104BE000FE0A9091FF0A9183808349CE8081918152
:104BF0008737980751F29093FF0A8093FE0AC5CF3A
:104C00001092FF0A1092FE0A3ACE0E948F02DC0137
:104C100012960D911C910115110509F4E8CED801E9
:104C2000ED91FC910190F081E02DBE016B5E7F4F14
:104C3000C8010995811123CEF80100851185EBCFBC
:104C4000181619060CF41BCED2CEF1E0FF12BECE20
:104C500067E071E004CF1F920F920FB60F921124FC
:104C60002F933F934F935F936F937F938F939F9374
:104C7000AF93BF93EF93FF9386E894E00E944A07B7
:104C8000FF91EF91BF91AF919F918F917F916F9124
:104C90005F914F913F912F910F900FBE0F901F90FA
:104CA00018951F920F920FB60F9211242F938F9386
:104CB0009F93EF93FF93E0919604F0919704808186
:104CC000E0919C04F0919D0482FD1BC09081809135
:104CD0009F048F5F8F732091A004821741F0E091B1
:104CE0009F04F0E0EA57FB4F958F80939F04FF915C
:104CF000EF919F918F912F910F900FBE0F901F906A
:104D000018958081F4CFCF93DF93EAE7F4E0138224
:104D1000128288EE93E0A0E0B0E084839583A683BE
:104D2000B78329E231E031832083E6E8F4E013829F
:104D3000128284839583A683B7832BE331E031838A
:104D400020832DEC30E0358724872CEC30E037874A
:104D5000268728EC30E0318B208B29EC30E0338B38
:104D6000228B2AEC30E0358B248B2EEC30E0378B15
:104D7000268B118E128E138E148EE3E2F5E01382D1
:104D8000128284839583A683B7838DE491E0918317
:104D900080838FEF9FEF958784876DE571E08BE5CA
:104DA00096E00E949C12C1EBD5E082E090E09C83EB
:104DB0008B836DE571E086EB95E00E949C121B866B
:104DC0001C861D861F861E868DE4809357068CE404
:104DD0008093580683E58093590691E290935A0692
:104DE000888388EE93E09093B0058093AF05E0EA66
:104DF000F5E012821286138614861586168684E0E4
:104E000090E091838083C1E0C38361E00E948503C9
:104E1000E1E9F5E01282128613861486158616865D
:104E200089E090E091838083C38361E00E948503E1
:104E3000E2E8F5E01282128613861486158616863D
:104E40008AE090E091838083C38361E00E948503C0
:104E5000E3E7F5E01282128613861486158616861D
:104E600088E090E091838083138260E0DF91CF91AE
:104E70000C948503CF93DF93CDB7DEB7C354D1092C
:104E80000FB6F894DEBF0FBECDBF789484B58260B4
:104E900084BD84B5816084BD85B5826085BD85B5DE
:104EA000816085BD80916E00816080936E0010925C
:104EB00081008091810082608093810080918100D7
:104EC0008160809381008091800081608093800068
:104ED0008091910082608093910080919100816027
:104EE00080939100809190008160809390008091E8
:104EF000C10084608093C1008091C1008260809372
:104F0000C1008091C10081608093C1008091C30085
:104F100081608093C3008091C00082608093C00054
:104F20008091C20081608093C20080917A00846089
:104F300080937A0080917A00826080937A008091D9
:104F40007A00816080937A0080917A0080688093F3
:104F50007A001092F20310920D0310920C038091CC
:104F6000D70081608093D70080EA8093D80089B50C
:104F7000806189BD89B5826089BD09B400FEFDCF1D
:104F800061E070E080E090E00E94D6048091D8005B
:104F90008F7C80618093D8008091E000807F809337
:104FA000E0008091E1008E7E8093E1008DE08093AF
:104FB000E200559A209A87EF84BF0FB6F894A8951F
:104FC00080916000886180936000109260000FBE45
:104FD00060E08EE00E94850361E084E10E94850329
:104FE00062E085E10E94850348EC50E065E070E0F6
:104FF00080EA95E00E94E7088EE290E00E94E330AC
:10500000811100C261E084E10E94180364EF71E045
:1050100080E090E00E94D60460E084E10E941803E2
:1050200080EA95E00E94E2088FEF9FEF90933005B1
:1050300080932F0568EE73E080E090E00E94D60434
:105040000E949E0E00913D0310913E03E091960454
:10505000F091970442E0E42EE082E0919204F09116
:1050600093041082E0919404F091950480E1808390
:1050700010929E04E0919A04F0919B0456E0F52E64
:10508000F082E0919804F09199048081806180839E
:10509000E0919804F0919904808188608083E09188
:1050A0009804F0919904808180688083E09198044D
:1050B000F091990480818F7D80838091B1058C343B
:1050C00009F045C068EE73E080E090E00E94D604ED
:1050D0006FE571E086E894E00E949F0668EE73E059
:1050E00080E090E00E94D604E0919604F09197044D
:1050F000E082E0919204F09193041082E091940494
:10510000F091950487E6808310929E04E0919A04C2
:10511000F0919B04F082E0919804F09199048081D1
:1051200080618083E0919804F09199048081886087
:105130008083E0919804F091990480818068808355
:10514000E0919804F091990480818F7D808360E1E3
:1051500077E280E090E00E94D60469E571E086E89D
:1051600094E00E949F0666E874E09E012F5F3F4F27
:105170004901C9010E94B112C4010E94180C68EED5
:1051800073E080E090E00E94D6041093B505009390
:10519000B405C8010E945C136DE471E086E894E0F8
:1051A0000E949F0668EE73E080E090E00E94D604C3
:1051B00066E874E0C4010E94B112C4010E94180C98
:1051C00061E471E086E894E00E949F0668EE73E077
:1051D00080E090E00E94D60466E874E0C4010E947A
:1051E000B112C4010E94180C65E371E086E894E0F6
:1051F0000E949F0668EE73E080E090E00E94D60473
:1052000066E874E0C4010E94B112C4010E94180C47
:105210000E94921366E874E0C4010E94B112C401B6
:105220000E94180C68EE73E080E090E00E94D604C3
:1052300010920904109208041092570410927904F5
:105240000E94460389E092E09093CB038093CA03C7
:105250008AE092E09093CF038093CE0360E177E2FF
:1052600080E090E00E94D60481E090E00E94E3306C
:105270008F3F11F40E949F10A0919003B091910371
:105280001A161B0674F420E437E74BE150E00E9445
:105290008D3160930C0170930D0180930E019093FA
:1052A0000F0164E170E08BE596E00E94AC11C4014F
:1052B0000E94BA14B4018BE596E00E947311C401F8
:1052C0000E94180C60ED77E080E090E00E94D60428
:1052D0006EE073E089E393E00E948C0B80913D03C4
:1052E00090913E030E94CA0C67EF72E0C4010E94D5
:1052F0009C12C4010E946814C4010E94180C48EC5E
:1053000050E065E070E080EA95E00E94E70885E102
:10531000898381E08A838B831C821D821E82C40163
:105320000E94350A68EB7BE080E090E00E94D604A2
:105330000E94CB123E013AE1630E711C4424439457
:1053400086E894E00E942A07181619060CF0D9C0C6
:105350008091BD058111D5C086E894E00E940807C0
:10536000582E80911103882309F47AC00E943105D8
:105370005B016C012AAD3BAD4CAD5DAD6EAD7FAD5B
:1053800021968FAD219722969FAD229728513C4FB1
:105390004F4F5F4F6F4F7F4F8F4F9F4F1901239696
:1053A0004FAF2397B52FA62FF72FE82F24969FAF47
:1053B00024979501A60160E070E080E090E0510143
:1053C0002396CFAC2397DB2EEA2EFF2E0E2F2496AA
:1053D0001FAD24970E94953119F010F031E2532E41
:1053E00080911003E82FF0E090915A06EF54FA4FA5
:1053F000951589F0508A8F5F8E3650F04DE64093B8
:1054000010039ECF60E08EE290E00E94EB3008CE69
:105410008093100395CF108A1092110310921003FD
:1054200081EC95E09093C0058093BF054092BD0547
:1054300042E350E061E070E080EA95E00E94E70816
:105440008091BD05811136C086E894E00E942A074C
:105450001816190694F586E894E00E940807F4CF20
:1054600080915706581669F080915806581621F019
:1054700080915906581264CF2DE0E22EE0925A0630
:1054800003C091E290935A060E9431057B018C0182
:1054900020E030E0A9016AAFFBAE8CAF1DAF2EAFAC
:1054A0003FAF21964FAF219722965FAF2297409250
:1054B000110346CF1092BD05C7CFA091BF05B09193
:1054C000C005BDABACABFD0101900020E9F7319701
:1054D000EA1BFB0B3497A8F011968C918E3489F05F
:1054E000CE01C4960E943415809101048B3409F4D6
:1054F000A7C10CF0F5C0833409F43EC1893409F426
:105500003BC180914503882309F464C2C3010E9412
:10551000AF09C3010E94560AE82FF0E0EE0FFF1F0B
:10552000EC5DFC4F00811181C3010E94560AE82FF7
:10553000F0E0EE0FFF1FEA5EFC4FE080F1801016F6
:1055400011061CF01E141F048CF4C4010E94AF0944
:105550008C8198012E193F0990E037FF32C28017E5
:10556000910724F08E159F050CF434C288EE93E069
:105570000E943D0580913803811141C280917305DD
:105580000E94EF0221E0892B09F420E0809146037C
:10559000821305C080913703882309F47AC00E94E2
:1055A000C30668EE73E080E090E00E94D6040E949B
:1055B000C306409238030E94310560933303709311
:1055C00034038093350390933603809144038823FA
:1055D00021F082E895E00E94E20819826DED72E008
:1055E000C4010E949C33CE01C4960E94AF098FA9CA
:1055F0001F928F938CA91F928F938DA91F928F93C7
:105600008EA91F928F932DEC31E03F932F937F92C1
:105610006F920E94D433B301C4010E949C331A8E4E
:1056200088AD0FB6F894DEBF0FBECDBF8A3008F04C
:10563000DEC11F928F938BED91E09F938F937F92AA
:105640006F920E94D4330F900F900F900F900F9095
:105650000F90B301C4010E949C331A8EB401CE0195
:105660008E960E949C12CE018E960E94F217CE0159
:105670008E960E94180C80913703882309F4BCC1D0
:105680008091FF039091000464E00E943210109218
:1056900037031BE383E295E00E94C30820918C034B
:1056A000181619060CF024C2211124C283E295E0D9
:1056B0000E94810890913C03992309F413C29091B0
:1056C0003B03E92FF0E0E05BFC4F8E3309F402C2AC
:1056D00080839F5F9C3308F4FAC110933B03DACFB9
:1056E000813589F1843509F00CCF0E94120E81308A
:1056F00019F170F0823009F004CF6091FF037091CE
:1057000000048091FD039091FE030E94BD18F9CE24
:105710000E942E0E882309F4F4CE0E948819682F67
:1057200070E06115710509F4ECCE8091FF03909152
:1057300000040E94B919E5CE0E942E0E8823E9F2DA
:105740000E945A1ADECE6091FF0370910004C401DA
:105750000E949C126091920370919303C3010E9476
:105760007B17B401C3010E94F112C3010E94180CFF
:10577000C4010E94180CC5CE0E94120E813021F186
:105780008230E9F11092B3051092B20586E894E0F8
:105790000E942A07892B09F041C08091B20590919F
:1057A000B305803E9E42D4F56DE070E080E090E06D
:1057B0000E94D6048091B2059091B3050196909312
:1057C000B3058093B205E2CF90913803992319F085
:1057D00080933203D7CF80914403823048F46091A4
:1057E000FF03709100048AE792E00E94BD18CACFBF
:1057F0006091FF037091000486EE91E0F6CF8091F6
:1058000044038230A8F780911001823040F3609108
:10581000FF037091000482EE91E0E7CF86E894E008
:105820000E942A07892B31F066E874E0C4010E94C7
:10583000B1129ECF6DE571E0C4010E949C1298CF19
:105840008091FF03909100040E9467308C0144977F
:10585000449708F0A5C08091F7039091F8030E9447
:105860006730182F8091F9039091FA030E946730F6
:10587000F82E8091FB039091FC030E946730E82E84
:105880008091FD039091FE030E94673009838A8313
:10589000EB82FC821D831E82C4010E94350A809126
:1058A000B105813591F4C3010E94AF09C3010E9483
:1058B000FB09AB01BC014054584361097109C401A3
:1058C0000E943209C4010E94350A66E090E080E03F
:1058D0000E94321080911503882389F08091130370
:1058E000909114032091900330919103820F931FA4
:1058F000883191058CF59093140380931303809164
:10590000900390919103181619060CF0FACD0E949D
:10591000310561327F4B8240910508F4F2CD6AE790
:1059200071E086E894E00E949F0660E47FE180E0F9
:1059300090E00E94D6046EE671E086E894E00E9452
:105940009F0666E874E0C4010E94B112C4010E947F
:10595000180C0E94921368CF109214031092130334
:1059600061E070E0CE018E960E947B1763EB72E0DF
:10597000C4010E949C12BE01625D7F4FC3010E9460
:105980009312B401C3010E94F112C3010E94180CCA
:10599000C4010E94180CCE018E960E94180CAFCF45
:1059A00068E873E180E090E00E94D60480911203E1
:1059B0008F5F80931203823008F0A3CD0E94CB1238
:1059C000A0CDE81AF90A1E141F0424F080179107CD
:1059D0000CF4CCCD8091390390913A031816190636
:1059E0000CF072C080E49FE10E943D0552CE1F92F0
:1059F0008F938AED92E021CE90E080E045CE84E660
:105A000090E00E943D05C0903303D0903403E090B5
:105A10003503F0903603A0913F03B091400328EE88
:105A200033E00E9486316093770570937805809308
:105A3000790590937A05672B682B692B09F43FC091
:105A40000E9431059B01AC012C193D094E095F09EB
:105A500069017A0100917705109178052091790507
:105A600030917A05C016D106E206F30640F1609344
:105A70007E0570937F058093800590938105109239
:105A800032031092380380914403882309F401CE35
:105A900082E895E00E94DD080E94C30668EE73E08C
:105AA00080E090E00E94D6040E94C30666E874E09D
:105AB000C4010E94B112C4010E94180CEACD809169
:105AC00032038111DCCFE5CD88EB9BE08DCF909345
:105AD0003B03E0CD108210923C0310923B034092B6
