:100000000C9467010C948F010C948F010C948F0158
:100010000C948F010C948F010C948F010C948F0120
:100020000C948F010C948F010C94AA150C941C163F
:100030000C948F010C948F010C948F010C948F0100
:100040000C948F010C948F010C948F010C948F01F0
:100050000C948F010C948F010C948F010C943B2411
:100060000C948F010C94DD180C94B7180C948F012C
:100070000C948F010C948F010C948F010C948F01C0
:100080000C948F010C948F010C948F010C948F01B0
:100090000C94281C0C948F010C948F010C948F01EC
:1000A0000C948F010C948F010C948F01E319E619C5
:1000B000D519D919DF19071A071A071AEA19EE19FB
:1000C000F219F819FC19071A021A415426570D00A3
:1000D00041542B43545A523D310D0A0041542B4395
:1000E000545A553D310D0A0041542B4950523D316F
:1000F000393230300D0A004154480D0A0041544451
:10010000303B0D0A0041542B4346554E3D310D0AFC
:100110000041542B4346554E3D300D0A00450045E5
:1001200000450041542B434855500D0A0041542BC3
:100130004353510D0A00220D0041542B434D4753A8
:100140003D220041542B43434C4B3F0D0A00080B0A
:100150000002020201000904000001020200000581
:1001600024001001052401010104240206052406CF
:1001700000010705810310004009040100020A0084
:10018000000007050202400000070583024000004E
:100190000403090412010002EF0201404F1B069202
:1001A000000101020301537061726B46756E0053CA
:1001B0007061726B46756E2050726F204D6963726C
:1001C0006F0000000000240027002A002D003000EE
:1001D00000000000250028002B002E003100000048
:1001E00000002300260029002C002F000404040432
:1001F00004030405020202020403020202020606CC
:1002000006060606040402020204040408020110A1
:10021000408040102040804080080204018040203F
:100220001002011080102040402000000002000950
:100230000F0000030401000C00000000000000009B
:10024000000000000000000041542B4347534E0DB6
:100250000A0041542B4347455245503D300D0A009A
:10026000415445300D0A0061742B717572636366E9
:10027000673D22757263706F7274222C22756172F1
:100280007431220D0A0041542B434E4D493D312C0F
:10029000322C302C302C300D0A0041542B434C4969
:1002A000503D310D0A0041542B434D47463D310D21
:1002B0000A0041542B435245473D310D0A001F1C93
:1002C0001F1E1F1E1F1F1E1F1E1F692D1F2E1124E4
:1002D0001FBECFEFDAE0DEBFCDBF26E0AEEDB2E06D
:1002E00001C01D92AD33B207E1F712E0A0E0B1E02A
:1002F000ECEBF8E602C005900D92AE3DB107D9F7E0
:1003000011E0C6E6D1E004C02197FE010E94402F13
:10031000C536D107C9F70E9485240C9451340C943A
:1003200000006BE871E08091D2059091D3050E94A6
:100330005331892B21F581E40E94490F019761F027
:1003400080916103882399F081E40E94490F181677
:1003500019066CF4109261030E94670E40E061E49C
:100360008091D6059091D7050E941F10089542E311
:1003700050E068E070E084EF94E00E94372180E074
:10038000089546E050E067E073E08091D4059091D5
:10039000D5050E94813121E0892B09F020E0822FD0
:1003A000089564E071E08091D6059091D7050E9490
:1003B0009A0F009761F09C012150310925303105D9
:1003C00020F0069724F082E0089581E0089580E00F
:1003D0000895FF920F931F93CF93DF93EC01F62EB6
:1003E00008811981C8010E94A32EF81621F06F2DF3
:1003F000C8010E94AB2ECE01DF91CF911F910F91CA
:10040000FF900895EF92FF920F931F93CF93DF9386
:10041000CDB7DEB72C970FB6F894DEBF0FBECDBFB9
:100420008C017B016EE072E00E945331892BA1F5B3
:100430001091040364EF71E080E090E00E94FE1DE3
:1004400063E271E08AED93E00E94681880910401F4
:10045000823000F588EE93E0189FA001199F500D9F
:1004600011244115510539F061E070E085EE94E00A
:100470000E9437210FC08091E5040E946A1D892BDC
:1004800029F485EE94E00E94322104C085EE94E0C8
:100490000E942D2162E02BC06FE571E0C8010E942F
:1004A0005331892B09F048C080910103823008F054
:1004B00043C08091D6040E946A1D892BE9F51091F2
:1004C000050364EF71E080E090E00E94FE1D63E2AE
:1004D00071E08AED93E00E946818809104018D7F9D
:1004E00029F480910103882309F441C063E0C70126
:1004F0000E94D823109100031123B9F161E971E042
:10050000CE0107960E9495156091D6057091D7058A
:10051000CE0101960E949515BE01695F7F4FCE0105
:1005200001960E947D11CE0101960E948715CE0191
:1005300007960E94871541C06BE571E0C8010E94D3
:100540005331892BC9F564EF71E080E090E00E949F
:10055000FE1D63E271E08AED93E00E9468188091CD
:100560000401882329F1833019F111E026C088EEB7
:1005700093E0189FA001199F500D112441155105BA
:1005800039F061E070E086ED94E00E943721AECF53
:100590008091D6040E946A1D892B29F486ED94E08F
:1005A0000E943221A3CF86ED94E00E942D219ECFA0
:1005B00081E08093FD02D9CF10E0812F2C960FB6F9
:1005C000F894DEBF0FBECDBFDF91CF911F910F9189
:1005D000FF90EF900895EF92FF920F931F93CF93A8
:1005E000DF93CDB7DEB76F970FB6F894DEBF0FBEBF
:1005F000CDBF8C017B01161617060CF03FC0609131
:10060000D2057091D30546E050E0CE0101960E94DC
:100610008F31FF92EF9282E592E09F938F937E015C
:100620008EE0E80EF11CFF92EF920E949E31B7011E
:10063000CE0101960E946631BE016F5F7F4FCE01F1
:100640004A960E949515B801CE0144960E949515D0
:10065000BE01665E7F4FCE0144960E947D11CE01A1
:1006600044960E948715CE014A960E9487150F90E6
:100670000F900F900F900F900F9021C064E071E0E9
:100680000E949A0F18161906D4F464E971E0CE019D
:100690000E960E949515B801CE0101960E949515FF
:1006A000BE01625F7F4FCE0101960E947D11CE0197
:1006B00001960E948715CE010E960E9487156F96AF
:1006C0000FB6F894DEBF0FBECDBFDF91CF911F9163
:1006D0000F91FF90EF9008952F923F924F925F926B
:1006E0006F927F928F929F92AF92BF92CF92DF9242
:1006F000EF92FF920F931F93CF93DF93CDB7DEB7A7
:10070000C856D1090FB6F894DEBF0FBECDBF6BE956
:1007100071E08091D2059091D3050E945331892BCD
:1007200019F50E94670E61E971E0CE01895B9F4F68
:100730000E9495156091D6057091D705CE0101965E
:100740000E949515BE01695B7F4FCE0101960E9404
:100750007D11CE0101960E948715CE01895B9F4FC6
:100760000E9487150E94192362EA71E08091D205E8
:100770009091D3050E945331892B81F5E091D005EA
:10078000F091D10586E0A7E0B3E001900D928A9543
:10079000E1F710920E0387E093E00E94831061E975
:1007A00071E0CE01895B9F4F0E9495156091D6053F
:1007B0007091D705CE0101960E949515BE01695B27
:1007C0007F4FCE0101960E947D11CE0101960E94BD
:1007D0008715CE01895B9F4F0E9487156BE871E0FA
:1007E0008091D2059091D3050E945331892B51F409
:1007F0000E949101682F70E08091D6059091D705F5
:100800000E94EB026AEA71E08091D2059091D305D3
:100810000E945331892B31F581E08093610384EF8D
:1008200094E00E94322161E971E0CE01895B9F4F23
:100830000E9495156091D6057091D705CE0101965D
:100840000E949515BE01695B7F4FCE0101960E9403
:100850007D11CE0101960E948715CE01895B9F4FC5
:100860000E94871564EB71E08091D2059091D305C9
:100870000E945331892B09F04BC06AEC72E0CE0123
:1008800001960E94951501E010E0B801CE01895B48
:100890009F4F0E946112BE01695B7F4FCE0101969E
:1008A0000E94AC10CE01895B9F4F0E9487156AE0C1
:1008B000CE0101960E94540E0F5F1F4F06301105A6
:1008C00021F7BE016F5F7F4FCE018A5A9F4F0E9472
:1008D0008C156091D6057091D705CE01895B9F4F2D
:1008E0000E949515BE016A5A7F4FCE01895B9F4FCA
:1008F0000E947D11CE01895B9F4F0E948715CE011A
:100900008A5A9F4F0E948715CE0101960E94871533
:100910006EEB71E08091D2059091D3050E94533126
:10092000892B09F069C08091D0059091D1050E9472
:10093000272E5C018091CE059091CF050E94272E35
:100940006C018501AC14BD040CF056C06AEC72E079
:10095000CE0101960E9495157801480129E0820E8A
:10096000911C8E149F04DCF0B701CE01895B9F4F70
:100970000E946112BE01695B7F4FCE0101960E9409
:10098000AC10CE01895B9F4F0E9487156AE0CE01B3
:1009900001960E94540E4FEFE41AF40AE2CFBE0112
:1009A0006F5F7F4FCE018A5A9F4F0E948C156091D6
:1009B000D6057091D705CE01895B9F4F0E94951592
:1009C000BE016A5A7F4FCE01895B9F4F0E947D1105
:1009D000CE01895B9F4F0E948715CE018A5A9F4F97
:1009E0000E948715065F1F4F8AE0C81AD108CE0102
:1009F00001960E948715A6CF64EC71E08091D20524
:100A00009091D3050E945331892B09F025C16AECDE
:100A100072E0CE01895B9F4F0E9495156CE870E0F3
:100A2000CE01895B9F4F0E94E814BE01635A7F4F3D
:100A300080E590E00E94A2216F960EAD1FAD6F97EA
:100A4000780199E1E91AF108F7FE16C07801E4E1AE
:100A5000EE1AF108F7FE10C07801FFE0EF1AF10876
:100A6000F7FE0AC078012AE0E21AF108F7FE04C096
:100A7000780145E0E41AF1081E141F040CF0E7C0E9
:100A80000550110940E050E06AEC72E0CE01895B4C
:100A90009F4F0E944F156F968EAD9FAD6F975C0173
:100AA000E1E0AE1AB1082DE0289F2001299F500CEB
:100AB0001124612C712CF9E04F1AFEEB5F0AAE1481
:100AC000BF040CF4C4C06AEC72E0CE018A5A9F4F96
:100AD0000E9495154201860C971CC12CD12CC60191
:100AE000880D991D0E94E10E682F26E0C216D104E0
:100AF00009F45DC045E0C416D10419F445E050E0A6
:100B000006C089E0C816D104D1F449E050E0CE0116
:100B100001960E94DA11BE016F5F7F4FCE018A5AA3
:100B20009F4F0E94AC10CE0101960E9487156CEC7D
:100B300071E0CE018A5A9F4F0E94FD1A38C09BE097
:100B4000C916D10419F44BE050E0E1CFECE0CE1629
:100B5000D104E1F4862F90E08230910519F46EEC17
:100B600071E0E7CF8330910519F46CE272E0E1CFD8
:100B70008430910519F461ED71E0DBCF069719F42B
:100B800064ED71E0D6CF4CE050E001C0A601CE018B
:100B900001960E94DA11BE016F5F7F4FCE018A5A23
:100BA0009F4F0E94AC10CE0101960E948715FFEF67
:100BB000CF1ADF0A2DE0C216D10409F090CFBE0192
:100BC0006A5A7F4FCE01895B9F4F0E94AC10CE01C5
:100BD0008A5A9F4F0E9487156AE0CE01895B9F4F1A
:100BE0000E94540E0A151B0559F5BE01695B7F4F23
:100BF000CE018A5A9F4F0E948C156091D605709144
:100C0000D705CE0101960E949515BE016A5A7F4F05
:100C1000CE0101960E947D11CE0101960E9487159A
:100C2000CE018A5A9F4F0E94871540E050E06AEC3F
:100C300072E0CE01895B9F4F0E944F15055011094C
:100C400041E0A41AB1088DE0681A710838CFCE01CE
:100C5000895B9F4F0E94871567ED71E08091D205F7
:100C60009091D3050E945331892B09F096C01982C7
:100C700087E0E7E1F1E0DE01AA5ABF4F01900D9253
:100C80008A95E1F7FE01EA5AFF4F6F016FEEE62EFB
:100C900062E0F62E71EEA72E72E0B72EEDEF2E2E4B
:100CA000E2E03E2EFCED8F2EF1E09F2E8E01095BDF
:100CB0001F4FA2E56A2EA2E07A2EBFED4B2EB1E0C7
:100CC0005B2EF60181916F01282F082E000C330B4B
:100CD0003F938F939F928F921F930F930E949E3109
:100CE000B801CE0101960E946631F8011082F70129
:100CF00080819181F2E0EF0EF11C9F938F937F92A0
:100D00006F921F930F930E949E31B801CE010196FE
:100D10000E946631F8011082F50180819181F2E034
:100D2000AF0EB11C9F938F935F924F921F930F93BF
:100D30000E949E31B801CE0101960E9466310FB625
:100D4000F894DEBF0FBECDBF2E143F0409F0B9CF1B
:100D5000BE016F5F7F4FCE018D599F4F0E94951549
:100D60006091D6057091D705CE01835A9F4F0E949E
:100D70009515BE016D597F4FCE01835A9F4F0E943A
:100D80007D11CE01835A9F4F0E948715CE018D5948
:100D90009F4F0E9487150E94670E64EE71E080915C
:100DA000D2059091D3050E945331892B09F075C06B
:100DB0008091CE059091CF050E94272E6C018091E5
:100DC000CC059091CD050E94272E7C018091D00505
:100DD0009091D1050E94272E8730910519F50FEECD
:100DE00012E041EEA42E42E0B42E5DEF852E52E0DB
:100DF000952EF801D182C082F501F182E082B8011E
:100E00008CED90E00E947B21B5018EED90E00E9478
:100E10007B210E5F1F4FF2E0AF0EB11C80169106D2
:100E200041F71AC087309105B8F4880F991FBC01AB
:100E300061517D4FFB01D182C0828C010F511D4F4A
:100E4000F801F182E0828CED90E00E947B21B801F4
:100E50008EED90E00E947B210E94670E61E971E0B7
:100E6000CE01895B9F4F0E9495156091D6057091C8
:100E7000D705CE0101960E949515BE01695B7F4F93
:100E8000CE0101960E947D11CE0101960E94871528
:100E9000CE01895B9F4F0E9487156AEE71E08091B9
:100EA000D2059091D3050E945331892B49F5809149
:100EB000CE059091CF050091D0051091D1050097F6
:100EC00011F440E003C00E94272E482F65E4C801BA
:100ED0000E941F108C01181619061CF40E94670E40
:100EE00008C042E350E068E070E084EF94E00E94C4
:100EF0003721B8018091D6059091D7050E94EB0269
:100F00006EEE71E08091D2059091D3050E9453312D
:100F1000892B09F064C040E065E48091D005909190
:100F2000D1050E941F1031E020E0181619060CF0C0
:100F300030E0032F122F8091CE059091CF05892BA1
:100F400099F068EE73E080E090E00E94FE1D40E0C2
:100F500065E48091CE059091CF050E941F10181670
:100F6000190614F40F5F1F4F8091CC059091CD05A9
:100F7000892B99F068EE73E080E090E00E94FE1DFE
:100F800040E065E48091CC059091CD050E941F1052
:100F90001816190614F40F5F1F4F8091CA0590911F
:100FA000CB05892B99F068EE73E080E090E00E9419
:100FB000FE1D40E065E48091CA059091CB050E943A
:100FC0001F101816190614F40F5F1F4F0E94670EAA
:100FD000B8018091D6059091D7050E94EB0263EF8E
:100FE00071E08091D2059091D3050E945331892BF5
:100FF000E1F48091D0059091D1050E94CC1A8C012A
:10100000181619061CF40E94670E08C042E350E04F
:1010100068E070E084EF94E00E943721B80180918D
:10102000D6059091D7050E94EB0267EF71E08091A1
:10103000D2059091D3050E945331892B79F443E076
:1010400063E58091D0059091D1050E941F10BC01ED
:101050008091D6059091D7050E94EB026BEF71E06D
:101060008091D2059091D3050E945331892B79F557
:101070008091D0059091D1050E94272E8093040382
:1010800064E073E08AE090E00E947B216091D005EB
:101090007091D105CE01895B9F4F0E94951560919B
:1010A000D6057091D705CE0101960E949515BE0117
:1010B000695B7F4FCE0101960E947D11CE010196A2
:1010C0000E948715CE01895B9F4F0E94871562E0C1
:1010D00072E08091D2059091D3050E945331892B03
:1010E00079F58091D0059091D1050E94272E8093AB
:1010F000050364E073E08AE090E00E947B21609148
:10110000D0057091D105CE01895B9F4F0E94951546
:101110006091D6057091D705CE0101960E94951574
:10112000BE01695B7F4FCE0101960E947D11CE0109
:1011300001960E948715CE01895B9F4F0E948715FB
:1011400069E072E08091D2059091D3050E945331FD
:10115000892B09F03FC081E08093020381E090E099
:101160009A838983BE016F5F7F4F82E390E00E9484
:101170007B218091D0059091D1050E94272E9093DC
:10118000FF028093FE026EEF72E086E390E00E9421
:101190007B210E94670E61E172E0CE01895B9F4F67
:1011A0000E9495156091D6057091D705CE010196E4
:1011B0000E949515BE01695B7F4FCE0101960E948A
:1011C0007D11CE0101960E948715CE01895B9F4F4C
:1011D0000E94871564E172E08091D2059091D30559
:1011E0000E945331892B71F586ED94E00E942D21E8
:1011F000109202031A821982BE016F5F7F4F82E351
:1012000090E00E947B216DE172E0CE01895B9F4FEF
:101210000E9495156091D6057091D705CE01019673
:101220000E949515BE01695B7F4FCE0101960E9419
:101230007D11CE0101960E948715CE01895B9F4FDB
:101240000E94871561E272E08091D2059091D305EA
:101250000E945331892B89F58091D0059091D10559
:101260000E94272E21E0892B09F420E0209300031F
:1012700060E073E08EE390E00E94802261E971E01B
:10128000CE01895B9F4F0E9495156091D6057091A4
:10129000D705CE0101960E949515BE01695B7F4F6F
:1012A000CE0101960E947D11CE0101960E94871504
:1012B000CE01895B9F4F0E94871567E272E08091A3
:1012C000D2059091D3050E945331892B79F58091F5
:1012D000D0059091D1050E94272E809301030E9492
:1012E000670E61E073E084E390E00E94802261E990
:1012F00071E0CE01895B9F4F0E9495156091D605E4
:101300007091D705CE0101960E949515BE01695BCB
:101310007F4FCE0101960E947D11CE0101960E9461
:101320008715CE01895B9F4F0E9487156FE272E09F
:101330008091D2059091D3050E945331892BA9F554
:101340008091D0059091D1050E94272E21E0892B14
:1013500009F420E0209303030E94670E63E073E02A
:1013600088E290E00E9480226091D0057091D105C2
:10137000CE01895B9F4F0E9495156091D6057091B3
:10138000D705CE0101960E949515BE01695B7F4F7E
:10139000CE0101960E947D11CE0101960E94871513
:1013A000CE01895B9F4F0E94871565E372E08091B3
:1013B000D2059091D3050E945331892B91F464E0BA
:1013C00071E08091D6059091D7050E949A0F909375
:1013D0001103809310036DE271E08AED93E00E94A7
:1013E00068186CE372E08091D2059091D3050E9459
:1013F0005331892BA1F561E08EE290E00E94AB2E83
:1014000061E971E0CE01895B9F4F0E949515609163
:10141000D6057091D705CE0101960E949515BE01A3
:10142000695B7F4FCE0101960E947D11CE0101962E
:101430000E948715CE01895B9F4F0E9487159EE011
:1014400088E10FB6F894A895809360000FBE909342
:10145000600060ED77E080E090E00E94FE1D61E4B6
:1014600072E08091D2059091D3050E945331892B6F
:1014700011F40E94591163E671E08091D2059091B8
:10148000D3050E945331892B89F58091D005909125
:10149000D1050E94272E21E0892B09F420E020931A
:1014A000E00260EE72E08CE490E00E94802261E94C
:1014B00071E0CE01895B9F4F0E9495156091D60522
:1014C0007091D705CE0101960E949515BE01695B0A
:1014D0007F4FCE0101960E947D11CE0101960E94A0
:1014E0008715CE01895B9F4F0E94871565E472E0E6
:1014F0008091D2059091D3050E945331892B81F4BC
:101500008091D0059091D1050E94272E90930F03D2
:1015100080930E036EE073E08EE490E00E947B21E6
:1015200069E472E08091D2059091D3050E94533115
:10153000892B09F058C11982809104031F928F935F
:1015400080E592E09F938F938E01095B1F4F1F935D
:101550000F930E949E31B801CE0101960E94663120
:10156000F8011082809105031F928F9386E592E027
:101570009F938F931F930F930E949E31B801CE01CA
:1015800001960E946631F8011082809100031F923B
:101590008F938DE592E09F938F931F930F930E94FB
:1015A0009E31B801CE0101960E946631F801108289
:1015B0008091E0021F928F9385E6E82E82E0F82E5C
:1015C000FF92EF921F930F930E949E31B801CE01BC
:1015D00001960E946631F801108280910F038F936B
:1015E00080910E038F93FF92EF921F930F930E94AF
:1015F0009E31B801CE0101960E946631F801108239
:10160000809102031F928F9389E692E09F938F93BC
:101610001F930F930E949E310FB6F894DEBF0FBE4A
:10162000CDBFB801CE0101960E946631F80110824B
:10163000809101031F928F9383E792E09F938F9392
:101640001F930F930E949E31B801CE0101960E9414
:101650006631F80110828091FF028F938091FE0223
:101660008F9388E792E09F938F931F930F930E942D
:101670009E31B801CE0101960E946631F8011082B8
:10168000CE018A5A9F4F0E94B621CE018A5A9F4F9F
:101690000E947322E82FF0E0EE0FFF1FE151FD4F93
:1016A00081818F9380818F938DE792E09F938F93B9
:1016B0001F930F930E949E31B801CE0101960E94A4
:1016C0006631F8011082CE018A5A9F4F0E94732220
:1016D000E82FF0E0EE0FFF1FEF51FD4F81818F9358
:1016E00080818F93FF92EF921F930F930E949E3100
:1016F000B801CE0101960E946631F80110826A9607
:101700008FAD6A971F928F9367968FAD67971F92E1
:101710008F9368968FAD68971F928F9369968FAD60
:1017200069971F928F9383E892E09F938F931F9303
:101730000F930E949E310FB6F894DEBF0FBECDBF4F
:10174000B801CE0101960E946631F80110826B96B5
:101750008FAD6B978A3028F41F928F9381E992E0C6
:1017600004C01F928F9386E692E09F938F931F93FE
:101770000F930E949E310F900F900F900F900F903B
:101780000F90B801CE0101960E946631F8011082D7
:1017900065E972E0CE0101960E946631BE016F5F7D
:1017A0007F4FCE018D599F4F0E9495156091D605B0
:1017B0007091D705CE01835A9F4F0E949515BE01A7
:1017C0006D597F4FCE01835A9F4F0E947D11CE01EC
:1017D000835A9F4F0E948715CE018D599F4F0E94BB
:1017E00087150E94670E6FE972E08091D205909193
:1017F000D3050E945331892B89F58091D0059091B2
:10180000D1050E94272E21E0892B09F420E02093A6
:101810002F066FE276E088EC90E00E94802261E97A
:1018200071E0CE01895B9F4F0E9495156091D605AE
:101830007091D705CE0101960E949515BE01695B96
:101840007F4FCE0101960E947D11CE0101960E942C
:101850008715CE01895B9F4F0E94871563EA72E06E
:101860008091D2059091D3050E945331892BC9F400
:101870008091D0059091D1050E94272E20913206AB
:1018800030913306280F391F253F314054F490938F
:1018900031068093300660E376E08EE690E00E94A9
:1018A0007B2169EA72E08091D2059091D3050E9474
:1018B0005331892B09F04FC019826091D005709186
:1018C000D10544E150E0CE0101960E948F31CE0156
:1018D00001967C0102ED10E0F70161917F012996EC
:1018E0001FAF0EAF2997CE01895B9F4F0E94E90180
:1018F0000F5F1F4F063E110579F78091CE0590913D
:10190000CF050E94272E682F8DEC90E00E94AB2E11
:10191000BE016F5F7F4FCE018A5A9F4F0E9495157F
:101920006091D6057091D705CE01895B9F4F0E94CB
:101930009515BE016A5A7F4FCE01895B9F4F0E9469
:101940007D11CE01895B9F4F0E948715CE018A5A77
:101950009F4F0E9487156CEA72E08091D2059091AA
:10196000D3050E945331892B11F581E080932E0617
:1019700061E971E0CE01895B9F4F0E9495156091EE
:10198000D6057091D705CE0101960E949515BE012E
:10199000695B7F4FCE0101960E947D11CE010196B9
:1019A0000E948715CE01895B9F4F0E94871562EBCD
:1019B00072E08091D2059091D3050E945331892B1A
:1019C00009F052C0A5961FAE1EAEA5976F961FAE2A
:1019D0001EAE6F97BE01635A7F4FCE018D599F4F48
:1019E0000E94991A19826F968FAD6F978F936E969A
:1019F0008FAD6E978F93A5968FADA5978F93A49675
:101A00008FADA4978F9389EB92E09F938F938E0174
:101A10000F5F1F4F1F930F930E949E31B801CE019D
:101A20008A5A9F4F0E9495156091D6057091D705EF
:101A3000CE01895B9F4F0E949515BE016A5A7F4F68
:101A4000CE01895B9F4F0E947D11CE01895B9F4F24
:101A50000E948715CE018A5A9F4F0E9487150FB6A4
:101A6000F894DEBF0FBECDBF63EC72E08091D2056B
:101A70009091D3050E945331892B71F5CE010196C7
:101A80000E94A01FBE016F5F7F4F8FEA95E00E940A
:101A9000AE14CE0101960E9487156FEA75E0CE0163
:101AA000895B9F4F0E948C156091D6057091D70578
:101AB000CE0101960E949515BE01695B7F4FCE0154
:101AC00001960E947D11CE0101960E948715CE01DC
:101AD000895B9F4F0E948715C859DF4F0FB6F89456
:101AE000DEBF0FBECDBFDF91CF911F910F91FF9051
:101AF000EF90DF90CF90BF90AF909F908F907F90AE
:101B00006F905F904F903F902F900895282F3091C5
:101B1000CD03313208F04AC08091AA038111FCCF75
:101B20009091B50542E04093AA032093A9032FEFBB
:101B30002093A8031092A7033093A603EDEAF3E0E5
:101B4000A6E8B3E020E0321721F041914D932F5FDA
:101B5000FACF1092850320918503990F922B9093D1
:101B6000850390918403913061F4109284039091E5
:101B700085039093BB009091BC0093FDF8CF95EC4A
:101B800001C095EE9093BC009091AA039230E1F3CE
:101B90009091A8039F3F79F08091A803803241F093
:101BA0008091A803803331F084E005C081E003C058
:101BB00082E001C083E01092AC031092CD0310923A
:101BC000AB030895682F8EEC93E00C949C190F934F
:101BD0001F930E94381E6093E2037093E303809387
:101BE000E4039093E5038AED93E00E94A91397FF25
:101BF0001FC00E94381E0091E2031091E303209160
:101C0000E4033091E503DC01CB01801B910BA20BB7
:101C1000B30B0091DE031091DF032091E0033091BC
:101C2000E10380179107A207B307E8F28FEF9FEF58
:101C30001F910F910895EF92FF920F931F93CF93EF
:101C4000DF93CDB7DEB729970FB6F894DEBF0FBE8E
:101C5000CDBF8C01862FF80111821082138212826F
:101C6000158214824AE09E012F5F3F4F7901B9012E
:101C700090E00E94792EF70101900020E9F731975A
:101C8000AF014E195F09B701C8010E944F1529968F
:101C90000FB6F894DEBF0FBECDBFDF91CF911F917D
:101CA0000F91FF90EF900895CF93DF9300D0CDB7C1
:101CB000DEB769831A8241E050E0BE016F5F7F4F5B
:101CC0000E940F150F900F90DF91CF91089548EC6F
:101CD00050E064E070E084EF94E00C9437211F93AF
:101CE000CF93DF93EC01162F81E08093AB0380E567
:101CF0008093B5051092AC031092CD038D2F90E028
:101D00000E94E20DCE0199270E94E20D612F8EEC18
:101D100093E00E949C1981E00E94860D64E170E0CE
:101D200080E090E0DF91CF911F910C94FE1DCF9247
:101D3000DF92EF92FF920F931F93CF93DF938B016C
:101D4000009729F07C0182E0C82ED12C1CC0C0E095
:101D5000D0E060E0CE01800F911F0E946F0E2196AF
:101D6000C630D105B1F724C0CE010E94F62F82E023
:101D7000E80EF11C82E0C80ED11C0F5F1F4F8EE0F1
:101D8000C816D104A9F082E090E00E945E2FEC0119
:101D90001882A601B7010E944A311A82CE010E9420
:101DA000272E682FC8010E946F0E2097E9F6DFCF1B
:101DB000DF91CF911F910F91FF90EF90DF90CF9027
:101DC0000895CF93DF93EC0181E08093AB0380E52E
:101DD0008093B5051092AC031092CD038D2F90E047
:101DE0000E94E20DCE0199270E94E20D81E00E943F
:101DF000860D8091AA038111FCCF81E08093AA0314
:101E00008093A9039FEF9093A8031092A7031092C9
:101E1000A6038093850380918503806A8093850360
:101E200080918403813061F4109284038091850352
:101E30008093BB008091BC0083FDF8CF85EC01C08E
:101E400085EE8093BC008091AA038130E1F38091FC
:101E5000A703811103C09091A70301C091E0A6E8F8
:101E6000B3E0E4E6F3E080E0891721F02D912193BF
:101E70008F5FFACF1092630380936203882329F067
:101E80008EEC93E00E94531901C08FEFDF91CF9148
:101E90000895CF92DF92EF92FF920F931F93CF930B
:101EA000DF93E0900305F0900405853441F083351D
:101EB00049F0813469F485E0E82EF12C09C0C6E0D0
:101EC000D0E008C0E701219685E0E80EF11C02C0D1
:101ED000C1E0D0E0CE01019727E0289F8001299F33
:101EE000100D1124EC16FD06D4F0680187E0C80E31
:101EF000D11C0C151D051CF021968601F3CFC801DD
:101F00000E94E10E8111F8CFC80101968C159D0544
:101F10009CF70E94E10E8111EFCFCE0102C080E05C
:101F200090E0DF91CF911F910F91FF90EF90DF90A4
:101F3000CF9008952F923F924F925F926F927F922F
:101F40008F929F92AF92BF92CF92DF92EF92FF92C9
:101F50000F931F93CF93DF93482E392E3B01C12C53
:101F6000D12CC1E0D0E08091030590910405059645
:101F70008C179D070CF44EC0E42CF32C560100E0A6
:101F800010E0502E82E090E00E945E2F4C010F5F27
:101F90001F4FA801440F551FB701C4010E944A31C9
:101FA000F4011282C5010E94E10E282EC4010E9494
:101FB000272E222D30E02817390789F48114910447
:101FC00019F0C4010E94F62F502EF2E0EF0EF11C22
:101FD0008FEFA81AB80A0730110599F606C08114C8
:101FE000910419F0C4010E94F62FE7E0CE0ED11C37
:101FF000F5E0F51568F427E02C9FC0012D9F900DAA
:10200000112401970E94E10EF3018083CE0104C0E8
:102010002196A9CF80E090E0DF91CF911F910F91A1
:10202000FF90EF90DF90CF90BF90AF909F908F90F8
:102030007F906F905F904F903F902F900895CF9238
:10204000DF92EF92FF920F931F93CF93DF931F9234
:10205000CDB7DEB74983FC0101900020E9F7319745
:10206000E81BF90BEB30F10518F480E090E030C08C
:10207000DC01E80FF91F2D91022E000C330B2053C9
:1020800031092A30310588F7AE17BF07A1F7F62EC0
:102090008C01BE016F5F7F4F0E949A0F892B29F739
:1020A0008F2D0E94490F7C0118161906F4F601972E
:1020B00027E0289F6001299FD00C1124B601C80198
:1020C0000E94970E6981C60106960E946F0EC70195
:1020D0000F90DF91CF911F910F91FF90EF90DF90C4
:1020E000CF900895FC0124813581232B49F069E8C4
:1020F00071E0808191810E94713121E0892B09F08A
:1021000020E0822F0895CF92DF92EF92FF920F93FB
:102110001F93CF93DF9300D0CDB7DEB76C017C0166
:1021200000E010E0F70161917F011A830983CE017D
:1021300001960E94E9010F5F1F4F0730110591F7CB
:10214000C6010F900F90DF91CF911F910F91FF90DB
:10215000EF90DF90CF900895FB014481558160811D
:1021600071810C940F15CF93DF93BC0187E794E046
:102170000E946818EC0187E794E00E94A1188C0F78
:102180009D1FDF91CF9108958F929F92AF92BF9242
:102190000F931F93CF93DF93CDB7DEB7A1970FB601
:1021A000F894DEBF0FBECDBF19A2423008F44AE05A
:1021B0008E010F5D1F4F842E912CA12CB12CA501F7
:1021C00094010E941E2FE62FB901CA010150110986
:1021D000EA3014F4E05D01C0E95CD801EC93232BF4
:1021E000242B252B61F7B80187E794E00E948C1817
:1021F000A1960FB6F894DEBF0FBECDBFDF91CF9191
:102200001F910F91BF90AF909F908F900895CF92A4
:10221000DF92EF92FF92CF93DF936C01990FEE085C
:10222000FF08F7FE19C06DE287E794E00E941920CD
:10223000EC0166277727CB016C197D098E099F0970
:102240004AE00E94C4108C0F9D1FDF91CF91FF9038
:10225000EF90DF90CF9008954AE0C701B601DF917B
:10226000CF91FF90EF90DF90CF900C94C410CF935C
:10227000DF930E940711EC0187E794E00E94A11808
:102280008C0F9D1FDF91CF910895CF93DF93EC01C9
:102290006AEC72E00E9495150E94E70D97FD05C05B
:1022A000682FCE010E94540EF7CFCE01DF91CF915F
:1022B0000895CF93DF9300D000D000D0CDB7DEB724
:1022C000CE0101960E944511CE0101960E9487150C
:1022D00064E670E080E090E00E94FE1D63E471E03F
:1022E0008AED93E00E94681826960FB6F894DEBF38
:1022F0000FBECDBFDF91CF910895EF92FF920F9364
:102300001F93CF93DF9300D000D000D0CDB7DEB7BE
:102310007C018B01CE0101960E944511CE010196F0
:102320000E94871564E670E080E090E00E94FE1D48
:1023300069E371E08AED93E00E946818B7018AEDC5
:1023400093E00E945A1866E371E08AED93E00E94E0
:10235000681864E670E080E090E00E94FE1DB8011D
:102360008AED93E00E94A51864E670E080E090E0BA
:102370000E94FE1D6AE18AED93E00E9402146CED5A
:1023800075E080E090E00E94FE1DCE0101960E9463
:102390004511CE0101960E94871526960FB6F89436
:1023A000DEBF0FBECDBFDF91CF911F910F91FF9088
:1023B000EF900895CF92DF92FF920F931F93CF93E8
:1023C000DF93CDB7DEB762970FB6F894DEBF0FBECE
:1023D000CDBF8C01F62E6A016AEC72E0CE010D963B
:1023E0000E94951589E06F2D8F15B0F4CE010196EE
:1023F0000E941B0EBE016F5F7F4FCE010D960E94A3
:10240000AE14BE01635F7F4FC8010E948C15CE01E0
:1024100001960E94871542C0CE010196E5E0CE16D6
:10242000D10451F40E941B0EBE016F5F7F4FCE019D
:102430000D960E94AE1421C00E941B0E69E871E047
:10244000CE0107960E9495154D815E8169817A8142
:10245000CE0107960E940F15811104C0CE01079688
:102460000E943D15BE01695F7F4FCE010D960E940F
:102470007015CE0107960E948715CE0101960E9425
:102480008715F8011182108213821282158214823C
:10249000BE01635F7F4FC8010E94AE14CE010D964E
:1024A0000E948715C80162960FB6F894DEBF0FBE72
:1024B000CDBFDF91CF911F910F91FF90DF90CF9013
:1024C0000895BF92CF92DF92EF92FF920F931F93E6
:1024D000CF93DF93CDB7DEB72C970FB6F894DEBF5E
:1024E0000FBECDBF8C016B016AEC72E0CE01079686
:1024F0000E94951587E08C9D70018D9DF00C112434
:10250000C70101970E94E10E80930401670187E0F3
:10251000C81AD108B12CE12CF12CC6018E0D9F1DDB
:102520000E94E10E811101C0B39493E09B1530F439
:1025300069E871E0C8010E94951525C0A701682FC0
:10254000CE0101960E94DA11BE016F5F7F4FCE016E
:1025500007960E94AC10CE0101960E948715EFEFFE
:10256000EE1AFE0AF6E0EF16F104B9F6F801118250
:1025700010821382128215821482BE01695F7F4F1E
:10258000C8010E94AE14CE0107960E948715C801AB
:102590002C960FB6F894DEBF0FBECDBFDF91CF9162
:1025A0001F910F91FF90EF90DF90CF90BF90089513
:1025B00008954091B9055091BA052091B705309121
:1025C000B80542175307B4F49091E8009570E1F311
:1025D0009091E80092FD19C08093F1008091B905B7
:1025E0009091BA0501968F739927892B19F48EEF74
:1025F0008093E8008091B9059091BA050196909377
:10260000BA058093B90581E0089580E00895DF92CE
:10261000EF92FF920F931F93CF93DF93D82EF92E53
:10262000E42E062F10E0C8010196880F0E94D912EF
:1026300083E00E94D912CD2DDF2D0C0F1D1FC01776
:10264000D10789F0E7FE03C0FE01849101C08881B3
:102650000E94D912F82E80E00E94D9128F21219673
:102660008111EDCF01C081E0DF91CF911F910F91DA
:10267000FF90EF90DF900895DF92EF92FF920F931B
:102680001F93CF93DF93D82E8A017B01E40EF51EB2
:10269000EB01CE15DF0571F0D7FE03C0FE0184917A
:1026A00001C088810E94D91221968111F2CF8FEF4B
:1026B0009FEF01C0C801DF91CF911F910F91FF9053
:1026C000EF90DF900895615030F02091F100FC010F
:1026D00020830196F8CF289884E68093C805089552
:1026E000CF92DF92EF92FF920F931F93CF93DF93DE
:1026F0006C017A018B01C0E0D0E0CE15DF0581F0DE
:10270000D8016D918D01D601ED91FC910190F08180
:10271000E02DC6010995892B11F02196EECF7E019F
:10272000C701DF91CF911F910F91FF90EF90DF9044
:10273000CF900895FC01538D448D252F30E0842FD8
:1027400090E0821B930B541710F0CF9608950197D9
:102750000895FC01918D828D981761F0828DDF01C3
:10276000A80FB11D5D968C91928D9F5F9F73928F84
:1027700090E008958FEF9FEF0895FC01918D828D79
:10278000981731F0828DE80FF11D858D90E0089546
:102790008FEF9FEF0895FC01918D228D892F90E09E
:1027A000805C9F4F821B91098F73992708958AED52
:1027B00093E00E94CB1321E0892B09F420E0822FC3
:1027C0000895FC01848DDF01A80FB11DA35ABF4FEE
:1027D0002C91848D90E001968F739927848FA68920
:1027E000B7892C93A089B1898C9182748C93938D35
:1027F000848D981306C00288F389E02D80818F7D37
:1028000080830895EF92FF920F931F93CF93DF93EE
:10281000EC0181E0888F9B8D8C8D981305C0E88931
:10282000F989808185FD26C0F62E0B8D10E00F5FA3
:102830001F4F0F731127E02E8C8DE8120CC00FB6BE
:1028400007FCFACFE889F989808185FFF5CFCE01B1
:102850000E94E113F1CF8B8DFE01E80FF11DE35AC9
:10286000FF4FF0829FB7F8940B8FEA89FB89808134
:10287000806209C09FB7F894EE89FF896083E88978
:10288000F9898081827480839FBF81E090E0DF912D
:10289000CF911F910F91FF90EF900895CF93DF9309
:1028A000EC01888D8823C9F0EA89FB89808185FD48
:1028B00005C0A889B9898C9186FD0FC00FB607FCA9
:1028C000F5CF808185FFF2CFA889B9898C9185FFEA
:1028D000EDCFCE010E94E113E7CFDF91CF910895B4
:1028E00080E090E0892B29F00E94D71381110C948D
:1028F000000008950E9445310F931F93CF93DF93FB
:102900001F92CDB7DEB782E0898342E450E06EE4E7
:1029100071E080E80E943C130E94561DDC01129673
:102920000D911C9113970115110589F0D801ED91B6
:10293000FC910280F381E02DBE016F5F7F4FC801E3
:10294000099597FD04C0F80100851185ECCF8981B8
:102950000F90DF91CF911F910F9108950F931F93C7
:10296000CF93DF938C01EB01FC0180819181009773
:1029700039F06881798161157105A1F40E94F62F03
:1029800088819981F801918380838A819B819383D7
:1029900082838C819D8195838483198218821B8216
:1029A0001A820FC0F801428153812C813D81421768
:1029B000530720F30E947A318C819D81F801958321
:1029C00084831D821C82DF91CF911F910F91089506
:1029D0000F931F93CF93DF93EC0188819981009728
:1029E00029F02A813B812617370788F48B016F5F16
:1029F0007F4F0E947F30009761F0998388831B830B
:102A00000A832C813D81232B11F4FC01108281E08B
:102A100001C080E0DF91CF911F910F910895EF9257
:102A2000FF920F931F93CF93DF936115710511F4FC
:102A300080E01CC041155105C1F07B01EC018C8187
:102A40009D818A01080F191FB801CE010E94E81468
:102A5000882371F3288139818C819D81B701820F90
:102A6000931F0E947A311D830C8381E0DF91CF9107
:102A70001F910F91FF90EF900895CF93DF93EC019A
:102A800088819981009711F00E94F62F198218828F
:102A90001D821C821B821A82DF91CF910895EF92D2
:102AA000FF920F931F93CF93DF93EC017B018A0179
:102AB000BA010E94E814811104C0CE010E943D15A4
:102AC00007C01D830C83B701888199810E947A31E8
:102AD000CE01DF91CF911F910F91FF90EF9008955C
:102AE000CF93DF93EC01FB018617970761F06081BC
:102AF00071816115710529F0448155810E944F153E
:102B000002C00E943D15CE01DF91CF910895FC01D6
:102B1000808191810C94F62FFC0111821082138226
:102B20001282158214820C947015FC01118210829D
:102B300013821282158214826115710551F0FB0116
:102B400001900020E9F73197AF01461B570B0C9419
:102B50004F1508951F920F920FB60F9211248F9365
:102B60009F938091E1009091E100937F9093E10029
:102B700083FF0FC01092E90091E09093EB00109258
:102B8000EC0092E39093ED001092C90598E09093C9
:102B9000F00082FF20C093E09093E9009091F20052
:102BA000992319F09AE39093E8009091B605992340
:102BB00039F09091B60591509093B605992389F11B
:102BC0009091C805992339F09091C8059150909340
:102BD000C805992341F184FF10C08091E2008E7EE8
:102BE00081608093E2008091E1008F7E8093E1001C
:102BF0008091DE028E7E806111C080FF16C08091C0
:102C0000E2008E7E80618093E2008091E1008E7E02
:102C10008093E1008091DE028E7E81608093DE02EF
:102C200004C05D9ACDCF289AD6CF9F918F910F90F7
:102C30000FBE0F901F9018951F920F920FB60F9214
:102C40001124CF92DF92EF92FF920F931F932F9355
:102C50003F934F935F936F937F938F939F93AF9324
:102C6000BF93EF93FF93CF93DF93CDB7DEB76C970E
:102C7000DEBFCDBF1092E9008091E80083FFFBC169
:102C800068E0CE0145960E94631382EF8093E800CE
:102C90008D8987FF05C09091E80090FFFCCF03C0AD
:102CA0009EEF9093E800982F907609F0C6C09E8919
:102CB0004F89588D2F89F88C91110CC0803829F4D8
:102CC0008091DF028093F10002C01092F100109217
:102CD000F10045C1913051F4811141C1413051059C
:102CE00009F03DC18091DF028D7F0BC0933061F40C
:102CF000811135C14130510509F031C18091DF02A8
:102D000082608093DF022BC1953049F48091E80006
:102D100080FFFCCF822F80688093E30020C1963033
:102D200009F05EC00B8D1C8D22E01092E90010921C
:102D3000BA051092B905F21232C01092B80510927D
:102D4000B7050E947C1499E0BE016F5F7F4FDB01E5
:102D5000E92F1D92EA95E9F79983FA8291E09E8323
:102D600090EA98879AEF99872091B9053091BA0532
:102D7000275F3F4F3C832B838D831092E900109295
:102D8000BA051092B9051093B8050093B70549E04C
:102D900050E080E00E943C130E947C14E0C010933D
:102DA000B8050093B7050E94561DDC0112960D91DF
:102DB0001C9113970115110509F4BBC0D801ED91C1
:102DC000FC910480F581E02DBE016B5E7F4FC80150
:102DD0000995009709F0C7C0F80100851185EACF71
:102DE000973009F445C1983021F481E08093F100D7
:102DF000B6C0993009F0B3C0837009F039C1E5E578
:102E0000F1E081E031E096E32081211109C08EE7F5
:102E10008093EA001092EA008F898093C9059FC0D1
:102E20008093E9003093EB0021912093EC00909384
:102E3000ED008F5F873041F7EACF8B8D9C8D10922C
:102E4000E9001092BA051092B9059093B8058093E5
:102E5000B705898D811153C08E899D89913A49F4B6
:102E6000813209F005C147E050E069E071E080E09F
:102E7000BBC0913209F0FCC0833269F48F89988D10
:102E8000A0E0B0E08093050190930601A0930701B4
:102E9000B093080164C0803269F48091E80082FF39
:102EA000FCCF67E089E091E00E9463138BEF809391
:102EB000E80055C0823209F052C08F89809310011A
:102EC000EEEFFFE7859194918B3F9C4D19F0E0E088
:102ED000F8E002C0EEEFFAE08091090190910A015A
:102EE000A0910B01B0910C01803B9440A105B1056C
:102EF00009F09EC08091100180FF79C099C00E94A6
:102F0000561DFC01028113810115110509F4B0C0A1
:102F1000D801ED91FC910190F081E02DBE016B5E36
:102F20007F4FC801099581111AC0F80100851185EC
:102F3000EBCFF1E0FF1609F44EC0F3E0FF1298C0AA
:102F40008F89882309F44AC0823089F440E862E11D
:102F50008FEA91E00E940713882309F489C08EEF5D
:102F60008093E80088C018161906CCF381C0813020
:102F700029F440E868E086EA91E0ECCF833009F07C
:102F800077C00E94561DDC011296ED90FC901397BD
:102F90008E010F5F1F4F6801E114F10479F0D70132
:102FA000ED91FC910680F781E02DB801C7010995EC
:102FB000080F111DF701E084F184EECFD8011C92B7
:102FC000F60101900020E9F73197BF016C197D09E6
:102FD00040E0C601BFCF64E971E002C060E971E082
:102FE000FB01449150E080E80E943C13B8CFEE3FD3
:102FF0002AE0F20751F0808191818737A7E79A078D
:1030000021F09093FF0A8093FE0A87E797E7918368
:103010008083809160008093BB059BE088E10FB6C0
:10302000F894A895809360000FBE9093600097CFAE
:10303000808191818737974709F091CFA89580913A
:1030400060008861809360008091BB058093600080
:10305000EE3FBAE0FB0739F08091FE0A9091FF0A3B
:10306000918380837CCF1092FF0A1092FE0A77CF63
:1030700081E28093EB006C960FB6F894DEBF0FBE32
:10308000CDBFDF91CF91FF91EF91BF91AF919F9114
:103090008F917F916F915F914F913F912F911F91F0
:1030A0000F91FF90EF90DF90CF900F900FBE0F9099
:1030B0001F901895DB0114964D915C9115976D91B9
:1030C0007C91DC01ED91FC910280F381E02D09946B
:1030D000EF92FF920F931F93CF93DF938C017B01AD
:1030E000C0E0D0E0F701EC0FFD1F6491662361F0B2
:1030F000D801ED91FC910190F081E02DC801099576
:10310000892B11F02196EECFCE01DF91CF911F9147
:103110000F91FF90EF9008956115710579F0FB0113
:1031200001900020E9F73197AF01461B570BDC01F6
:10313000ED91FC910280F381E02D099480E090E014
:10314000089568EC72E00C948C180F931F93CF9342
:10315000DF93EC010E945A188C01CE010E94A11845
:10316000800F911FDF91CF911F910F9108951F92B2
:103170000F920FB60F9211242F933F934F935F93AB
:103180006F937F938F939F93AF93BF93EF93FF932F
:103190008AED93E00E94E113FF91EF91BF91AF910F
:1031A0009F918F917F916F915F914F913F912F915F
:1031B0000F900FBE0F901F9018951F920F920FB691
:1031C0000F9211242F938F939F93EF93FF93E0918E
:1031D000EA03F091EB038081E091F003F091F103B9
:1031E00082FD12C090818091F3038F5F8F732091D5
:1031F000F403821751F0E091F303F0E0E652FC4F44
:10320000958F8093F30301C08081FF91EF919F918F
:103210008F912F910F900FBE0F901F90189585EDF5
:103220008093BC008091BC0084FDFCCF1092AA0367
:10323000089540910906262F30E0240F311D2132D8
:103240003105DCF42091AA032430C9F4FC0180E0AC
:1032500090E0861758F4309109062191DC01A751BE
:10326000BA4FA30FB11D2C930196F3CF809109069D
:10327000680F6093090680E0089581E0089582E078
:103280000895089508950895E0916303809162037D
:10329000E81730F4F0E0EC59FC4F808190E008959D
:1032A0008FEF9FEF089590916303809162039817C9
:1032B00050F4E92FF0E0EC59FC4F208130E09F5FA3
:1032C0009093630302C02FEF3FEFC90108958091EF
:1032D000620390E020916303821B91090895CF92CD
:1032E000DF92EF92FF920F931F93CF93DF937C01B6
:1032F000CB018A012091AB03222389F0EB016B0102
:10330000C40ED51ECC15DD0569F06991D701ED918C
:10331000FC910190F081E02DC7010995F3CF642F56
:103320000E941919C801DF91CF911F910F91FF9051
:10333000EF90DF90CF900895CF93DF931F92CDB79A
:10334000DEB769832091AB032223D1F02091CD0316
:10335000203240F021E030E0FC013383228380E022
:1033600090E015C08091AC03E82FF0E0E355FC4FEE
:10337000998190838F5F8093AC038093CD0305C0C8
:1033800061E0CE0101960E94191981E090E00F9052
:10339000DF91CF91089590E0FC013197EF30F10576
:1033A000B0F5EA5AFF4F0C94402F809180008F7740
:1033B00003C0809180008F7D80938000089580916C
:1033C0008000877FF9CF84B58F7702C084B58F7D69
:1033D00084BD0895809190008F7707C08091900000
:1033E0008F7D03C080919000877F80939000089527
:1033F0008091C0008F7703C08091C0008F7D809343
:10340000C00008958091C200877F8093C200089514
:103410003FB7F8948091C0059091C105A091C20575
:10342000B091C30526B5A89B05C02F3F19F00196A2
:10343000A11DB11D3FBFBA2FA92F982F8827820F3A
:10344000911DA11DB11DBC01CD0142E0660F771F8A
:10345000881F991F4A95D1F708959F92AF92BF9206
:10346000CF92DF92EF92FF920F931F93CF93DF9350
:1034700000D0CDB7DEB76C01B62E7A011A82198260
:10348000BE016F5F7F4F80E590E00E94A22189819D
:103490009A818C5E9A4F2DE0289F8001299F100D04
:1034A0001124B801C6010E94970EF701A0809180F7
:1034B000C380D4806281C80107960E946F0E692D77
:1034C000C80108960E946F0E6A2DC80109960E94D5
:1034D0006F0E6C2DC8010A960E946F0E6D2DC801EB
:1034E0000B960E946F0E6B2DC8010C960E946F0EFA
:1034F00089819A810196843FF1E09F0719F09A83B0
:10350000898302C01A821982BE016F5F7F4F80E5F6
:1035100090E00E947B210F900F90DF91CF911F913F
:103520000F91FF90EF90DF90CF90BF90AF909F9062
:103530000895DF92EF92FF920F931F93CF93DF9343
:103540008C017B01C0E0D0E087E0D82E20910305FC
:1035500030910405D29EC001D39E900D11248C178A
:103560009D0794F0CE010E94E10E882359F0CD31E1
:10357000D10514F4F80101C0F70180819181019611
:10358000918380832796E2CFDF91CF911F910F9196
:10359000FF90EF90DF900895CF92DF92EF92FF922D
:1035A0000F931F93CF93DF931F92CDB7DEB719828E
:1035B000BE016F5F7F4F0E949A0F7C01019727E049
:1035C000289F6001299FD00C112400E010E060E0EA
:1035D000C8018C0D9D1D0E946F0E0F5F1F4F07309D
:1035E0001105A9F7C7010F90DF91CF911F910F919E
:1035F000FF90EF90DF90CF9008956115710551F025
:10360000FB0101900020E9F73197AF01461B570BF2
:103610000C940F1580E00895CF93DF93BC0187E7EA
:1036200094E00E948C18EC0187E794E00E94A118B6
:103630008C0F9D1FDF91CF9108954F925F926F92F3
:103640008F929F92AF92BF92CF92DF92EF92FF92B2
:103650001F93CF93DF931092D7051092D605109247
:10366000D5051092D4051092D3051092D205109270
:10367000D1051092D0051092CF051092CE05109270
:10368000CD051092CC051092CB051092CA05DC0135
:10369000ED91FC9190819093D8058091050581353D
:1036A00029F49435E1F0913561F41BC08C3439F480
:1036B0009435D1F0913549F09934E9F406C0943548
:1036C000A9F013E0933411F414C012E0892F8D7F18
:1036D000893479F09B7F913509F06CC00AC0C7E04E
:1036E00006C0C0E012E00CC0C8E001C0C0E013E0BA
:1036F00007C0C0E005C0933409F05AC0C0E018E02C
:103700006FE872E0CF010E94452E612CD0E04E019F
:10371000B4E08B0E911C2E0125E0420E511C7E015F
:10372000A6E0EA0EF11C6E01B7E0CB0ED11C5E01E3
:1037300028E0A20EB11C29960097E1F16394611272
:1037400004C09093D7058093D605262D30E0281528
:10375000390521F49093D5058093D40524153505BA
:1037600021F49093D3058093D2052E153F0521F4C3
:103770009093D1058093D0052C153D0521F49093AD
:10378000CF058093CE052A153B0521F49093CD05F6
:103790008093CC052C173D0721F49093CB058093A3
:1037A000CA056BEC72E080E090E00E94452EC4CF29
:1037B00013E08CCFDF91CF911F91FF90EF90DF90BE
:1037C000CF90BF90AF909F908F906F905F904F90F1
:1037D00008952091C905211103C08FEF9FEF08952F
:1037E0005FB7F89422E02093E9002091F20030E0E6
:1037F0001216130614F421E030E0422FFC0184E697
:10380000415038F028988093C8059091F100919329
:10381000F7CF2115310521F08091F200882319F0AE
:103820005FBFC90108958BE68093E800F9CF2FB7F9
:10383000F89483E08093E9009091E800892F8072EA
:1038400095FF04C09091F20080E4891B2FBF08957A
:103850001F920F920FB60F9211242F933F934F9305
:103860005F936F937F938F939F93AF93BF93EF93E8
:10387000FF938091B900887F803609F49CC068F579
:10388000883209F45BC090F4803109F454C038F4F4
:10389000882309F4F6C0883009F44DC0F6C0883199
:1038A00009F44CC0803209F45DC0EFC0803409F4E3
:1038B00068C048F4803309F455C0883309F0E5C086
:1038C0008093A803D8C0803509F44FC0883509F427
:1038D0005DC0883409F0D9C0D6C0883909F4C7C0A2
:1038E000A8F4883709F467C038F4883609F463C04F
:1038F000803709F460C0C9C0883809F4B8C080397D
:1039000009F45FC0803809F0C0C05BC0803B09F497
:1039100086C038F4803A09F466C0883A09F47FC05A
:10392000B4C0803C09F4A7C0883C09F4A4C0883B1B
:1039300009F48AC0AAC08091850310C09091A703A2
:103940008091A603981770F5E091A70381E08E0F90
:103950008093A703F0E0EA57FC4F80818093BB007F
:1039600085EC86C08093A8038EC0E091A70381E018
:103970008E0F8093A7038091BB00F0E0EA57FC4FC5
:1039800080839091A7038091A6036EC0E091A70366
:1039900081E08E0F8093A7038091BB00F0E0EA578F
:1039A000FC4F80838091A90381116DC081E08093D9
:1039B000840384EA61C083E08093AA0310922B06FB
:1039C000CFCF80912B06803208F051C0E0912B06BA
:1039D00081E08E0F80932B068091BB00F0E0E55FC5
:1039E000F94F8083BDCF85EC8093BC001092AA0371
:1039F00080912B06803230F4E0912B06F0E0E55FF9
:103A0000F94F108260912B0670E0E091C605F091AD
:103A1000C7058BE096E0099510922B0636C084E02E
:103A20008093AA0310920A0610920906E091C40539
:103A3000F091C505099580910906811105C081E0C5
:103A4000809309061092E905E0910A0681E08E0F45
:103A500080930A06F0E0E751FA4F80818093BB0023
:103A600090910A0680910906981708F479CF85E8A5
:103A70008093BC000AC085EC8093BC001092AA031E
:103A800004C01092A8030E940F19FF91EF91BF91FB
:103A9000AF919F918F917F916F915F914F913F91E6
:103AA0002F910F900FBE0F901F9018958091E105F8
:103AB00081110DC082E08093DD0584E08093DE05F6
:103AC0001092E0051092DF0581E08093E1058DED15
:103AD00095E00895CF93DF93282F30E0F901E65D5C
:103AE000FD4F8491F901E55FFD4FD491F901E45157
:103AF000FE4FC491CC2391F081110E94CB19EC2F81
:103B0000F0E0EE0FFF1FE252FE4FA591B491EC9151
:103B1000ED2381E090E021F480E002C080E090E0BD
:103B2000DF91CF9108951F93CF93DF93282F30E03B
:103B3000F901E65DFD4F8491F901E55FFD4FD491F8
:103B4000F901E451FE4FC491CC23C1F0162F81112D
:103B50000E94CB19EC2FF0E0EE0FFF1FE053FE4F59
:103B6000A591B4919FB7F894111104C08C91D09590
:103B7000D82302C0EC91DE2BDC939FBFDF91CF9165
:103B80001F910895CF93DF9390E0FC01E55FFD4F17
:103B90002491FC01E451FE4F8491882361F190E06F
:103BA000880F991FFC01EE53FE4FC591D491FC0183
:103BB000E053FE4FA591B491611109C09FB7F894ED
:103BC0008881209582238883EC912E230BC062305C
:103BD00061F49FB7F8948881322F309583238883CE
:103BE000EC912E2B2C939FBF06C08FB7F894E881E1
:103BF0002E2B28838FBFDF91CF9108958F929F92B4
:103C0000AF92BF92CF92DF92EF92FF926B017C0155
:103C10000E94081A4B015C01C114D104E104F104B3
:103C2000F1F00E94081ADC01CB0188199909AA0950
:103C3000BB09883E9340A105B10570F321E0C21A8B
:103C4000D108E108F10888EE880E83E0981EA11CD7
:103C5000B11CC114D104E104F10419F7DDCFFF90C8
:103C6000EF90DF90CF90BF90AF909F908F9008958E
:103C70002FB7F8946091BC057091BD058091BE0589
:103C80009091BF052FBF0895CF92DF92EF92FF92E0
:103C90000F931F93CF93DF93EC0188814A81698151
:103CA00090E00E9441229C01A8E1B0E00E94FB2E1E
:103CB0002B817B018C01E20EF11C011D111DA8015D
:103CC0009701ACE3B0E00E94B92E2C817B018C01FE
:103CD000E20EF11C011D111DA80197010E94B92ED1
:103CE0002D816B017C01C20ED11CE11CF11C0E94D4
:103CF000381E28EE33E040E050E00E941E2FC21A2A
:103D0000D30AE40AF50A00E8C01A0CEBD00A02E96B
:103D1000E00A07ECF00AC092D905D092DA05E092E9
:103D2000DB05F092DC05DF91CF911F910F91FF90A1
:103D3000EF90DF90CF9008950F931F93CF93DF9371
:103D4000EC01092E000CAA0BBB0B8093F804909396
:103D5000F904A093FA04B093FB040E94381EAB014F
:103D6000BC018091FF0490910005A0910105B091E4
:103D700002058A019B01081B190B2A0B3B0B809142
:103D8000F8049091F904A091FA04B091FB0408178B
:103D900019072A073B0758F18091F604811113C0D7
:103DA00081E08093F604C43F81E0D80774F0CE012F
:103DB000845F9140092E000CAA0BBB0B481B590BCA
:103DC0006A0B7B0B02C01092F6044093FF045093E1
:103DD000000560930105709302056091F6048091DF
:103DE000F404DF91CF911F910F910C94931DDF91FB
:103DF000CF911F910F910895CF93DF9300D000D002
:103E000000D0CDB7DEB7CE0101960E944511CE019C
:103E100001960E94871562EB72E08AED93E00E94A2
:103E2000681864EF71E080E090E00E94FE1DCE0112
:103E300001960E944511CE0101960E94871566EAFF
:103E400072E08AED93E00E94681864EF71E080E010
:103E500090E00E94FE1DCE0101960E944511CE0108
:103E600001960E9487156AE972E08AED93E00E944C
:103E7000681864EF71E080E090E00E94FE1DCE01C2
:103E800001960E944511CE0101960E94871566E8B1
:103E900072E08AED93E00E94681864EF71E080E0C0
:103EA00090E00E94FE1DCE0101960E944511CE01B8
:103EB00001960E94871567E672E08AED93E00E9402
:103EC000681864EF71E080E090E00E94FE1DCE0172
:103ED00001960E944511CE0101960E94871560E669
:103EE00072E08AED93E00E94681864EF71E080E070
:103EF00090E00E94FE1DCE0101960E944511CE0168
:103F000001960E94871562E572E08AED93E00E94B7
:103F1000681864E670E080E090E00E94FE1DCE012B
:103F200001960E944511CE0101960E9487152696A2
:103F30000FB6F894DEBF0FBECDBFDF91CF910895CD
:103F4000EF92FF920F931F93CF93DF9300D000D097
:103F500000D0CDB7DEB78C01CE0101960E9445118D
:103F6000CE0101960E94871564E670E080E090E043
:103F70000E94FE1D68E472E08AED93E00E946818DA
:103F800068EE73E080E090E00E94FE1DFF24F39451
:103F900087E2E82E8AED93E00E94CB132091120570
:103FA0001816190664F521112AC08AED93E00E94C3
:103FB000A91390912D069923E9F0E0912C068A30FF
:103FC00071F0AE2FB0E0AD57BA4F8C93EF5FE8328F
:103FD00018F4E0932C06DECFE0922C06DBCFF0E065
:103FE000ED57FA4F108210922D0610922C06F09287
:103FF0001205D0CF883371F6F0922D06CBCF222355
:1040000029F01092120563E875E002C064ED72E0D9
:10401000C8010E949515C80126960FB6F894DEBF18
:104020000FBECDBFDF91CF911F910F91FF90EF9009
:104030000895CF93DF931F92CDB7DEB76983DC017C
:10404000ED91FC910280F381E02D41E050E0BE0152
:104050006F5F7F4F09950F90DF91CF91089583E0B7
:104060008093E9008091F200882319F08AE380931D
:10407000E8000895FC018485958597FD0BC09FB7E6
:10408000F89482E08093E9008091F2009FBF90E075
:10409000019608959FB7F89482E08093E90080919B
:1040A000F2009FBF90E0089580E090E008958F9225
:1040B0009F92AF92BF92CF92DF92EF92FF920F93B7
:1040C0001F93CF93DF936C017B018A0180911001D4
:1040D000882309F45CC08091C905882309F457C07E
:1040E0008091DE0280FF05C08091E00082608093B5
:1040F000E000E801B12C8AEFA82E93E0892E2AE394
:10410000922E209711F4BB20D9F10E94171C811127
:104110000AC0AA94AA20D9F161E070E080E090E0A2
:104120000E94FE1DEECF282F30E0C217D3070CF4FB
:104130008C2F9FB7F8948092E9002091E80025FF2A
:104140001DC0282F30E0C21BD30BF701815020F097
:1041500041914093F100FACFE20EF31EBB2019F01B
:104160009092E8000AC08091E80085FD07C0909217
:10417000E800BB24B394209709F0B12C9FBFC1CFB6
:104180005D9884E68093B6051016110644F081E030
:1041900090E0F6019383828380E090E001C0C80143
:1041A000DF91CF911F910F91FF90EF90DF90CF9013
:1041B000BF90AF909F908F9008950E94171C90E041
:1041C00008950F931F93CF93DF931F92CDB7DEB760
:1041D0008C01FC018485958597FF0EC0CE01019668
:1041E0000E94E91B019719F4898190E002C08FEFCA
:1041F0009FEFF80195878487F801848595850F9056
:10420000DF91CF911F910F910895CF93DF931F926C
:10421000CDB7DEB7FC018485958597FD05C02FEFEE
:104220003FEF358724870BC0CE0101960E94E91B22
:10423000019719F4898190E002C08FEF9FEF0F90F2
:10424000DF91CF910895CF93DF93EB010E94A32ECE
:104250008883CE01DF91CF91089560E0FC018081D9
:104260000C94931D61E0FC0180810C94931DEF92EE
:10427000FF920F931F93CF93DF93EC01CB01072E97
:10428000000CAA0BBB0B8C839D83AE83BF83598725
:1042900048878B81882341F18B01E12CF12CE016BA
:1042A000F106C4F461E088810E94931D68857985D8
:1042B00080E090E00E94FE1D60E088810E94931DD6
:1042C0006885798580E090E00E94FE1D8FEFE81AF6
:1042D000F80AE5CF60E08881DF91CF911F910F91BF
:1042E000FF90EF900C94931DDF91CF911F910F9150
:1042F000FF90EF900895EF92FF920F931F93CF934B
:10430000DF9300D0CDB7DEB78C017B01FB0160816C
:104310009A838983CE0101960E94E901F7016181A8
:104320000F5F1F4F1A830983CE0101960E94E90196
:10433000C7010F900F90DF91CF911F910F91FF90C8
:10434000EF9008950F931F93CF93DF938C01EB01B0
:104350000E94A32E8883C80101960E94A32E898300
:10436000CE01DF91CF911F910F9108958F929F926F
:10437000AF92BF92CF92DF92EF92FF92CF93DF93F3
:10438000EC010E94381EC090D905D090DA05E0906B
:10439000DB05F090DC0520E8C21A23E4D20A2DE602
:1043A000E20A28E3F20A28EE33E040E050E00E94FF
:1043B0001E2FC20ED31EE41EF51E8CE3882E912CF8
:1043C000A12CB12CC701B601A50194010E941E2F9A
:1043D0006D83CA01B901A50194010E941E2F6C834F
:1043E000C701B60120E13EE040E050E00E941E2FF0
:1043F000CA01B90128E130E040E050E00E941E2FE0
:104400006B83C701B60120E831E541E050E00E942E
:104410001E2F18824881542F537081E009F080E0EC
:1044200090E0BC0163597E4F2617370738F0281BF0
:10443000390B2D5631404F5F4883ECCF81E08983A3
:104440008981E82FF0E0E354FD4FE491511103C05E
:10445000823009F4EF5FF0E02E173F0720F02E1BAB
:104460003F0B8F5FECCF2F5F2A83CE01DF91CF917F
:10447000FF90EF90DF90CF90BF90AF909F908F9084
:104480000895803D27E0920710F0805D974050E04E
:10449000EEEBF2E021E0261730F43491430F511D8A
:1044A0002F5F3196F8CF633038F09C0123703327AB
:1044B000232B11F44F5F5F4FBC016D5F7F4F7695EB
:1044C000679576956795EDE6F1E08E9F90018F9F59
:1044D000300D9E9F300D1124C9010197860F971F43
:1044E000840F951F0895FC0180814281618190E0D5
:1044F0000E944122069667E070E00E940A2F08950C
:104500000F931F93CF93DF9300D0CDB7DEB78B010E
:10451000FB0160819A838983CE0101960E94E901A3
:10452000C8010F900F90DF91CF911F910F910895C7
:10453000EF92FF920F931F93CF93DF9307E013E067
:10454000C0E0D0E0CE010E94A32EF80181938F013C
:104550002196C730D105B1F764E073E08AE090E0BE
:104560000E94A22163E073E088E290E00E94232190
:1045700062E073E082E390E00E94232161E073E057
:1045800084E390E00E9423216EEF72E086E390E0E6
:104590000E94A22166E073E08CE390E00E94232158
:1045A00060E073E08EE390E00E94232160EE72E011
:1045B0008CE490E00E9423216EE073E08EE490E0B2
:1045C0000E94A22162E376E08AE590E00E94A221A7
:1045D00064E376E084E690E00E94A22160E376E066
:1045E0008EE690E00E94A2216FE276E088EC90E0F7
:1045F0000E942321CFEED2E001EE12E08DEFE82EF3
:1046000082E0F82EBE018CED90E00E94A221B8015C
:104610008EED90E00E94A22122960E5F1F4FEC16B5
:10462000FD0681F7DF91CF911F910F91FF90EF90E1
:1046300008950F931F93CF93DF93CDB7DEB72997DC
:104640000FB6F894DEBF0FBECDBF84EF94E00E949A
:10465000322100E010E0809103059091040523E0F1
:10466000880F991F2A95E1F7081719073CF460E0B5
:10467000C8010E946F0E0F5F1F4FEDCF04E012E4E0
:1046800060E0C8010E946F0E0F5F1F4F0C3C8BE56E
:104690001807B1F700E010E01A83098360E0CE014B
:1046A00001960E94E9010F5F1F4F011582E0180774
:1046B00099F787E0E6EDF2E0DE01119601900D92A8
:1046C0008A95E1F7CE0101960E94831082E08093E3
:1046D00004038093050364E073E08AE090E00E94A5
:1046E0007B2111E01887BE01685F7F4F88E290E070
:1046F0000E9480221987BE01675F7F4F8CE390E0A4
:104700000E9480221092E00260EE72E08CE490E061
:104710000E94802282E090E090930F0380930E032A
:104720006EE073E08EE490E00E947B2102E310E0F3
:10473000109333060093320662E376E08AE590E058
:104740000E947B21109335060093340664E376E0E3
:1047500084E690E00E947B2110933106009330069E
:1047600060E376E08EE690E00E947B210E94670E77
:1047700061E08EE290E00E94AB2E9EE088E10FB6F1
:10478000F894A895809360000FBE9093600060ED50
:1047900077E080E090E00E94FE1D29960FB6F89425
:1047A000DEBF0FBECDBFDF91CF911F910F91089556
:1047B000FF920F931F93CF93DF93CDB7DEB72C9764
:1047C0000FB6F894DEBF0FBECDBF8C01F62ECE0122
:1047D00007960E94B6218F81898388858A8389857F
:1047E0008B838A858C838B858D838C858E83AE01AC
:1047F0004F5F5F4F6F2DC8010E942D1ABE016F5F82
:104800007F4F80E590E00E94A22189819A810E94D9
:104810003711209132063091330689819A818217AF
:10482000930721F080912E068823C9F080913006ED
:1048300090913106820F931F843F21E092072CF460
:10484000909333068093320604C010923306109280
:10485000320662E376E08AE590E00E947B212C96A6
:104860000FB6F894DEBF0FBECDBFDF91CF911F9181
:104870000F91FF9008951F920F920FB60F9211247F
:104880002F933F938F939F93AF93BF938091BC05DA
:104890009091BD05A091BE05B091BF05309136063F
:1048A00023E0230F2D3720F40196A11DB11D05C073
:1048B00026E8230F0296A11DB11D20933606809392
:1048C000BC059093BD05A093BE05B093BF05809134
:1048D000C0059091C105A091C205B091C305019694
:1048E000A11DB11D8093C0059093C105A093C20581
:1048F000B093C305BF91AF919F918F913F912F913D
:104900000F900FBE0F901F901895CF93DF93CDB7E8
:10491000DEB7E2970FB6F894DEBF0FBECDBF789436
:1049200084B5826084BD84B5816084BD85B58260B4
:1049300085BD85B5816085BD80916E008160809365
:104940006E001092810080918100826080938100CE
:1049500080918100816080938100809180008160DE
:10496000809380008091910082608093910080917B
:10497000910081608093910080919000816080938C
:1049800090008091C10084608093C1008091C1003B
:1049900082608093C1008091C10081608093C100DA
:1049A0008091C30081608093C3008091C0008260C9
:1049B0008093C0008091C20081608093C20080918A
:1049C0007A00846080937A0080917A00826080937C
:1049D0007A0080917A00816080937A0080917A00D9
:1049E000806880937A001092C9051092DF021092BD
:1049F000DE028091D70081608093D70080EA8093A7
:104A0000D80089B5806189BD89B5826089BD09B446
:104A100000FEFDCF61E070E080E090E00E94FE1DAE
:104A20008091D8008F7C80618093D8008091E000D5
:104A3000807F8093E0008091E1008E7E8093E10092
:104A40008DE08093E200559A209A87EF84BF0FB6DD
:104A5000F894A8958091600088618093600010921E
:104A600060000FBE60E08EE00E94C21D61E084E144
:104A70000E94C21D62E085E10E94C21D48EC50E028
:104A800065E070E084EF94E00E9437218EE290E0D0
:104A90000E94A32E81110FC061E084E10E94931D4A
:104AA00064EF71E080E090E00E94FE1D60E084E130
:104AB0000E94931D05C060E08EE290E00E94AB2E44
:104AC00084EF94E00E9432218FEF9FEF9093840453
:104AD0008093830468EE73E080E090E00E94FE1D06
:104AE000E091EA03F091EB0302E00083E091E6033A
:104AF000F091E7031082E091E803F091E90380E18F
:104B000080831092F203E091EE03F091EF0316E040
:104B10001083E091EC03F091ED038081806180834C
:104B2000E091EC03F091ED03808188608083E09157
:104B3000EC03F091ED03808180688083E091EC03C9
:104B4000F091ED0380818F7D8083809105058C3409
:104B500009F045C068EE73E080E090E00E94FE1D21
:104B600068EE70E08AED93E00E94681868EE73E0EA
:104B700080E090E00E94FE1DE091EA03F091EB03DB
:104B80000083E091E603F091E7031082E091E803EF
:104B9000F091E90387E680831092F203E091EE033F
:104BA000F091EF031083E091EC03F091ED0380812D
:104BB00080618083E091EC03F091ED038081886057
:104BC0008083E091EC03F091ED0380818068808325
:104BD000E091EC03F091ED0380818F7D808360E1B3
:104BE00077E280E090E00E94FE1D8E010F5F1F4F74
:104BF0004801C8010E944511C8010E9487156CED4B
:104C000070E08AED93E00E94681868EE73E080E03F
:104C100090E00E94FE1DC8010E944511C8010E943B
:104C2000871560ED70E08AED93E00E94681868EEE9
:104C300073E080E090E00E94FE1DC8010E944511D3
:104C4000C8010E9487150E94FC1E6AEC70E08AED84
:104C500093E00E946818C8010E944511C8010E9493
:104C6000871568EE73E080E090E00E94FE1D1092D0
:104C70006303109262031092AC031092CD03109262
:104C8000AA0381E08093A9031092840361E082E08B
:104C90000E94931D61E083E00E94931D8091B90002
:104CA0008E7F8093B9008091B9008D7F8093B90089
:104CB00088E48093B80085E48093BC0081E499E1A6
:104CC0009093C5058093C40582E499E19093C7054C
:104CD0008093C60560E177E280E090E00E94FE1DCF
:104CE00081E090E00E94A32E8F3F11F40E941923CF
:104CF0000E949822A0910E03B0910F031A161B0672
:104D000074F420E437E74BE150E00E944D2F6093AC
:104D1000000170930101809302019093030164E10B
:104D200070E08FEA95E00E94E814C4010E94A01F81
:104D3000B4018FEA95E00E94AE14C4010E94871569
:104D4000C4010E944511C4010E94871564E670E009
:104D500080E090E00E94FE1D6DEF70E08AED93E030
:104D60000E94681860E177E280E090E00E94FE1DFA
:104D700067EF70E08AED93E00E94681868EE73E0D8
:104D800080E090E00E94FE1DC4010E944511C40114
:104D90000E94871548EC50E065E070E084EF94E0F5
:104DA0000E94372185E1898381E08A838B831C827D
:104DB0001D821E82C4010E94441E0E945911662455
:104DC00063948AED93E00E94CB13181619060CF039
:104DD00071C08091110581116DC08AED93E00E9430
:104DE000A913782E80911303882309F4B9C00E9477
:104DF000381E5B016C012BA53CA54DA55EA56FA5DA
:104E000078A989A99AA928513C4F4F4F5F4F6F4FFE
:104E10007F4F8F4F9F4F19012A01B62FA72FF82FD1
:104E2000E92F9501A60160E070E080E090E051017B
:104E30006201EB2EFA2E0F2F1E2F0E94552F19F014
:104E400010F021E2722E8091AE05E09112038711DD
:104E500077C0F0E0EB5FFA4F108A109213031092C4
:104E6000120325E135E03093140520931305609279
:104E7000110542E350E061E070E084EF94E00E94AD
:104E80003721809111058111109211058091130530
:104E90009091140598A38F8F0E940C1BAF8DB8A121
:104EA000FD0101900020E9F73197EA1BFB0B3497D5
:104EB00008F06BC0D0900203DD2009F45EC2CE0181
:104EC00043960E94B621CE0143960E947322E82F9A
:104ED000F0E0EE0FFF1FE151FD4F00811181CE0187
:104EE00043960E947322E82FF0E0EE0FFF1FEF5170
:104EF000FD4FE080F180101611061CF01E141F04F7
:104F0000E4F4C4010E94B6218C8198012E193F0956
:104F100090E037FF08C0801791077CF08E159F0541
:104F20000CF0B7C12AC2E81AF90A1E141F042CF0AB
:104F3000801791070CF0ADC120C2D110AAC11DC2CB
:104F4000AE2FB0E0AB5FBA4F50967C92EF5FEE367B
:104F500018F4E093120335CF1DE61093120331CFFE
:104F60008091AB05781649F08091AC05781649F030
:104F70008091AD05781225CF04C031E23093AE05A3
:104F800063C14DE04093AE055FC111968C918E34A4
:104F900009F490CFCE014F960E941D1B8091D80539
:104FA0008B3409F4A7C03CF4833409F450C089342D
:104FB00009F44DC07FCF813589F1843509F07ACF6E
:104FC0000E94D1018130C1F018F08230E1F072CF3F
:104FD0000E94C101882309F46DCF0E949101682FBE
:104FE00070E06115710509F465CF8091D605909147
:104FF000D7050E94EB025ECF0E94C101882319F001
:105000000E946C0357CF6091D6057091D7058091AF
:10501000D4059091D5050E9402024CCF6091D6052F
:105020007091D705C4010E9495156091100370918D
:105030001103CE0143960E946112B401CE01439642
:105040000E947D11CE0143960E9487151EC10E94C9
:10505000D101813019F0823099F029C090911C0360
:10506000992319F08093170322C0809101038230A5
:1050700058F46091D6057091D7058EE092E015C086
:1050800080910103823038F06091D6057091D70588
:105090008BE591E00AC080910401823050F3609169
:1050A000D6057091D7058FE591E00E94020210921B
:1050B0000705109206058AED93E00E94CB13892B19
:1050C00009F0D4C08091060590910705803E9E426C
:1050D0000CF0CCC06DE070E080E090E00E94FE1D1E
:1050E000809106059091070501969093070580939E
:1050F0000605E1CF8091D6059091D7050E94272E15
:105100008C014497449708F08EC08091CE05909111
:10511000CF050E94272E182F8091D0059091D105A0
:105120000E94272EF82E8091D2059091D3050E94DF
:10513000272EE82E8091D4059091D5050E94272E28
:1051400009838A83EB82FC821D831E82C4010E9434
:10515000441E66E080E090E00E94D8238091E00247
:105160008823B1F1209115033091160380910E032D
:1051700090910F03820F931F909316038093150352
:10518000489734F1109216031092150361E070E015
:10519000CE0149960E94611263E671E0C4010E944B
:1051A0009515BE01675E7F4FCE0143960E948C1518
:1051B000B401CE0143960E947D11CE0143960E9418
:1051C0008715C4010E948715CE0149960E94871554
:1051D00080910E0390910F03181619060CF06ACEF9
:1051E0000E94381E61327F4B8240910508F462CEE6
:1051F00061E171E08AED93E00E94681868E873E16C
:1052000080E090E00E94FE1D65E071E08AED93E091
:105210000E946818C4010E944511C4010E948715AC
:105220000E94FC1E2FC068E873E180E090E00E94BD
:10523000FE1D809114038F5F80931403823008F069
:1052400039CE0E94591136CE0E94381E7B018C0146
:1052500020E030E0A9016BA7FCA60DA71EA72FA791
:1052600038AB49AB5AAB60921303ABCD8AED93E0F8
:105270000E94CB13892B31F46AEC72E0C4010E94C6
:10528000951503C0C4010E944511C4010E948715F1
:1052900011CE88EE93E00E949C1E80911C03811128
:1052A00011C08091C7040E946A1D21E0892B09F476
:1052B00020E080910303821365C08091FD0281117B
:1052C00061C04DC084E690E00E949C1EA091FE0249
:1052D000B091FF02C0901803D0901903E0901A0318
:1052E000F0901B0328EE33E00E94462F6093CB041E
:1052F0007093CC048093CD049093CE04672B682BDD
:10530000692B09F402C10E94381E8B019C010C1903
:105310001D092E093F09680179010091CB04109104
:10532000CC042091CD043091CE04C016D106E20603
:10533000F30608F4EAC06093D2047093D304809318
:10534000D4049093D5041092170310921C038091FB
:105350000103882321F086ED94E00E942D211BE3B8
:1053600087E794E00E943A2020915D031816190601
:105370000CF0D0C02111CEC081C380E49FE10E9417
:105380009C1EEDCF60921C030E94381E6093180390
:105390007093190380931A0390931B038091010368
:1053A0008823F1F186ED94E00E943221F12C08EE81
:1053B00013E0B801CE0149960E946112CE014996D0
:1053C0000E947210811122C021E02F1530F468E88C
:1053D00073E180E090E00E94FE1D67E671E0C40189
:1053E0000E949515BE01675E7F4FCE0143960E94D5
:1053F0008C15B401CE0143960E947D11CE014396D7
:105400000E948715C4010E948715F394CE01499626
:105410000E9487150F5F1F4F0E3E33E0130749F6BA
:105420006CE671E0CE0185960E94951519828091F7
:10543000FD02882361F062E771E0C4010E947A31C5
:105440006091D6057091D705C4010E946631F12C98
:1054500001E010E0B801CE014F960E946112CE012A
:105460004F960E947210811131C041E04F1530F407
:1054700068E873E180E090E00E94FE1D8091FD02EB
:10548000882331F0B401CE0149960E94951507C0DA
:10549000BE016B5D7F4FCE0149960E948C15BE0107
:1054A000615E7F4FCE0143960E948C15BE01675E00
:1054B0007F4FCE0143960E947D11CE0143960E94FC
:1054C0008715CE0149960E948715F394CE014F9619
:1054D0000E9487150F5F1F4F0630110509F0BACFE4
:1054E000CE0185960E9487158091FD0264E0882395
:1054F00029F08091D6059091D70502C080E090E018
:105500000E94D8231092FD022ACF809117038111A7
:105510001ACF25CF222309F451C281E293E098A348
:105520008F8FCE014F960E941D1BE091D605F09102
:10553000D7058081843409F456C0CCF48134C9F194
:105540003CF4833209F41BC1853209F477C134C2BB
:10555000823409F445C0833409F02EC240E061E48E
:105560008091D2059091D3050E941F1025C28035ED
:1055700009F4F1C074F48534E9F1863409F01CC2F1
:1055800064E071E08091D2059091D3050E949A0F5A
:10559000F0C0843509F4BFC08A3509F4F8C18335F9
:1055A00009F00AC284EF94E00E94322101E010E089
:1055B0007AC08091CE059091CF050E94272E482F6A
:1055C00065E48091D2059091D3050E941F1044E1BB
:1055D00050E061E070E084EF94E00E943721ECC17C
:1055E0000E941923E9C18091D2059091D3050E94B0
:1055F000CC1AE2C184EF94E00E9432211A8E198EF7
:10560000BE01675E7F4F80E590E00E94A22104EF1B
:1056100011E0898D9A8D892B21F424EF31E03A8FA6
:10562000298F898D9A8D9C01215031093A8F298FBC
:105630008D5E9A4F3DE0389F7001399FF00C112428
:105640006AEC72E0CE0143960E949515C12CD12CD4
:10565000C7018C0D9D1D0E94E10EA601682FC4019B
:105660000E94DA11B401CE0143960E94AC10C4012D
:105670000E9487154FEFC41AD40A5DE0C516D10405
:1056800039F7BE016D5E7F4F87E794E00E94A51851
:10569000CE0143960E9487150150110909F0B9CF38
:1056A00081E291E031C0B801C4010E946112C401DD
:1056B0000E947210811116C0B40187E794E00E9425
:1056C0005A186DE287E794E00E9419206091040166
:1056D00070E080E090E04AE00E94C41087E794E028
:1056E0000E94A1180530110521F48FE191E00E947C
:1056F000B310C4010E9487150F5F1F4F093E83E05E
:10570000180789F68DE191E00E94B31084EF94E0D0
:105710000E942D2151C10E94670E87E791E00E94EF
:105720000C1B8BE090E00E94371187E794E00E9409
:10573000A118C4010E94A01FB4018FEA95E00E9445
:10574000AE14C4010E9487156FEA75E087E794E004
:105750000E94A51831C146E050E067E073E08091F7
:10576000D2059091D3050E948131892B29F481E0E3
:1057700090E00E94371120C180E090E0FACF0E94B3
:1057800098226091200370E080E090E04AE00E945F
:10579000C4108091060390E00E94071160910403F9
:1057A00070E080E090E04AE00E94C4106091050340
:1057B00070E080E090E04AE00E94C4108091030312
:1057C00090E00E9407118091020390E00E9407116F
:1057D0006091010370E080E090E04AE00E94C41014
:1057E0008091000390E00E94071180911F0390E0D8
:1057F0000E9407118091FF028F938091FE028F9388
:1058000083E891E09F938F939F928F920E949E31A5
:10581000B40187E794E00E948C1868E871E087E79C
:1058200094E00E948C1889E891E00E940C1B0F9074
:105830000F900F900F900F900F90BEC0E091D20587
:10584000F091D305808180538093200360E273E060
:1058500086E490E00E948022E091D205F091D30589
:1058600081E09181903309F480E08093060366E043
:1058700073E08CE390E00E948022E091D205F091E9
:10588000D305828180538093040383818053809366
:10589000050364E073E08AE090E00E947B21E091E0
:1058A000D205F091D30581E09481903309F480E032
:1058B0008093030363E073E088E290E00E9480221B
:1058C000E091D205F091D30581E09581903309F400
:1058D00080E08093020362E073E082E390E00E9444
:1058E0008022E091D205F091D30586818053809388
:1058F000010361E073E084E390E00E948022E09184
:10590000D205F091D30581E09781903309F480E0CE
:105910008093000360E073E08EE390E00E948022B9
:10592000E091D205F091D30581E09085903309F4A0
:1059300080E080931F036FE173E088E490E00E94B1
:105940008022E091D205F091D30581859285A385CF
:1059500089839A83AB831C82C4010E94272E909373
:10596000FF028093FE026EEF72E086E390E00E94F9
:105970007B21E091D205F091D30584859585A6859C
:1059800089839A83AB831C820E94982215C01C8A4B
:105990001B8A1A821982B401CE0143960E94991A79
:1059A0008B899C890E94371189819A810E943711C5
:1059B00087E794E00E94A11810925D0385E10E94A0
:1059C0006A1D9C0191E02115310509F490E0909346
:1059D000600380915F039817C9F0232B89F410911D
:1059E0005E031F5F10935E0340ED57E061E070E0DF
:1059F00084EF94E00E943721153011F40E9419239E
:105A000062E370E080E090E00E94FE1D8091600300
:105A100080935F030E94381E6B017C01809100011E
:105A200090910101A0910201B0910301C816D9061D
:105A3000EA06FB0601F54CE251E064E070E084EF19
:105A400094E00E943721A0910E03B0910F0320E44F
:105A500037E74BE150E00E944D2FC60ED71EE81EDF
:105A6000F91EC0920001D0920101E0920201F09271
:105A700003010E9459110E947014A3C987E794E0A2
:105A80000E94052190911E039923E9F0E0911D03E6
:105A90008E3371F0AE2FB0E0AF5DBC4F8C93EF5FF3
:105AA000EC3318F4E0931D035BCC10931D0358CC2A
:105AB000F0E0EF5DFC4F108210921E0310921D0368
:105AC00060925D034DCC8C3309F04ACC60921E038A
:105AD00047CCCF93DF93EEECF3E01382128288EE93
