:100000000C9479010C94A1010C94A1010C94A10110
:100010000C94A1010C94A1010C94A1010C94A101D8
:100020000C94A1010C94A1010C9484230C94F3234F
:100030000C94A1010C94A1010C94A1010C94A101B8
:100040000C94A1010C94A1010C94A1010C94A101A8
:100050000C94A1010C94A1010C94A1010C943A23DD
:100060000C94A1010C944B260C9425260C94A10110
:100070000C94A1010C94A1010C94A1010C94A10178
:100080000C94A1010C94A1010C94A1010C94A10168
:100090000C941B220C94A1010C94A1010C94A101BD
:1000A0000C94A1010C94A1010C94A10141542B4387
:1000B00053510D0A001F1C1F1E1F1E1F1F1E1F1E37
:1000C0001F080B00020202000009040000010202E6
:1000D000000005240010010524010101042402068A
:1000E00005240600010705810310004009040100F2
:1000F000020A000000070502024000000705830213
:100100004000000403090412010002EF0201404F05
:100110001B0692000101020301537061726B467568
:100120006E00537061726B46756E2050726F204D79
:100130006963726F0041542B435245473D310D0AAC
:100140000041542B43545A523D310D0A0041542B67
:1001500043545A553D310D0A0041545A300D004167
:100160005426460D0041542B4950523D313932300E
:10017000300D0A0041542B4346554E3D310D0A00C7
:1001800041542B4346554E3D300D0A004500450075
:10019000450000000000240027002A002D00300048
:1001A00000000000250028002B002E003100000078
:1001B00000002300260029002C002F000404040462
:1001C00004030405020202020403020202020606FC
:1001D00006060606040402020204040408020110D2
:1001E0004080401020408040800802040180402070
:1001F0001002011080102040402000000002000981
:100200000F0000030401000C0000000000000000CB
:10021000000000000000000041542B434C49503DB9
:10022000310D0A0041542B4347534E0D0A004154EF
:10023000480D0A003B0D0A004154440041542B4331
:100240004855500D0A0041542657300D0041542B9B
:10025000434C49503D310D0A0041542B4347455210
:1002600045503D300D0A00415445300D0A0061747F
:100270002B717572636366673D22757263706F726E
:1002800074222C227561727431220D0A0041542BA4
:10029000434E4D493D312C322C302C302C300D0A40
:1002A0000041542B434C49503D310D0A0041542B21
:1002B000434D47463D310D0A0041542B43524547BB
:1002C0003D310D0A003B2657300D0A0041542B43A7
:1002D0004E4D503D00220D0041542B434D47533DA0
:1002E000220041542B43434C4B3F0D0A00007D2616
:1002F000393011241FBECFEFDAE0DEBFCDBF26E0DC
:10030000AEE0B3E001C01D92A138B207E1F713E0FF
:10031000A0E0B1E0E8EBFCE602C005900D92AE3043
:10032000B107D9F711E0C8E7D1E004C02197FE0179
:100330000E945A31C737D107C9F70E9434270C945D
:100340004F360C9400008091220490912304891B65
:10035000990B0895FC0180910C04882311F13FB79B
:10036000F89482E08093E9002091F200822F90E0DF
:100370001816190614F481E090E0882339F02898C3
:1003800044E640930B044091F1004083222339F06E
:100390002091F200211103C02BE62093E8003FBF1B
:1003A00008958FEF9FEF08952FB7F89483E080931F
:1003B000E9009091E800892F807295FF04C0909128
:1003C000F20080E4891B2FBF08952091E603260FD9
:1003D0003327331F21323105ECF420916A04FC01EC
:1003E00090E080E0243069F082E00895A091E60377
:1003F0002191AC014C535C4FA40FB52FB11D2C9330
:100400000196861798F38091E603680F6093E603E0
:1004100080E0089581E00895089508950895E09199
:10042000230480912204E81730F4F0E0EC5DFB4FE8
:10043000808190E008958FEF9FEF089590912304BD
:10044000809122042FEF3FEF981748F4E92FF0E056
:10045000EC5DFB4F208130E09F5F90932304C90146
:100460000895CF92DF92EF92FF920F931F93CF9355
:10047000DF937C01CB018A0120917004222389F053
:10048000EB016B01C40ED51ECC15DD0569F0699139
:10049000D701ED91FC910190F081E02DC701099504
:1004A000F3CF642F0E94E501C801DF91CF911F9126
:1004B0000F91FF90EF90DF90CF900895CF93DF934F
:1004C0001F92CDB7DEB76983209170042223F9F023
:1004D00020919304203258F021E030E0FC01338376
:1004E000228390E080E00F90DF91CF91089580917A
:1004F0007104E82FF0E0EE58FB4F998190838F5FF5
:10050000809371048093930481E090E0ECCF61E0EC
:10051000CE0101960E94E501F7CF682F84E994E0AF
:100520000C945E028091BB0381110DC082E0809328
:10053000B70384E08093B8031092BA031092B90312
:1005400081E08093BB0387EB93E0089581508F3067
:1005500008F047C0E82FF0E0E055FD4F0C945A3109
:10056000CD02D102BF02C502C902F102F102F102BD
:10057000D402DA02DE02E202E802F102EC02809129
:1005800080008F77809380000895809180008F7D18
:10059000F9CF80918000877FF5CF84B58F7784BDB8
:1005A000089584B58F7DFBCF809190008F778093E5
:1005B00090000895809190008F7DF9CF80919000F8
:1005C000877FF5CF8091C0008F778093C00008951A
:1005D0008091C0008F7DF9CF8091C200877F80938A
:1005E000C2000895CF93DF93282F30E0F901E65041
:1005F000FE4F8491F901E552FE4FD491F901E45484
:10060000FE4FC491CC23A1F081110E94A602EC2FD1
:10061000F0E0EE0FFF1FE255FE4FA591B491EC9173
:10062000ED2381E090E009F480E0DF91CF9108951F
:1006300080E090E0FACF1F93CF93DF93282F30E034
:10064000F901E650FE4F8491F901E552FE4FD49135
:10065000F901E454FE4FC491CC23A9F0162F811167
:100660000E94A602EC2FF0E0EE0FFF1FE056FE4FB7
:10067000A591B4918FB7F894EC91111108C0D09561
:10068000DE23DC938FBFDF91CF911F910895DE2B86
:10069000F8CF10926A0481E08093690410924404B8
:1006A00061E082E00E941B0361E083E00E941B0383
:1006B000E9EBF0E080818E7F808380818D7F808375
:1006C00088E48093B80085E48093BC000895CF93BC
:1006D000DF9391E09093C3038823B9F0C091B800F1
:1006E000D091BA008091BC008A7B8093BC0060E00E
:1006F00082E00E941B0360E083E00E941B030E94D3
:100700004903D093BA00C093B800DF91CF91089508
:10071000CF93DF9390E0FC01E552FE4F2491845487
:100720009E4FFC0184918823C9F090E0880F991FA7
:10073000FC01EE56FE4FA591B491FC01E056FE4F30
:10074000C591D49161110DC09FB7F8948C912095FB
:1007500082238C938881282328839FBFDF91CF91A8
:100760000895623051F49FB7F8943C91822F8095A0
:1007700083238C93E8812E2BEFCF8FB7F894EC91E5
:100780002E2B2C938FBFEACF3FB7F8948091B30301
:100790009091B403A091B503B091B60326B5A89B80
:1007A00005C02F3F19F00196A11DB11D3FBFBA2F03
:1007B000A92F982F8827BC01CD01620F711D811DC3
:1007C000911D42E0660F771F881F991F4A95D1F748
:1007D00008958F929F92AF92BF92CF92DF92EF9245
:1007E000FF920F931F93CF93DF93D0919304D13255
:1007F00008F0D7C0182FC09192040E94C4036B0167
:100800007C0180916A0481116BC082E080936A044C
:10081000109369048FEF8093680410926704D0935B
:100820006604A2E7B4E0E6E4F4E080E0D81391C007
:100830001092450480914504CC0FC82BC093450409
:1008400080914404813009F088C0109244040E94D1
:10085000C4036B017C01809145048093BB008091AF
:100860006C0490916D04A0916E04B0916F04892B7B
:100870008A2B8B2BA1F00E94C40300916C04109171
:100880006D0420916E0430916F046C197D098E09FE
:100890009F09061717072807390708F442C08091F7
:1008A000BC0083FDD8CF85EC8093BC000E94C403BC
:1008B0006B017C0180916A04823009F450C0809100
:1008C00068048F3F09F46FC080916804803209F496
:1008D0006CC080916804803309F469C084E026C04C
:1008E00080916C0490916D04A0916E04B0916F049E
:1008F000892B8A2B8B2B09F484CF0E94C403809010
:100900006C0490906D04A0906E04B0906F046C190C
:100910007D098E099F0986169706A806B90608F074
:1009200070CF80916B040E94670385E01092710480
:100930001092930410927004DF91CF911F910F9148
:10094000FF90EF90DF90CF90BF90AF909F908F90EF
:1009500008959D9191938F5F69CF85EEA5CF80918A
:100960006C0490916D04A0916E04B0916F04892B7A
:100970008A2B8B2B09F49ECF0E94C40300916C0438
:1009800010916D0420916E0430916F046C197D09F3
:100990008E099F09061717072807390708F08ACF1D
:1009A000C0CF81E0C3CF80E0C1CF82E0BFCF83E082
:1009B000BDCF8F929F92AF92BF92CF92DF92EF9274
:1009C000FF926B017C010E94C4034B015C01C114C6
:1009D000D104E104F104B9F00E94C4036819790953
:1009E0008A099B09683E73408105910580F321E0E7
:1009F000C21AD108E108F10888EE880E83E0981E3B
:100A0000A11CB11CE4CFFF90EF90DF90CF90BF907E
:100A1000AF909F908F9008951F93CF93DF93EC0139
:100A2000162F81E08093700480E5809392041092E9
:100A30007104109293048D2F90E00E948D02CE01DC
:100A400099270E948D02612F84E994E00E945E0242
:100A500081E00E94E90364E170E080E090E0DF91D2
:100A6000CF911F910C94D9042FB7F8946091AF03E4
:100A70007091B0038091B1039091B2032FBF08959C
:100A80000F931F93CF93DF93EC01092E000CAA0B59
:100A9000BB0B8093BE059093BF05A093C005B09398
:100AA000C1050E943405AB01BC018091C505909140
:100AB000C605A091C705B091C8058A019B01081B16
:100AC000190B2A0B3B0B8091BE059091BF05A0919D
:100AD000C005B091C105081719072A073B0758F14F
:100AE0008091BC05811124C081E08093BC05C43F86
:100AF00081E0D8075CF0CE01845F9140092E000CA4
:100B0000AA0BBB0B481B590B6A0B7B0B4093C5050B
:100B10005093C6056093C7057093C8056091BC05E6
:100B20008091BA05DF91CF911F910F910C941B0317
:100B30001092BC05EBCFDF91CF911F910F910895DB
:100B4000089540911C0350911D0320911A03309188
:100B50001B0342175307B4F49091E8009570E1F33A
:100B60009091E80092FD19C08093F10080911C03E0
:100B700090911D0301968F739927892B19F48EEF9D
:100B80008093E80080911C0390911D03019690933F
:100B90001D0380931C0381E0089580E00895EF9287
:100BA000FF920F931F93CF93DF93F82E192FE62E0A
:100BB000042F81E0860F880F0E94A10583E00E9428
:100BC000A105CF2DD12FEC0EFD2EF11CCE15DF058A
:100BD000B9F007FF13C0FE0184910E94A105182FF0
:100BE00080E00E94A105812321968111EFCFDF9142
:100BF000CF911F910F91FF90EF9008958881EDCFD5
:100C000081E0F5CFDF92EF92FF920F931F93CF9386
:100C1000DF93D82E8A01EB017B01E40EF51ECE1581
:100C2000DF0559F0D7FE12C0FE0184910E94A10594
:100C300021968111F4CF0FEF1FEFC801DF91CF9103
:100C40001F910F91FF90EF90DF9008958881EECF74
:100C50000F931F93CF93DF931F92CDB7DEB782E040
:100C6000898342E450E061EC70E080E80E94020673
:100C70000E949202DC0112960D911C910115110542
:100C800089F0D801ED91FC910280F381E02DBE0145
:100C90006F5F7F4FC801099597FD04C0F80100857B
:100CA0001185ECCF89810F90DF91CF911F910F912A
:100CB0000895615030F02091F100FC0120830196ED
:100CC000F8CF289884E680930B0408950F931F9320
:100CD000CF93DF93EC010E943405688779878A8778
:100CE0009B87E881F9810284F385E02DCE01099587
:100CF00097FF15C00E943405088519852A853B8514
:100D0000601B710B820B930B0C811D812E813F8127
:100D1000601771078207930720F38FEF9FEFDF9132
:100D2000CF911F910F910895DB0114964D915C9125
:100D300015976D917C91DC01ED91FC910280F3811E
:100D4000E02D0994EF92FF920F931F93CF93DF93BF
:100D50008C017B01D0E0C0E0F701EC0FFD1F649136
:100D6000662361F0D801ED91FC910190F081E02DB6
:100D7000C8010995892B11F02196EECFCE01DF91A4
:100D8000CF911F910F91FF90EF9008956CE372E067
:100D900080EA94E00C94A206AF92BF92CF92DF92C9
:100DA000EF92FF920F931F93CF93DF936C017B0120
:100DB0008B01040F151FEB015E01AE18BF08C017B1
:100DC000D10759F06991D601ED91FC910190F08124
:100DD000E02DC6010995892B79F7C501DF91CF91E7
:100DE0001F910F91FF90EF90DF90CF90BF90AF9049
:100DF000089590E080E00895FC01538D448D252FE7
:100E000030E0842F90E0821B930B541710F0CF96A4
:100E1000089501970895FC01918D828D981761F0D6
:100E2000A28DAE0FBF2FB11D5D968C91928D9F5FED
:100E30009F73928F90E008958FEF9FEF0895FC01CC
:100E4000918D828D981731F0828DE80FF11D858D7F
:100E500090E008958FEF9FEF0895FC01918D228D12
:100E6000892F90E0805C9F4F821B91098F73992797
:100E7000089580EA94E00E942D0721E0892B09F46F
:100E800020E0822F089580E090E0892B29F00E94D5
:100E9000390781110C9400000895FC01A48DA80F5E
:100EA000B92FB11DA35ABF4F2C91848D90E00196AC
:100EB0008F739927848FA689B7892C93A089B189CC
:100EC0008C9182748C93938D848D981306C00288C4
:100ED000F389E02D80818F7D80830895EF92FF92CA
:100EE0000F931F93CF93DF93EC0181E0888F9B8D4D
:100EF0008C8D981319C0E889F989808185FF14C009
:100F00009FB7F894EE89FF896083E889F989808129
:100F1000827480839FBF81E090E0DF91CF911F9129
:100F20000F91FF90EF900895F62E0B8D10E00F5F5C
:100F30001F4F0F731127E02E8C8D8E110CC00FB632
:100F400007FCFACFE889F989808185FFF5CFCE01CA
:100F50000E944D07F1CFEB8DEC0FFD2FF11DE35AF1
:100F6000FF4FF0829FB7F8940B8FEA89FB8980814D
:100F70008062CFCFCF93DF93EC01888D8823B9F0C7
:100F8000AA89BB89E889F9898C9185FD03C0808194
:100F900086FD0DC00FB607FCF7CF8C9185FFF2CF11
:100FA000808185FFEDCFCE010E944D07E9CFDF9113
:100FB000CF9108958F929F92AF92BF92CF92DF927E
:100FC000EF92FF920F931F93CF93DF936C017B01FE
:100FD0008A0180910B01882309F45CC080910C0484
:100FE000882309F457C08091200380FF05C08091B9
:100FF000E00082608093E000E801B12C8AEFA82E27
:1010000093E0892E2AE3922E209711F4BB20D9F188
:101010000E94D40181110AC0AA94AA20D9F161E0EA
:1010200070E080E090E00E94D904EECF8C171D069E
:1010300011F00CF08C2F9FB7F8948092E90020916A
:10104000E80025FD02C09FBFDFCF282F30E0C21B84
:10105000D30BF701815020F041914093F100FACF7A
:10106000E20EF31EBB2021F09092E800B12CEBCFF2
:101070008091E80085FDE7CF9092E800BB24B3940F
:10108000209709F3F3CF5D9884E680931F03101631
:1010900011063CF081E090E0F6019383828310E03A
:1010A00000E0C801DF91CF911F910F91FF90EF9069
:1010B000DF90CF90BF90AF909F908F900895CF9387
:1010C000DF931F92CDB7DEB76983DC01ED91FC9110
:1010D0000280F381E02D41E050E0BE016F5F7F4F61
:1010E00009950F90DF91CF91089583E08093E900F7
:1010F0008091F200882319F08AE38093E800089534
:101100000E94D40190E00895CF93DF931F92CDB752
:10111000DEB7FC018485958597FD08C02FEF3FEF72
:10112000358724870F90DF91CF910895CE010196E6
:101130000E94AA01019719F4898190E0F3CF8FEF03
:101140009FEFF0CF0F931F93CF93DF931F92CDB7F5
:10115000DEB78C01FC018485958597FF0BC0CE011D
:1011600001960E94AA01019771F4898190E0F8012B
:1011700095878487F801848595850F90DF91CF91BD
:101180001F910F9108958FEF9FEFF1CFFC018485A0
:10119000958597FD0BC09FB7F89482E08093E90096
:1011A0008091F2009FBF90E0019608959FB7F89458
:1011B00082E08093E9008091F2009FBF90E0089563
:1011C00060E0FC0180810C941B0361E0FC018081E4
:1011D0000C941B03EF92FF920F931F93CF93DF9317
:1011E000EC01CB01072E000CAA0BBB0B8C839D835B
:1011F000AE83BF83598748878B81882339F18B0160
:10120000F12CE12C61E088810E941B0368857985BF
:1012100090E080E00E94D90460E088810E941B0376
:101220006885798590E080E00E94D9048FEFE81A04
:10123000F80A0E151F0531F760E08881DF91CF9124
:101240001F910F91FF90EF900C941B03DF91CF91B2
:101250001F910F91FF90EF90089548EC50E064E0EB
:1012600070E08AEB95E00C94EA088F929F92AF921F
:10127000BF92CF92DF92EF92FF92CF93DF93EC0178
:101280006A017B0180E8C81A83E4D80A8DE6E80A7F
:1012900088E3F80A8CE3882E912CA12CB12CC7018D
:1012A000B601A50194010E9438316D83CA01B901CC
:1012B000A50194010E9438316C83C701B60120E179
:1012C0003EE040E050E00E943831CA01B90128E117
:1012D00030E040E050E00E9438316B83C701B60136
:1012E00020E831E541E050E00E943831188263E99E
:1012F0007EEF4881542F537081E009F080E090E048
:10130000FC01E359FE4F2E173F0740F0FB01E81B9D
:10131000F90B2E0F3F1F4F5F4883EBCF81E089838E
:101320008981682F6150770BFB01EB54FF4FE491EB
:10133000511103C0823009F4EF5FF0E02E173F0730
:1013400020F02E1B3F0B8F5FEACF2F5F2A83DF91A8
:10135000CF91FF90EF90DF90CF90BF90AF909F9094
:101360008F900895CF93DF93EC010E94340528EE0F
:1013700033E040E050E00E943831809116039091B4
:101380001703A0911803B0911903BA01A901480FDE
:10139000591F6A1F7B1FCE010E943509CE01DF91C4
:1013A000CF910895DC0150E0E5EBF0E081E0861795
:1013B00030F49491490F511D8F5F3196F8CF63300F
:1013C00038F0CD0183709927892B11F44F5F5F4F5F
:1013D0009D012D5F3F4F36952795369527956DE6F4
:1013E00071E0A69FC001A79F900DB69F900D11249C
:1013F0000197820F931F840F951F0895EF92FF921C
:101400000F931F93CF93DF93EC0188814A81698109
:1014100090E00E94D2099C01A8E1B0E00E94153141
:101420002B817B018C01E20EF11C011D111DA80115
:101430009701ACE3B0E00E94D3302C817B018C019A
:10144000E20EF11C011D111DA80197010E94D3306D
:101450002D81620F711D811D911D60587C4B824949
:10146000974CDF91CF911F910F91FF90EF900895CE
:10147000CF92DF92EF92FF920E94FE096B017C01F6
:101480000E94340528EE33E040E050E00E943831FD
:10149000C21AD30AE40AF50AC0921603D0921703BF
:1014A000E0921803F0921903FF90EF90DF90CF9035
:1014B0000895FC0180814281618190E00E94D209FF
:1014C000069667E070E00E9424310895CF92DF9283
:1014D000EF92FF920F931F93CF93DF93EC0181E084
:1014E0008093700480E580939204109271041092AE
:1014F00093048D2F90E00E948D02CE0199270E94C7
:101500008D0281E00E94E9030E94C4036B017C010B
:1015100080916A04811163C081E080936A048093A2
:1015200069049FEF90936804109267041092660418
:101530008093450480914504806A8093450480919E
:101540004404813009F084C0109244040E94C40312
:101550006B017C01809145048093BB0080916C04F9
:1015600090916D04A0916E04B0916F04892B8A2B29
:101570008B2BA1F00E94C40300916C0410916D04A8
:1015800020916E0430916F046C197D098E099F09BA
:10159000061717072807390708F442C08091BC00D6
:1015A00083FDD8CF85EC8093BC000E94C4036B01FF
:1015B0007C0180916A04813009F44CC080916704F9
:1015C00081116AC080916704E6E4F4E0A4E2B4E02B
:1015D00090E0981751F121912D939F5FFACF809160
:1015E0006C0490916D04A0916E04B0916F04892BEE
:1015F0008A2B8B2B09F48CCF0E94C40300916C04BE
:1016000010916D0420916E0430916F046C197D0966
:101610008E099F09061717072807390708F078CFA2
:1016200080916B040E94670380E0109223048093F2
:101630002204882399F184E994E00E941E02DF913C
:10164000CF911F910F91FF90EF90DF90CF90089571
:1016500085EEA9CF80916C0490916D04A0916E04E9
:10166000B0916F04892B8A2B8B2B09F4A2CF0E9497
:10167000C40300916C0410916D0420916E043091AC
:101680006F046C197D098E099F0906171707280733
:10169000390708F08ECFC4CF81E096CF8FEFCFCF40
:1016A000EF92FF920F931F93CF93DF93E090C905C2
:1016B000F090CA05813429F1C6E0D0E0853411F0FC
:1016C000C1E0D0E087E08C9F80018D9F100D112438
:1016D000EC16FD06D4F0C8010797801791076CF44B
:1016E0000E94660A811109C0C801069780179107F8
:1016F00024F40E94660A882351F02196095F1F4F47
:10170000E7CF85E0E82EF12CDBCFD0E0C0E0CE01C2
:10171000DF91CF911F910F91FF90EF900895DF928D
:10172000EF92FF920F931F93CF93DF938C017B0176
:10173000D0E0C0E087E0D82E2091C9053091CA05DD
:10174000D29EC001D39E900D11248C179D078CF062
:10175000CE010E94660A882351F0F801CD31D105EF
:101760000CF0F70180819181019691838083279607
:10177000E3CFDF91CF911F910F91FF90EF90DF901A
:101780000895CF92DF92EF92FF920F931F93CF9322
:10179000DF937B01009741F18C0182E0C82ED12CB0
:1017A00082E090E00E947831EC011882A601B80135
:1017B0000E945A331A82CE010E944130682FC7011D
:1017C0000E940C05209719F0CE010E9414320E5F82
:1017D0001F4F82E0C80ED11C8FEFE81AF80A8EE086
:1017E000C816D104E9F60CC0D0E0C0E060E0C70143
:1017F0008C0F9D1F0E940C052196C630D105B1F7B4
:10180000DF91CF911F910F91FF90EF90DF90CF90DC
:101810000895CF93DF93EC0188819981009711F0AF
:101820000E941432198218821D821C821B821A8225
:10183000DF91CF910895FC0180819181009711F093
:101840000C9414320895FB0101900020E9F73197C0
:10185000AF01461B570BDC01ED91FC910280F38137
:10186000E02D0994CF93DF93BC018DE395E00E94B6
:10187000A206EC016BE571E08DE395E00E94230C7C
:101880008C0F9D1FDF91CF9108958F929F92AF9201
:10189000BF92EF92FF920F931F93CF93DF93CDB739
:1018A000DEB7A1970FB6F894DEBF0FBECDBF7C01A7
:1018B000FA01CB0119A2223008F42AE08E010F5D53
:1018C0001F4F822E912CB12CA12CBF01A501940198
:1018D0000E943831F901CA016A300CF5605DD80107
:1018E0006E938D01232B242B252B79F790E080E03C
:1018F000109721F0BD01C7010E94230CA1960FB6DD
:10190000F894DEBF0FBECDBFDF91CF911F910F9135
:10191000FF90EF90BF90AF909F908F900895695C7B
:10192000DECFCF92DF92EF92FF920F931F93CF9370
:10193000DF936B01770FEE08FF08F7FE1FC0EC0185
:10194000E881F9810190F081E02D6DE209958C012B
:1019500044275527BA014C195D096E097F092AE011
:10196000CE010E94450C800F911FDF91CF911F91F6
:101970000F91FF90EF90DF90CF9008952AE0B7018C
:10198000A601DF91CF911F910F91FF90EF90DF9013
:10199000CF900C94450CCF93DF93BC018DE395E081
:1019A0000E94910CEC016BE571E08DE395E00E94E3
:1019B000230C8C0F9D1FDF91CF9108950F931F93E0
:1019C000CF93DF93EC010E9494068C016BE571E0EC
:1019D000CE010E94230C800F911FDF91CF911F91A8
:1019E0000F9108953F924F925F926F927F928F92E4
:1019F0009F92AF92BF92CF92DF92EF92FF920F939E
:101A00001F93CF93DF93EC013B01FC010190002079
:101A1000E9F73197E81BF90BD12CC12C329768F00C
:101A200042E050E06EE571E00E94913331E020E049
:101A3000892B09F030E0C32ED22EB12CA12CEE243C
:101A4000E394F12C2E014C0C5D1C8091C905909102
:101A5000CA0505968E159F050CF461C010E000E0E4
:101A6000302E82E090E00E947831EC01F801EE0F18
:101A7000FF1FE40DF51D80819181998388831A826F
:101A8000CE010E9441304C010115110539F481E06D
:101A9000C816D10419F4E0E58E1A9108C8018A0D20
:101AA0009B1D0E94660A8815190479F5209719F084
:101AB000CE010E94143233940F5F1F4F073011057F
:101AC00079F6F7E0AF0EB11C85E0831520F527E02D
:101AD0002E9DC0012F9D900D112401970E94660A32
:101AE000F3018083C701DF91CF911F910F91FF9088
:101AF000EF90DF90CF90BF90AF909F908F907F90AE
:101B00006F905F904F903F9008952097D1F2CE0153
:101B10000E941432D6CFFFEFEF1AFF0A96CFF12CB6
:101B2000E12CE0CFCF92DF92EF92FF920F931F93C1
:101B3000CF93DF931F92CDB7DEB74983FC010190AD
:101B40000020E9F73197E81BF90BDC01EB30F105D8
:101B500068F4F12CE12CC7010F90DF91CF911F9118
:101B60000F91FF90EF90DF90CF9008952D91022E6E
:101B7000000C330B205331092A30310550F79D01F9
:101B8000281B390B2E173F0788F3F62E8C01BE0158
:101B90006F5F7F4F0E94F20C892BD9F68F2D0E9428
:101BA000500B7C0118161906A4F6019727E0289F10
:101BB0006001299FD00C1124B601C8010E94C10BFD
:101BC0006981C60106960E940C05C5CFCF92DF92AF
:101BD000EF92FF920F931F93CF93DF931F92CDB796
:101BE000DEB71982BE016F5F7F4F0E94F20C7C014D
:101BF000019727E0289F6001299FD00C112410E055
:101C000000E060E0C8018C0D9D1D0E940C050F5F77
:101C10001F4F07301105A9F7C7010F90DF91CF9132
:101C20001F910F91FF90EF90DF90CF90089560E1AA
:101C300071E08091190490911A040E94F20C0097AF
:101C400031F480916203813051F482E008959C0167
:101C5000215031092530310520F00697B4F780E096
:101C6000089581E0089546E050E063E673E08091D6
:101C70001704909118040E94913321E0892B09F0F8
:101C800020E0822F089585ED8093BC0080916C0444
:101C900090916D04A0916E04B0916F040796A11D00
:101CA000B11D23E0B695A795979587952A95D1F70D
:101CB0002091BC0024FD03C010926A040895409155
:101CC0006C0450916D0460916E0470916F04452B0B
:101CD000462B472B69F30097A105B10541F025E399
:101CE0002A95F1F700000197A109B109E1CF809190
:101CF0006B040C9467030F931F93CF93DF938C01B6
:101D0000EB010E94BD308883C80101960E94BD305E
:101D10008983CE01DF91CF911F910F910895CF93C9
:101D2000DF93EB010E94BD308883CE01DF91CF911C
:101D30000895CF93DF93EB010E94BD308883CE01DD
:101D4000DF91CF9108950F931F93CF93DF9303E615
:101D500013E0D0E0C0E0CE010E94BD30F8018193D5
:101D60008F012196C730D105B1F78AE090E00E943B
:101D7000BD3080931E048BE090E00E94BD308093C4
:101D80001F048CE090E00E94BD30809320048DE021
:101D900090E00E94BD308093210462E673E086E407
:101DA00090E00E948F0E60E673E088E290E00E946F
:101DB000990E6EE473E08BE290E00E94990E6FE55D
:101DC00073E082E390E00E94990E6EE573E084E395
:101DD00090E00E948F0E69E573E086E390E00E9438
:101DE0007B0E61E673E08CE390E00E94990E6CE557
:101DF00073E08EE390E00E947B0E67E573E08AE477
:101E000090E00E947B0E6BE273E08CE490E00E9415
:101E1000990E6AEA73E08EE490E00E947B0E64E122
:101E200073E08AE590E00E947B0E62E173E084E655
:101E300090E00E947B0E60E173E08EE690E00E94ED
:101E40007B0E6FE073E088EC90E00E94990ED0E08A
:101E5000C0E0BE01665C7C4F8CED90E00E947B0E82
:101E6000BE01645D7C4F8EED90E00E947B0E229659
:101E7000CE30D10571F7DF91CF911F910F91089569
:101E8000FF920F931F93CF93DF93EC01F62E0881FF
:101E90001981C8010E94BD30F81621F06F2DC801CC
:101EA0000E94C530CE01DF91CF911F910F91FF901D
:101EB0000895EF92FF920F931F93CF93DF9300D07B
:101EC000CDB7DEB78EE1E82E84E0F82E0AE010E010
:101ED0001A830983F70161917F01CE0101960E9467
:101EE000400F0F5F1F4F0E30110591F78EE194E008
:101EF0000F900F90DF91CF911F910F91FF90EF9076
:101F00000895CF92DF92EF92FF920F931F93CF939A
:101F1000DF9300D0CDB7DEB76C017C0110E000E0AC
:101F20001A830983F70161917F01CE0101960E9416
:101F3000400F0F5F1F4F0730110591F7C6010F903B
:101F40000F90DF91CF911F910F91FF90EF90DF9055
:101F5000CF900895EF92FF920F931F93CF93DF934B
:101F600000D0CDB7DEB78C017B019A838983FB015A
:101F70006081CE0101960E94400F0F5F1F4F1A83B0
:101F80000983F7016181CE0101960E94400FC701CC
:101F90000F900F90DF91CF911F910F91FF90EF90D5
:101FA00008959F92AF92BF92CF92DF92EF92FF92ED
:101FB0000F931F93CF93DF9300D0CDB7DEB76C01A3
:101FC000B62E7A011A821982BE016F5F7F4F80E5BB
:101FD00090E00E947B0E89819A818C5E9A4F2DE061
:101FE000289F8001299F100D1124B801C6010E946D
:101FF000C10BF701A0809180C380D4806281C801A9
:1020000007960E940C05692DC80108960E940C05D0
:102010006A2DC80109960E940C056C2DC8010A960C
:102020000E940C056D2DC8010B960E940C056B2DAE
:10203000C8010C960E940C0589819A810196843F03
:10204000F1E09F07B9F09A838983BE016F5F7F4FEC
:1020500080E590E00E94AA0F0F900F90DF91CF9142
:102060001F910F91FF90EF90DF90CF90BF90AF90B6
:102070009F9008951A821982E8CFFF920F931F93C1
:10208000CF93DF93CDB7DEB72C970FB6F894DEBFB2
:102090000FBECDBF8C01F62ECE0107960E94B2096D
:1020A0008F81898388858A8389858B838A858C83C0
:1020B0008B858D838C858E83AE014F5F5F4F6F2D37
:1020C000C8010E94D10FBE016F5F7F4F80E590E095
:1020D0000E947B0E89819A810E94CB0C2C960FB6B0
:1020E000F894DEBF0FBECDBFDF91CF911F910F914E
:1020F000FF9008950F931F93CF93DF9300D0CDB738
:10210000DEB78B019A838983FB016081CE01019642
:102110000E94400FC8010F900F90DF91CF911F9147
:102120000F9108950F931F93CF93DF9300D0CDB7F6
:10213000DEB78B019A838983FB016081CE01019612
:102140000E94400FC8010F900F90DF91CF911F9117
:102150000F9108950F931F93CF93DF93CDB7DEB701
:102160002B970FB6F894DEBF0FBECDBF8AEB95E07C
:102170000E94E50810E000E08091C9059091CA0531
:1021800023E0880F991F2A95E1F7081719073CF4F7
:1021900060E0C8010E940C050F5F1F4FEDCF04E007
:1021A00012E460E0C8010E940C050F5F1F4F0C3C59
:1021B0008BE51807B1F710E000E01A83098360E0AF
:1021C000CE0101960E94400F0F5F1F4F011582E064
:1021D000180799F787E0E1E6F1E0DE01119601903A
:1021E0000D928A95E1F7CE0101960E94810F82E05F
:1021F00080931E0480931F04809320048093210405
:102200000E94590F19861886BE01685F7F4F86E4C9
:1022100090E00E94AA0F11E01887BE01685F7F4F0F
:1022200088E290E00E947A101A87BE01665F7F4FB5
:102230008BE290E00E947A101B87BE01655F7F4FA2
:102240008CE390E00E947A1010922B036BE273E013
:102250008CE490E00E947A1088E190E09093AB03C8
:102260008093AA036AEA73E08EE490E00E94AA0FCA
:1022700002E310E0109315030093140364E173E08C
:102280008AE590E00E94AA0F1093130300931203B3
:1022900062E173E084E690E00E94AA0F10931103BC
:1022A0000093100360E173E08EE690E00E94AA0FB5
:1022B0000E942D0961E08EE290E00E94C5308EE020
:1022C00090E0909358038093570367E573E08AE4A6
:1022D00090E00E94AA0F88E19EE00FB6F894A895BE
:1022E000809360000FBE9093600060ED77E080E027
:1022F00090E00E94D9042B960FB6F894DEBF0FBE73
:10230000CDBFDF91CF911F910F9108950F931F9330
:10231000CF93DF938C01EB01FC01808191810097C9
:10232000E1F06881798161157105A9F042815381DD
:102330002C813D814217530770F00E948A338C81B3
:102340009D81F801958384831D821C82DF91CF914A
:102350001F910F9108950E94143288819981F8018C
:10236000918380838A819B81938382838C819D81E9
:1023700095838483198218821B821A82E5CF0F937A
:102380001F93CF93DF93EC0188819981009759F0D7
:102390002A813B812617370730F081E0DF91CF910A
:1023A0001F910F9108958B016F5F7F4F0E949D32A7
:1023B000009759F0998388831B830A832C813D8180
:1023C000232B59F7FC011082E8CF80E0E7CFEF9292
:1023D000FF920F931F93CF93DF936115710541F423
:1023E00080E0DF91CF911F910F91FF90EF900895C2
:1023F00041155105B1F07B01EC010C811D81040FE9
:10240000151FB8010E94BF11882351F3288139811B
:102410008C819D81B701820F931F0E948A331D8397
:102420000C8381E0DECFCF93DF9300D0CDB7DEB752
:1024300069831A8241E050E0BE016F5F7F4F0E94C6
:10244000E7110F900F90DF91CF910895FB0101905C
:102450000020E9F73197AF01461B570B0C94E711A9
:10246000FB0144815581608171810C94E711EF92E9
:10247000FF920F931F93CF93DF93EC017B018A01AF
:10248000BA010E94BF1181110BC0CE010E94090C3C
:10249000CE01DF91CF911F910F91FF90EF900895A2
:1024A0001D830C83B701888199810E948A33F0CF04
:1024B000FB0101900020E9F73197AF01461B570B54
:1024C0000C9437120F931F93CF93DF93CDB7DEB7E2
:1024D00029970FB6F894DEBF0FBECDBF8C01862FB3
:1024E000F8011182108213821282158214824AE04E
:1024F000BE016F5F7F4F90E00E949330BE016F5F1F
:102500007F4FC8010E94581229960FB6F894DEBF7B
:102510000FBECDBFDF91CF911F910F910895CF9343
:10252000DF93EC01FB018617970749F06081718109
:102530006115710541F0448155810E943712CE0129
:10254000DF91CF9108950E94090CF9CFFC0111820F
:10255000108213821282158214820C948F12FC0155
:102560001182108213821282158214826115710504
:1025700051F0FB0101900020E9F73197AF01461BB4
:10258000570B0C94371208950F931F93CF93DF933B
:10259000EC018B016DE571E00E94AF12C8010E9451
:1025A000660697FD05C0682FCE010E941312F6CF74
:1025B000CE01DF91CF911F910F910895CF93DF93BB
:1025C00000D000D000D0CDB7DEB760EA74E0CE0115
:1025D00001960E94C412CE0101960E941B0C64E673
:1025E00070E080E090E00E94D90462EE72E080EA40
:1025F00094E00E94A20626960FB6F894DEBF0FBEA6
:10260000CDBFDF91CF910895EF92FF920F931F936B
:10261000CF93DF9300D000D000D0CDB7DEB77C01E0
:102620008B0160EA74E0CE0101960E94C412CE01D3
:1026300001960E941B0C64E670E080E090E00E942E
:10264000D90468ED72E080EA94E00E94A206B70126
:1026500080EA94E00E94940665ED72E080EA94E0DE
:102660000E94A20668EC70E080E090E00E94D9042D
:10267000B80180EA94E00E94DE0C68EE73E080E02E
:1026800090E00E94D9046AE180EA94E00E946E071B
:1026900064EF71E080E090E00E94D90460EA74E0A9
:1026A000CE0101960E94C412CE0101960E941B0C1D
:1026B00060EA74E0CE0101960E94C412CE01019638
:1026C0000E941B0C26960FB6F894DEBF0FBECDBF3E
:1026D000DF91CF911F910F91FF90EF9008950F938D
:1026E0001F93CF93DF9300D000D000D0CDB7DEB7DB
:1026F0008C016CEC72E080EA94E00E94A206B801C2
:1027000080EA94E00E94910C65EC72E080EA94E02B
:102710000E94A20668EE73E080E090E00E94D90477
:102720006DE375E0CE0101960E94C412CE010196C0
:102730000E941B0C26960FB6F894DEBF0FBECDBFCD
:10274000DF91CF911F910F910895CF93DF9300D028
:1027500000D000D0CDB7DEB78091CE059091CF05E7
:102760000E946F1360EA74E0CE0101960E94C412C9
:10277000CE0101960E941B0C69EB72E080EA94E0A6
:102780000E94A20664EF71E080E090E00E94D9040C
:1027900060EA74E0CE0101960E94C412CE01019657
:1027A0000E941B0C6DEA72E080EA94E00E94A2068F
:1027B00064EF71E080E090E00E94D90460EA74E088
:1027C000CE0101960E94C412CE0101960E941B0CFC
:1027D00061EA72E080EA94E00E94A20664EF71E090
:1027E00080E090E00E94D90460EA74E0CE01019696
:1027F0000E94C412CE0101960E941B0C6DE872E08B
:1028000080EA94E00E94A20664EF71E080E090E02C
:102810000E94D90460EA74E0CE0101960E94C412BD
:10282000CE0101960E941B0C6EE672E080EA94E0F5
:102830000E94A20664EF71E080E090E00E94D9045B
:1028400060EA74E0CE0101960E94C412CE010196A6
:102850000E941B0C67E672E080EA94E00E94A206E8
:1028600064EF71E080E090E00E94D90460EA74E0D7
:10287000CE0101960E94C412CE0101960E941B0C4B
:1028800069E572E080EA94E00E94A20664EF71E0DC
:1028900080E090E00E94D90460EA74E0CE010196E5
:1028A0000E94C412CE0101960E941B0C6DE472E0DE
:1028B00080EA94E00E94A20664E670E080E090E086
:1028C0000E94D90460EA74E0CE0101960E94C4120D
:1028D000CE0101960E941B0C66E472E080EA94E04F
:1028E0000E94A20626960FB6F894DEBF0FBECDBF9B
:1028F000DF91CF9108950F931F93CF93DF9300D073
:1029000000D000D0CDB7DEB78C0160EA74E0CE0114
:1029100001960E94C412CE0101960E941B0C64E62F
:1029200070E080E090E00E94D90468E372E080EA01
:1029300094E00E94A206B80180EA94E00E94940606
:1029400064E372E080EA94E00E94A20668E873E122
:1029500080E090E00E94D9046EE272E080EA94E0A8
:102960000E94A20668EE73E080E090E00E94D90425
:1029700060EA74E0CE0101960E94C412CE01019675
:102980000E941B0C26960FB6F894DEBF0FBECDBF7B
:10299000DF91CF911F910F910895EF92FF920F93C6
:1029A0001F93CF93DF9300D000D000D0CDB7DEB718
:1029B0008C0160EA74E0CE0101960E94C412CE013F
:1029C00001960E941B0C64E670E080E090E00E949B
:1029D000D90464E272E080EA94E00E94A20668EE04
:1029E00073E080E090E00E94D904FF24F39487E232
:1029F000E82E80EA94E00E942D072091D805181651
:102A0000190664F521112AC080EA94E00E940B07A0
:102A100090911D049923E9F090911C04292F30E036
:102A200025533A4F22583F4FF9018A3051F08083A5
:102A30009F5F983218F0E0921C04DBCF90931C0447
:102A4000D8CF108210921D0410921C04F092D80569
:102A5000D0CF883371F6F0921D04CBCF6BE572E0D6
:102A6000222321F01092D80569E476E0C8010E9483
:102A7000AF12C80126960FB6F894DEBF0FBECDBFC9
:102A8000DF91CF911F910F91FF90EF9008954F929A
:102A90005F926F927F928F929F92AF92BF92CF92EE
:102AA000DF92EF92FF920F931F93CF93DF9300D0AB
:102AB00000D000D0CDB7DEB710921A0410921904DE
:102AC0001092180410921704109216041092150414
:102AD0001092140410921304109212041092110414
:102AE0001092100410920F0410920E0410920D0414
:102AF000DC01ED91FC91908190931B04943579F069
:102B0000913509F096C032E0532E892F8D7F89349C
:102B100021F09B7F913509F05FC000E003C008E021
:102B200023E0522E67EE71E0CF010E945F30412C0E
:102B300010E03801B4E06B0E711C780125E0E20E64
:102B4000F11C6801A6E0CA0ED11C5801B7E0AB0E1B
:102B5000B11C480128E0820E911C075F1F4F0097AF
:102B600009F450C04394451004C090931A04809314
:102B70001904242D30E02615370521F4909318040C
:102B8000809317042E153F0521F49093160480932B
:102B900015042C153D0521F490931404809313041F
:102BA0002A153B0521F490931204809311042815F3
:102BB000390521F49093100480930F0420173107F6
:102BC00021F490930E0480930D0468E671E090E088
:102BD00080E00E945F30C3CF68E172E080EA94E059
:102BE0000E94A20664EF71E080E090E00E94D904A8
:102BF00060EA74E0CE0101960E94C412CE010196F3
:102C00000E941B0C26960FB6F894DEBF0FBECDBFF8
:102C1000DF91CF911F910F91FF90EF90DF90CF90B8
:102C2000BF90AF909F908F907F906F905F904F90EC
:102C3000089583E0582E933409F067CF00E097E0C1
:102C4000592E70CFCF93DF93EC011092CD051092E7
:102C5000CC0580EA94E00E942D07892BB9F480917D
:102C6000CC059091CD05803E9E4284F46DE070E0ED
:102C700080E090E00E94D9048091CC059091CD0530
:102C800001969093CD058093CC05E3CF80EA94E044
:102C90000E942D07892B49F060EA74E0CE010E9462
:102CA000C412CE01DF91CF9108956DE571E0CE01A0
:102CB0000E94AF12F6CFBF92CF92DF92EF92FF92B7
:102CC0000F931F93CF93DF93CDB7DEB7C259D109CE
:102CD0000FB6F894DEBF0FBECDBF1A821982FE0177
:102CE00033968EE7DF011D928A95E9F7CE0183576F
:102CF0009F4F0E94B209CF56DF4FB880C159D040D4
:102D0000C057DF4FC880C059D040C357DF4FD8806D
:102D1000CD58D040C257DF4FE880CE58D040C15781
:102D2000DF4FF880CF58D040CE0183579F4F0E948D
:102D3000590AE82FF0E0EE0FFF1FE45DFC4F108111
:102D40000181CE0183579F4F0E94590A1F92BF9263
:102D50001F92CF921F92DF921F92EF921F92FF92CB
:102D60000F931F93E82FF0E0EE0FFF1FE65CFC4F80
:102D700081818F9380818F9380914E031F928F93D7
:102D8000809160031F928F9380915A038F9380915B
:102D900059038F9380915E031F928F9380915F03FD
:102DA0001F928F938091AB038F938091AA038F938F
:102DB00080912B031F928F9380915D038F9380915D
:102DC0005C038F93809158038F93809157038F9367
:102DD000EEE1F4E081811F928F9380811F928F93A7
:102DE00081E791E09F938F938E010F5F1F4F1F9399
:102DF0000F930E94AE330FB6F894DEBF0FBECDBF67
:102E0000B801CE0189579F4F0E94AF1260911904FB
:102E100070911A04CE018F579F4F0E94AF12BE01CE
:102E200069577F4FCE018F579F4F0E940413CE01E9
:102E30008F579F4F0E941B0CCE0189579F4F0E94B6
:102E40001B0CCE56DF4F0FB6F894DEBF0FBECDBFC2
:102E5000DF91CF911F910F91FF90EF90DF90CF9076
:102E6000BF900895CF92DF92FF920F931F93CF935D
:102E7000DF93CDB7DEB762970FB6F894DEBF0FBE13
:102E8000CDBF8C01F62E6A016DE571E0CE010D9685
:102E90000E94AF1289E06F2D8F1540F5CE0101968B
:102EA0000E946212BE016F5F7F4FCE010D960E949D
:102EB0008611BE01635F7F4FC8010E94A612CE013A
:102EC00001960E941B0CCE010D960E941B0CC8019E
:102ED00062960FB6F894DEBF0FBECDBFDF91CF91E3
:102EE0001F910F91FF90DF90CF900895CE01019632
:102EF000E5E0CE16D104D9F40E946212BE016F5FE4
:102F00007F4FCE010D960E948611CE0101960E9440
:102F10001B0CF80111821082138212821582148216
:102F2000BE01635F7F4FC8010E948611CCCF0E9413
:102F300062126CE073E0CE0107960E94AF124D81E1
:102F40005E8169817A81CE0107960E94E711811125
:102F500004C0CE0107960E94090CBE01695F7F4F35
:102F6000CE010D960E948F12CE0107960E941B0C77
:102F7000CCCFBF92CF92DF92EF92FF920F931F932D
:102F8000CF93DF93CDB7DEB72C970FB6F894DEBFA3
:102F90000FBECDBF8C016B016DE571E0CE010796D0
:102FA0000E94AF1287E08C9D70018D9DF00C112462
:102FB000C70101970E94660A80931001670187E0AC
:102FC000C81AD108B12CF12CE12CC7018C0D9D1D24
:102FD0000E94660A811101C0B39493E09B15D0F45E
:102FE0006CE073E0C8010E94AF12CE0107960E9408
:102FF0001B0CC8012C960FB6F894DEBF0FBECDBFD8
:10300000DF91CF911F910F91FF90EF90DF90CF90C4
:10301000BF900895A701682FCE0101960E94321734
:10302000BE016F5F7F4FCE0107960E943012CE0126
:1030300001960E941B0CEFEFEE1AFE0AF6E0EF1667
:10304000F10419F6F801118210821382128215829E
:103050001482BE01695F7F4FC8010E948611C5CFEF
:10306000AF92BF92DF92EF92FF920F931F93CF9395
:10307000DF93CDB7DEB7C054D1090FB6F894DEBFE9
:103080000FBECDBF5C01198280914D038E010F5D93
:103090001F4F882309F44AC066ED71E0CE01019606
:1030A0000E948A336091190470911A04CE0101962E
:1030B0000E947633CE01C5960E94B20988AD1F9258
:1030C0008F938DA91F928F938EA91F928F938FA993
:1030D0001F928F938BED91E09F938F931F930F938C
:1030E0000E94AE33B801CE0101960E94763319A238
:1030F00089AD0FB6F894DEBF0FBECDBF8A3008F0A1
:103100008DC01F928F9389EE91E09F938F931F93B1
:103110000F930E94AE330F900F900F900F900F906F
:103120000F90B801CE0101960E947633EE24E3940D
:10313000F12CD12CB701C8010E94B9178DA19EA115
:10314000892B49F06CE073E089A19AA10E94813338
:10315000892B09F446C080914D03DD2009F46FC02E
:10316000882309F460C08CE995E00E94E00860E4DF
:1031700076E080E090E00E94D9048CE995E00E941E
:10318000E50860E476E080E090E00E94D9048CE9F4
:1031900095E00E94E00860E476E080E090E00E9424
:1031A000D9048CE995E00E94E508BE016F5F7F4F6E
:1031B000CE01CB960E94AF12B801CE01C5960E94F7
:1031C000A612BE01655C7F4FCE01C5960E94041316
:1031D000CE01C5960E941B0CCE01CB960E941B0C03
:1031E000D394C8010E941B0C3FEFE31AF30A84E05A
:1031F000E816F10409F09ECF81E0C05CDF4F0FB606
:10320000F894DEBF0FBECDBFDF91CF911F910F911C
:10321000FF90EF90DF90BF90AF9008951F928F9333
:103220008FEE92E072CF68E873E180E090E00E9458
:10323000D904B501CE01CB960E94A612BDCF88233A
:10324000C1F3B3CFEF92FF920F931F93CF93DF930E
:10325000CDB7DEB72C970FB6F894DEBF0FBECDBF4B
:103260008C017B0164E972E00E946333892B09F0D1
:1032700063C00E94C606809110018230B0F4809134
:103280004F03811112C020911E0488EE93E0289F05
:10329000A001299F500D112441155105E9F161E06C
:1032A00070E08BEA95E00E94EA080E94C60662E0A0
:1032B000C7010E943D1080915C0390915D030197CE
:1032C000E9F46DEE71E0CE0107960E94AF126091B5
:1032D000190470911A04CE0101960E94AF12BE012A
:1032E000695F7F4FCE0101960E940413CE010196C3
:1032F0000E941B0CCE0107960E941B0C81E02C96AD
:103300000FB6F894DEBF0FBECDBFDF91CF911F91F6
:103310000F91FF90EF9008958091AB050E94F2020B
:10332000892B29F48BEA95E00E94E508BECF8BEA51
:1033300095E00E94E008B9CF60EF71E0C8010E94FB
:103340006333892B71F5809110018D7FB1F48091E9
:103350005E03811112C020911F0488EE93E0289F24
:10336000A001299F500D11244115510551F061E034
:1033700070E08CE995E00E94EA080E94C60663E0CE
:1033800097CF80919C050E94F202892B29F48CE949
:1033900095E00E94E508F1CF8CE995E00E94E008F5
:1033A000ECCF64EF71E0C8010E946333892B99F47C
:1033B00068E572E080E090E00E94D9040E94C606B1
:1033C00080911001882319F0833009F097CF81E0B4
:1033D00080934D0394CF80E092CF0E94170E8130EE
:1033E00019F08230A1F0089590914F03992319F0BC
:1033F0008093480308956091190470911A04809194
:103400005E03823098F484E992E00C942219609172
:10341000190470911A0480915E03823038F480910F
:103420001001823080F380EF91E0EFCF84EF91E0E4
:10343000ECCF68EF71E080911504909116040E9422
:103440006333892B29F581E40E94500B019759F4CD
:103450000E942D0940E061E48091190490911A04C2
:103460000E94920D089580910E03882349F081E413
:103470000E94500B181619061CF410920E03E8CF88
:1034800042E350E068E070E08AEB95E00E94EA08D1
:1034900080E00895EF92FF920F931F93CF93DF93F5
:1034A000CDB7DEB76F970FB6F894DEBF0FBECDBFB6
:1034B0008C017B01161617060CF05CC06091150498
:1034C0007091160446E050E0CE0101960E949F33B1
:1034D000FF92EF928EEF91E09F938F937E018AE1AE
:1034E000E80EF11CFF92EF920E94AE33B701CE01BD
:1034F00001960E9476330F900F900F900F900F90CF
:103500000F9080915C0390915D03BE016F5F7F4FD0
:1035100002972CF5CE0144960E94AF12B801CE015D
:103520000E960E94AF12BE016C5E7F4FCE010E96CA
:103530000E940413CE010E960E941B0CCE014496ED
:103540000E941B0C6F960FB6F894DEBF0FBECDBF66
:10355000DF91CF911F910F91FF90EF900895CE01D1
:103560000E960E94AF12CE010E960E943018CE0128
:103570000E96E6CF60E171E00E94F20C1816190673
:103580000CF762E072E0CE010E960E94AF12B80115
:10359000CE0101960E94AF12BE01625F7F4FCE0145
:1035A00001960E940413CE0101960E941B0CDFCFEE
:1035B0002F923F924F925F926F927F928F929F9243
:1035C000AF92BF92CF92DF92EF92FF920F931F9331
:1035D000CF93DF93CDB7DEB7C856D1090FB6F894B5
:1035E000DEBF0FBECDBF69E072E0809115049091FF
:1035F00016040E946333892B19F50E942D096DEE84
:1036000071E0CE01895B9F4F0E94AF126091190457
:1036100070911A04CE0101960E94AF12BE01695B3F
:103620007F4FCE0101960E940413CE0101960E94A5
:103630001B0CCE01895B9F4F0E941B0C0E94AA109D
:1036400060E172E080911504909116040E9463334A
:10365000892B81F5E0911304F091140486E0A3E630
:10366000B3E001900D928A95E1F710926A0383E628
:1036700093E00E94810F6DEE71E0CE01895B9F4F58
:103680000E94AF126091190470911A04CE01019644
:103690000E94AF12BE01695B7F4FCE0101960E946E
:1036A0000413CE0101960E941B0CCE01895B9F4F33
:1036B0000E941B0C68EF71E0809115049091160434
:1036C0000E946333892B51F40E94191A682F70E00D
:1036D0008091190490911A040E944A1A68E172E0DC
:1036E00080911504909116040E946333892B31F563
:1036F00081E080930E038AEB95E00E94E5086DEE71
:1037000071E0CE01895B9F4F0E94AF126091190456
:1037100070911A04CE0101960E94AF12BE01695B3E
:103720007F4FCE0101960E940413CE0101960E94A4
:103730001B0CCE01895B9F4F0E941B0C62E272E062
:1037400080911504909116040E946333892B49F4EB
:1037500081E08093620362E673E086E490E00E9479
:1037600092106DE272E080911504909116040E940F
:103770006333892B41F41092620362E673E086E4BE
:1037800090E00E94921068E372E08091150490919D
:1037900016040E946333892B09F04AC06DE571E07D
:1037A000CE018A5A9F4F0E94AF1201E010E0B8018B
:1037B000CE0101960E94B917BE016F5F7F4FCE0107
:1037C0008A5A9F4F0E943012CE0101960E941B0C14
:1037D0006AE0CE018A5A9F4F0E9413120F5F1F4F5B
:1037E0000630110521F7BE016A5A7F4FCE01895B71
:1037F0009F4F0E94A6126091190470911A04CE0185
:1038000001960E94AF12BE01695B7F4FCE01019607
:103810000E940413CE0101960E941B0CCE01895B0D
:103820009F4F0E941B0CCE018A5A9F4F0E941B0C77
:1038300062E472E080911504909116040E94633353
:10384000892B09F06BC080911304909114040E949D
:1038500041306C0180911104909112040E9441301A
:103860007C018601CE14DF040CF058C06DE571E0D8
:10387000CE0101960E94AF1258012AE0A20EB11C9F
:103880000A151B05D1F0B801CE01895B9F4F0E943C
:10389000B917BE01695B7F4FCE0101960E943012BD
:1038A000CE01895B9F4F0E941B0C6AE0CE010196FE
:1038B0000E9413120F5F1F4FE3CFBE016F5F7F4F58
:1038C000CE018A5A9F4F0E94A612609119047091EE
:1038D0001A04CE01895B9F4F0E94AF12BE016A5A43
:1038E0007F4FCE01895B9F4F0E940413CE01895BFD
:1038F0009F4F0E941B0CCE018A5A9F4F0E941B0CA7
:1039000060EA7FE080E090E00E94D9048AE0E81A53
:10391000F108CE0101960E941B0CA4CF68E472E06E
:1039200080911504909116040E946333892B09F04D
:1039300026C16DE571E0CE018A5A9F4F0E94AF12F9
:103940006CE870E0CE018A5A9F4F0E94BF11BE0101
:10395000635A7F4F80E590E00E947B0E6F96EEAC3D
:10396000FFAC6F97570197E3A91AB10882E390E083
:10397000B7FE03C05701A81AB90A0597C9F71A1468
:103980001B040CF0F7C0E5E0EE1AF1086DE571E0FC
:10399000CE018A5A9F4F0E9458126F968EAD9FADEE
:1039A0006F976C01F1E0CF1AD1088D5E9A4F2DE030
:1039B000289F4001299F900C1124CA14DB040CF4A9
:1039C000D9C06DE571E0CE01895B9F4F0E94AF12B7
:1039D00010E000E0C801880D991D0E94660A682F5A
:1039E00006301105E9F00530110509F06BC045E01E
:1039F00050E0CE0101960E943217BE016F5F7F4FEB
:103A0000CE01895B9F4F0E943012CE0101960E9429
:103A10001B0C60E572E0CE01895B9F4F0E9426126D
:103A20000F5F1F4F0D301105A9F6BE01695B7F4F77
:103A3000CE018A5A9F4F0E943012CE01895B9F4F60
:103A40000E941B0C6AE0CE018A5A9F4F0E941312FB
:103A5000EC14FD0481F5BE016A5A7F4FCE01895BEB
:103A60009F4F0E94A6126091190470911A04CE0112
:103A700001960E94AF12BE01695B7F4FCE01019695
:103A80000E940413CE0101960E941B0CCE01895B9B
:103A90009F4F0E941B0C60EA7FE080E090E00E9454
:103AA000D9046DE571E0CE018A5A9F4F0E945812E9
:103AB00025E0E21AF10881E0C81AD1089DE0891AD0
:103AC00091087BCF09301105A9F449E050E0CE01FF
:103AD00001960E943217BE016F5F7F4FCE01895B56
:103AE0009F4F0E943012CE0101960E941B0C62E58E
:103AF00072E091CF4BE050E00B30110541F3A8018B
:103B00000C30110531F590E08230910519F464E52F
:103B100072E081CF8330910519F468EB72E07BCFBE
:103B20008132910519F467E572E075CF8C32910509
:103B300019F46AE572E06FCF8430910519F46DE5F0
:103B400072E069CF4CE050E0069719F460E672E04D
:103B500062CFCE0101960E943217BE016F5F7F4F88
:103B6000CE01895B9F4F0E943012CE0101960E94C8
:103B70001B0C56CFCE018A5A9F4F0E941B0C63E646
:103B800072E080911504909116040E946333892B92
:103B900009F094C0198287E0E7E1F1E0DE01AA5A5A
:103BA000BF4F01900D928A95E1F7FE01EA5AFF4F4F
:103BB0007F018AE3A82E83E0B82E9CE2C92E93E011
:103BC000D92E1F01F7E02F0E311C28E6822E22E0AD
:103BD000922E8E01095B1F4F3EEF632E31E0732E54
:103BE0004BE6442E42E0542EF70181917F01282FAD
:103BF000082E000C330B3F938F939F928F921F934D
:103C00000F930E94AE33B801CE0101960E94763325
:103C1000F8011082F50180819181F2E0AF0EB11CB4
:103C20009F938F937F926F921F930F930E94AE3357
:103C3000B801CE0101960E947633F8011082F60198
:103C400080819181F2E0CF0ED11C9F938F935F9280
:103C50004F921F930F930E94AE33B801CE0101968D
:103C60000E9476330FB6F894DEBF0FBECDBF2E1480
:103C70003F0409F0B9CFBE016F5F7F4FCE018D5970
:103C80009F4F0E94AF126091190470911A04CE01E7
:103C9000835A9F4F0E94AF12BE016D597F4FCE01D4
:103CA000835A9F4F0E940413CE01835A9F4F0E9454
:103CB0001B0CCE018D599F4F0E941B0C60E772E0D8
:103CC00080911504909116040E946333892B01F5AD
:103CD0008091110490911204009113041091140426
:103CE00040E0009719F00E944130482F65E4C80178
:103CF0000E94920D8C01181619060CF06AC30E94DE
:103D00002D09B8018091190490911A040E944A1A51
:103D100064E772E080911504909116040E94633369
:103D2000892B09F04CC040E065E480911304909128
:103D300014040E94920D31E020E0181619060CF0D0
:103D400030E0032F122F80911104909112049A8376
:103D5000898380910F04909110049C838B838091C0
:103D60000D0490910E049E838D83FE0131967F0198
:103D70005E01F7E0AF0EB11CF701C190D1907F0159
:103D8000C114D10481F068EE73E080E090E00E94FD
:103D9000D90440E065E4C6010E94920D1816190688
:103DA00014F40F5F1F4FAE14BF0431F70E942D09AA
:103DB000B8018091190490911A040E944A1A69E787
:103DC00072E080911504909116040E946333892B50
:103DD000A1F480911304909114040E94E60D8C01CB
:103DE000181619060CF0FEC20E942D09B801809128
:103DF000190490911A040E944A1A6DE772E08091AA
:103E00001504909116040E946333892B99F460E1A4
:103E100071E080911304909114040E94F20C181622
:103E200019060CF0E8C2BC018091190490911A04A3
:103E30000E944A1A61E872E080911504909116047C
:103E40000E946333892B59F58091130490911404D7
:103E50000E94413080931E040E94590F6091130408
:103E600070911404CE01895B9F4F0E94AF12609144
:103E7000190470911A04CE0101960E94AF12BE017E
:103E8000695B7F4FCE0101960E940413CE0101961B
:103E90000E941B0CCE01895B9F4F0E941B0C68E89F
:103EA00072E080911504909116040E946333892B6F
:103EB00059F580911304909114040E94413080932D
:103EC0001F040E94590F6091130470911404CE01D5
:103ED000895B9F4F0E94AF126091190470911A0480
:103EE000CE0101960E94AF12BE01695B7F4FCE01E9
:103EF00001960E940413CE0101960E941B0CCE0174
:103F0000895B9F4F0E941B0C6FE872E08091150443
:103F1000909116040E946333892B09F03FC081E021
:103F200080935F0381E090E09A838983BE016F5F95
:103F30007F4F82E390E00E94AA0F8091130490913A
:103F400014040E94413090935A038093590369E509
:103F500073E086E390E00E94AA0F0E942D0967E9B2
:103F600072E0CE01895B9F4F0E94AF1260911904ED
:103F700070911A04CE0101960E94AF12BE01695BD6
:103F80007F4FCE0101960E940413CE0101960E943C
:103F90001B0CCE01895B9F4F0E941B0C6AE972E0EB
:103FA00080911504909116040E946333892B71F55A
:103FB0008CE995E00E94E00810925F031A82198252
:103FC000BE016F5F7F4F82E390E00E94AA0F63EA19
:103FD00072E0CE01895B9F4F0E94AF12609119047D
:103FE00070911A04CE0101960E94AF12BE01695B66
:103FF0007F4FCE0101960E940413CE0101960E94CC
:104000001B0CCE01895B9F4F0E941B0C67EA72E07C
:1040100080911504909116040E946333892B59F402
:1040200080914F03882339F08CE995E00E94E008E5
:1040300081E0809348036DEA72E0809115049091CD
:1040400016040E946333892B79F5809113049091B3
:1040500014040E94413090935D0380935C036CE5EF
:1040600073E08EE390E00E94AA0F6DEE71E0CE0146
:10407000895B9F4F0E94AF126091190470911A04DE
:10408000CE0101960E94AF12BE01695B7F4FCE0147
:1040900001960E940413CE0101960E941B0CCE01D2
:1040A000895B9F4F0E941B0C63EB72E080911504AB
:1040B000909116040E946333892B79F58091130443
:1040C000909114040E94413080935E030E942D0958
:1040D0006EE573E084E390E00E9492106DEE71E073
:1040E000CE01895B9F4F0E94AF12609119047091BD
:1040F0001A04CE0101960E94AF12BE01695B7F4F88
:10410000CE0101960E940413CE0101960E941B0C61
:10411000CE01895B9F4F0E941B0C6BEB72E080917C
:104120001504909116040E946333892B41F5809108
:104130001304909114040E94413021E0892B09F46A
:1041400020E0209360030E942D0960E673E088E27E
:1041500090E00E947A1080911104909112040E94C4
:10416000413021E0892B09F420E020934E036EE4D6
:1041700073E08BE290E00E947A100E945B1661EC83
:1041800072E080911504909116040E946333892B8C
:1041900091F460E171E08091190490911A040E94F9
:1041A000F20C9093AD038093AC036CEA70E080EA6C
:1041B00094E00E94A20668EC72E080911504909150
:1041C00016040E946333892B31F58091130490917A
:1041D00014040E944130909358038093570367E57D
:1041E00073E08AE490E00E94AA0F809157039091B7
:1041F00058030E946F1388E19EE00FB6F894A895CB
:10420000809360000FBE9093600060ED77E080E0E7
:1042100090E00E94D9046DEC72E0809115049091B9
:1042200016040E946333892B89F5809113049091C1
:1042300014040E94413021E0892B09F420E02093EE
:104240002B036BE273E08CE490E00E947A106DEE39
:1042500071E0CE01895B9F4F0E94AF1260911904FB
:1042600070911A04CE0101960E94AF12BE01695BE3
:104270007F4FCE0101960E940413CE0101960E9449
:104280001B0CCE01895B9F4F0E941B0C61ED72E0FD
:1042900080911504909116040E946333892B81F458
:1042A00080911304909114040E9441309093AB03C9
:1042B0008093AA036AEA73E08EE490E00E94AA0F5A
:1042C00065ED72E080911504909116040E946333AD
:1042D000892B21F40E945B160E942D096CED72E07F
:1042E00080911504909116040E946333892B09F084
:1042F00056C0A5961FAE1EAEA5976F961FAE1EAEFA
:104300006F97BE01635A7F4FCE018D599F4F0E9418
:104310008F0B198283E08F9388EE8F936F968FAD0A
:104320006F978F936E968FAD6E978F93A5968FAD87
:10433000A5978F93A4968FADA4978F9383EE92E069
:104340009F938F938E010F5F1F4F1F930F930E94B8
:10435000AE33B801CE018A5A9F4F0E94AF126091CE
:10436000190470911A04CE01895B9F4F0E94AF120D
:10437000BE016A5A7F4FCE01895B9F4F0E94041392
:10438000CE01895B9F4F0E941B0CCE018A5A9F4F22
:104390000E941B0C0FB6F894DEBF0FBECDBFC859EC
:1043A000DF4F0FB6F894DEBF0FBECDBFDF91CF91C8
:1043B0001F910F91FF90EF90DF90CF90BF90AF9043
:1043C0009F908F907F906F905F904F903F902F9035
:1043D000089542E350E068E070E08AEB95E00E94C7
:1043E000EA088FCC42E350E068E070E08AEB95E0A9
:1043F0000E94EA08FBCC6CE073E0CE01895B9F4F22
:104400000E94AF126091190470911A04CE010196B6
:104410000E94AF12BE01695B7F4FCE0101960E94E0
:104420000413CE0101960E941B0CCE01895B9F4FA5
:104430000E941B0CFFCC1F920F920FB60F921124FB
:104440002F933F934F935F936F937F938F939F939C
:10445000AF93BF93EF93FF938091B900887F80362D
:1044600009F44AC0F0F5883209F4A7C018F5803184
:1044700009F49BC0B8F4882309F4F9C0883009F422
:1044800094C0FF91EF91BF91AF919F918F917F91D8
:104490006F915F914F913F912F910F900FBE0F90B1
:1044A0001F901895883109F488C0803251F78093A5
:1044B000680414C0803409F49DC040F48033B9F31B
:1044C0008833F9F68093680485ECB0C0803509F430
:1044D00085C0883509F496C0883499F60E94430E49
:1044E000D0CF883909F48CC038F5883729F050F4DA
:1044F000883611F0803729F683E080936A041092A1
:104500000A0457C0883809F47BC0803919F0803814
:1045100009F0B7CF80910A04803208F071C0E091B1
:104520000A0481E08E0F80930A048091BB00F0E0C2
:10453000E651FC4F80833DC0803B39F0E0F4803A87
:1045400009F479C0883A09F09CCF84E080936A042A
:104550001092E7031092E603E091E403F091E50383
:1045600009958091E60381110FC081E08093E603F5
:104570001092C40309C0803C09F4A6CF883C09F41A
:10458000A3CF883B09F07DCFE091E70381E08E0F58
:104590008093E703F0E0EC53FC4F80818093BB00F5
:1045A0009091E7038091E60329C0809145048093B0
:1045B000BB0085EC8093BC0064CF90916704809130
:1045C0006604981758F5E091670481E08E0F809398
:1045D0006704F0E0EA5BFB4F8081E9CFE09167047C
:1045E00081E08E0F809367048091BB00F0E0EA5B6E
:1045F000FB4F808390916704809166049817C8F2FE
:1046000085E8D8CFE091670481E08E0F809367043E
:104610008091BB00F0E0EA5BFB4F808380916904EE
:1046200081115CCF81E08093440484EA8093BC00D4
:1046300010926A0426CF85EC8093BC0010926A0425
:1046400080910A04803230F4E0910A04F0E0E651EF
:10465000FC4F108260910A0470E0E091E803F09151
:10466000E9038AEE93E0099510920A040ACF1092AA
:10467000680434CF1F920F920FB60F9211242F931C
:104680003F938F939F93AF93BF938091AF0390918C
:10469000B003A091B103B091B2033091AE0323E017
:1046A000230F2D3758F50196A11DB11D2093AE03A0
:1046B0008093AF039093B003A093B103B093B20380
:1046C0008091B3039091B403A091B503B091B60368
:1046D0000196A11DB11D8093B3039093B403A093E1
:1046E000B503B093B603BF91AF919F918F913F9166
:1046F0002F910F900FBE0F901F90189526E8230F53
:104700000296A11DB11DD2CF1F920F920FB60F922C
:1047100011248F939F938091E1009091E100937F0A
:104720009093E10083FF0FC01092E90091E0909315
:10473000EB001092EC0092E39093ED0010920C04C9
:1047400098E09093F00082FF22C093E09093E900FC
:104750009091F200992319F09AE39093E8009091D8
:104760001F03992341F090911F03915090931F03D1
:10477000911101C05D9A90910B04992341F09091A1
:104780000B04915090930B04911101C0289A84FF5F
:1047900018C08091E2008E7E81608093E20080915B
:1047A000E1008F7E8093E100809120038E7E806106
:1047B000809320039F918F910F900FBE0F901F90B9
:1047C000189580FFF7CF8091E2008E7E8061809304
:1047D000E2008091E1008E7E8093E10080912003D1
:1047E0008E7E8160E5CF1F920F920FB60F9211243B
:1047F000CF92DF92EF92FF920F931F932F933F93ED
:104800004F935F936F937F938F939F93AF93BF93D8
:10481000EF93FF93CF93DF93CDB7DEB76C97DEBFF7
:10482000CDBF1092E9008091E80083FF25C068E0C9
:10483000CE0145960E94590682EF8093E8008D894B
:1048400087FF39C09091E80090FFFCCF982F9076B9
:1048500009F034C19E894F89588D2F89F88C9111A8
:1048600031C0803861F5809121038093F10010926E
:10487000F1008EEF8093E8006C960FB6F894DEBFDF
:104880000FBECDBFDF91CF91FF91EF91BF91AF915F
:104890009F918F917F916F915F914F913F912F9158
:1048A0001F910F91FF90EF90DF90CF900F900FBE70
:1048B0000F901F9018959EEF9093E800C7CF10922D
:1048C000F100D5CF913059F48111D3CF413051054A
:1048D00081F6809121038D7F80932103CACF93308D
:1048E00049F48111C6CF4130510519F68091210359
:1048F0008260F2CF953041F48091E80080FFFCCFD8
:1049000020682093E300B5CF963009F0A9C00B8D45
:104910001C8D22E01092E90010921D0310921C03DE
:10492000F2122EC010921B0310921A030E94280646
:104930001F8299E09983FA8291E09E8390EA98879A
:104940009AEF998720911C0330911D03275F3F4FF9
:104950003C832B838D831092E90010921D031092EB
:104960001C0310931B0300931A0349E050E0BE019F
:104970006F5F7F4F80E00E9402060E94280679CF79
:1049800010931B0300931A030E949202DC011296FB
:104990000D911C910115110509F451C1D801ED913A
:1049A000FC910480F581E02DBE016B5E7F4FC80154
:1049B0000995009709F03EC1F80100851185EACFFD
:1049C000F3E0FF120EC08F89882309F440C08230C3
:1049D00061F440E862E182E291E00E94CF0581113A
:1049E00048CF81E28093EB0047CF813029F440E843
:1049F00068E089E191E0F1CF833099F70E9492025B
:104A0000DC011296ED90FC908E010F5F1F4F680144
:104A1000E114F10479F0D701ED91FC910680F78162
:104A2000E02DB801C7010995080F111DF701E084B9
:104A3000F184EECFD8011C92F60101900020E9F735
:104A40003197BF016C197D0940E0C601C6CF63E014
:104A500071E0FB01449150E080E80E94020609CF1A
:104A6000973009F4BECF983021F481E08093F100B3
:104A700000CF993009F0FDCE837009F0B2CFEFE19D
:104A8000F1E081E031E096E32191222371F08093FF
:104A9000E9003093EB00DF0111972C912093EC009B
:104AA0009093ED008F5F873079F78EE78093EA006F
:104AB0001092EA008F8980930C04DBCE8B8D9C8D45
:104AC0001092E90010921D0310921C0390931B0397
:104AD00080931A03898D811192C08E899D89913AA4
:104AE00049F4813209F07DCF47E050E064E071E0A5
:104AF00080E0B3CF913209F074CF833269F48F89AB
:104B0000988DB0E0A0E08093000190930101A09304
:104B10000201B0930301ADCE803269F48091E800C8
:104B200082FFFCCF67E084E091E00E9459068BEFA2
:104B30008093E8009ECE823209F09BCE8F898093CD
:104B40000B01EEEFFFE7859194918B3F9C4D51F166
:104B5000E0E0F8E08091040190910501A091060148
:104B6000B0910701803B9440A105B105F1F480911B
:104B70000B0180FD1AC0EE3F8AE0F80789F587E750
:104B800097E7918380838091600080931E0388E182
:104B90009BE00FB6F894A895809360000FBE9093A9
:104BA000600067CEEEEFFAE0D5CF80819181873744
:104BB000974709F05ECEA895809160008861809348
:104BC000600080911E0380936000EE3F2AE0F207B0
:104BD00089F08091FE0A9091FF0A9183808349CEEB
:104BE000808191818737980751F29093FF0A8093D3
:104BF000FE0AC5CF1092FF0A1092FE0A3ACE0E941A
:104C00009202DC0112960D911C910115110509F417
:104C1000E8CED801ED91FC910190F081E02DBE012C
:104C20006B5E7F4FC8010995811123CEF801008585
:104C30001185EBCF181619060CF41BCED2CEF1E07D
:104C4000FF12BECE67E071E004CF1F920F920FB645
:104C50000F9211242F933F934F935F936F937F9302
:104C60008F939F93AF93BF93EF93FF9380EA94E06A
:104C70000E944D07FF91EF91BF91AF919F918F914E
:104C80007F916F915F914F913F912F910F900FBE48
:104C90000F901F9018951F920F920FB60F9211242C
:104CA0002F938F939F93EF93FF93E091B004F09134
:104CB000B1048081E091B604F091B70482FD1BC07D
:104CC00090818091B9048F5F8F732091BA0482170D
:104CD00041F0E091B904F0E0E056FB4F958F8093EE
:104CE000B904FF91EF919F918F912F910F900FBE7B
:104CF0000F901F9018958081F4CFCF93DF93E4E954
:104D0000F4E01382128288EE93E0A0E0B0E08483A6
:104D10009583A683B78329E231E031832083E0EADB
:104D2000F4E01382128284839583A683B7832BE3F6
:104D300031E0318320832DEC30E0358724872CEC63
:104D400030E03787268728EC30E0318B208B29EC48
:104D500030E0338B228B2AEC30E0358B248B2EEC29
:104D600030E0378B268B118E128E138E148EEDE36E
:104D7000F5E01382128284839583A683B7838DE442
:104D800091E0918380838FEF9FEF958784876DE516
:104D900071E085E796E00E94AF12CBECD5E082E0AF
:104DA00090E09C838B836DE571E080ED95E00E943F
:104DB000AF121B861C861D861F861E868DE480937F
:104DC00071068CE48093720683E58093730691E20A
:104DD00090937406888388EE93E09093CA0580933D
:104DE000C905EAEBF5E01282128613861486158651
:104DF000168684E090E091838083C1E0C38361E004
:104E00000E948803EBEAF5E012821286138614866C
:104E10001586168689E090E091838083C38361E0E4
:104E20000E948803ECE9F5E012821286138614864C
:104E3000158616868AE090E091838083C38361E0C3
:104E40000E948803EDE8F5E012821286138614862C
:104E50001586168688E090E091838083138260E057
:104E6000DF91CF910C948803CF93DF93CDB7DEB75A
:104E7000C354D1090FB6F894DEBF0FBECDBF7894EE
:104E800084B5826084BD84B5816084BD85B582604F
:104E900085BD85B5816085BD80916E008160809300
:104EA0006E00109281008091810082608093810069
:104EB0008091810081608093810080918000816079
:104EC0008093800080919100826080939100809116
:104ED0009100816080939100809190008160809327
:104EE00090008091C10084608093C1008091C100D6
:104EF00082608093C1008091C10081608093C10075
:104F00008091C30081608093C3008091C000826063
:104F10008093C0008091C20081608093C200809124
:104F20007A00846080937A0080917A008260809316
:104F30007A0080917A00816080937A0080917A0073
:104F4000806880937A0010920C04109221031092D2
:104F500020038091D70081608093D70080EA8093FE
:104F6000D80089B5806189BD89B5826089BD09B4E1
:104F700000FEFDCF61E070E080E090E00E94D90487
:104F80008091D8008F7C80618093D8008091E00070
:104F9000807F8093E0008091E1008E7E8093E1002D
:104FA0008DE08093E200559A209A87EF84BF0FB678
:104FB000F894A895809160008861809360001092B9
:104FC00060000FBE60E08EE00E94880361E084E133
:104FD0000E94880362E085E10E94880348EC50E06B
:104FE00065E070E08AEB95E00E94EA088EE290E0CE
:104FF0000E94BD3081110CC261E084E10E941B035C
:1050000064EF71E080E090E00E94D90460E084E108
:105010000E941B038AEB95E00E94E5088FEF9FEF4B
:1050200090934A058093490568EE73E080E090E034
:105030000E94D9040E94A30E0091570310915803B7
:10504000E091B004F091B10442E0E42EE082E091FE
:10505000AC04F091AD041082E091AE04F091AF0485
:1050600080E180831092B804E091B404F091B5041B
:1050700056E0F52EF082E091B204F091B304808105
:1050800080618083E091B204F091B30480818860F4
:105090008083E091B204F091B304808180688083C2
:1050A000E091B204F091B30480818F7D8083809180
:1050B000CB058C3409F045C068EE73E080E090E0E9
:1050C0000E94D90465E671E080EA94E00E94A2069D
:1050D00068EE73E080E090E00E94D904E091B004B3
:1050E000F091B104E082E091AC04F091AD04108243
:1050F000E091AE04F091AF0487E680831092B8048B
:10510000E091B404F091B504F082E091B204F09122
:10511000B304808180618083E091B204F091B30494
:10512000808188608083E091B204F091B304808133
:1051300080688083E091B204F091B30480818F7D18
:10514000808360E47FE180E090E00E94D9046FE515
:1051500071E080EA94E00E94A20668EB7BE080E0C8
:1051600090E00E94D90469E571E080EA94E00E9431
:10517000A20660EA74E09E012F5F3F4F4901C9011A
:105180000E94C412C4010E941B0C68EE73E080E010
:1051900090E00E94D9041093CF050093CE05C8017A
:1051A0000E946F136DE471E080EA94E00E94A20611
:1051B00068EE73E080E090E00E94D90460EA74E059
:1051C000C4010E94C412C4010E941B0C61E471E07E
:1051D00080EA94E00E94A20668EE73E080E090E02E
:1051E0000E94D90460EA74E0C4010E94C412C401A0
:1051F0000E941B0C65E371E080EA94E00E94A20625
:1052000068EE73E080E090E00E94D90460EA74E008
:10521000C4010E94C412C4010E941B0C0E94A51369
:1052200060EA74E0C4010E94C412C4010E941B0C15
:1052300068EE73E080E090E00E94D90410922304AD
:105240001092220410927104109293040E94490358
:105250008CE092E09093E5038093E4038DE092E08C
:105260009093E9038093E80360E177E280E090E0C7
:105270000E94D90481E090E00E94BD308F3F11F47C
:105280000E94AA10A091AA03B091AB031A161B06A4
:1052900074F420E437E74BE150E00E9467316093FB
:1052A0000C0170930D0180930E0190930F0164E146
:1052B00070E085E796E00E94BF11C4010E94CD1402
:1052C000B40185E796E00E948611C4010E941B0C80
:1052D00060ED77E080E090E00E94D90462E273E044
:1052E00084E293E00E948F0B8091570390915803C2
:1052F0000E94CB0C6CE073E0C4010E94AF12C401A9
:105300000E947B14C4010E941B0C48EC50E065E035
:1053100070E08AEB95E00E94EA0885E1898381E0EC
:105320008A838B831C821D821E82C4010E94380ADC
:1053300068EB7BE080E090E00E94D9040E94DE12DE
:105340003E013AE1630E711C4424439480EA94E0E8
:105350000E942D07181619060CF0D9C08091D705A8
:105360008111D5C080EA94E00E940B07582E8091ED
:105370002703882309F47AC00E9434055B016C017D
:105380002AAD3BAD4CAD5DAD6EAD7FAD21968FAD21
:10539000219722969FAD229728513C4F4F4F5F4F48
:1053A0006F4F7F4F8F4F9F4F190123964FAF23971A
:1053B000B52FA62FF72FE82F24969FAF249795019E
:1053C000A60160E070E080E090E051012396CFAC50
:1053D0002397DB2EEA2EFF2E0E2F24961FAD249747
:1053E0000E946F3119F010F031E2532E80912603A4
:1053F000E82FF0E090917406E553FA4F951589F087
:10540000508A8F5F8E3650F04DE6409326039ECF34
:1054100060E08EE290E00E94C530FCCD80932603D0
:1054200095CF108A10922703109226038BED95E0FA
:105430009093DA058093D9054092D70542E350E076
:1054400061E070E08AEB95E00E94EA088091D70560
:10545000811136C080EA94E00E942D0718161906C3
:1054600094F580EA94E00E940B07F4CF80917106D6
:10547000581669F080917206581621F080917306D3
:10548000581264CF2DE0E22EE092740603C091E240
:10549000909374060E9434057B018C0120E030E07B
:1054A000A9016AAFFBAE8CAF1DAF2EAF3FAF219607
:1054B0004FAF219722965FAF22974092270346CFA6
:1054C0001092D705C7CFA091D905B091DA05BDAB31
:1054D000ACABFD0101900020E9F73197EA1BFB0B13
:1054E0003497A8F011968C918E3489F0CE01C49631
:1054F0000E94471580911B048B3409F4E6C00CF020
:1055000092C0833409F4DBC0893409F4D8C0809197
:1055100054038823E1F00E94340500915003109158
:1055200051032091520330915303601B710B820B86
:10553000930B68397A438105910508F44DC06FE5F6
:1055400073E082E390E00E94990E109254038091E0
:105550005F03882309F488C1C3010E94B209C30113
:105560000E94590AE82FF0E0EE0FFF1FE65CFC4FA7
:1055700000811181C3010E94590AE82FF0E0EE0F6B
:10558000FF1FE45DFC4FE080F180101611061CF057
:105590001E141F048CF4C4010E94B2098C8198016E
:1055A0002E193F0990E037FF56C18017910724F06C
:1055B0008E159F050CF458C188EE93E00E944005BB
:1055C00080914F038111E3C180914E03811151C13C
:1055D00080914D0381115AC11BE38DE395E00E9438
:1055E000C6082091A603181619060CF053C2211103
:1055F00053C28DE395E00E9484089091560399234D
:1056000009F442C290915503E92FF0E0E659FC4FAE
:105610008E3309F431C280839F5F9C3308F429C222
:1056200010935503DACF813589F1843509F06FCFB6
:105630000E94170E813019F170F0823009F067CFA7
:105640006091190470911A048091170490911804C4
:105650000E9422195CCF0E94330E882309F457CF91
:105660000E94191A682F70E06115710509F44FCF77
:105670008091190490911A040E944A1A48CF0E94FE
:10568000330E8823E9F20E94D81A41CF60911904A1
:1056900070911A04C4010E94AF126091AC03709122
:1056A000AD03C3010E94B917B401C3010E940413E2
:1056B000C3010E941B0CC4010E941B0C28CF0E9436
:1056C000ED19C4010E942216F6CF80911904909121
:1056D0001A040E9441308C014497449708F0AAC0F4
:1056E00080911104909112040E944130182F8091F2
:1056F0001304909114040E944130F82E80911504F7
:10570000909116040E944130E82E809117049091E8
:1057100018040E94413009838A83EB82FC821D8336
:105720001E82C4010E94380A8091CB05813591F414
:10573000C3010E94B209C3010E94FE09AB01BC0172
:105740004054584361097109C4010E943509C401DC
:105750000E94380A66E090E080E00E943D1080914F
:105760002B03882389F08091290390912A032091AB
:10577000AA033091AB03820F931F88319105B4F5D2
:1057800090932A03809329038091AA039091AB03FD
:10579000181619060CF0BBCE0E94340561327F4BFF
:1057A0008240910508F4B3CE60E871E080EA94E0AD
:1057B0000E94A20660E47FE180E090E00E94D904AC
:1057C00064E771E080EA94E00E94A20660EA74E077
:1057D000C4010E94C412C4010E941B0C0E94A513A4
:1057E00060EA74E0C4010E94C41265CF10922A03DB
:1057F0001092290361E070E0CE018E960E94B917E5
:105800006DEC72E0C4010E94AF12BE01625D7F4F79
:10581000C3010E94A612B401C3010E940413C30174
:105820000E941B0CC4010E941B0CCE018E960E948C
:105830001B0CAACF68E873E180E090E00E94D904D5
:10584000809128038F5F80932803823008F05FCE19
:105850000E94DE125CCEE81AF90A1E141F0424F01E
:10586000801791070CF4A8CE80E49FE10E944005C8
:10587000B3CE80918D050E94F20221E0892B09F4BC
:1058800020E080916003821709F4A2CE0E94C60630
:1058900068EE73E080E090E00E94D9040E94C606A2
:1058A00040924F030E9434056093490370934A036A
:1058B00080934B0390934C0380915E03882321F0E7
:1058C0008CE995E00E94E508198262EF72E0C4015C
:1058D0000E947633CE01C4960E94B2098FA91F920E
:1058E0008F938CA91F928F938DA91F928F938EA94E
:1058F0001F928F932BED31E03F932F937F926F9206
:105900000E94AE33B301C4010E9476331A8E88AD73
:105910000FB6F894DEBF0FBECDBF8A3080F51F9260
:105920008F9389EE91E09F938F937F926F920E9465
:10593000AE330F900F900F900F900F900F90B30118
:10594000C4010E9476331A8EB401CE018E960E9455
:10595000AF12CE018E960E943018CE018E960E9414
:105960001B0C80914D03882379F08091190490914C
:105970001A0464E00E943D1010924D032DCE1F9238
:105980008F938FEE92E0CFCF90E080E0F2CF84E66D
:1059900090E00E944005C0904903D0904A03E090F7
:1059A0004B03F0904C03A0915903B0915A0328EE99
:1059B00033E00E946031609391057093920580936B
:1059C000930590939405672B682B692B09F44CC0C1
:1059D0000E9434059B01AC012C193D094E095F0959
:1059E00069017A010091910510919205209193052A
:1059F00030919405C016D106E206F306A8F1609333
:105A000098057093990580939A0590939B05109241
:105A1000480310924F0380915E038823B1F08CE914
:105A200095E00E94E0080E94C60668EE73E080E000
:105A300090E00E94D9040E94C60660EA74E0C401A6
:105A40000E94C412C4010E941B0C10925F0340927A
:105A500054030E9434056093500370935103809364
:105A6000520390935303B8CD809148038111CFCF57
:105A7000B3CD90935503B1CD10821092560310927E
:105A800055034092A603A9CD8C3309F0A6CD4092D0
:105A90005603A3CD2223F9F08AE693E09DAB8CABAD
:105AA000CE01C4960E944715E0911904F0911A04A2
:105AB0008081843409F403C10CF086C0813409F478
:105AC000E4C00CF072C0833209F494C1853209F449
:105AD00005C21092A60385E10E94F2029C0191E0AA
