:100000000C9496010C94BE010C94BE010C94BE019C
:100010000C94BE010C94BE010C94BE010C94BE0164
:100020000C94BE010C94BE010C94DE0D0C94500E89
:100030000C94BE010C94BE010C94BE010C94BE0144
:100040000C94BE010C94BE010C94BE010C94BE0134
:100050000C94BE010C94BE010C94BE010C9472254C
:100060000C94BE010C9485110C945F110C94BE018C
:100070000C94BE010C94BE010C94BE010C94BE0104
:100080000C94BE010C94BE010C94BE010C94BE01F4
:100090000C943E150C94BE010C94BE010C94BE0150
:1000A0000C94BE010C94BE010C94BE018A128D12F8
:1000B0007C1280128612AE12AE12AE1291129512FE
:1000C00099129F12A312AE12A91241542B43474515
:1000D0005245503D300D0A00415445300D0A006133
:1000E000742B717572636366673D22757263706FFE
:1000F0007274222C227561727431220D0A004154EF
:100100002B434E4D493D312C322C302C302C300DB0
:100110000A0041542B434C49503D310D0A004154D3
:100120002B434D47463D310D0A0041542B43524568
:10013000473D310D0A0041542B4346554E3D310D8C
:100140000A0041542B4346554E3D300D0A004154A0
:100150002B43545A523D310D0A0041542B43545AFB
:10016000553D310D0A0041542B4950523D31393231
:1001700030300D0A004154480D0A00415444303BD0
:100180000D0A0041542B4346554E3D310D0A0041A6
:10019000542B4346554E3D300D0A00450045004561
:1001A0000041542B434855500D0A0041542B4353F2
:1001B000510D0A003B26570D0A0041542A42414E78
:1001C000443D00080B000202020100090400000186
:1001D000020200000524001001052401010104248D
:1001E00002060524060001070581031000400904EA
:1001F0000100020A00000007050202400000070596
:1002000083024000000403090412010002EF02010E
:10021000404F1B0692000101020301537061726B93
:1002200046756E00537061726B46756E2050726F2A
:10023000204D6963726F0000000000240027002A2F
:10024000002D00300000000000250028002B002EAB
:10025000003100000000002300260029002C002FA0
:10026000000404040404030405020202020403025D
:10027000020202060606060606040402020204043E
:100280000408020110408040102040804080080295
:100290000401804020100201108010204040200006
:1002A00000000200090F0000030401000C00000020
:1002B000000000000000000000000000000D0A0027
:1002C0002F6C697374002F6170692F76312F00686D
:1002D000747470733A2F2F00687474703A2F2F0063
:1002E00041542B4347534E0D0A00220D0041542B1D
:1002F000434D47533D220041542B43434C4B3F0D4C
:100300000A0041542B514944454143540D0A007B96
:10031000226576656E7473223A5B001F1C1F1E1FD8
:100320001E1F1F1E1F1E1F00D62E8C2F11241FBE26
:10033000CFEFDAE0DEBFCDBF28E0A2EDB4E001C030
:100340001D92A431B207E1F714E0A0E0B1E0E4EFC0
:10035000FBE602C005900D92A23DB107D9F711E06E
:10036000C5E9D1E004C02197FE010E94DC30C43908
:10037000D107C9F70E94BC250C94ED350C94000000
:1003800061E871E080915505909156050E94EF3229
:10039000892B21F581E40E94781A019761F0809100
:1003A0003805882399F081E40E94781A18161906F6
:1003B0006CF4109238050E94961940E061E4809137
:1003C000590590915A050E944E1B089542E350E052
:1003D00068E070E083E497E00E94BF2280E0089527
:1003E00046E050E060EE74E080915705909158052A
:1003F0000E941D3321E0892B09F020E0822F08950F
:1004000060E171E08091590590915A050E94C91AE6
:10041000009761F09C01215031092530310520F011
:10042000069724F082E0089581E0089580E0089521
:10043000FF920F931F93CF93DF93EC01F62E088169
:100440001981C8010E945330F81621F06F2DC801A0
:100450000E945B30CE01DF91CF911F910F91FF90F1
:100460000895EF92FF920F931F93CF93DF93CDB731
:10047000DEB72C970FB6F894DEBF0FBECDBF8C0150
:100480007B0164ED71E00E94EF32892BA1F51091A0
:10049000DD0464EF71E080E090E00E94151761EAEE
:1004A00071E089E296E00E94C510809110018230CF
:1004B00000F588EE93E0189FA001199F500D1124BC
:1004C0004115510539F061E070E084E397E00E9446
:1004D000BF220FC0809134070E948116892B29F416
:1004E00084E397E00E94BA2204C084E397E00E946C
:1004F000B52262E02BC068E571E0C8010E94EF32CE
:10050000892B09F048C08091DA04823008F043C09A
:10051000809125070E948116892BE9F51091DE0450
:1005200064EF71E080E090E00E94151761EA71E0ED
:1005300089E296E00E94C510809110018D7F29F418
:100540008091DA04882309F441C063E0C7010E9466
:10055000721D1091D9041123B9F167E871E0CE0141
:1005600007960E94750D6091590570915A05CE014C
:1005700001960E94750DBE01695F7F4FCE01019605
:100580000E94121CCE0101960E94670DCE010796B3
:100590000E94670D41C064E571E0C8010E94EF321E
:1005A000892BC9F564EF71E080E090E00E94151797
:1005B00061EA71E089E296E00E94C5108091100125
:1005C000882329F1833019F111E026C088EE93E0E9
:1005D000189FA001199F500D11244115510539F0A4
:1005E00061E070E085E297E00E94BF22AECF80918B
:1005F00025070E948116892B29F485E297E00E9445
:10060000BA22A3CF85E297E00E94B5229ECF81E077
:100610008093D404D9CF10E0812F2C960FB6F89494
:10062000DEBF0FBECDBFDF91CF911F910F91FF9025
:10063000EF900895EF92FF920F931F93CF93DF9364
:10064000CDB7DEB76D970FB6F894DEBF0FBECDBF46
:100650008C017B01161617060CF03FC06091550502
:100660007091560546E050E0CE0101960E942B3372
:10067000FF92EF9284E192E09F938F937E0189E154
:10068000E80EF11CFF92EF920E943A33B701CE01BF
:1006900001960E940233BE016F5F7F4FCE014396E9
:1006A0000E94750DB801CE010D960E94750DBE0118
:1006B0006D5E7F4FCE010D960E94121CCE010D96ED
:1006C0000E94670DCE0143960E94670D0F900F9018
:1006D0000F900F900F900F9021C060E171E00E9489
:1006E000C91A18161906D4F46AE871E0CE010D96FD
:1006F0000E94750DB801CE0101960E94750DBE01D4
:10070000635F7F4FCE0101960E94121CCE010196BD
:100710000E94670DCE010D960E94670D6D960FB673
:10072000F894DEBF0FBECDBFDF91CF911F910F9127
:10073000FF90EF900895EF92FF920F931F93CF9346
:10074000DF93CDB7DEB7C756D1090FB6F894DEBF39
:100750000FBECDBF61E971E08091550590915605BE
:100760000E94EF32892B21F40E9496190E94BA242C
:1007700068E971E080915505909156050E94EF322D
:10078000892B81F5E0915305F091540586E0A0EEA8
:10079000B4E001900D928A95E1F71092E70480EEA3
:1007A00094E00E94B21B67E871E0CE01895B9F4F25
:1007B0000E94750D6091590570915A05CE01019600
:1007C0000E94750DBE01695B7F4FCE0101960E94AC
:1007D000121CCE0101960E94670DCE01895B9F4FCE
:1007E0000E94670D61E871E0809155059091560572
:1007F0000E94EF32892B51F40E94C001682F70E0F3
:100800008091590590915A050E941A0360EA71E09F
:1008100080915505909156050E94EF32892B31F554
:1008200081E08093380583E497E00E94BA2267E86C
:1008300071E0CE01895B9F4F0E94750D6091590553
:1008400070915A05CE0101960E94750DBE01695B3B
:100850007F4FCE0101960E94121CCE0101960E948C
:10086000670DCE01895B9F4F0E94670D6AEA71E0B8
:1008700080915505909156050E94EF32892B09F021
:100880005CC060EB72E0CE0101960E94750D01E044
:1008900010E09AE0F92EB801CE01895B9F4F0E94CB
:1008A000FA1C2D964EAD5FAD2D9729966EAD7FAD9E
:1008B0002997CE0101960E94EF0CCE01895B9F4FD4
:1008C0000E94670D2896FFAE289729961FAE29979C
:1008D00041E050E0BE01695B7F4FCE0101960E946E
:1008E000EF0C0F5F1F4F06301105A9F6BE016F5FB9
:1008F0007F4FCE018A5A9F4F0E946C0D609159051F
:1009000070915A05CE01895B9F4F0E94750DBE0103
:100910006A5A7F4FCE01895B9F4F0E94121CCE0105
:10092000895B9F4F0E94670DCE018A5A9F4F0E949C
:10093000670DCE0101960E94670D64EB71E0809116
:100940005505909156050E94EF32892B49F580910B
:10095000510590915205009153051091540500974F
:1009600011F440E003C00E94942F482F65E4C801B1
:100970000E944E1B8C01181619061CF40E94961931
:1009800008C042E350E068E070E083E497E00E9432
:10099000BF22B8018091590590915A050E941A030F
:1009A00068EB71E080915505909156050E94EF32F9
:1009B000892B09F064C040E065E480915305909173
:1009C00054050E944E1B31E020E0181619060CF069
:1009D00030E0032F122F8091510590915205892B01
:1009E00099F068EE73E080E090E00E94151740E017
:1009F00065E480915105909152050E944E1B181696
:100A0000190614F40F5F1F4F80914F059091500508
:100A1000892B99F068EE73E080E090E00E94151752
:100A200040E065E480914F05909150050E944E1B77
:100A30001816190614F40F5F1F4F80914D05909101
:100A40004E05892B99F068EE73E080E090E00E94FB
:100A5000151740E065E480914D0590914E050E9488
:100A60004E1B1816190614F40F5F1F4F0E9496199B
:100A7000B8018091590590915A050E941A036DEBB7
:100A800071E080915505909156050E94EF32892BB7
:100A9000E1F480915305909154050E9480138C01DC
:100AA000181619061CF40E94961908C042E350E07B
:100AB00068E070E083E497E00E94BF22B801809173
:100AC000590590915A050E941A0361EC71E08091DA
:100AD0005505909156050E94EF32892B79F580914A
:100AE0005305909154050E94942F8093DD046DED81
:100AF00074E08AE090E00E940323609153057091B6
:100B00005405CE01895B9F4F0E94750D6091590578
:100B100070915A05CE0101960E94750DBE01695B68
:100B20007F4FCE0101960E94121CCE0101960E94B9
:100B3000670DCE01895B9F4F0E94670D68EC71E0E5
:100B400080915505909156050E94EF32892B79F5D9
:100B500080915305909154050E94942F8093DE0458
:100B60006DED74E08AE090E00E94032360915305EC
:100B700070915405CE01895B9F4F0E94750D609165
:100B8000590570915A05CE0101960E94750DBE015E
:100B9000695B7F4FCE0101960E94121CCE01019627
:100BA0000E94670DCE01895B9F4F0E94670D6FEC1D
:100BB00071E080915505909156050E94EF32892B86
:100BC00009F03FC081E08093DB0481E090E09A83EC
:100BD0008983BE016F5F7F4F82E390E00E94032311
:100BE00080915305909154050E94942F9093D804BE
:100BF0008093D70467ED74E086E390E00E940323BE
:100C00000E94961967ED71E0CE01895B9F4F0E94AB
:100C1000750D6091590570915A05CE0101960E949B
:100C2000750DBE01695B7F4FCE0101960E94121CBB
:100C3000CE0101960E94670DCE01895B9F4F0E94F5
:100C4000670D6AED71E080915505909156050E94FF
:100C5000EF32892B51F51092DB041A821982BE0102
:100C60006F5F7F4F82E390E00E94032363EE71E0A9
:100C7000CE01895B9F4F0E94750D6091590570915F
:100C80005A05CE0101960E94750DBE01695B7F4F2A
:100C9000CE0101960E94121CCE0101960E94670DA2
:100CA000CE01895B9F4F0E94670D67EE71E08091D6
:100CB0005505909156050E94EF32892B89F5809158
:100CC0005305909154050E94942F21E0892B09F43B
:100CD00020E02093D90469ED74E08EE390E00E9457
:100CE000382467E871E0CE01895B9F4F0E94750D43
:100CF0006091590570915A05CE0101960E94750DBB
:100D0000BE01695B7F4FCE0101960E94121CCE018D
:100D100001960E94670DCE01895B9F4F0E94670D6F
:100D20006DEE71E080915505909156050E94EF326D
:100D3000892B79F580915305909154050E94942F49
:100D40008093DA040E9496196AED74E084E390E0DF
:100D50000E94382467E871E0CE01895B9F4F0E94B2
:100D6000750D6091590570915A05CE0101960E944A
:100D7000750DBE01695B7F4FCE0101960E94121C6A
:100D8000CE0101960E94670DCE01895B9F4F0E94A4
:100D9000670D65EF71E080915505909156050E94B1
:100DA000EF32892BA9F580915305909154050E944B
:100DB000942F21E0892B09F420E02093DC040E9489
:100DC00096196CED74E088E290E00E9438246091FE
:100DD000530570915405CE01895B9F4F0E94750D9C
:100DE0006091590570915A05CE0101960E94750DCA
:100DF000BE01695B7F4FCE0101960E94121CCE019D
:100E000001960E94670DCE01895B9F4F0E94670D7E
:100E10006BEF71E080915505909156050E94EF327D
:100E2000892B91F460E171E08091590590915A0508
:100E30000E94C91A9093EA048093E9046BEA71E076
:100E400089E296E00E94C51062E072E0809155054B
:100E5000909156050E94EF32892B09F059C080917C
:100E60005305909154050E94942F8C010E9496196D
:100E70006AEB71E089E296E00E94C510B80189E250
:100E800096E00E94461364EB71E089E296E00E94CE
:100E9000C51068EE73E080E090E00E94151766ECE4
:100EA00076E0CE0101960E948E10CE0101960E943E
:100EB000670D67E871E0CE01895B9F4F0E94750D59
:100EC0006091590570915A05CE0101960E94750DE9
:100ED000BE01695B7F4FCE0101960E94121CCE01BC
:100EE00001960E94670DCE01895B9F4F0E94670D9E
:100EF0009EE088E10FB6F894A895809360000FBE3D
:100F00009093600060ED77E080E090E00E9415171C
:100F10006CE571E080915505909156050E94EF3285
:100F2000892B91F480915305909154050E94942F40
:100F300021E0892B09F420E02093D50465ED74E0CD
:100F40008CE490E00E94382467E072E080915505BF
:100F5000909156050E94EF32892B81F480915305C0
:100F6000909154050E94942F9093E8048093E70495
:100F700067EE74E08EE490E00E9403236BE072E081
:100F800080915505909156050E94EF32892B09F00A
:100F900042C119828091DD041F928F9382E192E019
:100FA0009F938F938E01095B1F4F1F930F930E9496
:100FB0003A33B801CE0101960E940233F801108243
:100FC0008091DE041F928F9388E192E09F938F932C
:100FD0001F930F930E943A33B801CE0101960E94ED
:100FE0000233F80110828091D9041F928F938FE110
:100FF00092E09F938F931F930F930E943A33B8010F
:10100000CE0101960E940233F80110828091D5042E
:101010001F928F9387E2E82E82E0F82EFF92EF92E4
:101020001F930F930E943A33B801CE0101960E949C
:101030000233F80110828091E8048F938091E704D5
:101040008F93FF92EF921F930F930E943A33B80150
:10105000CE0101960E940233F80110828091DB04D8
:101060001F928F938BE292E09F938F931F930F9326
:101070000E943A330FB6F894DEBF0FBECDBFB80161
:10108000CE0101960E940233F80110828091DA04A9
:101090001F928F9385E392E09F938F931F930F93FB
:1010A0000E943A33B801CE0101960E940233F80142
:1010B00010828091D8048F938091D7048F938AE314
:1010C00092E09F938F931F930F930E943A33B8013E
:1010D000CE0101960E940233F80110828091060829
:1010E0001F928F938FE392E09F938F931F930F93A1
:1010F0000E943A33B801CE0101960E940233F801F2
:1011000010821F921F9287E492E09F938F931F9308
:101110000F930E943A33B801CE0101960E94023328
:10112000F8011082CE018A5A9F4F0E9418246A96B5
:101130008FAD6A971F928F9367968FAD67971F92B7
:101140008F9368968FAD68971F928F9369968FAD36
:1011500069971F928F938CE492E09F938F931F93D4
:101160000F930E943A330FB6F894DEBF0FBECDBF87
:10117000B801CE0101960E940233F80110826B96ED
:101180008FAD6B978A3028F41F928F938AE592E097
:1011900004C01F928F9388E292E09F938F931F93D6
:1011A0000F930E943A330F900F900F900F900F9073
:1011B0000F90B801CE0101960E940233F80110820F
:1011C0006EE572E0CE0101960E940233BE016F5FB0
:1011D0007F4FCE018E599F4F0E94750D609159052A
:1011E00070915A05CE01845A9F4F0E94750DBE0121
:1011F0006E597F4FCE01845A9F4F0E94121CCE0120
:10120000845A9F4F0E94670DCE018E599F4F0E94B6
:10121000670D0E94961967E672E0809155059091DE
:1012200056050E94EF32892B89F5809153059091E4
:1012300054050E94942F21E0892B09F420E020938B
:10124000060866E078E088EC90E00E94382467E8C1
:1012500071E0CE01895B9F4F0E94750D6091590529
:1012600070915A05CE0101960E94750DBE01695B11
:101270007F4FCE0101960E94121CCE0101960E9462
:10128000670DCE01895B9F4F0E94670D6BE672E090
:1012900080915505909156050E94EF32892BD1F52A
:1012A0000E94961980915305909154050E94942FA5
:1012B00020910B0830910C08280F391F253F314031
:1012C0004CF5909308088093070867E078E08EE675
:1012D00090E00E94032367E871E0CE01895B9F4F95
:1012E0000E94750D6091590570915A05CE010196C5
:1012F0000E94750DBE01695B7F4FCE0101960E9471
:10130000121CCE0101960E94670DCE01895B9F4F92
:101310000E94670D61E772E0809155059091560536
:101320000E94EF32892B09F04FC01982609153055A
:101330007091540544E150E0CE0101960E942B3398
:10134000CE0101967C0102ED10E0F70161917F0171
:1013500029961FAF0EAF2997CE01895B9F4F0E9440
:1013600018020F5F1F4F063E110579F78091510556
:10137000909152050E94942F682F8DEC90E00E946E
:101380005B30BE016F5F7F4FCE018A5A9F4F0E9434
:10139000750D6091590570915A05CE01895B9F4F7B
:1013A0000E94750DBE016A5A7F4FCE01895B9F4F27
:1013B0000E94121CCE01895B9F4F0E94670DCE01D7
:1013C0008A5A9F4F0E94670D64E772E0809155052D
:1013D000909156050E94EF32892B11F581E08093A0
:1013E000050867E871E0CE01895B9F4F0E94750D8B
:1013F0006091590570915A05CE0101960E94750DB4
:10140000BE01695B7F4FCE0101960E94121CCE0186
:1014100001960E94670DCE01895B9F4F0E94670D68
:101420006AE772E080915505909156050E94EF326F
:10143000892B09F052C0A4961FAE1EAEA4976E96DB
:101440001FAE1EAE6E97BE01645A7F4FCE018E59FD
:101450009F4F0E94131319826E968FAD6E978F93D4
:101460006D968FAD6D978F93A4968FADA4978F9344
:10147000A3968FADA3978F9381E892E09F938F936C
:101480008E010F5F1F4F1F930F930E943A33B801D5
:10149000CE018A5A9F4F0E94750D60915905709137
:1014A0005A05CE01895B9F4F0E94750DBE016A5A95
:1014B0007F4FCE01895B9F4F0E94121CCE01895B3A
:1014C0009F4F0E94670DCE018A5A9F4F0E94670D61
:1014D0000FB6F894DEBF0FBECDBF6BE872E080910F
:1014E0005505909156050E94EF32892B71F5CE017A
:1014F00001960E94B918BE016F5F7F4F8EEF97E093
:101500000E948E0CCE0101960E94670D6EEF77E06F
:10151000CE01895B9F4F0E946C0D609159057091BF
:101520005A05CE0101960E94750DBE01695B7F4F81
:10153000CE0101960E94121CCE0101960E94670DF9
:10154000CE01895B9F4F0E94670DC959DF4F0FB6CF
:10155000F894DEBF0FBECDBFDF91CF911F910F91E9
:10156000FF90EF900895089540913C0550913D05FE
:1015700020913A0530913B0542175307B4F49091FE
:10158000E8009570E1F39091E80092FD19C0809316
:10159000F10080913C0590913D0501968F7399274C
:1015A000892B19F48EEF8093E80080913C0590918F
:1015B0003D05019690933D0580933C0581E008959B
:1015C00080E00895DF92EF92FF920F931F93CF93E5
:1015D000DF93D82EF92EE42E062F10E0C8010196D5
:1015E000880F0E94B40A83E00E94B40ACD2DDF2D3B
:1015F0000C0F1D1FC017D10789F0E7FE03C0FE01C5
:10160000849101C088810E94B40AF82E80E00E9473
:10161000B40A8F2121968111EDCF01C081E0DF91C5
:10162000CF911F910F91FF90EF90DF900895DF927F
:10163000EF92FF920F931F93CF93DF93D82E8A01DF
:101640007B01E40EF51EEB01CE15DF0571F0D7FE30
:1016500003C0FE01849101C088810E94B40A2196D2
:101660008111F2CF8FEF9FEF01C0C801DF91CF91C1
:101670001F910F91FF90EF90DF900895615030F02F
:101680002091F100FC0120830196F8CF289884E690
:1016900080934B050895CF92DF92EF92FF920F93C4
:1016A0001F93CF93DF936C017A018B01C0E0D0E0F0
:1016B000CE15DF0581F0D8016D918D01D601ED9138
:1016C000FC910190F081E02DC6010995892B11F064
:1016D0002196EECF7E01C701DF91CF911F910F912F
:1016E000FF90EF90DF90CF900895FC01538D448DD3
:1016F000252F30E0842F90E0821B930B541710F0BD
:10170000CF96089501970895FC01918D828D9817C9
:1017100061F0828DDF01A80FB11D5D968C91928DD5
:101720009F5F9F73928F90E008958FEF9FEF0895D2
:10173000FC01918D828D981731F0828DE80FF11D9B
:10174000858D90E008958FEF9FEF0895FC01918DB6
:10175000228D892F90E0805C9F4F821B91098F73AF
:101760009927089589E296E00E94A60B21E0892B33
:1017700009F420E0822F08950E94E1320F931F9315
:10178000CF93DF931F92CDB7DEB782E0898342E427
:1017900050E063EC71E080E80E94170B0E946D1628
:1017A000DC0112960D911C9113970115110589F01A
:1017B000D801ED91FC910280F381E02DBE016F5FB5
:1017C0007F4FC801099597FD04C0F8010085118578
:1017D000ECCF89810F90DF91CF911F910F910895E8
:1017E0000F931F93CF93DF93EC010E94AB17688791
:1017F00079878A879B87E881F9810284F385E02DC8
:10180000CE01099597FF17C00E94AB17088519856F
:101810002A853B85DC01CB01801B910BA20BB30B0E
:101820000C811D812E813F8180179107A207B3078C
:1018300010F38FEF9FEFDF91CF911F910F910895DC
:10184000EF92FF920F931F93CF93DF93EC0181E010
:10185000888F9B8D8C8D981305C0E889F9898081CC
:1018600085FD26C0F62E0B8D10E00F5F1F4F0F7306
:101870001127E02E8C8DE8120CC00FB607FCFACFB2
:10188000E889F989808185FFF5CFCE010E949422F5
:10189000F1CF8B8DFE01E80FF11DE35AFF4FF0826F
:1018A0009FB7F8940B8FEA89FB898081806209C019
:1018B0009FB7F894EE89FF896083E889F989808170
:1018C000827480839FBF81E090E0DF91CF911F9170
:1018D0000F91FF90EF900895CF93DF93EC01888DE7
:1018E0008823C9F0EA89FB89808185FD05C0A88924
:1018F000B9898C9186FD0FC00FB607FCF5CF8081AA
:1019000085FFF2CFA889B9898C9185FFEDCFCE01F3
:101910000E949422E7CFDF91CF9108950F931F93F8
:10192000CF93DF938C01EB01FC01808191810097C3
:1019300039F06881798161157105A1F40E949231B5
:1019400088819981F801918380838A819B81938327
:1019500082838C819D8195838483198218821B8266
:101960001A820FC0F801428153812C813D814217B8
:10197000530720F30E9416338C819D81F8019583D3
:1019800084831D821C82DF91CF911F910F91089556
:101990000F931F93CF93DF93EC0188819981009778
:1019A00029F02A813B812617370788F48B016F5F66
:1019B0007F4F0E941B32009761F0998388831B83BD
:1019C0000A832C813D81232B11F4FC01108281E0DC
:1019D00001C080E0DF91CF911F910F910895EF92A8
:1019E000FF920F931F93CF93DF936115710511F44D
:1019F00080E01CC041155105C1F07B01EC018C81D8
:101A00009D818A01080F191FB801CE010E94C80CE0
:101A1000882371F3288139818C819D81B701820FE0
:101A2000931F0E9416331D830C8381E0DF91CF91B9
:101A30001F910F91FF90EF900895CF93DF93EC01EA
:101A400088819981009711F00E9492311982188241
:101A50001D821C821B821A82DF91CF910895EF9222
:101A6000FF920F931F93CF93DF93EC017B018A01C9
:101A7000BA010E94C80C811104C0CE010E941D0D44
:101A800007C01D830C83B701888199810E9416339A
:101A9000CE01DF91CF911F910F91FF90EF900895AC
:101AA000CF93DF93EC01FB018617970761F060810C
:101AB00071816115710529F0448155810E942F0DB6
:101AC00002C00E941D0DCE01DF91CF910895FC014F
:101AD000808191810C949231FC01118210821382D9
:101AE0001282158214820C94500DFC011182108216
:101AF00013821282158214826115710551F0FB0167
:101B000001900020E9F73197AF01461B570B0C9469
:101B10002F0D0895BF92CF92DF92EF92FF920F9315
:101B20001F93CF93DF937C016B01EA018901241796
:101B3000350720F48D2FE901042F182F60EB72E098
:101B4000C7010E94750DD60114968D919C91159731
:101B5000C817D90740F58017910708F48C01D60102
:101B6000ED91FC911197E00FF11FB08010826D9103
:101B70007C916C0F7D1F6115710561F0FB01019077
:101B80000020E9F73197AF01461B570BC7010E94B0
:101B90002F0D03C0C7010E941D0DD601ED91FC91D0
:101BA000E00FF11FB082C701DF91CF911F910F911C
:101BB000FF90EF90DF90CF90BF9008951F920F920B
:101BC0000FB60F9211248F939F938091E100909113
:101BD000E100937F9093E10083FF0FC01092E90032
:101BE00091E09093EB001092EC0092E39093ED0063
:101BF00010924C0598E09093F00082FF20C093E093
:101C00009093E9009091F200992319F09AE3909350
:101C1000E80090913905992339F090913905915058
:101C200090933905992389F190914B05992339F0C7
:101C300090914B05915090934B05992341F184FF6E
:101C400010C08091E2008E7E81608093E2008091DE
:101C5000E1008F7E8093E1008091D2048E7E8061CE
:101C600011C080FF16C08091E2008E7E806180935B
:101C7000E2008091E1008E7E8093E1008091D204A9
:101C80008E7E81608093D20404C05D9ACDCF289A65
:101C9000D6CF9F918F910F900FBE0F901F901895E8
:101CA0001F920F920FB60F921124CF92DF92EF92F4
:101CB000FF920F931F932F933F934F935F936F93D5
:101CC0007F938F939F93AF93BF93EF93FF93CF93A4
:101CD000DF93CDB7DEB76C97DEBFCDBF1092E900C2
:101CE0008091E80083FFFBC168E0CE0145960E9429
:101CF0003E0B82EF8093E8008D8987FF05C09091AD
:101D0000E80090FFFCCF03C09EEF9093E800982F6F
:101D1000907609F0C6C09E894F89588D2F89F88C1E
:101D200091110CC0803829F48091D3048093F10084
:101D300002C01092F1001092F10045C1913051F4AF
:101D4000811141C14130510509F03DC18091D30459
:101D50008D7F0BC0933061F4811135C14130510545
:101D600009F031C18091D30482608093D3042BC1E8
:101D7000953049F48091E80080FFFCCF822F806885
:101D80008093E30020C1963009F05EC00B8D1C8D5E
:101D900022E01092E90010923D0510923C05F212EB
:101DA00032C010923B0510923A050E94BE0B99E09A
:101DB000BE016F5F7F4FDB01E92F1D92EA95E9F7C6
:101DC0009983FA8291E09E8390EA98879AEF9987A7
:101DD00020913C0530913D05275F3F4F3C832B838D
:101DE0008D831092E90010923D0510923C051093EE
:101DF0003B0500933A0549E050E080E00E94170B54
:101E00000E94BE0BE0C010933B0500933A050E9470
:101E10006D16DC0112960D911C9113970115110599
:101E200009F4BBC0D801ED91FC910480F581E02D4F
:101E3000BE016B5E7F4FC8010995009709F0C7C0CE
:101E4000F80100851185EACF973009F445C1983033
:101E500021F481E08093F100B6C0993009F0B3C05D
:101E6000837009F039C1E8E1F1E081E031E096E307
:101E70002081211109C08EE78093EA001092EA00C8
:101E80008F8980934C059FC08093E9003093EB00CD
:101E900021912093EC009093ED008F5F873041F704
:101EA000EACF8B8D9C8D1092E90010923D05109227
:101EB0003C0590933B0580933A05898D811153C071
:101EC0008E899D89913A49F4813209F005C147E034
:101ED00050E068E071E080E0BBC0913209F0FCC0E6
:101EE000833269F48F89988DA0E0B0E0809304017B
:101EF00090930501A0930601B093070164C080325E
:101F000069F48091E80082FFFCCF67E088E091E00F
:101F10000E943E0B8BEF8093E80055C0823209F09F
:101F200052C08F8980930F01EEEFFFE78591949166
:101F30008B3F9C4D19F0E0E0F8E002C0EEEFFAE0D4
:101F40008091080190910901A0910A01B0910B01C3
:101F5000803B9440A105B10509F09EC080910F011E
:101F600080FF79C099C00E946D16FC010281138127
:101F70000115110509F4B0C0D801ED91FC91019053
:101F8000F081E02DBE016B5E7F4FC8010995811184
:101F90001AC0F80100851185EBCFF1E0FF1609F4B6
:101FA0004EC0F3E0FF1298C08F89882309F44AC01D
:101FB000823089F440E862E184E292E00E94E20A21
:101FC000882309F489C08EEF8093E80088C0181632
:101FD0001906CCF381C0813029F440E868E08BE138
:101FE00092E0ECCF833009F077C00E946D16DC01DF
:101FF0001296ED90FC9013978E010F5F1F4F6801B2
:10200000E114F10479F0D701ED91FC910680F7819C
:10201000E02DB801C7010995080F111DF701E084F3
:10202000F184EECFD8011C92F60101900020E9F76F
:102030003197BF016C197D0940E0C601BFCF69E04F
:1020400072E002C065E072E0FB01449150E080E87C
:102050000E94170BB8CFEE3F2AE0F20751F08081C3
:1020600091818737A7E79A0721F09093FF0A809321
:10207000FE0A87E797E791838083809160008093D1
:102080003E059BE088E10FB6F894A8958093600028
:102090000FBE9093600097CF8081918187379747DB
:1020A00009F091CFA89580916000886180936000CD
:1020B00080913E0580936000EE3FBAE0FB0739F067
:1020C0008091FE0A9091FF0A918380837CCF1092C9
:1020D000FF0A1092FE0A77CF81E28093EB006C96A4
:1020E0000FB6F894DEBF0FBECDBFDF91CF91FF9149
:1020F000EF91BF91AF919F918F917F916F915F9180
:102100004F913F912F911F910F91FF90EF90DF9092
:10211000CF900F900FBE0F901F901895EF92FF92E7
:102120000F931F93CF93DF9300D0CDB7DEB78C0111
:102130007B0160EB72E00E94750DC7010E94F00BFD
:1021400097FD0BC089831A8241E050E0BE016F5FAA
:102150007F4FC8010E94EF0CF0CFC8010F900F9085
:10216000DF91CF911F910F91FF90EF900895DB01C8
:1021700014964D915C9115976D917C91DC01ED91D8
:10218000FC910280F381E02D0994EF92FF920F936E
:102190001F93CF93DF938C017B01C0E0D0E0F70168
:1021A000EC0FFD1F6491662361F0D801ED91FC9165
:1021B0000190F081E02DC8010995892B11F021963D
:1021C000EECFCE01DF91CF911F910F91FF90EF9055
:1021D00008956115710579F0FB0101900020E9F780
:1021E0003197AF01461B570BDC01ED91FC9102804A
:1021F000F381E02D099480E090E008958F929F9202
:10220000AF92BF92EF92FF920F931F93CF93DF9302
:10221000CDB7DEB7A1970FB6F894DEBF0FBECDBF26
:102220007C01FA01CB0119A2223008F42AE08E01C8
:102230000F5D1F4F822E912CA12CB12CBF01A50147
:1022400094010E94BA30F901CA01015011096A30A3
:1022500014F4605D01C0695CD8016C93232B242BBE
:10226000252B61F7B801C7010E94E910A1960FB6AE
:10227000F894DEBF0FBECDBFDF91CF911F910F91BC
:10228000FF90EF90BF90AF909F908F9008956EEA6F
:1022900072E00C94E9100F931F93CF93DF93EC013E
:1022A0000E94B7108C01CE010E944711800F911F30
:1022B000DF91CF911F910F9108950C94E9101F9217
:1022C0000F920FB60F9211242F933F934F935F936A
:1022D0006F937F938F939F93AF93BF93EF93FF93EE
:1022E00089E296E00E949422FF91EF91BF91AF9115
:1022F0009F918F917F916F915F914F913F912F911E
:102300000F900FBE0F901F9018951F920F920FB64F
:102310000F9211242F938F939F93EF93FF93E0914C
:102320003906F0913A068081E0913F06F09140062F
:1023300082FD12C09081809142068F5F8F73209141
:102340004306821751F0E0914206F0E0E75DF94F55
:10235000958F8093420601C08081FF91EF919F91FC
:102360008F912F910F900FBE0F901F90189585EDB4
:102370008093BC008091BC0084FDFCCF1092F905D5
:10238000089540918C05262F30E0240F311D213215
:102390003105DCF42091F9052430C9F4FC0180E01A
:1023A00090E0861758F430918C052191DC01A459F6
:1023B000BA4FA30FB11D2C930196F3CF80918C05DA
:1023C000680F60938C0580E0089581E0089582E0B5
:1023D000089508950895E091B2058091B105E81738
:1023E00030F4F0E0ED54FA4F808190E008958FEFE3
:1023F0009FEF08959091B2058091B105981750F420
:10240000E92FF0E0ED54FA4F208130E09F5F909388
:10241000B20502C02FEF3FEFC90108958091B105C9
:1024200090E02091B205821B91090895CF92DF922E
:10243000EF92FF920F931F93CF93DF937C01CB0119
:102440008A012091FA05222389F0EB016B01C40E69
:10245000D51ECC15DD0569F06991D701ED91FC9190
:102460000190F081E02DC7010995F3CF642F0E9400
:10247000C111C801DF91CF911F910F91FF90EF9093
:10248000DF90CF900895CF93DF931F92CDB7DEB743
:1024900069832091FA052223D1F020911C06203275
:1024A00040F021E030E0FC013383228380E090E0C3
:1024B00015C08091FB05E82FF0E0E450FA4F9981B8
:1024C00090838F5F8093FB0580931C0605C061E0BD
:1024D000CE0101960E94C11181E090E00F90DF9142
:1024E000CF91089590E0FC013197EF30F105B0F500
:1024F000EA5AFF4F0C94DC30809180008F7703C044
:10250000809180008F7D809380000895809180006D
:10251000877FF9CF84B58F7702C084B58F7D84BD66
:102520000895809190008F7707C0809190008F7DF3
:1025300003C080919000877F8093900008958091E0
:10254000C0008F7703C08091C0008F7D8093C00052
:1025500008958091C200877F8093C20008953FB79D
:10256000F8948091430590914405A0914505B09160
:10257000460526B5A89B05C02F3F19F00196A11D61
:10258000B11D3FBFBA2FA92F982F8827820F911D09
:10259000A11DB11DBC01CD0142E0660F771F881F50
:1025A000991F4A95D1F708951F93CF93DF93D82FA2
:1025B000C1E017E289E296E00E94A60B1816190600
:1025C00074F58091610781112AC089E296E00E942A
:1025D000840B9091B0059923E9F0E091AF058A3022
:1025E00071F0AE2FB0E0AE52B84F8C93EF5FE8328F
:1025F00018F4E093AF05DECF1093AF05DBCFF0E02A
:10260000EE52F84F10821092B0051092AF05C093B1
:102610006107D0CF8D13CECFC093B005CBCFDF9164
:10262000CF911F910895DF92EF92FF920F931F9326
:10263000CF93DF938C017B01C0E0D0E087E0D82E00
:102640002091520730915307D29EC001D39E900D26
:1026500011248C179D0794F0CE010E94101A882334
:1026600059F0CD31D10514F4F80101C0F701808192
:1026700091810196918380832796E2CFDF91CF915C
:102680001F910F91FF90EF90DF900895CF92DF920E
:10269000EF92FF920F931F93CF93DF936B01770F0E
:1026A000EE08FF08F7FE1FC0EC01E881F9810190F8
:1026B000F081E02D6DE209958C0144275527BA0180
:1026C0004C195D096E097F092AE0CE010E94FE10B7
:1026D000800F911FDF91CF911F910F91FF90EF908D
:1026E000DF90CF9008952AE0B701A601DF91CF9146
:1026F0001F910F91FF90EF90DF90CF900C94FE1000
:10270000CF92DF92EF92FF920F931F93CF93DF93BD
:102710001F92CDB7DEB71982BE016F5F7F4F0E9457
:10272000C91A7C01019727E0289F6001299FD00CDE
:10273000112400E010E060E0C8018C0D9D1D0E9496
:102740009E190F5F1F4F07301105A9F7C7010F90A2
:10275000DF91CF911F910F91FF90EF90DF90CF907D
:102760000895BC0189E296E00C94B710CF93DF93F3
:10277000BC0186EC96E00E944613EC0186EC96E0E4
:102780000E9447118C0F9D1FDF91CF9108959F925A
:10279000AF92BF92CF92DF92EF92FF920F931F936F
:1027A000CF93DF9300D0CDB7DEB76C01B62E7A01A0
:1027B0001A821982BE016F5F7F4F80E590E00E9410
:1027C0002A2389819A818C5E9A4F2DE0289F80016F
:1027D000299F100D1124B801C6010E94C619F701E6
:1027E000A0809180C380D4806281C80107960E9436
:1027F0009E19692DC80108960E949E196A2DC8016C
:1028000009960E949E196C2DC8010A960E949E1975
:102810006D2DC8010B960E949E196B2DC8010C9658
:102820000E949E1989819A810196843FF1E09F0759
:1028300019F09A83898302C01A821982BE016F5FE0
:102840007F4F80E590E00E9403230F900F90DF916F
:10285000CF911F910F91FF90EF90DF90CF90BF909D
:10286000AF909F9008954F925F926F928F929F9238
:10287000AF92BF92CF92DF92EF92FF921F93CF93CE
:10288000DF9310925A051092590510925805109234
:102890005705109256051092550510925405109246
:1028A0005305109252051092510510925005109246
:1028B0004F0510924E0510924D05DC01ED91FC91F3
:1028C000908190935B0580915407813529F494356C
:1028D000E1F0913561F41BC08C3439F49435D1F0BA
:1028E000913549F09934E9F406C09435A9F013E024
:1028F000933411F414C012E0892F8D7F893479F05C
:102900009B7F913509F06CC00AC0C7E006C0C0E0EB
:1029100012E00CC0C8E001C0C0E013E007C0C0E096
:1029200005C0933409F05AC0C0E018E068E572E0D1
:10293000CF010E94E02F612CD0E04E01B4E08B0E5D
:10294000911C2E0125E0420E511C7E01A6E0EA0EEC
:10295000F11C6E01B7E0CB0ED11C5E0128E0A20E87
:10296000B11C29960097E1F16394611204C0909321
:102970005A0580935905262D30E02815390521F494
:1029800090935805809357052415350521F49093AD
:102990005605809355052E153F0521F49093540557
:1029A000809353052C153D0521F490935205809397
:1029B00051052A153B0521F49093500580934F054E
:1029C0002C173D0721F490934E0580934D0560E947
:1029D00072E080E090E00E94E02FC4CF13E08CCF43
:1029E000DF91CF911F91FF90EF90DF90CF90BF903C
:1029F000AF909F908F906F905F904F90089520912F
:102A00004C05211103C08FEF9FEF08955FB7F89435
:102A100022E02093E9002091F20030E01216130624
:102A200014F421E030E0422FFC0184E6415038F0FC
:102A3000289880934B059091F1009193F7CF211541
:102A4000310521F08091F200882319F05FBFC901A0
:102A500008958BE68093E800F9CF2FB7F89483E0D0
:102A60008093E9009091E800892F807295FF04C05F
:102A70009091F20080E4891B2FBF08951F920F925E
:102A80000FB60F9211242F933F934F935F936F9341
:102A90007F938F939F93AF93BF93EF93FF93809117
:102AA000B900887F803609F49CC068F5883209F443
:102AB0005BC090F4803109F454C038F4882309F4E1
:102AC000F6C0883009F44DC0F6C0883109F44CC016
:102AD000803209F45DC0EFC0803409F468C048F466
:102AE000803309F455C0883309F0E5C08093F705B9
:102AF000D8C0803509F44FC0883509F45DC08834EA
:102B000009F0D9C0D6C0883909F4C7C0A8F48837FD
:102B100009F467C038F4883609F463C0803709F4D3
:102B200060C0C9C0883809F4B8C0803909F45FC0F2
:102B3000803809F0C0C05BC0803B09F486C038F41F
:102B4000803A09F466C0883A09F47FC0B4C0803C7A
:102B500009F4A7C0883C09F4A4C0883B09F48AC0E2
:102B6000AAC08091D40510C09091F6058091F5051A
:102B7000981770F5E091F60581E08E0F8093F605C9
:102B8000F0E0EB52FA4F80818093BB0085EC86C069
:102B90008093F7058EC0E091F60581E08E0F80935B
:102BA000F6058091BB00F0E0EB52FA4F80839091E4
:102BB000F6058091F5056EC0E091F60581E08E0F77
:102BC0008093F6058091BB00F0E0EB52FA4F8083D2
:102BD0008091F80581116DC081E08093D30584EA6E
:102BE00061C083E08093F9051092AE05CFCF80914C
:102BF000AE05803208F051C0E091AE0581E08E0F45
:102C00008093AE058091BB00F0E0E257FA4F8083DD
:102C1000BDCF85EC8093BC001092F9058091AE0584
:102C2000803230F4E091AE05F0E0E257FA4F1082C6
:102C30006091AE0570E0E0914905F0914A058EE89B
:102C400095E009951092AE0536C084E08093F905B1
:102C500010928D0510928C05E0914705F091480582
:102C6000099580918C05811105C081E080938C05C8
:102C700010926C05E0918D0581E08E0F80938D059B
:102C8000F0E0E459FA4F80818093BB0090918D056C
:102C900080918C05981708F479CF85E88093BC0063
:102CA0000AC085EC8093BC001092F90504C0109214
:102CB000F7050E94B711FF91EF91BF91AF919F91DE
:102CC0008F917F916F915F914F913F912F910F90D5
:102CD0000FBE0F901F901895089580916405811183
:102CE0000DC082E08093600584E0809361051092BE
:102CF00063051092620581E08093640580E695E0AB
:102D00000895CF93DF93282F30E0F901E156FD4F6E
:102D10008491F901E058FD4FD491F901EF59FD4F2D
:102D2000C491CC2391F081110E947212EC2FF0E03B
:102D3000EE0FFF1FED5AFD4FA591B491EC91ED23DD
:102D400081E090E021F480E002C080E090E0DF913B
:102D5000CF9108951F93CF93DF93282F30E0F9018F
:102D6000E156FD4F8491F901E058FD4FD491F901EE
:102D7000EF59FD4FC491CC23C1F0162F81110E9451
:102D80007212EC2FF0E0EE0FFF1FEB5BFD4FA591F1
:102D9000B4919FB7F894111104C08C91D095D823A9
:102DA00002C0EC91DE2BDC939FBFDF91CF911F918E
:102DB0000895CF93DF9390E0FC01E058FD4F2491FC
:102DC000FC01EF59FD4F8491882361F190E0880F59
:102DD000991FFC01E95CFD4FC591D491FC01EB5BAF
:102DE000FD4FA591B491611109C09FB7F8948881F6
:102DF000209582238883EC912E230BC0623061F4EE
:102E00009FB7F8948881322F309583238883EC9183
:102E10002E2B2C939FBF06C08FB7F894E8812E2BE2
:102E200028838FBFDF91CF9108958F929F92AF92A9
:102E3000BF92CF92DF92EF92FF926B017C010E94D2
:102E4000AF124B015C01C114D104E104F104F1F0B3
:102E50000E94AF12DC01CB0188199909AA09BB09AC
:102E6000883E9340A105B10570F321E0C21AD10854
:102E7000E108F10888EE880E83E0981EA11CB11CC1
:102E8000C114D104E104F10419F7DDCFFF90EF90F4
:102E9000DF90CF90BF90AF909F908F900895CF9389
:102EA000DF93EC0169E972E089E296E00E945D112E
:102EB000BE0189E296E00E94461367EA72E089E269
:102EC00096E00E945D1160ED77E080E090E0DF9198
:102ED000CF910C941517FF920F931F93CF93DF930D
:102EE0008C01F62EEA0161EB72E089E296E00E9425
:102EF0005D1164EF71E080E090E00E941517F11021
:102F000003C068ED72E002C06FEC72E089E296E007
:102F10000E94C510B80189E296E00E94B71066ECE5
:102F200072E089E296E00E94C510BE0189E296E057
:102F30000E94B71060EC72E089E296E00E94C51032
:102F40006DEB72E089E296E0DF91CF911F910F91D6
:102F5000FF900C94C5102FB7F89460913F057091C5
:102F6000400580914105909142052FBF0895CF9271
:102F7000DF92EF92FF920E943E236B017C010E9440
:102F8000AB1728EE33E040E050E00E94BA30C21A9E
:102F9000D30AE40AF50AC0925C05D0925D05E0927E
:102FA0005E05F0925F05FF90EF90DF90CF9008955F
:102FB0000F931F93CF93DF93EC01092E000CAA0B04
:102FC000BB0B8093470790934807A0934907B093A2
:102FD0004A070E94AB17AB01BC0180914E0790914C
:102FE0004F07A0915007B09151078A019B01081B20
:102FF000190B2A0B3B0B8091470790914807A09132
:103000004907B0914A07081719072A073B0758F1E3
:1030100080914507811113C081E080934507C43F2B
:1030200081E0D80774F0CE01845F9140092E000C36
:10303000AA0BBB0B481B590B6A0B7B0B02C01092EF
:10304000450740934E0750934F0760935007709386
:1030500051076091450780914307DF91CF911F9100
:103060000F910C94AA16DF91CF911F910F910895A3
:10307000CF93DF93EC01109256071092550789E227
:1030800096E00E94A60B892BB9F480915507909188
:103090005607803E9E4284F46DE070E080E090E050
:1030A0000E941517809155079091560701969093AD
:1030B000560780935507E3CF89E296E00E94A60B5E
:1030C000892B31F069E276E0CE010E948E1005C0B6
:1030D00060EB72E0CE010E94750DCE01DF91CF91C1
:1030E0000895CF92DF92EF92FF920F931F93CF93A9
:1030F000DF9300D000D000D0CDB7DEB77C016C5E8E
:103100007A4F8DE0869F6001879FD00C112460EB81
:1031100072E0C7010E94750D00E010E0C8018C0D3F
:103120009D1D0E94101AA801682FCE0101960E94D1
:10313000731C4D815E8169817A81C7010E94EF0C09
:10314000CE0101960E94670D0F5F1F4F0D301105D4
:1031500029F7C70126960FB6F894DEBF0FBECDBF84
:10316000DF91CF911F910F91FF90EF90DF90CF9063
:1031700008950F931F93CF93DF9300D000D000D01A
:10318000CDB7DEB78C0169E276E0CE0101960E94F0
:103190008E10CE0101960E94670D64E670E080E01B
:1031A00090E00E94151760EE72E089E296E00E94BE
:1031B000C51068EE73E080E090E00E94151788E388
:1031C0000E94D41280916107882329F01092610730
:1031D00062ED77E002C065EC72E0C8010E94750DF7
:1031E000C80126960FB6F894DEBF0FBECDBFDF91A3
:1031F000CF911F910F910895282F30911C063132E5
:1032000008F04AC08091F9058111FCCF9091040823
:1032100042E04093F9052093F8052FEF2093F7053E
:103220001092F6053093F505ECEFF5E0A5EDB5E06D
:1032300020E0321721F041914D932F5FFACF109289
:10324000D4052091D405990F922B9093D405909199
:10325000D305913061F41092D3059091D4059093E9
:10326000BB009091BC0093FDF8CF95EC01C095EEAA
:103270009093BC009091F9059230E1F39091F7059D
:103280009F3F79F08091F705803241F08091F705FA
:10329000803331F084E005C081E003C082E001C0EA
:1032A00083E01092FB0510921C061092FA05089517
:1032B000682F8DE196E00C944312EF92FF920F93EA
:1032C0001F93CF93DF93CDB7DEB729970FB6F8944E
:1032D000DEBF0FBECDBF8C01862FF8011182108298
:1032E00013821282158214824AE09E012F5F3F4FA3
:1032F0007901B90190E00E942930F7010190002086
:10330000E9F73197AF014E195F09B701C8010E9473
:103310002F0D29960FB6F894DEBF0FBECDBFDF91FB
:10332000CF911F910F91FF90EF90089548EC50E0DE
:1033300064E070E083E497E00C94BF221F93CF9386
:10334000DF93EC01162F81E08093FA0580E58093EE
:1033500004081092FB0510921C068D2F90E00E942D
:103360005819CE0199270E945819612F8DE196E0D6
:103370000E94431281E00E94FC1864E170E080E04A
:1033800090E0DF91CF911F910C941517CF92DF92AF
:10339000EF92FF920F931F93CF93DF938B010097D0
:1033A00029F07C0182E0C82ED12C1CC0C0E0D0E006
:1033B00060E0CE01800F911F0E949E192196C630B9
:1033C000D105B1F724C0CE010E94923182E0E80E0F
:1033D000F11C82E0C80ED11C0F5F1F4F8EE0C81693
:1033E000D104A9F082E090E00E94FA30EC0118824A
:1033F000A601B7010E94E6321A82CE010E94942FE4
:10340000682FC8010E949E192097E9F6DFCFDF914F
:10341000CF911F910F91FF90EF90DF90CF90089583
:10342000CF93DF93EC0181E08093FA0580E58093F0
:1034300004081092FB0510921C068D2F90E00E944C
:103440005819CE0199270E94581981E00E94FC1852
:103450008091F9058111FCCF81E08093F90580937B
:10346000F8059FEF9093F7051092F6051092F50579
:103470008093D4058091D405806A8093D40580918F
:10348000D305813061F41092D3058091D4058093E7
:10349000BB008091BC0083FDF8CF85EC01C085EEB8
:1034A0008093BC008091F9058130E1F38091F605AD
:1034B000811103C09091F60501C091E0A5EDB5E042
:1034C000E3EBF5E080E0891721F02D9121938F5FE8
:1034D000FACF1092B2058093B105882329F08DE1CF
:1034E00096E00E94FA1101C08FEFDF91CF9108950D
:1034F000CF92DF92EF92FF920F931F93CF93DF93C0
:10350000E0905207F0905307853441F0833549F03D
:10351000813469F485E0E82EF12C09C0C6E0D0E0E2
:1035200008C0E701219685E0E80EF11C02C0C1E069
:10353000D0E0CE01019727E0289F8001299F100D40
:103540001124EC16FD06D4F0680187E0C80ED11CEA
:103550000C151D051CF021968601F3CFC8010E94B1
:10356000101A8111F8CFC80101968C159D059CF7A2
:103570000E94101A8111EFCFCE0102C080E090E0CE
:10358000DF91CF911F910F91FF90EF90DF90CF903F
:1035900008952F923F924F925F926F927F928F92F7
:1035A0009F92AF92BF92CF92DF92EF92FF920F93D2
:1035B0001F93CF93DF93482E392E3B01C12CD12C82
:1035C000C1E0D0E0809152079091530705968C1787
:1035D0009D070CF44EC0E42CF32C560100E010E0E3
:1035E000502E82E090E00E94FA304C010F5F1F4F96
:1035F000A801440F551FB701C4010E94E632F4012F
:103600001282C5010E94101A282EC4010E94942F14
:10361000222D30E02817390789F48114910419F01C
:10362000C4010E949231502EF2E0EF0EF11C8FEF98
:10363000A81AB80A0730110599F606C0811491043A
:1036400019F0C4010E949231E7E0CE0ED11CF5E0E2
:10365000F51568F427E02C9FC0012D9F900D1124D3
:1036600001970E94101AF3018083CE0104C02196B5
:10367000A9CF80E090E0DF91CF911F910F91FF9053
:10368000EF90DF90CF90BF90AF909F908F907F9002
:103690006F905F904F903F902F900895CF92DF9260
:1036A000EF92FF920F931F93CF93DF931F92CDB7AB
:1036B000DEB74983FC0101900020E9F73197E81B50
:1036C000F90BEB30F10518F480E090E030C0DC013C
:1036D000E80FF91F2D91022E000C330B20533109F6
:1036E0002A30310588F7AE17BF07A1F7F62E8C01F7
:1036F000BE016F5F7F4F0E94C91A892B29F78F2D5A
:103700000E94781A7C0118161906F4F6019727E032
:10371000289F6001299FD00C1124B601C8010E9486
:10372000C6196981C60106960E949E19C7010F90AD
:10373000DF91CF911F910F91FF90EF90DF90CF908D
:103740000895FC0124813581232B49F065E672E060
:10375000808191810E940D3321E0892B09F020E0C6
:10376000822F0895CF92DF92EF92FF920F931F93D3
:10377000CF93DF9300D0CDB7DEB76C017C0100E0C2
:1037800010E0F70161917F011A830983CE01019650
:103790000E9418020F5F1F4F0730110591F7C601F5
:1037A0000F900F90DF91CF911F910F91FF90EF90AD
:1037B000DF90CF900895CF93DF93BC0186EC96E025
:1037C0000E94C510EC0186EC96E00E9447118C0F18
:1037D0009D1FDF91CF910895CF93DF9300D000D04C
:1037E00000D0CDB7DEB769E276E0CE0101960E9447
:1037F0008E10CE0101960E94670D64E670E080E0B5
:1038000090E00E94151767EF72E089E296E00E944F
:10381000C51026960FB6F894DEBF0FBECDBFDF9160
:10382000CF910895EF92FF920F931F93CF93DF9361
:1038300000D000D000D0CDB7DEB77C018B0169E2AB
:1038400076E0CE0101960E948E10CE0101960E9474
:10385000670D64E670E080E090E00E9415176DEE61
:1038600072E089E296E00E94C510B70189E296E015
:103870000E94B7106AEE72E089E296E00E94C510DD
:1038800064E670E080E090E00E941517B80189E2DC
:1038900096E00E944B1164E670E080E090E00E94A8
:1038A00015176AE189E296E00E94200C6CED75E044
:1038B00080E090E00E94151769E276E0CE01019663
:1038C0000E948E10CE0101960E94670D26960FB6BB
:1038D000F894DEBF0FBECDBFDF91CF911F910F9146
:1038E000FF90EF900895CF92DF92FF920F931F9376
:1038F000CF93DF93CDB7DEB762970FB6F894DEBFF4
:103900000FBECDBF8C01F62E6A0160EB72E0CE01D6
:103910000D960E94750D89E06F2D8F15B0F4CE01C4
:1039200001960E945D19BE016F5F7F4FCE010D961B
:103930000E948E0CBE01635F7F4FC8010E946C0D18
:10394000CE0101960E94670D42C0CE010196E5E0CE
:10395000CE16D10451F40E945D19BE016F5F7F4FF6
:10396000CE010D960E948E0C21C00E945D1965E665
:1039700072E0CE0107960E94750D4D815E816981CE
:103980007A81CE0107960E94EF0C811104C0CE010E
:1039900007960E941D0DBE01695F7F4FCE010D96F7
:1039A0000E94500DCE0107960E94670DCE01019630
:1039B0000E94670DF8011182108213821282158213
:1039C0001482BE01635F7F4FC8010E948E0CCE013E
:1039D0000D960E94670DC80162960FB6F894DEBF7F
:1039E0000FBECDBFDF91CF911F910F91FF90DF9060
:1039F000CF900895AF92BF92DF92EF92FF920F9314
:103A00001F93CF93DF93CDB7DEB72C970FB6F89403
:103A1000DEBF0FBECDBF8C015B0160EB72E0CE015B
:103A200007960E94750D87E08A9D70018B9DF00CB2
:103A30001124C70101970E94101A809310015701A9
:103A400087E0A81AB108D12CE12CF12CC5018E0D0C
:103A50009F1D0E94101A811101C0D39493E09D15FF
:103A600030F465E672E0C8010E94750D26C0A7011A
:103A7000682FCE0101960E94731C4D815E81698181
:103A80007A81CE0107960E94EF0CCE0101960E942A
:103A9000670DEFEFEE1AFE0AF6E0EF16F104B1F64D
:103AA000F801118210821382128215821482BE01E3
:103AB000695F7F4FC8010E948E0CCE0107960E945D
:103AC000670DC8012C960FB6F894DEBF0FBECDBFB0
:103AD000DF91CF911F910F91FF90EF90DF90BF90FA
:103AE000AF9008958F929F92AF92BF92CF92DF9244
:103AF000EF92FF920F931F93CF93DF93CDB7DEB773
:103B0000C654D1090FB6F894DEBF0FBECDBF8C01ED
:103B1000F62ECE01CF960E9418248FAD8983219670
:103B20008FAD21978A8322968FAD22978B83239620
:103B30008FAD23978C8324968FAD24978D83259604
:103B40008FAD25978E83AE014F5F5F4F6F2DC801FC
:103B50000E94C713BE016B5B7F4F80E590E00E941F
:103B60002A2327968EAD9FAD27970E94B6132091EA
:103B70000B0830910C0827968EAD9FAD27978217C2
:103B8000930729F080910508882309F49BC380914D
:103B9000070890910808820F931F843F21E0920745
:103BA0002CF490930C0880930B0804C010920C081E
:103BB00010920B086BE078E08AE590E00E94032306
:103BC00080910608811105C080910508882309F4B9
:103BD00079C32796EEACFFAC2797C0900908D09028
:103BE0000A0883E497E00E94BA2281E090E00E94F4
:103BF0004F1760EB72E0CE01C9960E94750D6EE121
:103C000070E0CE01C9960E94C80C2EE030E049E079
:103C100050E06EEF77E0CE01C3960E948A0D8DECE6
:103C200090E00E945330982E67EC72E089E296E0B3
:103C30000E945D1168EE73E080E090E00E9415172D
:103C4000CE0101960E943818CE0101960E94670DA0
:103C500061EE72E089E296E00E945D1164EF71E02E
:103C600080E090E00E94151760E173E089E296E041
:103C70000E945D1164EF71E080E090E00E941517F2
:103C80006DE173E089E296E00E945D1168EE73E0F9
:103C900080E090E00E94151769E273E089E296E007
:103CA0000E945D1164EF71E080E090E00E941517C2
:103CB0006AE473E089E296E00E945D1164EF71E0CE
:103CC00080E090E00E9415176AE673E089E296E0D2
:103CD0000E945D11CE0101960E943818CE01019616
:103CE0000E94670D68EE73E080E090E00E94151777
:103CF0001982CE0101965C0102ED10E0C8010E941C
:103D00005330F50181935F010F5F1F4F063E110590
:103D1000A9F768E873E0CE0145960E94750DBE01D3
:103D20006F5F7F4FCE014B960E94750DAE014B5ECB
:103D30005F4F692DCE014B960E946B17CE014B96BB
:103D40000E94670DCE0145960E94670D68EE73E0F4
:103D500080E090E00E94151780E58C9D80018D9D8C
:103D6000100D11244801FCE08F0E911CA12CB12CE8
:103D70002AE0B501A40186EC96E00E94FE1086ECD4
:103D800096E00E9447116EE873E089E296E00E9497
:103D90005D11A8014C505F4F60E070E02AE089E2BD
:103DA00096E00E94FE106CE973E089E296E00E94C2
:103DB0005D1164EC79E080E090E00E94151765EAFF
:103DC00073E089E296E00E945D1168EC73E089E29D
:103DD00096E00E945D1162EE73E089E296E00E9437
:103DE0005D1160EF73E089E296E00E945D1169E089
:103DF00074E089E296E00E945D1166E274E089E277
:103E000096E00E945D1162E674E089E296E00E940D
:103E10005D116DE774E089E296E00E945D112AE091
:103E2000B501A40189E296E00E94FE106EEA72E0FC
:103E300089E296E00E945D116EEA72E089E296E006
:103E40000E945D111E8A1D8A188E1F8A1A8E198E75
:103E50006BE070E0CE0145960E94C80C811105C050
:103E6000CE0145960E941D0D0AC08BE090E09A8F0E
:103E7000898F6FE073E08D899E890E94D92FCE01D2
:103E800045960E94B113CE0145960E94670D01E050
:103E900010E0C016D1060CF4EEC0E114F10421F4D8
:103EA00074EFE72EFF24F39421E0E21AF108B70142
:103EB000CE0145960E947118BE016B5E7F4FCE0108
:103EC000C9960E948E0CCE0145960E94670D27E18F
:103ED00030E04DE050E0BE01675C7F4FCE014B9675
:103EE0000E948A0D29E130E047E150E0BE01675CA5
:103EF0007F4FCE0181960E948A0DBE016D5C7F4F7F
:103F0000CE0187960E946C0D2BE030E040E050E03F
:103F1000BE01675C7F4FCE018D960E948A0D6DE8D1
:103F200074E0CE0145960E94750DCE0145960E9423
:103F3000B113CE0145960E94670DBE01635D7F4FB0
:103F4000CE0145960E946C0DCE0145960E94B1139C
:103F5000CE0145960E94670D68E974E0CE01459652
:103F60000E94750DCE0145960E94B113CE01459673
:103F70000E94670DBE01695D7F4FCE0145960E948C
:103F80006C0DCE0145960E94B113CE0145960E945C
:103F9000670D68EA74E0CE0145960E94750DCE016A
:103FA00045960E94B113CE0145960E94670DBE0151
:103FB0006F5D7F4FCE0145960E946C0DCE014596F8
:103FC0000E94B113CE0145960E94670D63EB74E029
:103FD000CE0145960E94750DCE0145960E94B11303
:103FE000CE0145960E94670DBE01655E7F4FCE01F2
:103FF00045960E946C0DCE0145960E94B113CE01EC
:1040000045960E94670D62EC74E0CE0145960E94D1
:10401000750DCE0145960E94B113CE0145960E94C2
:10402000670DCE018D960E94670DCE0187960E9486
:10403000670DCE0181960E94670DCE014B960E94BE
:10404000670D0C151D0574F465EA72E0CE01459606
:104050000E94750DCE0145960E94B113CE01459682
:104060000E94670D64E670E080E090E00E94151702
:104070000F5F1F4F0ECF64E670E080E090E00E947B
:10408000151765EC74E0CE0145960E94750DCE01C2
:1040900045960E94B113CE0145960E94670D64E6D5
:1040A00070E080E090E00E94151769E276E0CE01B2
:1040B00045960E948E10BE016B5E7F4F86EC96E0A7
:1040C0000E944B11CE0145960E94670D6CEA7DE07F
:1040D00080E090E00E9415178FE40E94D412809136
:1040E0006107882329F01092610762ED77E002C032
:1040F00065EC72E0CE0145960E94750DCE014596A5
:104100000E94670D8FE40E94D4128091610788237A
:1041100029F01092610762ED77E002C065EC72E071
:10412000CE0145960E94750DCE0145960E94670D01
:104130008FE40E94D41280916107882329F01092A5
:10414000610762ED77E002C065EC72E0CE01459652
:104150000E94750DCE0145960E94670D8FE40E9466
:10416000D41280916107882329F01092610762EDD3
:1041700077E002C065EC72E0CE0145960E94750DB5
:10418000CE0145960E94670D8FE40E94D412809163
:1041900061078823F9F01092610768E572E082ED0B
:1041A00097E00E94E02F892B91F065EA72E080E0B1
:1041B00090E00E94E02F892B51F065EA72E080E0E8
:1041C00090E00E94E02F009711F0BC0105C068EC60
:1041D00074E002C065EC72E0CE0145960E94750D58
:1041E0008D899E89009729F00E94B22F6B017C0176
:1041F00003C0C12CD12C76018601CE0145960E94C8
:10420000670DC6010E94B61364E670E080E090E09E
:104210000E941517093C110529F480910708909117
:10422000080818C0209105088091090890910A0893
:1042300021110FC02091070830910808A901440FEF
:10424000551F420F531F8417950744F4820F931F85
:1042500001C0019690930A088093090862E073E018
:1042600089E296E00E94C51064EF71E080E090E082
:104270000E941517CE0145960E943818CE0145962A
:104280000E94670D10925F0768EE73E080E090E097
:104290000E94151769E078E084E690E00E9403230D
:1042A0001092050880E090E00E944F1783E497E0A9
:1042B0000E94B522CE01C3960E94670DCE01C99619
:1042C0000E94670DCA5BDF4F0FB6F894DEBF0FBECA
:1042D000CDBFDF91CF911F910F91FF90EF90DF90B5
:1042E000CF90BF90AF909F908F90089580E090E026
:1042F000892B29F00E94B20B81110C9400000895C3
:10430000CF93DF931F92CDB7DEB76983DC01ED91C8
:10431000FC910280F381E02D41E050E0BE016F5F2F
:104320007F4F09950F90DF91CF91089583E080939F
:10433000E9008091F200882319F08AE38093E80075
:104340000895FC018485958597FD0BC09FB7F8946F
:1043500082E08093E9008091F2009FBF90E0019697
:1043600008959FB7F89482E08093E9008091F2006D
:104370009FBF90E0089580E090E008958F929F9213
:10438000AF92BF92CF92DF92EF92FF920F931F9363
:10439000CF93DF936C017B018A0180910F01882309
:1043A00009F45CC080914C05882309F457C08091C2
:1043B000D20480FF05C08091E00082608093E0001D
:1043C000E801B12C8AEFA82E93E0892E2AE3922EE1
:1043D000209711F4BB20D9F10E942D1581110AC03C
:1043E000AA94AA20D9F161E070E080E090E00E94F8
:1043F0001517EECF282F30E0C217D3070CF48C2FFF
:104400009FB7F8948092E9002091E80025FF1DC035
:10441000282F30E0C21BD30BF701815020F04191CF
:104420004093F100FACFE20EF31EBB2019F09092F8
:10443000E8000AC08091E80085FD07C09092E8007E
:10444000BB24B394209709F0B12C9FBFC1CF5D98D6
:1044500084E6809339051016110644F081E090E05F
:10446000F6019383828380E090E001C0C801DF9170
:10447000CF911F910F91FF90EF90DF90CF90BF9061
:10448000AF909F908F9008950E942D1590E0089511
:104490000F931F93CF93DF931F92CDB7DEB78C019D
:1044A000FC018485958597FF0EC0CE0101960E9480
:1044B000FF14019719F4898190E002C08FEF9FEFFC
:1044C000F80195878487F801848595850F90DF91A1
:1044D000CF911F910F910895CF93DF931F92CDB786
:1044E000DEB7FC018485958597FD05C02FEF3FEF72
:1044F000358724870BC0CE0101960E94FF140197D7
:1045000019F4898190E002C08FEF9FEF0F90DF9147
:10451000CF910895CF93DF93EB010E9453308883AE
:10452000CE01DF91CF910895FC01848DDF01A80FAA
:10453000B11DA35ABF4F2C91848D90E001968F73CB
:104540009927848FA689B7892C93A089B1898C91EA
:1045500082748C93938D848D981306C00288F3899E
:10456000E02D80818F7D8083089560E0FC01808153
:104570000C94AA1661E0FC0180810C94AA16EF92BB
:10458000FF920F931F93CF93DF93EC01CB01072E84
:10459000000CAA0BBB0B8C839D83AE83BF83598712
:1045A00048878B81882341F18B01E12CF12CE016A7
:1045B000F106C4F461E088810E94AA1668857985B5
:1045C00080E090E00E94151760E088810E94AA16A2
:1045D0006885798580E090E00E9415178FEFE81AD2
:1045E000F80AE5CF60E08881DF91CF911F910F91AC
:1045F000FF90EF900C94AA16DF91CF911F910F912D
:10460000FF90EF900895EF92FF920F931F93CF9337
:10461000DF9300D0CDB7DEB78C017B01FB01608159
:104620009A838983CE0101960E941802F701618165
:104630000F5F1F4F1A830983CE0101960E94180253
:10464000C7010F900F90DF91CF911F910F91FF90B5
:10465000EF9008950F931F93CF93DF938C01EB019D
:104660000E9453308883C80101960E945330898389
:10467000CE01DF91CF911F910F910895EF92FF929C
:104680000F931F93CF93DF93EC0169813881432F00
:1046900050E08A8190E0EBE1F3E021E0261730F46E
:1046A0007491870F911D2F5F3196F8CF633018F00A
:1046B000337009F401966DE671E0469F9001479FC3
:1046C000300D569F300D1124215031094D5F5F4F41
:1046D0005695479556954795240F351F280F391F36
:1046E000A8E1B0E00E94AB302B817B018C01E20E8F
:1046F000F11C011D111DA8019701ACE3B0E00E945F
:1047000069302C817B018C01E20EF11C011D111D11
:10471000A80197010E9469302D81DC01CB01820F35
:10472000911DA11DB11DBC01CD0160587C4B82497A
:10473000974CDF91CF911F910F91FF90EF900895CB
:104740008F929F92AF92BF92CF92DF92EF92FF92A1
:10475000CF93DF93EC016A017B0180E8C81A83E400
:10476000D80A8DE6E80A88E3F80A8CE3882E912CB3
:10477000A12CB12CC701B601A50194010E94BA3049
:104780006D83CA01B901A50194010E94BA306C83FE
:10479000C701B60120E13EE040E050E00E94BA309F
:1047A000CA01B90128E130E040E050E00E94BA308F
:1047B0006B83C701B60120E831E541E050E00E947B
:1047C000BA3018824881542F537081E009F080E09C
:1047D00090E0BC0163597E4F2617370738F0281B3D
:1047E000390B2D5631404F5F4883ECCF81E08983F0
:1047F0008981E82FF0E0E65EFC4FE491511103C09F
:10480000823009F4EF5FF0E02E173F0720F02E1BF7
:104810003F0B8F5FECCF2F5F2A83DF91CF91FF900B
:10482000EF90DF90CF90BF90AF909F908F900895C2
:10483000CF93DF93EC010E94AB1728EE33E040E00A
:1048400050E00E94BA3080915C0590915D05A09186
:104850005E05B0915F05BA01A901480F591F6A1F93
:104860007B1FCE010E94A023CE01DF91CF9108953E
:104870000F931F93CF93DF9300D0CDB7DEB78B019B
:10488000FB0160819A838983CE0101960E94180200
:10489000C8010F900F90DF91CF911F910F91089554
:1048A0000F931F93CF93DF9300EE14E0C0E0D0E0AE
:1048B000CE010E945330F80181938F012196C730B9
:1048C000D105B1F76DED74E08AE090E00E942A23F3
:1048D0006CED74E088E290E00E948A226BED74E057
:1048E00082E390E00E948A226AED74E084E390E023
:1048F0000E948A2267ED74E086E390E00E942A23FA
:104900006FED74E08CE390E00E948A2269ED74E020
:104910008EE390E00E948A2266ED74E08AE490E0E3
:104920000E948A2265ED74E08CE490E00E948A2265
:1049300067EE74E08EE490E00E942A236BE078E05A
:104940008AE590E00E942A2369E078E084E690E01E
:104950000E942A2367E078E08EE690E00E942A23F6
:1049600066E078E088EC90E0DF91CF911F910F91A5
:104970000C948A220F931F93CF93DF93CDB7DEB7AA
:1049800029970FB6F894DEBF0FBECDBF83E497E042
:104990000E94BA2200E010E08091520790915307E4
:1049A00023E0880F991F2A95E1F7081719073CF4AF
:1049B00060E0C8010E949E190F5F1F4FEDCF04E019
:1049C00012E460E0C8010E949E190F5F1F4F0C3C6B
:1049D0008BE51807B1F700E010E01A83098360E067
:1049E000CE0101960E9418020F5F1F4F011582E051
:1049F000180799F787E0EAECF4E0DE0111960190E0
:104A00000D928A95E1F7CE0101960E94B21B82E0D9
:104A10008093DD048093DE046DED74E08AE090E025
:104A20000E94032311E01887BE01685F7F4F88E270
:104A300090E00E9438241987BE01675F7F4F8CE3A6
:104A400090E00E9438241092D50465ED74E08CE467
:104A500090E00E9438241092E8041092E70467EE78
:104A600074E08EE490E00E94032309E110E01093CB
:104A70000C0800930B086BE078E08AE590E00E9458
:104A8000032310930A080093090869E078E084E69C
:104A900090E00E940323109308080093070867E042
:104AA00078E08EE690E00E9403230E9496199EE033
:104AB00088E10FB6F894A895809360000FBE90939C
:104AC000600060ED77E080E090E00E941517299685
:104AD0000FB6F894DEBF0FBECDBFDF91CF911F910F
:104AE0000F9108951F920F920FB60F9211242F93DA
:104AF0003F938F939F93AF93BF9380913F05909186
:104B00004005A0914105B091420530910D0823E088
:104B1000230F2D3720F40196A11DB11D05C026E8F5
:104B2000230F0296A11DB11D20930D0880933F0510
:104B300090934005A0934105B093420580914305B1
:104B400090914405A0914505B09146050196A11D9F
:104B5000B11D8093430590934405A0934505B09300
:104B60004605BF91AF919F918F913F912F910F90EB
:104B70000FBE0F901F901895CF93DF93CDB7DEB780
:104B8000E2970FB6F894DEBF0FBECDBF789484B520
:104B9000826084BD84B5816084BD85B5826085BD39
:104BA00085B5816085BD80916E00816080936E00C7
:104BB00010928100809181008260809381008091B9
:104BC000810081608093810080918000816080936A
:104BD000800080919100826080939100809191008B
:104BE000816080939100809190008160809390001B
:104BF0008091C10084608093C1008091C100826077
:104C00008093C1008091C10081608093C100809138
:104C1000C30081608093C3008091C0008260809354
:104C2000C0008091C20081608093C20080917A00B0
:104C3000846080937A0080917A00826080937A0009
:104C400080917A00816080937A0080917A008068F8
:104C500080937A0010924C051092D3041092D204E3
:104C60008091D70081608093D70080EA8093D8003C
:104C700089B5806189BD89B5826089BD09B400FEAE
:104C8000FDCF61E070E080E090E00E941517809118
:104C9000D8008F7C80618093D8008091E000807F75
:104CA0008093E0008091E1008E7E8093E1008DE0B2
:104CB0008093E200559A209A87EF84BF0FB6F8944C
:104CC000A8958091600088618093600010926000D8
:104CD0000FBE61E080E10E94D91662E085E10E948A
:104CE000D91648EC50E065E070E083E497E00E945C
:104CF000BF2261E080E10E94AA1664EF71E080E0CB
:104D000090E00E94151760E080E10E94AA1683E4FB
:104D100097E00E94BA228FEF9FEF9093D306809383
:104D2000D20668EE73E080E090E00E941517E091F3
:104D30003906F0913A0602E00083E0913506F091E1
:104D400036061082E0913706F091380680E18083C4
:104D500010924106E0913D06F0913E0616E0108368
:104D6000E0913B06F0913C06808180618083E09178
:104D70003B06F0913C06808188608083E0913B0691
:104D8000F0913C06808180688083E0913B06F09141
:104D90003C0680818F7D8083809154078C3409F09C
:104DA00045C068EE73E080E090E00E94151766E66B
:104DB00071E089E296E00E94C51068EE73E080E041
:104DC00090E00E941517E0913906F0913A060083B1
:104DD000E0913506F09136061082E0913706F091A9
:104DE000380687E6808310924106E0913D06F091F7
:104DF0003E061083E0913B06F0913C068081806185
:104E00008083E0913B06F0913C068081886080833E
:104E1000E0913B06F0913C06808180688083E091C0
:104E20003B06F0913C0680818F7D808368E873E1CA
:104E300080E090E00E94151769E276E08E010F5F36
:104E40001F4F4801C8010E948E10C8010E94670DC3
:104E50006AE571E089E296E00E94C51068EE73E0B1
:104E600080E090E00E94151769E276E0C8010E9498
:104E70008E10C8010E94670D6EE471E089E296E031
:104E80000E94C51068EE73E080E090E00E94151764
:104E900069E276E0C8010E948E10C8010E94670D89
:104EA00062E471E089E296E00E94C51068E873E16F
:104EB00080E090E00E94151769E276E0C8010E9448
:104EC0008E10C8010E94670D66E371E089E296E0EA
:104ED0000E94C51060E177E280E090E00E94151723
:104EE00069E276E0C8010E948E10C8010E94670D39
:104EF0006AE271E089E296E00E94C51068EE73E014
:104F000080E090E00E94151769E276E0C8010E94F7
:104F10008E10C8010E94670D6EE171E089E296E093
:104F20000E94C51068EE73E080E090E00E941517C3
:104F300069E276E0C8010E948E10C8010E94670DE8
:104F400062E171E089E296E00E94C51068EE73E0CC
:104F500080E090E00E94151769E276E0C8010E94A7
:104F60008E10C8010E94670D6EEF70E089E296E036
:104F70000E94C51068EE73E080E090E00E94151773
:104F800069E276E0C8010E948E10C8010E94670D98
:104F90006FED70E089E296E00E94C51068EE73E064
:104FA00080E090E00E94151769E276E0C8010E9457
:104FB0008E10C8010E94670D68ED70E089E296E0EE
:104FC0000E94C51064EF71E080E090E00E94151728
:104FD00069E276E0C8010E948E10C8010E94670D48
:104FE0006AEC70E089E296E00E94C51064E670E029
:104FF00080E090E00E94151769E276E0C8010E9407
:105000008E10C8010E94670D68EE73E080E090E0AA
:105010000E9415171092B2051092B1051092FB056F
:1050200010921C061092F90581E08093F805109209
:10503000D30561E082E00E94AA1661E083E00E944D
:10504000AA168091B9008E7F8093B9008091B90033
:105050008D7F8093B90088E48093B80085E48093C5
:10506000BC0089EE91E190934805809347058AEE54
:1050700091E190934A058093490560E177E280E0F1
:1050800090E00E94151781E090E00E9453308F3F1E
:1050900011F40E94BA240E945024A091E704B09118
:1050A000E8041A161B0674F420E437E74BE150E0DD
:1050B0000E94E93060930001709301018093020126
:1050C0009093030164E170E08EEF97E00E94C80CBA
:1050D000C4010E94B918B4018EEF97E00E948E0CB3
:1050E000C4010E94670D69E276E0C4010E948E103F
:1050F000C4010E94670D64E670E080E090E00E94C9
:1051000015176BE771E089E296E00E94C51060E137
:1051100077E280E090E00E94151765E771E089E290
:1051200096E00E94C51068EE73E080E090E00E9477
:10513000151769E276E0C4010E948E10C4010E9436
:10514000670D48EC50E065E070E083E497E00E9472
:10515000BF220E94EC1B6624639489E296E00E94C1
:10516000A60B181619060CF077C080916007811104
:1051700073C089E296E00E94840B782E8091EC0443
:10518000882309F4F7C00E94AB175B016C012BA5C3
:105190003CA54DA55EA56FA578A989A99AA9285116
:1051A0003C4F4F4F5F4F6F4F7F4F8F4F9F4F1901B6
:1051B0002A01B62FA72FF82FE92F9501A60160E04D
:1051C00070E080E090E051016201EB2EFA2E0F2F8B
:1051D0001E2F0E94F13019F010F081E2782E80919C
:1051E000FD07E091EB048711B5C0F0E0EC5AF84FF1
:1051F000108A1092EC041092EB0424E637E030930E
:105200006307209362076092600742E350E061E029
:1052100070E083E497E00E94BF22809160078111D3
:1052200010926007609162077091630778A36F8F97
:1052300086EC96E00E94E91086EC96E00E94471109
:10524000AF8DB8A1FD0101900020E9F73197EA1B6D
:10525000FB0B349708F0A3C08091DB04882309F48A
:1052600067C088EE93E00E94D8178091F304811103
:1052700011C0809116070E94811621E0892B09F444
:1052800020E08091DC048213D8C18091D404811184
:10529000D4C152C084E690E00E94D817A091D704F0
:1052A000B091D804C090EF04D090F004E090F104E5
:1052B000F090F20428EE33E00E94E23060931A0787
:1052C00070931B0780931C0790931D07672B682B17
:1052D000692B09F47CC20E94AB178B019C010C194D
:1052E0001D092E093F096801790100911A071091E3
:1052F0001B0720911C0730911D07C016D106E2063E
:10530000F30608F464C26093210770932207809328
:105310002307909324071092EE041092F3048091D7
:10532000DA04882349F085E297E00E94B52204C0A0
:1053300080E49FE10E94D8171BE386EC96E00E9470
:10534000A12120913405181619060CF045C221112F
:1053500043C201C5AE2FB0E0AC5AB84F50967C9214
:10536000EF5FEE3618F4E093EB04F7CE1DE61093F2
:10537000EB04F3CE8091FA07781649F08091FB0791
:10538000781649F08091FC077812E7CE04C031E22C
:105390003093FD0740C14DE04093FD073CC111969D
:1053A0008C918E3409F458CFCE014F960E9433145D
:1053B00080915B058B3409F488C03CF4833409F494
:1053C00050C0893409F44DC047CF813589F1843507
:1053D00009F042CF0E9400028130C1F018F0823003
:1053E000E1F03ACF0E94F001882309F435CF0E9402
:1053F000C001682F70E06115710509F42DCF80910F
:10540000590590915A050E941A0326CF0E94F00177
:10541000882319F00E949B031FCF6091590570915A
:105420005A0580915705909158050E94310214CF7A
:105430006091590570915A05C4010E94750D6091E3
:10544000E9047091EA04CE0143960E94FA1CB4016B
:10545000CE0143960E94121CCE0143960E94670D16
:10546000C5C00E940002813019F0823099F029C035
:105470009091F304992319F08093EE0422C0809157
:10548000DA04823058F46091590570915A0584ED20
:1054900091E015C08091DA04823038F060915905AE
:1054A00070915A0584E591E00AC080911001823024
:1054B00050F36091590570915A0588E591E00E947A
:1054C0003102C4010E94381891C080915905909111
:1054D0005A050E94942F8C014497449708F08AC083
:1054E00080915105909152050E94942F182F809120
:1054F0005305909154050E94942FF82E80915505E4
:10550000909156050E94942FE82E80915705909116
:1055100058050E94942F09838A83EB82FC821D83A5
:105520001E82C4010E94B717809154078135A1F4EF
:10553000CE0143960E941824CE0143960E943E233A
:10554000AB01BC014054584361097109C4010E9478
:10555000A023C4010E94B71766E080E090E00E949B
:10556000721D8091D504882311F161E070E0CE01B5
:1055700049960E94FA1C6CE571E0C4010E94750D09
:10558000BE01675E7F4FCE0143960E946C0DB40151
:10559000CE0143960E94121CCE0143960E94670DD5
:1055A000C4010E94670DCE0149960E94670D80914B
:1055B000E7049091E804181619060CF04DCE6FE838
:1055C00071E089E296E00E94C51068E873E180E02E
:1055D00090E00E94151763E871E089E296E00E946E
:1055E000C51069E276E0C4010E948E10C4010E94D9
:1055F000670D32CE68E873E180E090E00E941517F5
:105600008091ED048F5F8093ED04823008F024CE0A
:105610000E94EC1B21CE0E94AB177B018C0120E085
:1056200030E0A9016BA7FCA60DA71EA72FA738ABDA
:1056300049AB5AAB6092EC0490CD6092F3040E94A7
:10564000AB176093EF047093F0048093F104909390
:10565000F2048091DA04882321F085E297E00E9429
:10566000BA228091DA048430C8F460E671E0CE0199
:1056700085960E94750D19828091D404882309F4BF
:1056800048C06BE671E0C4010E9416336091590571
:1056900070915A05C4010E9402333BC0F12C08EE00
:1056A00013E0B801CE0149960E94FA1CCE0149963A
:1056B0000E94A11B811122C051E05F1530F468E8FF
:1056C00073E180E090E00E94151766E671E0C40186
:1056D0000E94750DBE01675E7F4FCE0143960E940A
:1056E0006C0DB401CE0143960E94121CCE0143966C
:1056F0000E94670DC4010E94670DF394CE01499684
:105700000E94670D0F5F1F4F0E3E83E0180749F69A
:10571000ACCFF12C01E010E0B801CE014F960E9411
:10572000FA1CCE014F960E94A11B811131C091E05D
:105730009F1530F468E873E180E090E00E9415174F
:105740008091D404882331F0B401CE0149960E949F
:10575000750D07C0BE016B5D7F4FCE0149960E945B
:105760006C0DBE01615E7F4FCE0143960E946C0DB1
:10577000BE01675E7F4FCE0143960E94121CCE0190
:1057800043960E94670DCE0149960E94670DF394DF
:10579000CE014F960E94670D0F5F1F4F0630110517
:1057A00009F0BACFCE0185960E94670D8091D4048E
:1057B00064E0882329F08091590590915A0502C030
:1057C00080E090E00E94721D1092D404B5CD8091CB
:1057D000EE048111A0CDB0CD222309F45CC288EF84
:1057E00094E09A8F898FCE0149960E943314E091FC
:1057F0005905F0915A058081843409F456C0CCF4DF
:105800008134C9F13CF4833209F4EFC0853209F4E4
:1058100066C13FC2823409F445C0833409F039C2FD
:1058200040E061E480915505909156050E944E1B21
:1058300030C2803509F4C5C074F48534E9F186348A
:1058400009F027C260E171E08091550590915605FD
:105850000E94C91AC4C0843509F48DC08A3509F480
:1058600003C2833509F015C283E497E00E94BA228F
:1058700001E010E04FC080915105909152050E94C7
:10588000942F482F65E480915505909156050E940C
:105890004E1B44E150E061E070E083E497E00E9439
:1058A000BF22F7C10E94BA24F4C18091550590919E
:1058B00056050E948013EDC183E497E00E94BA224E
:1058C0001C8A1B8ABE016D5E7F4F80E590E00E94BE
:1058D0002A2304EF11E08B899C89892B21F424EF82
:1058E00031E03C8B2B8B6B897C89615071097C8BFF
:1058F0006B8BC4010E947118B40186EC96E00E9483
:105900004B11C4010E94670D0150110921F78FE965
:1059100091E02AC0B801CE0143960E94FA1CCE0144
:1059200043960E94A11B81110CC0B801C4010E94C2
:10593000FA1CB40186EC96E00E944B11C4010E944F
:10594000670D0530110521F48DE991E00E94DB1B04
:10595000CE0143960E94670D0F5F1F4F093E33E053
:105960001307C1F68BE991E00E94DB1B83E497E00B
:105970000E94B5228EC10E94961960E771E086EC04
:1059800096E00E94E91086EC96E00E9447118BE0B9
:1059900090E00E94B61386EC96E00E944711C40185
:1059A0000E94B918B4018EEF97E00E948E0CC401DA
:1059B0000E94670D6EEF77E086EC96E00E944B1137
:1059C00068C146E050E060EE74E08091550590912A
:1059D00056050E941D33892B29F481E090E00E9436
:1059E000B61357C180E090E0FACF0E945024409156
:1059F000F70450E060E070E02AE086EC96E00E9458
:105A0000FE106091DF0470E086EC96E00E94461381
:105A10004091DD0450E060E070E02AE086EC96E022
:105A20000E94FE104091DE0450E060E070E02AE049
:105A300086EC96E00E94FE106091DC0470E086EC3B
:105A400096E00E9446136091DB0470E086EC96E0DD
:105A50000E9446134091DA0450E060E070E02AE0D2
:105A600086EC96E00E94FE106091D90470E086EC0E
:105A700096E00E9446136091F60470E086EC96E092
:105A80000E9446138091D8048F938091D7048F93FE
:105A90000CE711E01F930F939F928F920E943A336D
:105AA000B40186EC96E00E945D118091D6041F92AD
:105AB0008F931F930F939F928F920E943A33B4015A
:105AC00086EC96E00E945D118091D50490E00E94E2
:105AD000B6130FB6F894DEBF0FBECDBFDAC0E091AB
