:100000000C9468010C9490010C9490010C94900154
:100010000C9490010C9490010C9490010C9490011C
:100020000C9490010C9490010C94B0230C941F2418
:100030000C9490010C9490010C9490010C949001FC
:100040000C9490010C9490010C9490010C949001EC
:100050000C9490010C9490010C9490010C946623E4
:100060000C9490010C9477260C9451260C949001DA
:100070000C9490010C9490010C9490010C949001BC
:100080000C9490010C9490010C9490010C949001AC
:100090000C9447220C9490010C9490010C949001C4
:1000A0000C9490010C9490010C94900141542B43BA
:1000B00053510D0A001F1C1F1E1F1E1F1F1E1F1E37
:1000C0001F080B00020202000009040000010202E6
:1000D000000005240010010524010101042402068A
:1000E00005240600010705810310004009040100F2
:1000F000020A000000070502024000000705830213
:100100004000000403090412010002EF0201404F05
:100110001B0692000101020301537061726B467568
:100120006E00537061726B46756E2050726F204D79
:100130006963726F0041542B43545A523D310D0A8A
:100140000041542B43545A553D310D0A0041545A35
:10015000300D0041542B4950523D31393230300D71
:100160000A004154480D0A00415444303B0D0A0036
:1001700041542B4346554E3D310D0A0041542B430B
:1001800046554E3D300D0A00450045004500000033
:100190000000240027002A002D003000000000008D
:1001A000250028002B002E00310000000000230055
:1001B000260029002C002F00040404040403040575
:1001C00002020202040302020202060606060606F4
:1001D00004040202020404040802011040804010DA
:1001E000204080408008020401804020100201105D
:1001F0008010204040200000000200090F00000392
:100200000401000C000000000000000000000000DD
:100210000000000041542B434C49503D310D0A0071
:1002200041542B4347534E0D0A0041542B4348552C
:10023000500D0A0041542657300D0041542B434CB9
:1002400049503D310D0A0041542B4347455245501A
:100250003D300D0A00415445300D0A0061742B7188
:100260007572636366673D22757263706F72742284
:100270002C227561727431220D0A0041542B434EB9
:100280004D493D312C322C302C302C300D0A0041A0
:10029000542B434C49503D310D0A0041542B434DE2
:1002A00047463D310D0A0041542B435245473D31ED
:1002B0000D0A00220D0041542B434D47533D2200AF
:1002C00041542B43434C4B3F0D0A0000A926BD303F
:1002D00011241FBECFEFDAE0DEBFCDBF26E0AEEFC8
:1002E000B2E001C01D92A238B207E1F712E0A0E02F
:1002F000B1E0E0ECFDE602C005900D92AE3FB10723
:10030000D9F711E0C7E6D1E004C02197FE010E94B1
:10031000DE31C636D107C9F70E947F270C94D33649
:100320000C9400008091050490910604891B990BA0
:100330000895FC018091EF03882311F13FB7F894F1
:1003400082E08093E9002091F200822F90E018165D
:10035000190614F481E090E0882339F0289844E6E7
:100360004093EE034091F1004083222339F0209125
:10037000F200211103C02BE62093E8003FBF08954F
:100380008FEF9FEF08952FB7F89483E08093E900F3
:100390009091E800892F807295FF04C09091F2003F
:1003A00080E4891B2FBF08952091C903260F3327AE
:1003B000331F21323105ECF420914D04FC0190E013
:1003C00080E0243069F082E00895A091C903219172
:1003D000AC0149555C4FA40FB52FB11D2C9301966C
:1003E000861798F38091C903680F6093C90380E072
:1003F000089581E00895089508950895E091060410
:1004000080910504E81730F4F0E0E95FFB4F80814C
:1004100090E008958FEF9FEF0895909106048091EA
:1004200005042FEF3FEF981748F4E92FF0E0E95F5C
:10043000FB4F208130E09F5F90930604C90108952F
:10044000CF92DF92EF92FF920F931F93CF93DF93A0
:100450007C01CB018A0120915304222389F0EB0116
:100460006B01C40ED51ECC15DD0569F06991D7016D
:10047000ED91FC910190F081E02DC7010995F3CF3A
:10048000642F0E94D401C801DF91CF911F910F9179
:10049000FF90EF90DF90CF900895CF93DF931F925E
:1004A000CDB7DEB76983209153042223F9F0209160
:1004B0007604203258F021E030E0FC0133832283BF
:1004C00090E080E00F90DF91CF91089580915404E7
:1004D000E82FF0E0EB5AFB4F998190838F5F809378
:1004E00054048093760481E090E0ECCF61E0CE018B
:1004F00001960E94D401F7CF682F87E794E00C940F
:100500004D0280919E0381110DC082E080939A0379
:1005100084E080939B0310929D0310929C0381E0E2
:1005200080939E038AE993E0089581508F3008F00C
:1005300047C0E82FF0E0E156FD4F0C94DE31BC02DD
:10054000C002AE02B402B802E002E002E002C3025E
:10055000C902CD02D102D702E002DB028091800005
:100560008F77809380000895809180008F7DF9CFF0
:1005700080918000877FF5CF84B58F7784BD089503
:1005800084B58F7DFBCF809190008F778093900012
:100590000895809190008F7DF9CF80919000877FA2
:1005A000F5CF8091C0008F778093C000089580912F
:1005B000C0008F7DF9CF8091C200877F8093C200F9
:1005C0000895CF93DF93282F30E0F901EA50FE4FD2
:1005D0008491F901E952FE4FD491F901E854FE4F9C
:1005E000C491CC23A1F081110E949502EC2FF0E080
:1005F000EE0FFF1FE655FE4FA591B491EC91ED2350
:1006000081E090E009F480E0DF91CF91089580E0EF
:1006100090E0FACF1F93CF93DF93282F30E0F901BA
:10062000EA50FE4F8491F901E952FE4FD491F9014D
:10063000E854FE4FC491CC23A9F0162F81110E94DB
:100640009502EC2FF0E0EE0FFF1FE456FE4FA59150
:10065000B4918FB7F894EC91111108C0D095DE23B6
:10066000DC938FBFDF91CF911F910895DE2BF8CFE0
:1006700010924D0481E080934C041092270461E0B5
:1006800082E00E940A0361E083E00E940A03E9EB32
:10069000F0E080818E7F808380818D7F808388E4FD
:1006A0008093B80085E48093BC000895CF93DF93D6
:1006B00091E09093A6038823B9F0C091B800D0913F
:1006C000BA008091BC008A7B8093BC0060E082E02D
:1006D0000E940A0360E083E00E940A030E9438033C
:1006E000D093BA00C093B800DF91CF910895CF9313
:1006F000DF9390E0FC01E952FE4F249188549E4F15
:10070000FC0184918823C9F090E0880F991FFC01B7
:10071000E257FE4FA591B491FC01E456FE4FC591FE
:10072000D49161110DC09FB7F8948C9120958223CC
:100730008C938881282328839FBFDF91CF910895D0
:10074000623051F49FB7F8943C91822F80958323B7
:100750008C93E8812E2BEFCF8FB7F894EC912E2B52
:100760002C938FBFEACF3FB7F89480919603909176
:100770009703A0919803B091990326B5A89B05C053
:100780002F3F19F00196A11DB11D3FBFBA2FA92F10
:10079000982F8827BC01CD01620F711D811D911D0D
:1007A00042E0660F771F881F991F4A95D1F7089579
:1007B0008F929F92AF92BF92CF92DF92EF92FF9271
:1007C0000F931F93CF93DF93D0917604D13208F02B
:1007D000D7C0182FC09175040E94B3036B017C0130
:1007E00080914D0481116BC082E080934D04109381
:1007F0004C048FEF80934B0410924A04D093490429
:10080000A5E5B4E0E9E2F4E080E0D81391C01092ED
:10081000280480912804CC0FC82BC0932804809111
:100820002704813009F088C0109227040E94B30386
:100830006B017C01809128048093BB0080914F0460
:1008400090915004A0915104B0915204892B8A2BAD
:100850008B2BA1F00E94B30300914F041091500420
:1008600020915104309152046C197D098E099F0921
:10087000061717072807390708F442C08091BC0003
:1008800083FDD8CF85EC8093BC000E94B3036B013D
:100890007C0180914D04823009F450C080914B045A
:1008A0008F3F09F46FC080914B04803209F46CC013
:1008B00080914B04803309F469C084E026C08091A4
:1008C0004F0490915004A0915104B0915204892B8F
:1008D0008A2B8B2B09F484CF0E94B30380904F04A2
:1008E00090905004A0905104B09052046C197D096E
:1008F0008E099F0986169706A806B90608F070CFDC
:1009000080914E040E94560385E010925404109288
:10091000760410925304DF91CF911F910F91FF90B5
:10092000EF90DF90CF90BF90AF909F908F90089501
:100930009D9191938F5F69CF85EEA5CF80914F04F4
:1009400090915004A0915104B0915204892B8A2BAC
:100950008B2B09F49ECF0E94B30300914F0410919A
:10096000500420915104309152046C197D098E0974
:100970009F09061717072807390708F08ACFC0CF45
:1009800081E0C3CF80E0C1CF82E0BFCF83E0BDCFA5
:100990008F929F92AF92BF92CF92DF92EF92FF928F
:1009A0006B017C010E94B3034B015C01C114D104B3
:1009B000E104F104B9F00E94B303681979098A09C6
:1009C0009B09683E73408105910580F321E0C21ABE
:1009D000D108E108F10888EE880E83E0981EA11C7A
:1009E000B11CE4CFFF90EF90DF90CF90BF90AF901D
:1009F0009F908F9008951F93CF93DF93EC01162F54
:100A000081E08093530480E5809375041092540430
:100A1000109276048D2F90E00E947C02CE019927DF
:100A20000E947C02612F87E794E00E944D0281E0E2
:100A30000E94D80364E170E080E090E0DF91CF9104
:100A40001F910C94C8042FB7F89460919203709191
:100A5000930380919403909195032FBF08950F9372
:100A60001F93CF93DF93EC01092E000CAA0BBB0B55
:100A70008093BF059093C005A093C105B093C205B4
:100A80000E942305AB01BC018091C6059091C7056A
:100A9000A091C805B091C9058A019B01081B190BDB
:100AA0002A0B3B0B8091BF059091C005A091C10519
:100AB000B091C205081719072A073B0758F1809122
:100AC000BD05811124C081E08093BD05C43F81E054
:100AD000D8075CF0CE01845F9140092E000CAA0B70
:100AE000BB0B481B590B6A0B7B0B4093C6055093FD
:100AF000C7056093C8057093C9056091BD058091D5
:100B0000BB05DF91CF911F910F910C940A031092B6
:100B1000BD05EBCFDF91CF911F910F9108950895FF
:100B200040910C0350910D0320910A0330910B0367
:100B300042175307B4F49091E8009570E1F3909157
:100B4000E80092FD19C08093F10080910C03909110
:100B50000D0301968F739927892B19F48EEF8093DB
:100B6000E80080910C0390910D03019690930D0382
:100B700080930C0381E0089580E00895EF92FF9246
:100B80000F931F93CF93DF93F82E192FE62E042F88
:100B900081E0860F880F0E94900583E00E949005F7
:100BA000CF2DD12FEC0EFD2EF11CCE15DF05B9F0A7
:100BB00007FF13C0FE0184910E949005182F80E06A
:100BC0000E949005812321968111EFCFDF91CF9173
:100BD0001F910F91FF90EF9008958881EDCF81E0F4
:100BE000F5CFDF92EF92FF920F931F93CF93DF9396
:100BF000D82E8A01EB017B01E40EF51ECE15DF0530
:100C000059F0D7FE12C0FE0184910E9490052196F2
:100C10008111F4CF0FEF1FEFC801DF91CF911F912A
:100C20000F91FF90EF90DF9008958881EECF0F93A2
:100C30001F93CF93DF931F92CDB7DEB782E08983F6
:100C400042E450E061EC70E080E80E94F1050E940F
:100C50008102DC0112960D911C910115110589F09C
:100C6000D801ED91FC910280F381E02DBE016F5F10
:100C70007F4FC801099597FD04C0F80100851185D3
:100C8000ECCF89810F90DF91CF911F910F91089543
:100C9000615030F02091F100FC0120830196F8CFE3
:100CA000289884E68093EE030895DB0114964D9115
:100CB0005C9115976D917C91DC01ED91FC91028026
:100CC000F381E02D0994EF92FF920F931F93CF933E
:100CD000DF938C017B01D0E0C0E0F701EC0FFD1F3A
:100CE0006491662361F0D801ED91FC910190F0814F
:100CF000E02DC8010995892B11F02196EECFCE0188
:100D0000DF91CF911F910F91FF90EF9008956AE2CC
:100D100072E083E894E00C946306AF92BF92CF92A6
:100D2000DF92EF92FF920F931F93CF93DF936C01AB
:100D30007B018B01040F151FEB015E01AE18BF088C
:100D4000C017D10759F06991D601ED91FC9101903E
:100D5000F081E02DC6010995892B79F7C501DF9156
:100D6000CF911F910F91FF90EF90DF90CF90BF90A8
:100D7000AF90089590E080E00895FC01538D448D7C
:100D8000252F30E0842F90E0821B930B541710F036
:100D9000CF96089501970895FC01918D828D981743
:100DA00061F0A28DAE0FBF2FB11D5D968C91928D1B
:100DB0009F5F9F73928F90E008958FEF9FEF08954C
:100DC0000F931F930E94230560938B0470938C04F0
:100DD00080938D0490938E0483E894E00E94CC0667
:100DE00097FF1DC00E94230500918B0410918C0475
:100DF00020918D0430918E04601B710B820B930B3C
:100E000000918704109188042091890430918A040C
:100E10006017710782079307F8F28FEF9FEF1F911A
:100E20000F910895FC01918D828D981731F0828D7C
:100E3000E80FF11D858D90E008958FEF9FEF0895E5
:100E4000FC01918D228D892F90E0805C9F4F821B49
:100E500091098F739927089583E894E00E942007F1
:100E600021E0892B09F420E0822F089580E090E0B2
:100E7000892B29F00E942C0781110C940000089501
:100E8000FC01A48DA80FB92FB11DA35ABF4F2C91FF
:100E9000848D90E001968F739927848FA689B789F6
:100EA0002C93A089B1898C9182748C93938D848DBD
:100EB000981306C00288F389E02D80818F7D80839E
:100EC0000895EF92FF920F931F93CF93DF93EC015E
:100ED00081E0888F9B8D8C8D981319C0E889F989E2
:100EE000808185FF14C09FB7F894EE89FF896083E5
:100EF000E889F9898081827480839FBF81E090E0D6
:100F0000DF91CF911F910F91FF90EF900895F62EF2
:100F10000B8D10E00F5F1F4F0F731127E02E8C8D8C
:100F20008E110CC00FB607FCFACFE889F9898081D1
:100F300085FFF5CFCE010E944007F1CFEB8DEC0F7E
:100F4000FD2FF11DE35AFF4FF0829FB7F8940B8FEE
:100F5000EA89FB8980818062CFCFCF93DF93EC0158
:100F6000888D8823B9F0AA89BB89E889F9898C9191
:100F700085FD03C0808186FD0DC00FB607FCF7CF4D
:100F80008C9185FFF2CF808185FFEDCFCE010E944D
:100F90004007E9CFDF91CF9108958F929F92AF9252
:100FA000BF92CF92DF92EF92FF920F931F93CF9356
:100FB000DF936C017B018A0180910B01882309F486
:100FC0005CC08091EF03882309F457C0809110031F
:100FD00080FF05C08091E00082608093E000E8011E
:100FE000B12C8AEFA82E93E0892E2AE3922E209727
:100FF00011F4BB20D9F10E94C30181110AC0AA9447
:10100000AA20D9F161E070E080E090E00E94C8047D
:10101000EECF8C171D0611F00CF08C2F9FB7F894B3
:101020008092E9002091E80025FD02C09FBFDFCF3C
:10103000282F30E0C21BD30BF701815020F04191E3
:101040004093F100FACFE20EF31EBB2021F0909204
:10105000E800B12CEBCF8091E80085FDE7CF9092BE
:10106000E800BB24B394209709F3F3CF5D9884E69E
:1010700080930F03101611063CF081E090E0F6011A
:101080009383828310E000E0C801DF91CF911F912C
:101090000F91FF90EF90DF90CF90BF90AF909F9017
:1010A0008F900895CF93DF931F92CDB7DEB76983FA
:1010B000DC01ED91FC910280F381E02D41E050E0F4
:1010C000BE016F5F7F4F09950F90DF91CF9108951B
:1010D00083E08093E9008091F200882319F08AE38D
:1010E0008093E80008950E94C30190E00895CF9393
:1010F000DF931F92CDB7DEB7FC018485958597FD00
:1011000008C02FEF3FEF358724870F90DF91CF91F5
:101110000895CE0101960E949901019719F48981E1
:1011200090E0F3CF8FEF9FEFF0CF0F931F93CF930C
:10113000DF931F92CDB7DEB78C01FC0184859585C6
:1011400097FF0BC0CE0101960E949901019771F49F
:10115000898190E0F80195878487F80184859585D9
:101160000F90DF91CF911F910F9108958FEF9FEF17
:10117000F1CFFC018485958597FD0BC09FB7F8944E
:1011800082E08093E9008091F2009FBF90E0019699
:1011900008959FB7F89482E08093E9008091F2006F
:1011A0009FBF90E0089560E0FC0180810C940A03E9
:1011B00061E0FC0180810C940A03FC0180810E94A3
:1011C000E10221E0892B09F420E0822F0895EF92BB
:1011D000FF920F931F93CF93DF93EC01CB01072E68
:1011E000000CAA0BBB0B8C839D83AE83BF835987F6
:1011F00048878B81882339F18B01F12CE12C61E048
:1012000088810E940A036885798590E080E00E94C9
:10121000C80460E088810E940A036885798590E0AF
:1012200080E00E94C8048FEFE81AF80A0E151F0527
:1012300031F760E08881DF91CF911F910F91FF908E
:10124000EF900C940A03DF91CF911F910F91FF90C3
:10125000EF90089548EC50E064E070E08BEB95E08F
:101260000C94E70842E350E068E070E08BEB95E017
:101270000C94E7088F929F92AF92BF92CF92DF9229
:10128000EF92FF92CF93DF93EC016A017B0180E83C
:10129000C81A83E4D80A8DE6E80A88E3F80A8CE3E2
:1012A000882E912CA12CB12CC701B601A501940167
:1012B0000E94BC316D83CA01B901A50194010E944D
:1012C000BC316C83C701B60120E13EE040E050E054
:1012D0000E94BC31CA01B90128E130E040E050E091
:1012E0000E94BC316B83C701B60120E831E541E0C3
:1012F00050E00E94BC31188263E97EEF4881542F90
:10130000537081E009F080E090E0FC01E359FE4F6A
:101310002E173F0740F0FB01E81BF90B2E0F3F1F74
:101320004F5F4883EBCF81E089838981682F6150CB
:10133000770BFB01EB54FF4FE491511103C0823056
:1013400009F4EF5FF0E02E173F0720F02E1B3F0B54
:101350008F5FEACF2F5F2A83DF91CF91FF90EF90CD
:10136000DF90CF90BF90AF909F908F900895CF93D4
:10137000DF93EC010E94230528EE33E040E050E0CB
:101380000E94BC318091060390910703A09108034D
:10139000B0910903BA01A901480F591F6A1F7B1FA9
:1013A000CE010E943A09CE01DF91CF910895DC0170
:1013B00050E0E5EBF0E081E0861730F49491490FBE
:1013C000511D8F5F3196F8CF633038F0CD018370B7
:1013D0009927892B11F44F5F5F4F9D012D5F3F4F80
:1013E00036952795369527956DE671E0A69FC00145
:1013F000A79F900DB69F900D11240197820F931F08
:10140000840F951F0895EF92FF920F931F93CF9330
:10141000DF93EC0188814A81698190E00E94D709BD
:101420009C01A8E1B0E00E9499312B817B018C01E5
:10143000E20EF11C011D111DA8019701ACE3B0E003
:101440000E9457312C817B018C01E20EF11C011DA1
:10145000111DA80197010E9457312D81620F711D46
:10146000811D911D60587C4B8249974CDF91CF9133
:101470001F910F91FF90EF900895CF92DF92EF921E
:10148000FF920E94030A6B017C010E94230528EE53
:1014900033E040E050E00E94BC31C21AD30AE40AB3
:1014A000F50AC0920603D0920703E0920803F09277
:1014B0000903FF90EF90DF90CF900895FC018081A9
:1014C0004281618190E00E94D709069667E070E052
:1014D0000E94A8310895CF92DF92EF92FF920F936E
:1014E0001F93CF93DF93EC0181E08093530480E559
:1014F0008093750410925404109276048D2F90E01E
:101500000E947C02CE0199270E947C0281E00E9409
:10151000D8030E94B3036B017C0180914D048111BB
:1015200063C081E080934D0480934C049FEF9093BF
:101530004B0410924A04109249048093280480912D
:101540002804806A8093280480912704813009F060
:1015500084C0109227040E94B3036B017C01809128
:1015600028048093BB0080914F0490915004A09177
:101570005104B0915204892B8A2B8B2BA1F00E942D
:10158000B30300914F041091500420915104309105
:1015900052046C197D098E099F0906171707280741
:1015A000390708F442C08091BC0083FDD8CF85EC98
:1015B0008093BC000E94B3036B017C0180914D04B9
:1015C000813009F44CC080914A0481116AC0809135
:1015D0004A04E9E2F4E0A7E0B4E090E0981751F1A2
:1015E00021912D939F5FFACF80914F0490915004E9
:1015F000A0915104B0915204892B8A2B8B2B09F4B2
:101600008CCF0E94B30300914F041091500420919D
:101610005104309152046C197D098E099F090617F7
:1016200017072807390708F078CF80914E040E94E9
:10163000560380E01092060480930504882399F1F4
:1016400087E794E00E940D02DF91CF911F910F91E7
:10165000FF90EF90DF90CF90089585EEA9CF809115
:101660004F0490915004A0915104B0915204892BE1
:101670008A2B8B2B09F4A2CF0E94B30300914F0455
:101680001091500420915104309152046C197D093D
:101690008E099F09061717072807390708F08ECF0C
:1016A000C4CF81E096CF8FEFCFCFEF92FF920F9311
:1016B0001F93CF93DF93E090CA05F090CB05C6E06F
:1016C000D0E0853479F0833541F0813419F485E038
:1016D000E82EF12CC1E0D0E005C0E701219685E0BD
:1016E000E80EF11C87E08C9F80018D9F100D112466
:1016F000EC16FD06B4F0C8010797801791076CF44B
:101700000E946B0A811109C0C801069780179107D2
:1017100024F40E946B0A882331F02196095F1F4F41
:10172000E7CFD0E0C0E0CE01DF91CF911F910F91C4
:10173000FF90EF900895DF92EF92FF920F931F9327
:10174000CF93DF938C017B01D0E0C0E087E0D82EFF
:101750002091CA053091CB05D29EC001D39E900D39
:1017600011248C179D078CF0CE010E946B0A8823F0
:1017700051F0F801CD31D1050CF0F7018081918154
:101780000196918380832796E3CFDF91CF911F91BC
:101790000F91FF90EF90DF900895CF92DF92EF923C
:1017A000FF920F931F93CF93DF937B01009741F13B
:1017B0008C0182E0C82ED12C82E090E00E94FC31A6
:1017C000EC011882A601B8010E94DE331A82CE0114
:1017D0000E94C530682FC7010E94FB04209719F0B2
:1017E000CE010E9498320E5F1F4F82E0C80ED11CBE
:1017F0008FEFE81AF80A8EE0C816D104E9F60CC09B
:10180000D0E0C0E060E0C7018C0F9D1F0E94FB0488
:101810002196C630D105B1F7DF91CF911F910F917D
:10182000FF90EF90DF90CF9008952F923F924F92CC
:101830005F926F927F928F929F92AF92BF92CF9260
:10184000DF92EF92FF920F931F93CF93DF93582E67
:10185000492E3B01D12CC12CC1E0D0E08091CA05BA
:101860009091CB0505968C179D070CF45CC0E52C78
:10187000F42C560110E000E0302E82E090E00E944F
:10188000FC314C010F5F1F4FA801440F551FB701DA
:10189000C4010E94DE33F4011282C5010E946B0A6A
:1018A000282EC4010E94C5302816190671F581142E
:1018B000910419F0C4010E949832F2E0EF0EF11C7D
:1018C0008FEFA81AB80A07301105B1F627E02C9F50
:1018D000C0012D9F900D112401970E946B0AF30106
:1018E0008083CE01DF91CF911F910F91FF90EF90F8
:1018F000DF90CF90BF90AF909F908F907F906F9030
:101900005F904F903F902F9008958114910419F0AB
:10191000C4010E949832E7E0CE0ED11CF6E03F16DB
:10192000A9F221969BCFD0E0C0E0DBCFCF92DF922F
:10193000EF92FF920F931F93CF93DF931F92CDB738
:10194000DEB71982BE016F5F7F4F0E94150C7C01CC
:10195000019727E0289F6001299FD00C112410E0F7
:1019600000E060E0C8018C0D9D1D0E94FB040F5F2C
:101970001F4F07301105A9F7C7010F90DF91CF91D5
:101980001F910F91FF90EF90DF90CF90089560E14D
:1019900071E08091FC039091FD030E94150C00976B
:1019A00031F480914503813051F482E008959C0127
:1019B000215031092530310520F00697B4F780E039
:1019C000089581E00895CF93DF93EC018881998198
:1019D000009711F00E949832198218821D821C8291
:1019E0001B821A82DF91CF910895FC018081918141
:1019F000009711F00C9498320895CF92DF92EF92F5
:101A0000FF920F931F93CF93DF931F92CDB7DEB753
:101A10004983FC0101900020E9F73197E81BF90B9D
:101A2000DC01EB30F10568F4F12CE12CC7010F90DB
:101A3000DF91CF911F910F91FF90EF90DF90CF90AA
:101A400008952D91022E000C330B205331092A30BA
:101A5000310550F79D01281B390B2E173F0788F3DE
:101A6000F62E8C01BE016F5F7F4F0E94150C892BF3
:101A7000D9F68F2D0E94550B7C0118161906A4F675
:101A8000019727E0289F6001299FD00C1124B601FF
:101A9000C8010E94CD0B6981C60106960E94FB0415
:101AA000C5CFFB0101900020E9F73197AF01461B3C
:101AB000570BDC01ED91FC910280F381E02D09943C
:101AC0008F929F92AF92BF920F931F93CF93DF930A
:101AD000CDB7DEB7A1970FB6F894DEBF0FBECDBF6E
:101AE00019A2423008F44AE08E010F5D1F4F842E88
:101AF000912CB12CA12CA50194010E94BC31E62FA0
:101B0000B901CA01EA3004F5E05DD801EE938D0118
:101B1000232B242B252B79F790E080E0109729F0D8
:101B2000BD0180E295E00E94510DA1960FB6F89498
:101B3000DEBF0FBECDBFDF91CF911F910F91BF9040
:101B4000AF909F908F900895E95CDFCFCF92DF92A6
:101B5000EF92FF92CF93DF936C01990FEE08FF088D
:101B6000F7FE19C06DE280E295E00E945208EC0198
:101B700066277727CB016C197D098E099F094AE0FA
:101B80000E94600D8C0F9D1FDF91CF91FF90EF9011
:101B9000DF90CF9008954AE0C701B601DF91CF9161
:101BA000FF90EF90DF90CF900C94600D6BE571E0AB
:101BB0000C94510DCF93DF93BC0180E295E00E941D
:101BC0006306EC0180E295E00E94D60D8C0F9D1F0C
:101BD000DF91CF910895CF93DF930E94A60DEC0182
:101BE00080E295E00E94D60D8C0F9D1FDF91CF9172
:101BF0000895CF93DF93D0E0C0E0009731F0BC01AF
:101C000080E295E00E94510DEC0180E295E00E9497
:101C1000D60D8C0F9D1FDF91CF9108950F931F93C9
:101C2000CF93DF93EC010E9455068C01CE010E94F8
:101C3000D60D800F911FDF91CF911F910F910895C5
:101C4000FC0124813581232B49F06BEF72E0808108
:101C500091810E94053421E0892B09F020E0822F38
:101C6000089585ED8093BC0080914F0490915004BD
:101C7000A0915104B09152040796A11DB11D23E01B
:101C8000B695A795979587952A95D1F72091BC0091
:101C900024FD03C010924D04089540914F045091CB
:101CA00050046091510470915204452B462B472BF0
:101CB00069F30097A105B10541F025E32A95F1F7F5
:101CC00000000197A109B109E1CF80914E040C9465
:101CD000560346E050E066E473E08091FA03909189
:101CE000FB030E94153421E0892B09F020E0822FAC
:101CF00008950F931F93CF93DF938C01EB01FC01A9
:101D0000808191810097E1F0688179816115710589
:101D1000A9F0428153812C813D814217530770F015
:101D20000E940E348C819D81F801958384831D82ED
:101D30001C82DF91CF911F910F9108950E949832DC
:101D400088819981F801918380838A819B81938323
:101D500082838C819D8195838483198218821B8262
:101D60001A82E5CF0F931F93CF93DF938C01EB0182
:101D70000E9441318883C80101960E9441318983C4
:101D8000CE01DF91CF911F910F910895CF93DF93F3
:101D9000EB010E9441318883CE01DF91CF910895FC
:101DA000CF93DF93EB010E9441318883CE01DF9115
:101DB000CF9108950F931F93CF93DF9306E413E021
:101DC000D0E0C0E0CE010E944131F80181938F0143
:101DD0002196C730D105B1F78AE090E00E944131E9
:101DE000809301048BE090E00E94413180930204D3
:101DF0008CE090E00E944131809303048DE090E0FC
:101E00000E9441318093040465E473E086E490E02D
:101E10000E94D00E63E473E088E290E00E94C60E58
:101E200062E473E082E390E00E94C60E61E473E036
:101E300084E390E00E94D00E6DE373E086E390E0CF
:101E40000E94B20E64E473E08CE390E00E94C60E40
:101E500060E473E08EE390E00E94C60E67E173E0F9
:101E60008CE490E00E94C60E6DE873E08EE490E092
:101E70000E94B20E64E073E08AE590E00E94B20E28
:101E800062E073E084E690E00E94B20E60E073E0EE
:101E90008EE690E00E94B20E6FEF72E088EC90E068
:101EA0000E94C60ED0E0C0E0BE016A5D7C4F8CEDA2
:101EB00090E00E94B20EBE01685E7C4F8EED90E015
:101EC0000E94B20E2296CE30D10571F7DF91CF91EC
:101ED0001F910F910895FF920F931F93CF93DF935C
:101EE000EC01F62E08811981C8010E944131F816D3
:101EF00021F06F2DC8010E944931CE01DF91CF91B1
:101F00001F910F91FF900895EF92FF920F931F93EF
:101F1000CF93DF9300D0CDB7DEB781E0E82E84E029
:101F2000F82E0AE010E01A830983F70161917F011E
:101F3000CE0101960E946B0F0F5F1F4F0E301105EF
:101F400091F781E094E00F900F90DF91CF911F9176
:101F50000F91FF90EF900895CF93DF93EB010E94D4
:101F6000C530C050DC4F8883DF91CF910C94840F33
:101F7000CF92DF92EF92FF920F931F93CF93DF9355
:101F800000D0CDB7DEB76C017C0110E000E01A8311
:101F90000983F70161917F01CE0101960E946B0FC9
:101FA0000F5F1F4F0730110591F7C6010F900F907B
:101FB000DF91CF911F910F91FF90EF90DF90CF9025
:101FC0000895EF92FF920F931F93CF93DF9300D06A
:101FD000CDB7DEB78C017B019A838983FB016081D9
:101FE000CE0101960E946B0F0F5F1F4F1A8309836A
:101FF000F7016181CE0101960E946B0FC7010F901E
:102000000F90DF91CF911F910F91FF90EF90089566
:102010009F92AF92BF92CF92DF92EF92FF920F9377
:102020001F93CF93DF9300D0CDB7DEB76C01B62EF0
:102030007A011A821982BE016F5F7F4F80E590E0BE
:102040000E94B20E89819A818C5E9A4F2DE0289F62
:102050008001299F100D1124B801C6010E94CD0BEB
:10206000F701A0809180C380D4806281C801079667
:102070000E94FB04692DC80108960E94FB046A2D8A
:10208000C80109960E94FB046C2DC8010A960E94A3
:10209000FB046D2DC8010B960E94FB046B2DC8013B
:1020A0000C960E94FB0489819A810196843FF1E09D
:1020B0009F07B9F09A838983BE016F5F7F4F80E5E8
:1020C00090E00E94E10F0F900F90DF91CF911F9150
:1020D0000F91FF90EF90DF90CF90BF90AF909F90C7
:1020E00008951A821982E8CFFF920F931F93CF931E
:1020F000DF93CDB7DEB72C970FB6F894DEBF0FBED7
:10210000CDBF8C01F62ECE0107960E94B7098F81B4
:10211000898388858A8389858B838A858C838B854F
:102120008D838C858E83AE014F5F5F4F6F2DC8010D
:102130000E940810BE016F5F7F4F80E590E00E9413
:10214000B20E89819A810E94EB0D89819A8120913A
:1021500004033091050382179307A1F42091000333
:1021600030910103820F931F843F21E09207B4F462
:10217000909305038093040364E073E08AE590E0A4
:102180000E94E10F2C960FB6F894DEBF0FBECDBFB4
:10219000DF91CF911F910F91FF9008951092050349
:1021A00010920403E9CF0F931F93CF93DF9300D0D6
:1021B000CDB7DEB78B019A838983FB016081CE01A5
:1021C00001960E946B0FC8010F900F90DF91CF9185
:1021D0001F910F9108950F931F93CF93DF9300D01A
:1021E000CDB7DEB78B019A838983FB016081CE0175
:1021F00001960E946B0FC8010F900F90DF91CF9155
:102200001F910F9108950F931F93CF93DF93CDB735
:10221000DEB72A970FB6F894DEBF0FBECDBF8BEBAB
:1022200095E00E94D80810E000E08091CA059091E6
:10223000CB0523E0880F991F2A95E1F708171907A6
:102240003CF460E0C8010E94FB040F5F1F4FEDCF1C
:1022500004E012E460E0C8010E94FB040F5F1F4F1E
:102260000C3C8BE51807B1F710E000E01A830983F6
:1022700060E0CE0101960E946B0F0F5F1F4F0115AA
:1022800082E0180799F787E0EEE5F1E0DE011196AC
:1022900001900D928A95E1F7CE0101960E94B80F48
:1022A00082E080930104809302048093030480936E
:1022B00004040E94840F19861886BE01685F7F4F50
:1022C00086E490E00E94E10F11E01887BE01685F8C
:1022D0007F4F88E290E00E94EB101A87BE01665F94
:1022E0007F4F8CE390E00E94EB101092170367E1A0
:1022F00073E08CE490E00E94EB1088E190E0909312
:102300008E0380938D036DE873E08EE490E00E946D
:10231000E10F02E310E0109305030093040364E06F
:1023200073E08AE590E00E94E10F109303030093AD
:10233000020362E073E084E690E00E94E10F1093F4
:1023400001030093000360E073E08EE690E00E94DA
:10235000E10F0E942A0961E08EE290E00E9449317B
:1023600088E19EE00FB6F894A895809360000FBEB8
:102370009093600060ED77E080E090E00E94C804F8
:102380002A960FB6F894DEBF0FBECDBFDF91CF9176
:102390001F910F9108950F931F93CF93DF93EC013B
:1023A00088819981009759F02A813B812617370748
:1023B00030F081E0DF91CF911F910F9108958B0153
:1023C0006F5F7F4F0E942133009759F09983888374
:1023D0001B830A832C813D81232B59F7FC0110823A
:1023E000E8CF80E0E7CFEF92FF920F931F93CF9358
:1023F000DF936115710541F480E0DF91CF911F916A
:102400000F91FF90EF90089541155105B1F07B01B8
:10241000EC010C811D81040F151FB8010E94CB1126
:10242000882351F3288139818C819D81B701820FE6
:10243000931F0E940E341D830C8381E0DECFCF9367
:10244000DF9300D0CDB7DEB769831A8241E050E058
:10245000BE016F5F7F4F0E94F3110F900F90DF91CD
:10246000CF910895FB0101900020E9F73197AF016A
:10247000461B570B0C94F311FB014481558160817D
:1024800071810C94F311EF92FF920F931F93CF93EE
:10249000DF93EC017B018A01BA010E94CB1181110B
:1024A0000BC0CE010E94E30CCE01DF91CF911F91B2
:1024B0000F91FF90EF9008951D830C83B7018881E1
:1024C00099810E940E34F0CFFB0101900020E9F7C2
:1024D0003197AF01461B570B0C9443120F931F9378
:1024E000CF93DF93CDB7DEB729970FB6F894DEBF51
:1024F0000FBECDBF8C01862FF8011182108213828E
:102500001282158214824AE0BE016F5F7F4F90E015
:102510000E941731BE016F5F7F4FC8010E94641295
:1025200029960FB6F894DEBF0FBECDBFDF91CF91D5
:102530001F910F910895CF93DF93EC01FB01861754
:10254000970749F0608171816115710541F04481FF
:1025500055810E944312CE01DF91CF9108950E94D0
:10256000E30CF9CFFC0111821082138212821582D2
:1025700014820C949B12FC0111821082138212822D
:10258000158214826115710551F0FB010190002044
:10259000E9F73197AF01461B570B0C94431208958E
:1025A000CF93DF93EC016DE571E00E94BB120E94B6
:1025B000E00697FD05C0682FCE010E941F12F7CFDD
:1025C000CE01DF91CF910895CF93DF9300D000D05B
:1025D00000D0CDB7DEB7CE0101960E94D012CE0159
:1025E00001960E94F50C64E670E080E090E00E94A5
:1025F000C80460EC72E083E894E00E9463062696CB
:102600000FB6F894DEBF0FBECDBFDF91CF91089516
:10261000EF92FF920F931F93CF93DF9300D000D0E0
:1026200000D0CDB7DEB77C018B01CE0101960E94B0
:10263000D012CE0101960E94F50C64E670E080E0B5
:1026400090E00E94C80466EB72E083E894E00E9488
:102650006306B70183E894E00E94550663EB72E0DD
:1026600083E894E00E94630664E670E080E090E016
:102670000E94C804B80183E894E00E940E0E64E64C
:1026800070E080E090E00E94C8046AE183E894E092
:102690000E9461076CED75E080E090E00E94C80444
:1026A000CE0101960E94D012CE0101960E94F50C37
:1026B00026960FB6F894DEBF0FBECDBFDF91CF9147
:1026C0001F910F91FF90EF900895CF93DF9300D06B
:1026D00000D000D0CDB7DEB7CE0101960E94D01257
:1026E000CE0101960E94F50C67EA72E083E894E05F
:1026F0000E94630664EF71E080E090E00E94C804ED
:10270000CE0101960E94D012CE0101960E94F50CD6
:102710006BE972E083E894E00E94630664EF71E085
:1027200080E090E00E94C804CE0101960E94D01281
:10273000CE0101960E94F50C6FE872E083E894E008
:102740000E94630664EF71E080E090E00E94C8049C
:10275000CE0101960E94D012CE0101960E94F50C86
:102760006BE772E083E894E00E94630664EF71E037
:1027700080E090E00E94C804CE0101960E94D01231
:10278000CE0101960E94F50C6CE572E083E894E0BE
:102790000E94630664EF71E080E090E00E94C8044C
:1027A000CE0101960E94D012CE0101960E94F50C36
:1027B00065E572E083E894E00E94630664EF71E0EF
:1027C00080E090E00E94C804CE0101960E94D012E1
:1027D000CE0101960E94F50C67E472E083E894E074
:1027E0000E94630664EF71E080E090E00E94C804FC
:1027F000CE0101960E94D012CE0101960E94F50CE6
:102800006BE372E083E894E00E94630664E670E0A4
:1028100080E090E00E94C804CE0101960E94D01290
:10282000CE0101960E94F50C64E372E083E894E027
:102830000E94630626960FB6F894DEBF0FBECDBF8A
:10284000DF91CF9108954F925F926F927F928F9216
:102850009F92AF92BF92CF92DF92EF92FF920F932F
:102860001F93CF93DF9300D000D000D0CDB7DEB759
:102870001092FD031092FC031092FB031092FA03D6
:102880001092F9031092F8031092F7031092F603D6
:102890001092F5031092F4031092F3031092F203D6
:1028A0001092F1031092F003DC01ED91FC91908104
:1028B0009093FE038091CC05282F2D7F213549F47C
:1028C000943531F19135C1F09334A1F083E0582E65
:1028D00015C08C3469F4943509F477C0913561F0F2
:1028E000993451F0933491F700E098E0592E13C0D9
:1028F000943551F700E00DC032E0532E892F8D7FC3
:10290000893421F09B7F913509F061C000E003C05C
:1029100007E023E0522E63EB72E0CF010E94E33028
:10292000412C10E03801B4E06B0E711C780125E0F9
:10293000E20EF11C6801A6E0CA0ED11C5801B7E0F6
:10294000AB0EB11C480128E0820E911C075F1F4F9F
:10295000009709F450C04394451004C09093FD03C0
:102960008093FC03242D30E02615370521F4909345
:10297000FB038093FA032E153F0521F49093F9038E
:102980008093F8032C153D0521F49093F703809371
:10299000F6032A153B0521F49093F5038093F40385
:1029A0002815390521F49093F3038093F20320173F
:1029B000310721F49093F1038093F00365E671E011
:1029C00090E080E00E94E330C3CF08E0A2CF64E152
:1029D00072E083E894E00E94630664EF71E080E0B7
:1029E00090E00E94C804CE0101960E94D012CE0150
:1029F00001960E94F50C26960FB6F894DEBF0FBE26
:102A0000CDBFDF91CF911F910F91FF90EF90DF909D
:102A1000CF90BF90AF909F908F907F906F905F907E
:102A20004F900895EF92FF920F931F93CF93DF93F0
:102A300000D000D000D0CDB7DEB78C01CE0101961A
:102A40000E94D012CE0101960E94F50C64E670E05F
:102A500080E090E00E94C80460E272E083E894E0C5
:102A60000E94630668EE73E080E090E00E94C80474
:102A7000FF24F39487E2E82E83E894E00E94200785
:102A80002091D9051816190664F521112AC083E88A
:102A900094E00E94CC06909100049923E9F0909173
:102AA000FF03292F30E024533A4F22583F4FF901BA
:102AB0008A3051F080839F5F983218F0E092FF03D4
:102AC000DBCF9093FF03D8CF1082109200041092B6
:102AD000FF03F092D905D0CF883371F6F09200044D
:102AE000CBCF68EC71E0222321F01092D9056AE483
:102AF00076E0C8010E94BB12C80126960FB6F89472
:102B0000DEBF0FBECDBFDF91CF911F910F91FF9020
:102B1000EF900895CF92DF92FF920F931F93CF9380
:102B2000DF93CDB7DEB762970FB6F894DEBF0FBE66
:102B3000CDBF8C01F62E6A016DE571E0CE010D96D8
:102B40000E94BB1289E06F2D8F1540F5CE010196D2
:102B50000E946E12BE016F5F7F4FCE010D960E94E4
:102B6000790EBE01635F7F4FC8010E94B212CE0191
:102B700001960E94F50CCE010D960E94F50CC8013D
:102B800062960FB6F894DEBF0FBECDBFDF91CF9136
:102B90001F910F91FF90DF90CF900895CE01019685
:102BA000E5E0CE16D104D9F40E946E12BE016F5F2B
:102BB0007F4FCE010D960E94790ECE0101960E94A4
:102BC000F50CF80111821082138212821582148290
:102BD000BE01635F7F4FC8010E94790ECCCF0E9477
:102BE0006E126BEF72E0CE0107960E94BB124D8110
:102BF0005E8169817A81CE0107960E94F31181116D
:102C000004C0CE0107960E94E30CBE01695F7F4FAE
:102C1000CE010D960E949B12CE0107960E94F50CE4
:102C2000CCCFBF92CF92DF92EF92FF920F931F9380
:102C3000CF93DF93CDB7DEB72C970FB6F894DEBFF6
:102C40000FBECDBF8C016B016DE571E0CE01079623
:102C50000E94BB1287E08C9D70018D9DF00C1124A9
:102C6000C70101970E946B0A80931001670187E0FA
:102C7000C81AD108B12CF12CE12CC7018C0D9D1D77
:102C80000E946B0A811101C0B39493E09B15D0F4AC
:102C90006BEF72E0C8010E94BB12CE0107960E9442
:102CA000F50CC8012C960FB6F894DEBF0FBECDBF51
:102CB000DF91CF911F910F91FF90EF90DF90CF9018
:102CC000BF900895A701682FCE0101960E948A1532
:102CD000BE016F5F7F4FCE0107960E943C12CE016E
:102CE00001960E94F50CEFEFEE1AFE0AF6E0EF16E1
:102CF000F10419F6F80111821082138212821582F2
:102D00001482BE01695F7F4FC8010E94790EC5CF52
:102D1000EF92FF920F931F93CF93DF93CDB7DEB760
:102D20002C970FB6F894DEBF0FBECDBF8C017B0190
:102D300069E172E00E94E733892B09F05EC00E94CE
:102D4000870680911001823090F42091010488EE72
:102D500093E0289FA001299F500D11244115510592
:102D6000E1F161E070E08CEA95E00E94E7080E94E2
:102D7000870662E0C7010E9474101091400311237E
:102D800009F404C16EE671E0CE0107960E94BB1201
:102D90006091FC037091FD03CE0101960E94BB126D
:102DA000BE01695F7F4FCE0101960E940813CE01DC
:102DB00001960E94F50CCE0107960E94F50C812F1A
:102DC0002C960FB6F894DEBF0FBECDBFDF91CF912A
:102DD0001F910F91FF90EF9008958CEA95E00E946B
:102DE000DD08811105C08CEA95E00E94D808BFCFAC
:102DF0008CEA95E00E94D308BACF61E771E0C80180
:102E00000E94E733892B71F5809110018D7FB1F419
:102E100080914103811112C02091020488EE93E059
:102E2000289FA001299F500D11244115510551F0F3
:102E300061E070E08DE995E00E94E7080E94870656
:102E400063E098CF8DE995E00E94DD08811105C00F
:102E50008DE995E00E94D808F1CF8DE995E00E94B8
:102E6000D308ECCF65E771E0C8010E94E733892BF6
:102E700091F51091030464EF71E080E090E00E940E
:102E8000C8040E94870680911001882311F08330C6
:102E900081F488EE93E0189FA001199F500D112432
:102EA0004115510541F061E070E08FE795E00E9427
:102EB000E70861E25FCF8FE795E00E94DD088111AE
:102EC00005C08FE795E00E94D808F3CF8FE795E023
:102ED0000E94D308EECF69E771E0C8010E94E73392
:102EE000892BD1F5809141038230B0F580E795E0E0
:102EF0000E94DD08811130C01091040464EF71E07C
:102F000080E090E00E94C8040E9487068091100132
:102F10008B7F81F488EE93E0189FA001199F500DDC
:102F200011244115510541F061E070E080E795E022
:102F30000E94E7086CE21ECF80E795E00E94DD0862
:102F4000811105C080E795E00E94D808F3CF80E7A3
:102F500095E00E94D308EECF6DE771E0C8010E94B2
:102F6000E73310E0892B09F02ACF68E572E080E0B2
:102F700090E00E94C8040E94870680911001882377
:102F800011F0833019F481E08093390311E017CFF9
:102F900061E871E08091F8039091F9030E94E733B2
:102FA000892BF9F481E40E94550B019759F40E9492
:102FB0002A0940E061E48091FC039091FD030E94A6
:102FC000FD0C08958091FE02882349F081E40E945F
:102FD000550B181619061CF41092FE02E8CF0E9439
:102FE000320980E00895EF92FF920F931F93CF93E1
:102FF000DF93CDB7DEB76F970FB6F894DEBF0FBE85
:10300000CDBF8C017B01161617060CF04BC06091EA
:10301000F8037091F90346E050E0CE0101960E945A
:103020002334FF92EF9281E692E09F938F937E018B
:103030008EE0E80EF11CFF92EF920E943234B7014D
:10304000CE0101960E94FA33BE016F5F7F4FCE0121
:103050004A960E94BB12B801CE0144960E94BB1250
:10306000BE01665E7F4FCE0144960E940813CE01DA
:1030700044960E94F50CCE014A960E94F50C0F90E2
:103080000F900F900F900F900F906F960FB6F894CF
:10309000DEBF0FBECDBFDF91CF911F910F91FF908B
:1030A000EF90089560E171E00E94150C1816190662
:1030B00064F767E871E0CE010E960E94BB12B8017A
:1030C000CE0101960E94BB12BE01625F7F4FCE010E
:1030D00001960E940813CE0101960E94F50CCE01C4
:1030E0000E960E94F50CD1CF2F923F924F925F9295
:1030F0006F927F928F929F92AF92BF92CF92DF9208
:10310000EF92FF920F931F93CF93DF93CDB7DEB76C
:10311000C757D1090FB6F894DEBF0FBECDBF6EE81A
:1031200071E08091F8039091F9030E94E733892BB5
:1031300019F50E942A096EE671E0CE018A5A9F4F66
:103140000E94BB126091FC037091FD03CE010196B9
:103150000E94BB12BE016A5A7F4FCE0101960E94A7
:103160000813CE0101960E94F50CCE018A5A9F4F9A
:103170000E94F50C0E94031165E971E08091F8034B
:103180009091F9030E94E733892B81F5E091F603D2
:10319000F091F70386E0A6E4B3E001900D928A95E2
:1031A000E1F710924D0386E493E00E94B80F6EE6BB
:1031B00071E0CE018A5A9F4F0E94BB126091FC03BE
:1031C0007091FD03CE0101960E94BB12BE016A5AA6
:1031D0007F4FCE0101960E940813CE0101960E94F6
:1031E000F50CCE018A5A9F4F0E94F50C61E871E000
:1031F0008091F8039091F9030E94E733892B51F4F1
:103200000E94C817682F70E08091FC039091FD0325
:103210000E94F3176DE971E08091F8039091F90332
:103220000E94E733892B31F581E08093FE028BEB1E
:1032300095E00E94D8086EE671E0CE018A5A9F4F51
:103240000E94BB126091FC037091FD03CE010196B8
:103250000E94BB12BE016A5A7F4FCE0101960E94A6
:103260000813CE0101960E94F50CCE018A5A9F4F99
:103270000E94F50C67EA71E08091F8039091F903E0
:103280000E94E733892B09F04AC06DE571E0CE0159
:103290008B599F4F0E94BB1201E010E0B801CE0194
:1032A00001960E941116BE016F5F7F4FCE018B59B0
:1032B0009F4F0E943C12CE0101960E94F50C6AE0DD
:1032C000CE018B599F4F0E941F120F5F1F4F063078
:1032D000110521F7BE016B597F4FCE018A5A9F4FCE
:1032E0000E94B2126091FC037091FD03CE01019621
:1032F0000E94BB12BE016A5A7F4FCE0101960E9406
:103300000813CE0101960E94F50CCE018A5A9F4FF8
:103310000E94F50CCE018B599F4F0E94F50C61EB7A
:1033200071E08091F8039091F9030E94E733892BB3
:1033300009F06CC08091F6039091F7030E94C530AC
:103340005C018091F4039091F5030E94C5307C01EB
:103350008501AE14BF040CF059C06DE571E0CE01DB
:1033600001960E94BB1268012AE0C20ED11CC01651
:10337000D106D1F0B801CE018A5A9F4F0E94111692
:10338000BE016A5A7F4FCE0101960E943C12CE01C7
:103390008A5A9F4F0E94F50C6AE0CE0101960E9466
:1033A0001F120F5F1F4FE3CFBE016F5F7F4FCE0134
:1033B0008B599F4F0E94B2126091FC037091FD03E4
:1033C000CE018A5A9F4F0E94BB12BE016B597F4F9C
:1033D000CE018A5A9F4F0E940813CE018A5A9F4FEE
:1033E0000E94F50CCE018B599F4F0E94F50C6CED9D
:1033F00075E080E090E00E94C80486013AE0E31A9C
:10340000F108CE0101960E94F50CA3CF67EB71E0A5
:103410008091F8039091F9030E94E733892B09F01A
:1034200022C16DE571E0CE018B599F4F0E94BB1206
:103430006CE870E0CE018B599F4F0E94CB11BE010A
:1034400064597F4F80E590E00E94B20EAE96EEACDC
:10345000FFACAE9787010951110917FF0EC00B5F32
:103460001F4FC701059717FF08C00B5F1F4F17FFBE
:1034700004C00B5F1F4F17FD8C01101611060CF0D6
:10348000EDC085E0E81AF1086DE571E0CE018B59D9
:103490009F4F0E946412AE968EAD9FADAE975C01B9
:1034A000E1E0AE1AB1088D5E9A4F2DE0289F4001F1
:1034B000299F900C1124A016B1060CF4CFC06DE525
:1034C00071E0CE018A5A9F4F0E94BB12D12CC12CB1
:1034D000C601880D991D0E946B0A682FF6E0CF1671
:1034E000D10421F145E050E025E0C216D10439F0C5
:1034F00039E0C316D10409F06DC049E050E0CE01B7
:1035000001960E948A15BE016F5F7F4FCE018A5AD5
:103510009F4F0E943C12CE0101960E94F50C6FEB6A
:1035200071E0CE018A5A9F4F0E943212EFEFCE1AFD
:10353000DE0AFDE0CF16D10459F6BE016A5A7F4F6C
:10354000CE018B599F4F0E943C12CE018A5A9F4F49
:103550000E94F50C6AE0CE018B599F4F0E941F120A
:10356000EA14FB0481F5BE016B597F4FCE018A5AE4
:103570009F4F0E94B2126091FC037091FD03CE0137
:1035800001960E94BB12BE016A5A7F4FCE0101967E
:103590000E940813CE0101960E94F50CCE018A5AB2
:1035A0009F4F0E94F50C68EB7BE080E090E00E946A
:1035B000C8046DE571E0CE018B599F4F0E946412E3
:1035C00025E0E21AF10831E0A31AB1088DE0881A6B
:1035D000910871CF4BE050E08BE0C816D10409F49C
:1035E0008ECFA6019CE0C916D10439F5862F90E054
:1035F0008230910519F461EC71E093CF833091052D
:1036000019F467E372E08DCF8132910519F464EC0F
:1036100071E087CF8C32910519F467EC71E081CFAE
:103620008430910519F46AEC71E07BCF4CE050E0F6
:10363000069719F46DEC71E074CFCE0101960E94EB
:103640008A15BE016F5F7F4FCE018A5A9F4F0E943D
:103650003C12CE0101960E94F50C68CFCE018B5929
:103660009F4F0E94F50C60ED71E08091F8039091FE
:10367000F9030E94E733892B09F096C0198287E08D
:10368000E7E1F1E0DE01AB59BF4F01900D928A9561
:10369000E1F7FE01EB59FF4F7F0166E2A62E63E0E2
:1036A000B62E78E1C72E73E0D72E1F01F7E02F0E5C
:1036B000311CE5ED8E2EE1E09E2E8E010A5A1F4F41
:1036C000F1E66F2EF2E07F2EA8ED4A2EA1E05A2EF1
:1036D000F70181917F01282F082E000C330B3F93B7
:1036E0008F939F928F921F930F930E943234B80151
:1036F000CE0101960E94FA33F8011082F501808113
:103700009181F2E0AF0EB11C9F938F937F926F92E5
:103710001F930F930E943234B801CE0101960E948C
:10372000FA33F8011082F60180819181F2E0CF0E28
:10373000D11C9F938F935F924F921F930F930E9480
:103740003234B801CE0101960E94FA330FB6F894D4
:10375000DEBF0FBECDBF2E143F0409F0B9CFBE01AE
:103760006F5F7F4FCE018E589F4F0E94BB126091BA
:10377000FC037091FD03CE0184599F4F0E94BB1240
:10378000BE016E587F4FCE0184599F4F0E9408138F
:10379000CE0184599F4F0E94F50CCE018E589F4F49
:1037A0000E94F50C0E942A096DED71E08091F803EA
:1037B0009091F9030E94E733892B09F05BC0809157
:1037C000F4039091F5030E94C5306C018091F203DF
:1037D0009091F3030E94C5307C018091F603909193
:1037E000F7030E94C5308730910509F007C606E24D
:1037F00013E048E1A42E43E0B42E54E3852E53E0B9
:10380000952EF801D182C082F501F182E082B801E3
:103810008CED90E00E94E10FB5018EED90E00E94EA
:10382000E10F0E5F1F4FF2E0AF0EB11C8016910644
:1038300041F70E942A096EE671E0CE018A5A9F4F35
:103840000E94BB126091FC037091FD03CE010196B2
:103850000E94BB12BE016A5A7F4FCE0101960E94A0
:103860000813CE0101960E94F50CCE018A5A9F4F93
:103870000E94F50C63EE71E08091F8039091F903DA
:103880000E94E733892B01F58091F4039091F503B1
:103890000091F6031091F70340E0009719F00E94A1
:1038A000C530482F65E4C8010E94FD0C8C01181634
:1038B00019060CF0BFC50E942A09B8018091FC03CB
:1038C0009091FD030E94F31767EE71E08091F80379
:1038D0009091F9030E94E733892B09F064C040E01E
:1038E00065E48091F6039091F7030E94FD0C31E0AE
:1038F00020E0181619060CF030E0032F122F8091EB
:10390000F4039091F503892B99F068EE73E080E061
:1039100090E00E94C80440E065E48091F403909137
:10392000F5030E94FD0C1816190614F40F5F1F4FC3
:103930008091F2039091F303892B99F068EE73E084
:1039400080E090E00E94C80440E065E48091F203CA
:103950009091F3030E94FD0C1816190614F40F5FE2
:103960001F4F8091F0039091F103892B99F068EE3D
:1039700073E080E090E00E94C80440E065E480913C
:10398000F0039091F1030E94FD0C1816190614F42F
:103990000F5F1F4F0E942A09B8018091FC0390918C
:1039A000FD030E94F3176CEE71E08091F803909193
:1039B000F9030E94E733892BA1F48091F6039091DB
:1039C000F7030E94960C8C01181619060CF035C5E9
:1039D0000E942A09B8018091FC039091FD030E9486
:1039E000F31760EF71E08091F8039091F9030E9462
:1039F000E733892BB1F460E171E08091F603909197
:103A0000F7030E94150C8C01181619060CF018C546
:103A10000E942A09B8018091FC039091FD030E9445
:103A2000F31764EF71E08091F8039091F9030E941D
:103A3000E733892B79F443E063E58091F6039091B5
:103A4000F7030E94FD0CBC018091FC039091FD03E3
:103A50000E94F31768EF71E08091F8039091F903E9
:103A60000E94E733892B49F561E070E08091F6030D
:103A70009091F7030E94AC0F6091F6037091F703E9
:103A8000CE018A5A9F4F0E94BB126091FC03709135
:103A9000FD03CE0101960E94BB12BE016A5A7F4F00
:103AA000CE0101960E940813CE0101960E94F50CEA
:103AB000CE018A5A9F4F0E94F50C6FEF71E0809102
:103AC000F8039091F9030E94E733892B49F562E0EE
:103AD00070E08091F6039091F7030E94AC0F609123
:103AE000F6037091F703CE018A5A9F4F0E94BB12D2
:103AF0006091FC037091FD03CE0101960E94BB1200
:103B0000BE016A5A7F4FCE0101960E940813CE0172
:103B100001960E94F50CCE018A5A9F4F0E94F50C27
:103B200066E072E08091F8039091F9030E94E73318
:103B3000892B49F563E070E08091F6039091F703DB
:103B40000E94AC0F6091F6037091F703CE018A5A80
:103B50009F4F0E94BB126091FC037091FD03CE0148
:103B600001960E94BB12BE016A5A7F4FCE01019698
:103B70000E940813CE0101960E94F50CCE018A5ACC
:103B80009F4F0E94F50C6DE072E08091F8039091D8
:103B9000F9030E94E733892B49F564E070E08091D6
:103BA000F6039091F7030E94AC0F6091F6037091B9
:103BB000F703CE018A5A9F4F0E94BB126091FC030B
:103BC0007091FD03CE0101960E94BB12BE016A5A9C
:103BD0007F4FCE0101960E940813CE0101960E94EC
:103BE000F50CCE018A5A9F4F0E94F50C64E172E0F9
:103BF0008091F8039091F9030E94E733892B09F033
:103C00003FC081E08093420381E090E09A83898302
:103C1000BE016F5F7F4F82E390E00E94E10F8091D1
:103C2000F6039091F7030E94C53090933E03809372
:103C30003D036DE373E086E390E00E94E10F0E9494
:103C40002A096CE172E0CE018A5A9F4F0E94BB1292
:103C50006091FC037091FD03CE0101960E94BB129E
:103C6000BE016A5A7F4FCE0101960E940813CE0111
:103C700001960E94F50CCE018A5A9F4F0E94F50CC6
:103C80006FE172E08091F8039091F9030E94E733AD
:103C9000892B71F58DE995E00E94D30810924203BB
:103CA0001A821982BE016F5F7F4F82E390E00E940B
:103CB000E10F68E272E0CE018A5A9F4F0E94BB1268
:103CC0006091FC037091FD03CE0101960E94BB122E
:103CD000BE016A5A7F4FCE0101960E940813CE01A1
:103CE00001960E94F50CCE018A5A9F4F0E94F50C56
:103CF0006CE272E08091F8039091F9030E94E7333F
:103D0000892B89F58091F6039091F7030E94C530C5
:103D100021E0892B09F420E02093400360E473E064
:103D20008EE390E00E94EB106EE671E0CE018A5ABD
:103D30009F4F0E94BB126091FC037091FD03CE0166
:103D400001960E94BB12BE016A5A7F4FCE010196B6
:103D50000E940813CE0101960E94F50CCE018A5AEA
:103D60009F4F0E94F50C62E372E08091F8039091FE
:103D7000F9030E94E733892B79F58091F60390913E
:103D8000F7030E94C530809341030E942A0961E431
:103D900073E084E390E00E94D3106EE671E0CE0100
:103DA0008A5A9F4F0E94BB126091FC037091FD03E1
:103DB000CE0101960E94BB12BE016A5A7F4FCE010E
:103DC00001960E940813CE0101960E94F50CCE01C7
:103DD0008A5A9F4F0E94F50C6AE372E08091F803C3
:103DE0009091F9030E94E733892BA9F58091F6039E
:103DF0009091F7030E94C53021E0892B09F420E05F
:103E0000209343030E942A0963E473E088E290E070
:103E10000E94EB106091F6037091F703CE018A5A6D
:103E20009F4F0E94BB126091FC037091FD03CE0175
:103E300001960E94BB12BE016A5A7F4FCE010196C5
:103E40000E940813CE0101960E94F50CCE018A5AF9
:103E50009F4F0E94F50C60E472E08091F80390910E
:103E6000F9030E94E733892B91F460E171E08091BE
:103E7000FC039091FD030E94150C90939003809396
:103E80008F036CEA70E083E894E00E94630667E4C5
:103E900072E08091F8039091F9030E94E733892B37
:103EA000A1F561E08EE290E00E9449316EE671E09A
:103EB000CE018A5A9F4F0E94BB126091FC03709101
:103EC000FD03CE0101960E94BB12BE016A5A7F4FCC
:103ED000CE0101960E940813CE0101960E94F50CB6
:103EE000CE018A5A9F4F0E94F50C88E19EE00FB6E2
:103EF000F894A895809360000FBE9093600060EDE9
:103F000077E080E090E00E94C8046CE472E0809169
:103F1000F8039091F9030E94E733892B11F40E9472
:103F2000E41260E572E08091F8039091F9030E9439
:103F3000E733892B89F58091F6039091F7030E946E
:103F4000C53021E0892B09F420E02093170367E1B5
:103F500073E08CE490E00E94EB106EE671E0CE011D
:103F60008A5A9F4F0E94BB126091FC037091FD031F
:103F7000CE0101960E94BB12BE016A5A7F4FCE014C
:103F800001960E940813CE0101960E94F50CCE0105
:103F90008A5A9F4F0E94F50C64E572E08091F80305
:103FA0009091F9030E94E733892B81F48091F60305
:103FB0009091F7030E94C53090938E0380938D03F8
:103FC0006DE873E08EE490E00E94E10F68E572E036
:103FD0008091F8039091F9030E94E733892B09F04F
:103FE00092C11982809101041F928F938FE592E014
:103FF0009F938F938E010A5A1F4F1F930F930E9416
:104000003234B801CE0101960E94FA33F8011082D1
:10401000809102041F928F9385E692E09F938F9385
:104020001F930F930E943234B801CE0101960E9473
:10403000FA33F8011082809103041F928F938DE66A
:1040400092E09F938F931F930F930E943234B80195
:10405000CE0101960E94FA33F80110828091040487
:104060001F928F9383E792E09F938F931F930F93F9
:104070000E943234B801CE0101960E94FA33F80151
:104080001082809145031F928F938BE792E09F935C
:104090008F931F930F930E943234B801CE01019683
:1040A0000E94FA33F8011082809140031F928F938F
:1040B00085E892E09F938F931F930F930E94323471
:1040C0000FB6F894DEBF0FBECDBFB801CE0101968A
:1040D0000E94FA33F8011082809117031F928F9388
:1040E00085EDE82E82E0F82EFF92EF921F930F935A
:1040F0000E943234B801CE0101960E94FA33F801D1
:10410000108280918E038F9380918D038F93FF9205
:10411000EF921F930F930E943234B801CE010196A3
:104120000E94FA33F8011082809142031F928F930C
:104130008DE892E09F938F931F930F930E943234E8
:10414000B801CE0101960E94FA33F80110828091E5
:1041500041031F928F9387E992E09F938F931F9360
:104160000F930E943234B801CE0101960E94FA33B7
:10417000F801108280913E038F9380913D038F93CD
:104180008CE992E09F938F931F930F930E94323498
:10419000B801CE0101960E94FA33F8011082CE01D7
:1041A0008E589F4F0E94B709CE018E589F4F0E9494
:1041B0005E0AE82FF0E0EE0FFF1FEA5DFC4F818101
:1041C0008F9380818F9381EA92E09F938F931F93C7
:1041D0000F930E9432340FB6F894DEBF0FBECDBFEE
:1041E000B801CE0101960E94FA33F8011082CE0187
:1041F0008E589F4F0E945E0AE82FF0E0EE0FFF1FDF
:10420000E85EFC4F81818F9380818F93FF92EF92C4
:104210001F930F930E943234B801CE0101960E9481
:10422000FA33F8011082E6968FADE6971F928F93CE
:10423000E3968FADE3971F928F93E4968FADE4974B
:104240001F928F93E5968FADE5971F928F9387EA24
:1042500092E09F938F931F930F930E943234B80183
:10426000CE0101960E94FA33F8011082E7968FADD5
:10427000E7970FB6F894DEBF0FBECDBF8A3008F0C7
:1042800001C11F928F9385EB92E09F938F931F93B1
:104290000F930E9432340F900F900F900F900F9059
:1042A0000F90B801CE0101960E94FA33F8011082F6
:1042B00069EB72E0CE0101960E94FA33BE016F5F96
:1042C0007F4FCE0184599F4F0E94BB126091FC0327
:1042D0007091FD03CE018B599F4F0E94BB12BE010E
:1042E00064597F4FCE018B599F4F0E940813CE0116
:1042F0008B599F4F0E94F50CCE0184599F4F0E940D
:10430000F50C0E942A0963EC72E08091F803909109
:10431000F9030E94E733892B09F056C0E4961FAEDB
:104320001EAEE497AE961FAE1EAEAE97BE016459A8
:104330007F4FCE018E589F4F0E949B0B198287E0C2
:104340008F9380ED8F93AE968FADAE978F93AD9692
:104350008FADAD978F93E4968FADE4978F93E396EF
:104360008FADE3978F938AEC92E09F938F938E01AA
:104370000F5F1F4F1F930F930E943234B801CE017D
:104380008B599F4F0E94BB126091FC037091FD03FB
:10439000CE018A5A9F4F0E94BB12BE016B597F4FBC
:1043A000CE018A5A9F4F0E940813CE018A5A9F4F0E
:1043B0000E94F50CCE018B599F4F0E94F50C0FB651
:1043C000F894DEBF0FBECDBFC958DF4F0FB6F894CB
:1043D000DEBF0FBECDBFDF91CF911F910F91FF9038
:1043E000EF90DF90CF90BF90AF909F908F907F9095
:1043F0006F905F904F903F902F9008958730910578
:1044000008F017CA880F991FBC016A5D7C4FFB0139
:10441000D182C0828C01085E1C4FF801F182E082DB
:104420008CED90E00E94E10FB8018EED90E00E94CB
:10443000E10FFFC90E94320940CA0E943209CACA6C
:104440000E9432096BEF72E0CE018A5A9F4F0E94A0
:10445000BB126091FC037091FD03CE0101960E9496
:10446000BB12BE016A5A7F4FCE0101960E9408130B
:10447000CE0101960E94F50CCE018A5A9F4F0E94F0
:10448000F50CCFCA1F928F9386ED92E0FECE1F925D
:104490000F920FB60F9211242F933F934F935F9378
:1044A0006F937F938F939F93AF93BF93EF93FF93FC
:1044B0008091B900887F803609F44AC0F0F58832CF
:1044C00009F4A7C018F5803109F49BC0B8F488231B
:1044D00009F4F9C0883009F494C0FF91EF91BF91BD
:1044E000AF919F918F917F916F915F914F913F918C
:1044F0002F910F900FBE0F901F901895883109F4DF
:1045000088C0803251F780934B0414C0803409F482
:104510009DC040F48033B9F38833F9F680934B049F
:1045200085ECB0C0803509F485C0883509F496C0A3
:10453000883499F60E94310ED0CF883909F48CC0A6
:1045400038F5883729F050F4883611F0803729F68D
:1045500083E080934D041092ED0357C0883809F42E
:104560007BC0803919F0803809F0B7CF8091ED0316
:10457000803208F071C0E091ED0381E08E0F8093EE
:10458000ED038091BB00F0E0E353FC4F80833DC01E
:10459000803B39F0E0F4803A09F479C0883A09F0B8
:1045A0009CCF84E080934D041092CA031092C903FB
:1045B000E091C703F091C80309958091C903811167
:1045C0000FC081E08093C9031092A70309C0803C0B
:1045D00009F4A6CF883C09F4A3CF883B09F07DCF2E
:1045E000E091CA0381E08E0F8093CA03F0E0E955A1
:1045F000FC4F80818093BB009091CA038091C903D6
:1046000029C0809128048093BB0085EC8093BC0076
:1046100064CF90914A0480914904981758F5E0912D
:104620004A0481E08E0F80934A04F0E0E75DFB4F7F
:104630008081E9CFE0914A0481E08E0F80934A04A3
:104640008091BB00F0E0E75DFB4F808390914A04CE
:10465000809149049817C8F285E8D8CFE0914A04C0
:1046600081E08E0F80934A048091BB00F0E0E75D0B
:10467000FB4F808380914C0481115CCF81E080935B
:10468000270484EA8093BC0010924D0426CF85EC69
:104690008093BC0010924D048091ED03803230F481
:1046A000E091ED03F0E0E353FC4F10826091ED03E5
:1046B00070E0E091CB03F091CC038DEC93E0099591
:1046C0001092ED030ACF10924B0434CF1F920F9239
:1046D0000FB60F9211242F933F938F939F93AF9315
:1046E000BF938091920390919303A0919403B09112
:1046F00095033091910323E0230F2D3758F5019650
:10470000A11DB11D20939103809392039093930375
:10471000A0939403B093950380919603909197038F
:10472000A0919803B09199030196A11DB11D8093AA
:10473000960390939703A0939803B0939903BF9126
:10474000AF919F918F913F912F910F900FBE0F903E
:104750001F90189526E8230F0296A11DB11DD2CFF8
:104760001F920F920FB60F9211248F939F938091F7
:10477000E1009091E100937F9093E10083FF0FC0EF
:104780001092E90091E09093EB001092EC0092E31C
:104790009093ED001092EF0398E09093F00082FF69
:1047A00022C093E09093E9009091F200992319F0D0
:1047B0009AE39093E80090910F03992341F0909130
:1047C0000F03915090930F03911101C05D9A909146
:1047D000EE03992341F09091EE0391509093EE03F4
:1047E000911101C0289A84FF18C08091E2008E7E4A
:1047F00081608093E2008091E1008F7E8093E100F0
:10480000809110038E7E8061809310039F918F9121
:104810000F900FBE0F901F90189580FFF7CF8091DB
:10482000E2008E7E80618093E2008091E1008E7EC6
:104830008093E100809110038E7E8160E5CF1F920E
:104840000F920FB60F921124CF92DF92EF92FF9248
:104850000F931F932F933F934F935F936F937F9388
:104860008F939F93AF93BF93EF93FF93CF93DF9378
:10487000CDB7DEB76C97DEBFCDBF1092E900809157
:10488000E80083FF25C068E0CE0145960E944806F7
:1048900082EF8093E8008D8987FF39C09091E8000E
:1048A00090FFFCCF982F907609F034C19E894F89F4
:1048B000588D2F89F88C911131C0803861F5809125
:1048C00011038093F1001092F1008EEF8093E800C5
:1048D0006C960FB6F894DEBF0FBECDBFDF91CF91BF
:1048E000FF91EF91BF91AF919F918F917F916F91C8
:1048F0005F914F913F912F911F910F91FF90EF90FA
:10490000DF90CF900F900FBE0F901F9018959EEFE5
:104910009093E800C7CF1092F100D5CF913059F4B1
:104920008111D3CF4130510581F6809111038D7FE4
:1049300080931103CACF933049F48111C6CF41301F
:10494000510519F6809111038260F2CF953041F440
:104950008091E80080FFFCCF20682093E300B5CF72
:10496000963009F0A9C00B8D1C8D22E01092E90051
:1049700010920D0310920C03F2122EC010920B0332
:1049800010920A030E9417061F8299E09983FA8207
:1049900091E09E8390EA98879AEF998720910C0383
:1049A00030910D03275F3F4F3C832B838D83109203
:1049B000E90010920D0310920C0310930B03009367
:1049C0000A0349E050E0BE016F5F7F4F80E00E9424
:1049D000F1050E94170679CF10930B0300930A0389
:1049E0000E948102DC0112960D911C9101151105A6
:1049F00009F451C1D801ED91FC910480F581E02DBD
:104A0000BE016B5E7F4FC8010995009709F03EC15A
:104A1000F80100851185EACFF3E0FF120EC08F89FF
:104A2000882309F440C0823061F440E862E182E208
:104A300091E00E94BE05811148CF81E28093EB0096
:104A400047CF813029F440E868E089E191E0F1CF77
:104A5000833099F70E948102DC011296ED90FC9060
:104A60008E010F5F1F4F6801E114F10479F0D70147
:104A7000ED91FC910680F781E02DB801C701099501
:104A8000080F111DF701E084F184EECFD8011C92CC
:104A9000F60101900020E9F73197BF016C197D09FB
:104AA00040E0C601C6CF63E071E0FB01449150E0F5
:104AB00080E80E94F10509CF973009F4BECF983005
:104AC00021F481E08093F10000CF993009F0FDCE10
:104AD000837009F0B2CFEFE1F1E081E031E096E3DD
:104AE0002191222371F08093E9003093EB00DF01E4
:104AF00011972C912093EC009093ED008F5F8730FD
:104B000079F78EE78093EA001092EA008F8980930C
:104B1000EF03DBCE8B8D9C8D1092E90010920D037C
:104B200010920C0390930B0380930A03898D8111DB
:104B300092C08E899D89913A49F4813209F07DCFE6
:104B400047E050E064E071E080E0B3CF913209F0DB
:104B500074CF833269F48F89988DB0E0A0E08093A0
:104B6000000190930101A0930201B0930301ADCE27
:104B7000803269F48091E80082FFFCCF67E084E036
:104B800091E00E9448068BEF8093E8009ECE82322F
:104B900009F09BCE8F8980930B01EEEFFFE78591A3
:104BA00094918B3F9C4D51F1E0E0F8E0809104013D
:104BB00090910501A0910601B0910701803B9440BE
:104BC000A105B105F1F480910B0180FD1AC0EE3F03
:104BD0008AE0F80789F587E797E7918380838091DA
:104BE000600080930E0388E19BE00FB6F894A895CF
:104BF000809360000FBE9093600067CEEEEFFAE006
:104C0000D5CF808191818737974709F05ECEA895EF
:104C10008091600088618093600080910E03809392
:104C20006000EE3F2AE0F20789F08091FE0A909141
:104C3000FF0A9183808349CE8081918187379807CD
:104C400051F29093FF0A8093FE0AC5CF1092FF0A9B
:104C50001092FE0A3ACE0E948102DC0112960D915A
:104C60001C910115110509F4E8CED801ED91FC91D4
:104C70000190F081E02DBE016B5E7F4FC801099568
:104C8000811123CEF80100851185EBCF1816190686
:104C90000CF41BCED2CEF1E0FF12BECE67E071E085
:104CA00004CF1F920F920FB60F9211242F933F93B0
:104CB0004F935F936F937F938F939F93AF93BF9324
:104CC000EF93FF9383E894E00E944007FF91EF91F8
:104CD000BF91AF919F918F917F916F915F914F9114
:104CE0003F912F910F900FBE0F901F9018951F921C
:104CF0000F920FB60F9211242F938F939F93EF93E0
:104D0000FF93E0919304F09194048081E0919904E1
:104D1000F0919A0482FD1BC0908180919C048F5F6A
:104D20008F7320919D04821741F0E0919C04F0E084
:104D3000ED57FB4F958F80939C04FF91EF919F91CE
:104D40008F912F910F900FBE0F901F90189580811B
:104D5000F4CFCF93DF93E7E7F4E01382128288EE7B
:104D600093E0A0E0B0E084839583A683B78329E233
:104D700031E031832083E3E8F4E0138212828483FC
:104D80009583A683B7832BE331E0318320832DEC19
:104D900030E0358724872CEC30E03787268728ECF5
:104DA00030E0318B208B29EC30E0338B228B2AECE6
:104DB00030E0358B248B2EEC30E0378B268B118E38
:104DC000128E138E148EE0E2F5E013821282848339
:104DD0009583A683B7838DE491E0918380838FEFE1
:104DE0009FEF958784876DE571E086E796E00E94E6
:104DF000BB12CCECD5E01C821B826DE571E081ED2D
:104E000095E00E94BB121B861C861D861F861E868F
:104E10008DE4809372068CE48093730683E580931F
:104E2000740681E28093750681E5888380ED97E0C2
:104E30009093CB058093CA05EBEBF5E012821286C6
:104E4000138614861586168684E090E0918380830D
:104E5000C1E0C38361E00E947703ECEAF5E01282CF
:104E60001286138614861586168689E090E0918353
:104E70008083C38361E00E947703EDE9F5E012824D
:104E8000128613861486158616868AE090E0918332
:104E90008083C38361E00E947703EEE8F5E012822D
:104EA0001286138614861586168688E090E0918314
:104EB0008083138260E00E947703EFE7F5E01282BF
:104EC0001286138614861586168687E090E09183F5
:104ED0008083C38361E00E947703E0E7F5E01282FC
:104EE000128613861486158616868FE090E09183CD
:104EF0008083C38361E0DF91CF910C947703CF93DC
:104F0000DF93CDB7DEB7C055D1090FB6F894DEBF39
:104F10000FBECDBF789484B5826084BD84B58160B6
:104F200084BD85B5826085BD85B5816085BD809174
:104F30006E00816080936E001092810080918100EC
:104F400082608093810080918100816080938100E4
:104F500080918000816080938000809191008260C8
:104F60008093910080919100816080939100809165
:104F700090008160809390008091C1008460809354
:104F8000C1008091C10082608093C1008091C10006
:104F900081608093C1008091C30081608093C300D1
:104FA0008091C00082608093C0008091C2008160C7
:104FB0008093C20080917A00846080937A0080910F
:104FC0007A00826080937A0080917A008160809379
:104FD0007A0080917A00806880937A001092EF03C3
:104FE00010921103109210038091D700816080937A
:104FF000D70080EA8093D80089B5806189BD89B5E2
:10500000826089BD09B400FEFDCF61E070E080E000
:1050100090E00E94C8048091D8008F7C80618093CA
:10502000D8008091E000807F8093E0008091E100D3
:105030008E7E8093E1008DE08093E200559A209A65
:1050400087EF84BF0FB6F894A895809160008861BF
:1050500080936000109260000FBE60E08EE00E94BE
:10506000770361E084E10E94770362E085E10E94BA
:10507000770348EC50E065E070E08BEB95E00E9430
:10508000E7088EE290E00E9441318111F0C161E0B9
:1050900084E10E940A0364EF71E080E090E00E94E6
:1050A000C80460E084E10E940A038BEB95E00E9453
:1050B000D8088FEF9FEF90932D0580932C0568EE15
:1050C00073E080E090E00E94C804E0919304F091C6
:1050D000940402E00083E0918F04F0919004108228
:1050E000E0919104F091920480E1808310929B04FE
:1050F000E0919704F091980416E01083E0919504F4
:10510000F0919604808180618083E0919504F09114
:105110009604808188608083E0919504F0919604E4
:10512000808180688083E0919504F091960480816D
:105130008F7D80838091CC058C3409F045C068EE6A
:1051400073E080E090E00E94C80463E571E083E8CA
:1051500094E00E94630668EE73E080E090E00E94B5
:10516000C804E0919304F09194040083E0918F04CB
:10517000F09190041082E0919104F091920487E6FE
:10518000808310929B04E0919704F091980410831F
:10519000E0919504F0919604808180618083E09194
:1051A0009504F0919604808188608083E091950455
:1051B000F0919604808180688083E0919504F0915D
:1051C000960480818F7D808360E177E280E090E0CB
:1051D0000E94C8046DE471E083E894E00E946306D5
:1051E0008E010F5F1F4F4801C8010E94D012C801F5
:1051F0000E94F50C61E471E083E894E00E9463068C
:1052000068EE73E080E090E00E94C804C8010E944C
:10521000D012C8010E94F50C65E371E083E894E0C8
:105220000E94630668EE73E080E090E00E94C8048C
:10523000C8010E94D012C8010E94F50C0E9465139B
:10524000C8010E94D012C8010E94F50C68EE73E0FC
:1052500080E090E00E94C8041092060410920504B9
:1052600010925404109276040E9438038BEF91E060
:105270009093C8038093C7038CEF91E09093CC0385
:105280008093CB0360E177E280E090E00E94C80465
:1052900081E090E00E9441318F3F11F40E940311A0
:1052A0000E94DA0EA0918D03B0918E031A161B0690
:1052B00074F420E437E74BE150E00E94EB31609357
:1052C0000C0170930D0180930E0190930F0164E126
:1052D00070E086E796E00E94CB11C4010E9412158F
:1052E000B40186E796E00E94790EC4010E94F50C95
:1052F00060ED77E080E090E00E94C804C4010E9465
:10530000D012C4010E94F50C64E670E080E090E0E9
:105310000E94C80468E671E083E894E00E94630696
:1053200060E177E280E090E00E94C80462E671E00C
:1053300083E894E00E94630668EE73E080E090E00A
:105340000E94C804C4010E94D012C4010E94F50C3E
:1053500048EC50E065E070E08BEB95E00E94E708D8
:1053600085E1898381E08A838B831C821D821E8272
:10537000C4010E943D0A68EB7BE080E090E00E945F
:10538000C8040E94E4123E0111E2610E711C442423
:10539000439483E894E00E942007181619060CF045
:1053A000B0C08091D8058111ACC083E894E00E9420
:1053B000CC06582E80911303882309F403C20E945F
:1053C00023055B016C0128962FAD289729963FADE8
:1053D00029972A964FAD2A972B965FAD2B972C963F
:1053E0006FAD2C972D967FAD2D972E968FAD2E9766
:1053F0002F969FAD2F9728513C4F4F4F5F4F6F4FC8
:105400007F4F8F4F9F4F190160964FAF6097B52F19
:10541000A62FF72FE82F61969FAF61979501A60100
:1054200060E070E080E090E051016096CFAC609762
:10543000DB2EEA2EFF2E0E2F61961FAD61970E9484
:10544000F33119F010F021E2522E80911203E82F6F
:10545000F0E090917506E453FA4F951589F0508A63
:105460008F5F8E3650F02DE62093120392CF60E0CE
:105470008EE290E00E94493118CE8093120389CFCA
:10548000108A10921303109212034CED55E05093C2
:10549000DB054093DA054092D80542E350E061E035
:1054A00070E08BEB95E00E94E7088091D8058111B0
:1054B000BEC18091DA059091DB059CAF8BAF0E9455
:1054C000F90DABADBCADFD0101900020E9F73197BE
:1054D000EA1BFB0B3497A8F011968C918E3489F05F
:1054E000CE01CB960E9423148091FE038B3409F4E5
:1054F0004FC20CF09FC1833409F4E8C1893409F428
:10550000E5C180914203882309F40AC3C3010E94C4
:10551000B709C3010E945E0AE82FF0E0EE0FFF1FFB
:10552000EA5DFC4F00811181C3010E945E0AE82FF1
:10553000F0E0EE0FFF1FE85EFC4FE080F1801016F8
:1055400011061CF01E141F048CF4C4010E94B7093C
:105550008C8198012E193F0990E037FFD8C280173F
:10556000910724F08E159F050CF4DAC288EE93E0C3
:105570000E942F0580913A038111E6C28EE895E0E2
:105580000E94DD0890914303891305C0809139037F
:10559000882309F4F0C00E94870640923A030E94D3
:1055A00023056093350370933603809337039093FC
:1055B0003803809141038823D9F18DE995E00E9459
:1055C000D808F12C00ED17E0B801CE01C5960E9475
:1055D0001116CE01C5960E94200E81111FC021E038
:1055E0002F1530F468E873E180E090E00E94C80471
:1055F00069ED72E0C4010E94BB12BE016B5C7F4F7B
:10560000C3010E94B212B401C3010E940813C30176
:105610000E94F50CC4010E94F50CF394CE01C596CE
:105620000E94F50C0F5F1F4F063D37E0130761F630
:105630006EED72E0CE018F5B9F4F0E94BB1219820C
:1056400080913903882309F446C064EE72E0C401F6
:105650000E940E346091FC037091FD03C4010E940E
:10566000FA33CE01C5960E94B70988AD1F928F9379
:105670008DA91F928F938EA91F928F938FA91F922E
:105680008F9387EA92E09F938F937F926F920E940D
:105690003234B301C4010E94FA3319A289AD0FB6A6
:1056A000F894DEBF0FBECDBF8A3008F03EC21F9215
:1056B0008F9385EB92E09F938F937F926F920E94DE
:1056C00032340F900F900F900F900F900F90B30106
:1056D000C4010E94FA33F12C01E010E0B801CE01C0
:1056E000CB960E941116CE01CB960E94200E8111FE
:1056F00026C051E05F1530F468E873E180E090E087
:105700000E94C80480913903882309F413C2B401AC
:10571000C3010E94BB12BE01655C7F4FCE01C596DE
:105720000E94B212B301CE01C5960E940813CE01A9
:10573000C5960E94F50CC3010E94F50CF394CE01AE
:10574000CB960E94F50C0F5F1F4F0630110531F606
:10575000CE018F5B9F4F0E94F50C8091390364E06E
:10576000882309F4EEC18091FC039091FD030E940F
:105770007410109239031BE380E295E00E94B9088F
:1057800020918903181619060CF041C2211141C25B
:1057900080E295E00E94770890913C03992309F4F8
:1057A00030C290913B03E92FF0E0E35BFC4F8E3376
:1057B00009F41FC280839F5F9C3308F417C21093C3
:1057C0003B03DACF80917206581661F08091730620
:1057D000581621F0809174065812DBCD8DE080932D
:1057E000750603C051E2509375060E9423057B01A4
:1057F0008C0120E030E0A90128966FAF2897299608
:10580000FFAE29972A968FAF2A972B961FAF2B971B
:105810002C962FAF2C972D963FAF2D972E964FAFEE
:105820002E972F965FAF2F9740921303B2CD109211
:10583000D8053FCE813589F1843509F062CE0E94CA
:10584000C70C813019F170F0823009F05ACE6091A6
:10585000FC037091FD038091FA039091FB030E9479
:1058600088164FCE0E94690E882309F44ACE0E9402
:10587000C817682F70E06115710509F442CE809158
:10588000FC039091FD030E94F3173BCE0E94690E2A
:105890008823E9F20E94741834CE6091FC03709161
:1058A000FD03C4010E94BB1260918F0370919003AD
:1058B000C3010E941116B401C3010E940813C30161
:1058C0000E94F50CC4010E94F50C1BCE0E94C70C6F
:1058D000813021F18230E9F11092CE051092CD0590
:1058E00083E894E00E942007892B09F041C0809151
:1058F000CD059091CE05803E9E42D4F56DE070E0DE
:1059000080E090E00E94C8048091CD059091CE0582
:1059100001969093CE058093CD05E2CF90913A0306
:10592000992319F080933403D7CF809141038230BB
:1059300048F46091FC037091FD0389E192E00E94BC
:105940008816CACF6091FC037091FD038DE791E04A
:10595000F6CF809141038230A8F780911001823008
:1059600040F36091FC037091FD0381E791E0E7CF84
:1059700083E894E00E942007892B21F0C4010E9453
:10598000D012A0CF6DE571E0C4010E94BB129ACF86
:105990008091FC039091FD030E94C5308C014497D7
:1059A000449708F0A3C08091F4039091F5030E94FE
:1059B000C530182F8091F6039091F7030E94C530EF
:1059C000F82E8091F8039091F9030E94C530E82EDB
:1059D0008091FA039091FB030E94C53009838A836A
:1059E000EB82FC821D831E82C4010E943D0A8091CD
:1059F000CC05813591F4C3010E94B709C3010E940F
:105A0000030AAB01BC014054584361097109C40148
:105A10000E943A09C4010E943D0A66E090E080E0DD
:105A20000E94741080911703882389F080911503D8
:105A30009091160320918D0330918E03820F931F56
:105A4000883191057CF5909316038093150380911E
:105A50008D0390918E03181619060CF052CD0E94FA
:105A6000230561327F4B8240910508F44ACD6CE7F3
:105A700071E083E894E00E94630660E47FE180E0E7
:105A800090E00E94C80460E771E083E894E00E941F
:105A90006306C4010E94D012C4010E94F50C0E944A
:105AA00065136CCF109216031092150361E070E03D
:105AB000CE01C5960E94111660E572E0C4010E94F5
:105AC000BB12BE016B5C7F4FC3010E94B212B401D6
:105AD000C3010E940813C3010E94F50CC4010E9477
