:100000000C9470010C9498010C9498010C94980134
:100010000C9498010C9498010C9498010C949801FC
:100020000C9498010C9498010C94A71C0C94161D28
:100030000C9498010C9498010C9498010C949801DC
:100040000C9498010C9498010C9498010C949801CC
:100050000C9498010C9498010C9498010C945D1CDC
:100060000C9498010C946E1F0C94481F0C949801EA
:100070000C9498010C9498010C9498010C9498019C
:100080000C9498010C9498010C9498010C9498018C
:100090000C943E1B0C9498010C9498010C949801BC
:1000A0000C9498010C9498010C9498011F1C1F1E2D
:1000B0001F1E1F1F1E1F1E1F080B00020202000032
:1000C00009040000010202000005240010010524BB
:1000D000010101042402060524060001070581032D
:1000E00010004009040100020A0000000705020296
:1000F00040000007058302400000040309041201C8
:100100000002EF0201404F1B0692000101020301B1
:10011000537061726B46756E00537061726B4675F9
:100120006E2050726F204D6963726F0041542B43F3
:100130005245473D310D0A0041542B43545A523D1C
:10014000310D0A0041542B43545A553D310D0A00DC
:1001500041545A300D0041542B4950523D313932EF
:1001600030300D0A0041542B4353510D0A004154C5
:100170002B4346554E3D310D0A0041542B43465505
:100180004E3D300D0A0045004500450000000000CE
:10019000240027002A002D00300000000000250068
:1001A00028002B002E003100000000002300260054
:1001B00029002C002F000404040404030405020297
:1001C00002020403020202020606060606060404F0
:1001D0000202020404040802011040804010204082
:1001E000804080080204018040201002011080102D
:1001F000204040200000000200090F00000304011D
:10020000000C0000000000000000000000000000E2
:10021000000041542B4347534E0D0A004154480DF2
:100220000A003B0D0A004154440041542B434855F9
:10023000500D0A0041542657300D0041542B434CB9
:1002400049503D310D0A0041542B4347455245501A
:100250003D300D0A00415445300D0A0061742B7188
:100260007572636366673D22757263706F72742284
:100270002C227561727431220D0A0041542B434EB9
:100280004D493D312C322C302C302C300D0A0041A0
:10029000542B434C49503D310D0A0041542B434DE2
:1002A00047463D310D0A0041542B435245473D31ED
:1002B0000D0A003B2657300D0A0041542B434E4D8A
:1002C000503D00220D0041542B434D47533D220029
:1002D00041542B43434C4B3F0D0A0000A01FF92E05
:1002E00011241FBECFEFDAE0DEBFCDBF26E0AAEEBD
:1002F000B2E001C01D92AC3CB207E1F712E0A0E011
:10030000B1E0E2EAFCE602C005900D92AA3EB10718
:10031000D9F711E0CFE6D1E004C02197FE010E9499
:100320004D31CE36D107C9F70E9457200C94443680
:100330000C94000080912F0490913004891B990B3C
:100340000895FC0180912804882311F13FB7F894A7
:1003500082E08093E9002091F200822F90E018164D
:10036000190614F481E090E0882339F0289844E6D7
:10037000409327044091F1004083222339F02091DB
:10038000F200211103C02BE62093E8003FBF08953F
:100390008FEF9FEF08952FB7F89483E08093E900E3
:1003A0009091E800892F807295FF04C09091F2002F
:1003B00080E4891B2FBF08952091F303260F332774
:1003C000331F21323105ECF420917704FC0190E0D9
:1003D00080E0243069F082E00895A091F303219138
:1003E000AC014F525C4FA40FB52FB11D2C93019659
:1003F000861798F38091F303680F6093F30380E00E
:10040000089581E00895089508950895E0913004D5
:1004100080912F04E81730F4F0E0EF5CFB4F80810F
:1004200090E008958FEF9FEF0895909130048091B0
:100430002F042FEF3FEF981748F4E92FF0E0EF5C1F
:10044000FB4F208130E09F5F90933004C9010895F5
:10045000CF92DF92EF92FF920F931F93CF93DF9390
:100460007C01CB018A0120917D04222389F0EB01DC
:100470006B01C40ED51ECC15DD0569F06991D7015D
:10048000ED91FC910190F081E02DC7010995F3CF2A
:10049000642F0E94DC01C801DF91CF911F910F9161
:1004A000FF90EF90DF90CF900895CF93DF931F924E
:1004B000CDB7DEB7698320917D042223F9F0209126
:1004C000A004203258F021E030E0FC013383228385
:1004D00090E080E00F90DF91CF91089580917E04AD
:1004E000E82FF0E0E158FB4F998190838F5F809374
:1004F0007E048093A00481E090E0ECCF61E0CE0127
:1005000001960E94DC01F7CF682F81EA94E00C94F9
:1005100055028091C80381110DC082E08093C4030D
:1005200084E08093C5031092C7031092C60381E054
:100530008093C80384EC93E0089581508F3008F0D5
:1005400047C0E82FF0E0E955FD4F0C944D31C4024F
:10055000C802B602BC02C002E802E802E802CB020E
:10056000D102D502D902DF02E802E30280918000C5
:100570008F77809380000895809180008F7DF9CFE0
:1005800080918000877FF5CF84B58F7784BD0895F3
:1005900084B58F7DFBCF809190008F778093900002
:1005A0000895809190008F7DF9CF80919000877F92
:1005B000F5CF8091C0008F778093C000089580911F
:1005C000C0008F7DF9CF8091C200877F8093C200E9
:1005D0000895CF93DF93282F30E0F901EC50FE4FC0
:1005E0008491F901EB52FE4FD491F901EA54FE4F88
:1005F000C491CC23A1F081110E949D02EC2FF0E068
:10060000EE0FFF1FE855FE4FA591B491EC91ED233D
:1006100081E090E009F480E0DF91CF91089580E0DF
:1006200090E0FACF1F93CF93DF93282F30E0F901AA
:10063000EC50FE4F8491F901EB52FE4FD491F90139
:10064000EA54FE4FC491CC23A9F0162F81110E94C9
:100650009D02EC2FF0E0EE0FFF1FE656FE4FA59136
:10066000B4918FB7F894EC91111108C0D095DE23A6
:10067000DC938FBFDF91CF911F910895DE2BF8CFD0
:100680001092770481E0809376041092510461E027
:1006900082E00E94120361E083E00E941203E9EB12
:1006A000F0E080818E7F808380818D7F808388E4ED
:1006B0008093B80085E48093BC000895CF93DF93C6
:1006C00091E09093D0038823B9F0C091B800D09105
:1006D000BA008091BC008A7B8093BC0060E082E01D
:1006E0000E94120360E083E00E9412030E94400314
:1006F000D093BA00C093B800DF91CF910895CF9303
:10070000DF9390E0FC01EB52FE4F24918A549E4F00
:10071000FC0184918823C9F090E0880F991FFC01A7
:10072000E457FE4FA591B491FC01E656FE4FC591EA
:10073000D49161110DC09FB7F8948C9120958223BC
:100740008C938881282328839FBFDF91CF910895C0
:10075000623051F49FB7F8943C91822F80958323A7
:100760008C93E8812E2BEFCF8FB7F894EC912E2B42
:100770002C938FBFEACF3FB7F8948091C00390913C
:10078000C103A091C203B091C30326B5A89B05C0C5
:100790002F3F19F00196A11DB11D3FBFBA2FA92F00
:1007A000982F8827BC01CD01620F711D811D911DFD
:1007B00042E0660F771F881F991F4A95D1F7089569
:1007C0008F929F92AF92BF92CF92DF92EF92FF9261
:1007D0000F931F93CF93DF93D091A004D13208F0F1
:1007E000D7C0182FC0919F040E94BB036B017C01EE
:1007F0008091770481116BC082E08093770410931D
:1008000076048FEF8093750410927404D093730470
:10081000AFE7B4E0E3E5F4E080E0D81391C01092D4
:10082000520480915204CC0FC82BC0935204809183
:100830005104813009F088C0109251040E94BB031A
:100840006B017C01809152048093BB0080917904FC
:1008500090917A04A0917B04B0917C04892B8A2B1F
:100860008B2BA1F00E94BB030091790410917A04B4
:1008700020917B0430917C046C197D098E099F09BD
:10088000061717072807390708F442C08091BC00F3
:1008900083FDD8CF85EC8093BC000E94BB036B0125
:1008A0007C0180917704823009F450C080917504F6
:1008B0008F3F09F46FC080917504803209F46CC0D9
:1008C00080917504803309F469C084E026C080916A
:1008D000790490917A04A0917B04B0917C04892BD7
:1008E0008A2B8B2B09F484CF0E94BB038090790460
:1008F00090907A04A0907B04B0907C046C197D09E0
:100900008E099F0986169706A806B90608F070CFCB
:10091000809178040E945E0385E010927E0410921C
:10092000A00410927D04DF91CF911F910F91FF9051
:10093000EF90DF90CF90BF90AF909F908F900895F1
:100940009D9191938F5F69CF85EEA5CF80917904BA
:1009500090917A04A0917B04B0917C04892B8A2B1E
:100960008B2B09F49ECF0E94BB0300917904109158
:100970007A0420917B0430917C046C197D098E09E6
:100980009F09061717072807390708F08ACFC0CF35
:1009900081E0C3CF80E0C1CF82E0BFCF83E0BDCF95
:1009A0008F929F92AF92BF92CF92DF92EF92FF927F
:1009B0006B017C010E94BB034B015C01C114D1049B
:1009C000E104F104B9F00E94BB03681979098A09AE
:1009D0009B09683E73408105910580F321E0C21AAE
:1009E000D108E108F10888EE880E83E0981EA11C6A
:1009F000B11CE4CFFF90EF90DF90CF90BF90AF900D
:100A00009F908F9008951F93CF93DF93EC01162F43
:100A100081E080937D0480E580939F0410927E04A2
:100A20001092A0048D2F90E00E948402CE0199279D
:100A30000E948402612F81EA94E00E94550281E0C5
:100A40000E94E00364E170E080E090E0DF91CF91EC
:100A50001F910C94D0042FB7F8946091BC0370914F
:100A6000BD038091BE039091BF032FBF08950F93E4
:100A70001F93CF93DF93EC01092E000CAA0BBB0B45
:100A80008093CB059093CC05A093CD05B093CE0574
:100A90000E942B05AB01BC018091D2059091D3053A
:100AA000A091D405B091D5058A019B01081B190BB3
:100AB0002A0B3B0B8091CB059091CC05A091CD05E5
:100AC000B091CE05081719072A073B0758F1809106
:100AD000C905811124C081E08093C905C43F81E02C
:100AE000D8075CF0CE01845F9140092E000CAA0B60
:100AF000BB0B481B590B6A0B7B0B4093D2055093E1
:100B0000D3056093D4057093D5056091C905809194
:100B1000C705DF91CF911F910F910C941203109292
:100B2000C905EBCFDF91CF911F910F9108950895E3
:100B30004091F7025091F8022091F5023091F602AF
:100B400042175307B4F49091E8009570E1F3909147
:100B5000E80092FD19C08093F1008091F702909116
:100B6000F80201968F739927892B19F48EEF8093E1
:100B7000E8008091F7029091F80201969093F802B4
:100B80008093F70281E0089580E00895EF92FF924C
:100B90000F931F93CF93DF93F82E192FE62E042F78
:100BA00081E0860F880F0E94980583E00E949805D7
:100BB000CF2DD12FEC0EFD2EF11CCE15DF05B9F097
:100BC00007FF13C0FE0184910E949805182F80E052
:100BD0000E949805812321968111EFCFDF91CF915B
:100BE0001F910F91FF90EF9008958881EDCF81E0E4
:100BF000F5CFDF92EF92FF920F931F93CF93DF9386
:100C0000D82E8A01EB017B01E40EF51ECE15DF051F
:100C100059F0D7FE12C0FE0184910E9498052196DA
:100C20008111F4CF0FEF1FEFC801DF91CF911F911A
:100C30000F91FF90EF90DF9008958881EECF0F9392
:100C40001F93CF93DF931F92CDB7DEB782E08983E6
:100C500042E450E068EB70E080E80E94F9050E94F1
:100C60008902DC0112960D911C910115110589F084
:100C7000D801ED91FC910280F381E02DBE016F5F00
:100C80007F4FC801099597FD04C0F80100851185C3
:100C9000ECCF89810F90DF91CF911F910F91089533
:100CA000615030F02091F100FC0120830196F8CFD3
:100CB000289884E68093270408950F931F93CF9379
:100CC000DF93EC010E942B05688779878A879B87D1
:100CD000E881F9810284F385E02DCE01099597FF23
:100CE00015C00E942B05088519852A853B85601B48
:100CF000710B820B930B0C811D812E813F8160173C
:100D000071078207930720F38FEF9FEFDF91CF9159
:100D10001F910F910895DB0114964D915C911597E9
:100D20006D917C91DC01ED91FC910280F381E02DCD
:100D30000994EF92FF920F931F93CF93DF938C014F
:100D40007B01D0E0C0E0F701EC0FFD1F649166234A
:100D500061F0D801ED91FC910190F081E02DC80186
:100D60000995892B11F02196EECFCE01DF91CF911D
:100D70001F910F91FF90EF9008956AE272E08DEA63
:100D800094E00C949906AF92BF92CF92DF92EF92CB
:100D9000FF920F931F93CF93DF936C017B018B0125
:100DA000040F151FEB015E01AE18BF08C017D10775
:100DB00059F06991D601ED91FC910190F081E02DFF
:100DC000C6010995892B79F7C501DF91CF911F9154
:100DD0000F91FF90EF90DF90CF90BF90AF9008956C
:100DE00090E080E00895FC01538D448D252F30E084
:100DF000842F90E0821B930B541710F0CF96089528
:100E000001970895FC01918D828D981761F0A28D54
:100E1000AE0FBF2FB11D5D968C91928D9F5F9F731A
:100E2000928F90E008958FEF9FEF0895FC01918DD0
:100E3000828D981731F0828DE80FF11D858D90E03D
:100E400008958FEF9FEF0895FC01918D228D892FDA
:100E500090E0805C9F4F821B91098F7399270895C2
:100E60008DEA94E00E94240721E0892B09F420E018
:100E7000822F089580E090E0892B29F00E943007AE
:100E800081110C9400000895FC01A48DA80FB92FC6
:100E9000B11DA35ABF4F2C91848D90E001968F73A2
:100EA0009927848FA689B7892C93A089B1898C91C1
:100EB00082748C93938D848D981306C00288F38975
:100EC000E02D80818F7D80830895EF92FF920F93B4
:100ED0001F93CF93DF93EC0181E0888F9B8D8C8DE6
:100EE000981319C0E889F989808185FF14C09FB7DC
:100EF000F894EE89FF896083E889F989808182749A
:100F000080839FBF81E090E0DF91CF911F910F918F
:100F1000FF90EF900895F62E0B8D10E00F5F1F4F9E
:100F20000F731127E02E8C8D8E110CC00FB607FCAD
:100F3000FACFE889F989808185FFF5CFCE010E943B
:100F40004407F1CFEB8DEC0FFD2FF11DE35AFF4F5E
:100F5000F0829FB7F8940B8FEA89FB8980818062C9
:100F6000CFCFCF93DF93EC01888D8823B9F0AA8986
:100F7000BB89E889F9898C9185FD03C0808186FD54
:100F80000DC00FB607FCF7CF8C9185FFF2CF8081A3
:100F900085FFEDCFCE010E944407E9CFDF91CF91CD
:100FA00008958F929F92AF92BF92CF92DF92EF926D
:100FB000FF920F931F93CF93DF936C017B018A0104
:100FC00080910B01882309F45CC080912804882358
:100FD00009F457C08091FB0280FF05C08091E000BA
:100FE00082608093E000E801B12C8AEFA82E93E0A4
:100FF000892E2AE3922E209711F4BB20D9F10E946A
:10100000CB0181110AC0AA94AA20D9F161E070E055
:1010100080E090E00E94D004EECF8C171D0611F006
:101020000CF08C2F9FB7F8948092E9002091E80093
:1010300025FD02C09FBFDFCF282F30E0C21BD30B9E
:10104000F701815020F041914093F100FACFE20E78
:10105000F31EBB2021F09092E800B12CEBCF8091E1
:10106000E80085FDE7CF9092E800BB24B394209779
:1010700009F3F3CF5D9884E68093FA021016110607
:101080003CF081E090E0F6019383828310E000E081
:10109000C801DF91CF911F910F91FF90EF90DF90EA
:1010A000CF90BF90AF909F908F900895CF93DF9394
:1010B0001F92CDB7DEB76983DC01ED91FC91028010
:1010C000F381E02D41E050E0BE016F5F7F4F099555
:1010D0000F90DF91CF91089583E08093E900809194
:1010E000F200882319F08AE38093E80008950E94B3
:1010F000CB0190E00895CF93DF931F92CDB7DEB779
:10110000FC018485958597FD08C02FEF3FEF35875B
:1011100024870F90DF91CF910895CE0101960E9410
:10112000A101019719F4898190E0F3CF8FEF9FEF30
:10113000F0CF0F931F93CF93DF931F92CDB7DEB7FE
:101140008C01FC018485958597FF0BC0CE0101962B
:101150000E94A101019771F4898190E0F8019587BF
:101160008487F801848595850F90DF91CF911F9139
:101170000F9108958FEF9FEFF1CFFC018485958546
:1011800097FD0BC09FB7F89482E08093E9008091AF
:10119000F2009FBF90E0019608959FB7F89482E017
:1011A0008093E9008091F2009FBF90E0089560E095
:1011B000FC0180810C94120361E0FC0180810C949D
:1011C0001203EF92FF920F931F93CF93DF93EC01E3
:1011D000CB01072E000CAA0BBB0B8C839D83AE8327
:1011E000BF83598748878B81882339F18B01F12C84
:1011F000E12C61E088810E9412036885798590E086
:1012000080E00E94D00460E088810E94120368851B
:10121000798590E080E00E94D0048FEFE81AF80A08
:101220000E151F0531F760E08881DF91CF911F9186
:101230000F91FF90EF900C941203DF91CF911F91CB
:101240000F91FF90EF90089548EC50E064E070E05B
:1012500087EC95E00C94E1088F929F92AF92BF9239
:10126000CF92DF92EF92FF92CF93DF93EC016A016E
:101270007B0180E8C81A83E4D80A8DE6E80A88E38F
:10128000F80A8CE3882E912CA12CB12CC701B60151
:10129000A50194010E94C6306D83CA01B901A50160
:1012A00094010E94C6306C83C701B60120E13EE084
:1012B00040E050E00E94C630CA01B90128E130E0A8
:1012C00040E050E00E94C6306B83C701B60120E8C1
:1012D00031E541E050E00E94C630188263E97EEFBC
:1012E0004881542F537081E009F080E090E0FC01C8
:1012F000E359FE4F2E173F0740F0FB01E81BF90BA7
:101300002E0F3F1F4F5F4883EBCF81E08983898198
:10131000682F6150770BFB01E455FF4FE4915111A9
:1013200003C0823009F4EF5FF0E02E173F0720F092
:101330002E1B3F0B8F5FEACF2F5F2A83DF91CF9168
:10134000FF90EF90DF90CF90BF90AF909F908F90E5
:101350000895CF93DF93EC010E942B0528EE33E034
:1013600040E050E00E94C6308091F1029091F2027C
:10137000A091F302B091F402BA01A901480F591FDC
:101380006A1F7B1FCE010E942C09CE01DF91CF91F5
:101390000895DC0150E0ECEAF0E081E0861730F4DB
:1013A0009491490F511D8F5F3196F8CF633038F01B
:1013B000CD0183709927892B11F44F5F5F4F9D01F9
:1013C0002D5F3F4F36952795369527956DE671E051
:1013D000A69FC001A79F900DB69F900D1124019765
:1013E000820F931F840F951F0895EF92FF920F9322
:1013F0001F93CF93DF93EC0188814A81698190E04C
:101400000E94C9099C01A8E1B0E00E942A312B8109
:101410007B018C01E20EF11C011D111DA801970139
:10142000ACE3B0E00E94E8302C817B018C01E20E3D
:10143000F11C011D111DA80197010E94E8302D81AA
:10144000620F711D811D911D60587C4B8249974C24
:10145000DF91CF911F910F91FF90EF900895CF9260
:10146000DF92EF92FF920E94F5096B017C010E94CE
:101470002B0528EE33E040E050E00E94C630C21A4F
:10148000D30AE40AF50AC092F102D092F202E09285
:10149000F302F092F402FF90EF90DF90CF90089566
:1014A000FC0180814281618190E00E94C909069619
:1014B00067E070E00E9439310895CF92DF92EF9299
:1014C000FF920F931F93CF93DF93EC0181E0809302
:1014D0007D0480E580939F0410927E041092A00406
:1014E0008D2F90E00E948402CE0199270E948402F1
:1014F00081E00E94E0030E94BB036B017C018091AC
:101500007704811163C081E080937704809376042F
:101510009FEF90937504109274041092730480935B
:10152000520480915204806A809352048091510445
:10153000813009F084C0109251040E94BB036B01FA
:101540007C01809152048093BB008091790490913A
:101550007A04A0917B04B0917C04892B8A2B8B2B7D
:10156000A1F00E94BB030091790410917A042091AC
:101570007B0430917C046C197D098E099F09061744
:1015800017072807390708F442C08091BC0083FD83
:10159000D8CF85EC8093BC000E94BB036B017C011B
:1015A00080917704813009F44CC0809174048111DA
:1015B0006AC080917404E3E5F4E0A1E3B4E090E054
:1015C000981751F121912D939F5FFACF8091790463
:1015D00090917A04A0917B04B0917C04892B8A2B92
:1015E0008B2B09F48CCF0E94BB03009179041091DE
:1015F0007A0420917B0430917C046C197D098E095A
:101600009F09061717072807390708F078CF809138
:1016100078040E945E0380E01092300480932F04CF
:10162000882399F181EA94E00E941502DF91CF911D
:101630001F910F91FF90EF90DF90CF90089585EE6E
:10164000A9CF8091790490917A04A0917B04B09104
:101650007C04892B8A2B8B2B09F4A2CF0E94BB031D
:101660000091790410917A0420917B0430917C04DC
:101670006C197D098E099F09061717072807390776
:1016800008F08ECFC4CF81E096CF8FEFCFCFEF920F
:10169000FF920F931F93CF93DF93E090D605F090C6
:1016A000D705813429F1C6E0D0E0853411F0C1E0DE
:1016B000D0E087E08C9F80018D9F100D1124EC16E7
:1016C000FD06D4F0C8010797801791076CF40E94BB
:1016D0005D0A811109C0C80106978017910724F49B
:1016E0000E945D0A882351F02196095F1F4FE7CFC2
:1016F00085E0E82EF12CDBCFD0E0C0E0CE01DF9119
:10170000CF911F910F91FF90EF900895DF92EF928C
:10171000FF920F931F93CF93DF938C017B01D0E057
:10172000C0E087E0D82E2091D6053091D705D29E13
:10173000C001D39E900D11248C179D078CF0CE0113
:101740000E945D0A882351F0F801CD31D1050CF0DB
:10175000F701808191810196918380832796E3CF61
:10176000DF91CF911F910F91FF90EF90DF9008953F
:10177000CF92DF92EF92FF920F931F93CF93DF935D
:101780007B01009741F18C0182E0C82ED12C82E0D0
:1017900090E00E946231EC011882A601B8010E941B
:1017A00044331A82CE010E941830682FC7010E946C
:1017B0000305209719F0CE010E94FE310E5F1F4FE6
:1017C00082E0C80ED11C8FEFE81AF80A8EE0C81626
:1017D000D104E9F60CC0D0E0C0E060E0C7018C0F96
:1017E0009D1F0E9403052196C630D105B1F7DF91F8
:1017F000CF911F910F91FF90EF90DF90CF900895C0
:10180000CF93DF93EC0188819981009711F00E94BA
:10181000FE31198218821D821C821B821A82DF917E
:10182000CF910895FC0180819181009711F00C9473
:10183000FE310895FB0101900020E9F73197AF01D7
:10184000461B570BDC01ED91FC910280F381E02DEA
:101850000994CF93DF93BC018AE495E00E94990636
:10186000EC0164E571E08AE495E00E941A0C8C0FAB
:101870009D1FDF91CF9108958F929F92AF92BF925B
:10188000EF92FF920F931F93CF93DF93CDB7DEB705
:10189000A1970FB6F894DEBF0FBECDBF7C01FA0151
:1018A000CB0119A2223008F42AE08E010F5D1F4FF0
:1018B000822E912CB12CA12CBF01A50194010E9474
:1018C000C630F901CA016A300CF5605DD8016E932B
:1018D0008D01232B242B252B79F790E080E01097A6
:1018E00021F0BD01C7010E941A0CA1960FB6F89411
:1018F000DEBF0FBECDBFDF91CF911F910F91FF9043
:10190000EF90BF90AF909F908F900895695CDECF6D
:10191000CF92DF92EF92FF920F931F93CF93DF93BB
:101920006B01770FEE08FF08F7FE1FC0EC01E8819E
:10193000F9810190F081E02D6DE209958C01442739
:101940005527BA014C195D096E097F092AE0CE01BD
:101950000E943C0C800F911FDF91CF911F910F913E
:10196000FF90EF90DF90CF9008952AE0B701A60195
:10197000DF91CF911F910F91FF90EF90DF90CF906B
:101980000C943C0CCF93DF93BC018AE495E00E9459
:10199000880CEC0164E571E08AE495E00E941A0C81
:1019A0008C0F9D1FDF91CF9108950F931F93CF93BD
:1019B000DF93EC010E948B068C0164E571E0CE019F
:1019C0000E941A0C800F911FDF91CF911F910F91F0
:1019D00008953F924F925F926F927F928F929F9263
:1019E000AF92BF92CF92DF92EF92FF920F931F932D
:1019F000CF93DF93EC013B01FC0101900020E9F75C
:101A00003197E81BF90BD12CC12C329768F042E0DA
:101A100050E067E571E00E94863331E020E0892BD9
:101A200009F030E0C32ED22EB12CA12CEE24E39489
:101A3000F12C2E014C0C5D1C8091D6059091D705A0
:101A400005968E159F050CF461C010E000E0302E65
:101A500082E090E00E946231EC01F801EE0FFF1F7E
:101A6000E40DF51D80819181998388831A82CE01CE
:101A70000E9418304C010115110539F481E0C81697
:101A8000D10419F4E0E58E1A9108C8018A0D9B1D56
:101A90000E945D0A8815190479F5209719F0CE0186
:101AA0000E94FE3133940F5F1F4F0730110579F606
:101AB000F7E0AF0EB11C85E0831520F527E02E9DE1
:101AC000C0012F9D900D112401970E945D0AF30122
:101AD0008083C701DF91CF911F910F91FF90EF900D
:101AE000DF90CF90BF90AF909F908F907F906F903E
:101AF0005F904F903F9008952097D1F2CE010E94C1
:101B0000FE31D6CFFFEFEF1AFF0A96CFF12CE12C72
:101B1000E0CFCF92DF92EF92FF920F931F93CF937C
:101B2000DF931F92CDB7DEB74983FC0101900020FF
:101B3000E9F73197E81BF90BDC01EB30F10568F4AC
:101B4000F12CE12CC7010F90DF91CF911F910F91E4
:101B5000FF90EF90DF90CF9008952D91022E000C12
:101B6000330B205331092A30310550F79D01281BD2
:101B7000390B2E173F0788F3F62E8C01BE016F5FDD
:101B80007F4F0E94E90C892BD9F68F2D0E94470BBD
:101B90007C0118161906A4F6019727E0289F60011A
:101BA000299FD00C1124B601C8010E94B80B69818D
:101BB000C60106960E940305C5CFCF92DF92EF9231
:101BC000FF920F931F93CF93DF931F92CDB7DEB792
:101BD0001982BE016F5F7F4F0E94E90C7C01019763
:101BE00027E0289F6001299FD00C112410E000E01D
:101BF00060E0C8018C0D9D1D0E9403050F5F1F4F03
:101C000007301105A9F7C7010F90DF91CF911F9100
:101C10000F91FF90EF90DF90CF90089560E171E019
:101C200080912404909125040E94E90C009731F4DE
:101C300080914203813051F482E008959C0121504B
:101C400031092530310520F00697B4F780E008957A
:101C500081E0089546E050E063E473E0809122045F
:101C6000909123040E94863321E0892B09F020E023
:101C7000822F08954F925F926F927F928F929F92E0
:101C8000AF92BF92CF92DF92EF92FF920F931F938A
:101C9000CF93DF93CDB7DEB7C850D1400FB6F894DD
:101CA000DEBF0FBECDBF1092250410922404109207
:101CB0002304109222041092210410922004109206
:101CC0001F0410921E0410921D0410921C04109206
:101CD0001B0410921A04109219041092180465E55E
:101CE00071E0FC01808191810E943F307C0165E5BB
:101CF00071E090E080E00E943F308C01E114F1043B
:101D000009F452C142E050E06AE571E0C7010E9467
:101D10008633892B51F043E050E06DE571E0C70157
:101D20000E948633892B09F002C1F70180818093DC
:101D3000260462E270E0C7010E946B330097E9F06D
:101D40000196909325048093240462E270E00E943F
:101D50006B33009711F0FC011082809126048934C6
:101D600061F4E0912404F091250480818B3229F400
:101D70003196F0932504E093240442E050E064E6B9
:101D800071E0C7010E948633892B09F04EC08BE4B5
:101D90008093260462E270E0C7010E946B330097D3
:101DA00009F443C067E671E001960E943F304C01A0
:101DB00067E671E090E080E00E943F305C0169E6F8
:101DC00071E090E080E00E943F306C0165E671E0D8
:101DD00090E080E00E943F307C0165E671E090E099
:101DE00080E00E943F308114910421F090922504FC
:101DF00080922404A114B10421F0B0922304A09293
:101E00002204C114D10421F0D0922104C0922004F4
:101E1000E114F10421F0F0921F04E0921E040097F7
:101E200021F090931D0480931C049E012F5F3F4F6F
:101E3000690180E091E0F9019C011192215030404C
:101E4000E1F70115110509F4B1C0F801808188237B
:101E500009F48FC09181903309F08BC0803309F071
:101E600088C001900020E9F731977F01E01AF10A5C
:101E700083E0A82EB12C912C812C3601680C791CA2
:101E8000AE14BF0408F072C0CB5FDE4F1882C5509D
:101E9000D140F8018081CF5FDE4F8883C150D140AF
:101EA0008181CE5FDE4F8883C250D1404280CD5FBA
:101EB000DE4F4882C350D1405380CC5FDE4F588202
:101EC000C450D1406BE671E0CE018F5F9E4F0E94FF
:101ED0007633892B31F160E771E0CE018F5F9E4F41
:101EE0000E947633892BE9F0C85FDE4F1882C85014
:101EF000D140CA5FDE4F4882C650D140C95FDE4F35
:101F00005882C750D14040E150E070E060E0CE011F
:101F10008A5F9E4F0E94012FFFEF8F1A9F0AF301E5
:101F20006083F4E0AF0EB11C0C5F1F4FA6CF42E000
:101F300050E061E671E0C7010E948633892B09F009
:101F40001CCF81E5809326046701F2E0CF0ED11CFF
:101F50006CE270E0C6010E946B33009711F0FC0147
:101F60001082D0922504C092240407CFF30110827E
:101F70008601809126048535C9F065E771E0C801C6
:101F80000E943F3010E0009789F01F5F1330D1F1BD
:101F900028F5113069F1123081F165E771E090E0C8
:101FA00080E00E943F30EFCF892B19F7C85FDE4FEA
:101FB0000FB6F894DEBF0FBECDBFDF91CF911F915A
:101FC0000F91FF90EF90DF90CF90BF90AF909F90D8
:101FD0008F907F906F905F904F9008951530E1F053
:101FE000B0F01630D1F69093190480931804D5CF31
:101FF0009093230480932204D0CF90932104809364
:102000002004CBCF90931F0480931E04C6CF9093DF
:102010001D0480931C04C1CF90931B0480931A0469
:10202000BCCF85ED8093BC008091790490917A04B7
:10203000A0917B04B0917C040796A11DB11D23E003
:10204000B695A795979587952A95D1F72091BC00CD
:1020500024FD03C0109277040895409179045091B3
:102060007A0460917B0470917C04452B462B472BAE
:1020700069F30097A105B10541F025E32A95F1F731
:1020800000000197A109B109E1CF809178040C9477
:102090005E030F931F93CF93DF938C01EB01FC0141
:1020A000808191810097E1F06881798161157105E6
:1020B000A9F0428153812C813D814217530770F072
:1020C0000E947F338C819D81F801958384831D82DA
:1020D0001C82DF91CF911F910F9108950E94FE31D4
:1020E00088819981F801918380838A819B81938380
:1020F00082838C819D8195838483198218821B82BF
:102100001A82E5CF67E771E0809120049091210465
:102110000E944D33892B29F581E40E94470B0197DA
:1021200059F40E94240940E061E4809124049091D4
:1021300025040E94890D089580910703882349F0A2
:1021400081E40E94470B181619061CF4109207032D
:10215000E8CF42E350E068E070E087EC95E00E9451
:10216000E10880E008950F931F93CF93DF938C01D4
:10217000EB010E94A0308883C80101960E94A03024
:102180008983CE01DF91CF911F910F910895CF9355
:10219000DF93EB010E94A0308883CE01DF91CF91C5
:1021A0000895CF93DF93EB010E94A0308883CE0186
:1021B000DF91CF9108950F931F93CF93DF9303E4A3
:1021C00013E0D0E0C0E0CE010E94A030F80181937E
:1021D0008F012196C730D105B1F78AE090E00E94C7
:1021E000A03080932B048BE090E00E94A03080937D
:1021F0002C048CE090E00E94A03080932D048DE0B0
:1022000090E00E94A03080932E0462E473E086E4A4
:1022100090E00E94C71060E473E088E290E00E94C2
:10222000D1106EE273E08BE290E00E94D1106FE378
:1022300073E082E390E00E94D1106EE373E084E3E8
:1022400090E00E94C71069E373E086E390E00E948B
:10225000B31061E473E08CE390E00E94D1106CE372
:1022600073E08EE390E00E94B31067E373E08AE4CA
:1022700090E00E94B3106BE073E08CE490E00E9469
:10228000D11067EB73E08EE490E00E94B3106FEE24
:1022900072E08AE590E00E94B3106DEE72E084E691
:1022A00090E00E94B3106BEE72E08EE690E00E9428
:1022B000B3106AEE72E088EC90E00E94D110D0E09A
:1022C000C0E0BE01665E7C4F8CED90E00E94B310D2
:1022D000BE01645F7C4F8EED90E00E94B3102296A9
:1022E000CE30D10571F7DF91CF911F910F910895F5
:1022F000FF920F931F93CF93DF93EC01F62E08818B
:102300001981C8010E94A030F81621F06F2DC80174
:102310000E94A830CE01DF91CF911F910F91FF90C5
:102320000895EF92FF920F931F93CF93DF9300D006
:10233000CDB7DEB78BE2E82E84E0F82E0AE010E09D
:102340001A830983F70161917F01CE0101960E94F2
:1023500078110F5F1F4F0E30110591F78BE294E05B
:102360000F900F90DF91CF911F910F91FF90EF9001
:102370000895CF92DF92EF92FF920F931F93CF9326
:10238000DF9300D0CDB7DEB76C017C0110E000E038
:102390001A830983F70161917F01CE0101960E94A2
:1023A00078110F5F1F4F0730110591F7C6010F908D
:1023B0000F90DF91CF911F910F91FF90EF90DF90E1
:1023C000CF900895EF92FF920F931F93CF93DF93D7
:1023D00000D0CDB7DEB78C017B019A838983FB01E6
:1023E0006081CE0101960E9478110F5F1F4F1A8302
:1023F0000983F7016181CE0101960E947811C7011E
:102400000F900F90DF91CF911F910F91FF90EF9060
:1024100008959F92AF92BF92CF92DF92EF92FF9278
:102420000F931F93CF93DF9300D0CDB7DEB76C012E
:10243000B62E7A011A821982BE016F5F7F4F80E546
:1024400090E00E94B31089819A818C5E9A4F2DE0B2
:10245000289F8001299F100D1124B801C6010E94F8
:10246000B80BF701A0809180C380D4806281C8013D
:1024700007960E940305692DC80108960E9403056E
:102480006A2DC80109960E9403056C2DC8010A96A1
:102490000E9403056D2DC8010B960E9403056B2D4C
:1024A000C8010C960E94030589819A810196843F98
:1024B000F1E09F07B9F09A838983BE016F5F7F4F78
:1024C00080E590E00E94E2110F900F90DF91CF9194
:1024D0001F910F91FF90EF90DF90CF90BF90AF9042
:1024E0009F9008951A821982E8CFFF920F931F934D
:1024F000CF93DF93CDB7DEB72C970FB6F894DEBF3E
:102500000FBECDBF8C01F62ECE0107960E94A90901
:102510008F81898388858A8389858B838A858C834B
:102520008B858D838C858E83AE014F5F5F4F6F2DC2
:10253000C8010E940912BE016F5F7F4F80E590E0E5
:102540000E94B31089819A810E94C20C2C960FB60A
:10255000F894DEBF0FBECDBFDF91CF911F910F91D9
:10256000FF9008950F931F93CF93DF9300D0CDB7C3
:10257000DEB78B019A838983FB016081CE010196CE
:102580000E947811C8010F900F90DF91CF911F9199
:102590000F9108950F931F93CF93DF9300D0CDB782
:1025A000DEB78B019A838983FB016081CE0101969E
:1025B0000E947811C8010F900F90DF91CF911F9169
:1025C0000F9108950F931F93CF93DF93CDB7DEB78D
:1025D0002B970FB6F894DEBF0FBECDBF87EC95E00A
:1025E0000E94DC0810E000E08091D6059091D705AC
:1025F00023E0880F991F2A95E1F7081719073CF483
:1026000060E0C8010E9403050F5F1F4FEDCF04E09B
:1026100012E460E0C8010E9403050F5F1F4F0C3CED
:102620008BE51807B1F710E000E01A83098360E03A
:10263000CE0101960E9478110F5F1F4F011582E0B5
:10264000180799F787E0EDE7F1E0DE0111960190B8
:102650000D928A95E1F7CE0101960E94B91182E0B0
:1026600080932B0480932C0480932D0480932E045C
:102670000E94911119861886BE01685F7F4F86E41B
:1026800090E00E94E21111E01887BE01685F7F4F61
:1026900088E290E00E94B2121A87BE01665F7F4F07
:1026A0008BE290E00E94B2121B87BE01655F7F4FF4
:1026B0008CE390E00E94B21210920B036BE073E087
:1026C0008CE490E00E94B21288E190E09093B8030D
:1026D0008093B70367EB73E08EE490E00E94E21111
:1026E00002E310E01093F0020093EF026FEE72E04D
:1026F0008AE590E00E94E2111093EE020093ED0251
:102700006DEE72E084E690E00E94E2111093EC021C
:102710000093EB026BEE72E08EE690E00E94E21115
:102720000E94240961E08EE290E00E94A8308EE0D1
:1027300090E0909338038093370367E373E08AE473
:1027400090E00E94E21188E19EE00FB6F894A8950F
:10275000809360000FBE9093600060ED77E080E0B2
:1027600090E00E94D0042B960FB6F894DEBF0FBE07
:10277000CDBFDF91CF911F910F9108950F931F93BC
:10278000CF93DF93EC0188819981009759F02A81DA
:102790003B812617370730F081E0DF91CF911F9101
:1027A0000F9108958B016F5F7F4F0E9487320097D2
:1027B00059F0998388831B830A832C813D81232BC5
:1027C00059F7FC011082E8CF80E0E7CFEF92FF924B
:1027D0000F931F93CF93DF936115710541F480E050
:1027E000DF91CF911F910F91FF90EF9008954115C8
:1027F0005105B1F07B01EC010C811D81040F151F07
:10280000B8010E94BE13882351F3288139818C813D
:102810009D81B701820F931F0E947F331D830C831C
:1028200081E0DECFCF93DF9300D0CDB7DEB76983F1
:102830001A8241E050E0BE016F5F7F4F0E94E613B5
:102840000F900F90DF91CF910895FB010190002030
:10285000E9F73197AF01461B570B0C94E613FB01C8
:1028600044815581608171810C94E613EF92FF924F
:102870000F931F93CF93DF93EC017B018A01BA0181
:102880000E94BE1381110BC0CE010E94000CCE012C
:10289000DF91CF911F910F91FF90EF9008951D83CD
:1028A0000C83B701888199810E947F33F0CFFB01AF
:1028B00001900020E9F73197AF01461B570B0C94AC
:1028C00036140F931F93CF93DF93CDB7DEB72997BD
:1028D0000FB6F894DEBF0FBECDBF8C01862FF80176
:1028E0001182108213821282158214824AE0BE0184
:1028F0006F5F7F4F90E00E947330BE016F5F7F4F2C
:10290000C8010E94571429960FB6F894DEBF0FBE77
:10291000CDBFDF91CF911F910F910895CF93DF939A
:10292000EC01FB018617970749F060817181611501
:10293000710541F0448155810E943614CE01DF912A
:10294000CF9108950E94000CF9CFFC0111821082F2
:1029500013821282158214820C948E14FC0111824F
:10296000108213821282158214826115710551F052
:10297000FB0101900020E9F73197AF01461B570B8F
:102980000C94361408950F931F93CF93DF93EC01AB
:102990008B0166E571E00E94AE14C8010E945D06DD
:1029A00097FD05C0682FCE010E941214F6CFCE010C
:1029B000DF91CF911F910F910895CF93DF9300D0B6
:1029C00000D000D0CDB7DEB76DEA74E0CE0101963D
:1029D0000E94C314CE0101960E94120C64E670E0BE
:1029E00080E090E00E94D00460ED72E08DEA94E017
:1029F0000E94990626960FB6F894DEBF0FBECDBF93
:102A0000DF91CF910895EF92FF920F931F93CF9391
:102A1000DF9300D000D000D0CDB7DEB77C018B01B2
:102A20006DEA74E0CE0101960E94C314CE010196B6
:102A30000E94120C64E670E080E090E00E94D004F6
:102A400066EC72E08DEA94E00E949906B7018DEA87
:102A500094E00E948B0663EC72E08DEA94E00E94A1
:102A6000990668EC70E080E090E00E94D004B80124
:102A70008DEA94E00E94D50C68EE73E080E090E06F
:102A80000E94D0046AE18DEA94E00E94650764EF39
:102A900071E080E090E00E94D0046DEA74E0CE0125
:102AA00001960E94C314CE0101960E94120C6DEA99
:102AB00074E0CE0101960E94C314CE0101960E94DB
:102AC000120C26960FB6F894DEBF0FBECDBFDF9175
:102AD000CF911F910F91FF90EF9008950F931F9347
:102AE000CF93DF9300D000D000D0CDB7DEB78C01FC
:102AF0006AEB72E08DEA94E00E949906B8018DEAD3
:102B000094E00E94880C63EB72E08DEA94E00E94EE
:102B1000990668EE73E080E090E00E94D0046AE4D9
:102B200075E0CE0101960E94C314CE0101960E9469
:102B3000120C26960FB6F894DEBF0FBECDBFDF9104
:102B4000CF911F910F910895CF93DF9300D000D0C4
:102B500000D0CDB7DEB78091DB059091DC050E94F7
:102B60006E156DEA74E0CE0101960E94C314CE0189
:102B700001960E94120C67EA72E08DEA94E00E94CE
:102B8000990664EF71E080E090E00E94D0046DEA65
:102B900074E0CE0101960E94C314CE0101960E94FA
:102BA000120C6BE972E08DEA94E00E94990664EFE2
:102BB00071E080E090E00E94D0046DEA74E0CE0104
:102BC00001960E94C314CE0101960E94120C6FE878
:102BD00072E08DEA94E00E94990664EF71E080E073
:102BE00090E00E94D0046DEA74E0CE0101960E944C
:102BF000C314CE0101960E94120C6BE772E08DEABD
:102C000094E00E94990664EF71E080E090E00E94F9
:102C1000D0046DEA74E0CE0101960E94C314CE0187
:102C200001960E94120C6CE572E08DEA94E00E941D
:102C3000990664EF71E080E090E00E94D0046DEAB4
:102C400074E0CE0101960E94C314CE0101960E9449
:102C5000120C65E572E08DEA94E00E94990664EF3B
:102C600071E080E090E00E94D0046DEA74E0CE0153
:102C700001960E94C314CE0101960E94120C67E4D3
:102C800072E08DEA94E00E94990664EF71E080E0C2
:102C900090E00E94D0046DEA74E0CE0101960E949B
:102CA000C314CE0101960E94120C6BE372E08DEA10
:102CB00094E00E94990664E670E080E090E00E9453
:102CC000D0046DEA74E0CE0101960E94C314CE01D7
:102CD00001960E94120C64E372E08DEA94E00E9477
:102CE000990626960FB6F894DEBF0FBECDBFDF91D2
:102CF000CF9108950F931F93CF93DF9300D000D00F
:102D000000D0CDB7DEB78C016DEA74E0CE0101963C
:102D10000E94C314CE0101960E94120C64E670E07A
:102D200080E090E00E94D00466E272E08DEA94E0D8
:102D30000E949906B8018DEA94E00E948B0662E237
:102D400072E08DEA94E00E94990668E873E180E001
:102D500090E00E94D0046CE172E08DEA94E00E9461
:102D6000990668EE73E080E090E00E94D0046DEA7E
:102D700074E0CE0101960E94C314CE0101960E9418
:102D8000120C26960FB6F894DEBF0FBECDBFDF91B2
:102D9000CF911F910F910895EF92FF920F931F9380
:102DA000CF93DF9300D000D000D0CDB7DEB78C0139
:102DB0006DEA74E0CE0101960E94C314CE01019623
:102DC0000E94120C64E670E080E090E00E94D00463
:102DD00062E172E08DEA94E00E94990668EE73E089
:102DE00080E090E00E94D004FF24F39487E2E82E74
:102DF0008DEA94E00E9424072091E5051816190633
:102E000064F521112AC08DEA94E00E940207909196
:102E10002A049923E9F090912904292F30E02852BF
:102E20003A4F26543F4FF9018A3051F080839F5F1B
:102E3000983218F0E0922904DBCF90932904D8CF80
:102E4000108210922A0410922904F092E505D0CF46
:102E5000883371F6F0922A04CBCF62EF71E022231F
:102E600021F01092E50562E976E0C8010E94AE14F7
:102E7000C80126960FB6F894DEBF0FBECDBFDF9116
:102E8000CF911F910F91FF90EF900895EF92FF92D5
:102E90000F931F93CF93DF93CDB7DEB72C970FB669
:102EA000F894DEBF0FBECDBF8C017B016EE772E0F0
:102EB0000E944D33892B09F063C00E94BD068091AA
:102EC00010018230B0F480912F03811112C0209143
:102ED0002B0488EE93E0289FA001299F500D112418
:102EE00041155105E9F161E070E088EB95E00E9441
:102EF000E1080E94BD0662E0C7010E947512809140
:102F00003C0390913D030197E9F464E871E0CE0140
:102F100007960E94AE146091240470912504CE019E
:102F200001960E94AE14BE01695F7F4FCE010196EB
:102F30000E940315CE0101960E94120CCE01079645
:102F40000E94120C81E02C960FB6F894DEBF0FBEE3
:102F5000CDBFDF91CF911F910F91FF90EF9008951A
:102F60008091B8050E94E902892B29F488EB95E04D
:102F70000E94DC08BECF88EB95E00E94D708B9CF4D
:102F800067E871E0C8010E944D33892B71F580918B
:102F900010018D7FB1F480913E03811112C0209108
:102FA0002C0488EE93E0289FA001299F500D112446
:102FB0004115510551F061E070E089EA95E00E9409
:102FC000E1080E94BD0663E097CF8091A9050E94A9
:102FD000E902892B29F489EA95E00E94DC08F1CF07
:102FE00089EA95E00E94D708ECCF6BE871E0C80150
:102FF0000E944D33892B99F468E572E080E090E0FF
:103000000E94D0040E94BD0680911001882319F00F
:10301000833009F097CF81E080932D0394CF80E037
:1030200092CFBF92CF92DF92EF92FF920F931F93B6
:10303000CF93DF93CDB7DEB7C259D1090FB6F8945D
:10304000DEBF0FBECDBF1A821982FE0133968EE716
:10305000DF011D928A95E9F7CE0183579F4F0E94A9
:10306000A909CF56DF4FB880C159D040C057DF4FB4
:10307000C880C059D040C357DF4FD880CD58D0400A
:10308000C257DF4FE880CE58D040C157DF4FF8809D
:10309000CF58D040CE0183579F4F0E94500AE82F4F
:1030A000F0E0EE0FFF1FE45FFC4F10810181CE01C5
:1030B00083579F4F0E94500A1F92BF921F92CF9238
:1030C0001F92DF921F92EF921F92FF920F931F9316
:1030D000E82FF0E0EE0FFF1FE65EFC4F81818F933B
:1030E00080818F9380912E031F928F938091400354
:1030F0001F928F9380913A038F93809139038F931E
:1031000080913E031F928F9380913F031F928F9374
:103110008091B8038F938091B7038F9380910B03B5
:103120001F928F9380913D038F9380913C038F93E7
:10313000809138038F93809137038F93EBE2F4E013
:1031400081811F928F9380811F928F938FE891E0EE
:103150009F938F938E010F5F1F4F1F930F930E94BA
:10316000A3330FB6F894DEBF0FBECDBFB801CE01BA
:1031700089579F4F0E94AE146091240470912504DA
:10318000CE018F579F4F0E94AE14BE0169577F4FEB
:10319000CE018F579F4F0E940315CE018F579F4F2F
:1031A0000E94120CCE0189579F4F0E94120CCE56DE
:1031B000DF4F0FB6F894DEBF0FBECDBFDF91CF91CA
:1031C0001F910F91FF90EF90DF90CF90BF900895E7
:1031D000CF92DF92FF920F931F93CF93DF93CDB7E0
:1031E000DEB762970FB6F894DEBF0FBECDBF8C017D
:1031F000F62E6A0166E571E0CE010D960E94AE14CE
:1032000089E06F2D8F1540F5CE0101960E94611463
:10321000BE016F5F7F4FCE010D960E944910BE0127
:10322000635F7F4FC8010E94A514CE0101960E94E2
:10323000120CCE010D960E94120CC80162960FB6B8
:10324000F894DEBF0FBECDBFDF91CF911F910F91DC
:10325000FF90DF90CF900895CE010196E5E0CE1665
:10326000D104D9F40E946114BE016F5F7F4FCE017B
:103270000D960E944910CE0101960E94120CF80191
:10328000118210821382128215821482BE01635F42
:103290007F4FC8010E944910CCCF0E94611467EE95
:1032A00072E0CE0107960E94AE144D815E81698165
:1032B0007A81CE0107960E94E613811104C0CE01E7
:1032C00007960E94000CBE01695F7F4FCE010D96EC
:1032D0000E948E14CE0107960E94120CCCCFBF9292
:1032E000CF92DF92EF92FF920F931F93CF93DF93D2
:1032F000CDB7DEB72C970FB6F894DEBF0FBECDBFAB
:103300008C016B0166E571E0CE0107960E94AE1458
:1033100087E08C9D70018D9DF00C1124C7010197F1
:103320000E945D0A80931001670187E0C81AD108E6
:10333000B12CF12CE12CC7018C0D9D1D0E945D0A62
:10334000811101C0B39493E09B15D0F467EE72E055
:10335000C8010E94AE14CE0107960E94120CC8014B
:103360002C960FB6F894DEBF0FBECDBFDF91CF9184
:103370001F910F91FF90EF90DF90CF90BF90089535
:10338000A701682FCE0101960E94E818BE016F5F69
:103390007F4FCE0107960E942F14CE0101960E9406
:1033A000120CEFEFEE1AFE0AF6E0EF16F10419F632
:1033B000F801118210821382128215821482BE01DA
:1033C000695F7F4FC8010E944910C5CFAF92BF927D
:1033D000DF92EF92FF920F931F93CF93DF93CDB7BE
:1033E000DEB7C054D1090FB6F894DEBF0FBECDBF13
:1033F0005C01198280912D038E010F5D1F4F882380
:1034000009F44AC064EF71E0CE0101960E947F3357
:103410006091240470912504CE0101960E946033CE
:10342000CE01C5960E94A90988AD1F928F938DA9E0
:103430001F928F938EA91F928F938FA91F928F93A4
:1034400089EF91E09F938F931F930F930E94A33373
:10345000B801CE0101960E94603319A289AD0FB662
:10346000F894DEBF0FBECDBF8A3008F06EC01F9249
:103470008F9387E092E09F938F931F930F930E9407
:10348000A3330F900F900F900F900F900F90B801F3
:10349000CE0101960E946033EE24E394F12CD12CEE
:1034A000B701C8010E946F198DA19EA1892B41F01F
:1034B00067EE72E089A19AA10E947633892B41F1CF
:1034C000DD2031F068E873E180E090E00E94D004F4
:1034D00080912D038823F1F1BE016F5F7F4FCE01F4
:1034E000CB960E94AE14B801CE01C5960E94A514D9
:1034F000BE01655C7F4FCE01C5960E940315CE01CB
:10350000C5960E94120CCE01CB960E94120CD39449
:10351000C8010E94120C3FEFE31AF30A84E0E81698
:10352000F10409F0BDCF81E0C05CDF4F0FB6F89425
:10353000DEBF0FBECDBFDF91CF911F910F91FF90E6
:10354000EF90DF90BF90AF9008951F928F9388E027
:1035500092E091CFB501CE01CB960E94A514C3CFC6
:10356000EF92FF920F931F93CF93DF93CDB7DEB708
:103570006F970FB6F894DEBF0FBECDBF8C017B01F5
:10358000161617060CF05CC060912004709121049F
:1035900046E050E0CE0101960E949433FF92EF92F4
:1035A0008BE092E09F938F937E018AE1E80EF11CFD
:1035B000FF92EF920E94A333B701CE0101960E94C1
:1035C00060330F900F900F900F900F900F9080919D
:1035D0003C0390913D03BE016F5F7F4F02972CF536
:1035E000CE0144960E94AE14B801CE010E960E9400
:1035F000AE14BE016C5E7F4FCE010E960E94031585
:10360000CE010E960E94120CCE0144960E94120C1E
:103610006F960FB6F894DEBF0FBECDBFDF91CF918E
:103620001F910F91FF90EF900895CE010E960E948A
:10363000AE14CE010E960E94E619CE010E96E6CF8C
:1036400060E171E00E94E90C181619060CF76FE0B2
:1036500072E0CE010E960E94AE14B801CE01019622
:103660000E94AE14BE01625F7F4FCE0101960E94A0
:103670000315CE0101960E94120CDFCF1F920F920C
:103680000FB60F9211242F933F934F935F936F9335
:103690007F938F939F93AF93BF93EF93FF9380910B
:1036A000B900887F803609F44AC0F0F5883209F401
:1036B000A7C018F5803109F49BC0B8F4882309F439
:1036C000F9C0883009F494C0FF91EF91BF91AF9198
:1036D0009F918F917F916F915F914F913F912F912A
:1036E0000F900FBE0F901F901895883109F488C075
:1036F000803251F78093750414C0803409F49DC062
:1037000040F48033B9F38833F9F68093750485EC7F
:10371000B0C0803509F485C0883509F496C0883476
:1037200099F60E941110D0CF883909F48CC038F571
:10373000883729F050F4883611F0803729F683E075
:10374000809377041092170457C0883809F47BC01F
:10375000803919F0803809F0B7CF80911704803292
:1037600008F071C0E091170481E08E0F8093170478
:103770008091BB00F0E0E950FC4F80833DC0803B6E
:1037800039F0E0F4803A09F479C0883A09F09CCF26
:1037900084E0809377041092F4031092F303E09195
:1037A000F103F091F20309958091F30381110FC0A9
:1037B00081E08093F3031092D10309C0803C09F4A7
:1037C000A6CF883C09F4A3CF883B09F07DCFE091D8
:1037D000F40381E08E0F8093F403F0E0EF52FC4F8E
:1037E00080818093BB009091F4038091F30329C002
:1037F000809152048093BB0085EC8093BC0064CF21
:103800009091740480917304981758F5E0917404B2
:1038100081E08E0F80937404F0E0ED5AFB4F8081BD
:10382000E9CFE091740481E08E0F8093740480915D
:10383000BB00F0E0ED5AFB4F8083909174048091BF
:1038400073049817C8F285E8D8CFE091740481E03A
:103850008E0F809374048091BB00F0E0ED5AFB4F13
:1038600080838091760481115CCF81E08093510444
:1038700084EA8093BC001092770426CF85EC809375
:10388000BC001092770480911704803230F4E091EC
:103890001704F0E0E950FC4F10826091170470E0CB
:1038A000E091F503F091F60387EF93E0099510920C
:1038B00017040ACF1092750434CF1F920F920FB6DF
:1038C0000F9211242F933F938F939F93AF93BF93A6
:1038D0008091BC039091BD03A091BE03B091BF0342
:1038E0003091BB0323E0230F2D3758F50196A11D1E
:1038F000B11D2093BB038093BC039093BD03A093A1
:10390000BE03B093BF038091C0039091C103A09107
:10391000C203B091C3030196A11DB11D8093C003E2
:103920009093C103A093C203B093C303BF91AF911F
:103930009F918F913F912F910F900FBE0F901F90ED
:10394000189526E8230F0296A11DB11DD2CF1F9214
:103950000F920FB60F9211248F939F938091E100E5
:103960009091E100937F9093E10083FF0FC010924C
:10397000E90091E09093EB001092EC0092E39093B9
:10398000ED001092280498E09093F00082FF22C08E
:1039900093E09093E9009091F200992319F09AE353
:1039A0009093E8009091FA02992341F09091FA02E5
:1039B00091509093FA02911101C05D9A9091270461
:1039C000992341F0909127049150909327049111ED
:1039D00001C0289A84FF18C08091E2008E7E816029
:1039E0008093E2008091E1008F7E8093E1008091DE
:1039F000FB028E7E80618093FB029F918F910F90DE
:103A00000FBE0F901F90189580FFF7CF8091E200B6
:103A10008E7E80618093E2008091E1008E7E8093B3
:103A2000E1008091FB028E7E8160E5CF1F920F92B4
:103A30000FB60F921124CF92DF92EF92FF920F9365
:103A40001F932F933F934F935F936F937F938F9326
:103A50009F93AF93BF93EF93FF93CF93DF93CDB734
:103A6000DEB76C97DEBFCDBF1092E9008091E80011
:103A700083FF25C068E0CE0145960E94500682EF84
:103A80008093E8008D8987FF39C09091E80090FF0E
:103A9000FCCF982F907609F034C19E894F89588DBC
:103AA0002F89F88C911131C0803861F58091FC022A
:103AB0008093F1001092F1008EEF8093E8006C96F5
:103AC0000FB6F894DEBF0FBECDBFDF91CF91FF914F
:103AD000EF91BF91AF919F918F917F916F915F9186
:103AE0004F913F912F911F910F91FF90EF90DF9099
:103AF000CF900F900FBE0F901F9018959EEF909350
:103B0000E800C7CF1092F100D5CF913059F4811160
:103B1000D3CF4130510581F68091FC028D7F809397
:103B2000FC02CACF933049F48111C6CF4130510510
:103B300019F68091FC028260F2CF953041F48091B9
:103B4000E80080FFFCCF20682093E300B5CF9630DB
:103B500009F0A9C00B8D1C8D22E01092E900109293
:103B6000F8021092F702F2122EC01092F602109292
:103B7000F5020E941F061F8299E09983FA8291E064
:103B80009E8390EA98879AEF99872091F702309167
:103B9000F802275F3F4F3C832B838D831092E9000F
:103BA0001092F8021092F7021093F6020093F502B9
:103BB00049E050E0BE016F5F7F4F80E00E94F90551
:103BC0000E941F0679CF1093F6020093F5020E941F
:103BD0008902DC0112960D911C910115110509F461
:103BE00051C1D801ED91FC910480F581E02DBE0119
:103BF0006B5E7F4FC8010995009709F03EC1F8013F
:103C000000851185EACFF3E0FF120EC08F8988236B
:103C100009F440C0823061F440E862E189E191E05A
:103C20000E94C605811148CF81E28093EB0047CF07
:103C3000813029F440E868E080E191E0F1CF833001
:103C400099F70E948902DC011296ED90FC908E019A
:103C50000F5F1F4F6801E114F10479F0D701ED9176
:103C6000FC910680F781E02DB801C7010995080F86
:103C7000111DF701E084F184EECFD8011C92F6010A
:103C800001900020E9F73197BF016C197D0940E0F0
:103C9000C601C6CF6AEF70E0FB01449150E080E8B6
:103CA0000E94F90509CF973009F4BECF983021F46E
:103CB00081E08093F10000CF993009F0FDCE837050
:103CC00009F0B2CFE8E1F1E081E031E096E3219143
:103CD000222371F08093E9003093EB00DF0111970C
:103CE0002C912093EC009093ED008F5F873079F753
:103CF0008EE78093EA001092EA008F89809328046F
:103D0000DBCE8B8D9C8D1092E9001092F802109200
:103D1000F7029093F6028093F502898D811192C08B
:103D20008E899D89913A49F4813209F07DCF47E02F
:103D300050E064E071E080E0B3CF913209F074CFDD
:103D4000833269F48F89988DB0E0A0E08093000100
:103D500090930101A0930201B0930301ADCE803294
:103D600069F48091E80082FFFCCF67E084E091E095
:103D70000E9450068BEF8093E8009ECE823209F0BD
:103D80009BCE8F8980930B01EEEFFFE78591949195
:103D90008B3F9C4D51F1E0E0F8E08091040190915F
:103DA0000501A0910601B0910701803B9440A10557
:103DB000B105F1F480910B0180FD1AC0EE3F8AE05D
:103DC000F80789F587E797E7918380838091600002
:103DD0008093F90288E19BE00FB6F894A895809350
:103DE00060000FBE9093600067CEEEEFFAE0D5CF93
:103DF000808191818737974709F05ECEA8958091A1
:103E000060008861809360008091F9028093600077
:103E1000EE3F2AE0F20789F08091FE0A9091FF0AB6
:103E20009183808349CE808191818737980751F2B1
:103E30009093FF0A8093FE0AC5CF1092FF0A10925A
:103E4000FE0A3ACE0E948902DC0112960D911C9165
:103E50000115110509F4E8CED801ED91FC9101900E
:103E6000F081E02DBE016B5E7F4FC8010995811185
:103E700023CEF80100851185EBCF181619060CF436
:103E80001BCED2CEF1E0FF12BECE6EEF70E004CFBB
:103E90001F920F920FB60F9211242F933F934F93BF
:103EA0005F936F937F938F939F93AF93BF93EF93A2
:103EB000FF938DEA94E00E944407FF91EF91BF9138
:103EC000AF919F918F917F916F915F914F913F91B2
:103ED0002F910F900FBE0F901F9018951F920F9269
:103EE0000FB60F9211242F938F939F93EF93FF930D
:103EF000E091BD04F091BE048081E091C304F09193
:103F0000C40482FD1BC090818091C6048F5F8F73B3
:103F10002091C704821741F0E091C604F0E0E35518
:103F2000FB4F958F8093C604FF91EF919F918F91E6
:103F30002F910F900FBE0F901F9018958081F4CF96
:103F4000CF93DF93E1EAF4E01382128288EE93E0EC
:103F5000A0E0B0E084839583A683B78322E231E0BA
:103F600031832083EDEAF4E0138212828483958307
:103F7000A683B78324E331E0318320832DEC30E046
:103F8000358724872CEC30E03787268728EC30E013
:103F9000318B208B29EC30E0338B228B2AEC30E004
:103FA000358B248B2EEC30E0378B268B118E128EC6
:103FB000138E148EEAE4F5E01382128284839583D3
:103FC000A683B78386E491E0918380838FEF9FEF90
:103FD0009587848766E571E08EEB96E00E94AE14CB
:103FE000C8EDD5E082E090E09C838B8366E571E0CC
:103FF0008DED95E00E94AE141B861C861D861F86E3
:104000001E868DE48093BA068CE48093BB0683E51C
:104010008093BC0691E29093BD06888388EE93E07E
:104020009093D7058093D605E7ECF5E012821286CF
:10403000138614861586168684E090E0918380832B
:10404000C1E0C38361E00E947F03E8EBF5E01282E8
:104050001286138614861586168689E090E0918371
:104060008083C38361E00E947F03E9EAF5E0128266
:10407000128613861486158616868AE090E0918350
:104080008083C38361E00E947F03EAE9F5E0128246
:104090001286138614861586168688E090E0918332
:1040A0008083138260E0DF91CF910C947F03CF93E4
:1040B000DF93CDB7DEB7ED970FB6F894DEBF0FBE36
:1040C000CDBF789484B5826084BD84B5816084BDA1
:1040D00085B5826085BD85B5816085BD80916E00A6
:1040E000816080936E0010928100809181008260D7
:1040F0008093810080918100816080938100809114
:104100008000816080938000809191008260809324
:104110009100809191008160809391008091900046
:104120008160809390008091C10084608093C10081
:104130008091C10082608093C1008091C100816044
:104140008093C1008091C30081608093C3008091FF
:10415000C00082608093C0008091C2008160809323
:10416000C20080917A00846080937A0080917A0006
:10417000826080937A0080917A00816080937A00D7
:1041800080917A00806880937A00109228041092BF
:10419000FC021092FB028091D70081608093D700CF
:1041A00080EA8093D80089B5806189BD89B5826035
:1041B00089BD09B400FEFDCF61E070E080E090E0D1
:1041C0000E94D0048091D8008F7C80618093D800B9
:1041D0008091E000807F8093E0008091E1008E7EFE
:1041E0008093E1008DE08093E200559A209A87EF5A
:1041F00084BF0FB6F894A895809160008861809381
:104200006000109260000FBE60E08EE00E947F03AD
:1042100061E084E10E947F0362E085E10E947F0308
:1042200048EC50E065E070E087EC95E00E94E10822
:104230008EE290E00E94A0308111C9C161E084E16A
:104240000E94120364EF71E080E090E00E94D004CD
:1042500060E084E10E94120387EC95E00E94DC0894
:104260008FEF9FEF909357058093560568EE73E0AC
:1042700080E090E00E94D0040E94DB10E0903703C1
:10428000F0903803E091BD04F091BE0402E0008399
:10429000E091B904F091BA041082E091BB04F0916E
:1042A000BC0480E180831092C504E091C104F091C8
:1042B000C20416E01083E091BF04F091C004808135
:1042C00080618083E091BF04F091C00480818860A8
:1042D0008083E091BF04F091C00480818068808376
:1042E000E091BF04F091C00480818F7D8083809134
:1042F000D8058C3409F045C068EE73E080E090E0AA
:104300000E94D00466E571E08DEA94E00E9499066F
:1043100068EE73E080E090E00E94D004E091BD047C
:10432000F091BE040083E091B904F091BA041082C8
:10433000E091BB04F091BC0487E680831092C50431
:10434000E091C104F091C2041083E091BF04F091A8
:10435000C004808180618083E091BF04F091C0043B
:10436000808188608083E091BF04F091C0048081E7
:1043700080688083E091BF04F091C00480818F7DCC
:10438000808360E177E280E090E00E94D00460E505
:1043900071E08DEA94E00E9499066DEA74E08E0166
:1043A0000F5F1F4FC8010E94C314C8010E94120C66
:1043B00068EE73E080E090E00E94D004F092DC05AB
:1043C000E092DB05C7010E946E1564E471E08DEA9E
:1043D00094E00E94990668EE73E080E090E00E940D
:1043E000D0046DEA74E0C8010E94C314C8010E94A1
:1043F000120C68E371E08DEA94E00E94990668EE81
:1044000073E080E090E00E94D0046DEA74E0C8019F
:104410000E94C314C8010E94120C6CE271E08DEA84
:1044200094E00E94990668EE73E080E090E00E94BC
:10443000D0046DEA74E0C8010E94C314C8010E9450
:10444000120C0E94A4156DEA74E0C8010E94C31406
:10445000C8010E94120C68EE73E080E090E00E94B8
:10446000D0041092300410922F0410927E04109207
:10447000A0040E94400383E092E09093F2038093B3
:10448000F10384E092E09093F6038093F50360E1FA
:1044900077E280E090E00E94D00481E090E00E940A
:1044A000A0308F3F11F40E94E212A091B703B091A7
:1044B000B8031A161B0674F420E437E74BE150E00A
:1044C0000E945A3160930C0170930D0180930E018C
:1044D00090930F0164E170E08EEB96E00E94BE13B2
:1044E000C8010E94CC16B8018EEB96E00E944910DC
:1044F000C8010E94120C60ED77E080E090E00E941D
:10450000D0046DEF72E08FEF92E00E94860B8091F5
:104510003703909138030E94C20C67EE72E0C80125
:104520000E94AE14C8010E947A16C8010E94120CA3
:1045300048EC50E065E070E087EC95E00E94E1080F
:1045400085E1898381E08A838B831C821D821E82A0
:10455000C8010E942F0A68EB7BE080E090E00E9497
:10456000D0040E94DD147E012AE1E20EF11CCE018E
:1045700007969DAF8CAF78EE272E75E0372EDD24A1
:10458000D39469EAC62E8DEA94E00E942407B09085
:104590000603181619060CF58091E40581111DC05B
:1045A0008DEA94E00E940207B11058C09091BA06BB
:1045B000891709F47AC09091BB06891721F0909170
:1045C000BC068913E0CFEDE0E093BD0671C060E06A
:1045D0008EE290E00E94A8303FCEBB2009F49BC041
:1045E0000E942B058090010390900203A09003038A
:1045F000B0900403681979098A099B09683E7340E1
:104600008105910508F487C0E0910503F0E0E852C8
:10461000FA4F108A10920603109205033092E705B4
:104620002092E60581E08093E40542E350E061E0FA
:1046300070E087EC95E00E94E1088091E40581112B
:104640001092E4058DEA94E00E94240718161906DA
:10465000F4F58DEA94E00E940207F4CF9091BD0634
:10466000891791F2E091050391E09E0F9093050365
:10467000F0E0E852FA4F808B9A3A10F0C0920503AE
:104680000E942B058090010390900203A0900303E9
:10469000B0900403681979098A099B09603D774045
:1046A0008105910508F46FCFAFCF91E29093BD06DD
:1046B0000E942B0560930103709302038093030310
:1046C00090930403D0920603109205035CCFA0914F
:1046D000E605B091E705BBAFAAAFFD010190002050
:1046E000E9F73197EA1BFB0B3497A8F011968C91F0
:1046F0008E3489F0CE01CA960E943A0E809126042B
:104700008B3409F485C60CF095C0833409F41CC6BB
:10471000893409F419C6809134038823E1F00E949A
:104720002B058090300390903103A0903203B0901D
:104730003303681979098A099B0968397A43810525
:10474000910508F44DC06FE373E082E390E00E94AE
:10475000D1101092340380913F03882309F422C7BB
:10476000C7010E94A909C7010E94500AE82FF0E082
:10477000EE0FFF1FE65EFC4FA080B180C7010E94D4
:10478000500AE82FF0E0EE0FFF1FE45FFC4FC080FF
:10479000D1801A141B041CF01C141D048CF4C801D5
:1047A0000E94A9098C8195012C193D0990E037FFE1
:1047B000F0C68A159B0524F08C159D050CF4F2C6F5
:1047C00088EE93E00E94370580912F0381117EC708
:1047D00080912E038111EBC680912D038111F4C6C7
:1047E000DD24D3942BE3C22E8AE495E00E94BD0819
:1047F0002091B303181619060CF0EAC72111EBC774
:104800008AE495E00E947B0890913603992309F48D
:10481000D9C790913503E92FF0E0E65BFC4F8E336A
:1048200009F4C8C780839F5F9C3308F4C0C7C09257
:104830003503DACF813509F46EC5843509F06BCFC5
:104840000E940E0E813019F170F0823009F063CFB2
:104850006091240470912504809122049091230496
:104860000E94461758CF0E942A0E882309F453CF7E
:104870000E948210682F70E06115710509F44BCF1A
:1048800080912404909125040E94B01A44CF0E9484
:104890002A0E8823E9F266E172E08091200490916B
:1048A00021040E944D33892BD1F40E94240964E82D
:1048B00071E0C8010E94AE14609124047091250437
:1048C000C7010E94AE14B801C7010E940315C701B9
:1048D0000E94120CC8010E94120C0E94E2126DE1AB
:1048E00072E080912004909121040E944D33892B25
:1048F00039F5E0911E04F0911F0486E0A3E4B3E0D3
:1049000001900D928A95E1F710924A0383E493E0B7
:104910000E94B91164E871E0C8010E94AE14609170
:10492000240470912504C7010E94AE14B801C70188
:104930000E940315C7010E94120CC8010E94120CAC
:1049400067E771E080912004909121040E944D332B
:10495000892B51F40E948210682F70E0809124040A
:10496000909125040E94B01A65E272E080912004C3
:10497000909121040E944D33892BE9F481E08093CA
:10498000070387EC95E00E94DC0864E871E0C80149
:104990000E94AE146091240470912504C7010E9406
:1049A000AE14B801C7010E940315C7010E94120C82
:1049B000C8010E94120C6FE272E080912004909175
:1049C00021040E944D33892BE1F566E571E0CE01AB
:1049D0008E960E94AE14CC24C394D12CB601C8018B
:1049E0000E946F19B801CE018E960E942F14C80143
:1049F0000E94120C6AE0CE018E960E9412142FEFD4
:104A0000C21AD20A36E0C316D10441F7BE01625D74
:104A10007F4FC8010E94A514609124047091250461
:104A2000C7010E94AE14B801C7010E940315C70157
:104A30000E94120CC8010E94120CCE018E960E9498
:104A4000120C69E372E080912004909121040E948D
:104A50004D33892B09F05BC080911E0490911F0497
:104A60000E9418304C0180911C0490911D040E94FA
:104A700018305C0164018A149B040CF048C066E5A0
:104A800071E0CE018E960E94AE1436018AE0680E67
:104A9000711C6C147D04A9F0B601C8010E946F1945
:104AA000B801CE018E960E942F14C8010E94120CEC
:104AB0006AE0CE018E960E9412149FEFC91AD90A9D
:104AC000E8CFBE01625D7F4FC8010E94A5146091CE
:104AD000240470912504C7010E94AE14B801C701D7
:104AE0000E940315C7010E94120CC8010E94120CFB
:104AF00060EA7FE080E090E00E94D0046301EAE099
:104B0000AE1AB108CE018E960E94120CB4CF6FE39C
:104B100072E080912004909121040E944D33892BF2
:104B200009F011C166E571E0CE018E960E94AE14C7
:104B30006CE870E0CE018E960E94BE13BE016C5CE4
:104B40007F4F80E590E00E94B3104CA85DA8420121
:104B5000F7E38F1A910882E390E097FE03C04201C9
:104B6000881A990A0597C9F7181419040CF0E7C0B8
:104B700025E0421A510866E571E0CE018E960E944A
:104B800057148CA99DA95C0131E0A31AB1088D5E70
:104B90009A4FEDE0E89F3001E99F700C1124A814B2
:104BA000B9040CF4CCC066E571E0C7010E94AE14F4
:104BB000D12CC12CC601860D971D0E945D0A682F5D
:104BC000F6E0CF16D104D1F025E0C216D10409F0E9
:104BD0005EC045E050E0CE0101960E94E818BE019B
:104BE0006F5F7F4FC7010E942F14CE0101960E9474
:104BF000120C67E472E0C7010E942514EFEFCE1A91
:104C0000DE0AFDE0CF16D104A9F6B701CE018E96DB
:104C10000E942F14C7010E94120C6AE0CE018E96EA
:104C20000E941214A414B50459F5BE01625D7F4FB1
:104C3000CE0101960E94A514609124047091250470
:104C4000C7010E94AE14BE016F5F7F4FC7010E9473
:104C50000315C7010E94120CCE0101960E94120C8E
:104C600060EA7FE080E090E00E94D00466E571E0B9
:104C7000CE018E960E945714250125E0421A510854
:104C800031E0A31AB1088DE0681A710888CF39E0C5
:104C9000C316D10499F449E050E0CE0101960E9478
:104CA000E818BE016F5F7F4FC7010E942F14CE012D
:104CB00001960E94120C69E472E09DCF4BE050E037
:104CC0008BE0C816D10449F3A6019CE0C916D104B3
:104CD00039F5862F90E08230910519F46BE472E08B
:104CE0008ACF8330910519F462EA72E084CF813271
:104CF000910519F46EE472E07ECF8C32910519F4BF
:104D000061E572E078CF8430910519F464E572E0D2
:104D100072CF4CE050E0069719F467E572E06BCF74
:104D2000CE0101960E94E818BE016F5F7F4FC70158
:104D30000E942F14CE0101960E94120C5FCFCE016B
:104D40008E960E94120C6AE572E080912004909188
:104D500021040E944D33892B01F580911C04909110
:104D60001D04C0901E04D0901F0440E0009719F06D
:104D70000E941830482F65E4C6010E94890D6C011D
:104D8000181619060CF09EC20E942409B6018091E3
:104D90002404909125040E94B01A6EE572E080917F
:104DA0002004909121040E944D33892B09F049C0C1
:104DB00040E065E480911E0490911F040E94890DDB
:104DC00031E020E0181619060CF030E0C32ED22E88
:104DD00080911C0490911D049A83898380911A0408
:104DE00090911B049C838B838091180490911904EB
:104DF0009E838D835801F501819091905F0181140C
:104E0000910489F068EE73E080E090E00E94D004A5
:104E100040E065E4C4010E94890D181619061CF4CF
:104E2000FFEFCF1ADF0A2CAD3DAD2A153B0519F770
:104E30000E942409B60180912404909125040E94C7
:104E4000B01A63E672E080912004909121040E94E0
:104E50004D33892BA1F480911E0490911F040E9470
:104E6000DD0D6C01181619060CF035C20E942409DC
:104E7000B60180912404909125040E94B01A67E63F
:104E800072E080912004909121040E944D33892B7F
:104E900099F460E171E080911E0490911F040E94DA
:104EA000E90C181619060CF01FC2BC0180912404ED
:104EB000909125040E94B01A6BE672E08091200464
:104EC000909121040E944D33892B11F580911E048D
:104ED00090911F040E94183080932B040E9491111E
:104EE00060911E0470911F04C8010E94AE1460916D
:104EF000240470912504C7010E94AE14B801C701B3
:104F00000E940315C7010E94120CC8010E94120CD6
:104F100062E772E080912004909121040E944D3359
:104F2000892B31F580911E0490911F040E94183046
:104F300080932C040E94911160911E0470911F04B3
:104F4000CE0101960E94AE14609124047091250454
:104F5000C7010E94AE14BE016F5F7F4FC7010E9460
:104F60000315C7010E94120CCE0101960E94120C7B
:104F700069E772E080912004909121040E944D33F2
:104F8000892BD1F581E080933F0381E090E09A8303
:104F90008983BE016F5F7F4F82E390E00E94E21140
:104FA00080911E0490911F040E94183090933A0340
:104FB0008093390369E373E086E390E00E94E21195
:104FC0000E94240961E872E0CE0101960E94AE14AD
:104FD0006091240470912504C7010E94AE14BE01A3
:104FE0006F5F7F4FC7010E940315C7010E94120C1B
:104FF000CE0101960E94120C64E872E080912004B8
:10500000909121040E944D33892B49F589EA95E05E
:105010000E94D70810923F031A821982BE016F5F67
:105020007F4F82E390E00E94E2116DE872E0CE01D2
:1050300001960E94AE146091240470912504C7016A
:105040000E94AE14BE016F5F7F4FC7010E9403151F
:10505000C7010E94120CCE0101960E94120C61E958
:1050600072E080912004909121040E944D33892B9D
:1050700059F480912F03882339F089EA95E00E9442
:10508000D70881E08093280367E972E080912004CB
:10509000909121040E944D33892B51F580911E047B
:1050A00090911F040E94183090933D0380933C031D
:1050B0006CE373E08EE390E00E94E21164E871E03B
:1050C000CE0101960E94AE146091240470912504D3
:1050D000C7010E94AE14BE016F5F7F4FC7010E94DF
:1050E0000315C7010E94120CCE0101960E94120CFA
:1050F0006DE972E080912004909121040E944D336B
:10510000892B51F580911E0490911F040E94183044
:1051100080933E030E9424096EE373E084E390E0F1
:105120000E94CA1264E871E0CE0101960E94AE149A
:105130006091240470912504C7010E94AE14BE0141
:105140006F5F7F4FC7010E940315C7010E94120CB9
:10515000CE0101960E94120C65EA72E08091200453
:10516000909121040E944D33892B41F580911E04BA
:1051700090911F040E94183021E0892B09F420E04F
:10518000209340030E94240960E473E088E290E0E9
:105190000E94B21280911C0490911D040E9418304C
:1051A00021E0892B09F420E020932E036EE273E0C6
:1051B0008BE290E00E94B2120E9411186BEA72E03A
:1051C00080912004909121040E944D33892B91F409
:1051D00060E171E080912404909125040E94E90C23
:1051E0009093BA038093B90365E671E08DEA94E089
:1051F0000E94990662EB72E0809120049091210454
:105200000E944D33892B31F580911E0490911F042B
:105210000E941830909338038093370367E373E05C
:105220008AE490E00E94E211809137039091380364
:105230000E946E1588E19EE00FB6F894A8958093C1
:1052400060000FBE9093600060ED77E080E090E03A
:105250000E94D00467EB72E08091200490912104B9
:105260000E944D33892B11F40E94DD146BEB72E028
:1052700080912004909121040E944D33892B21F4C8
:105280000E9411180E94240962EC72E080912004AF
:10529000909121040E944D33892B09F03CCA40EDC6
:1052A00057E061E070E088EB95E00E94E10840ED96
:1052B00057E061E070E089EA95E00E94E1080E9411
:1052C000111829CA42E350E068E070E087EC95E0ED
:1052D0000E94E1085BCD42E350E068E070E087ECBB
:1052E00095E00E94E108C4CD67EE72E0C8010E941B
:1052F000AE146091240470912504C7010E94AE147D
:10530000B801C7010E940315C7010E94120CC80111
:105310000E94120CD1CD6091240470912504C80123
:105320000E94AE146091B9037091BA03C7010E9444
:105330006F19B801C7010E940315C7010E94120C22
:10534000C8010E94120CE7C90E940E0E813021F1A3
:105350008230E9F11092DA051092D9058DEA94E0D5
:105360000E942407892B09F041C08091D9059091B2
:10537000DA05803E9E42D4F56DE070E080E090E07A
:105380000E94D0048091D9059091DA0501969093FE
:10539000DA058093D905E2CF90912F03992319F074
:1053A00080932803D7CF80913E03823048F46091E8
:1053B0002404709125048EE792E00E944617CACF1C
:1053C00060912404709125048BE891E0F6CF8091E0
:1053D0003E038230A8F780911001823040F3609143
:1053E00024047091250487E891E0E7CF8DEA94E0EA
:1053F0000E942407892B31F06DEA74E0C8010E94F5
:10540000C3149ECF66E571E0C8010E94AE1498CF28
:1054100080912404909125040E9418306C014497D7
:10542000449708F0A5C080911C0490911D040E942F
:105430001830D82E80911E0490911F040E941830BD
:10544000B82E80912004909121040E941830A82E3B
:1054500080912204909123040E941830C9828A838B
:10546000AB82BC82DD821E82C8010E942F0A80911D
:10547000D805813591F4C7010E94A909C7010E948E
:10548000F509AB01BC014054584361097109C801D9
:105490000E942C09C8010E942F0A66E090E080E07B
:1054A0000E94751280910B03882389F08091090373
:1054B00090910A032091B7033091B803820F931F94
:1054C000883191058CF590930A03809309038091AC
:1054D000B7039091B803181619060CF01CC90E9466
:1054E0002B0561327F4B8240910508F414C96AE7AD
:1054F00071E08DEA94E00E94990660E47FE180E02B
:1055000090E00E94D0046EE671E08DEA94E00E9483
:1055100099066DEA74E0C8010E94C314C8010E9494
:10552000120C0E94A41568CF10920A03109209036E
:1055300061E070E0CE018E960E946F1967EC72E018
:10554000C8010E94AE14BE01625D7F4FC7010E9478
:10555000A514B801C7010E940315C7010E94120CCF
:10556000C8010E94120CCE018E960E94120CAFCF81
:1055700068E873E180E090E00E94D0048091080325
:105580008F5F80930803823008F0C5C80E94DD1445
:10559000C2C8C81AD90A1C141D0424F08A159B0518
:1055A0000CF40EC980E49FE10E94370519C980916F
:1055B0009A050E94E90221E0892B09F420E08091FC
:1055C0004003821709F408C90E94BD0668EE73E023
:1055D00080E090E00E94D0040E94BD0681E08093AC
:1055E0002F030E942B056093290370932A03809355
:1055F0002B0390932C0380913E03882321F089EAAA
:1056000095E00E94DC0819826BEC72E0C8010E94F0
:105610006033CE01C4960E94A9098FA91F928F936F
:105620008CA91F928F938DA91F928F938EA91F9281
:105630008F9389EF91E09F938F93FF92EF920E9457
:10564000A333B701C8010E9460331A8E88AD0FB62C
:10565000F894DEBF0FBECDBF8A3080F51F928F93C6
:1056600087E092E09F938F93FF92EF920E94A33383
:105670000F900F900F900F900F900F90B701C801EF
:105680000E9460331A8EB801CE018E960E94AE142D
:10569000CE018E960E94E619CE018E960E94120CC3
:1056A00080912D03882379F0809124049091250422
:1056B00064E00E94751210922D0392C81F928F937E
:1056C00088E092E0CFCF90E080E0F2CF84E690E0F7
:1056D0000E9437058090290390902A03A0902B0305
:1056E000B0902C03A0913903B0913A0328EE33E037
:1056F0000E94533160939E0570939F058093A0058F
:105700009093A105672B682B692B09F44BC00E946D
:105710002B052B013C01481859086A087B0880902A
:105720009E0590909F05A090A005B090A1054814FB
:1057300059046A047B04B0F16093A5057093A60533
:105740008093A7059093A8051092280310922F0329
:1057500080913E038823B1F089EA95E00E94D70842
:105760000E94BD0668EE73E080E090E00E94D004E5
:105770000E94BD066DEA74E0C8010E94C314C8010E
:105780000E94120C10923F0381E0809334030E9428
:105790002B05609330037093310380933203909311
:1057A00033031EC8809128038111CECF19C890936E
:1057B00035031AC810821092360310923503D09226
:1057C000B30312C88C3309F00FC8D09236030CC84B
:1057D000222309F465C06AE473E086E893E00E943E
:1057E0007F3362ED72E086E893E00E943F3062ED25
:1057F00072E090E080E00E943F3062ED72E090E065
:1058000080E00E943F3062ED72E090E080E00E9414
:105810003F305C0162ED72E090E080E00E943F303A
:1058200062ED72E090E080E00E943F3062ED72E055
:1058300090E080E00E943F3062ED72E090E080E016
:105840000E943F306C0162ED72E090E080E00E94C7
:105850003F3062ED72E090E080E00E943F3062ED08
:1058600072E090E080E00E943F3062ED72E090E0F4
:1058700080E00E943F309C01F5019081943409F44E
:10588000FFC00CF087C0913409F4E6C00CF076C07C
:10589000933209F48DC1953209F4FEC11092B3031D
:1058A00085E10E94E9029C0191E02115310509F48E
:1058B00090E09093B6038091B5039817D1F0232B15
:1058C00091F4D090B403D394D092B40340ED57E058
:1058D00061E070E087EC95E00E94E108F5E0DF12FE
:1058E00002C00E94E21262E370E080E090E00E9459
:1058F000D0048091B6038093B5030E942B054B0121
:105900005C0180910C0190910D01A0910E01B0916C
:105910000F0188169906AA06BB0601F54CE251E074
:1059200064E070E087EC95E00E94E108A091B70385
:10593000B091B80320E437E74BE150E00E945A31C0
:10594000860E971EA81EB91E80920C0190920D0122
:10595000A0920E01B0920F010E94DD1480E090E051
:10596000892B11F40C94BF220E943007882311F474
:105970000C94BB220E9400000C94BB22923409F4C8
:105980007CC0933409F08ACF40E061E4C6010E94F4
:10599000890D84CF903509F4FCC074F4953409F472
:1059A00073C0963409F07ACF60E171E0C6010E94BD
:1059B000E90C0E94C20C72CF943509F4C2C09A352A
:1059C00009F400C2933509F069CF87EC95E00E9495
:1059D000DC08CC24C394D12CB601C8010E946F19F5
:1059E0008D819E81892B41F067EE72E089819A81D9
:1059F0000E947633892BD1F0B8018AE495E00E94A9
:105A00008B066DE28AE495E00E94560840911001F1
:105A100050E070E060E02AE08AE495E00E943C0CEF
:105A200064E571E08AE495E00E941A0CF5E0CF1677
:105A3000D10421F488E891E00E94290CC8010E9459
:105A4000120C2FEFC21AD20A39EEC31633E0D30676
:105A500019F686E891E06EC0C9010E941830482FFF
:105A600065E4C6010E94890D44E150E061E070E008
:105A700087EC95E00E94E10811CF0E94E2120ECF60
:105A8000C6010E94DD0D0ACF87EC95E00E94DC087C
:105A90001FA61EA6BE01625D7F4F80E590E00E94BA
:105AA000B31094EFA92EBB24B3948EA59FA5892B88
:105AB00021F424EF31E03FA72EA78EA59FA59C01DE
:105AC000215031093FA72EA78D5E9A4F3DE0389FA8
:105AD0004001399F900C112466E571E0C7010E94D6
