:100000000C9476010C949E010C949E010C949E011C
:100010000C949E010C949E010C949E010C949E01E4
:100020000C949E010C949E010C9408230C9477234D
:100030000C949E010C949E010C949E010C949E01C4
:100040000C949E010C949E010C949E010C949E01B4
:100050000C949E010C949E010C949E010C94BE2263
:100060000C949E010C94CF250C94A9250C949E0110
:100070000C949E010C949E010C949E010C949E0184
:100080000C949E010C949E010C949E010C949E0174
:100090000C949F210C949E010C949E010C949E0143
:1000A0000C949E010C949E010C949E0141542B4390
:1000B00053510D0A001F1C1F1E1F1E1F1F1E1F1E37
:1000C0001F080B00020202000009040000010202E6
:1000D000000005240010010524010101042402068A
:1000E00005240600010705810310004009040100F2
:1000F000020A000000070502024000000705830213
:100100004000000403090412010002EF0201404F05
:100110001B0692000101020301537061726B467568
:100120006E00537061726B46756E2050726F204D79
:100130006963726F0041542B435245473D310D0AAC
:100140000041542B43545A523D310D0A0041542B67
:1001500043545A553D310D0A0041545A300D004167
:10016000542B4950523D31393230300D0A00415440
:100170002B4346554E3D310D0A0041542B43465505
:100180004E3D300D0A0045004500450000000000CE
:10019000240027002A002D00300000000000250068
:1001A00028002B002E003100000000002300260054
:1001B00029002C002F000404040404030405020297
:1001C00002020403020202020606060606060404F0
:1001D0000202020404040802011040804010204082
:1001E000804080080204018040201002011080102D
:1001F000204040200000000200090F00000304011D
:10020000000C0000000000000000000000000000E2
:10021000000041542B434C49503D310D0A004154DC
:100220002B4347534E0D0A004154480D0A003B0D25
:100230000A004154440041542B434855500D0A00D4
:1002400041542657300D0041542B434C49503D3109
:100250000D0A0041542B4347455245503D300D0A8D
:1002600000415445300D0A0061742B71757263634F
:1002700066673D22757263706F7274222C227561FD
:10028000727431220D0A0041542B434E4D493D31C9
:100290002C322C302C302C300D0A0041542B434C86
:1002A00049503D310D0A0041542B434D47463D31E5
:1002B0000D0A0041542B435245473D310D0A003B86
:1002C0002657300D0A0041542B434E4D503D00221D
:1002D0000D0041542B434D47533D220041542B43C5
:1002E000434C4B3F0D0A00000126F62F11241FBE80
:1002F000CFEFDAE0DEBFCDBF26E0AEEFB2E001C067
:100300001D92A938B207E1F712E0A0E0B1E0E2E304
:10031000FCE602C005900D92AE3FB107D9F711E09F
:10032000C5E7D1E004C02197FE010E941731C43710
:10033000D107C9F70E94D8260C940C360C94000003
:1003400080910C0490910D04891B990B0895FC0178
:100350008091F603882311F13FB7F89482E08093EF
:10036000E9002091F200822F90E01816190614F48B
:1003700081E090E0882339F0289844E64093F50323
:100380004091F1004083222339F02091F2002111A5
:1003900003C02BE62093E8003FBF08958FEF9FEF47
:1003A00008952FB7F89483E08093E9009091E800D6
:1003B000892F807295FF04C09091F20080E4891B20
:1003C0002FBF08952091D003260F3327331F2132EA
:1003D0003105ECF420915404FC0190E080E02430DD
:1003E00069F082E00895A091D0032191AC014255BB
:1003F0005C4FA40FB52FB11D2C930196861798F36F
:100400008091D003680F6093D00380E0089581E06D
:100410000895089508950895E0910D0480910C04C5
:10042000E81730F4F0E0E25FFB4F808190E0089540
:100430008FEF9FEF089590910D0480910C042FEFA2
:100440003FEF981748F4E92FF0E0E25FFB4F20817F
:1004500030E09F5F90930D04C9010895CF92DF9221
:10046000EF92FF920F931F93CF93DF937C01CB0109
:100470008A0120915A04222389F0EB016B01C40EFA
:10048000D51ECC15DD0569F06991D701ED91FC9180
:100490000190F081E02DC7010995F3CF642F0E94F0
:1004A000E201C801DF91CF911F910F91FF90EF9072
:1004B000DF90CF900895CF93DF931F92CDB7DEB733
:1004C000698320915A042223F9F020917D0420327F
:1004D00058F021E030E0FC013383228390E080E09B
:1004E0000F90DF91CF91089580915B04E82FF0E0A9
:1004F000E45AFB4F998190838F5F80935B048093D4
:100500007D0481E090E0ECCF61E0CE0101960E9495
:10051000E201F7CF682F8EE794E00C945B028091A4
:10052000A50381110DC082E08093A10384E0809334
:10053000A2031092A4031092A30381E08093A50369
:1005400081EA93E0089581508F3008F047C0E82F8A
:10055000F0E0E355FD4F0C941731CA02CE02BC0205
:10056000C202C602EE02EE02EE02D102D702DB02A6
:10057000DF02E502EE02E902809180008F7780932E
:1005800080000895809180008F7DF9CF8091800058
:10059000877FF5CF84B58F7784BD089584B58F7D2F
:1005A000FBCF809190008F77809390000895809189
:1005B00090008F7DF9CF80919000877FF5CF80915B
:1005C000C0008F778093C00008958091C0008F7D18
:1005D000F9CF8091C200877F8093C2000895CF93A6
:1005E000DF93282F30E0F901EC50FE4F8491F901A0
:1005F000EB52FE4FD491F901EA54FE4FC491CC2343
:10060000A1F081110E94A302EC2FF0E0EE0FFF1F7A
:10061000E855FE4FA591B491EC91ED2381E090E077
:1006200009F480E0DF91CF91089580E090E0FACF67
:100630001F93CF93DF93282F30E0F901EC50FE4F4A
:100640008491F901EB52FE4FD491F901EA54FE4F27
:10065000C491CC23A9F0162F81110E94A302EC2F84
:10066000F0E0EE0FFF1FE656FE4FA591B4918FB755
:10067000F894EC91111108C0D095DE23DC938FBF64
:10068000DF91CF911F910895DE2BF8CF1092540483
:1006900081E08093530410922E0461E082E00E9476
:1006A000180361E083E00E941803E9EBF0E0808129
:1006B0008E7F808380818D7F808388E48093B800E3
:1006C00085E48093BC000895CF93DF9391E09093ED
:1006D000AD038823B9F0C091B800D091BA008091E1
:1006E000BC008A7B8093BC0060E082E00E9418031B
:1006F00060E083E00E9418030E944603D093BA0092
:10070000C093B800DF91CF910895CF93DF9390E02D
:10071000FC01EB52FE4F24918A549E4FFC018491C0
:100720008823C9F090E0880F991FFC01E457FE4F21
:10073000A591B491FC01E656FE4FC591D49161118B
:100740000DC09FB7F8948C91209582238C9388815B
:10075000282328839FBFDF91CF910895623051F401
:100760009FB7F8943C91822F809583238C93E881E6
:100770002E2BEFCF8FB7F894EC912E2B2C938FBFAD
:10078000EACF3FB7F89480919D0390919E03A0918A
:100790009F03B091A00326B5A89B05C02F3F19F079
:1007A0000196A11DB11D3FBFBA2FA92F982F8827F1
:1007B000BC01CD01620F711D811D911D42E0660FCC
:1007C000771F881F991F4A95D1F708958F929F929E
:1007D000AF92BF92CF92DF92EF92FF920F931F934F
:1007E000CF93DF93D0917D04D13208F0D7C0182F7A
:1007F000C0917C040E94C1036B017C018091540470
:1008000081116BC082E080935404109353048FEFE6
:100810008093520410925104D0935004ACE5B4E09C
:10082000E0E3F4E080E0D81391C010922F048091AF
:100830002F04CC0FC82BC0932F0480912E0481303D
:1008400009F088C010922E040E94C1036B017C0144
:1008500080912F048093BB0080915604909157049F
:10086000A0915804B0915904892B8A2B8B2BA1F0AD
:100870000E94C1030091560410915704209158041E
:10088000309159046C197D098E099F0906171707C5
:100890002807390708F442C08091BC0083FDD8CFF7
:1008A00085EC8093BC000E94C1036B017C018091A8
:1008B0005404823009F450C0809152048F3F09F4EF
:1008C0006FC080915204803209F46CC08091520450
:1008D000803309F469C084E026C080915604909169
:1008E0005704A0915804B0915904892B8A2B8B2B63
:1008F00009F484CF0E94C10380905604909057045D
:10090000A0905804B09059046C197D098E099F0974
:1009100086169706A806B90608F070CF8091550490
:100920000E94640385E010925B0410927D04109293
:100930005A04DF91CF911F910F91FF90EF90DF90BC
:10094000CF90BF90AF909F908F9008959D9191937D
:100950008F5F69CF85EEA5CF8091560490915704A3
:10096000A0915804B0915904892B8A2B8B2B09F440
:100970009ECF0E94C103009156041091570420910C
:100980005804309159046C197D098E099F09061786
:1009900017072807390708F08ACFC0CF81E0C3CFF7
:1009A00080E0C1CF82E0BFCF83E0BDCF8F929F9226
:1009B000AF92BF92CF92DF92EF92FF926B017C01D8
:1009C0000E94C1034B015C01C114D104E104F10494
:1009D000B9F00E94C103681979098A099B09683E28
:1009E00073408105910580F321E0C21AD108E10826
:1009F000F10888EE880E83E0981EA11CB11CE4CF9C
:100A0000FF90EF90DF90CF90BF90AF909F908F902E
:100A100008951F93CF93DF93EC01162F81E080930D
:100A20005A0480E580937C0410925B0410927D044C
:100A30008D2F90E00E948A02CE0199270E948A029F
:100A4000612F8EE794E00E945B0281E00E94E60342
:100A500064E170E080E090E0DF91CF911F910C9411
:100A6000D6042FB7F8946091990370919A038091FE
:100A70009B0390919C032FBF08950F931F93CF93D7
:100A8000DF93EC01092E000CAA0BBB0B8093C6056B
:100A90009093C705A093C805B093C9050E9431057E
:100AA000AB01BC018091CD059091CE05A091CF0501
:100AB000B091D0058A019B01081B190B2A0B3B0B37
:100AC0008091C6059091C705A091C805B091C90550
:100AD000081719072A073B0758F18091C4058111AF
:100AE00024C081E08093C405C43F81E0D8075CF056
:100AF000CE01845F9140092E000CAA0BBB0B481B52
:100B0000590B6A0B7B0B4093CD055093CE05609338
:100B1000CF057093D0056091C4058091C205DF9127
:100B2000CF911F910F910C9418031092C405EBCF35
:100B3000DF91CF911F910F910895089540910C037B
:100B400050910D0320910A0330910B034217530774
:100B5000B4F49091E8009570E1F39091E80092FD73
:100B600019C08093F10080910C0390910D030196C0
:100B70008F739927892B19F48EEF8093E800809169
:100B80000C0390910D03019690930D0380930C0339
:100B900081E0089580E00895EF92FF920F931F93F4
:100BA000CF93DF93F82E192FE62E042F81E0860FC6
:100BB000880F0E949E0583E00E949E05CF2DD12FB5
:100BC000EC0EFD2EF11CCE15DF05B9F007FF13C0AA
:100BD000FE0184910E949E05182F80E00E949E05D0
:100BE000812321968111EFCFDF91CF911F910F913A
:100BF000FF90EF9008958881EDCF81E0F5CFDF92EF
:100C0000EF92FF920F931F93CF93DF93D82E8A0119
:100C1000EB017B01E40EF51ECE15DF0559F0D7FE82
:100C200012C0FE0184910E949E0521968111F4CF8D
:100C30000FEF1FEFC801DF91CF911F910F91FF9030
:100C4000EF90DF9008958881EECF0F931F93CF939D
:100C5000DF931F92CDB7DEB782E0898342E450E094
:100C600061EC70E080E80E94FF050E948F02DC01C9
:100C700012960D911C910115110589F0D801ED9185
:100C8000FC910280F381E02DBE016F5F7F4FC801B0
:100C9000099597FD04C0F80100851185ECCF898185
:100CA0000F90DF91CF911F910F910895615030F017
:100CB0002091F100FC0120830196F8CF289884E66A
:100CC0008093F50308950F931F93CF93DF93EC0167
:100CD0000E943105688779878A879B87E881F98137
:100CE0000284F385E02DCE01099597FF15C00E947F
:100CF0003105088519852A853B85601B710B820BA0
:100D0000930B0C811D812E813F8160177107820733
:100D1000930720F38FEF9FEFDF91CF911F910F91FA
:100D20000895DB0114964D915C9115976D917C911E
:100D3000DC01ED91FC910280F381E02D0994EF92AA
:100D4000FF920F931F93CF93DF938C017B01D0E031
:100D5000C0E0F701EC0FFD1F6491662361F0D8013C
:100D6000ED91FC910190F081E02DC8010995892B4E
:100D700011F02196EECFCE01DF91CF911F910F910F
:100D8000FF90EF90089566E372E08AE894E00C9497
:100D90009F06AF92BF92CF92DF92EF92FF920F9396
:100DA0001F93CF93DF936C017B018B01040F151F01
:100DB000EB015E01AE18BF08C017D10759F0699169
:100DC000D601ED91FC910190F081E02DC6010995CD
:100DD000892B79F7C501DF91CF911F910F91FF907A
:100DE000EF90DF90CF90BF90AF90089590E080E0BB
:100DF0000895FC01538D448D252F30E0842F90E021
:100E0000821B930B541710F0CF9608950197089505
:100E1000FC01918D828D981761F0A28DAE0FBF2FCE
:100E2000B11D5D968C91928D9F5F9F73928F90E024
:100E300008958FEF9FEF0895FC01918D828D981793
:100E400031F0828DE80FF11D858D90E008958FEFD0
:100E50009FEF0895FC01918D228D892F90E0805C99
:100E60009F4F821B91098F73992708958AE894E018
:100E70000E942A0721E0892B09F420E0822F08959F
:100E800080E090E0892B29F00E94360781110C94B4
:100E900000000895FC01A48DA80FB92FB11DA35A1D
:100EA000BF4F2C91848D90E001968F739927848F8A
:100EB000A689B7892C93A089B1898C9182748C936F
:100EC000938D848D981306C00288F389E02D80816C
:100ED0008F7D80830895EF92FF920F931F93CF939E
:100EE000DF93EC0181E0888F9B8D8C8D981319C066
:100EF000E889F989808185FF14C09FB7F894EE894D
:100F0000FF896083E889F9898081827480839FBF2B
:100F100081E090E0DF91CF911F910F91FF90EF90D2
:100F20000895F62E0B8D10E00F5F1F4F0F731127E2
:100F3000E02E8C8D8E110CC00FB607FCFACFE8891D
:100F4000F989808185FFF5CFCE010E944A07F1CF54
:100F5000EB8DEC0FFD2FF11DE35AFF4FF0829FB791
:100F6000F8940B8FEA89FB8980818062CFCFCF9381
:100F7000DF93EC01888D8823B9F0AA89BB89E889C1
:100F8000F9898C9185FD03C0808186FD0DC00FB667
:100F900007FCF7CF8C9185FFF2CF808185FFEDCFE5
:100FA000CE010E944A07E9CFDF91CF9108958F9239
:100FB0009F92AF92BF92CF92DF92EF92FF920F93E8
:100FC0001F93CF93DF936C017B018A0180910B010A
:100FD000882309F45CC08091F603882309F457C084
:100FE0008091100380FF05C08091E00082608093B3
:100FF000E000E801B12C8AEFA82E93E0892E2AE3C5
:10100000922E209711F4BB20D9F10E94D1018111B9
:101010000AC0AA94AA20D9F161E070E080E090E0D3
:101020000E94D604EECF8C171D0611F00CF08C2F09
:101030009FB7F8948092E9002091E80025FD02C056
:101040009FBFDFCF282F30E0C21BD30BF7018150A9
:1010500020F041914093F100FACFE20EF31EBB2045
:1010600021F09092E800B12CEBCF8091E80085FD53
:10107000E7CF9092E800BB24B394209709F3F3CF15
:101080005D9884E680930F03101611063CF081E012
:1010900090E0F6019383828310E000E0C801DF91C5
:1010A000CF911F910F91FF90EF90DF90CF90BF9065
:1010B000AF909F908F900895CF93DF931F92CDB7FD
:1010C000DEB76983DC01ED91FC910280F381E02DB4
:1010D00041E050E0BE016F5F7F4F09950F90DF91B7
:1010E000CF91089583E08093E9008091F2008823F6
:1010F00019F08AE38093E80008950E94D10190E0FE
:101100000895CF93DF931F92CDB7DEB7FC0184859E
:10111000958597FD08C02FEF3FEF358724870F9007
:10112000DF91CF910895CE0101960E94A70101970A
:1011300019F4898190E0F3CF8FEF9FEFF0CF0F93F9
:101140001F93CF93DF931F92CDB7DEB78C01FC01C5
:101150008485958597FF0BC0CE0101960E94A7015B
:10116000019771F4898190E0F80195878487F801EF
:10117000848595850F90DF91CF911F910F910895F0
:101180008FEF9FEFF1CFFC018485958597FD0BC014
:101190009FB7F89482E08093E9008091F2009FBFAE
:1011A00090E0019608959FB7F89482E08093E9005B
:1011B0008091F2009FBF90E0089560E0FC01808183
:1011C0000C94180361E0FC0180810C941803FC016D
:1011D00080810E94EF0221E0892B09F420E0822F18
:1011E0000895EF92FF920F931F93CF93DF93EC013B
:1011F000CB01072E000CAA0BBB0B8C839D83AE8307
:10120000BF83598748878B81882339F18B01F12C63
:10121000E12C61E088810E9418036885798590E05F
:1012200080E00E94D60460E088810E9418036885EF
:10123000798590E080E00E94D6048FEFE81AF80AE2
:101240000E151F0531F760E08881DF91CF911F9166
:101250000F91FF90EF900C941803DF91CF911F91A5
:101260000F91FF90EF90089548EC50E064E070E03B
:1012700082EC95E00C94F1088F929F92AF92BF920E
:10128000CF92DF92EF92FF92CF93DF93EC016A014E
:101290007B0180E8C81A83E4D80A8DE6E80A88E36F
:1012A000F80A8CE3882E912CA12CB12CC701B60131
:1012B000A50194010E94F5306D83CA01B901A50111
:1012C00094010E94F5306C83C701B60120E13EE035
:1012D00040E050E00E94F530CA01B90128E130E059
:1012E00040E050E00E94F5306B83C701B60120E872
:1012F00031E541E050E00E94F530188263E97EEF6D
:101300004881542F537081E009F080E090E0FC01A7
:10131000E359FE4F2E173F0740F0FB01E81BF90B86
:101320002E0F3F1F4F5F4883EBCF81E08983898178
:10133000682F6150770BFB01EB54FF4FE491511183
:1013400003C0823009F4EF5FF0E02E173F0720F072
:101350002E1B3F0B8F5FEACF2F5F2A83DF91CF9148
:10136000FF90EF90DF90CF90BF90AF909F908F90C5
:101370000895CF93DF93EC010E94310528EE33E00E
:1013800040E050E00E94F530809106039091070301
:10139000A0910803B0910903BA01A901480F591F90
:1013A0006A1F7B1FCE010E943C09CE01DF91CF91C5
:1013B0000895DC0150E0E5EBF0E081E0861730F4C1
:1013C0009491490F511D8F5F3196F8CF633038F0FB
:1013D000CD0183709927892B11F44F5F5F4F9D01D9
:1013E0002D5F3F4F36952795369527956DE671E031
:1013F000A69FC001A79F900DB69F900D1124019745
:10140000820F931F840F951F0895EF92FF920F9301
:101410001F93CF93DF93EC0188814A81698190E02B
:101420000E94D9099C01A8E1B0E00E94D2302B8132
:101430007B018C01E20EF11C011D111DA801970119
:10144000ACE3B0E00E9490302C817B018C01E20E75
:10145000F11C011D111DA80197010E9490302D81E2
:10146000620F711D811D911D60587C4B8249974C04
:10147000DF91CF911F910F91FF90EF900895CF9240
:10148000DF92EF92FF920E94050A6B017C010E949D
:10149000310528EE33E040E050E00E94F530C21AFA
:1014A000D30AE40AF50AC0920603D0920703E09239
:1014B0000803F0920903FF90EF90DF90CF9008951A
:1014C000FC0180814281618190E00E94D9090696E9
:1014D00067E070E00E94E1300895CF92DF92EF92D2
:1014E000FF920F931F93CF93DF93EC0181E08093E2
:1014F0005A0480E580937C0410925B0410927D0472
:101500008D2F90E00E948A02CE0199270E948A02C4
:1015100081E00E94E6030E94C1036B017C0180917F
:101520005404811163C081E0809354048093530478
:101530009FEF9093520410925104109250048093A4
:101540002F0480912F04806A80932F0480912E04B1
:10155000813009F084C010922E040E94C1036B01F7
:101560007C0180912F048093BB0080915604909160
:101570005704A0915804B0915904892B8A2B8B2BC6
:10158000A1F00E94C10300915604109157042091CC
:101590005804309159046C197D098E099F0906176A
:1015A00017072807390708F442C08091BC0083FD63
:1015B000D8CF85EC8093BC000E94C1036B017C01F5
:1015C00080915404813009F44CC080915104811100
:1015D0006AC080915104E0E3F4E0AEE0B4E090E052
:1015E000981751F121912D939F5FFACF8091560466
:1015F00090915704A0915804B0915904892B8A2BDB
:101600008B2B09F48CCF0E94C103009156041091DA
:10161000570420915804309159046C197D098E09A2
:101620009F09061717072807390708F078CF809118
:1016300055040E94640380E010920D0480930C0412
:10164000882399F18EE794E00E941B02DF91CF91ED
:101650001F910F91FF90EF90DF90CF90089585EE4E
:10166000A9CF8091560490915704A0915804B0914D
:101670005904892B8A2B8B2B09F4A2CF0E94C1031A
:101680000091560410915704209158043091590448
:101690006C197D098E099F09061717072807390756
:1016A00008F08ECFC4CF81E096CF8FEFCFCFEF92EF
:1016B000FF920F931F93CF93DF93E090D105F090AB
:1016C000D205813429F1C6E0D0E0853411F0C1E0C3
:1016D000D0E087E08C9F80018D9F100D1124EC16C7
:1016E000FD06D4F0C8010797801791076CF40E949B
:1016F0006D0A811109C0C80106978017910724F46B
:101700000E946D0A882351F02196095F1F4FE7CF91
:1017100085E0E82EF12CDBCFD0E0C0E0CE01DF91F8
:10172000CF911F910F91FF90EF900895DF92EF926C
:10173000FF920F931F93CF93DF938C017B01D0E037
:10174000C0E087E0D82E2091D1053091D205D29EFD
:10175000C001D39E900D11248C179D078CF0CE01F3
:101760000E946D0A882351F0F801CD31D1050CF0AB
:10177000F701808191810196918380832796E3CF41
:10178000DF91CF911F910F91FF90EF90DF9008951F
:10179000CF92DF92EF92FF920F931F93CF93DF933D
:1017A0007B01009741F18C0182E0C82ED12C82E0B0
:1017B00090E00E943531EC011882A601B8010E9428
:1017C00017331A82CE010E94FE2F682FC7010E9494
:1017D0000905209719F0CE010E94D1310E5F1F4FED
:1017E00082E0C80ED11C8FEFE81AF80A8EE0C81606
:1017F000D104E9F60CC0D0E0C0E060E0C7018C0F76
:101800009D1F0E9409052196C630D105B1F7DF91D1
:10181000CF911F910F91FF90EF90DF90CF9008959F
:10182000CF93DF93EC0188819981009711F00E949A
:10183000D131198218821D821C821B821A82DF918B
:10184000CF910895FC0180819181009711F00C9453
:10185000D1310895FB0101900020E9F73197AF01E4
:10186000461B570BDC01ED91FC910280F381E02DCA
:101870000994CF93DF93BC0187E295E00E949F0615
:10188000EC0164E571E087E295E00E942A0C8C0F80
:101890009D1FDF91CF9108958F929F92AF92BF923B
:1018A000EF92FF920F931F93CF93DF93CDB7DEB7E5
:1018B000A1970FB6F894DEBF0FBECDBF7C01FA0131
:1018C000CB0119A2223008F42AE08E010F5D1F4FD0
:1018D000822E912CB12CA12CBF01A50194010E9454
:1018E000F530F901CA016A300CF5605DD8016E93DC
:1018F0008D01232B242B252B79F790E080E0109786
:1019000021F0BD01C7010E942A0CA1960FB6F894E0
:10191000DEBF0FBECDBFDF91CF911F910F91FF9022
:10192000EF90BF90AF909F908F900895695CDECF4D
:10193000CF92DF92EF92FF920F931F93CF93DF939B
:101940006B01770FEE08FF08F7FE1FC0EC01E8817E
:10195000F9810190F081E02D6DE209958C01442719
:101960005527BA014C195D096E097F092AE0CE019D
:101970000E944C0C800F911FDF91CF911F910F910E
:10198000FF90EF90DF90CF9008952AE0B701A60175
:10199000DF91CF911F910F91FF90EF90DF90CF904B
:1019A0000C944C0CCF93DF93BC0187E295E00E942E
:1019B000980CEC0164E571E087E295E00E942A0C46
:1019C0008C0F9D1FDF91CF9108950F931F93CF939D
:1019D000DF93EC010E9491068C0164E571E0CE0179
:1019E0000E942A0C800F911FDF91CF911F910F91C0
:1019F00008953F924F925F926F927F928F929F9243
:101A0000AF92BF92CF92DF92EF92FF920F931F930C
:101A1000CF93DF93EC013B01FC0101900020E9F73B
:101A20003197E81BF90BD12CC12C329768F042E0BA
:101A300050E067E571E00E944E3331E020E0892BF1
:101A400009F030E0C32ED22EB12CA12CEE24E39469
:101A5000F12C2E014C0C5D1C8091D1059091D2058A
:101A600005968E159F050CF461C010E000E0302E45
:101A700082E090E00E943531EC01F801EE0FFF1F8B
:101A8000E40DF51D80819181998388831A82CE01AE
:101A90000E94FE2F4C010115110539F481E0C81692
:101AA000D10419F4E0E58E1A9108C8018A0D9B1D36
:101AB0000E946D0A8815190479F5209719F0CE0156
:101AC0000E94D13133940F5F1F4F0730110579F613
:101AD000F7E0AF0EB11C85E0831520F527E02E9DC1
:101AE000C0012F9D900D112401970E946D0AF301F2
:101AF0008083C701DF91CF911F910F91FF90EF90ED
:101B0000DF90CF90BF90AF909F908F907F906F901D
:101B10005F904F903F9008952097D1F2CE010E94A0
:101B2000D131D6CFFFEFEF1AFF0A96CFF12CE12C7F
:101B3000E0CFCF92DF92EF92FF920F931F93CF935C
:101B4000DF931F92CDB7DEB74983FC0101900020DF
:101B5000E9F73197E81BF90BDC01EB30F10568F48C
:101B6000F12CE12CC7010F90DF91CF911F910F91C4
:101B7000FF90EF90DF90CF9008952D91022E000CF2
:101B8000330B205331092A30310550F79D01281BB2
:101B9000390B2E173F0788F3F62E8C01BE016F5FBD
:101BA0007F4F0E94F90C892BD9F68F2D0E94570B7D
:101BB0007C0118161906A4F6019727E0289F6001FA
:101BC000299FD00C1124B601C8010E94C80B69815D
:101BD000C60106960E940905C5CFCF92DF92EF920B
:101BE000FF920F931F93CF93DF931F92CDB7DEB772
:101BF0001982BE016F5F7F4F0E94F90C7C01019733
:101C000027E0289F6001299FD00C112410E000E0FC
:101C100060E0C8018C0D9D1D0E9409050F5F1F4FDC
:101C200007301105A9F7C7010F90DF91CF911F91E0
:101C30000F91FF90EF90DF90CF90089560E171E0F9
:101C400080910304909104040E94F90C009731F4F0
:101C500080914C03813051F482E008959C01215021
:101C600031092530310520F00697B4F780E008955A
:101C700081E0089546E050E06DE473E08091010456
:101C8000909102040E944E3321E0892B09F020E05C
:101C9000822F089585ED8093BC0080915604909129
:101CA0005704A0915804B09159040796A11DB11D85
:101CB00023E0B695A795979587952A95D1F720911A
:101CC000BC0024FD03C010925404089540915604B2
:101CD000509157046091580470915904452B462B3C
:101CE000472B69F30097A105B10541F025E32A953B
:101CF000F1F700000197A109B109E1CF80915504E6
:101D00000C9464030F931F93CF93DF938C01EB012B
:101D10000E947A308883C80101960E947A308983B4
:101D2000CE01DF91CF911F910F910895CF93DF9353
:101D3000EB010E947A308883CE01DF91CF91089524
:101D4000CF93DF93EB010E947A308883CE01DF913D
:101D5000CF9108950F931F93CF93DF930DE413E07A
:101D6000D0E0C0E0CE010E947A30F80181938F016B
:101D70002196C730D105B1F78AE090E00E947A3011
:101D8000809308048BE090E00E947A3080930904ED
:101D90008CE090E00E947A3080930A048DE090E01D
:101DA0000E947A3080930B046CE473E086E490E048
:101DB0000E94A00E6AE473E088E290E00E94960E12
:101DC00069E473E082E390E00E94960E68E473E0B9
:101DD00084E390E00E94A00E63E473E086E390E069
:101DE0000E94820E6BE473E08CE390E00E94960EFA
:101DF00066E473E08EE390E00E94820E61E473E09B
:101E00008AE490E00E94820E6BE173E08CE490E043
:101E10000E94960E64E973E08EE490E00E94820EC8
:101E200064E073E08AE590E00E94820E62E073E075
:101E300084E690E00E94820E60E073E08EE690E01F
:101E40000E94820E6FEF72E088EC90E00E94960E86
:101E5000D0E0C0E0BE01665D7C4F8CED90E00E945A
:101E6000820EBE01645E7C4F8EED90E00E94820E79
:101E70002296CE30D10571F7DF91CF911F910F914E
:101E80000895FF920F931F93CF93DF93EC01F62EEB
:101E900008811981C8010E947A30F81621F06F2D4F
:101EA000C8010E948230CE01DF91CF911F910F9126
:101EB000FF900895EF92FF920F931F93CF93DF93BC
:101EC00000D0CDB7DEB788E0E82E84E0F82E0AE037
:101ED00010E01A830983F70161917F01CE01019619
:101EE0000E94410F0F5F1F4F0E30110591F788E0E0
:101EF00094E00F900F90DF91CF911F910F91FF9081
:101F0000EF900895CF93DF93EB010E94FE2FC95FFE
:101F1000DB4F8883DF91CF910C945A0FCF92DF92E1
:101F2000EF92FF920F931F93CF93DF9300D0CDB723
:101F3000DEB76C017C0110E000E01A830983F70131
:101F400061917F01CE0101960E94410F0F5F1F4FEB
:101F50000730110591F7C6010F900F90DF91CF91D7
:101F60001F910F91FF90EF90DF90CF900895EF9227
:101F7000FF920F931F93CF93DF9300D0CDB7DEB7BF
:101F80008C017B019A838983FB016081CE010196DC
:101F90000E94410F0F5F1F4F1A830983F701618170
:101FA000CE0101960E94410FC7010F900F90DF9163
:101FB000CF911F910F91FF90EF9008959F92AF9254
:101FC000BF92CF92DF92EF92FF920F931F93CF9326
:101FD000DF9300D0CDB7DEB76C01B62E7A011A823E
:101FE0001982BE016F5F7F4F80E590E00E94820EF4
:101FF00089819A818C5E9A4F2DE0289F8001299FCC
:10200000100D1124B801C6010E94C80BF701A08071
:102010009180C380D4806281C80107960E9409051F
:10202000692DC80108960E9409056A2DC801099604
:102030000E9409056C2DC8010A960E9409056D2DA4
:10204000C8010B960E9409056B2DC8010C960E94D1
:10205000090589819A810196843FF1E09F07B9F0D3
:102060009A838983BE016F5F7F4F80E590E00E9475
:10207000B70F0F900F90DF91CF911F910F91FF90AD
:10208000EF90DF90CF90BF90AF909F9008951A820D
:102090001982E8CFFF920F931F93CF93DF93CDB7B1
:1020A000DEB72C970FB6F894DEBF0FBECDBF8C0104
:1020B000F62ECE0107960E94B9098F818983888503
:1020C0008A8389858B838A858C838B858D838C8598
:1020D0008E83AE014F5F5F4F6F2DC8010E94DE0FF0
:1020E000BE016F5F7F4F80E590E00E94820E898184
:1020F0009A810E94D20C2C960FB6F894DEBF0FBEC8
:10210000CDBFDF91CF911F910F91FF9008950F9355
:102110001F93CF93DF9300D0CDB7DEB78B019A83A7
:102120008983FB016081CE0101960E94410FC801A5
:102130000F900F90DF91CF911F910F9108950F9302
:102140001F93CF93DF9300D0CDB7DEB78B019A8377
:102150008983FB016081CE0101960E94410FC80175
:102160000F900F90DF91CF911F910F9108950F93D2
:102170001F93CF93DF93CDB7DEB72A970FB6F894AE
:10218000DEBF0FBECDBF82EC95E00E94E20810E0FA
:1021900000E08091D1059091D20523E0880F991F2E
:1021A0002A95E1F7081719073CF460E0C8010E947E
:1021B00009050F5F1F4FEDCF04E012E460E0C80196
:1021C0000E9409050F5F1F4F0C3C8BE51807B1F704
:1021D00010E000E01A83098360E0CE0101960E94BE
:1021E000410F0F5F1F4F011582E0180799F787E035
:1021F000EAE5F1E0DE01119601900D928A95E1F792
:10220000CE0101960E948E0F82E080930804809395
:10221000090480930A0480930B040E945A0F1986C4
:102220001886BE01685F7F4F86E490E00E94B70F7A
:1022300011E01887BE01685F7F4F88E290E00E943E
:1022400087101A87BE01665F7F4F8CE390E00E9483
:10225000871010921B036BE173E08CE490E00E9406
:10226000871088E190E0909395038093940364E94C
:1022700073E08EE490E00E94B70F02E310E0109349
:1022800005030093040364E073E08AE590E00E9494
:10229000B70F109303030093020362E073E084E638
:1022A00090E00E94B70F109301030093000360E0D9
:1022B00073E08EE690E00E94B70F0E94340961E05F
:1022C0008EE290E00E9482308EE090E09093420394
:1022D0008093410361E473E08AE490E00E94B70FC9
:1022E00088E19EE00FB6F894A895809360000FBE39
:1022F0009093600060ED77E080E090E00E94D6046B
:102300002A960FB6F894DEBF0FBECDBFDF91CF91F6
:102310001F910F9108950F931F93CF93DF938C011B
:10232000EB01FC01808191810097E1F06881798166
:1023300061157105A9F0428153812C813D814217BD
:10234000530770F00E9447338C819D81F80195837B
:1023500084831D821C82DF91CF911F910F9108957C
:102360000E94D13188819981F801918380838A818B
:102370009B81938382838C819D8195838483198241
:1023800018821B821A82E5CF0F931F93CF93DF939E
:10239000EC0188819981009759F02A813B812617A9
:1023A000370730F081E0DF91CF911F910F910895B1
:1023B0008B016F5F7F4F0E945A32009759F09983CB
:1023C00088831B830A832C813D81232B59F7FC01D1
:1023D0001082E8CF80E0E7CFEF92FF920F931F9338
:1023E000CF93DF936115710541F480E0DF91CF91C8
:1023F0001F910F91FF90EF90089541155105B1F095
:102400007B01EC010C811D81040F151FB8010E9496
:10241000C411882351F3288139818C819D81B701B2
:10242000820F931F0E9447331D830C8381E0DECF10
:10243000CF93DF9300D0CDB7DEB769831A8241E036
:1024400050E0BE016F5F7F4F0E94EC110F900F9024
:10245000DF91CF910895FB0101900020E9F73197BA
:10246000AF01461B570B0C94EC11FB0144815581C5
:10247000608171810C94EC11EF92FF920F931F9386
:10248000CF93DF93EC017B018A01BA010E94C41152
:1024900081110BC0CE010E94100CCE01DF91CF91B3
:1024A0001F910F91FF90EF9008951D830C83B7014A
:1024B000888199810E944733F0CFFB010190002071
:1024C000E9F73197AF01461B570B0C943C120F9361
:1024D0001F93CF93DF93CDB7DEB729970FB6F8944C
:1024E000DEBF0FBECDBF8C01862FF8011182108296
:1024F00013821282158214824AE0BE016F5F7F4F01
:1025000090E00E945030BE016F5F7F4FC8010E9473
:102510005D1229960FB6F894DEBF0FBECDBFDF91D6
:10252000CF911F910F910895CF93DF93EC01FB01A1
:102530008617970749F0608171816115710541F037
:10254000448155810E943C12CE01DF91CF910895C4
:102550000E94100CF9CFFC011182108213821282AA
:10256000158214820C949412FC0111821082138241
:102570001282158214826115710551F0FB010190E0
:102580000020E9F73197AF01461B570B0C943C1222
:1025900008950F931F93CF93DF93EC018B0166E5B2
:1025A00071E00E94B412C8010E94630697FD05C045
:1025B000682FCE010E941812F6CFCE01DF91CF9185
:1025C0001F910F910895CF93DF9300D000D000D0DA
:1025D000CDB7DEB76AE874E0CE0101960E94C91259
:1025E000CE0101960E94220C64E670E080E090E04B
:1025F0000E94D6046CED72E08AE894E00E949F0687
:1026000026960FB6F894DEBF0FBECDBFDF91CF91F7
:102610000895EF92FF920F931F93CF93DF9300D013
:1026200000D000D0CDB7DEB77C018B016AE874E042
:10263000CE0101960E94C912CE0101960E94220C81
:1026400064E670E080E090E00E94D60462ED72E003
:102650008AE894E00E949F06B7018AE894E00E940D
:1026600091066FEC72E08AE894E00E949F0668ECA5
:1026700070E080E090E00E94D604B8018AE894E01F
:102680000E94E50C68EE73E080E090E00E94D604C2
:102690006AE18AE894E00E946B0764EF71E080E0F1
:1026A00090E00E94D6046AE874E0CE0101960E9490
:1026B000C912CE0101960E94220C6AE874E0CE0194
:1026C00001960E94C912CE0101960E94220C269604
:1026D0000FB6F894DEBF0FBECDBFDF91CF911F9133
:1026E0000F91FF90EF9008950F931F93CF93DF9377
:1026F00000D000D000D0CDB7DEB78C0166EC72E020
:102700008AE894E00E949F06B8018AE894E00E945B
:10271000980C6FEB72E08AE894E00E949F0668EEE6
:1027200073E080E090E00E94D60467E275E0CE019D
:1027300001960E94C912CE0101960E94220C269693
:102740000FB6F894DEBF0FBECDBFDF91CF911F91C2
:102750000F910895CF93DF9300D000D000D0CDB774
:10276000DEB78091D6059091D7050E9474136AE870
:1027700074E0CE0101960E94C912CE0101960E941A
:10278000220C63EB72E08AE894E00E949F0664EFFB
:1027900071E080E090E00E94D6046AE874E0CE0127
:1027A00001960E94C912CE0101960E94220C67EA8E
:1027B00072E08AE894E00E949F0664EF71E080E096
:1027C00090E00E94D6046AE874E0CE0101960E946F
:1027D000C912CE0101960E94220C6BE972E08AE8D0
:1027E00094E00E949F0664EF71E080E090E00E9418
:1027F000D6046AE874E0CE0101960E94C912CE01A7
:1028000001960E94220C67E872E08AE894E00E9438
:102810009F0664EF71E080E090E00E94D6046AE8D1
:1028200074E0CE0101960E94C912CE0101960E9469
:10283000220C68E672E08AE894E00E949F0664EF4A
:1028400071E080E090E00E94D6046AE874E0CE0176
:1028500001960E94C912CE0101960E94220C61E6E7
:1028600072E08AE894E00E949F0664EF71E080E0E5
:1028700090E00E94D6046AE874E0CE0101960E94BE
:10288000C912CE0101960E94220C63E572E08AE82B
:1028900094E00E949F0664EF71E080E090E00E9467
:1028A000D6046AE874E0CE0101960E94C912CE01F6
:1028B00001960E94220C67E472E08AE894E00E948C
:1028C0009F0664E670E080E090E00E94D6046AE82B
:1028D00074E0CE0101960E94C912CE0101960E94B9
:1028E000220C60E472E08AE894E00E949F0626963B
:1028F0000FB6F894DEBF0FBECDBFDF91CF91089524
:102900000F931F93CF93DF9300D000D000D0CDB7AB
:10291000DEB78C016AE874E0CE0101960E94C9120C
:10292000CE0101960E94220C64E670E080E090E007
:102930000E94D60462E372E08AE894E00E949F0657
:10294000B8018AE894E00E9491066EE272E08AE89B
:1029500094E00E949F0668E873E180E090E00E94A6
:10296000D60468E272E08AE894E00E949F0668EE6E
:1029700073E080E090E00E94D6046AE874E0CE0143
:1029800001960E94C912CE0101960E94220C269641
:102990000FB6F894DEBF0FBECDBFDF91CF911F9170
:1029A0000F910895EF92FF920F931F93CF93DF93B0
:1029B00000D000D000D0CDB7DEB78C016AE874E05B
:1029C000CE0101960E94C912CE0101960E94220CEE
:1029D00064E670E080E090E00E94D6046EE172E070
:1029E0008AE894E00E949F0668EE73E080E090E041
:1029F0000E94D604FF24F39487E2E82E8AE894E04C
:102A00000E942A072091E0051816190664F5211185
:102A10002AC08AE894E00E9408079091070499234D
:102A2000E9F090910604292F30E02D523A4F2258B8
:102A30003F4FF9018A3051F080839F5F983218F040
:102A4000E0920604DBCF90930604D8CF1082109258
:102A5000070410920604F092E005D0CF883371F697
:102A6000F0920704CBCF6BEC71E0222321F010929F
:102A7000E00561E576E0C8010E94B412C80126961F
:102A80000FB6F894DEBF0FBECDBFDF91CF911F917F
:102A90000F91FF90EF9008954F925F926F927F9207
:102AA0008F929F92AF92BF92CF92DF92EF92FF925E
:102AB0000F931F93CF93DF9300D000D000D0CDB7FA
:102AC000DEB71092040410920304109202041092D4
:102AD0000104109200041092FF031092FE03109262
:102AE000FD031092FC031092FB031092FA03109264
:102AF000F9031092F8031092F703DC01ED91FC91B9
:102B00009081909305048091D305282F2D7F213546
:102B100049F4943531F19135C1F09334A1F083E05B
:102B2000582E15C08C3469F4943509F477C091356A
:102B300061F0993451F0933491F700E098E0592E08
:102B400013C0943551F700E00DC032E0532E892FA9
:102B50008D7F893421F09B7F913509F061C000E0C1
:102B600003C007E023E0522E6EED71E0CF010E941A
:102B70001C30412C10E03801B4E06B0E711C780160
:102B800025E0E20EF11C6801A6E0CA0ED11C580136
:102B9000B7E0AB0EB11C480128E0820E911C075F24
:102BA0001F4F009709F452C04394451004C09093FE
:102BB000040480930304242D30E02615370521F406
:102BC00090930204809301042E153F0521F4909305
:102BD00000048093FF032C153D0521F49093FE0320
:102BE0008093FD032A153B0521F49093FC03809309
:102BF000FB032815390521F49093FA038093F90318
:102C00002017310721F49093F8038093F70361E6CE
:102C100071E090E080E00E941C30C3CF08E0A2CFBA
:102C200062E172E08AE894E00E949F0664EF71E03E
:102C300080E090E00E94D6046AE874E0CE0101963C
:102C40000E94C912CE0101960E94220C26960FB650
:102C5000F894DEBF0FBECDBFDF91CF911F910F91D2
:102C6000FF90EF90DF90CF90BF90AF909F908F90AC
:102C70007F906F905F904F900895BF92CF92DF92B8
:102C8000EF92FF920F931F93CF93DF93CDB7DEB7F1
:102C9000C259D1090FB6F894DEBF0FBECDBF1A825C
:102CA0001982FE0133968EE7DF011D928A95E9F7BE
:102CB000CE0183579F4F0E94B909CF56DF4FB8808E
:102CC000C159D040C057DF4FC880C059D040C3570A
:102CD000DF4FD880CD58D040C257DF4FE880CE5864
:102CE000D040C157DF4FF880CF58D040CE01835736
:102CF0009F4F0E94600AE82FF0E0EE0FFF1FE45E96
:102D0000FC4F10810181CE0183579F4F0E94600AC2
:102D10001F92BF921F92CF921F92DF921F92EF924B
:102D20001F92FF920F931F93E82FF0E0EE0FFF1F0B
:102D3000E65DFC4F81818F9380818F938091440366
:102D40008F93809143038F93809148031F928F93B9
:102D5000809149031F928F93809195038F93809167
:102D600094038F9380911B031F928F93809147034D
:102D70008F93809146038F93809142038F9380912C
:102D800041038F93E8E0F4E083811F928F93828167
:102D90001F928F9381811F928F9380811F928F93B7
:102DA0008AE691E09F938F938E010F5F1F4F1F93D1
:102DB0000F930E946B330FB6F894DEBF0FBECDBFEA
:102DC000B801CE0189579F4F0E94B412609103044D
:102DD00070910404CE018F579F4F0E94B412BE0120
:102DE00069577F4FCE018F579F4F0E940913CE0125
:102DF0008F579F4F0E94220CCE0189579F4F0E94F0
:102E0000220CCE56DF4F0FB6F894DEBF0FBECDBFFB
:102E1000DF91CF911F910F91FF90EF90DF90CF90B6
:102E2000BF900895CF92DF92FF920F931F93CF939D
:102E3000DF93CDB7DEB762970FB6F894DEBF0FBE53
:102E4000CDBF8C01F62E6A0166E571E0CE010D96CC
:102E50000E94B41289E06F2D8F1540F5CE010196C6
:102E60000E946712BE016F5F7F4FCE010D960E94D8
:102E70008B11BE01635F7F4FC8010E94AB12CE0170
:102E800001960E94220CCE010D960E94220CC801D0
:102E900062960FB6F894DEBF0FBECDBFDF91CF9123
:102EA0001F910F91FF90DF90CF900895CE01019672
:102EB000E5E0CE16D104D9F40E946712BE016F5F1F
:102EC0007F4FCE010D960E948B11CE0101960E947C
:102ED000220CF80111821082138212821582148250
:102EE000BE01635F7F4FC8010E948B11CCCF0E944F
:102EF00067126BEF72E0CE0107960E94B4124D810B
:102F00005E8169817A81CE0107960E94EC11811160
:102F100004C0CE0107960E94100CBE01695F7F4F6E
:102F2000CE010D960E949412CE0107960E94220CAB
:102F3000CCCFBF92CF92DF92EF92FF920F931F936D
:102F4000CF93DF93CDB7DEB72C970FB6F894DEBFE3
:102F50000FBECDBF8C016B0166E571E0CE01079617
:102F60000E94B41287E08C9D70018D9DF00C11249D
:102F7000C70101970E946D0A80931001670187E0E5
:102F8000C81AD108B12CF12CE12CC7018C0D9D1D64
:102F90000E946D0A811101C0B39493E09B15D0F497
:102FA0006BEF72E0C8010E94B412CE0107960E9436
:102FB000220CC8012C960FB6F894DEBF0FBECDBF11
:102FC000DF91CF911F910F91FF90EF90DF90CF9005
:102FD000BF900895A701682FCE0101960E94121795
:102FE000BE016F5F7F4FCE0107960E943512CE0162
:102FF00001960E94220CEFEFEE1AFE0AF6E0EF16A1
:10300000F10419F6F80111821082138212821582DE
:103010001482BE01695F7F4FC8010E948B11C5CF2A
:10302000AF92BF92DF92EF92FF920F931F93CF93D5
:10303000DF93CDB7DEB7C054D1090FB6F894DEBF29
:103040000FBECDBF5C01198280913D038E010F5DE3
:103050001F4F882309F44AC06DEC71E0CE01019640
:103060000E9447336091030470910404CE010196DD
:103070000E943333CE01C5960E94B90988AD1F92D4
:103080008F938DA91F928F938EA91F928F938FA9D3
:103090001F928F9382ED91E09F938F931F930F93D5
:1030A0000E946B33B801CE0101960E94333319A2FE
:1030B00089AD0FB6F894DEBF0FBECDBF8A3008F0E1
:1030C0006FC01F928F9380EE91E09F938F931F9319
:1030D0000F930E946B330F900F900F900F900F90F3
:1030E0000F90B801CE0101960E943333EE24E39491
:1030F000F12CD12CB701C8010E9499178DA19EA176
:10310000892B41F06BEF72E089A19AA10E943E33B6
:10311000892B49F131E03D1530F468E873E180E036
:1031200090E00E94D60480913D038823F1F1BE0116
:103130006F5F7F4FCE01CB960E94B412B801CE01D3
:10314000C5960E94AB12BE01655C7F4FCE01C5964D
:103150000E940913CE01C5960E94220CCE01CB9687
:103160000E94220CD394C8010E94220C8FEFE81A0F
:10317000F80A26E0E216F10409F0BCCF81E0C05C59
:10318000DF4F0FB6F894DEBF0FBECDBFDF91CF91FA
:103190001F910F91FF90EF90DF90BF90AF90089537
:1031A0001F928F938EED92E090CFB501CE01CB961A
:1031B0000E94AB12C3CFEF92FF920F931F93CF9356
:1031C000DF93CDB7DEB72C970FB6F894DEBF0FBEF6
:1031D000CDBF8C017B016EE772E00E942033892B0A
:1031E00009F063C00E94C306809110018230B0F4E0
:1031F00080913E03811112C02091080488EE93E073
:10320000289FA001299F500D112441155105E9F176
:1032100061E070E083EB95E00E94F1080E94C30634
:1032200062E0C7010E944A108091460390914703D3
:103230000197E9F464EE71E0CE0107960E94B412A2
:103240006091030470910404CE0101960E94B412AF
:10325000BE01695F7F4FCE0101960E940913CE0126
:1032600001960E94220CCE0107960E94220C81E05A
:103270002C960FB6F894DEBF0FBECDBFDF91CF9175
:103280001F910F91FF90EF90089583EB95E00E94BE
:10329000E708811105C083EB95E00E94E208BECFEC
:1032A00083EB95E00E94DD08B9CF67EE71E0C801BD
:1032B0000E942033892B71F5809110018D7FB1F42C
:1032C00080914803811112C02091090488EE93E097
:1032D000289FA001299F500D11244115510551F03F
:1032E00061E070E084EA95E00E94F1080E94C30664
:1032F00063E097CF84EA95E00E94E708811105C05A
:1033000084EA95E00E94E208F1CF84EA95E00E9409
:10331000DD08ECCF6BEE71E0C8010E942033892BF1
:1033200091F510910A0464EF71E080E090E00E9452
:10333000D6040E94C30680911001882311F08330C7
:1033400081F488EE93E0189FA001199F500D11247D
:103350004115510541F061E070E086E895E00E947A
:10336000F10861E25ECF86E895E00E94E7088111EE
:1033700005C086E895E00E94E208F3CF86E895E074
:103380000E94DD08EECF6FEE71E0C8010E9420338D
:10339000892BD1F5809148038230B0F587E795E01D
:1033A0000E94E708811130C010910B0464EF71E0B6
:1033B00080E090E00E94D6040E94C3068091100134
:1033C0008B7F81F488EE93E0189FA001199F500D28
:1033D00011244115510541F061E070E087E795E067
:1033E0000E94F1086CE21DCF87E795E00E94E70894
:1033F000811105C087E795E00E94E208F3CF87E7D7
:1034000095E00E94DD08EECF63EF71E0C8010E94F5
:103410002033892B99F468E572E080E090E00E9407
:10342000D6040E94C30680911001882319F08330CE
:1034300009F01DCF81E080933D031ACF80E018CFC3
:1034400067EF71E08091FF03909100040E942033A8
:10345000892B29F581E40E94570B019759F40E94AA
:10346000340940E061E480910304909104040E94D7
:10347000990D08958091FE02882349F081E40E940D
:10348000570B181619061CF41092FE02E8CF42E3FF
:1034900050E068E070E082EC95E00E94F10880E086
:1034A0000895EF92FF920F931F93CF93DF93CDB7C1
:1034B000DEB7EA970FB6F894DEBF0FBECDBF8C0122
:1034C0007B01161617060CF06FC06091FF03709118
:1034D000000446E050E0CE0101960E945C33FF926A
:1034E000EF928DEF91E09F938F937E0185E3E80E3D
:1034F000F11CFF92EF920E946B33B701CE0101964F
:103500000E9433336091FD037091FE03CE0101965A
:103510000E94333365E571E0CE0101960E9433339A
:10352000B801CE0101960E9433330F900F900F9097
:103530000F900F900F908091460390914703BE012A
:103540006F5F7F4F02972CF5CE018F960E94B412C9
:10355000B801CE0189960E94B412BE01615D7F4F11
:10356000CE0189960E940913CE0189960E94220CF1
:10357000CE018F960E94220CEA960FB6F894DEBF19
:103580000FBECDBFDF91CF911F910F91FF90EF90B4
:103590000895CE0189960E94B412CE0189960E94A8
:1035A0001018CE018996E6CF60E171E00E94F90C17
:1035B000181619060CF763E072E0CE0189960E9496
:1035C000B412B801CE0101960E94B412BE01675D2B
:1035D0007F4FCE0101960E940913CE0101960E94F1
:1035E000220CDFCF8F929F92AF92BF92CF92DF9249
:1035F000EF92FF920F931F93CF93DF93CDB7DEB778
:103600006C970FB6F894DEBF0FBECDBF6AE072E0D4
:103610008091FF03909100040E942033892B09F5CB
:103620000E94340964EE71E0CE010D960E94B4123E
:103630006091030470910404CE0101960E94B412BB
:10364000BE01635F7F4FCE0101960E940913CE0138
:1036500001960E94220CCE010D960E94220C0E941F
:10366000B71061E172E08091FF03909100040E9425
:103670002033892B71F5E091FD03F091FE0386E084
:10368000ADE4B3E001900D928A95E1F710925403F6
:103690008DE493E00E948E0F64EE71E0CE010D96F2
:1036A0000E94B4126091030470910404CE0101964B
:1036B0000E94B412BE01635F7F4FCE0101960E944B
:1036C0000913CE0101960E94220CCE010D960E9494
:1036D000220C67EF71E08091FF03909100040E943B
:1036E0002033892B51F40E94201A682F70E08091BA
:1036F0000304909104040E94511A69E172E08091E0
:10370000FF03909100040E942033892B21F581E072
:103710008093FE0282EC95E00E94E20864EE71E084
:10372000CE010D960E94B4126091030470910404BE
:10373000CE0101960E94B412BE01635F7F4FCE019D
:1037400001960E940913CE0101960E94220CCE011F
:103750000D960E94220C63E272E08091FF0390912B
:1037600000040E942033892B09F044C066E571E013
:10377000CE0143960E94B41201E010E0B801CE01E0
:1037800001960E949917BE016F5F7F4FCE0143964D
:103790000E943512CE0101960E94220C6AE0CE01F1
:1037A00043960E9418120F5F1F4F0630110531F724
:1037B000BE016D5E7F4FCE010D960E94AB126091EF
:1037C000030470910404CE0101960E94B412BE015C
:1037D000635F7F4FCE0101960E940913CE010196CF
:1037E0000E94220CCE010D960E94220CCE0143961F
:1037F0000E94220C6DE272E08091FF039091000420
:103800000E942033892B09F064C08091FD039091C0
:10381000FE030E94FE2F6C018091FB039091FC033C
:103820000E94FE2F7C018601CE14DF040CF051C0F3
:1038300066E571E0CE0101960E94B41258012AE0BB
:10384000A20EB11C0A151B05C1F0B801CE010D96E0
:103850000E949917BE01635F7F4FCE0101960E94BF
:103860003512CE010D960E94220C6AE0CE0101961F
:103870000E9418120F5F1F4FE5CFBE016F5F7F4F91
:10388000CE0143960E94AB12609103047091040430
:10389000CE010D960E94B412BE016D5E7F4FCE0127
:1038A0000D960E940913CE010D960E94220CCE01A6
:1038B00043960E94220C60EA7FE080E090E00E9444
:1038C000D6048AE0E81AF108CE0101960E94220C83
:1038D000ABCF63E372E08091FF03909100040E94FC
:1038E0002033892B09F013C166E571E0CE014396C0
:1038F0000E94B4126CE870E0CE0143960E94C4119D
:10390000BE01675E7F4F80E590E00E94820EE98CE9
:10391000FA8C570197E3A91AB10882E390E0B7FE49
:1039200003C05701A81AB90A0597C9F71A141B044E
:103930000CF0E9C0E5E0EE1AF10866E571E0CE01B1
:1039400043960E945D12898D9A8D6C01F1E0CF1A29
:10395000D1088D5E9A4F2DE0289F4001299F900C41
:103960001124CA14DB040CF4CEC066E571E0CE016C
:103970000D960E94B41210E000E0C801880D991D58
:103980000E946D0A682F06301105D9F00530110527
:1039900009F063C045E050E0CE0101960E94121785
:1039A000BE016F5F7F4FCE010D960E943512CE0192
:1039B00001960E94220C61E072E0CE010D960E94F9
:1039C0002B120F5F1F4F0D301105B9F6BE01635F5B
:1039D0007F4FCE0143960E943512CE010D960E9474
:1039E000220C6AE0CE0143960E941812EC14FD04EA
:1039F00069F5BE016D5E7F4FCE010D960E94AB1240
:103A00006091030470910404CE0101960E94B412E7
:103A1000BE01635F7F4FCE0101960E940913CE0164
:103A200001960E94220CCE010D960E94220C60EAA3
:103A30007FE080E090E00E94D60466E571E0CE0170
:103A400043960E945D1225E0E21AF10881E0C81A4F
:103A5000D1089DE0891A910884CF09301105A1F49D
:103A600049E050E0CE0101960E941217BE016F5F3F
:103A70007F4FCE010D960E943512CE0101960E9415
:103A8000220C6BE372E099CF4BE050E00B30110554
:103A900049F3A8010C30110531F590E08230910511
:103AA00019F46DE372E089CF8330910519F462EA6D
:103AB00072E083CF8132910519F460E472E07DCF2A
:103AC0008C32910519F463E472E077CF843091056C
:103AD00019F466E472E071CF4CE050E0069719F4F7
:103AE00069E472E06ACFCE0101960E941217BE010E
:103AF0006F5F7F4FCE010D960E943512CE01019669
:103B00000E94220C5ECFCE0143960E94220C6CE4F0
:103B100072E08091FF03909100040E942033892B72
:103B200001F58091FB039091FC030091FD0310913E
:103B3000FE0340E0009719F00E94FE2F482F65E435
:103B4000C8010E94990D8C01181619060CF0C7C304
:103B50000E943409B80180910304909104040E94EA
:103B6000511A60E572E08091FF03909100040E9479
:103B70002033892B09F04CC040E065E48091FD03BF
:103B80009091FE030E94990D31E020E0181619066D
:103B90000CF030E0032F122F8091FB039091FC0377
:103BA0009A8389838091F9039091FA039C838B8394
:103BB0008091F7039091F8039E838D83FE013196E7
:103BC0007F015E01F7E0AF0EB11CF701C190D1900B
:103BD0007F01C114D10481F068EE73E080E090E0D1
:103BE0000E94D60440E065E4C6010E94990D1816B3
:103BF000190614F40F5F1F4FAE14BF0431F70E9473
:103C00003409B80180910304909104040E94511A70
:103C100065E572E08091FF03909100040E942033DB
:103C2000892BA1F48091FD039091FE030E94ED0D7C
:103C30008C01181619060CF05BC30E943409B801F8
:103C400080910304909104040E94511A69E572E086
:103C50008091FF03909100040E942033892B99F4F6
:103C600060E171E08091FD039091FE030E94F90CE8
:103C7000181619060CF045C3BC01809103049091FD
:103C800004040E94511A6DE572E08091FF03909147
:103C900000040E942033892B39F561E070E08091A7
:103CA000FD039091FE030E94820F6091FD037091CD
:103CB000FE03CE010D960E94B41260910304709130
:103CC0000404CE0101960E94B412BE01635F7F4FCF
:103CD000CE0101960E940913CE0101960E94220C8A
:103CE000CE010D960E94220C64E672E08091FF03E3
:103CF000909100040E942033892B39F562E070E036
:103D00008091FD039091FE030E94820F6091FD035C
:103D10007091FE03CE010D960E94B41260910304CF
:103D200070910404CE0101960E94B412BE01635F3B
:103D30007F4FCE0101960E940913CE0101960E9489
:103D4000220CCE010D960E94220C6BE672E080914F
:103D5000FF03909100040E942033892B39F563E022
:103D600070E08091FD039091FE030E94820F6091AC
:103D7000FD037091FE03CE010D960E94B412609176
:103D8000030470910404CE0101960E94B412BE0196
:103D9000635F7F4FCE0101960E940913CE01019609
:103DA0000E94220CCE010D960E94220C62E772E066
:103DB0008091FF03909100040E942033892B39F5F4
:103DC00064E070E08091FD039091FE030E94820FF9
:103DD0006091FD037091FE03CE010D960E94B41216
:103DE0006091030470910404CE0101960E94B41204
:103DF000BE01635F7F4FCE0101960E940913CE0181
:103E000001960E94220CCE010D960E94220C69E7B9
:103E100072E08091FF03909100040E942033892B6F
:103E2000E9F581E08093490381E090E09A838983FA
:103E3000BE016F5F7F4F82E390E00E94B70F8091D9
:103E4000FD039091FE030E94FE2F90934403809304
:103E5000430363E473E086E390E00E94B70F0E949F
:103E6000340961E872E0CE010D960E94B4126091AF
:103E7000030470910404CE0101960E94B412BE01A5
:103E8000635F7F4FCE0101960E940913CE01019618
:103E90000E94220CCE010D960E94220C64E872E072
:103EA0008091FF03909100040E942033892B61F5DB
:103EB00084EA95E00E94DD08109249031A82198273
:103EC000BE016F5F7F4F82E390E00E94B70F6DE805
:103ED00072E0CE010D960E94B412609103047091BD
:103EE0000404CE0101960E94B412BE01635F7F4FAD
:103EF000CE0101960E940913CE0101960E94220C68
:103F0000CE010D960E94220C61E972E08091FF03C0
:103F1000909100040E942033892B59F480913E0334
:103F2000882339F084EA95E00E94DD0881E08093DF
:103F3000380367E972E08091FF03909100040E94CA
:103F40002033892B69F58091FD039091FE030E9437
:103F5000FE2F909347038093460366E473E08EE35D
:103F600090E00E94B70F64EE71E0CE010D960E94C2
:103F7000B4126091030470910404CE0101960E9472
:103F8000B412BE01635F7F4FCE0101960E940913F8
:103F9000CE0101960E94220CCE010D960E94220CA9
:103FA0006DE972E08091FF03909100040E9420333C
:103FB000892B69F58091FD039091FE030E94FE2FED
:103FC000809348030E94340968E473E084E390E03E
:103FD0000E949F1064EE71E0CE010D960E94B41213
:103FE0006091030470910404CE0101960E94B41202
:103FF000BE01635F7F4FCE0101960E940913CE017F
:1040000001960E94220CCE010D960E94220C65EAB8
:1040100072E08091FF03909100040E942033892B6D
:1040200099F58091FD039091FE030E94FE2F21E0FF
:10403000892B09F420E020934A030E9434096AE4A2
:1040400073E088E290E00E9487106091FD03709118
:10405000FE03CE010D960E94B4126091030470918C
:104060000404CE0101960E94B412BE01635F7F4F2B
:10407000CE0101960E940913CE0101960E94220CE6
:10408000CE010D960E94220C6BEA72E08091FF0334
:10409000909100040E942033892B91F460E171E03B
:1040A00080910304909104040E94F90C909397036B
:1040B000809396036CEA70E08AE894E00E949F0681
:1040C00062EB72E08091FF03909100040E94203324
:1040D000892B31F58091FD039091FE030E94FE2F04
:1040E000909342038093410361E473E08AE490E09B
:1040F0000E94B70F80914103909142030E94741374
:1041000088E19EE00FB6F894A895809360000FBEFA
:104110009093600060ED77E080E090E00E94D6042C
:1041200067EB72E08091FF03909100040E942033BE
:10413000892B79F58091FD039091FE030E94FE2F5B
:1041400021E0892B09F420E020931B036BE173E04D
:104150008CE490E00E94871064EE71E0CE010D9631
:104160000E94B4126091030470910404CE01019680
:104170000E94B412BE01635F7F4FCE0101960E9480
:104180000913CE0101960E94220CCE010D960E94C9
:10419000220C6BEB72E08091FF03909100040E946F
:1041A0002033892B81F48091FD039091FE030E94BE
:1041B000FE2F909395038093940364E973E08EE45B
:1041C00090E00E94B70F6FEB72E08091FF03909137
:1041D00000040E942033892B21F40E943D160E9486
:1041E000340966EC72E08091FF03909100040E9414
:1041F0002033892B91F440ED57E061E070E083EBD0
:1042000095E00E94F10840ED57E061E070E084EA3B
:1042100095E00E94F1080E943D166BEC72E08091DF
:10422000FF03909100040E942033892B09F044C0C1
:104230001C8E1B8E1A8E198EBE01675E7F4FCE01BB
:104240004B960E94960B198287E08F9380ED8F9397
:104250008A8D8F93898D8F938C8D8F938B8D8F9378
:1042600082ED92E09F938F938E010F5F1F4F1F93FC
:104270000F930E946B33B801CE0143960E94B41293
:104280006091030470910404CE010D960E94B41253
:10429000BE016D5E7F4FCE010D960E940913CE01C7
:1042A0000D960E94220CCE0143960E94220C0FB65E
:1042B000F894DEBF0FBECDBF6C960FB6F894DEBF8C
:1042C0000FBECDBFDF91CF911F910F91FF90EF9067
:1042D000DF90CF90BF90AF909F908F90089542E372
:1042E00050E068E070E082EC95E00E94F10832CC8A
:1042F00042E350E068E070E082EC95E00E94F10853
:104300009ECC6BEF72E0CE010D960E94B4126091CC
:10431000030470910404CE0101960E94B412BE0100
:10432000635F7F4FCE0101960E940913CE01019673
:104330000E94220CCE010D960E94220CA4CC1F924A
:104340000F920FB60F9211242F933F934F935F93C9
:104350006F937F938F939F93AF93BF93EF93FF934D
:104360008091B900887F803609F44AC0F0F5883220
:1043700009F4A7C018F5803109F49BC0B8F488236C
:1043800009F4F9C0883009F494C0FF91EF91BF910E
:10439000AF919F918F917F916F915F914F913F91DD
:1043A0002F910F900FBE0F901F901895883109F430
:1043B00088C0803251F78093520414C0803409F4CD
:1043C0009DC040F48033B9F38833F9F680935204EA
:1043D00085ECB0C0803509F485C0883509F496C0F5
:1043E000883499F60E944A0ED0CF883909F48CC0DF
:1043F00038F5883729F050F4883611F0803729F6DF
:1044000083E0809354041092F40357C0883809F471
:104410007BC0803919F0803809F0B7CF8091F40360
:10442000803208F071C0E091F40381E08E0F809338
:10443000F4038091BB00F0E0EC52FC4F80833DC060
:10444000803B39F0E0F4803A09F479C0883A09F009
:104450009CCF84E0809354041092D1031092D00337
:10446000E091CE03F091CF0309958091D0038111A3
:104470000FC081E08093D0031092AE0309C0803C4E
:1044800009F4A6CF883C09F4A3CF883B09F07DCF7F
:10449000E091D10381E08E0F8093D103F0E0E255EB
:1044A000FC4F80818093BB009091D1038091D00319
:1044B00029C080912F048093BB0085EC8093BC00C1
:1044C00064CF9091510480915004981758F5E09171
:1044D000510481E08E0F80935104F0E0E05DFB4FCA
:1044E0008081E9CFE091510481E08E0F80935104E7
:1044F0008091BB00F0E0E05DFB4F80839091510420
:10450000809150049817C8F285E8D8CFE091510403
:1045100081E08E0F809351048091BB00F0E0E05D5C
:10452000FB4F80838091530481115CCF81E08093A5
:104530002E0484EA8093BC001092540426CF85ECAC
:104540008093BC00109254048091F403803230F4C4
:10455000E091F403F0E0EC52FC4F10826091F40320
:1045600070E0E091D203F091D30384ED93E00995DC
:104570001092F4030ACF1092520434CF1F920F927C
:104580000FB60F9211242F933F938F939F93AF9366
:10459000BF938091990390919A03A0919B03B0914E
:1045A0009C033091980323E0230F2D3758F5019693
:1045B000A11DB11D209398038093990390939A03B2
:1045C000A0939B03B0939C0380919D0390919E03C5
:1045D000A0919F03B091A0030196A11DB11D8093EE
:1045E0009D0390939E03A0939F03B093A003BF915C
:1045F000AF919F918F913F912F910F900FBE0F9090
:104600001F90189526E8230F0296A11DB11DD2CF49
:104610001F920F920FB60F9211248F939F93809148
:10462000E1009091E100937F9093E10083FF0FC040
:104630001092E90091E09093EB001092EC0092E36D
:104640009093ED001092F60398E09093F00082FFB3
:1046500022C093E09093E9009091F200992319F021
:104660009AE39093E80090910F03992341F0909181
:104670000F03915090930F03911101C05D9A909197
:10468000F503992341F09091F50391509093F50330
:10469000911101C0289A84FF18C08091E2008E7E9B
:1046A00081608093E2008091E1008F7E8093E10041
:1046B000809110038E7E8061809310039F918F9173
:1046C0000F900FBE0F901F90189580FFF7CF80912D
:1046D000E2008E7E80618093E2008091E1008E7E18
:1046E0008093E100809110038E7E8160E5CF1F9260
:1046F0000F920FB60F921124CF92DF92EF92FF929A
:104700000F931F932F933F934F935F936F937F93D9
:104710008F939F93AF93BF93EF93FF93CF93DF93C9
:10472000CDB7DEB76C97DEBFCDBF1092E9008091A8
:10473000E80083FF25C068E0CE0145960E9456063A
:1047400082EF8093E8008D8987FF39C09091E8005F
:1047500090FFFCCF982F907609F034C19E894F8945
:10476000588D2F89F88C911131C0803861F5809176
:1047700011038093F1001092F1008EEF8093E80016
:104780006C960FB6F894DEBF0FBECDBFDF91CF9110
:10479000FF91EF91BF91AF919F918F917F916F9119
:1047A0005F914F913F912F911F910F91FF90EF904B
:1047B000DF90CF900F900FBE0F901F9018959EEF37
:1047C0009093E800C7CF1092F100D5CF913059F403
:1047D0008111D3CF4130510581F6809111038D7F36
:1047E00080931103CACF933049F48111C6CF413071
:1047F000510519F6809111038260F2CF953041F492
:104800008091E80080FFFCCF20682093E300B5CFC3
:10481000963009F0A9C00B8D1C8D22E01092E900A2
:1048200010920D0310920C03F2122EC010920B0383
:1048300010920A030E9425061F8299E09983FA824A
:1048400091E09E8390EA98879AEF998720910C03D4
:1048500030910D03275F3F4F3C832B838D83109254
:10486000E90010920D0310920C0310930B030093B8
:104870000A0349E050E0BE016F5F7F4F80E00E9475
:10488000FF050E94250679CF10930B0300930A03BE
:104890000E948F02DC0112960D911C9101151105E9
:1048A00009F451C1D801ED91FC910480F581E02D0E
:1048B000BE016B5E7F4FC8010995009709F03EC1AC
:1048C000F80100851185EACFF3E0FF120EC08F8951
:1048D000882309F440C0823061F440E862E182E25A
:1048E00091E00E94CC05811148CF81E28093EB00DA
:1048F00047CF813029F440E868E089E191E0F1CFC9
:10490000833099F70E948F02DC011296ED90FC90A3
:104910008E010F5F1F4F6801E114F10479F0D70198
:10492000ED91FC910680F781E02DB801C701099552
:10493000080F111DF701E084F184EECFD8011C921D
:10494000F60101900020E9F73197BF016C197D094C
:1049500040E0C601C6CF63E071E0FB01449150E046
:1049600080E80E94FF0509CF973009F4BECF983048
:1049700021F481E08093F10000CF993009F0FDCE61
:10498000837009F0B2CFE8E1F1E081E031E096E335
:104990002191222371F08093E9003093EB00DF0135
:1049A00011972C912093EC009093ED008F5F87304E
:1049B00079F78EE78093EA001092EA008F8980935E
:1049C000F603DBCE8B8D9C8D1092E90010920D03C7
:1049D00010920C0390930B0380930A03898D81112D
:1049E00092C08E899D89913A49F4813209F07DCF38
:1049F00047E050E064E071E080E0B3CF913209F02D
:104A000074CF833269F48F89988DB0E0A0E08093F1
:104A1000000190930101A0930201B0930301ADCE78
:104A2000803269F48091E80082FFFCCF67E084E087
:104A300091E00E9456068BEF8093E8009ECE823272
:104A400009F09BCE8F8980930B01EEEFFFE78591F4
:104A500094918B3F9C4D51F1E0E0F8E0809104018E
:104A600090910501A0910601B0910701803B94400F
:104A7000A105B105F1F480910B0180FD1AC0EE3F54
:104A80008AE0F80789F587E797E79183808380912B
:104A9000600080930E0388E19BE00FB6F894A89520
:104AA000809360000FBE9093600067CEEEEFFAE057
:104AB000D5CF808191818737974709F05ECEA89541
:104AC0008091600088618093600080910E038093E4
:104AD0006000EE3F2AE0F20789F08091FE0A909193
:104AE000FF0A9183808349CE80819181873798071F
:104AF00051F29093FF0A8093FE0AC5CF1092FF0AED
:104B00001092FE0A3ACE0E948F02DC0112960D919D
:104B10001C910115110509F4E8CED801ED91FC9125
:104B20000190F081E02DBE016B5E7F4FC8010995B9
:104B3000811123CEF80100851185EBCF18161906D7
:104B40000CF41BCED2CEF1E0FF12BECE67E071E0D6
:104B500004CF1F920F920FB60F9211242F933F9301
:104B60004F935F936F937F938F939F93AF93BF9375
:104B7000EF93FF938AE894E00E944A07FF91EF9138
:104B8000BF91AF919F918F917F916F915F914F9165
:104B90003F912F910F900FBE0F901F9018951F926D
:104BA0000F920FB60F9211242F938F939F93EF9331
:104BB000FF93E0919A04F0919B048081E091A0041E
:104BC000F091A10482FD1BC090818091A3048F5FAE
:104BD0008F732091A404821741F0E091A304F0E0C8
:104BE000E657FB4F958F8093A304FF91EF919F9120
:104BF0008F912F910F900FBE0F901F90189580816D
:104C0000F4CFCF93DF93EEE7F4E01382128288EEC5
:104C100093E0A0E0B0E084839583A683B78322E28B
:104C200031E031832083EAE8F4E013821282848346
:104C30009583A683B78324E331E0318320832DEC71
:104C400030E0358724872CEC30E03787268728EC46
:104C500030E0318B208B29EC30E0338B228B2AEC37
:104C600030E0358B248B2EEC30E0378B268B118E89
:104C7000128E138E148EE7E2F5E013821282848383
:104C80009583A683B78386E491E0918380838FEF39
:104C90009FEF9587848766E571E08DE796E00E9437
:104CA000B412C3EDD5E082E090E09C838B8366E58F
:104CB00071E088ED95E00E94B4121B861C861D866B
:104CC0001F861E868DE4809379068CE480937A0695
:104CD00083E580937B0691E290937C06888380ED48
:104CE00097E09093D2058093D105E2ECF5E0128233
:104CF0001286138614861586168684E090E09183CA
:104D00008083C1E0C38361E00E948503E3EBF5E0AB
:104D100012821286138614861586168689E090E024
:104D200091838083C38361E00E948503E4EAF5E018
:104D30001282128613861486158616868AE090E003
:104D400091838083C38361E00E948503E5E9F5E0F8
:104D500012821286138614861586168688E090E0E5
:104D600091838083138260E00E948503E6E8F5E08A
:104D700012821286138614861586168687E090E0C6
:104D800091838083C38361E00E948503E7E7F5E0B8
:104D90001282128613861486158616868FE090E09E
:104DA00091838083C38361E0DF91CF910C9485036D
:104DB000CF93DF93CDB7DEB7C354D1090FB6F894C4
:104DC000DEBF0FBECDBF789484B5826084BD84B54C
:104DD000816084BD85B5826085BD85B5816085BDF6
:104DE00080916E00816080936E00109281008091AE
:104DF0008100826080938100809181008160809336
:104E0000810080918000816080938000809191007A
:104E100082608093910080919100816080939100E5
:104E2000809190008160809390008091C1008460A7
:104E30008093C1008091C10082608093C100809105
:104E4000C10081608093C1008091C3008160809324
:104E5000C3008091C00082608093C0008091C20036
:104E600081608093C20080917A00846080937A0090
:104E700080917A00826080937A0080917A008160CC
:104E800080937A0080917A00806880937A001092F3
:104E9000F60310921103109210038091D7008160E5
:104EA0008093D70080EA8093D80089B5806189BD5E
:104EB00089B5826089BD09B400FEFDCF61E070E074
:104EC00080E090E00E94D6048091D8008F7C8061C1
:104ED0008093D8008091E000807F8093E0008091F3
:104EE000E1008E7E8093E1008DE08093E200559A90
:104EF000209A87EF84BF0FB6F894A8958091600040
:104F0000886180936000109260000FBE60E08EE0C8
:104F10000E94850361E084E10E94850362E085E1EF
:104F20000E94850348EC50E065E070E082EC95E07B
:104F30000E94F1088EE290E00E947A30811100C256
:104F400061E084E10E94180364EF71E080E090E08A
:104F50000E94D60460E084E10E94180382EC95E090
:104F60000E94E2088FEF9FEF909334058093330502
:104F700068EE73E080E090E00E94D6040E94AA0EE2
:104F80000091410310914203E0919A04F0919B0437
:104F900042E0E42EE082E0919604F09197041082C2
:104FA000E0919804F091990480E180831092A2042A
:104FB000E0919E04F0919F0456E0F52EF082E0917E
:104FC0009C04F0919D04808180618083E0919C0429
:104FD000F0919D04808188608083E0919C04F09131
:104FE0009D04808180688083E0919C04F0919D0401
:104FF00080818F7D80838091D3058C3409F045C0FA
:1050000068EE73E080E090E00E94D6046FE571E006
:105010008AE894E00E949F0668EE73E080E090E0EA
:105020000E94D604E0919A04F0919B04E082E09102
:105030009604F09197041082E0919804F0919904FD
:1050400087E680831092A204E0919E04F0919F0471
:10505000F082E0919C04F0919D04808180618083C6
:10506000E0919C04F0919D04808188608083E091B0
:105070009C04F0919D04808180688083E0919C0471
:10508000F0919D0480818F7D808360E177E280E0F4
:1050900090E00E94D60469E571E08AE894E00E94FD
:1050A0009F066AE874E09E012F5F3F4F4901C901E6
:1050B0000E94C912C4010E94220C68EE73E080E0D5
:1050C00090E00E94D6041093D7050093D605C8013E
:1050D0000E9474136DE471E08AE894E00E949F06D8
:1050E00068EE73E080E090E00E94D6046AE874E025
:1050F000C4010E94C912C4010E94220C61E471E043
:105100008AE894E00E949F0668EE73E080E090E0F9
:105110000E94D6046AE874E0C4010E94C912C40166
:105120000E94220C65E371E08AE894E00E949F06E9
:1051300068EE73E080E090E00E94D6046AE874E0D4
:10514000C4010E94C912C4010E94220C0E94AA1329
:105150006AE874E0C4010E94C912C4010E94220CD2
:1051600068EE73E080E090E00E94D60410920D0497
:1051700010920C0410925B0410927D040E9446036E
:1051800089E092E09093CF038093CE038AE092E08F
:105190009093D3038093D20360E177E280E090E0C4
:1051A0000E94D60481E090E00E947A308F3F11F493
:1051B0000E94B710A0919403B09195031A161B0694
:1051C00074F420E437E74BE150E00E94243160930F
:1051D0000C0170930D0180930E0190930F0164E117
:1051E00070E08DE796E00E94C411C4010E94D214C1
:1051F000B4018DE796E00E948B11C4010E94220C3D
:1052000060ED77E080E090E00E94D60462E173E018
:1052100084E193E00E94960B8091410390914203B8
:105220000E94D20C6BEF72E0C4010E94B412C40160
:105230000E948014C4010E94220C48EC50E065E0FA
:1052400070E082EC95E00E94F10885E1898381E0BD
:105250008A838B831C821D821E82C4010E943F0AA6
:1052600068EB7BE080E090E00E94D6040E94E312AD
:105270003E013AE1630E711C442443948AE894E0B1
:105280000E942A07181619060CF0D9C08091DF0574
:105290008111D5C08AE894E00E940807582E8091B9
:1052A0001703882309F47AC00E9431055B016C0161
:1052B0002AAD3BAD4CAD5DAD6EAD7FAD21968FADF2
:1052C000219722969FAD229728513C4F4F4F5F4F19
:1052D0006F4F7F4F8F4F9F4F190123964FAF2397EB
:1052E000B52FA62FF72FE82F24969FAF249795016F
:1052F000A60160E070E080E090E051012396CFAC21
:105300002397DB2EEA2EFF2E0E2F24961FAD249717
:105310000E942C3119F010F031E2532E80911603C7
:10532000E82FF0E090917C06ED52FA4F951589F048
:10533000508A8F5F8E3650F04DE6409316039ECF15
:1053400060E08EE290E00E94823008CE80931603E7
:1053500095CF108A109217031092160383EE95E0F2
:105360009093E2058093E1054092DF0542E350E02F
:1053700061E070E082EC95E00E94F1088091DF0529
:10538000811136C08AE894E00E942A07181619068F
:1053900094F58AE894E00E940807F4CF809179069A
:1053A000581669F080917A06581621F080917B0694
:1053B000581264CF2DE0E22EE0927C0603C091E209
:1053C00090937C060E9431057B018C0120E030E047
:1053D000A9016AAFFBAE8CAF1DAF2EAF3FAF2196D8
:1053E0004FAF219722965FAF22974092170346CF87
:1053F0001092DF05C7CFA091E105B091E205BDABEA
:10540000ACABFD0101900020E9F73197EA1BFB0BE3
:105410003497A8F011968C918E3489F0CE01C49601
:105420000E944C15809105048B3409F4A3C10CF043
:10543000F1C0833409F43AC1893409F437C1809149
:105440004903882309F460C2C3010E94B909C3015A
:105450000E94600AE82FF0E0EE0FFF1FE65DFC4FB0
:1054600000811181C3010E94600AE82FF0E0EE0F75
:10547000FF1FE45EFC4FE080F180101611061CF067
:105480001E141F048CF4C4010E94B9098C81980178
:105490002E193F0990E037FF2EC28017910724F0A4
:1054A0008E159F050CF430C288EE93E00E943D05F6
:1054B00080913E03811135C285E995E00E94E7089D
:1054C00090914A03891305C080913D03882309F414
:1054D0007AC00E94C30668EE73E080E090E00E940C
:1054E000D6040E94C30640923E030E943105609399
:1054F000390370933A0380933B0390933C0380916C
:105500004803882321F084EA95E00E94E20819828A
:1055100061EE72E0C4010E943333CE01C4960E9452
:10552000B9098FA91F928F938CA91F928F938DA970
:105530001F928F938EA91F928F9322ED31E03F939C
:105540002F937F926F920E946B33B301C4010E942C
:1055500033331A8E88AD0FB6F894DEBF0FBECDBFC1
:105560008A3008F0D6C11F928F9380EE91E09F930E
:105570008F937F926F920E946B330F900F900F90DA
:105580000F900F900F90B301C4010E9433331A8E15
:10559000B401CE018E960E94B412CE018E960E9466
:1055A0001018CE018E960E94220C80913D03882314
:1055B00009F4B4C1809103049091040464E00E9452
:1055C0004A1010923D031BE387E295E00E94C30856
:1055D00020919003181619060CF019C2211119C256
:1055E00087E295E00E94810890914003992309F495
:1055F00008C290913F03E92FF0E0EC5AFC4F8E3344
:1056000009F4F7C180839F5F9C3308F4EFC11093C6
:105610003F03DACF813589F1843509F010CF0E943C
:105620001E0E813019F170F0823009F008CF6091C0
:1056300003047091040480910104909102040E947B
:10564000DB18FDCE0E943A0E882309F4F8CE0E94A2
:10565000201A682F70E06115710509F4F0CE809171
:105660000304909104040E94511AE9CE0E943A0E5C
:105670008823E9F20E94F21AE2CE6091030470914D
:105680000404C4010E94B4126091960370919703C0
:10569000C3010E949917B401C3010E940913C301F9
:1056A0000E94220CC4010E94220CC9CE0E941E0E30
:1056B000813021F18230E9F11092D5051092D405A4
:1056C0008AE894E00E942A07892B09F041C0809162
:1056D000D4059091D505803E9E42D4F56DE070E0F2
:1056E00080E090E00E94D6048091D4059091D50589
:1056F00001969093D5058093D405E2CF90913E0317
:10570000992319F080933803D7CF809148038230D2
:1057100048F460910304709104048EE792E00E94C3
:10572000DB18CACF609103047091040483EF91E009
:10573000F6CF809148038230A8F780911001823023
:1057400040F3609103047091040487EE91E0E7CF89
:105750008AE894E00E942A07892B31F06AE874E015
:10576000C4010E94C9129ECF66E571E0C4010E9487
:10577000B41298CF80910304909104040E94FE2FEC
:105780008C014497449708F0A5C08091FB03909149
:10579000FC030E94FE2F182F8091FD039091FE03C1
:1057A0000E94FE2FF82E8091FF03909100040E942A
:1057B000FE2FE82E80910104909102040E94FE2F9A
:1057C00009838A83EB82FC821D831E82C4010E94AE
:1057D0003F0A8091D305813591F4C3010E94B90934
:1057E000C3010E94050AAB01BC0140545843610942
:1057F0007109C4010E943C09C4010E943F0A66E08D
:1058000090E080E00E944A1080911B03882389F079
:105810008091190390911A0320919403309195037C
:10582000820F931F883191058CF590931A03809312
:1058300019038091940390919503181619060CF0A2
:10584000FECD0E94310561327F4B8240910508F404
:10585000F6CD6AE771E08AE894E00E949F0660E472
:105860007FE180E090E00E94D6046EE671E08AE875
:1058700094E00E949F066AE874E0C4010E94C91285
:10588000C4010E94220C0E94AA1368CF10921A032E
:105890001092190361E070E0CE018E960E94991774
:1058A00067EB72E0C4010E94B412BE01625D7F4FDB
:1058B000C3010E94AB12B401C3010E940913C301CA
:1058C0000E94220CC4010E94220CCE018E960E94DE
:1058D000220CAFCF68E873E180E090E00E94D6042C
:1058E000809118038F5F80931803823008F0A7CD52
:1058F0000E94E312A4CDE81AF90A1E141F0424F032
:10590000801791070CF4D0CD80E49FE10E943D0503
:105910005ACE1F928F938EED92E029CE90E080E0D8
:105920004DCE84E690E00E943D05C0903903D090B2
:105930003A03E0903B03F0903C03A0914303B09105
:10594000440328EE33E00E941D3160939905709363
:105950009A0580939B0590939C05672B682B692B78
:1059600009F43FC00E9431059B01AC012C193D098F
:105970004E095F0969017A010091990510919A0514
:1059800020919B0530919C05C016D106E206F306D6
:1059900040F16093A0057093A1058093A2059093B8
:1059A000A3051092380310923E0380914803882388
:1059B00009F409CE84EA95E00E94DD080E94C3063E
:1059C00068EE73E080E090E00E94D6040E94C30677
:1059D0006AE874E0C4010E94C912C4010E94220C4A
:1059E000F2CD809138038111DCCFEDCD90933F0350
:1059F000EBCD10821092400310923F03409290032F
:105A0000E3CD8C3309F0E0CD40924003DDCD22237D
:105A1000F9F084E593E09DAB8CABCE01C4960E9477
:105A20004C15E0910304F09104048081843409F45E
:105A300003C10CF086C0813409F4E4C00CF072C0DC
:105A4000833209F494C1853209F405C2109290039F
:105A500085E10E94EF029C0191E02115310509F4D6
:105A600090E090939303809192039817C9F0232BB1
:105A700089F4109191031F5F1093910340ED57E05B
:105A800061E070E082EC95E00E94F108153011F4BD
:105A90000E94B71062E370E080E090E00E94D604BC
:105AA00080919303809392030E9431056B017C01E6
:105AB00080910C0190910D01A0910E01B0910F0108
:105AC000C816D906EA06FB0601F54CE251E064E08F
:105AD00070E082EC95E00E94F108A0919403B091EF
