:100000000C9470010C9498010C9498010C94980134
:100010000C9498010C9498010C9498010C949801FC
:100020000C9498010C9498010C94E51C0C94541DAC
:100030000C9498010C9498010C9498010C949801DC
:100040000C9498010C9498010C9498010C949801CC
:100050000C9498010C9498010C9498010C949B1C9E
:100060000C9498010C94AC1F0C94861F0C9498016E
:100070000C9498010C9498010C9498010C9498019C
:100080000C9498010C9498010C9498010C9498018C
:100090000C947C1B0C9498010C9498010C9498017E
:1000A0000C9498010C9498010C9498011F1C1F1E2D
:1000B0001F1E1F1F1E1F1E1F080B00020202000032
:1000C00009040000010202000005240010010524BB
:1000D000010101042402060524060001070581032D
:1000E00010004009040100020A0000000705020296
:1000F00040000007058302400000040309041201C8
:100100000002EF0201404F1B0692000101020301B1
:10011000537061726B46756E00537061726B4675F9
:100120006E2050726F204D6963726F0041542B43F3
:100130005245473D310D0A0041542B43545A523D1C
:10014000310D0A0041542B43545A553D310D0A00DC
:1001500041545A300D0041542B4950523D313932EF
:1001600030300D0A0041542B4353510D0A004154C5
:100170002B4346554E3D310D0A0041542B43465505
:100180004E3D300D0A0045004500450000000000CE
:10019000240027002A002D00300000000000250068
:1001A00028002B002E003100000000002300260054
:1001B00029002C002F000404040404030405020297
:1001C00002020403020202020606060606060404F0
:1001D0000202020404040802011040804010204082
:1001E000804080080204018040201002011080102D
:1001F000204040200000000200090F00000304011D
:10020000000C0000000000000000000000000000E2
:10021000000041542B4347534E0D0A004154480DF2
:100220000A003B0D0A004154440041542B434855F9
:10023000500D0A0041542657300D0041542B434CB9
:1002400049503D310D0A0041542B4347455245501A
:100250003D300D0A00415445300D0A0061742B7188
:100260007572636366673D22757263706F72742284
:100270002C227561727431220D0A0041542B434EB9
:100280004D493D312C322C302C302C300D0A0041A0
:10029000542B434C49503D310D0A0041542B434DE2
:1002A00047463D310D0A0041542B435245473D31ED
:1002B0000D0A003B2657300D0A0041542B434E4D8A
:1002C000503D00220D0041542B434D47533D220029
:1002D00041542B43434C4B3F0D0A0000DE1F1E2FA1
:1002E00011241FBECFEFDAE0DEBFCDBF26E0A2EEC5
:1002F000B2E001C01D92A838B207E1F712E0A0E019
:10030000B1E0ECEEFCE602C005900D92A23EB10712
:10031000D9F711E0CFE6D1E004C02197FE010E9499
:100320007231CE36D107C9F70E9495200C946936F8
:100330000C9400008091270490912804891B990B4C
:100340000895FC0180912004882311F13FB7F894AF
:1003500082E08093E9002091F200822F90E018164D
:10036000190614F481E090E0882339F0289844E6D7
:1003700040931F044091F1004083222339F02091E3
:10038000F200211103C02BE62093E8003FBF08953F
:100390008FEF9FEF08952FB7F89483E08093E900E3
:1003A0009091E800892F807295FF04C09091F2002F
:1003B00080E4891B2FBF08952091EB03260F33277C
:1003C000331F21323105ECF420916F04FC0190E0E1
:1003D00080E0243069F082E00895A091EB03219140
:1003E000AC0147535C4FA40FB52FB11D2C93019660
:1003F000861798F38091EB03680F6093EB0380E01E
:10040000089581E00895089508950895E0912804DD
:1004100080912704E81730F4F0E0E75DFB4F80811E
:1004200090E008958FEF9FEF0895909128048091B8
:1004300027042FEF3FEF981748F4E92FF0E0E75D2E
:10044000FB4F208130E09F5F90932804C9010895FD
:10045000CF92DF92EF92FF920F931F93CF93DF9390
:100460007C01CB018A0120917504222389F0EB01E4
:100470006B01C40ED51ECC15DD0569F06991D7015D
:10048000ED91FC910190F081E02DC7010995F3CF2A
:10049000642F0E94DC01C801DF91CF911F910F9161
:1004A000FF90EF90DF90CF900895CF93DF931F924E
:1004B000CDB7DEB76983209175042223F9F020912E
:1004C0009804203258F021E030E0FC01338322838D
:1004D00090E080E00F90DF91CF91089580917604B5
:1004E000E82FF0E0E958FB4F998190838F5F80936C
:1004F00076048093980481E090E0ECCF61E0CE0137
:1005000001960E94DC01F7CF682F89E994E00C94F2
:1005100055028091C00381110DC082E08093BC031D
:1005200084E08093BD031092BF031092BE0381E06C
:100530008093C0038CEB93E0089581508F3008F0D6
:1005400047C0E82FF0E0E955FD4F0C947231C4022A
:10055000C802B602BC02C002E802E802E802CB020E
:10056000D102D502D902DF02E802E30280918000C5
:100570008F77809380000895809180008F7DF9CFE0
:1005800080918000877FF5CF84B58F7784BD0895F3
:1005900084B58F7DFBCF809190008F778093900002
:1005A0000895809190008F7DF9CF80919000877F92
:1005B000F5CF8091C0008F778093C000089580911F
:1005C000C0008F7DF9CF8091C200877F8093C200E9
:1005D0000895CF93DF93282F30E0F901EC50FE4FC0
:1005E0008491F901EB52FE4FD491F901EA54FE4F88
:1005F000C491CC23A1F081110E949D02EC2FF0E068
:10060000EE0FFF1FE855FE4FA591B491EC91ED233D
:1006100081E090E009F480E0DF91CF91089580E0DF
:1006200090E0FACF1F93CF93DF93282F30E0F901AA
:10063000EC50FE4F8491F901EB52FE4FD491F90139
:10064000EA54FE4FC491CC23A9F0162F81110E94C9
:100650009D02EC2FF0E0EE0FFF1FE656FE4FA59136
:10066000B4918FB7F894EC91111108C0D095DE23A6
:10067000DC938FBFDF91CF911F910895DE2BF8CFD0
:1006800010926F0481E080936E041092490461E03F
:1006900082E00E94120361E083E00E941203E9EB12
:1006A000F0E080818E7F808380818D7F808388E4ED
:1006B0008093B80085E48093BC000895CF93DF93C6
:1006C00091E09093C8038823B9F0C091B800D0910D
:1006D000BA008091BC008A7B8093BC0060E082E01D
:1006E0000E94120360E083E00E9412030E94400314
:1006F000D093BA00C093B800DF91CF910895CF9303
:10070000DF9390E0FC01EB52FE4F24918A549E4F00
:10071000FC0184918823C9F090E0880F991FFC01A7
:10072000E457FE4FA591B491FC01E656FE4FC591EA
:10073000D49161110DC09FB7F8948C9120958223BC
:100740008C938881282328839FBFDF91CF910895C0
:10075000623051F49FB7F8943C91822F80958323A7
:100760008C93E8812E2BEFCF8FB7F894EC912E2B42
:100770002C938FBFEACF3FB7F8948091B803909144
:10078000B903A091BA03B091BB0326B5A89B05C0DD
:100790002F3F19F00196A11DB11D3FBFBA2FA92F00
:1007A000982F8827BC01CD01620F711D811D911DFD
:1007B00042E0660F771F881F991F4A95D1F7089569
:1007C0008F929F92AF92BF92CF92DF92EF92FF9261
:1007D0000F931F93CF93DF93D0919804D13208F0F9
:1007E000D7C0182FC09197040E94BB036B017C01F6
:1007F00080916F0481116BC082E080936F0410932D
:100800006E048FEF80936D0410926C04D0936B0490
:10081000A7E7B4E0EBE4F4E080E0D81391C01092D5
:100820004A0480914A04CC0FC82BC0934A0480919B
:100830004904813009F088C0109249040E94BB032A
:100840006B017C0180914A048093BB00809171040C
:1008500090917204A0917304B0917404892B8A2B37
:100860008B2BA1F00E94BB030091710410917204C4
:1008700020917304309174046C197D098E099F09CD
:10088000061717072807390708F442C08091BC00F3
:1008900083FDD8CF85EC8093BC000E94BB036B0125
:1008A0007C0180916F04823009F450C080916D0406
:1008B0008F3F09F46FC080916D04803209F46CC0E1
:1008C00080916D04803309F469C084E026C0809172
:1008D000710490917204A0917304B0917404892BF7
:1008E0008A2B8B2B09F484CF0E94BB038090710468
:1008F00090907204A0907304B09074046C197D09F8
:100900008E099F0986169706A806B90608F070CFCB
:10091000809170040E945E0385E01092760410922C
:10092000980410927504DF91CF911F910F91FF9061
:10093000EF90DF90CF90BF90AF909F908F900895F1
:100940009D9191938F5F69CF85EEA5CF80917104C2
:1009500090917204A0917304B0917404892B8A2B36
:100960008B2B09F49ECF0E94BB0300917104109160
:10097000720420917304309174046C197D098E09FE
:100980009F09061717072807390708F08ACFC0CF35
:1009900081E0C3CF80E0C1CF82E0BFCF83E0BDCF95
:1009A0008F929F92AF92BF92CF92DF92EF92FF927F
:1009B0006B017C010E94BB034B015C01C114D1049B
:1009C000E104F104B9F00E94BB03681979098A09AE
:1009D0009B09683E73408105910580F321E0C21AAE
:1009E000D108E108F10888EE880E83E0981EA11C6A
:1009F000B11CE4CFFF90EF90DF90CF90BF90AF900D
:100A00009F908F9008951F93CF93DF93EC01162F43
:100A100081E08093750480E58093970410927604BA
:100A2000109298048D2F90E00E948402CE019927A5
:100A30000E948402612F89E994E00E94550281E0BE
:100A40000E94E00364E170E080E090E0DF91CF91EC
:100A50001F910C94D0042FB7F8946091B403709157
:100A6000B5038091B6039091B7032FBF08950F93FC
:100A70001F93CF93DF93EC01092E000CAA0BBB0B45
:100A80008093C3059093C405A093C505B093C60594
:100A90000E942B05AB01BC018091CA059091CB054A
:100AA000A091CC05B091CD058A019B01081B190BC3
:100AB0002A0B3B0B8091C3059091C405A091C505FD
:100AC000B091C605081719072A073B0758F180910E
:100AD000C105811124C081E08093C105C43F81E03C
:100AE000D8075CF0CE01845F9140092E000CAA0B60
:100AF000BB0B481B590B6A0B7B0B4093CA055093E9
:100B0000CB056093CC057093CD056091C1058091B4
:100B1000BF05DF91CF911F910F910C94120310929A
:100B2000C105EBCFDF91CF911F910F9108950895EB
:100B30004091EF025091F0022091ED023091EE02CF
:100B400042175307B4F49091E8009570E1F3909147
:100B5000E80092FD19C08093F1008091EF0290911E
:100B6000F00201968F739927892B19F48EEF8093E9
:100B7000E8008091EF029091F00201969093F002CC
:100B80008093EF0281E0089580E00895EF92FF9254
:100B90000F931F93CF93DF93F82E192FE62E042F78
:100BA00081E0860F880F0E94980583E00E949805D7
:100BB000CF2DD12FEC0EFD2EF11CCE15DF05B9F097
:100BC00007FF13C0FE0184910E949805182F80E052
:100BD0000E949805812321968111EFCFDF91CF915B
:100BE0001F910F91FF90EF9008958881EDCF81E0E4
:100BF000F5CFDF92EF92FF920F931F93CF93DF9386
:100C0000D82E8A01EB017B01E40EF51ECE15DF051F
:100C100059F0D7FE12C0FE0184910E9498052196DA
:100C20008111F4CF0FEF1FEFC801DF91CF911F911A
:100C30000F91FF90EF90DF9008958881EECF0F9392
:100C40001F93CF93DF931F92CDB7DEB782E08983E6
:100C500042E450E068EB70E080E80E94F9050E94F1
:100C60008902DC0112960D911C910115110589F084
:100C7000D801ED91FC910280F381E02DBE016F5F00
:100C80007F4FC801099597FD04C0F80100851185C3
:100C9000ECCF89810F90DF91CF911F910F91089533
:100CA000615030F02091F100FC0120830196F8CFD3
:100CB000289884E680931F0408950F931F93CF9381
:100CC000DF93EC010E942B05688779878A879B87D1
:100CD000E881F9810284F385E02DCE01099597FF23
:100CE00015C00E942B05088519852A853B85601B48
:100CF000710B820B930B0C811D812E813F8160173C
:100D000071078207930720F38FEF9FEFDF91CF9159
:100D10001F910F910895DC01ED91FC910190F081FC
:100D2000E02D0994DB0114964D915C9115976D911E
:100D30007C91DC01ED91FC910280F381E02D09941E
:100D4000EF92FF920F931F93CF93DF938C017B0160
:100D5000D0E0C0E0F701EC0FFD1F6491662361F065
:100D6000D801ED91FC910190F081E02DC801099529
:100D7000892B11F02196EECFCE01DF91CF911F91FB
:100D80000F91FF90EF9008956AE272E085EA94E097
:100D90000C94A006AF92BF92CF92DF92EF92FF9297
:100DA0000F931F93CF93DF936C017B018B01040F93
:100DB000151FEB015E01AE18BF08C017D10759F02F
:100DC0006991D601ED91FC910190F081E02DC60171
:100DD0000995892B79F7C501DF91CF911F910F916B
:100DE000FF90EF90DF90CF90BF90AF90089590E08C
:100DF00080E00895FC01538D448D252F30E0842F31
:100E000090E0821B930B541710F0CF960895019732
:100E10000895FC01918D828D981761F0A28DAE0F1F
:100E2000BF2FB11D5D968C91928D9F5F9F73928FA6
:100E300090E008958FEF9FEF0895FC01918D828DD2
:100E4000981731F0828DE80FF11D858D90E008959F
:100E50008FEF9FEF0895FC01918D228D892F90E0F7
:100E6000805C9F4F821B91098F739927089585EAB3
:100E700094E00E942B0721E0892B09F420E0822FC7
:100E8000089580E090E0892B29F00E9437078111B6
:100E90000C9400000895FC01A48DA80FB92FB11D7A
:100EA000A35ABF4F2C91848D90E001968F739927A0
:100EB000848FA689B7892C93A089B1898C9182747B
:100EC0008C93938D848D981306C00288F389E02D4E
:100ED00080818F7D80830895EF92FF920F931F93FF
:100EE000CF93DF93EC0181E0888F9B8D8C8D9813DD
:100EF00019C0E889F989808185FF14C09FB7F894EB
:100F0000EE89FF896083E889F98980818274808312
:100F10009FBF81E090E0DF91CF911F910F91FF90F3
:100F2000EF900895F62E0B8D10E00F5F1F4F0F739B
:100F30001127E02E8C8D8E110CC00FB607FCFACF56
:100F4000E889F989808185FFF5CFCE010E944B07A2
:100F5000F1CFEB8DEC0FFD2FF11DE35AFF4FF08227
:100F60009FB7F8940B8FEA89FB8980818062CFCF8D
:100F7000CF93DF93EC01888D8823B9F0AA89BB89D0
:100F8000E889F9898C9185FD03C0808186FD0DC0BB
:100F90000FB607FCF7CF8C9185FFF2CF808185FFDC
:100FA000EDCFCE010E944B07E9CFDF91CF9108959D
:100FB0008F929F92AF92BF92CF92DF92EF92FF9269
:100FC0000F931F93CF93DF936C017B018A01809174
:100FD0000B01882309F45CC080912004882309F464
:100FE00057C08091F30280FF05C08091E0008260CD
:100FF0008093E000E801B12C8AEFA82E93E0892EBF
:101000002AE3922E209711F4BB20D9F10E94CB0144
:1010100081110AC0AA94AA20D9F161E070E080E0B1
:1010200090E00E94D004EECF8C171D0611F00CF05A
:101030008C2F9FB7F8948092E9002091E80025FD5D
:1010400002C09FBFDFCF282F30E0C21BD30BF701B8
:10105000815020F041914093F100FACFE20EF31E4F
:10106000BB2021F09092E800B12CEBCF8091E800FA
:1010700085FDE7CF9092E800BB24B394209709F355
:10108000F3CF5D9884E68093F202101611063CF0CF
:1010900081E090E0F6019383828310E000E0C801D4
:1010A000DF91CF911F910F91FF90EF90DF90CF9044
:1010B000BF90AF909F908F900895CF93DF931F9232
:1010C000CDB7DEB76983DC01ED91FC910280F3813D
:1010D000E02D41E050E0BE016F5F7F4F09950F901A
:1010E000DF91CF91089583E08093E9008091F20031
:1010F000882319F08AE38093E80008950E94CB01C9
:1011000090E00895CF93DF931F92CDB7DEB7FC0137
:101110008485958597FD08C02FEF3FEF358724879D
:101120000F90DF91CF910895CE0101960E94A10109
:10113000019719F4898190E0F3CF8FEF9FEFF0CF03
:101140000F931F93CF93DF931F92CDB7DEB78C0120
:10115000FC018485958597FF0BC0CE0101960E9406
:10116000A101019771F4898190E0F8019587848746
:10117000F801848595850F90DF91CF911F910F9194
:1011800008958FEF9FEFF1CFFC018485958597FD42
:101190000BC09FB7F89482E08093E9008091F20041
:1011A0009FBF90E0019608959FB7F89482E08093E6
:1011B000E9008091F2009FBF90E0089560E0FC019B
:1011C00080810C94120361E0FC0180810C94120375
:1011D000EF92FF920F931F93CF93DF93EC01CB011C
:1011E000072E000CAA0BBB0B8C839D83AE83BF83A1
:1011F000598748878B81882339F18B01F12CE12CA9
:1012000061E088810E9412036885798590E080E022
:101210000E94D00460E088810E941203688579856D
:1012200090E080E00E94D0048FEFE81AF80A0E15D3
:101230001F0531F760E08881DF91CF911F910F91F9
:10124000FF90EF900C941203DF91CF911F910F91BB
:10125000FF90EF90089548EC50E064E070E08FEB71
:1012600095E00C94E8088F929F92AF92BF92CF9234
:10127000DF92EF92FF92CF93DF93EC016A017B0143
:1012800080E8C81A83E4D80A8DE6E80A88E3F80AF9
:101290008CE3882E912CA12CB12CC701B601A5019D
:1012A00094010E94EB306D83CA01B901A50194013C
:1012B0000E94EB306C83C701B60120E13EE040E0C4
:1012C00050E00E94EB30CA01B90128E130E040E073
:1012D00050E00E94EB306B83C701B60120E831E596
:1012E00041E050E00E94EB30188263E97EEF4881D4
:1012F000542F537081E009F080E090E0FC01E35945
:10130000FE4F2E173F0740F0FB01E81BF90B2E0F95
:101310003F1F4F5F4883EBCF81E089838981682F2E
:101320006150770BFB01E455FF4FE491511103C06D
:10133000823009F4EF5FF0E02E173F0720F02E1BFC
:101340003F0B8F5FEACF2F5F2A83DF91CF91FF9012
:10135000EF90DF90CF90BF90AF909F908F900895C7
:10136000CF93DF93EC010E942B0528EE33E040E0A1
:1013700050E00E94EB308091E9029091EA02A09146
:10138000EB02B091EC02BA01A901480F591F6A1F84
:101390007B1FCE010E943309CE01DF91CF910895CA
:1013A000DC0150E0ECEAF0E081E0861730F4949143
:1013B000490F511D8F5F3196F8CF633038F0CD0162
:1013C00083709927892B11F44F5F5F4F9D012D5F2B
:1013D0003F4F36952795369527956DE671E0A69F88
:1013E000C001A79F900DB69F900D11240197820F09
:1013F000931F840F951F0895EF92FF920F931F93F1
:10140000CF93DF93EC0188814A81698190E00E944B
:10141000D0099C01A8E1B0E00E944F312B817B01F3
:101420008C01E20EF11C011D111DA8019701ACE316
:10143000B0E00E940D312C817B018C01E20EF11C89
:10144000011D111DA80197010E940D312D81620F10
:10145000711D811D911D60587C4B8249974CDF9115
:10146000CF911F910F91FF90EF900895CF92DF924F
:10147000EF92FF920E94FC096B017C010E942B05F8
:1014800028EE33E040E050E00E94EB30C21AD30A6D
:10149000E40AF50AC092E902D092EA02E092EB0275
:1014A000F092EC02FF90EF90DF90CF900895FC0156
:1014B00080814281618190E00E94D009069667E0B8
:1014C00070E00E945E310895CF92DF92EF92FF921A
:1014D0000F931F93CF93DF93EC0181E0809375040A
:1014E00080E58093970410927604109298048D2FD3
:1014F00090E00E948402CE0199270E94840281E03C
:101500000E94E0030E94BB036B017C0180916F0489
:10151000811163C081E080936F0480936E049FEF1C
:1015200090936D0410926C0410926B0480934A04A3
:1015300080914A04806A80934A04809149048130F2
:1015400009F084C0109249040E94BB036B017C0126
:1015500080914A048093BB00809171049091720441
:10156000A0917304B0917404892B8A2B8B2BA1F06A
:101570000E94BB03009171041091720420917304C6
:10158000309174046C197D098E099F09061717079D
:101590002807390708F442C08091BC0083FDD8CFEA
:1015A00085EC8093BC000E94BB036B017C018091A1
:1015B0006F04813009F44CC080916C0481116AC0C1
:1015C00080916C04EBE4F4E0A9E2B4E090E09817B9
:1015D00051F121912D939F5FFACF809171049091E9
:1015E0007204A0917304B0917404892B8A2B8B2B05
:1015F00009F48CCF0E94BB03009171041091720416
:1016000020917304309174046C197D098E099F092F
:10161000061717072807390708F078CF809170045C
:101620000E945E0380E010922804809327048823A0
:1016300099F189E994E00E941502DF91CF911F9101
:101640000F91FF90EF90DF90CF90089585EEA9CF96
:101650008091710490917204A0917304B09174040C
:10166000892B8A2B8B2B09F4A2CF0E94BB030091FC
:1016700071041091720420917304309174046C19F8
:101680007D098E099F09061717072807390708F0F3
:101690008ECFC4CF81E096CF8FEFCFCFEF92FF9266
:1016A0000F931F93CF93DF93E090CE05F090CF057B
:1016B000813429F1C6E0D0E0853411F0C1E0D0E0FA
:1016C00087E08C9F80018D9F100D1124EC16FD0684
:1016D000D4F0C8010797801791076CF40E94640A40
:1016E000811109C0C80106978017910724F40E9450
:1016F000640A882351F02196095F1F4FE7CF85E0E8
:10170000E82EF12CDBCFD0E0C0E0CE01DF91CF910D
:101710001F910F91FF90EF900895DF92EF92FF924B
:101720000F931F93CF93DF938C017B01D0E0C0E038
:1017300087E0D82E2091CE053091CF05D29EC001F2
:10174000D39E900D11248C179D078CF0CE010E9422
:10175000640A882351F0F801CD31D1050CF0F7016E
:10176000808191810196918380832796E3CFDF91D9
:10177000CF911F910F91FF90EF90DF900895CF923E
:10178000DF92EF92FF920F931F93CF93DF937B0132
:10179000009741F18C0182E0C82ED12C82E090E0CC
:1017A0000E948731EC011882A601B8010E946933BA
:1017B0001A82CE010E943D30682FC7010E940305A6
:1017C000209719F0CE010E9423320E5F1F4F82E056
:1017D000C80ED11C8FEFE81AF80A8EE0C816D104A3
:1017E000E9F60CC0D0E0C0E060E0C7018C0F9D1F9F
:1017F0000E9403052196C630D105B1F7DF91CF9144
:101800001F910F91FF90EF90DF90CF900895CF93AD
:10181000DF93EC0188819981009711F00E942332B7
:10182000198218821D821C821B821A82DF91CF913D
:101830000895FC0180819181009711F00C9423326E
:101840000895FB0101900020E9F73197AF01461B95
:10185000570BDC01ED91FC910280F381E02D09949E
:101860008F929F92AF92BF92EF92FF920F931F932E
:10187000CF93DF93CDB7DEB7A1970FB6F894DEBF55
:101880000FBECDBF7C01FA01CB0119A2223008F4B2
:101890002AE08E010F5D1F4F822E912CB12CA12CBE
:1018A000BF01A50194010E94EB30F901CA016A3021
:1018B0000CF5605DD8016E938D01232B242B252B15
:1018C00079F790E080E0109721F0BD01C7010E94F8
:1018D000210CA1960FB6F894DEBF0FBECDBFDF91ED
:1018E000CF911F910F91FF90EF90BF90AF909F907D
:1018F0008F900895695CDECFCF92DF92EF92FF92D6
:101900000F931F93CF93DF936B01770FEE08FF08C0
:10191000F7FE1BC0EC016DE20E948B068C01442790
:101920005527BA014C195D096E097F092AE0CE01DD
:101930000E94300C800F911FDF91CF911F910F916A
:10194000FF90EF90DF90CF9008952AE0B701A601B5
:10195000DF91CF911F910F91FF90EF90DF90CF908B
:101960000C94300C64E571E00C94210CCF93DF9360
:10197000BC0182E495E00E94A006EC0182E495E0BF
:101980000E94B20C8C0F9D1FDF91CF910895CF93D1
:10199000DF93BC0182E495E00E947C0CEC0182E4C0
:1019A00095E00E94B20C8C0F9D1FDF91CF9108959E
:1019B000CF93DF93D0E0C0E0009731F0BC0182E428
:1019C00095E00E94210CEC0182E495E00E94B20CAB
:1019D0008C0F9D1FDF91CF9108950F931F93CF938D
:1019E000DF93EC010E9492068C01CE010E94B20CA2
:1019F000800F911FDF91CF911F910F9108953F921A
:101A00004F925F926F927F928F929F92AF92BF920E
:101A1000CF92DF92EF92FF920F931F93CF93DF93BA
:101A2000EC013B01FC0101900020E9F73197E81B34
:101A3000F90BD12CC12C329768F042E050E067E5F9
:101A400071E00E94AB3331E020E0892B09F030E0F7
:101A5000C32ED22EB12CA12CEE24E394F12C2E0116
:101A60004C0C5D1C8091CE059091CF0505968E158E
:101A70009F050CF461C010E000E0302E82E090E0A1
:101A80000E948731EC01F801EE0FFF1FE40DF51DF8
:101A900080819181998388831A82CE010E943D3092
:101AA0004C010115110539F481E0C816D10419F46F
:101AB000E0E58E1A9108C8018A0D9B1D0E94640AF8
:101AC0008815190479F5209719F0CE010E94233268
:101AD00033940F5F1F4F0730110579F6F7E0AF0E13
:101AE000B11C85E0831520F527E02E9DC0012F9DB8
:101AF000900D112401970E94640AF3018083C701AD
:101B0000DF91CF911F910F91FF90EF90DF90CF90D9
:101B1000BF90AF909F908F907F906F905F904F900D
:101B20003F9008952097D1F2CE010E942332D6CF64
:101B3000FFEFEF1AFF0A96CFF12CE12CE0CFCF9206
:101B4000DF92EF92FF920F931F93CF93DF931F9239
:101B5000CDB7DEB74983FC0101900020E9F731974A
:101B6000E81BF90BDC01EB30F10568F4F12CE12CFA
:101B7000C7010F90DF91CF911F910F91FF90EF90D0
:101B8000DF90CF9008952D91022E000C330B20533F
:101B900031092A30310550F79D01281B390B2E17CA
:101BA0003F0788F3F62E8C01BE016F5F7F4F0E94C6
:101BB000FF0C892BD9F68F2D0E944E0B7C01181635
:101BC0001906A4F6019727E0289F6001299FD00CF1
:101BD0001124B601C8010E94BF0B6981C601069697
:101BE0000E940305C5CFCF92DF92EF92FF920F9331
:101BF0001F93CF93DF931F92CDB7DEB71982BE013B
:101C00006F5F7F4F0E94FF0C7C01019727E0289FA8
:101C10006001299FD00C112410E000E060E0C801B1
:101C20008C0D9D1D0E9403050F5F1F4F073011058E
:101C3000A9F7C7010F90DF91CF911F910F91FF90EE
:101C4000EF90DF90CF90089560E171E080911C04E7
:101C500090911D040E94FF0C009731F480913A038B
:101C6000813051F482E008959C01215031092530E2
:101C7000310520F00697B4F780E0089581E00895DB
:101C800046E050E06BE373E080911A0490911B04EE
:101C90000E94AB3321E0892B09F020E0822F0895C8
:101CA0004F925F926F927F928F929F92AF92BF926C
:101CB000CF92DF92EF92FF920F931F93CF93DF9318
:101CC000CDB7DEB7C850D1400FB6F894DEBF0FBE17
:101CD000CDBF10921D0410921C0410921B04109290
:101CE0001A041092190410921804109217041092FA
:101CF00016041092150410921404109213041092FA
:101D00001204109211041092100465E571E0FC01B8
:101D1000808191810E9464307C0165E571E090E0F2
:101D200080E00E9464308C01E114F10409F452C196
:101D300042E050E06AE571E0C7010E94AB33892BB5
:101D400051F043E050E06DE571E0C7010E94AB3314
:101D5000892B09F002C1F701808180931E0462E2A1
:101D600070E0C7010E9490330097E9F001969093CC
:101D70001D0480931C0462E270E00E94903300977F
:101D800011F0FC01108280911E04893461F4E0910D
:101D90001C04F0911D0480818B3229F43196F0935C
:101DA0001D04E0931C0442E050E064E671E0C701CA
:101DB0000E94AB33892B09F04EC08BE480931E0444
:101DC00062E270E0C7010E949033009709F443C0BB
:101DD00067E671E001960E9464304C0167E671E0AD
:101DE00090E080E00E9464305C0169E671E090E080
:101DF00080E00E9464306C0165E671E090E080E074
:101E00000E9464307C0165E671E090E080E00E9411
:101E100064308114910421F090921D0480921C047E
:101E2000A114B10421F0B0921B04A0921A04C114B1
:101E3000D10421F0D0921904C0921804E114F104E5
:101E400021F0F0921704E0921604009721F090938D
:101E50001504809314049E012F5F3F4F690180E0B9
:101E600091E0F9019C01119221503040E1F70115F8
:101E7000110509F4B1C0F8018081882309F48FC0ED
:101E80009181903309F08BC0803309F088C00190B4
:101E90000020E9F731977F01E01AF10A83E0A82ECC
:101EA000B12C912C812C3601680C791CAE14BF0426
:101EB00008F072C0CB5FDE4F1882C550D140F801E8
:101EC0008081CF5FDE4F8883C150D1408181CE5F5A
:101ED000DE4F8883C250D1404280CD5FDE4F4882C2
:101EE000C350D1405380CC5FDE4F5882C450D140A4
:101EF0006BE671E0CE018F5F9E4F0E949B33892B72
:101F000031F160E771E0CE018F5F9E4F0E949B33FD
:101F1000892BE9F0C85FDE4F1882C850D140CA5FF4
:101F2000DE4F4882C650D140C95FDE4F5882C7504D
:101F3000D14040E150E070E060E0CE018A5F9E4F0A
:101F40000E94262FFFEF8F1A9F0AF3016083F4E0AF
:101F5000AF0EB11C0C5F1F4FA6CF42E050E061E610
:101F600071E0C7010E94AB33892B09F01CCF81E5DA
:101F700080931E046701F2E0CF0ED11C6CE270E08A
:101F8000C6010E949033009711F0FC011082D0929C
:101F90001D04C0921C0407CFF301108286018091BA
:101FA0001E048535C9F065E771E0C8010E94643000
:101FB00010E0009789F01F5F1330D1F128F5113040
:101FC00069F1123081F165E771E090E080E00E94F4
:101FD0006430EFCF892B19F7C85FDE4F0FB6F89446
:101FE000DEBF0FBECDBFDF91CF911F910F91FF904C
:101FF000EF90DF90CF90BF90AF909F908F907F90A9
:102000006F905F904F9008951530E1F0B0F016306A
:10201000D1F69093110480931004D5CF90931B04B4
:1020200080931A04D0CF9093190480931804CBCFD7
:102030009093170480931604C6CF90931504809351
:102040001404C1CF9093130480931204BCCF85ED88
:102050008093BC008091710490917204A0917304EC
:10206000B09174040796A11DB11D23E0B695A79504
:10207000979587952A95D1F72091BC0024FD03C040
:1020800010926F0408954091710450917204609110
:10209000730470917404452B462B472B69F300970A
:1020A000A105B10541F025E32A95F1F7000001975C
:1020B000A109B109E1CF809170040C945E030F93E4
:1020C0001F93CF93DF938C01EB01FC018081918101
:1020D0000097E1F06881798161157105A9F042816D
:1020E00053812C813D814217530770F00E94A43325
:1020F0008C819D81F801958384831D821C82DF91F0
:10210000CF911F910F9108950E9423328881998168
:10211000F801918380838A819B81938382838C8160
:102120009D8195838483198218821B821A82E5CF50
:1021300067E771E080911804909119040E9472334E
:10214000892B29F581E40E944E0B019759F40E94D6
:102150002B0940E061E480911C0490911D040E94D1
:102160009F0D08958091FF02882349F081E40E9429
:102170004E0B181619061CF41092FF02E8CF42E32A
:1021800050E068E070E08FEB95E00E94E80880E0A6
:1021900008950F931F93CF93DF938C01EB010E945F
:1021A000C5308883C80101960E94C5308983CE015D
:1021B000DF91CF911F910F910895CF93DF93EB01A2
:1021C0000E94C5308883CE01DF91CF910895CF93CF
:1021D000DF93EB010E94C5308883CE01DF91CF9160
:1021E00008950F931F93CF93DF930BE313E0D0E099
:1021F000C0E0CE010E94C530F80181938F01219685
:10220000C730D105B1F78AE090E00E94C5308093D5
:1022100023048BE090E00E94C530809324048CE07E
:1022200090E00E94C530809325048DE090E00E94EC
:10223000C530809326046AE373E086E490E00E9450
:10224000DD1068E373E088E290E00E94E71066E248
:1022500073E08BE290E00E94E71067E373E082E3B3
:1022600090E00E94E71066E373E084E390E00E9450
:10227000DD1061E373E086E390E00E94C91069E33A
:1022800073E08CE390E00E94E71064E373E08EE378
:1022900090E00E94C9106FE273E08AE490E00E942F
:1022A000C91063E073E08CE490E00E94E7106FEAED
:1022B00073E08EE490E00E94C91067EE72E08AE558
:1022C00090E00E94C91065EE72E084E690E00E9402
:1022D000C91063EE72E08EE690E00E94C91062EED3
:1022E00072E088EC90E00E94E710D0E0C0E0BE0110
:1022F0006E5E7C4F8CED90E00E94C910BE016C5F59
:102300007C4F8EED90E00E94C9102296CE30D10510
:1023100071F7DF91CF911F910F910895FF920F9365
:102320001F93CF93DF93EC01F62E08811981C8012A
:102330000E94C530F81621F06F2DC8010E94CD30E3
:10234000CE01DF91CF911F910F91FF900895EF92F1
:10235000FF920F931F93CF93DF9300D0CDB7DEB7DB
:1023600083E2E82E84E0F82E0AE010E01A83098365
:10237000F70161917F01CE0101960E948E110F5FDE
:102380001F4F0E30110591F783E294E00F900F90EC
:10239000DF91CF911F910F91FF90EF900895CF9211
:1023A000DF92EF92FF920F931F93CF93DF9300D0B2
:1023B000CDB7DEB76C017C0110E000E01A83098321
:1023C000F70161917F01CE0101960E948E110F5F8E
:1023D0001F4F0730110591F7C6010F900F90DF9145
:1023E000CF911F910F91FF90EF90DF90CF900895C4
:1023F000EF92FF920F931F93CF93DF9300D0CDB74F
:10240000DEB78C017B019A838983FB016081CE0159
:1024100001960E948E110F5F1F4F1A830983F701E7
:102420006181CE0101960E948E11C7010F900F901D
:10243000DF91CF911F910F91FF90EF9008959F92A0
:10244000AF92BF92CF92DF92EF92FF920F931F93C2
:10245000CF93DF9300D0CDB7DEB76C01B62E7A01F3
:102460001A821982BE016F5F7F4F80E590E00E9463
:10247000C91089819A818C5E9A4F2DE0289F800136
:10248000299F100D1124B801C6010E94BF0BF7014E
:10249000A0809180C380D4806281C80107960E9489
:1024A0000305692DC80108960E9403056A2DC8011D
:1024B00009960E9403056C2DC8010A960E94030527
:1024C0006D2DC8010B960E9403056B2DC8010C965B
:1024D0000E94030589819A810196843FF1E09F075C
:1024E000B9F09A838983BE016F5F7F4F80E590E0EA
:1024F0000E94F8110F900F90DF91CF911F910F91D3
:10250000FF90EF90DF90CF90BF90AF909F90089595
:102510001A821982E8CFFF920F931F93CF93DF9314
:10252000CDB7DEB72C970FB6F894DEBF0FBECDBF88
:102530008C01F62ECE0107960E94B0098F81898307
:1025400088858A8389858B838A858C838B858D8317
:102550008C858E83AE014F5F5F4F6F2DC8010E9447
:102560001F12BE016F5F7F4F80E590E00E94C9108F
:1025700089819A810E94C70C2C960FB6F894DEBF11
:102580000FBECDBFDF91CF911F910F91FF900895A6
:102590000F931F93CF93DF9300D0CDB7DEB78B019E
:1025A0009A838983FB016081CE0101960E948E117E
:1025B000C8010F900F90DF91CF911F910F91089557
:1025C0000F931F93CF93DF9300D0CDB7DEB78B016E
:1025D0009A838983FB016081CE0101960E948E114E
:1025E000C8010F900F90DF91CF911F910F91089527
:1025F0000F931F93CF93DF93CDB7DEB72B970FB613
:10260000F894DEBF0FBECDBF8FEB95E00E94E308CC
:1026100010E000E08091CE059091CF0523E0880F77
:10262000991F2A95E1F7081719073CF460E0C801E3
:102630000E9403050F5F1F4FEDCF04E012E460E03E
:10264000C8010E9403050F5F1F4F0C3C8BE5180764
:10265000B1F710E000E01A83098360E0CE01019633
:102660000E948E110F5F1F4F011582E0180799F726
:1026700087E0EDE7F1E0DE01119601900D928A9579
:10268000E1F7CE0101960E94CF1182E080932304EE
:102690008093240480932504809326040E94A7112C
:1026A00019861886BE01685F7F4F86E490E00E941D
:1026B000F81111E01887BE01685F7F4F88E290E053
:1026C0000E94C8121A87BE01665F7F4F8BE290E0BE
:1026D0000E94C8121B87BE01655F7F4F8CE390E0AC
:1026E0000E94C8121092030363E073E08CE490E050
:1026F0000E94C81288E190E09093B0038093AF03EA
:102700006FEA73E08EE490E00E94F81102E310E0BB
:102710001093E8020093E70267EE72E08AE590E02A
:102720000E94F8111093E6020093E50265EE72E054
:1027300084E690E00E94F8111093E4020093E30213
:1027400063EE72E08EE690E00E94F8110E942B0981
:1027500061E08EE290E00E94CD308EE090E09093B8
:10276000300380932F036FE273E08AE490E00E94CD
:10277000F81188E19EE00FB6F894A8958093600068
:102780000FBE9093600060ED77E080E090E00E94E3
:10279000D0042B960FB6F894DEBF0FBECDBFDF91ED
:1027A000CF911F910F9108950F931F93CF93DF93B4
:1027B000EC0188819981009759F02A813B81261785
:1027C000370730F081E0DF91CF911F910F9108958D
:1027D0008B016F5F7F4F0E94AC32009759F0998355
:1027E00088831B830A832C813D81232B59F7FC01AD
:1027F0001082E8CF80E0E7CFEF92FF920F931F9314
:10280000CF93DF936115710541F480E0DF91CF91A3
:102810001F910F91FF90EF90089541155105B1F070
:102820007B01EC010C811D81040F151FB8010E9472
:10283000D413882351F3288139818C819D81B7017C
:10284000820F931F0E94A4331D830C8381E0DECF8F
:10285000CF93DF9300D0CDB7DEB769831A8241E012
:1028600050E0BE016F5F7F4F0E94FC130F900F90EE
:10287000DF91CF910895FB0101900020E9F7319796
:10288000AF01461B570B0C94FC13FB01448155818F
:10289000608171810C94FC13EF92FF920F931F9350
:1028A000CF93DF93EC017B018A01BA010E94D4131C
:1028B00081110BC0CE010E94070CCE01DF91CF9198
:1028C0001F910F91FF90EF9008951D830C83B70126
:1028D000888199810E94A433F0CFFB0101900020F0
:1028E000E9F73197AF01461B570B0C944C140F932B
:1028F0001F93CF93DF93CDB7DEB729970FB6F89428
:10290000DEBF0FBECDBF8C01862FF8011182108271
:1029100013821282158214824AE0BE016F5F7F4FDC
:1029200090E00E949830BE016F5F7F4FC8010E9407
:102930006D1429960FB6F894DEBF0FBECDBFDF91A0
:10294000CF911F910F910895CF93DF93EC01FB017D
:102950008617970749F0608171816115710541F013
:10296000448155810E944C14CE01DF91CF9108958E
:102970000E94070CF9CFFC0111821082138212828F
:10298000158214820C94A414FC011182108213820B
:102990001282158214826115710551F0FB010190BC
:1029A0000020E9F73197AF01461B570B0C944C14EC
:1029B00008950F931F93CF93DF93EC018B0166E58E
:1029C00071E00E94C414C8010E945D0697FD05C015
:1029D000682FCE010E942814F6CFCE01DF91CF914F
:1029E0001F910F910895CF93DF9300D000D000D0B6
:1029F000CDB7DEB765EA74E0CE0101960E94D91426
:102A0000CE0101960E94190C64E670E080E090E02F
:102A10000E94D00460ED72E085EA94E00E94A00676
:102A200026960FB6F894DEBF0FBECDBFDF91CF91D3
:102A30000895EF92FF920F931F93CF93DF9300D0EF
:102A400000D000D0CDB7DEB77C018B0165EA74E021
:102A5000CE0101960E94D914CE0101960E94190C54
:102A600064E670E080E090E00E94D00466EC72E0E2
:102A700085EA94E00E94A006B70185EA94E00E94EE
:102A8000920663EC72E085EA94E00E94A00668EC8E
:102A900070E080E090E00E94D004B80185EA94E004
:102AA0000E94ED0C68EE73E080E090E00E94D0049C
:102AB0006AE185EA94E00E948B0664EF71E080E0B1
:102AC00090E00E94D00465EA74E0CE0101960E9475
:102AD000D914CE0101960E94190C65EA74E0CE016A
:102AE00001960E94D914CE0101960E94190C2696D7
:102AF0000FB6F894DEBF0FBECDBFDF91CF911F910F
:102B00000F91FF90EF9008950F931F93CF93DF9352
:102B100000D000D000D0CDB7DEB78C016AEB72E0F8
:102B200085EA94E00E94A006B80185EA94E00E943C
:102B30007C0C63EB72E085EA94E00E94A00668EEEC
:102B400073E080E090E00E94D00462E475E0CE0182
:102B500001960E94D914CE0101960E94190C269666
:102B60000FB6F894DEBF0FBECDBFDF91CF911F919E
:102B70000F910895CF93DF9300D000D000D0CDB750
:102B8000DEB78091D3059091D4050E94841565EA43
:102B900074E0CE0101960E94D914CE0101960E94E4
:102BA000190C67EA72E085EA94E00E94A00664EFDF
:102BB00071E080E090E00E94D00465EA74E0CE010C
:102BC00001960E94D914CE0101960E94190C6BE95E
:102BD00072E085EA94E00E94A00664EF71E080E074
:102BE00090E00E94D00465EA74E0CE0101960E9454
:102BF000D914CE0101960E94190C6FE872E085EAA3
:102C000094E00E94A00664EF71E080E090E00E94F2
:102C1000D00465EA74E0CE0101960E94D914CE0179
:102C200001960E94190C6BE772E085EA94E00E941D
:102C3000A00664EF71E080E090E00E94D00465EAB5
:102C400074E0CE0101960E94D914CE0101960E9433
:102C5000190C6CE572E085EA94E00E94A00664EF2E
:102C600071E080E090E00E94D00465EA74E0CE015B
:102C700001960E94D914CE0101960E94190C65E5B7
:102C800072E085EA94E00E94A00664EF71E080E0C3
:102C900090E00E94D00465EA74E0CE0101960E94A3
:102CA000D914CE0101960E94190C67E472E085EAFE
:102CB00094E00E94A00664EF71E080E090E00E9442
:102CC000D00465EA74E0CE0101960E94D914CE01C9
:102CD00001960E94190C6BE372E085EA94E00E9471
:102CE000A00664E670E080E090E00E94D00465EA0F
:102CF00074E0CE0101960E94D914CE0101960E9483
:102D0000190C64E372E085EA94E00E94A00626961E
:102D10000FB6F894DEBF0FBECDBFDF91CF910895FF
:102D20000F931F93CF93DF9300D000D000D0CDB787
:102D3000DEB78C0165EA74E0CE0101960E94D914D9
:102D4000CE0101960E94190C64E670E080E090E0EC
:102D50000E94D00466E272E085EA94E00E94A00638
:102D6000B80185EA94E00E94920662E272E085EA88
:102D700094E00E94A00668E873E180E090E00E9481
:102D8000D0046CE172E085EA94E00E94A00668EE4F
:102D900073E080E090E00E94D00465EA74E0CE0128
:102DA00001960E94D914CE0101960E94190C269614
:102DB0000FB6F894DEBF0FBECDBFDF91CF911F914C
:102DC0000F910895EF92FF920F931F93CF93DF938C
:102DD00000D000D000D0CDB7DEB78C0165EA74E03A
:102DE000CE0101960E94D914CE0101960E94190CC1
:102DF00064E670E080E090E00E94D00462E172E05E
:102E000085EA94E00E94A00668EE73E080E090E01E
:102E10000E94D004FF24F39487E2E82E85EA94E030
:102E20000E942B072091DD051816190664F5211163
:102E30002AC085EA94E00E94090790912204992310
:102E4000E9F090912104292F30E020533A4F225885
:102E50003F4FF9018A3051F080839F5F983218F01C
:102E6000E0922104DBCF90932104D8CF10821092FE
:102E7000220410922104F092DD05D0CF883371F640
:102E8000F0922204CBCF62EF71E0222321F0109266
:102E9000DD056EE476E0C8010E94C414C8012696E0
:102EA0000FB6F894DEBF0FBECDBFDF91CF911F915B
:102EB0000F91FF90EF900895EF92FF920F931F9361
:102EC000CF93DF93CDB7DEB72C970FB6F894DEBF64
:102ED0000FBECDBF8C017B0160E872E00E947233AF
:102EE000892B09F063C00E94C406809110018230D2
:102EF000B0F480912703811112C02091230488EE41
:102F000093E0289FA001299F500D112441155105E0
:102F1000E9F161E070E080EB95E00E94E8080E9432
:102F2000C40662E0C7010E948B1280913403909125
:102F300035030197E9F464E871E0CE0107960E9439
:102F4000C41460911C0470911D04CE0101960E946E
:102F5000C414BE01695F7F4FCE0101960E9419150E
:102F6000CE0101960E94190CCE0107960E94190C01
:102F700081E02C960FB6F894DEBF0FBECDBFDF9177
:102F8000CF911F910F91FF90EF9008958091B00520
:102F90000E94E902892B29F480EB95E00E94E30866
:102FA000BECF80EB95E00E94DE08B9CF67E871E004
:102FB000C8010E947233892B71F5809110018D7FB9
:102FC000B1F480913603811112C02091240488EE5F
:102FD00093E0289FA001299F500D11244115510510
:102FE00051F061E070E081EA95E00E94E8080E94FB
:102FF000C40663E097CF8091A1050E94E902892B66
:1030000029F481EA95E00E94E308F1CF81EA95E096
:103010000E94DE08ECCF6BE871E0C8010E947233B9
:10302000892B99F468E572E080E090E00E94D0047A
:103030000E94C40680911001882319F0833009F0A2
:1030400097CF81E08093250394CF80E092CFBF9209
:10305000CF92DF92EF92FF920F931F93CF93DF9364
:10306000CDB7DEB7C259D1090FB6F894DEBF0FBE97
:10307000CDBF1A821982FE0133968EE7DF011D92C1
:103080008A95E9F7CE0183579F4F0E94B009CF562A
:10309000DF4FB880C159D040C057DF4FC880C059FA
:1030A000D040C357DF4FD880CD58D040C257DF4FF4
:1030B000E880CE58D040C157DF4FF880CF58D0407D
:1030C000CE0183579F4F0E94570AE82FF0E0EE0F82
:1030D000FF1FEC5FFC4F10810181CE0183579F4F92
:1030E0000E94570A1F92BF921F92CF921F92DF92A7
:1030F0001F92EF921F92FF920F931F93E82FF0E021
:10310000EE0FFF1FEE5EFC4F81818F9380818F93C6
:10311000809126031F928F93809138031F928F9383
:10312000809132038F93809131038F938091360386
:103130001F928F93809137031F928F938091B003DA
:103140008F938091AF038F93809103031F928F938E
:10315000809135038F93809134038F938091300356
:103160008F9380912F038F93E3E2F4E081811F928C
:103170008F9380811F928F938FE891E09F938F931D
:103180008E010F5F1F4F1F930F930E94C8330FB61E
:10319000F894DEBF0FBECDBFB801CE0189579F4F57
:1031A0000E94C41460911C0470911D04CE018F57BD
:1031B0009F4F0E94C414BE0169577F4FCE018F57A5
:1031C0009F4F0E941915CE018F579F4F0E94190CD7
:1031D000CE0189579F4F0E94190CCE56DF4F0FB674
:1031E000F894DEBF0FBECDBFDF91CF911F910F913D
:1031F000FF90EF90DF90CF90BF900895CF92DF9235
:10320000FF920F931F93CF93DF93CDB7DEB76297F3
:103210000FB6F894DEBF0FBECDBF8C01F62E6A014B
:1032200066E571E0CE010D960E94C41489E06F2D11
:103230008F1540F5CE0101960E947714BE016F5F95
:103240007F4FCE010D960E945F10BE01635F7F4FDE
:10325000C8010E94BB14CE0101960E94190CCE0138
:103260000D960E94190CC80162960FB6F894DEBF45
:103270000FBECDBFDF91CF911F910F91FF90DF90D7
:10328000CF900895CE010196E5E0CE16D104D9F491
:103290000E947714BE016F5F7F4FCE010D960E9492
:1032A0005F10CE0101960E94190CF8011182108264
:1032B0001382128215821482BE01635F7F4FC801A0
:1032C0000E945F10CCCF0E94771460EE72E0CE01B6
:1032D00007960E94C4144D815E8169817A81CE0176
:1032E00007960E94FC13811104C0CE0107960E942C
:1032F000070CBE01695F7F4FCE010D960E94A4149A
:10330000CE0107960E94190CCCCFBF92CF92DF92CC
:10331000EF92FF920F931F93CF93DF93CDB7DEB75A
:103320002C970FB6F894DEBF0FBECDBF8C016B019A
:1033300066E571E0CE0107960E94C41487E08C9D7B
:1033400070018D9DF00C1124C70101970E94640A41
:1033500080931001670187E0C81AD108B12CF12CC5
:10336000E12CC7018C0D9D1D0E94640A811101C0D2
:10337000B39493E09B15D0F460EE72E0C8010E9414
:10338000C414CE0107960E94190CC8012C960FB6E2
:10339000F894DEBF0FBECDBFDF91CF911F910F918B
:1033A000FF90EF90DF90CF90BF900895A701682F16
:1033B000CE0101960E94FE18BE016F5F7F4FCE01C5
:1033C00007960E944514CE0101960E94190CEFEF5A
:1033D000EE1AFE0AF6E0EF16F10419F6F801118272
:1033E00010821382128215821482BE01695F7F4FA0
:1033F000C8010E945F10C5CFAF92BF92DF92EF92DB
:10340000FF920F931F93CF93DF93CDB7DEB7C054D6
:10341000D1090FB6F894DEBF0FBECDBF5C01198293
:10342000809125038E010F5D1F4F882309F44AC048
:1034300064EF71E0CE0101960E94A43360911C04F8
:1034400070911D04CE0101960E948533CE01C59670
:103450000E94B00988AD1F928F938DA91F928F9300
:103460008EA91F928F938FA91F928F9389EF91E05E
:103470009F938F931F930F930E94C833B801CE017F
:1034800001960E94853319A289AD0FB6F894DEBF6C
:103490000FBECDBF8A3008F08DC01F928F9387E09A
:1034A00092E09F938F931F930F930E94C8330F90C6
:1034B0000F900F900F900F900F90B801CE010196D2
:1034C0000E948533EE24E394F12CD12CB701C8017E
:1034D0000E9485198DA19EA1892B49F060EE72E0B2
:1034E00089A19AA10E949B33892B09F446C080913F
:1034F0002503DD2009F46FC0882309F460C081EA48
:1035000095E00E94DE0860E476E080E090E00E94B2
:10351000D00481EA95E00E94E30860E476E080E070
:1035200090E00E94D00481EA95E00E94DE0860E409
:1035300076E080E090E00E94D00481EA95E00E946D
:10354000E308BE016F5F7F4FCE01CB960E94C4148B
:10355000B801CE01C5960E94BB14BE01655C7F4FC9
:10356000CE01C5960E941915CE01C5960E94190C70
:10357000CE01CB960E94190CD394C8010E94190C5D
:103580003FEFE31AF30A84E0E816F10409F09ECF56
:1035900081E0C05CDF4F0FB6F894DEBF0FBECDBF39
:1035A000DF91CF911F910F91FF90EF90DF90BF902F
:1035B000AF9008951F928F9388E092E072CF68E8F1
:1035C00073E180E090E00E94D004B501CE01CB967B
:1035D0000E94BB14BDCF8823C1F3B3CFEF92FF92FB
:1035E0000F931F93CF93DF93CDB7DEB76F970FB6CF
:1035F000F894DEBF0FBECDBF8C017B0116161706F7
:103600000CF05CC0609118047091190446E050E021
:10361000CE0101960E94B933FF92EF928BE092E0C7
:103620009F938F937E018AE1E80EF11CFF92EF9247
:103630000E94C833B701CE0101960E9485330F90D6
:103640000F900F900F900F900F90809134039091F6
:103650003503BE016F5F7F4F02972CF5CE01449674
:103660000E94C414B801CE010E960E94C414BE017B
:103670006C5E7F4FCE010E960E941915CE010E96FC
:103680000E94190CCE0144960E94190C6F960FB639
:10369000F894DEBF0FBECDBFDF91CF911F910F9188
:1036A000FF90EF900895CE010E960E94C414CE01B3
:1036B0000E960E94FC19CE010E96E6CF60E171E0F5
:1036C0000E94FF0C181619060CF76FE072E0CE018D
:1036D0000E960E94C414B801CE0101960E94C41433
:1036E000BE01625F7F4FCE0101960E941915CE0187
:1036F00001960E94190CDFCF1F920F920FB60F9206
:1037000011242F933F934F935F936F937F938F93E6
:103710009F93AF93BF93EF93FF938091B900887FFE
:10372000803609F44AC0F0F5883209F4A7C018F5CC
:10373000803109F49BC0B8F4882309F4F9C08830BB
:1037400009F494C0FF91EF91BF91AF919F918F9138
:103750007F916F915F914F913F912F910F900FBE8D
:103760000F901F901895883109F488C0803251F766
:1037700080936D0414C0803409F49DC040F48033FC
:10378000B9F38833F9F680936D0485ECB0C08035C9
:1037900009F485C0883509F496C0883499F60E94EA
:1037A0002710D0CF883909F48CC038F5883729F034
:1037B00050F4883611F0803729F683E080936F0447
:1037C00010920F0457C0883809F47BC0803919F073
:1037D000803809F0B7CF80910F04803208F071C0B3
:1037E000E0910F0481E08E0F80930F048091BB0065
:1037F000F0E0E151FC4F80833DC0803B39F0E0F4C4
:10380000803A09F479C0883A09F09CCF84E080932B
:103810006F041092EC031092EB03E091E903F09136
:10382000EA0309958091EB0381110FC081E0809339
:10383000EB031092C90309C0803C09F4A6CF883C71
:1038400009F4A3CF883B09F07DCFE091EC0381E040
:103850008E0F8093EC03F0E0E753FC4F8081809360
:10386000BB009091EC038091EB0329C080914A0446
:103870008093BB0085EC8093BC0064CF90916C0476
:1038800080916B04981758F5E0916C0481E08E0FDD
:1038900080936C04F0E0E55BFB4F8081E9CFE09121
:1038A0006C0481E08E0F80936C048091BB00F0E08B
:1038B000E55BFB4F808390916C0480916B049817BB
:1038C000C8F285E8D8CFE0916C0481E08E0F809338
:1038D0006C048091BB00F0E0E55BFB4F808380913E
:1038E0006E0481115CCF81E08093490484EA809367
:1038F000BC0010926F0426CF85EC8093BC00109220
:103900006F0480910F04803230F4E0910F04F0E0F6
:10391000E151FC4F108260910F0470E0E091ED03E3
:10392000F091EE038FEE93E0099510920F040ACF09
:1039300010926D0434CF1F920F920FB60F92112484
:103940002F933F938F939F93AF93BF938091B40333
:103950009091B503A091B603B091B7033091B30332
:1039600023E0230F2D3758F50196A11DB11D20939B
:10397000B3038093B4039093B503A093B603B093BD
:10398000B7038091B8039091B903A091BA03B091A5
:10399000BB030196A11DB11D8093B8039093B90399
:1039A000A093BA03B093BB03BF91AF919F918F9146
:1039B0003F912F910F900FBE0F901F90189526E802
:1039C000230F0296A11DB11DD2CF1F920F920FB6E9
:1039D0000F9211248F939F938091E1009091E100C9
:1039E000937F9093E10083FF0FC01092E90091E074
:1039F0009093EB001092EC0092E39093ED00109204
:103A0000200498E09093F00082FF22C093E090930E
:103A1000E9009091F200992319F09AE39093E8005D
:103A20009091F202992341F09091F202915090937B
:103A3000F202911101C05D9A90911F04992341F007
:103A400090911F04915090931F04911101C0289AE6
:103A500084FF18C08091E2008E7E81608093E20036
:103A60008091E1008F7E8093E1008091F3028E7E51
:103A700080618093F3029F918F910F900FBE0F9002
:103A80001F90189580FFF7CF8091E2008E7E8061B5
:103A90008093E2008091E1008E7E8093E10080912E
:103AA000F3028E7E8160E5CF1F920F920FB60F92C8
:103AB0001124CF92DF92EF92FF920F931F932F93D7
:103AC0003F934F935F936F937F938F939F93AF93A6
:103AD000BF93EF93FF93CF93DF93CDB7DEB76C9790
:103AE000DEBFCDBF1092E9008091E80083FF25C0C2
:103AF00068E0CE0145960E94500682EF8093E80070
:103B00008D8987FF39C09091E80090FFFCCF982FF6
:103B1000907609F034C19E894F89588D2F89F88C91
:103B2000911131C0803861F58091F4028093F100E9
:103B30001092F1008EEF8093E8006C960FB6F89427
:103B4000DEBF0FBECDBFDF91CF91FF91EF91BF914F
:103B5000AF919F918F917F916F915F914F913F9125
:103B60002F911F910F91FF90EF90DF90CF900F90CA
:103B70000FBE0F901F9018959EEF9093E800C7CF4F
:103B80001092F100D5CF913059F48111D3CF41304B
:103B9000510581F68091F4028D7F8093F402CACFA3
:103BA000933049F48111C6CF4130510519F6809107
:103BB000F4028260F2CF953041F48091E80080FFFA
:103BC000FCCF20682093E300B5CF963009F0A9C060
:103BD0000B8D1C8D22E01092E9001092F0021092E1
:103BE000EF02F2122EC01092EE021092ED020E942D
:103BF0001F061F8299E09983FA8291E09E8390EAE2
:103C000098879AEF99872091EF023091F002275F11
:103C10003F4F3C832B838D831092E9001092F0027A
:103C20001092EF021093EE020093ED0249E050E093
:103C3000BE016F5F7F4F80E00E94F9050E941F0662
:103C400079CF1093EE020093ED020E948902DC010D
:103C500012960D911C910115110509F451C1D8015D
:103C6000ED91FC910480F581E02DBE016B5E7F4FEC
:103C7000C8010995009709F03EC1F801008511853A
:103C8000EACFF3E0FF120EC08F89882309F440C009
:103C9000823061F440E862E189E191E00E94C6056A
:103CA000811148CF81E28093EB0047CF813029F426
:103CB00040E868E080E191E0F1CF833099F70E941D
:103CC0008902DC011296ED90FC908E010F5F1F4F70
:103CD0006801E114F10479F0D701ED91FC910680BF
:103CE000F781E02DB801C7010995080F111DF701F3
:103CF000E084F184EECFD8011C92F60101900020FF
:103D0000E9F73197BF016C197D0940E0C601C6CFC4
:103D10006AEF70E0FB01449150E080E80E94F905F1
:103D200009CF973009F4BECF983021F481E0809319
:103D3000F10000CF993009F0FDCE837009F0B2CFC9
:103D4000E8E1F1E081E031E096E32191222371F096
:103D50008093E9003093EB00DF0111972C912093C1
:103D6000EC009093ED008F5F873079F78EE78093BA
:103D7000EA001092EA008F8980932004DBCE8B8DBD
:103D80009C8D1092E9001092F0021092EF02909335
:103D9000EE028093ED02898D811192C08E899D89FA
:103DA000913A49F4813209F07DCF47E050E064E078
:103DB00071E080E0B3CF913209F074CF833269F4BF
:103DC0008F89988DB0E0A0E080930001909301016D
:103DD000A0930201B0930301ADCE803269F48091CB
:103DE000E80082FFFCCF67E084E091E00E9450068B
:103DF0008BEF8093E8009ECE823209F09BCE8F89B4
:103E000080930B01EEEFFFE7859194918B3F9C4DE2
:103E100051F1E0E0F8E08091040190910501A0915A
:103E20000601B0910701803B9440A105B105F1F472
:103E300080910B0180FD1AC0EE3F8AE0F80789F5FA
:103E400087E797E791838083809160008093F102F8
:103E500088E19BE00FB6F894A895809360000FBEB0
:103E60009093600067CEEEEFFAE0D5CF808191812C
:103E70008737974709F05ECEA895809160008861EA
:103E8000809360008091F10280936000EE3F2AE011
:103E9000F20789F08091FE0A9091FF0A9183808356
:103EA00049CE808191818737980751F29093FF0A1C
:103EB0008093FE0AC5CF1092FF0A1092FE0A3ACEF6
:103EC0000E948902DC0112960D911C9101151105C9
:103ED00009F4E8CED801ED91FC910190F081E02D3C
:103EE000BE016B5E7F4FC8010995811123CEF80199
:103EF00000851185EBCF181619060CF41BCED2CE17
:103F0000F1E0FF12BECE6EEF70E004CF1F920F9271
:103F10000FB60F9211242F933F934F935F936F939C
:103F20007F938F939F93AF93BF93EF93FF9385EA14
:103F300094E00E944B07FF91EF91BF91AF919F9149
:103F40008F917F916F915F914F913F912F910F9042
:103F50000FBE0F901F9018951F920F920FB60F92E1
:103F600011242F938F939F93EF93FF93E091B504C8
:103F7000F091B6048081E091BB04F091BC0482FD15
:103F80001BC090818091BE048F5F8F732091BF040E
:103F9000821741F0E091BE04F0E0EB55FB4F958FA6
:103FA0008093BE04FF91EF919F918F912F910F907D
:103FB0000FBE0F901F9018958081F4CFCF93DF93A1
:103FC000E9E9F4E01382128288EE93E0A0E0B0E029
:103FD00084839583A683B78322E231E031832083F3
:103FE000E5EAF4E01382128284839583A683B78383
:103FF00024E331E0318320832DEC30E035872487C2
:104000002CEC30E03787268728EC30E0318B208B92
:1040100029EC30E0338B228B2AEC30E0358B248B7B
:104020002EEC30E0378B268B118E128E138E148E71
:10403000E2E4F5E01382128284839583A683B7833A
:1040400086E491E0918380838FEF9FEF958784874B
:1040500066E571E08AE796E00E94C414C0EDD5E001
:1040600082E090E09C838B8366E571E085ED95E0CE
:104070000E94C4141B861C861D861F861E868DE426
:10408000809376068CE48093770683E580937806A8
:1040900091E290937906888388EE93E09093CF0520
:1040A0008093CE05EFEBF5E012821286138614861C
:1040B0001586168684E090E091838083C1E0C383F7
:1040C00061E00E947F03E0EBF5E012821286138626
:1040D00014861586168689E090E091838083C383D9
:1040E00061E00E947F03E1EAF5E012821286138606
:1040F0001486158616868AE090E091838083C383B8
:1041000061E00E947F03E2E9F5E0128212861386E5
:1041100014861586168688E090E09183808313824A
:1041200060E0DF91CF910C947F03CF93DF93CDB705
:10413000DEB7ED970FB6F894DEBF0FBECDBF789413
:1041400084B5826084BD84B5816084BD85B582609C
:1041500085BD85B5816085BD80916E00816080934D
:104160006E001092810080918100826080938100B6
:1041700080918100816080938100809180008160C6
:104180008093800080919100826080939100809163
:104190009100816080939100809190008160809374
:1041A00090008091C10084608093C1008091C10023
:1041B00082608093C1008091C10081608093C100C2
:1041C0008091C30081608093C3008091C0008260B1
:1041D0008093C0008091C20081608093C200809172
:1041E0007A00846080937A0080917A008260809364
:1041F0007A0080917A00816080937A0080917A00C1
:10420000806880937A00109220041092F402109239
:10421000F3028091D70081608093D70080EA809379
:10422000D80089B5806189BD89B5826089BD09B42E
:1042300000FEFDCF61E070E080E090E00E94D004DD
:104240008091D8008F7C80618093D8008091E000BD
:10425000807F8093E0008091E1008E7E8093E1007A
:104260008DE08093E200559A209A87EF84BF0FB6C5
:10427000F894A89580916000886180936000109206
:1042800060000FBE60E08EE00E947F0361E084E189
:104290000E947F0362E085E10E947F0348EC50E0CA
:1042A00065E070E08FEB95E00E94E8088EE290E018
:1042B0000E94C5308111C9C161E084E10E941203EE
:1042C00064EF71E080E090E00E94D00460E084E15F
:1042D0000E9412038FEB95E00E94E3088FEF9FEF9F
:1042E00090934F0580934E0568EE73E080E090E078
:1042F0000E94D0040E94F110E0902F03F090300350
:10430000E091B504F091B60402E00083E091B104BD
:10431000F091B2041082E091B304F091B40480E112
:1043200080831092BD04E091B904F091BA0416E0C4
:104330001083E091B704F091B8048081806180839C
:10434000E091B704F091B804808188608083E091A7
:10435000B704F091B804808180688083E091B7044D
:10436000F091B80480818F7D80838091D0058C345A
:1043700009F045C068EE73E080E090E00E94D00450
:1043800066E571E085EA94E00E94A00668EE73E0BD
:1043900080E090E00E94D004E091B504F091B60472
:1043A0000083E091B104F091B2041082E091B30473
:1043B000F091B40487E680831092BD04E091B904C3
:1043C000F091BA041083E091B704F091B8048081B1
:1043D00080618083E091B704F091B80480818860A7
:1043E0008083E091B704F091B80480818068808375
:1043F000E091B704F091B80480818F7D808360E103
:1044000077E280E090E00E94D00460E571E085EA08
:1044100094E00E94A00665EA74E08E010F5F1F4FD2
:10442000C8010E94D914C8010E94190C68EE73E0FB
:1044300080E090E00E94D004F092D405E092D30591
:10444000C7010E94841564E471E085EA94E00E944B
:10445000A00668EE73E080E090E00E94D00465EA78
:1044600074E0C8010E94D914C8010E94190C68E3C5
:1044700071E085EA94E00E94A00668EE73E080E0B7
:1044800090E00E94D00465EA74E0C8010E94D9144B
:10449000C8010E94190C6CE271E085EA94E00E9468
:1044A000A00668EE73E080E090E00E94D00465EA28
:1044B00074E0C8010E94D914C8010E94190C0E941E
:1044C000BA1565EA74E0C8010E94D914C8010E94B7
:1044D000190C68EE73E080E090E00E94D004109226
:1044E00028041092270410927604109298040E94D7
:1044F000400383E092E09093EA038093E90384E031
:1045000092E09093EE038093ED0360E177E280E028
:1045100090E00E94D00481E090E00E94C5308F3F7F
:1045200011F40E94F812A091AF03B091B0031A16D3
:104530001B0674F420E437E74BE150E00E947F3122
:1045400060930C0170930D0180930E0190930F0105
:1045500064E170E08AE796E00E94D413C8010E94EB
:10456000E216B8018AE796E00E945F10C8010E9437
:10457000190C60ED77E080E090E00E94D00465EFD8
:1045800072E087EF92E00E948D0B80912F03909153
:1045900030030E94C70C60EE72E0C8010E94C41490
:1045A000C8010E949016C8010E94190C48EC50E006
:1045B00065E070E08FEB95E00E94E80885E1898373
:1045C00081E08A838B831C821D821E82C8010E9427
:1045D000360A68EB7BE080E090E00E94D0040E9405
:1045E000F3147E012AE1E20EF11CCE0107969DAF85
:1045F0008CAF70EE272E75E0372EDD24D3946DE658
:10460000C62E85EA94E00E942B07B090FE02181691
:1046100019060CF58091DC0581111DC085EA94E036
:104620000E940907B11058C090917606891709F4C5
:104630007AC090917706891721F0909178068913B6
:10464000E0CFEDE0E093790671C060E08EE290E0AB
:104650000E94CD303FCEBB2009F4BFC00E942B0585
:104660008090F9029090FA02A090FB02B090FC02B8
:10467000681979098A099B09683E7340810591058B
:1046800008F4ABC0E091FD02F0E0E053FA4F108A6D
:104690001092FE021092FD023092DF052092DE059C
:1046A00081E08093DC0542E350E061E070E08FEB55
:1046B00095E00E94E8088091DC0581111092DC05EC
:1046C00085EA94E00E942B0718161906F4F585EA8E
:1046D00094E00E940907F4CF90917906891791F22E
:1046E000E091FD0291E09E0F9093FD02F0E0E05317
:1046F000FA4F808B9E3610F0C092FD020E942B056F
:104700008090F9029090FA02A090FB02B090FC0217
:10471000681979098A099B09603D774081059105EF
:1047200008F46FCFAFCF91E2909379060E942B05EA
:104730006093F9027093FA028093FB029093FC025B
:10474000D092FE021092FD025CCF8091DE05909126
:10475000DF059BAF8AAF0E94D80CAAADBBADFD01AF
:1047600001900020E9F73197EA1BFB0B3497A8F181
:1047700011968C918E3489F1CE01CA960E94500E0A
:1047800060911E0482E495E00E948B0682E495E02D
:104790000E94B20C80911C0490911D040E94D80CC0
:1047A00080911A0490911B040E94D80C80911804E7
:1047B000909119040E94D80C86E192E00E94D80CD6
:1047C00080911E048B3409F45CC60CF095C08334D0
:1047D00009F4F3C5893409F4F0C580912C038823CA
:1047E000E1F00E942B058090280390902903A0906F
:1047F0002A03B0902B03681979098A099B09683943
:104800007A438105910508F44DC067E373E082E3C4
:1048100090E00E94E71010922C03809137038823C8
:1048200009F4F9C6C7010E94B009C7010E94570ADE
:10483000E82FF0E0EE0FFF1FEE5EFC4FA080B1808E
:10484000C7010E94570AE82FF0E0EE0FFF1FEC5F50
:10485000FC4FC080D1801A141B041CF01C141D04D2
:104860008CF4C8010E94B0098C8195012C193D0976
:1048700090E037FFC7C68A159B0524F08C159D056F
:104880000CF4C9C688EE93E00E9437058091270397
:10489000811155C7809126038111C2C680912503DD
:1048A0008111CBC6DD24D3942BE3C22E82E495E0A4
:1048B0000E94C4082091AB03181619060CF0C1C75A
:1048C0002111C2C782E495E00E94820890912E03D4
:1048D000992309F4B0C790912D03E92FF0E0EE5B26
:1048E000FC4F8E3309F49FC780839F5F9C3308F48D
:1048F00097C7C0922D03DACF813509F445C58435B9
:1049000009F06BCF0E94240E813019F170F08230D3
:1049100009F063CF60911C0470911D0480911A040A
:1049200090911B040E945C1758CF0E94400E882370
:1049300009F453CF0E949810682F70E0611571053B
:1049400009F44BCF80911C0490911D040E94EE1A33
:1049500044CF0E94400E8823E9F26AE172E0809120
:104960001804909119040E947233892BD1F40E948B
:104970002B0964E871E0C8010E94C41460911C0412
:1049800070911D04C7010E94C414B801C7010E94A0
:104990001915C7010E94190CC8010E94190C0E9428
:1049A000F81261E272E080911804909119040E945B
:1049B0007233892B39F5E0911604F091170486E0E3
:1049C000ABE3B3E001900D928A95E1F710924203B8
:1049D0008BE393E00E94CF1164E871E0C8010E946C
:1049E000C41460911C0470911D04C7010E94C4147A
:1049F000B801C7010E941915C7010E94190CC8010E
:104A00000E94190C67E771E08091180490911904D5
:104A10000E947233892B51F40E949810682F70E025
:104A200080911C0490911D040E94EE1A69E272E0CC
:104A300080911804909119040E947233892BE9F433
:104A400081E08093FF028FEB95E00E94E30864E829
:104A500071E0C8010E94C41460911C0470911D048F
:104A6000C7010E94C414B801C7010E941915C701EB
:104A70000E94190CC8010E94190C63E372E0809136
:104A80001804909119040E947233892BE1F566E5B0
:104A900071E0CE018E960E94C414CC24C394D12C14
:104AA000B601C8010E948519B801CE018E960E94F8
:104AB0004514C8010E94190C6AE0CE018E960E942E
:104AC00028142FEFC21AD20A36E0C316D10441F7D8
:104AD000BE01625D7F4FC8010E94BB1460911C043F
:104AE00070911D04C7010E94C414B801C7010E943F
:104AF0001915C7010E94190CC8010E94190CCE019A
:104B00008E960E94190C6DE372E0809118049091CA
:104B100019040E947233892B09F05AC0809116043F
:104B2000909117040E943D304C01809114049091A3
:104B300015040E943D305C0164018A149B040CF052
:104B400047C066E571E0CE018E960E94C41436011E
:104B50008AE0680E711CC614D704A9F0B601C8011A
:104B60000E948519B801CE018E960E944514C80195
:104B70000E94190C6AE0CE018E960E9428149FEFC5
:104B8000C91AD90AE8CFBE01625D7F4FC8010E94F1
:104B9000BB1460911C0470911D04C7010E94C414D1
:104BA000B801C7010E941915C7010E94190CC8015C
:104BB0000E94190C60EA7FE080E090E00E94D0043F
:104BC000EAE0AE1AB108CE018E960E94190CB5CF5C
:104BD00063E472E080911804909119040E9472338A
:104BE000892B09F011C166E571E0CE018E960E9415
:104BF000C4146CE870E0CE018E960E94D413BE01FE
:104C00006C5C7F4F80E590E00E94C9104CA85DA8C5
:104C10004201F7E38F1A910882E390E097FE03C008
:104C20004201881A990A0597C9F7181419040CF05B
:104C3000E7C025E0421A510866E571E0CE018E9684
:104C40000E946D148CA99DA95C0131E0A31AB108E2
:104C50008D5E9A4FEDE0E89F3001E99F700C1124C2
:104C6000A814B9040CF4CCC066E571E0C7010E9439
:104C7000C414D12CC12CC601860D971D0E94640A54
:104C8000682FF6E0CF16D104D1F025E0C216D1048A
:104C900009F05EC045E050E0CE0101960E94FE188A
:104CA000BE016F5F7F4FC7010E944514CE01019680
:104CB0000E94190C6BE472E0C7010E943B14EFEFF5
:104CC000CE1ADE0AFDE0CF16D104A9F6B701CE0157
:104CD0008E960E944514C7010E94190C6AE0CE010D
:104CE0008E960E942814A414B50459F5BE01625D85
:104CF0007F4FCE0101960E94BB1460911C047091FD
:104D00001D04C7010E94C414BE016F5F7F4FC7011D
:104D10000E941915C7010E94190CCE0101960E942C
:104D2000190C60EA7FE080E090E00E94D00466E524
:104D300071E0CE018E960E946D14250125E0421A85
:104D4000510831E0A31AB1088DE0681A710888CFC4
:104D500039E0C316D10499F449E050E0CE01019640
:104D60000E94FE18BE016F5F7F4FC7010E9445146D
:104D7000CE0101960E94190C68E172E09DCF4BE0D4
:104D800050E08BE0C816D10449F3A6019CE0C91697
:104D9000D10439F5862F90E08230910519F46DE445
:104DA00072E08ACF8330910519F464EA72E084CF0F
:104DB0008132910519F460E572E07ECF8C32910565
:104DC00019F463E572E078CF8430910519F466E553
:104DD00072E072CF4CE050E0069719F469E572E09A
:104DE0006BCFCE0101960E94FE18BE016F5F7F4F10
:104DF000C7010E944514CE0101960E94190C5FCF95
:104E0000CE018E960E94190C6CE572E08091180418
:104E1000909119040E947233892B01F5809114043A
:104E200090911504C0901604D090170440E00097AC
:104E300019F00E943D30482F65E4C6010E949F0D85
:104E40006C01181619060CF076C20E942B09B601E7
:104E500080911C0490911D040E94EE1A60E672E09D
:104E600080911804909119040E947233892B09F0E3
:104E700049C040E065E480911604909117040E94B7
:104E80009F0D31E020E0181619060CF030E0C32E1B
:104E9000D22E80911404909115049A838983809175
:104EA0001204909113049C838B8380911004909141
:104EB00011049E838D835801F501819091905F01CB
:104EC0008114910489F068EE73E080E090E00E9424
:104ED000D00440E065E4C4010E949F0D1816190635
:104EE0001CF4FFEFCF1ADF0A2CAD3DAD2A153B05B0
:104EF00019F70E942B09B60180911C0490911D04A2
:104F00000E94EE1A65E672E08091180490911904EF
:104F10000E947233892BA1F480911604909117049A
:104F20000E94F30D6C01181619060CF00DC20E94B8
:104F30002B09B60180911C0490911D040E94EE1A69
:104F400069E672E080911804909119040E9472330E
:104F5000892B99F460E171E0809116049091170417
:104F60000E94FF0C181619060CF0F7C1BC018091C5
:104F70001C0490911D040E94EE1A6DE672E080916F
:104F80001804909119040E947233892B11F58091B5
:104F90001604909117040E943D30809323040E94D0
:104FA000A7116091160470911704C8010E94C414DF
:104FB00060911C0470911D04C7010E94C414B801C3
:104FC000C7010E941915C7010E94190CC8010E944F
:104FD000190C64E772E080911804909119040E9402
:104FE0007233892B31F580911604909117040E9439
:104FF0003D30809324040E94A711609116047091A3
:105000001704CE0101960E94C41460911C04709193
:105010001D04C7010E94C414BE016F5F7F4FC7010A
:105020000E941915C7010E94190CCE0101960E9419
:10503000190C6BE772E080911804909119040E949A
:105040007233892BD1F581E08093370381E090E0C2
:105050009A838983BE016F5F7F4F82E390E00E9455
:10506000F81180911604909117040E943D3090939E
:1050700032038093310361E373E086E390E00E94A2
:10508000F8110E942B0963E872E0CE0101960E949C
:10509000C41460911C0470911D04C7010E94C414C3
:1050A000BE016F5F7F4FC7010E941915C7010E94A3
:1050B000190CCE0101960E94190C66E872E08091ED
:1050C0001804909119040E947233892B49F581EAE2
:1050D00095E00E94DE08109237031A821982BE0101
:1050E0006F5F7F4F82E390E00E94F8116FE872E0FB
:1050F000CE0101960E94C41460911C0470911D049D
:10510000C7010E94C414BE016F5F7F4FC7010E9498
:105110001915C7010E94190CCE0101960E94190CA5
:1051200063E972E080911804909119040E9472332F
:10513000892B59F480912703882339F081EA95E07F
:105140000E94DE0881E08093200369E972E080918B
:105150001804909119040E947233892B51F58091A3
:105160001604909117040E943D309093350380936C
:10517000340364E373E08EE390E00E94F81164E886
:1051800071E0CE0101960E94C41460911C047091DC
:105190001D04C7010E94C414BE016F5F7F4FC70189
:1051A0000E941915C7010E94190CCE0101960E9498
:1051B000190C6FE972E080911804909119040E9413
:1051C0007233892B51F580911604909117040E9437
:1051D0003D30809336030E942B0966E373E084E33D
:1051E00090E00E94E01264E871E0CE0101960E9416
:1051F000C41460911C0470911D04C7010E94C41462
:10520000BE016F5F7F4FC7010E941915C7010E9441
:10521000190CCE0101960E94190C67EA72E0809188
:105220001804909119040E947233892B41F58091E2
:105230001604909117040E943D3021E0892B09F457
:1052400020E0209338030E942B0968E373E088E292
:1052500090E00E94C81280911404909115040E945D
:105260003D3021E0892B09F420E02093260366E2FB
:1052700073E08BE290E00E94C8120E9427186DEA4A
:1052800072E080911804909119040E947233892B66
:1052900091F460E171E080911C0490911D040E94E2
:1052A000FF0C9093B2038093B10365E671E085EA49
:1052B00094E00E94A00664EB72E080911804909143
:1052C00019040E947233892B31F580911604909154
:1052D00017040E943D309093300380932F036FE2B8
:1052E00073E08AE490E00E94F81180912F0390917E
:1052F00030030E94841588E19EE00FB6F894A895CB
:10530000809360000FBE9093600060ED77E080E0D6
:1053100090E00E94D00469EB72E0809118049091B3
:1053200019040E947233892B09F057CA0E9427186A
:105330000E942B0952CA42E350E068E070E08FEB14
:1053400095E00E94E80883CD42E350E068E070E019
:105350008FEB95E00E94E808ECCD60EE72E0C801AA
:105360000E94C41460911C0470911D04C7010E9426
:10537000C414B801C7010E941915C7010E94190C75
:10538000C8010E94190CF9CD60911C0470911D0494
:10539000C8010E94C4146091B1037091B203C701A7
:1053A0000E948519B801C7010E941915C7010E9402
:1053B000190CC8010E94190C10CA0E94240E8130D9
:1053C00021F18230E9F11092D2051092D10585EADF
:1053D00094E00E942B07892B09F041C08091D105F0
:1053E0009091D205803E9E42D4F56DE070E080E061
:1053F00090E00E94D0048091D1059091D205019651
:105400009093D2058093D105E2CF90912703992301
:1054100019F080932003D7CF80913603823048F46F
:1054200060911C0470911D0480E892E00E945C175A
:10543000CACF60911C0470911D048BE891E0F6CFF7
:10544000809136038230A8F780911001823040F3BA
:1054500060911C0470911D0487E891E0E7CF85EA14
:1054600094E00E942B07892B31F065EA74E0C801B3
:105470000E94D9149ECF66E571E0C8010E94C41451
:1054800098CF80911C0490911D040E943D306C01C6
:105490004497449708F0A5C0809114049091150496
:1054A0000E943D30D82E80911604909117040E94DE
:1054B0003D30B82E80911804909119040E943D301F
:1054C000A82E80911A0490911B040E943D30C9823D
:1054D0008A83AB82BC82DD821E82C8010E94360AAA
:1054E0008091D005813591F4C7010E94B009C701B0
:1054F0000E94FC09AB01BC01405458436109710989
:10550000C8010E943309C8010E94360A66E090E093
:1055100080E00E948B1280910303882389F08091A0
:105520000103909102032091AF033091B003820FE9
:10553000931F883191058CF59093020380930103AA
:105540008091AF039091B003181619060CF045C96D
:105550000E942B0561327F4B8240910508F43DC9C2
:105560006AE771E085EA94E00E94A00660E47FE1CA
:1055700080E090E00E94D0046EE671E085EA94E05D
:105580000E94A00665EA74E0C8010E94D914C8010F
:105590000E94190C0E94BA1568CF10920203109253
:1055A000010361E070E0CE018E960E94851960ECE7
:1055B00072E0C8010E94C414BE01625D7F4FC70142
:1055C0000E94BB14B801C7010E941915C7010E94AF
:1055D000190CC8010E94190CCE018E960E94190C5C
:1055E000AFCF68E873E180E090E00E94D004809142
:1055F00000038F5F80930003823008F0EEC80E94A2
:10560000F314EBC8C81AD90A1C141D0424F08A1517
:105610009B050CF437C980E49FE10E94370542C91D
:10562000809192050E94E90221E0892B09F420E093
:1056300080913803821709F431C90E94C40668EECC
:1056400073E080E090E00E94D0040E94C40681E0F4
:10565000809327030E942B056093210370932203FC
:10566000809323039093240380913603882321F0B1
:1056700081EA95E00E94E308198264EC72E0C801B7
:105680000E948533CE01C4960E94B0098FA91F9253
:105690008F938CA91F928F938DA91F928F938EA9A0
:1056A0001F928F9389EF91E09F938F93FF92EF92D8
:1056B0000E94C833B701C8010E9485331A8E88AD95
:1056C0000FB6F894DEBF0FBECDBF8A3080F51F92B3
:1056D0008F9387E092E09F938F93FF92EF920E94C7
:1056E000C8330F900F900F900F900F900F90B7014D
:1056F000C8010E9485331A8EB801CE018E960E9491
:10570000C414CE018E960E94FC19CE018E960E9482
:10571000190C80912503882379F080911C049091C5
:105720001D0464E00E948B1210922503BBC81F92D7
:105730008F9388E092E0CFCF90E080E0F2CF84E6D4
:1057400090E00E9437058090210390902203A09062
:105750002303B0902403A0913103B091320328EECB
:1057600033E00E947831609396057093970580939B
:10577000980590939905672B682B692B09F44BC00A
:105780000E942B052B013C01481859086A087B0828
:105790008090960590909705A0909805B0909905F7
:1057A000481459046A047B04B0F160939D0570931A
:1057B0009E0580939F059093A00510922003109260
:1057C0002703809136038823B1F081EA95E00E9497
:1057D000DE080E94C40668EE73E080E090E00E945C
:1057E000D0040E94C40665EA74E0C8010E94D9147E
:1057F000C8010E94190C1092370381E080932C039A
:105800000E942B05609328037093290380932A0339
:1058100090932B0347C8809120038111CECF42C8BB
:1058200090932D0343C8108210922E0310922D03E3
:10583000D092AB033BC88C3309F038C8D0922E030A
:1058400035C8222309F465C062E473E08EE793E073
:105850000E94A4336BEC72E08EE793E00E94643008
:105860006BEC72E090E080E00E9464306BEC72E0E0
:1058700090E080E00E9464306BEC72E090E080E0A9
:105880000E9464305C016BEC72E090E080E00E946A
:1058900064306BEC72E090E080E00E9464306BEC6E
:1058A00072E090E080E00E9464306BEC72E090E087
:1058B00080E00E9464306C016BEC72E090E080E06C
:1058C0000E9464306BEC72E090E080E00E946430F3
:1058D0006BEC72E090E080E00E9464306BEC72E070
:1058E00090E080E00E9464309C01F5019081943446
:1058F00009F4FDC00CF087C0913409F4E4C00CF049
:1059000076C0933209F483C1953209F4ECC1109248
:10591000AB0385E10E94E9029C0191E0211531056C
:1059200009F490E09093AE038091AD039817D1F005
:10593000232B91F4D090AC03D394D092AC0340EDE0
:1059400057E061E070E08FEB95E00E94E808F5E039
:10595000DF1202C00E94F81262E370E080E090E083
:105960000E94D0048091AE038093AD030E942B056A
:105970004B015C0180910C0190910D01A0910E01F1
:10598000B0910F0188169906AA06BB0601F54CE2F4
:1059900051E064E070E08FEB95E00E94E808A09190
:1059A000AF03B091B00320E437E74BE150E00E9431
:1059B0007F31860E971EA81EB91E80920C01909210
:1059C0000D01A0920E01B0920F010E94F31480E02D
:1059D00090E0892B11F40C94FD220E943707882354
:1059E00011F40C94F9220E9400000C94F9229234D4
:1059F00009F47AC0933409F08ACF40E061E4C6012B
:105A00000E949F0D84CF903509F4F2C074F4953450
:105A100009F471C0963409F07ACF60E171E0C601F3
:105A20000E94FF0C0E94C70C72CF943509F4C0C0CD
:105A30009A3509F4EEC1933509F069CF8FEB95E003
:105A40000E94E308CC24C394D12CB601C8010E9463
:105A500085198D819E81892B41F060EE72E08981EC
:105A60009A810E949B33892BC1F0B80182E495E0B2
:105A70000E9492066DE282E495E00E948B064091BE
:105A8000100150E070E060E02AE082E495E00E94BE
:105A9000300C82E495E00E94B20CF5E0CF16D10400
:105AA00021F488E891E00E94B60CC8010E94190C0C
:105AB0002FEFC21AD20A39EEC31633E0D30629F605
:105AC00086E891E06EC0C9010E943D30482F65E430
:105AD000C6010E949F0D44E150E061E070E08FEB51
